{
  "_format": "hh-sol-artifact-1",
  "contractName": "NFT",
  "sourceName": "contracts/test/NFT.sol",
  "abi": [
    {
      "anonymous": false,
      "inputs": [
        {
          "indexed": true,
          "internalType": "address",
          "name": "owner",
          "type": "address"
        },
        {
          "indexed": true,
          "internalType": "address",
          "name": "approved",
          "type": "address"
        },
        {
          "indexed": true,
          "internalType": "uint256",
          "name": "tokenId",
          "type": "uint256"
        }
      ],
      "name": "Approval",
      "type": "event"
    },
    {
      "anonymous": false,
      "inputs": [
        {
          "indexed": true,
          "internalType": "address",
          "name": "owner",
          "type": "address"
        },
        {
          "indexed": true,
          "internalType": "address",
          "name": "operator",
          "type": "address"
        },
        {
          "indexed": false,
          "internalType": "bool",
          "name": "approved",
          "type": "bool"
        }
      ],
      "name": "ApprovalForAll",
      "type": "event"
    },
    {
      "anonymous": false,
      "inputs": [
        {
          "indexed": true,
          "internalType": "address",
          "name": "from",
          "type": "address"
        },
        {
          "indexed": true,
          "internalType": "address",
          "name": "to",
          "type": "address"
        },
        {
          "indexed": true,
          "internalType": "uint256",
          "name": "tokenId",
          "type": "uint256"
        }
      ],
      "name": "Transfer",
      "type": "event"
    },
    {
      "inputs": [
        {
          "internalType": "address",
          "name": "to",
          "type": "address"
        },
        {
          "internalType": "uint256",
          "name": "tokenId",
          "type": "uint256"
        }
      ],
      "name": "approve",
      "outputs": [],
      "stateMutability": "nonpayable",
      "type": "function"
    },
    {
      "inputs": [
        {
          "internalType": "address",
          "name": "owner",
          "type": "address"
        }
      ],
      "name": "balanceOf",
      "outputs": [
        {
          "internalType": "uint256",
          "name": "",
          "type": "uint256"
        }
      ],
      "stateMutability": "view",
      "type": "function"
    },
    {
      "inputs": [],
      "name": "baseURI",
      "outputs": [
        {
          "internalType": "string",
          "name": "",
          "type": "string"
        }
      ],
      "stateMutability": "view",
      "type": "function"
    },
    {
      "inputs": [
        {
          "internalType": "uint256",
          "name": "tokenId",
          "type": "uint256"
        }
      ],
      "name": "getApproved",
      "outputs": [
        {
          "internalType": "address",
          "name": "",
          "type": "address"
        }
      ],
      "stateMutability": "view",
      "type": "function"
    },
    {
      "inputs": [
        {
          "internalType": "string",
          "name": "name_",
          "type": "string"
        },
        {
          "internalType": "string",
          "name": "symbol_",
          "type": "string"
        }
      ],
      "name": "initialize",
      "outputs": [],
      "stateMutability": "nonpayable",
      "type": "function"
    },
    {
      "inputs": [
        {
          "internalType": "address",
          "name": "owner",
          "type": "address"
        },
        {
          "internalType": "address",
          "name": "operator",
          "type": "address"
        }
      ],
      "name": "isApprovedForAll",
      "outputs": [
        {
          "internalType": "bool",
          "name": "",
          "type": "bool"
        }
      ],
      "stateMutability": "view",
      "type": "function"
    },
    {
      "inputs": [],
      "name": "name",
      "outputs": [
        {
          "internalType": "string",
          "name": "",
          "type": "string"
        }
      ],
      "stateMutability": "view",
      "type": "function"
    },
    {
      "inputs": [
        {
          "internalType": "uint256",
          "name": "tokenId",
          "type": "uint256"
        }
      ],
      "name": "ownerOf",
      "outputs": [
        {
          "internalType": "address",
          "name": "",
          "type": "address"
        }
      ],
      "stateMutability": "view",
      "type": "function"
    },
    {
      "inputs": [
        {
          "internalType": "address",
          "name": "from",
          "type": "address"
        },
        {
          "internalType": "address",
          "name": "to",
          "type": "address"
        },
        {
          "internalType": "uint256",
          "name": "tokenId",
          "type": "uint256"
        }
      ],
      "name": "safeTransferFrom",
      "outputs": [],
      "stateMutability": "nonpayable",
      "type": "function"
    },
    {
      "inputs": [
        {
          "internalType": "address",
          "name": "from",
          "type": "address"
        },
        {
          "internalType": "address",
          "name": "to",
          "type": "address"
        },
        {
          "internalType": "uint256",
          "name": "tokenId",
          "type": "uint256"
        },
        {
          "internalType": "bytes",
          "name": "_data",
          "type": "bytes"
        }
      ],
      "name": "safeTransferFrom",
      "outputs": [],
      "stateMutability": "nonpayable",
      "type": "function"
    },
    {
      "inputs": [
        {
          "internalType": "address",
          "name": "operator",
          "type": "address"
        },
        {
          "internalType": "bool",
          "name": "approved",
          "type": "bool"
        }
      ],
      "name": "setApprovalForAll",
      "outputs": [],
      "stateMutability": "nonpayable",
      "type": "function"
    },
    {
      "inputs": [
        {
          "internalType": "address",
          "name": "from",
          "type": "address"
        },
        {
          "internalType": "address",
          "name": "to",
          "type": "address"
        },
        {
          "internalType": "uint256",
          "name": "tokenId",
          "type": "uint256"
        }
      ],
      "name": "simulateSafeTransferFrom",
      "outputs": [],
      "stateMutability": "nonpayable",
      "type": "function"
    },
    {
      "inputs": [
        {
          "internalType": "bytes4",
          "name": "interfaceId",
          "type": "bytes4"
        }
      ],
      "name": "supportsInterface",
      "outputs": [
        {
          "internalType": "bool",
          "name": "",
          "type": "bool"
        }
      ],
      "stateMutability": "view",
      "type": "function"
    },
    {
      "inputs": [],
      "name": "symbol",
      "outputs": [
        {
          "internalType": "string",
          "name": "",
          "type": "string"
        }
      ],
      "stateMutability": "view",
      "type": "function"
    },
    {
      "inputs": [
        {
          "internalType": "uint256",
          "name": "index",
          "type": "uint256"
        }
      ],
      "name": "tokenByIndex",
      "outputs": [
        {
          "internalType": "uint256",
          "name": "",
          "type": "uint256"
        }
      ],
      "stateMutability": "view",
      "type": "function"
    },
    {
      "inputs": [
        {
          "internalType": "address",
          "name": "owner",
          "type": "address"
        },
        {
          "internalType": "uint256",
          "name": "index",
          "type": "uint256"
        }
      ],
      "name": "tokenOfOwnerByIndex",
      "outputs": [
        {
          "internalType": "uint256",
          "name": "",
          "type": "uint256"
        }
      ],
      "stateMutability": "view",
      "type": "function"
    },
    {
      "inputs": [
        {
          "internalType": "uint256",
          "name": "tokenId",
          "type": "uint256"
        }
      ],
      "name": "tokenURI",
      "outputs": [
        {
          "internalType": "string",
          "name": "",
          "type": "string"
        }
      ],
      "stateMutability": "view",
      "type": "function"
    },
    {
      "inputs": [],
      "name": "totalSupply",
      "outputs": [
        {
          "internalType": "uint256",
          "name": "",
          "type": "uint256"
        }
      ],
      "stateMutability": "view",
      "type": "function"
    },
    {
      "inputs": [
        {
          "internalType": "address",
          "name": "from",
          "type": "address"
        },
        {
          "internalType": "address",
          "name": "to",
          "type": "address"
        },
        {
          "internalType": "uint256",
          "name": "tokenId",
          "type": "uint256"
        }
      ],
      "name": "transferFrom",
      "outputs": [],
      "stateMutability": "nonpayable",
      "type": "function"
    }
  ],
  "bytecode": "0x608060405234801561001057600080fd5b5061218e806100206000396000f3fe608060405234801561001057600080fd5b50600436106101215760003560e01c80634f6ccce7116100ad578063a22cb46511610071578063a22cb46514610494578063b88d4fde146104c2578063c87b56dd14610588578063cb322d46146105a5578063e985e9c5146105db57610121565b80634f6ccce7146104245780636352211e146104415780636c0360eb1461045e57806370a082311461046657806395d89b411461048c57610121565b806318160ddd116100f457806318160ddd1461024557806323b872dd1461025f5780632f745c591461029557806342842e0e146102c15780634cd88b76146102f757610121565b806301ffc9a71461012657806306fdde0314610161578063081812fc146101de578063095ea7b314610217575b600080fd5b61014d6004803603602081101561013c57600080fd5b50356001600160e01b031916610609565b604080519115158252519081900360200190f35b61016961062c565b6040805160208082528351818301528351919283929083019185019080838360005b838110156101a357818101518382015260200161018b565b50505050905090810190601f1680156101d05780820380516001836020036101000a031916815260200191505b509250505060405180910390f35b6101fb600480360360208110156101f457600080fd5b50356106c2565b604080516001600160a01b039092168252519081900360200190f35b6102436004803603604081101561022d57600080fd5b506001600160a01b038135169060200135610724565b005b61024d6107ff565b60408051918252519081900360200190f35b6102436004803603606081101561027557600080fd5b506001600160a01b03813581169160208101359091169060400135610810565b61024d600480360360408110156102ab57600080fd5b506001600160a01b038135169060200135610867565b610243600480360360608110156102d757600080fd5b506001600160a01b03813581169160208101359091169060400135610892565b6102436004803603604081101561030d57600080fd5b81019060208101813564010000000081111561032857600080fd5b82018360208201111561033a57600080fd5b8035906020019184600183028401116401000000008311171561035c57600080fd5b91908080601f01602080910402602001604051908101604052809392919081815260200183838082843760009201919091525092959493602081019350359150506401000000008111156103af57600080fd5b8201836020820111156103c157600080fd5b803590602001918460018302840111640100000000831117156103e357600080fd5b91908080601f0160208091040260200160405190810160405280939291908181526020018383808284376000920191909152509295506108ad945050505050565b61024d6004803603602081101561043a57600080fd5b5035610965565b6101fb6004803603602081101561045757600080fd5b503561097b565b6101696109a3565b61024d6004803603602081101561047c57600080fd5b50356001600160a01b0316610a04565b610169610a6c565b610243600480360360408110156104aa57600080fd5b506001600160a01b0381351690602001351515610acd565b610243600480360360808110156104d857600080fd5b6001600160a01b0382358116926020810135909116916040820135919081019060808101606082013564010000000081111561051357600080fd5b82018360208201111561052557600080fd5b8035906020019184600183028401116401000000008311171561054757600080fd5b91908080601f016020809104026020016040519081016040528093929190818152602001838380828437600092019190915250929550610bd2945050505050565b6101696004803603602081101561059e57600080fd5b5035610c30565b610243600480360360608110156105bb57600080fd5b506001600160a01b03813581169160208101359091169060400135610eb3565b61014d600480360360408110156105f157600080fd5b506001600160a01b0381358116916020013516610ebe565b6001600160e01b0319811660009081526033602052604090205460ff165b919050565b606a8054604080516020601f60026000196101006001881615020190951694909404938401819004810282018101909252828152606093909290918301828280156106b85780601f1061068d576101008083540402835291602001916106b8565b820191906000526020600020905b81548152906001019060200180831161069b57829003601f168201915b5050505050905090565b60006106cd82610eec565b6107085760405162461bcd60e51b815260040180806020018281038252602c815260200180612083602c913960400191505060405180910390fd5b506000908152606860205260409020546001600160a01b031690565b600061072f8261097b565b9050806001600160a01b0316836001600160a01b031614156107825760405162461bcd60e51b81526004018080602001828103825260218152602001806121076021913960400191505060405180910390fd5b806001600160a01b0316610794610ef9565b6001600160a01b031614806107b557506107b5816107b0610ef9565b610ebe565b6107f05760405162461bcd60e51b8152600401808060200182810382526038815260200180611fa86038913960400191505060405180910390fd5b6107fa8383610efd565b505050565b600061080b6066610f6b565b905090565b61082161081b610ef9565b82610f76565b61085c5760405162461bcd60e51b81526004018080602001828103825260318152602001806121286031913960400191505060405180910390fd5b6107fa83838361101a565b6001600160a01b03821660009081526065602052604081206108899083611166565b90505b92915050565b6107fa83838360405180602001604052806000815250610bd2565b600054610100900460ff16806108c657506108c6611172565b806108d4575060005460ff16155b61090f5760405162461bcd60e51b815260040180806020018281038252602e815260200180612033602e913960400191505060405180910390fd5b600054610100900460ff1615801561093a576000805460ff1961ff0019909116610100171660011790555b6109448383611183565b61094f33600061122a565b80156107fa576000805461ff0019169055505050565b600080610973606684611248565b509392505050565b600061088c8260405180606001604052806029815260200161200a6029913960669190611264565b606d8054604080516020601f60026000196101006001881615020190951694909404938401819004810282018101909252828152606093909290918301828280156106b85780601f1061068d576101008083540402835291602001916106b8565b60006001600160a01b038216610a4b5760405162461bcd60e51b815260040180806020018281038252602a815260200180611fe0602a913960400191505060405180910390fd5b6001600160a01b038216600090815260656020526040902061088c90610f6b565b606b8054604080516020601f60026000196101006001881615020190951694909404938401819004810282018101909252828152606093909290918301828280156106b85780601f1061068d576101008083540402835291602001916106b8565b610ad5610ef9565b6001600160a01b0316826001600160a01b03161415610b3b576040805162461bcd60e51b815260206004820152601960248201527f4552433732313a20617070726f766520746f2063616c6c657200000000000000604482015290519081900360640190fd5b8060696000610b48610ef9565b6001600160a01b03908116825260208083019390935260409182016000908120918716808252919093529120805460ff191692151592909217909155610b8c610ef9565b6001600160a01b03167f17307eab39ab6107e8899845ad3d59bd9653f200f220920489ca2b5937696c318360405180821515815260200191505060405180910390a35050565b610be3610bdd610ef9565b83610f76565b610c1e5760405162461bcd60e51b81526004018080602001828103825260318152602001806121286031913960400191505060405180910390fd5b610c2a8484848461127b565b50505050565b6060610c3b82610eec565b610c765760405162461bcd60e51b815260040180806020018281038252602f8152602001806120d8602f913960400191505060405180910390fd5b6000828152606c602090815260409182902080548351601f6002600019610100600186161502019093169290920491820184900484028101840190945280845260609392830182828015610d0b5780601f10610ce057610100808354040283529160200191610d0b565b820191906000526020600020905b815481529060010190602001808311610cee57829003601f168201915b505050505090506060610d1c6109a3565b9050805160001415610d3057509050610627565b815115610df15780826040516020018083805190602001908083835b60208310610d6b5780518252601f199092019160209182019101610d4c565b51815160209384036101000a600019018019909216911617905285519190930192850191508083835b60208310610db35780518252601f199092019160209182019101610d94565b6001836020036101000a0380198251168184511680821785525050505050509050019250505060405160208183030381529060405292505050610627565b80610dfb856112cd565b6040516020018083805190602001908083835b60208310610e2d5780518252601f199092019160209182019101610e0e565b51815160209384036101000a600019018019909216911617905285519190930192850191508083835b60208310610e755780518252601f199092019160209182019101610e56565b6001836020036101000a0380198251168184511680821785525050505050509050019250505060405160208183030381529060405292505050919050565b6107fa838383610892565b6001600160a01b03918216600090815260696020908152604080832093909416825291909152205460ff1690565b600061088c6066836113a8565b3390565b600081815260686020526040902080546001600160a01b0319166001600160a01b0384169081179091558190610f328261097b565b6001600160a01b03167f8c5be1e5ebec7d5bd14f71427d1e84f3dd0314c0f7b2291e5b200ac8c7c3b92560405160405180910390a45050565b600061088c826113b4565b6000610f8182610eec565b610fbc5760405162461bcd60e51b815260040180806020018281038252602c815260200180611f7c602c913960400191505060405180910390fd5b6000610fc78361097b565b9050806001600160a01b0316846001600160a01b031614806110025750836001600160a01b0316610ff7846106c2565b6001600160a01b0316145b8061101257506110128185610ebe565b949350505050565b826001600160a01b031661102d8261097b565b6001600160a01b0316146110725760405162461bcd60e51b81526004018080602001828103825260298152602001806120af6029913960400191505060405180910390fd5b6001600160a01b0382166110b75760405162461bcd60e51b8152600401808060200182810382526024815260200180611f586024913960400191505060405180910390fd5b6110c28383836107fa565b6110cd600082610efd565b6001600160a01b03831660009081526065602052604090206110ef90826113b8565b506001600160a01b038216600090815260656020526040902061111290826113c4565b5061111f606682846113d0565b5080826001600160a01b0316846001600160a01b03167fddf252ad1be2c89b69c2b068fc378daa952ba7f163c4a11628f55a4df523b3ef60405160405180910390a4505050565b600061088983836113e6565b600061117d3061144a565b15905090565b600054610100900460ff168061119c575061119c611172565b806111aa575060005460ff16155b6111e55760405162461bcd60e51b815260040180806020018281038252602e815260200180612033602e913960400191505060405180910390fd5b600054610100900460ff16158015611210576000805460ff1961ff0019909116610100171660011790555b611218611450565b6112206114f2565b61094f838361158f565b611244828260405180602001604052806000815250611674565b5050565b600080808061125786866116c6565b9097909650945050505050565b6000611271848484611741565b90505b9392505050565b61128684848461101a565b6112928484848461180b565b610c2a5760405162461bcd60e51b8152600401808060200182810382526032815260200180611f266032913960400191505060405180910390fd5b6060816112f257506040805180820190915260018152600360fc1b6020820152610627565b8160005b811561130a57600101600a820491506112f6565b60608167ffffffffffffffff8111801561132357600080fd5b506040519080825280601f01601f19166020018201604052801561134e576020820181803683370190505b50859350905060001982015b831561139f57600a840660300160f81b8282806001900393508151811061137d57fe5b60200101906001600160f81b031916908160001a905350600a8404935061135a565b50949350505050565b60006108898383611973565b5490565b6000610889838361198b565b60006108898383611a51565b600061127184846001600160a01b038516611a9b565b815460009082106114285760405162461bcd60e51b8152600401808060200182810382526022815260200180611f046022913960400191505060405180910390fd5b82600001828154811061143757fe5b9060005260206000200154905092915050565b3b151590565b600054610100900460ff16806114695750611469611172565b80611477575060005460ff16155b6114b25760405162461bcd60e51b815260040180806020018281038252602e815260200180612033602e913960400191505060405180910390fd5b600054610100900460ff161580156114dd576000805460ff1961ff0019909116610100171660011790555b80156114ef576000805461ff00191690555b50565b600054610100900460ff168061150b575061150b611172565b80611519575060005460ff16155b6115545760405162461bcd60e51b815260040180806020018281038252602e815260200180612033602e913960400191505060405180910390fd5b600054610100900460ff1615801561157f576000805460ff1961ff0019909116610100171660011790555b6114dd6301ffc9a760e01b611b32565b600054610100900460ff16806115a857506115a8611172565b806115b6575060005460ff16155b6115f15760405162461bcd60e51b815260040180806020018281038252602e815260200180612033602e913960400191505060405180910390fd5b600054610100900460ff1615801561161c576000805460ff1961ff0019909116610100171660011790555b825161162f90606a906020860190611e70565b50815161164390606b906020850190611e70565b506116546380ac58cd60e01b611b32565b611664635b5e139f60e01b611b32565b61094f63780e9d6360e01b611b32565b61167e8383611bb6565b61168b600084848461180b565b6107fa5760405162461bcd60e51b8152600401808060200182810382526032815260200180611f266032913960400191505060405180910390fd5b81546000908190831061170a5760405162461bcd60e51b81526004018080602001828103825260228152602001806120616022913960400191505060405180910390fd5b600084600001848154811061171b57fe5b906000526020600020906002020190508060000154816001015492509250509250929050565b600082815260018401602052604081205482816117dc5760405162461bcd60e51b81526004018080602001828103825283818151815260200191508051906020019080838360005b838110156117a1578181015183820152602001611789565b50505050905090810190601f1680156117ce5780820380516001836020036101000a031916815260200191505b509250505060405180910390fd5b508460000160018203815481106117ef57fe5b9060005260206000209060020201600101549150509392505050565b600061181f846001600160a01b031661144a565b61182b57506001611012565b6060611939630a85bd0160e11b611840610ef9565b88878760405160240180856001600160a01b03168152602001846001600160a01b0316815260200183815260200180602001828103825283818151815260200191508051906020019080838360005b838110156118a757818101518382015260200161188f565b50505050905090810190601f1680156118d45780820380516001836020036101000a031916815260200191505b5095505050505050604051602081830303815290604052906001600160e01b0319166020820180516001600160e01b038381831617835250505050604051806060016040528060328152602001611f26603291396001600160a01b0388169190611ce4565b9050600081806020019051602081101561195257600080fd5b50516001600160e01b031916630a85bd0160e11b1492505050949350505050565b60009081526001919091016020526040902054151590565b60008181526001830160205260408120548015611a4757835460001980830191908101906000908790839081106119be57fe5b90600052602060002001549050808760000184815481106119db57fe5b600091825260208083209091019290925582815260018981019092526040902090840190558654879080611a0b57fe5b6001900381819060005260206000200160009055905586600101600087815260200190815260200160002060009055600194505050505061088c565b600091505061088c565b6000611a5d8383611973565b611a935750815460018181018455600084815260208082209093018490558454848252828601909352604090209190915561088c565b50600061088c565b600082815260018401602052604081205480611b00575050604080518082018252838152602080820184815286546001818101895560008981528481209551600290930290950191825591519082015586548684528188019092529290912055611274565b82856000016001830381548110611b1357fe5b9060005260206000209060020201600101819055506000915050611274565b6001600160e01b03198082161415611b91576040805162461bcd60e51b815260206004820152601c60248201527f4552433136353a20696e76616c696420696e7465726661636520696400000000604482015290519081900360640190fd5b6001600160e01b0319166000908152603360205260409020805460ff19166001179055565b6001600160a01b038216611c11576040805162461bcd60e51b815260206004820181905260248201527f4552433732313a206d696e7420746f20746865207a65726f2061646472657373604482015290519081900360640190fd5b611c1a81610eec565b15611c6c576040805162461bcd60e51b815260206004820152601c60248201527f4552433732313a20746f6b656e20616c7265616479206d696e74656400000000604482015290519081900360640190fd5b611c78600083836107fa565b6001600160a01b0382166000908152606560205260409020611c9a90826113c4565b50611ca7606682846113d0565b5060405181906001600160a01b038416906000907fddf252ad1be2c89b69c2b068fc378daa952ba7f163c4a11628f55a4df523b3ef908290a45050565b6060611271848460008585611cf88561144a565b611d49576040805162461bcd60e51b815260206004820152601d60248201527f416464726573733a2063616c6c20746f206e6f6e2d636f6e7472616374000000604482015290519081900360640190fd5b60006060866001600160a01b031685876040518082805190602001908083835b60208310611d885780518252601f199092019160209182019101611d69565b6001836020036101000a03801982511681845116808217855250505050505090500191505060006040518083038185875af1925050503d8060008114611dea576040519150601f19603f3d011682016040523d82523d6000602084013e611def565b606091505b5091509150611dff828286611e0a565b979650505050505050565b60608315611e19575081611274565b825115611e295782518084602001fd5b60405162461bcd60e51b81526020600482018181528451602484015284518593919283926044019190850190808383600083156117a1578181015183820152602001611789565b828054600181600116156101000203166002900490600052602060002090601f016020900481019282601f10611eb157805160ff1916838001178555611ede565b82800160010185558215611ede579182015b82811115611ede578251825591602001919060010190611ec3565b50611eea929150611eee565b5090565b5b80821115611eea5760008155600101611eef56fe456e756d657261626c655365743a20696e646578206f7574206f6620626f756e64734552433732313a207472616e7366657220746f206e6f6e20455243373231526563656976657220696d706c656d656e7465724552433732313a207472616e7366657220746f20746865207a65726f20616464726573734552433732313a206f70657261746f7220717565727920666f72206e6f6e6578697374656e7420746f6b656e4552433732313a20617070726f76652063616c6c6572206973206e6f74206f776e6572206e6f7220617070726f76656420666f7220616c6c4552433732313a2062616c616e636520717565727920666f7220746865207a65726f20616464726573734552433732313a206f776e657220717565727920666f72206e6f6e6578697374656e7420746f6b656e496e697469616c697a61626c653a20636f6e747261637420697320616c726561647920696e697469616c697a6564456e756d657261626c654d61703a20696e646578206f7574206f6620626f756e64734552433732313a20617070726f76656420717565727920666f72206e6f6e6578697374656e7420746f6b656e4552433732313a207472616e73666572206f6620746f6b656e2074686174206973206e6f74206f776e4552433732314d657461646174613a2055524920717565727920666f72206e6f6e6578697374656e7420746f6b656e4552433732313a20617070726f76616c20746f2063757272656e74206f776e65724552433732313a207472616e736665722063616c6c6572206973206e6f74206f776e6572206e6f7220617070726f766564a26469706673582212204d9210c81542701e4277908876693e29b77d1c2daa677c5334b4b56acde7f75564736f6c634300060c0033",
  "linkReferences": {},
  "deployedLinkReferences": {}
}