{
  "_format": "hh-sol-artifact-1",
  "contractName": "NFT",
  "sourceName": "contracts/test/NFT.sol",
  "abi": [
    {
      "anonymous": false,
      "inputs": [
        {
          "indexed": true,
          "internalType": "address",
          "name": "owner",
          "type": "address"
        },
        {
          "indexed": true,
          "internalType": "address",
          "name": "approved",
          "type": "address"
        },
        {
          "indexed": true,
          "internalType": "uint256",
          "name": "tokenId",
          "type": "uint256"
        }
      ],
      "name": "Approval",
      "type": "event"
    },
    {
      "anonymous": false,
      "inputs": [
        {
          "indexed": true,
          "internalType": "address",
          "name": "owner",
          "type": "address"
        },
        {
          "indexed": true,
          "internalType": "address",
          "name": "operator",
          "type": "address"
        },
        {
          "indexed": false,
          "internalType": "bool",
          "name": "approved",
          "type": "bool"
        }
      ],
      "name": "ApprovalForAll",
      "type": "event"
    },
    {
      "anonymous": false,
      "inputs": [
        {
          "indexed": true,
          "internalType": "address",
          "name": "from",
          "type": "address"
        },
        {
          "indexed": true,
          "internalType": "address",
          "name": "to",
          "type": "address"
        },
        {
          "indexed": true,
          "internalType": "uint256",
          "name": "tokenId",
          "type": "uint256"
        }
      ],
      "name": "Transfer",
      "type": "event"
    },
    {
      "inputs": [
        {
          "internalType": "address",
          "name": "to",
          "type": "address"
        },
        {
          "internalType": "uint256",
          "name": "tokenId",
          "type": "uint256"
        }
      ],
      "name": "approve",
      "outputs": [],
      "stateMutability": "nonpayable",
      "type": "function"
    },
    {
      "inputs": [
        {
          "internalType": "address",
          "name": "owner",
          "type": "address"
        }
      ],
      "name": "balanceOf",
      "outputs": [
        {
          "internalType": "uint256",
          "name": "",
          "type": "uint256"
        }
      ],
      "stateMutability": "view",
      "type": "function"
    },
    {
      "inputs": [],
      "name": "baseURI",
      "outputs": [
        {
          "internalType": "string",
          "name": "",
          "type": "string"
        }
      ],
      "stateMutability": "view",
      "type": "function"
    },
    {
      "inputs": [
        {
          "internalType": "uint256",
          "name": "tokenId",
          "type": "uint256"
        }
      ],
      "name": "getApproved",
      "outputs": [
        {
          "internalType": "address",
          "name": "",
          "type": "address"
        }
      ],
      "stateMutability": "view",
      "type": "function"
    },
    {
      "inputs": [
        {
          "internalType": "string",
          "name": "name_",
          "type": "string"
        },
        {
          "internalType": "string",
          "name": "symbol_",
          "type": "string"
        }
      ],
      "name": "initialize",
      "outputs": [],
      "stateMutability": "nonpayable",
      "type": "function"
    },
    {
      "inputs": [
        {
          "internalType": "address",
          "name": "owner",
          "type": "address"
        },
        {
          "internalType": "address",
          "name": "operator",
          "type": "address"
        }
      ],
      "name": "isApprovedForAll",
      "outputs": [
        {
          "internalType": "bool",
          "name": "",
          "type": "bool"
        }
      ],
      "stateMutability": "view",
      "type": "function"
    },
    {
      "inputs": [],
      "name": "name",
      "outputs": [
        {
          "internalType": "string",
          "name": "",
          "type": "string"
        }
      ],
      "stateMutability": "view",
      "type": "function"
    },
    {
      "inputs": [
        {
          "internalType": "uint256",
          "name": "tokenId",
          "type": "uint256"
        }
      ],
      "name": "ownerOf",
      "outputs": [
        {
          "internalType": "address",
          "name": "",
          "type": "address"
        }
      ],
      "stateMutability": "view",
      "type": "function"
    },
    {
      "inputs": [
        {
          "internalType": "address",
          "name": "from",
          "type": "address"
        },
        {
          "internalType": "address",
          "name": "to",
          "type": "address"
        },
        {
          "internalType": "uint256",
          "name": "tokenId",
          "type": "uint256"
        }
      ],
      "name": "safeTransferFrom",
      "outputs": [],
      "stateMutability": "nonpayable",
      "type": "function"
    },
    {
      "inputs": [
        {
          "internalType": "address",
          "name": "from",
          "type": "address"
        },
        {
          "internalType": "address",
          "name": "to",
          "type": "address"
        },
        {
          "internalType": "uint256",
          "name": "tokenId",
          "type": "uint256"
        },
        {
          "internalType": "bytes",
          "name": "_data",
          "type": "bytes"
        }
      ],
      "name": "safeTransferFrom",
      "outputs": [],
      "stateMutability": "nonpayable",
      "type": "function"
    },
    {
      "inputs": [
        {
          "internalType": "address",
          "name": "operator",
          "type": "address"
        },
        {
          "internalType": "bool",
          "name": "approved",
          "type": "bool"
        }
      ],
      "name": "setApprovalForAll",
      "outputs": [],
      "stateMutability": "nonpayable",
      "type": "function"
    },
    {
      "inputs": [
        {
          "internalType": "address",
          "name": "from",
          "type": "address"
        },
        {
          "internalType": "address",
          "name": "to",
          "type": "address"
        },
        {
          "internalType": "uint256",
          "name": "tokenId",
          "type": "uint256"
        }
      ],
      "name": "simulateSafeTransferFrom",
      "outputs": [],
      "stateMutability": "nonpayable",
      "type": "function"
    },
    {
      "inputs": [
        {
          "internalType": "bytes4",
          "name": "interfaceId",
          "type": "bytes4"
        }
      ],
      "name": "supportsInterface",
      "outputs": [
        {
          "internalType": "bool",
          "name": "",
          "type": "bool"
        }
      ],
      "stateMutability": "view",
      "type": "function"
    },
    {
      "inputs": [],
      "name": "symbol",
      "outputs": [
        {
          "internalType": "string",
          "name": "",
          "type": "string"
        }
      ],
      "stateMutability": "view",
      "type": "function"
    },
    {
      "inputs": [
        {
          "internalType": "uint256",
          "name": "index",
          "type": "uint256"
        }
      ],
      "name": "tokenByIndex",
      "outputs": [
        {
          "internalType": "uint256",
          "name": "",
          "type": "uint256"
        }
      ],
      "stateMutability": "view",
      "type": "function"
    },
    {
      "inputs": [
        {
          "internalType": "address",
          "name": "owner",
          "type": "address"
        },
        {
          "internalType": "uint256",
          "name": "index",
          "type": "uint256"
        }
      ],
      "name": "tokenOfOwnerByIndex",
      "outputs": [
        {
          "internalType": "uint256",
          "name": "",
          "type": "uint256"
        }
      ],
      "stateMutability": "view",
      "type": "function"
    },
    {
      "inputs": [
        {
          "internalType": "uint256",
          "name": "tokenId",
          "type": "uint256"
        }
      ],
      "name": "tokenURI",
      "outputs": [
        {
          "internalType": "string",
          "name": "",
          "type": "string"
        }
      ],
      "stateMutability": "view",
      "type": "function"
    },
    {
      "inputs": [],
      "name": "totalSupply",
      "outputs": [
        {
          "internalType": "uint256",
          "name": "",
          "type": "uint256"
        }
      ],
      "stateMutability": "view",
      "type": "function"
    },
    {
      "inputs": [
        {
          "internalType": "address",
          "name": "from",
          "type": "address"
        },
        {
          "internalType": "address",
          "name": "to",
          "type": "address"
        },
        {
          "internalType": "uint256",
          "name": "tokenId",
          "type": "uint256"
        }
      ],
      "name": "transferFrom",
      "outputs": [],
      "stateMutability": "nonpayable",
      "type": "function"
    }
  ],
  "bytecode": "0x608060405234801561001057600080fd5b5061330d806100206000396000f3fe608060405234801561001057600080fd5b50600436106101215760003560e01c80634f6ccce7116100ad578063a22cb46511610071578063a22cb46514610758578063b88d4fde146107a8578063c87b56dd146108ad578063cb322d4614610954578063e985e9c5146109c257610121565b80634f6ccce7146105605780636352211e146105a25780636c0360eb146105fa57806370a082311461067d57806395d89b41146106d557610121565b806318160ddd116100f457806318160ddd146102b257806323b872dd146102d05780632f745c591461033e57806342842e0e146103a05780634cd88b761461040e57610121565b806301ffc9a71461012657806306fdde0314610189578063081812fc1461020c578063095ea7b314610264575b600080fd5b6101716004803603602081101561013c57600080fd5b8101908080357bffffffffffffffffffffffffffffffffffffffffffffffffffffffff19169060200190929190505050610a3c565b60405180821515815260200191505060405180910390f35b610191610aa4565b6040518080602001828103825283818151815260200191508051906020019080838360005b838110156101d15780820151818401526020810190506101b6565b50505050905090810190601f1680156101fe5780820380516001836020036101000a031916815260200191505b509250505060405180910390f35b6102386004803603602081101561022257600080fd5b8101908080359060200190929190505050610b46565b604051808273ffffffffffffffffffffffffffffffffffffffff16815260200191505060405180910390f35b6102b06004803603604081101561027a57600080fd5b81019080803573ffffffffffffffffffffffffffffffffffffffff16906020019092919080359060200190929190505050610be1565b005b6102ba610d25565b6040518082815260200191505060405180910390f35b61033c600480360360608110156102e657600080fd5b81019080803573ffffffffffffffffffffffffffffffffffffffff169060200190929190803573ffffffffffffffffffffffffffffffffffffffff16906020019092919080359060200190929190505050610d36565b005b61038a6004803603604081101561035457600080fd5b81019080803573ffffffffffffffffffffffffffffffffffffffff16906020019092919080359060200190929190505050610dac565b6040518082815260200191505060405180910390f35b61040c600480360360608110156103b657600080fd5b81019080803573ffffffffffffffffffffffffffffffffffffffff169060200190929190803573ffffffffffffffffffffffffffffffffffffffff16906020019092919080359060200190929190505050610e07565b005b61055e6004803603604081101561042457600080fd5b810190808035906020019064010000000081111561044157600080fd5b82018360208201111561045357600080fd5b8035906020019184600183028401116401000000008311171561047557600080fd5b91908080601f016020809104026020016040519081016040528093929190818152602001838380828437600081840152601f19601f820116905080830192505050505050509192919290803590602001906401000000008111156104d857600080fd5b8201836020820111156104ea57600080fd5b8035906020019184600183028401116401000000008311171561050c57600080fd5b91908080601f016020809104026020016040519081016040528093929190818152602001838380828437600081840152601f19601f820116905080830192505050505050509192919290505050610e27565b005b61058c6004803603602081101561057657600080fd5b8101908080359060200190929190505050610f3c565b6040518082815260200191505060405180910390f35b6105ce600480360360208110156105b857600080fd5b8101908080359060200190929190505050610f5f565b604051808273ffffffffffffffffffffffffffffffffffffffff16815260200191505060405180910390f35b610602610f96565b6040518080602001828103825283818151815260200191508051906020019080838360005b83811015610642578082015181840152602081019050610627565b50505050905090810190601f16801561066f5780820380516001836020036101000a031916815260200191505b509250505060405180910390f35b6106bf6004803603602081101561069357600080fd5b81019080803573ffffffffffffffffffffffffffffffffffffffff169060200190929190505050611038565b6040518082815260200191505060405180910390f35b6106dd61110d565b6040518080602001828103825283818151815260200191508051906020019080838360005b8381101561071d578082015181840152602081019050610702565b50505050905090810190601f16801561074a5780820380516001836020036101000a031916815260200191505b509250505060405180910390f35b6107a66004803603604081101561076e57600080fd5b81019080803573ffffffffffffffffffffffffffffffffffffffff1690602001909291908035151590602001909291905050506111af565b005b6108ab600480360360808110156107be57600080fd5b81019080803573ffffffffffffffffffffffffffffffffffffffff169060200190929190803573ffffffffffffffffffffffffffffffffffffffff169060200190929190803590602001909291908035906020019064010000000081111561082557600080fd5b82018360208201111561083757600080fd5b8035906020019184600183028401116401000000008311171561085957600080fd5b91908080601f016020809104026020016040519081016040528093929190818152602001838380828437600081840152601f19601f820116905080830192505050505050509192919290505050611365565b005b6108d9600480360360208110156108c357600080fd5b81019080803590602001909291905050506113dd565b6040518080602001828103825283818151815260200191508051906020019080838360005b838110156109195780820151818401526020810190506108fe565b50505050905090810190601f1680156109465780820380516001836020036101000a031916815260200191505b509250505060405180910390f35b6109c06004803603606081101561096a57600080fd5b81019080803573ffffffffffffffffffffffffffffffffffffffff169060200190929190803573ffffffffffffffffffffffffffffffffffffffff169060200190929190803590602001909291905050506116ae565b005b610a24600480360360408110156109d857600080fd5b81019080803573ffffffffffffffffffffffffffffffffffffffff169060200190929190803573ffffffffffffffffffffffffffffffffffffffff1690602001909291905050506116be565b60405180821515815260200191505060405180910390f35b600060336000837bffffffffffffffffffffffffffffffffffffffffffffffffffffffff19167bffffffffffffffffffffffffffffffffffffffffffffffffffffffff1916815260200190815260200160002060009054906101000a900460ff169050919050565b6060606a8054600181600116156101000203166002900480601f016020809104026020016040519081016040528092919081815260200182805460018160011615610100020316600290048015610b3c5780601f10610b1157610100808354040283529160200191610b3c565b820191906000526020600020905b815481529060010190602001808311610b1f57829003601f168201915b5050505050905090565b6000610b5182611752565b610ba6576040517f08c379a000000000000000000000000000000000000000000000000000000000815260040180806020018281038252602c815260200180613202602c913960400191505060405180910390fd5b6068600083815260200190815260200160002060009054906101000a900473ffffffffffffffffffffffffffffffffffffffff169050919050565b6000610bec82610f5f565b90508073ffffffffffffffffffffffffffffffffffffffff168373ffffffffffffffffffffffffffffffffffffffff161415610c73576040517f08c379a00000000000000000000000000000000000000000000000000000000081526004018080602001828103825260218152602001806132866021913960400191505060405180910390fd5b8073ffffffffffffffffffffffffffffffffffffffff16610c9261176f565b73ffffffffffffffffffffffffffffffffffffffff161480610cc15750610cc081610cbb61176f565b6116be565b5b610d16576040517f08c379a00000000000000000000000000000000000000000000000000000000081526004018080602001828103825260388152602001806131276038913960400191505060405180910390fd5b610d208383611777565b505050565b6000610d316066611830565b905090565b610d47610d4161176f565b82611845565b610d9c576040517f08c379a00000000000000000000000000000000000000000000000000000000081526004018080602001828103825260318152602001806132a76031913960400191505060405180910390fd5b610da7838383611939565b505050565b6000610dff82606560008673ffffffffffffffffffffffffffffffffffffffff1673ffffffffffffffffffffffffffffffffffffffff168152602001908152602001600020611b7c90919063ffffffff16565b905092915050565b610e2283838360405180602001604052806000815250611365565b505050565b600060019054906101000a900460ff1680610e465750610e45611b96565b5b80610e5c575060008054906101000a900460ff16155b610eb1576040517f08c379a000000000000000000000000000000000000000000000000000000000815260040180806020018281038252602e8152602001806131b2602e913960400191505060405180910390fd5b60008060019054906101000a900460ff161590508015610f01576001600060016101000a81548160ff02191690831515021790555060016000806101000a81548160ff0219169083151502179055505b610f0b8383611ba7565b610f16336000611cc1565b8015610f375760008060016101000a81548160ff0219169083151502179055505b505050565b600080610f53836066611cdf90919063ffffffff16565b50905080915050919050565b6000610f8f82604051806060016040528060298152602001613189602991396066611d0b9092919063ffffffff16565b9050919050565b6060606d8054600181600116156101000203166002900480601f01602080910402602001604051908101604052809291908181526020018280546001816001161561010002031660029004801561102e5780601f106110035761010080835404028352916020019161102e565b820191906000526020600020905b81548152906001019060200180831161101157829003601f168201915b5050505050905090565b60008073ffffffffffffffffffffffffffffffffffffffff168273ffffffffffffffffffffffffffffffffffffffff1614156110bf576040517f08c379a000000000000000000000000000000000000000000000000000000000815260040180806020018281038252602a81526020018061315f602a913960400191505060405180910390fd5b611106606560008473ffffffffffffffffffffffffffffffffffffffff1673ffffffffffffffffffffffffffffffffffffffff168152602001908152602001600020611d2a565b9050919050565b6060606b8054600181600116156101000203166002900480601f0160208091040260200160405190810160405280929190818152602001828054600181600116156101000203166002900480156111a55780601f1061117a576101008083540402835291602001916111a5565b820191906000526020600020905b81548152906001019060200180831161118857829003601f168201915b5050505050905090565b6111b761176f565b73ffffffffffffffffffffffffffffffffffffffff168273ffffffffffffffffffffffffffffffffffffffff161415611258576040517f08c379a00000000000000000000000000000000000000000000000000000000081526004018080602001828103825260198152602001807f4552433732313a20617070726f766520746f2063616c6c65720000000000000081525060200191505060405180910390fd5b806069600061126561176f565b73ffffffffffffffffffffffffffffffffffffffff1673ffffffffffffffffffffffffffffffffffffffff16815260200190815260200160002060008473ffffffffffffffffffffffffffffffffffffffff1673ffffffffffffffffffffffffffffffffffffffff16815260200190815260200160002060006101000a81548160ff0219169083151502179055508173ffffffffffffffffffffffffffffffffffffffff1661131261176f565b73ffffffffffffffffffffffffffffffffffffffff167f17307eab39ab6107e8899845ad3d59bd9653f200f220920489ca2b5937696c318360405180821515815260200191505060405180910390a35050565b61137661137061176f565b83611845565b6113cb576040517f08c379a00000000000000000000000000000000000000000000000000000000081526004018080602001828103825260318152602001806132a76031913960400191505060405180910390fd5b6113d784848484611d3f565b50505050565b60606113e882611752565b61143d576040517f08c379a000000000000000000000000000000000000000000000000000000000815260040180806020018281038252602f815260200180613257602f913960400191505060405180910390fd5b6060606c60008481526020019081526020016000208054600181600116156101000203166002900480601f0160208091040260200160405190810160405280929190818152602001828054600181600116156101000203166002900480156114e65780601f106114bb576101008083540402835291602001916114e6565b820191906000526020600020905b8154815290600101906020018083116114c957829003601f168201915b5050505050905060606114f7610f96565b905060008151141561150d5781925050506116a9565b6000825111156115de5780826040516020018083805190602001908083835b6020831061154f578051825260208201915060208101905060208303925061152c565b6001836020036101000a03801982511681845116808217855250505050505090500182805190602001908083835b602083106115a0578051825260208201915060208101905060208303925061157d565b6001836020036101000a03801982511681845116808217855250505050505090500192505050604051602081830303815290604052925050506116a9565b806115e885611db1565b6040516020018083805190602001908083835b6020831061161e57805182526020820191506020810190506020830392506115fb565b6001836020036101000a03801982511681845116808217855250505050505090500182805190602001908083835b6020831061166f578051825260208201915060208101905060208303925061164c565b6001836020036101000a03801982511681845116808217855250505050505090500192505050604051602081830303815290604052925050505b919050565b6116b9838383610e07565b505050565b6000606960008473ffffffffffffffffffffffffffffffffffffffff1673ffffffffffffffffffffffffffffffffffffffff16815260200190815260200160002060008373ffffffffffffffffffffffffffffffffffffffff1673ffffffffffffffffffffffffffffffffffffffff16815260200190815260200160002060009054906101000a900460ff16905092915050565b6000611768826066611ef890919063ffffffff16565b9050919050565b600033905090565b816068600083815260200190815260200160002060006101000a81548173ffffffffffffffffffffffffffffffffffffffff021916908373ffffffffffffffffffffffffffffffffffffffff160217905550808273ffffffffffffffffffffffffffffffffffffffff166117ea83610f5f565b73ffffffffffffffffffffffffffffffffffffffff167f8c5be1e5ebec7d5bd14f71427d1e84f3dd0314c0f7b2291e5b200ac8c7c3b92560405160405180910390a45050565b600061183e82600001611f12565b9050919050565b600061185082611752565b6118a5576040517f08c379a000000000000000000000000000000000000000000000000000000000815260040180806020018281038252602c8152602001806130fb602c913960400191505060405180910390fd5b60006118b083610f5f565b90508073ffffffffffffffffffffffffffffffffffffffff168473ffffffffffffffffffffffffffffffffffffffff16148061191f57508373ffffffffffffffffffffffffffffffffffffffff1661190784610b46565b73ffffffffffffffffffffffffffffffffffffffff16145b80611930575061192f81856116be565b5b91505092915050565b8273ffffffffffffffffffffffffffffffffffffffff1661195982610f5f565b73ffffffffffffffffffffffffffffffffffffffff16146119c5576040517f08c379a000000000000000000000000000000000000000000000000000000000815260040180806020018281038252602981526020018061322e6029913960400191505060405180910390fd5b600073ffffffffffffffffffffffffffffffffffffffff168273ffffffffffffffffffffffffffffffffffffffff161415611a4b576040517f08c379a00000000000000000000000000000000000000000000000000000000081526004018080602001828103825260248152602001806130b16024913960400191505060405180910390fd5b611a56838383611f23565b611a61600082611777565b611ab281606560008673ffffffffffffffffffffffffffffffffffffffff1673ffffffffffffffffffffffffffffffffffffffff168152602001908152602001600020611f2890919063ffffffff16565b50611b0481606560008573ffffffffffffffffffffffffffffffffffffffff1673ffffffffffffffffffffffffffffffffffffffff168152602001908152602001600020611f4290919063ffffffff16565b50611b1b81836066611f5c9092919063ffffffff16565b50808273ffffffffffffffffffffffffffffffffffffffff168473ffffffffffffffffffffffffffffffffffffffff167fddf252ad1be2c89b69c2b068fc378daa952ba7f163c4a11628f55a4df523b3ef60405160405180910390a4505050565b6000611b8b8360000183611f91565b60001c905092915050565b6000611ba130612014565b15905090565b600060019054906101000a900460ff1680611bc65750611bc5611b96565b5b80611bdc575060008054906101000a900460ff16155b611c31576040517f08c379a000000000000000000000000000000000000000000000000000000000815260040180806020018281038252602e8152602001806131b2602e913960400191505060405180910390fd5b60008060019054906101000a900460ff161590508015611c81576001600060016101000a81548160ff02191690831515021790555060016000806101000a81548160ff0219169083151502179055505b611c89612027565b611c91612125565b611c9b8383612233565b8015611cbc5760008060016101000a81548160ff0219169083151502179055505b505050565b611cdb828260405180602001604052806000815250612391565b5050565b600080600080611cf28660000186612402565b915091508160001c8160001c9350935050509250929050565b6000611d1e846000018460001b8461249b565b60001c90509392505050565b6000611d3882600001612591565b9050919050565b611d4a848484611939565b611d56848484846125a2565b611dab576040517f08c379a000000000000000000000000000000000000000000000000000000000815260040180806020018281038252603281526020018061307f6032913960400191505060405180910390fd5b50505050565b60606000821415611df9576040518060400160405280600181526020017f30000000000000000000000000000000000000000000000000000000000000008152509050611ef3565b600082905060005b60008214611e23578080600101915050600a8281611e1b57fe5b049150611e01565b60608167ffffffffffffffff81118015611e3c57600080fd5b506040519080825280601f01601f191660200182016040528015611e6f5781602001600182028036833780820191505090505b50905060006001830390508593505b60008414611eeb57600a8481611e9057fe5b0660300160f81b82828060019003935081518110611eaa57fe5b60200101907effffffffffffffffffffffffffffffffffffffffffffffffffffffffffffff1916908160001a905350600a8481611ee357fe5b049350611e7e565b819450505050505b919050565b6000611f0a836000018360001b6127bb565b905092915050565b600081600001805490509050919050565b505050565b6000611f3a836000018360001b6127de565b905092915050565b6000611f54836000018360001b6128c6565b905092915050565b6000611f88846000018460001b8473ffffffffffffffffffffffffffffffffffffffff1660001b612936565b90509392505050565b600081836000018054905011611ff2576040517f08c379a000000000000000000000000000000000000000000000000000000000815260040180806020018281038252602281526020018061305d6022913960400191505060405180910390fd5b82600001828154811061200157fe5b9060005260206000200154905092915050565b600080823b905060008111915050919050565b600060019054906101000a900460ff16806120465750612045611b96565b5b8061205c575060008054906101000a900460ff16155b6120b1576040517f08c379a000000000000000000000000000000000000000000000000000000000815260040180806020018281038252602e8152602001806131b2602e913960400191505060405180910390fd5b60008060019054906101000a900460ff161590508015612101576001600060016101000a81548160ff02191690831515021790555060016000806101000a81548160ff0219169083151502179055505b80156121225760008060016101000a81548160ff0219169083151502179055505b50565b600060019054906101000a900460ff16806121445750612143611b96565b5b8061215a575060008054906101000a900460ff16155b6121af576040517f08c379a000000000000000000000000000000000000000000000000000000000815260040180806020018281038252602e8152602001806131b2602e913960400191505060405180910390fd5b60008060019054906101000a900460ff1615905080156121ff576001600060016101000a81548160ff02191690831515021790555060016000806101000a81548160ff0219169083151502179055505b61220f6301ffc9a760e01b612a12565b80156122305760008060016101000a81548160ff0219169083151502179055505b50565b600060019054906101000a900460ff16806122525750612251611b96565b5b80612268575060008054906101000a900460ff16155b6122bd576040517f08c379a000000000000000000000000000000000000000000000000000000000815260040180806020018281038252602e8152602001806131b2602e913960400191505060405180910390fd5b60008060019054906101000a900460ff16159050801561230d576001600060016101000a81548160ff02191690831515021790555060016000806101000a81548160ff0219169083151502179055505b82606a9080519060200190612323929190612fbf565b5081606b908051906020019061233a929190612fbf565b5061234b6380ac58cd60e01b612a12565b61235b635b5e139f60e01b612a12565b61236b63780e9d6360e01b612a12565b801561238c5760008060016101000a81548160ff0219169083151502179055505b505050565b61239b8383612b1b565b6123a860008484846125a2565b6123fd576040517f08c379a000000000000000000000000000000000000000000000000000000000815260040180806020018281038252603281526020018061307f6032913960400191505060405180910390fd5b505050565b60008082846000018054905011612464576040517f08c379a00000000000000000000000000000000000000000000000000000000081526004018080602001828103825260228152602001806131e06022913960400191505060405180910390fd5b600084600001848154811061247557fe5b906000526020600020906002020190508060000154816001015492509250509250929050565b60008084600101600085815260200190815260200160002054905060008114158390612562576040517f08c379a00000000000000000000000000000000000000000000000000000000081526004018080602001828103825283818151815260200191508051906020019080838360005b8381101561252757808201518184015260208101905061250c565b50505050905090810190601f1680156125545780820380516001836020036101000a031916815260200191505b509250505060405180910390fd5b5084600001600182038154811061257557fe5b9060005260206000209060020201600101549150509392505050565b600081600001805490509050919050565b60006125c38473ffffffffffffffffffffffffffffffffffffffff16612014565b6125d057600190506127b3565b606061273a63150b7a0260e01b6125e561176f565b888787604051602401808573ffffffffffffffffffffffffffffffffffffffff1681526020018473ffffffffffffffffffffffffffffffffffffffff16815260200183815260200180602001828103825283818151815260200191508051906020019080838360005b8381101561266957808201518184015260208101905061264e565b50505050905090810190601f1680156126965780820380516001836020036101000a031916815260200191505b5095505050505050604051602081830303815290604052907bffffffffffffffffffffffffffffffffffffffffffffffffffffffff19166020820180517bffffffffffffffffffffffffffffffffffffffffffffffffffffffff838183161783525050505060405180606001604052806032815260200161307f603291398773ffffffffffffffffffffffffffffffffffffffff16612d0f9092919063ffffffff16565b9050600081806020019051602081101561275357600080fd5b8101908080519060200190929190505050905063150b7a0260e01b7bffffffffffffffffffffffffffffffffffffffffffffffffffffffff1916817bffffffffffffffffffffffffffffffffffffffffffffffffffffffff191614925050505b949350505050565b600080836001016000848152602001908152602001600020541415905092915050565b600080836001016000848152602001908152602001600020549050600081146128ba576000600182039050600060018660000180549050039050600086600001828154811061282957fe5b906000526020600020015490508087600001848154811061284657fe5b906000526020600020018190555060018301876001016000838152602001908152602001600020819055508660000180548061287e57fe5b600190038181906000526020600020016000905590558660010160008781526020019081526020016000206000905560019450505050506128c0565b60009150505b92915050565b60006128d28383612d27565b61292b578260000182908060018154018082558091505060019003906000526020600020016000909190919091505582600001805490508360010160008481526020019081526020016000208190555060019050612930565b600090505b92915050565b60008084600101600085815260200190815260200160002054905060008114156129dd57846000016040518060400160405280868152602001858152509080600181540180825580915050600190039060005260206000209060020201600090919091909150600082015181600001556020820151816001015550508460000180549050856001016000868152602001908152602001600020819055506001915050612a0b565b828560000160018303815481106129f057fe5b90600052602060002090600202016001018190555060009150505b9392505050565b63ffffffff60e01b817bffffffffffffffffffffffffffffffffffffffffffffffffffffffff19161415612aae576040517f08c379a000000000000000000000000000000000000000000000000000000000815260040180806020018281038252601c8152602001807f4552433136353a20696e76616c696420696e746572666163652069640000000081525060200191505060405180910390fd5b600160336000837bffffffffffffffffffffffffffffffffffffffffffffffffffffffff19167bffffffffffffffffffffffffffffffffffffffffffffffffffffffff1916815260200190815260200160002060006101000a81548160ff02191690831515021790555050565b600073ffffffffffffffffffffffffffffffffffffffff168273ffffffffffffffffffffffffffffffffffffffff161415612bbe576040517f08c379a00000000000000000000000000000000000000000000000000000000081526004018080602001828103825260208152602001807f4552433732313a206d696e7420746f20746865207a65726f206164647265737381525060200191505060405180910390fd5b612bc781611752565b15612c3a576040517f08c379a000000000000000000000000000000000000000000000000000000000815260040180806020018281038252601c8152602001807f4552433732313a20746f6b656e20616c7265616479206d696e7465640000000081525060200191505060405180910390fd5b612c4660008383611f23565b612c9781606560008573ffffffffffffffffffffffffffffffffffffffff1673ffffffffffffffffffffffffffffffffffffffff168152602001908152602001600020611f4290919063ffffffff16565b50612cae81836066611f5c9092919063ffffffff16565b50808273ffffffffffffffffffffffffffffffffffffffff16600073ffffffffffffffffffffffffffffffffffffffff167fddf252ad1be2c89b69c2b068fc378daa952ba7f163c4a11628f55a4df523b3ef60405160405180910390a45050565b6060612d1e8484600085612d4a565b90509392505050565b600080836001016000848152602001908152602001600020541415905092915050565b606082471015612da5576040517f08c379a00000000000000000000000000000000000000000000000000000000081526004018080602001828103825260268152602001806130d56026913960400191505060405180910390fd5b612dae85612014565b612e20576040517f08c379a000000000000000000000000000000000000000000000000000000000815260040180806020018281038252601d8152602001807f416464726573733a2063616c6c20746f206e6f6e2d636f6e747261637400000081525060200191505060405180910390fd5b600060608673ffffffffffffffffffffffffffffffffffffffff1685876040518082805190602001908083835b60208310612e705780518252602082019150602081019050602083039250612e4d565b6001836020036101000a03801982511681845116808217855250505050505090500191505060006040518083038185875af1925050503d8060008114612ed2576040519150601f19603f3d011682016040523d82523d6000602084013e612ed7565b606091505b5091509150612ee7828286612ef3565b92505050949350505050565b60608315612f0357829050612fb8565b600083511115612f165782518084602001fd5b816040517f08c379a00000000000000000000000000000000000000000000000000000000081526004018080602001828103825283818151815260200191508051906020019080838360005b83811015612f7d578082015181840152602081019050612f62565b50505050905090810190601f168015612faa5780820380516001836020036101000a031916815260200191505b509250505060405180910390fd5b9392505050565b828054600181600116156101000203166002900490600052602060002090601f016020900481019282601f1061300057805160ff191683800117855561302e565b8280016001018555821561302e579182015b8281111561302d578251825591602001919060010190613012565b5b50905061303b919061303f565b5090565b5b80821115613058576000816000905550600101613040565b509056fe456e756d657261626c655365743a20696e646578206f7574206f6620626f756e64734552433732313a207472616e7366657220746f206e6f6e20455243373231526563656976657220696d706c656d656e7465724552433732313a207472616e7366657220746f20746865207a65726f2061646472657373416464726573733a20696e73756666696369656e742062616c616e636520666f722063616c6c4552433732313a206f70657261746f7220717565727920666f72206e6f6e6578697374656e7420746f6b656e4552433732313a20617070726f76652063616c6c6572206973206e6f74206f776e6572206e6f7220617070726f76656420666f7220616c6c4552433732313a2062616c616e636520717565727920666f7220746865207a65726f20616464726573734552433732313a206f776e657220717565727920666f72206e6f6e6578697374656e7420746f6b656e496e697469616c697a61626c653a20636f6e747261637420697320616c726561647920696e697469616c697a6564456e756d657261626c654d61703a20696e646578206f7574206f6620626f756e64734552433732313a20617070726f76656420717565727920666f72206e6f6e6578697374656e7420746f6b656e4552433732313a207472616e73666572206f6620746f6b656e2074686174206973206e6f74206f776e4552433732314d657461646174613a2055524920717565727920666f72206e6f6e6578697374656e7420746f6b656e4552433732313a20617070726f76616c20746f2063757272656e74206f776e65724552433732313a207472616e736665722063616c6c6572206973206e6f74206f776e6572206e6f7220617070726f766564a2646970667358221220e1a5297aaa838c0bc0c342eaa98b04c7a8b5893be8b99bf5f0e68602891fac5264736f6c634300060c0033",
  "linkReferences": {},
  "deployedLinkReferences": {}
}