{
  "_format": "hh-sol-artifact-1",
  "contractName": "ViperPitSource",
  "sourceName": "contracts/viper-stake/ViperYieldSource.sol",
  "abi": [
    {
      "inputs": [
        {
          "internalType": "contract IPit",
          "name": "_viperPit",
          "type": "address"
        },
        {
          "internalType": "contract IERC20",
          "name": "_viperAddr",
          "type": "address"
        }
      ],
      "stateMutability": "nonpayable",
      "type": "constructor"
    },
    {
      "anonymous": false,
      "inputs": [
        {
          "indexed": true,
          "internalType": "address",
          "name": "from",
          "type": "address"
        },
        {
          "indexed": false,
          "internalType": "uint256",
          "name": "shares",
          "type": "uint256"
        },
        {
          "indexed": false,
          "internalType": "uint256",
          "name": "amount",
          "type": "uint256"
        }
      ],
      "name": "RedeemedToken",
      "type": "event"
    },
    {
      "anonymous": false,
      "inputs": [
        {
          "indexed": true,
          "internalType": "address",
          "name": "from",
          "type": "address"
        },
        {
          "indexed": false,
          "internalType": "uint256",
          "name": "shares",
          "type": "uint256"
        },
        {
          "indexed": false,
          "internalType": "uint256",
          "name": "amount",
          "type": "uint256"
        },
        {
          "indexed": true,
          "internalType": "address",
          "name": "to",
          "type": "address"
        }
      ],
      "name": "SuppliedTokenTo",
      "type": "event"
    },
    {
      "inputs": [],
      "name": "approveMaxAmount",
      "outputs": [
        {
          "internalType": "bool",
          "name": "",
          "type": "bool"
        }
      ],
      "stateMutability": "nonpayable",
      "type": "function"
    },
    {
      "inputs": [
        {
          "internalType": "address",
          "name": "addr",
          "type": "address"
        }
      ],
      "name": "balanceOfToken",
      "outputs": [
        {
          "internalType": "uint256",
          "name": "",
          "type": "uint256"
        }
      ],
      "stateMutability": "nonpayable",
      "type": "function"
    },
    {
      "inputs": [
        {
          "internalType": "address",
          "name": "",
          "type": "address"
        }
      ],
      "name": "balances",
      "outputs": [
        {
          "internalType": "uint256",
          "name": "",
          "type": "uint256"
        }
      ],
      "stateMutability": "view",
      "type": "function"
    },
    {
      "inputs": [],
      "name": "depositToken",
      "outputs": [
        {
          "internalType": "address",
          "name": "",
          "type": "address"
        }
      ],
      "stateMutability": "view",
      "type": "function"
    },
    {
      "inputs": [
        {
          "internalType": "uint256",
          "name": "amount",
          "type": "uint256"
        }
      ],
      "name": "redeemToken",
      "outputs": [
        {
          "internalType": "uint256",
          "name": "",
          "type": "uint256"
        }
      ],
      "stateMutability": "nonpayable",
      "type": "function"
    },
    {
      "inputs": [
        {
          "internalType": "uint256",
          "name": "amount",
          "type": "uint256"
        },
        {
          "internalType": "address",
          "name": "to",
          "type": "address"
        }
      ],
      "name": "supplyTokenTo",
      "outputs": [],
      "stateMutability": "nonpayable",
      "type": "function"
    },
    {
      "inputs": [],
      "name": "viperAddr",
      "outputs": [
        {
          "internalType": "contract IERC20",
          "name": "",
          "type": "address"
        }
      ],
      "stateMutability": "view",
      "type": "function"
    },
    {
      "inputs": [],
      "name": "viperPit",
      "outputs": [
        {
          "internalType": "contract IPit",
          "name": "",
          "type": "address"
        }
      ],
      "stateMutability": "view",
      "type": "function"
    }
  ],
  "bytecode": "0x60c06040523480156200001157600080fd5b506040516200197138038062001971833981810160405260408110156200003757600080fd5b50805160209091015160016000556001600160a01b0382166200008c5760405162461bcd60e51b81526004018080602001828103825260288152602001806200189a6028913960400191505060405180910390fd5b6001600160a01b038116620000d35760405162461bcd60e51b8152600401808060200182810382526029815260200180620018e86029913960400191505060405180910390fd5b606082811b6001600160601b03199081166080529082901b1660a052620001136001600160a01b038216836000196200011b602090811b62000b3217901c565b50506200052e565b801580620001a5575060408051636eb1769f60e11b81523060048201526001600160a01b03848116602483015291519185169163dd62ed3e91604480820192602092909190829003018186803b1580156200017557600080fd5b505afa1580156200018a573d6000803e3d6000fd5b505050506040513d6020811015620001a157600080fd5b5051155b620001e25760405162461bcd60e51b81526004018080602001828103825260368152602001806200193b6036913960400191505060405180910390fd5b604080516001600160a01b038416602482015260448082018490528251808303909101815260649091019091526020810180516001600160e01b0390811663095ea7b360e01b179091526200023a9185916200023f16565b505050565b60606200029b826040518060400160405280602081526020017f5361666545524332303a206c6f772d6c6576656c2063616c6c206661696c6564815250856001600160a01b0316620002fb60201b62000c4a179092919060201c565b8051909150156200023a57808060200190516020811015620002bc57600080fd5b50516200023a5760405162461bcd60e51b815260040180806020018281038252602a81526020018062001911602a913960400191505060405180910390fd5b60606200030c848460008562000316565b90505b9392505050565b606082471015620003595760405162461bcd60e51b8152600401808060200182810382526026815260200180620018c26026913960400191505060405180910390fd5b62000364856200047e565b620003b6576040805162461bcd60e51b815260206004820152601d60248201527f416464726573733a2063616c6c20746f206e6f6e2d636f6e7472616374000000604482015290519081900360640190fd5b60006060866001600160a01b031685876040518082805190602001908083835b60208310620003f75780518252601f199092019160209182019101620003d6565b6001836020036101000a03801982511681845116808217855250505050505090500191505060006040518083038185875af1925050503d80600081146200045b576040519150601f19603f3d011682016040523d82523d6000602084013e62000460565b606091505b5090925090506200047382828662000484565b979650505050505050565b3b151590565b60608315620004955750816200030f565b825115620004a65782518084602001fd5b8160405162461bcd60e51b81526004018080602001828103825283818151815260200191508051906020019080838360005b83811015620004f2578181015183820152602001620004d8565b50505050905090810190601f168015620005205780820380516001836020036101000a031916815260200191505b509250505060405180910390fd5b60805160601c60a05160601c6113106200058a60003980610211528061062e528061094e52806109fb5280610a6a5280610b105250806101ec528061058c528061060d5280610883528061091e5280610a3b52506113106000f3fe608060405234801561001057600080fd5b50600436106100885760003560e01c8063b99152d01161005b578063b99152d014610134578063c89039c51461015a578063daa4f97514610162578063fb963b6b1461017e57610088565b8063013054c21461008d57806327e235e3146100bc5780633381cbd6146100e257806387a6eeef14610106575b600080fd5b6100aa600480360360208110156100a357600080fd5b5035610186565b60408051918252519081900360200190f35b6100aa600480360360208110156100d257600080fd5b50356001600160a01b0316610578565b6100ea61058a565b604080516001600160a01b039092168252519081900360200190f35b6101326004803603604081101561011c57600080fd5b50803590602001356001600160a01b03166105ae565b005b6100aa6004803603602081101561014a57600080fd5b50356001600160a01b031661085a565b6100ea6109f9565b61016a610a1d565b604080519115158252519081900360200190f35b6100ea610b0e565b6000600260005414156101e0576040805162461bcd60e51b815260206004820152601f60248201527f5265656e7472616e637947756172643a207265656e7472616e742063616c6c00604482015290519081900360640190fd5b600260008190555060007f0000000000000000000000000000000000000000000000000000000000000000905060007f000000000000000000000000000000000000000000000000000000000000000090506000826001600160a01b03166318160ddd6040518163ffffffff1660e01b815260040160206040518083038186803b15801561026d57600080fd5b505afa158015610281573d6000803e3d6000fd5b505050506040513d602081101561029757600080fd5b50519050806102ac576000935050505061056e565b6000826001600160a01b03166370a08231856040518263ffffffff1660e01b815260040180826001600160a01b0316815260200191505060206040518083038186803b1580156102fb57600080fd5b505afa15801561030f573d6000803e3d6000fd5b505050506040513d602081101561032557600080fd5b505190508061033b57600094505050505061056e565b6000836001600160a01b03166370a08231306040518263ffffffff1660e01b815260040180826001600160a01b0316815260200191505060206040518083038186803b15801561038a57600080fd5b505afa15801561039e573d6000803e3d6000fd5b505050506040513d60208110156103b457600080fd5b5051905060006103d8836103d2866103cc8c82610c63565b90610cc5565b90610d1f565b9050806103ee576000965050505050505061056e565b60006103fb826001610d86565b9050866001600160a01b03166367dfd4c9826040518263ffffffff1660e01b815260040180828152602001915050600060405180830381600087803b15801561044357600080fd5b505af1158015610457573d6000803e3d6000fd5b505050506000866001600160a01b03166370a08231306040518263ffffffff1660e01b815260040180826001600160a01b0316815260200191505060206040518083038186803b1580156104aa57600080fd5b505afa1580156104be573d6000803e3d6000fd5b505050506040513d60208110156104d457600080fd5b5051905060006104e48286610d86565b336000908152600160205260409020549091506105019084610d86565b33600081815260016020526040902091909155610529906001600160a01b038a169083610de3565b60408051848152602081018d9052815133927f5c9b0a8fe13a826ca676f5ad4f98c747b5086beb79ab58589b8211b62fa32fb9928290030190a2985050505050505050505b6001600055919050565b60016020526000908152604090205481565b7f000000000000000000000000000000000000000000000000000000000000000081565b60026000541415610606576040805162461bcd60e51b815260206004820152601f60248201527f5265656e7472616e637947756172643a207265656e7472616e742063616c6c00604482015290519081900360640190fd5b60026000557f00000000000000000000000000000000000000000000000000000000000000007f00000000000000000000000000000000000000000000000000000000000000006106626001600160a01b038216333087610e35565b6000826001600160a01b03166370a08231306040518263ffffffff1660e01b815260040180826001600160a01b0316815260200191505060206040518083038186803b1580156106b157600080fd5b505afa1580156106c5573d6000803e3d6000fd5b505050506040513d60208110156106db57600080fd5b505160408051632967cf8360e21b81526004810188905290519192506001600160a01b0385169163a59f3e0c9160248082019260009290919082900301818387803b15801561072957600080fd5b505af115801561073d573d6000803e3d6000fd5b505050506000836001600160a01b03166370a08231306040518263ffffffff1660e01b815260040180826001600160a01b0316815260200191505060206040518083038186803b15801561079057600080fd5b505afa1580156107a4573d6000803e3d6000fd5b505050506040513d60208110156107ba57600080fd5b5051905060006107ca8284610d86565b6001600160a01b0387166000908152600160205260409020549091506107f09082610cc5565b6001600160a01b0387166000818152600160209081526040918290209390935580518481529283018a90528051919233927fdef5cc95ad9b1c65c586d0fce815ec764b575719636edf58ff2553ae6f110452929181900390910190a3505060016000555050505050565b6001600160a01b03811660009081526001602052604081205461087f575060006109f4565b60007f00000000000000000000000000000000000000000000000000000000000000006001600160a01b03166318160ddd6040518163ffffffff1660e01b815260040160206040518083038186803b1580156108da57600080fd5b505afa1580156108ee573d6000803e3d6000fd5b505050506040513d602081101561090457600080fd5b5051604080516370a0823160e01b81526001600160a01b037f00000000000000000000000000000000000000000000000000000000000000008116600483015291519293506000927f0000000000000000000000000000000000000000000000000000000000000000909216916370a0823191602480820192602092909190829003018186803b15801561099757600080fd5b505afa1580156109ab573d6000803e3d6000fd5b505050506040513d60208110156109c157600080fd5b50516001600160a01b0385166000908152600160205260409020549091506109ef9083906103d29084610c63565b925050505b919050565b7f000000000000000000000000000000000000000000000000000000000000000090565b60408051636eb1769f60e11b81523060048201526001600160a01b037f000000000000000000000000000000000000000000000000000000000000000081811660248401529251600093927f00000000000000000000000000000000000000000000000000000000000000009285929084169163dd62ed3e916044808301926020929190829003018186803b158015610ab557600080fd5b505afa158015610ac9573d6000803e3d6000fd5b505050506040513d6020811015610adf57600080fd5b50519050610b0483610af360001984610d86565b6001600160a01b0385169190610e95565b6001935050505090565b7f000000000000000000000000000000000000000000000000000000000000000081565b801580610bb8575060408051636eb1769f60e11b81523060048201526001600160a01b03848116602483015291519185169163dd62ed3e91604480820192602092909190829003018186803b158015610b8a57600080fd5b505afa158015610b9e573d6000803e3d6000fd5b505050506040513d6020811015610bb457600080fd5b5051155b610bf35760405162461bcd60e51b81526004018080602001828103825260368152602001806112a56036913960400191505060405180910390fd5b604080516001600160a01b038416602482015260448082018490528251808303909101815260649091019091526020810180516001600160e01b031663095ea7b360e01b179052610c45908490610f7c565b505050565b6060610c59848460008561102d565b90505b9392505050565b600082610c7257506000610cbf565b82820282848281610c7f57fe5b0414610cbc5760405162461bcd60e51b815260040180806020018281038252602181526020018061125a6021913960400191505060405180910390fd5b90505b92915050565b600082820183811015610cbc576040805162461bcd60e51b815260206004820152601b60248201527f536166654d6174683a206164646974696f6e206f766572666c6f770000000000604482015290519081900360640190fd5b6000808211610d75576040805162461bcd60e51b815260206004820152601a60248201527f536166654d6174683a206469766973696f6e206279207a65726f000000000000604482015290519081900360640190fd5b818381610d7e57fe5b049392505050565b600082821115610ddd576040805162461bcd60e51b815260206004820152601e60248201527f536166654d6174683a207375627472616374696f6e206f766572666c6f770000604482015290519081900360640190fd5b50900390565b604080516001600160a01b038416602482015260448082018490528251808303909101815260649091019091526020810180516001600160e01b031663a9059cbb60e01b179052610c45908490610f7c565b604080516001600160a01b0380861660248301528416604482015260648082018490528251808303909101815260849091019091526020810180516001600160e01b03166323b872dd60e01b179052610e8f908590610f7c565b50505050565b6000610f2b82856001600160a01b031663dd62ed3e30876040518363ffffffff1660e01b815260040180836001600160a01b03168152602001826001600160a01b031681526020019250505060206040518083038186803b158015610ef957600080fd5b505afa158015610f0d573d6000803e3d6000fd5b505050506040513d6020811015610f2357600080fd5b505190610cc5565b604080516001600160a01b038616602482015260448082018490528251808303909101815260649091019091526020810180516001600160e01b031663095ea7b360e01b179052909150610e8f9085905b6060610fd1826040518060400160405280602081526020017f5361666545524332303a206c6f772d6c6576656c2063616c6c206661696c6564815250856001600160a01b0316610c4a9092919063ffffffff16565b805190915015610c4557808060200190516020811015610ff057600080fd5b5051610c455760405162461bcd60e51b815260040180806020018281038252602a81526020018061127b602a913960400191505060405180910390fd5b60608247101561106e5760405162461bcd60e51b81526004018080602001828103825260268152602001806112346026913960400191505060405180910390fd5b61107785611189565b6110c8576040805162461bcd60e51b815260206004820152601d60248201527f416464726573733a2063616c6c20746f206e6f6e2d636f6e7472616374000000604482015290519081900360640190fd5b60006060866001600160a01b031685876040518082805190602001908083835b602083106111075780518252601f1990920191602091820191016110e8565b6001836020036101000a03801982511681845116808217855250505050505090500191505060006040518083038185875af1925050503d8060008114611169576040519150601f19603f3d011682016040523d82523d6000602084013e61116e565b606091505b509150915061117e82828661118f565b979650505050505050565b3b151590565b6060831561119e575081610c5c565b8251156111ae5782518084602001fd5b8160405162461bcd60e51b81526004018080602001828103825283818151815260200191508051906020019080838360005b838110156111f85781810151838201526020016111e0565b50505050905090810190601f1680156112255780820380516001836020036101000a031916815260200191505b509250505060405180910390fdfe416464726573733a20696e73756666696369656e742062616c616e636520666f722063616c6c536166654d6174683a206d756c7469706c69636174696f6e206f766572666c6f775361666545524332303a204552433230206f7065726174696f6e20646964206e6f7420737563636565645361666545524332303a20617070726f76652066726f6d206e6f6e2d7a65726f20746f206e6f6e2d7a65726f20616c6c6f77616e6365a264697066735822122051e026fc8e1524186ee38c77cb27fa31934927621a5ffe531dcbae1f84a0d10964736f6c634300060c00335669706572506974536f757263652f76697065725069742d6e6f742d7a65726f2d61646472657373416464726573733a20696e73756666696369656e742062616c616e636520666f722063616c6c5669706572506974536f757263652f7669706572416464722d6e6f742d7a65726f2d616464726573735361666545524332303a204552433230206f7065726174696f6e20646964206e6f7420737563636565645361666545524332303a20617070726f76652066726f6d206e6f6e2d7a65726f20746f206e6f6e2d7a65726f20616c6c6f77616e6365",
  "linkReferences": {},
  "deployedLinkReferences": {}
}