{
  "_format": "hh-sol-artifact-1",
  "contractName": "ERC721Mintable",
  "sourceName": "contracts/test/ERC721Mintable.sol",
  "abi": [
    {
      "inputs": [],
      "stateMutability": "nonpayable",
      "type": "constructor"
    },
    {
      "anonymous": false,
      "inputs": [
        {
          "indexed": true,
          "internalType": "address",
          "name": "owner",
          "type": "address"
        },
        {
          "indexed": true,
          "internalType": "address",
          "name": "approved",
          "type": "address"
        },
        {
          "indexed": true,
          "internalType": "uint256",
          "name": "tokenId",
          "type": "uint256"
        }
      ],
      "name": "Approval",
      "type": "event"
    },
    {
      "anonymous": false,
      "inputs": [
        {
          "indexed": true,
          "internalType": "address",
          "name": "owner",
          "type": "address"
        },
        {
          "indexed": true,
          "internalType": "address",
          "name": "operator",
          "type": "address"
        },
        {
          "indexed": false,
          "internalType": "bool",
          "name": "approved",
          "type": "bool"
        }
      ],
      "name": "ApprovalForAll",
      "type": "event"
    },
    {
      "anonymous": false,
      "inputs": [
        {
          "indexed": true,
          "internalType": "address",
          "name": "from",
          "type": "address"
        },
        {
          "indexed": true,
          "internalType": "address",
          "name": "to",
          "type": "address"
        },
        {
          "indexed": true,
          "internalType": "uint256",
          "name": "tokenId",
          "type": "uint256"
        }
      ],
      "name": "Transfer",
      "type": "event"
    },
    {
      "inputs": [
        {
          "internalType": "address",
          "name": "to",
          "type": "address"
        },
        {
          "internalType": "uint256",
          "name": "tokenId",
          "type": "uint256"
        }
      ],
      "name": "approve",
      "outputs": [],
      "stateMutability": "nonpayable",
      "type": "function"
    },
    {
      "inputs": [
        {
          "internalType": "address",
          "name": "owner",
          "type": "address"
        }
      ],
      "name": "balanceOf",
      "outputs": [
        {
          "internalType": "uint256",
          "name": "",
          "type": "uint256"
        }
      ],
      "stateMutability": "view",
      "type": "function"
    },
    {
      "inputs": [],
      "name": "baseURI",
      "outputs": [
        {
          "internalType": "string",
          "name": "",
          "type": "string"
        }
      ],
      "stateMutability": "view",
      "type": "function"
    },
    {
      "inputs": [
        {
          "internalType": "uint256",
          "name": "tokenId",
          "type": "uint256"
        }
      ],
      "name": "burn",
      "outputs": [],
      "stateMutability": "nonpayable",
      "type": "function"
    },
    {
      "inputs": [
        {
          "internalType": "uint256",
          "name": "tokenId",
          "type": "uint256"
        }
      ],
      "name": "getApproved",
      "outputs": [
        {
          "internalType": "address",
          "name": "",
          "type": "address"
        }
      ],
      "stateMutability": "view",
      "type": "function"
    },
    {
      "inputs": [
        {
          "internalType": "address",
          "name": "owner",
          "type": "address"
        },
        {
          "internalType": "address",
          "name": "operator",
          "type": "address"
        }
      ],
      "name": "isApprovedForAll",
      "outputs": [
        {
          "internalType": "bool",
          "name": "",
          "type": "bool"
        }
      ],
      "stateMutability": "view",
      "type": "function"
    },
    {
      "inputs": [
        {
          "internalType": "address",
          "name": "to",
          "type": "address"
        },
        {
          "internalType": "uint256",
          "name": "tokenId",
          "type": "uint256"
        }
      ],
      "name": "mint",
      "outputs": [],
      "stateMutability": "nonpayable",
      "type": "function"
    },
    {
      "inputs": [],
      "name": "name",
      "outputs": [
        {
          "internalType": "string",
          "name": "",
          "type": "string"
        }
      ],
      "stateMutability": "view",
      "type": "function"
    },
    {
      "inputs": [
        {
          "internalType": "uint256",
          "name": "tokenId",
          "type": "uint256"
        }
      ],
      "name": "ownerOf",
      "outputs": [
        {
          "internalType": "address",
          "name": "",
          "type": "address"
        }
      ],
      "stateMutability": "view",
      "type": "function"
    },
    {
      "inputs": [
        {
          "internalType": "address",
          "name": "from",
          "type": "address"
        },
        {
          "internalType": "address",
          "name": "to",
          "type": "address"
        },
        {
          "internalType": "uint256",
          "name": "tokenId",
          "type": "uint256"
        }
      ],
      "name": "safeTransferFrom",
      "outputs": [],
      "stateMutability": "nonpayable",
      "type": "function"
    },
    {
      "inputs": [
        {
          "internalType": "address",
          "name": "from",
          "type": "address"
        },
        {
          "internalType": "address",
          "name": "to",
          "type": "address"
        },
        {
          "internalType": "uint256",
          "name": "tokenId",
          "type": "uint256"
        },
        {
          "internalType": "bytes",
          "name": "_data",
          "type": "bytes"
        }
      ],
      "name": "safeTransferFrom",
      "outputs": [],
      "stateMutability": "nonpayable",
      "type": "function"
    },
    {
      "inputs": [
        {
          "internalType": "address",
          "name": "operator",
          "type": "address"
        },
        {
          "internalType": "bool",
          "name": "approved",
          "type": "bool"
        }
      ],
      "name": "setApprovalForAll",
      "outputs": [],
      "stateMutability": "nonpayable",
      "type": "function"
    },
    {
      "inputs": [
        {
          "internalType": "bytes4",
          "name": "interfaceId",
          "type": "bytes4"
        }
      ],
      "name": "supportsInterface",
      "outputs": [
        {
          "internalType": "bool",
          "name": "",
          "type": "bool"
        }
      ],
      "stateMutability": "view",
      "type": "function"
    },
    {
      "inputs": [],
      "name": "symbol",
      "outputs": [
        {
          "internalType": "string",
          "name": "",
          "type": "string"
        }
      ],
      "stateMutability": "view",
      "type": "function"
    },
    {
      "inputs": [
        {
          "internalType": "uint256",
          "name": "index",
          "type": "uint256"
        }
      ],
      "name": "tokenByIndex",
      "outputs": [
        {
          "internalType": "uint256",
          "name": "",
          "type": "uint256"
        }
      ],
      "stateMutability": "view",
      "type": "function"
    },
    {
      "inputs": [
        {
          "internalType": "address",
          "name": "owner",
          "type": "address"
        },
        {
          "internalType": "uint256",
          "name": "index",
          "type": "uint256"
        }
      ],
      "name": "tokenOfOwnerByIndex",
      "outputs": [
        {
          "internalType": "uint256",
          "name": "",
          "type": "uint256"
        }
      ],
      "stateMutability": "view",
      "type": "function"
    },
    {
      "inputs": [
        {
          "internalType": "uint256",
          "name": "tokenId",
          "type": "uint256"
        }
      ],
      "name": "tokenURI",
      "outputs": [
        {
          "internalType": "string",
          "name": "",
          "type": "string"
        }
      ],
      "stateMutability": "view",
      "type": "function"
    },
    {
      "inputs": [],
      "name": "totalSupply",
      "outputs": [
        {
          "internalType": "uint256",
          "name": "",
          "type": "uint256"
        }
      ],
      "stateMutability": "view",
      "type": "function"
    },
    {
      "inputs": [
        {
          "internalType": "address",
          "name": "from",
          "type": "address"
        },
        {
          "internalType": "address",
          "name": "to",
          "type": "address"
        },
        {
          "internalType": "uint256",
          "name": "tokenId",
          "type": "uint256"
        }
      ],
      "name": "transferFrom",
      "outputs": [],
      "stateMutability": "nonpayable",
      "type": "function"
    }
  ],
  "bytecode": "0x60806040523480156200001157600080fd5b506200005e604051806040016040528060078152602001664552432037323160c81b8152506040518060400160405280600381526020016213919560ea1b8152506200006460201b60201c565b620004bb565b600054610100900460ff16806200008057506200008062000130565b806200008f575060005460ff16155b620000cc5760405162461bcd60e51b815260040180806020018281038252602e8152602001806200220a602e913960400191505060405180910390fd5b600054610100900460ff16158015620000f8576000805460ff1961ff0019909116610100171660011790555b620001026200014e565b6200010c620001f8565b6200011883836200029e565b80156200012b576000805461ff00191690555b505050565b600062000148306200039460201b62000d291760201c565b15905090565b600054610100900460ff16806200016a57506200016a62000130565b8062000179575060005460ff16155b620001b65760405162461bcd60e51b815260040180806020018281038252602e8152602001806200220a602e913960400191505060405180910390fd5b600054610100900460ff16158015620001e2576000805460ff1961ff0019909116610100171660011790555b8015620001f5576000805461ff00191690555b50565b600054610100900460ff16806200021457506200021462000130565b8062000223575060005460ff16155b620002605760405162461bcd60e51b815260040180806020018281038252602e8152602001806200220a602e913960400191505060405180910390fd5b600054610100900460ff161580156200028c576000805460ff1961ff0019909116610100171660011790555b620001e26301ffc9a760e01b6200039a565b600054610100900460ff1680620002ba5750620002ba62000130565b80620002c9575060005460ff16155b620003065760405162461bcd60e51b815260040180806020018281038252602e8152602001806200220a602e913960400191505060405180910390fd5b600054610100900460ff1615801562000332576000805460ff1961ff0019909116610100171660011790555b82516200034790606a9060208601906200041f565b5081516200035d90606b9060208501906200041f565b50620003706380ac58cd60e01b6200039a565b62000382635b5e139f60e01b6200039a565b6200011863780e9d6360e01b6200039a565b3b151590565b6001600160e01b03198082161415620003fa576040805162461bcd60e51b815260206004820152601c60248201527f4552433136353a20696e76616c696420696e7465726661636520696400000000604482015290519081900360640190fd5b6001600160e01b0319166000908152603360205260409020805460ff19166001179055565b828054600181600116156101000203166002900490600052602060002090601f016020900481019282601f106200046257805160ff191683800117855562000492565b8280016001018555821562000492579182015b828111156200049257825182559160200191906001019062000475565b50620004a0929150620004a4565b5090565b5b80821115620004a05760008155600101620004a5565b611d3f80620004cb6000396000f3fe608060405234801561001057600080fd5b50600436106101215760003560e01c806342966c68116100ad57806395d89b411161007157806395d89b41146103a8578063a22cb465146103b0578063b88d4fde146103de578063c87b56dd146104a4578063e985e9c5146104c157610121565b806342966c68146103235780634f6ccce7146103405780636352211e1461035d5780636c0360eb1461037a57806370a082311461038257610121565b806318160ddd116100f457806318160ddd1461024557806323b872dd1461025f5780632f745c591461029557806340c10f19146102c157806342842e0e146102ed57610121565b806301ffc9a71461012657806306fdde0314610161578063081812fc146101de578063095ea7b314610217575b600080fd5b61014d6004803603602081101561013c57600080fd5b50356001600160e01b0319166104ef565b604080519115158252519081900360200190f35b610169610512565b6040805160208082528351818301528351919283929083019185019080838360005b838110156101a357818101518382015260200161018b565b50505050905090810190601f1680156101d05780820380516001836020036101000a031916815260200191505b509250505060405180910390f35b6101fb600480360360208110156101f457600080fd5b50356105a8565b604080516001600160a01b039092168252519081900360200190f35b6102436004803603604081101561022d57600080fd5b506001600160a01b03813516906020013561060a565b005b61024d6106e5565b60408051918252519081900360200190f35b6102436004803603606081101561027557600080fd5b506001600160a01b038135811691602081013590911690604001356106f6565b61024d600480360360408110156102ab57600080fd5b506001600160a01b03813516906020013561074d565b610243600480360360408110156102d757600080fd5b506001600160a01b038135169060200135610778565b6102436004803603606081101561030357600080fd5b506001600160a01b03813581169160208101359091169060400135610786565b6102436004803603602081101561033957600080fd5b50356107a1565b61024d6004803603602081101561035657600080fd5b50356107ad565b6101fb6004803603602081101561037357600080fd5b50356107c3565b6101696107eb565b61024d6004803603602081101561039857600080fd5b50356001600160a01b031661084c565b6101696108b4565b610243600480360360408110156103c657600080fd5b506001600160a01b0381351690602001351515610915565b610243600480360360808110156103f457600080fd5b6001600160a01b0382358116926020810135909116916040820135919081019060808101606082013564010000000081111561042f57600080fd5b82018360208201111561044157600080fd5b8035906020019184600183028401116401000000008311171561046357600080fd5b91908080601f016020809104026020016040519081016040528093929190818152602001838380828437600092019190915250929550610a1a945050505050565b610169600480360360208110156104ba57600080fd5b5035610a78565b61014d600480360360408110156104d757600080fd5b506001600160a01b0381358116916020013516610cfb565b6001600160e01b0319811660009081526033602052604090205460ff165b919050565b606a8054604080516020601f600260001961010060018816150201909516949094049384018190048102820181019092528281526060939092909183018282801561059e5780601f106105735761010080835404028352916020019161059e565b820191906000526020600020905b81548152906001019060200180831161058157829003601f168201915b5050505050905090565b60006105b382610d2f565b6105ee5760405162461bcd60e51b815260040180806020018281038252602c815260200180611c34602c913960400191505060405180910390fd5b506000908152606860205260409020546001600160a01b031690565b6000610615826107c3565b9050806001600160a01b0316836001600160a01b031614156106685760405162461bcd60e51b8152600401808060200182810382526021815260200180611cb86021913960400191505060405180910390fd5b806001600160a01b031661067a610d3c565b6001600160a01b0316148061069b575061069b81610696610d3c565b610cfb565b6106d65760405162461bcd60e51b8152600401808060200182810382526038815260200180611b876038913960400191505060405180910390fd5b6106e08383610d40565b505050565b60006106f16066610dae565b905090565b610707610701610d3c565b82610db9565b6107425760405162461bcd60e51b8152600401808060200182810382526031815260200180611cd96031913960400191505060405180910390fd5b6106e0838383610e5d565b6001600160a01b038216600090815260656020526040812061076f9083610fa9565b90505b92915050565b6107828282610fb5565b5050565b6106e083838360405180602001604052806000815250610a1a565b6107aa816110e3565b50565b6000806107bb6066846111b0565b509392505050565b600061077282604051806060016040528060298152602001611be960299139606691906111cc565b606d8054604080516020601f600260001961010060018816150201909516949094049384018190048102820181019092528281526060939092909183018282801561059e5780601f106105735761010080835404028352916020019161059e565b60006001600160a01b0382166108935760405162461bcd60e51b815260040180806020018281038252602a815260200180611bbf602a913960400191505060405180910390fd5b6001600160a01b038216600090815260656020526040902061077290610dae565b606b8054604080516020601f600260001961010060018816150201909516949094049384018190048102820181019092528281526060939092909183018282801561059e5780601f106105735761010080835404028352916020019161059e565b61091d610d3c565b6001600160a01b0316826001600160a01b03161415610983576040805162461bcd60e51b815260206004820152601960248201527f4552433732313a20617070726f766520746f2063616c6c657200000000000000604482015290519081900360640190fd5b8060696000610990610d3c565b6001600160a01b03908116825260208083019390935260409182016000908120918716808252919093529120805460ff1916921515929092179091556109d4610d3c565b6001600160a01b03167f17307eab39ab6107e8899845ad3d59bd9653f200f220920489ca2b5937696c318360405180821515815260200191505060405180910390a35050565b610a2b610a25610d3c565b83610db9565b610a665760405162461bcd60e51b8152600401808060200182810382526031815260200180611cd96031913960400191505060405180910390fd5b610a72848484846111e3565b50505050565b6060610a8382610d2f565b610abe5760405162461bcd60e51b815260040180806020018281038252602f815260200180611c89602f913960400191505060405180910390fd5b6000828152606c602090815260409182902080548351601f6002600019610100600186161502019093169290920491820184900484028101840190945280845260609392830182828015610b535780601f10610b2857610100808354040283529160200191610b53565b820191906000526020600020905b815481529060010190602001808311610b3657829003601f168201915b505050505090506060610b646107eb565b9050805160001415610b785750905061050d565b815115610c395780826040516020018083805190602001908083835b60208310610bb35780518252601f199092019160209182019101610b94565b51815160209384036101000a600019018019909216911617905285519190930192850191508083835b60208310610bfb5780518252601f199092019160209182019101610bdc565b6001836020036101000a038019825116818451168082178552505050505050905001925050506040516020818303038152906040529250505061050d565b80610c4385611235565b6040516020018083805190602001908083835b60208310610c755780518252601f199092019160209182019101610c56565b51815160209384036101000a600019018019909216911617905285519190930192850191508083835b60208310610cbd5780518252601f199092019160209182019101610c9e565b6001836020036101000a0380198251168184511680821785525050505050509050019250505060405160208183030381529060405292505050919050565b6001600160a01b03918216600090815260696020908152604080832093909416825291909152205460ff1690565b3b151590565b6000610772606683611310565b3390565b600081815260686020526040902080546001600160a01b0319166001600160a01b0384169081179091558190610d75826107c3565b6001600160a01b03167f8c5be1e5ebec7d5bd14f71427d1e84f3dd0314c0f7b2291e5b200ac8c7c3b92560405160405180910390a45050565b60006107728261131c565b6000610dc482610d2f565b610dff5760405162461bcd60e51b815260040180806020018281038252602c815260200180611b5b602c913960400191505060405180910390fd5b6000610e0a836107c3565b9050806001600160a01b0316846001600160a01b03161480610e455750836001600160a01b0316610e3a846105a8565b6001600160a01b0316145b80610e555750610e558185610cfb565b949350505050565b826001600160a01b0316610e70826107c3565b6001600160a01b031614610eb55760405162461bcd60e51b8152600401808060200182810382526029815260200180611c606029913960400191505060405180910390fd5b6001600160a01b038216610efa5760405162461bcd60e51b8152600401808060200182810382526024815260200180611b376024913960400191505060405180910390fd5b610f058383836106e0565b610f10600082610d40565b6001600160a01b0383166000908152606560205260409020610f329082611320565b506001600160a01b0382166000908152606560205260409020610f55908261132c565b50610f6260668284611338565b5080826001600160a01b0316846001600160a01b03167fddf252ad1be2c89b69c2b068fc378daa952ba7f163c4a11628f55a4df523b3ef60405160405180910390a4505050565b600061076f838361134e565b6001600160a01b038216611010576040805162461bcd60e51b815260206004820181905260248201527f4552433732313a206d696e7420746f20746865207a65726f2061646472657373604482015290519081900360640190fd5b61101981610d2f565b1561106b576040805162461bcd60e51b815260206004820152601c60248201527f4552433732313a20746f6b656e20616c7265616479206d696e74656400000000604482015290519081900360640190fd5b611077600083836106e0565b6001600160a01b0382166000908152606560205260409020611099908261132c565b506110a660668284611338565b5060405181906001600160a01b038416906000907fddf252ad1be2c89b69c2b068fc378daa952ba7f163c4a11628f55a4df523b3ef908290a45050565b60006110ee826107c3565b90506110fc816000846106e0565b611107600083610d40565b6000828152606c60205260409020546002600019610100600184161502019091160415611145576000828152606c6020526040812061114591611a8a565b6001600160a01b03811660009081526065602052604090206111679083611320565b506111736066836113b2565b5060405182906000906001600160a01b038416907fddf252ad1be2c89b69c2b068fc378daa952ba7f163c4a11628f55a4df523b3ef908390a45050565b60008080806111bf86866113be565b9097909650945050505050565b60006111d9848484611439565b90505b9392505050565b6111ee848484610e5d565b6111fa84848484611503565b610a725760405162461bcd60e51b8152600401808060200182810382526032815260200180611b056032913960400191505060405180910390fd5b60608161125a57506040805180820190915260018152600360fc1b602082015261050d565b8160005b811561127257600101600a8204915061125e565b60608167ffffffffffffffff8111801561128b57600080fd5b506040519080825280601f01601f1916602001820160405280156112b6576020820181803683370190505b50859350905060001982015b831561130757600a840660300160f81b828280600190039350815181106112e557fe5b60200101906001600160f81b031916908160001a905350600a840493506112c2565b50949350505050565b600061076f838361166b565b5490565b600061076f8383611683565b600061076f8383611749565b60006111d984846001600160a01b038516611793565b815460009082106113905760405162461bcd60e51b8152600401808060200182810382526022815260200180611ae36022913960400191505060405180910390fd5b82600001828154811061139f57fe5b9060005260206000200154905092915050565b600061076f838361182a565b8154600090819083106114025760405162461bcd60e51b8152600401808060200182810382526022815260200180611c126022913960400191505060405180910390fd5b600084600001848154811061141357fe5b906000526020600020906002020190508060000154816001015492509250509250929050565b600082815260018401602052604081205482816114d45760405162461bcd60e51b81526004018080602001828103825283818151815260200191508051906020019080838360005b83811015611499578181015183820152602001611481565b50505050905090810190601f1680156114c65780820380516001836020036101000a031916815260200191505b509250505060405180910390fd5b508460000160018203815481106114e757fe5b9060005260206000209060020201600101549150509392505050565b6000611517846001600160a01b0316610d29565b61152357506001610e55565b6060611631630a85bd0160e11b611538610d3c565b88878760405160240180856001600160a01b03168152602001846001600160a01b0316815260200183815260200180602001828103825283818151815260200191508051906020019080838360005b8381101561159f578181015183820152602001611587565b50505050905090810190601f1680156115cc5780820380516001836020036101000a031916815260200191505b5095505050505050604051602081830303815290604052906001600160e01b0319166020820180516001600160e01b038381831617835250505050604051806060016040528060328152602001611b05603291396001600160a01b03881691906118fe565b9050600081806020019051602081101561164a57600080fd5b50516001600160e01b031916630a85bd0160e11b1492505050949350505050565b60009081526001919091016020526040902054151590565b6000818152600183016020526040812054801561173f57835460001980830191908101906000908790839081106116b657fe5b90600052602060002001549050808760000184815481106116d357fe5b60009182526020808320909101929092558281526001898101909252604090209084019055865487908061170357fe5b60019003818190600052602060002001600090559055866001016000878152602001908152602001600020600090556001945050505050610772565b6000915050610772565b6000611755838361166b565b61178b57508154600181810184556000848152602080822090930184905584548482528286019093526040902091909155610772565b506000610772565b6000828152600184016020526040812054806117f85750506040805180820182528381526020808201848152865460018181018955600089815284812095516002909302909501918255915190820155865486845281880190925292909120556111dc565b8285600001600183038154811061180b57fe5b90600052602060002090600202016001018190555060009150506111dc565b6000818152600183016020526040812054801561173f578354600019808301919081019060009087908390811061185d57fe5b906000526020600020906002020190508087600001848154811061187d57fe5b6000918252602080832084546002909302019182556001938401549184019190915583548252898301905260409020908401905586548790806118bc57fe5b60008281526020808220600260001990940193840201828155600190810183905592909355888152898201909252604082209190915594506107729350505050565b60606111d984846000858561191285610d29565b611963576040805162461bcd60e51b815260206004820152601d60248201527f416464726573733a2063616c6c20746f206e6f6e2d636f6e7472616374000000604482015290519081900360640190fd5b60006060866001600160a01b031685876040518082805190602001908083835b602083106119a25780518252601f199092019160209182019101611983565b6001836020036101000a03801982511681845116808217855250505050505090500191505060006040518083038185875af1925050503d8060008114611a04576040519150601f19603f3d011682016040523d82523d6000602084013e611a09565b606091505b5091509150611a19828286611a24565b979650505050505050565b60608315611a335750816111dc565b825115611a435782518084602001fd5b60405162461bcd60e51b8152602060048201818152845160248401528451859391928392604401919085019080838360008315611499578181015183820152602001611481565b50805460018160011615610100020316600290046000825580601f10611ab057506107aa565b601f0160209004906000526020600020908101906107aa91905b80821115611ade5760008155600101611aca565b509056fe456e756d657261626c655365743a20696e646578206f7574206f6620626f756e64734552433732313a207472616e7366657220746f206e6f6e20455243373231526563656976657220696d706c656d656e7465724552433732313a207472616e7366657220746f20746865207a65726f20616464726573734552433732313a206f70657261746f7220717565727920666f72206e6f6e6578697374656e7420746f6b656e4552433732313a20617070726f76652063616c6c6572206973206e6f74206f776e6572206e6f7220617070726f76656420666f7220616c6c4552433732313a2062616c616e636520717565727920666f7220746865207a65726f20616464726573734552433732313a206f776e657220717565727920666f72206e6f6e6578697374656e7420746f6b656e456e756d657261626c654d61703a20696e646578206f7574206f6620626f756e64734552433732313a20617070726f76656420717565727920666f72206e6f6e6578697374656e7420746f6b656e4552433732313a207472616e73666572206f6620746f6b656e2074686174206973206e6f74206f776e4552433732314d657461646174613a2055524920717565727920666f72206e6f6e6578697374656e7420746f6b656e4552433732313a20617070726f76616c20746f2063757272656e74206f776e65724552433732313a207472616e736665722063616c6c6572206973206e6f74206f776e6572206e6f7220617070726f766564a26469706673582212208c62b1e74bc2a20a1435de0f21c6f00aaf0ad5e1b848a98e15d13d546dfc166764736f6c634300060c0033496e697469616c697a61626c653a20636f6e747261637420697320616c726561647920696e697469616c697a6564",
  "linkReferences": {},
  "deployedLinkReferences": {}
}