{
  "_format": "hh-sol-artifact-1",
  "contractName": "YieldSourcePrizePoolHarnessProxyFactory",
  "sourceName": "contracts/test/YieldSourcePrizePoolHarnessProxyFactory.sol",
  "abi": [
    {
      "inputs": [],
      "stateMutability": "nonpayable",
      "type": "constructor"
    },
    {
      "anonymous": false,
      "inputs": [
        {
          "indexed": false,
          "internalType": "address",
          "name": "proxy",
          "type": "address"
        }
      ],
      "name": "ProxyCreated",
      "type": "event"
    },
    {
      "inputs": [],
      "name": "create",
      "outputs": [
        {
          "internalType": "contract YieldSourcePrizePoolHarness",
          "name": "",
          "type": "address"
        }
      ],
      "stateMutability": "nonpayable",
      "type": "function"
    },
    {
      "inputs": [
        {
          "internalType": "address",
          "name": "_logic",
          "type": "address"
        },
        {
          "internalType": "bytes",
          "name": "_data",
          "type": "bytes"
        }
      ],
      "name": "deployMinimal",
      "outputs": [
        {
          "internalType": "address",
          "name": "proxy",
          "type": "address"
        }
      ],
      "stateMutability": "nonpayable",
      "type": "function"
    },
    {
      "inputs": [],
      "name": "instance",
      "outputs": [
        {
          "internalType": "contract YieldSourcePrizePoolHarness",
          "name": "",
          "type": "address"
        }
      ],
      "stateMutability": "view",
      "type": "function"
    }
  ],
  "bytecode": "0x608060405234801561001057600080fd5b5060405161001d9061007e565b604051809103906000f080158015610039573d6000803e3d6000fd5b506000806101000a81548173ffffffffffffffffffffffffffffffffffffffff021916908373ffffffffffffffffffffffffffffffffffffffff16021790555061008b565b616f75806104dc83390190565b6104428061009a6000396000f3fe608060405234801561001057600080fd5b50600436106100415760003560e01c8063022ec09514610046578063b3eeb5e21461007a578063efc81a8c1461017f575b600080fd5b61004e6101b3565b604051808273ffffffffffffffffffffffffffffffffffffffff16815260200191505060405180910390f35b6101536004803603604081101561009057600080fd5b81019080803573ffffffffffffffffffffffffffffffffffffffff169060200190929190803590602001906401000000008111156100cd57600080fd5b8201836020820111156100df57600080fd5b8035906020019184600183028401116401000000008311171561010157600080fd5b91908080601f016020809104026020016040519081016040528093929190818152602001838380828437600081840152601f19601f8201169050808301925050505050505091929192905050506101d7565b604051808273ffffffffffffffffffffffffffffffffffffffff16815260200191505060405180910390f35b6101876103a8565b604051808273ffffffffffffffffffffffffffffffffffffffff16815260200191505060405180910390f35b60008054906101000a900473ffffffffffffffffffffffffffffffffffffffff1681565b6000808360601b90506040517f3d602d80600a3d3981f3363d3d373d3d3d363d7300000000000000000000000081528160148201527f5af43d82803e903d91602b57fd5bf3000000000000000000000000000000000060288201526037816000f09250507efffc2da0b561cae30d9826d37709e9421c4725faebc226cbbb7ef5fc5e734982604051808273ffffffffffffffffffffffffffffffffffffffff16815260200191505060405180910390a16000835111156103a15760008273ffffffffffffffffffffffffffffffffffffffff16846040518082805190602001908083835b602083106102de57805182526020820191506020810190506020830392506102bb565b6001836020036101000a0380198251168184511680821785525050505050509050019150506000604051808303816000865af19150503d8060008114610340576040519150601f19603f3d011682016040523d82523d6000602084013e610345565b606091505b505090508061039f576040517f08c379a00000000000000000000000000000000000000000000000000000000081526004018080602001828103825260248152602001806103e96024913960400191505060405180910390fd5b505b5092915050565b60006103e360008054906101000a900473ffffffffffffffffffffffffffffffffffffffff16604051806020016040528060008152506101d7565b90509056fe50726f7879466163746f72792f636f6e7374727563746f722d63616c6c2d6661696c6564a2646970667358221220406954a35a4f87d859e1860e3ef9c4e025d2fb730064fc1959f592b906048c6a64736f6c634300060c0033608060405234801561001057600080fd5b50616f5480620000216000396000f3fe608060405234801561001057600080fd5b506004361061025e5760003560e01c80638da5cb5b11610146578063b69ef8a8116100c3578063e323f82511610087578063e323f82514610f55578063e6d8a94b14610fe3578063edb4e1cf14611001578063f2fde38b1461101f578063fc0c546a14611063578063ffa1ad74146110975761025e565b8063b69ef8a814610d52578063cfa2400714610d70578063d18e81b314610e72578063d4a1361d14610e90578063db006a7514610f135761025e565b80639e1675191161010a5780639e16751914610bb65780639fe32a9114610bd4578063a016240b14610c16578063a7b2cc3114610ca2578063b2470e5c14610d1e5761025e565b80638da5cb5b14610a775780638e71c1f614610aab57806391ca480e14610adf57806398bf3eb614610b235780639d63848a14610b575761025e565b806352a387ab116101df57806376687d3d116101a357806376687d3d1461086e57806378b3d3271461088c57806379cb8563146108e65780637b99adb1146109525780637cbab1c714610980578063888c2b6f146109ee5761025e565b806352a387ab14610726578063630665b41461077e5780636a3fd4f91461079c5780636b1b863a146107f6578063715018a6146108645761025e565b80632b0ab144116102265780632b0ab144146104cc5780632f7627e31461053a578063354030231461059e5780633ede50c6146105cc578063494de9f7146106ae5761025e565b80630937eb541461026357806313f55e3914610281578063150b7a02146102ef57806316960d55146103e557806322f8e5661461049e575b600080fd5b61026b61111a565b6040518082815260200191505060405180910390f35b6102ed6004803603606081101561029757600080fd5b81019080803573ffffffffffffffffffffffffffffffffffffffff169060200190929190803573ffffffffffffffffffffffffffffffffffffffff16906020019092919080359060200190929190505050611129565b005b6103b06004803603608081101561030557600080fd5b81019080803573ffffffffffffffffffffffffffffffffffffffff169060200190929190803573ffffffffffffffffffffffffffffffffffffffff169060200190929190803590602001909291908035906020019064010000000081111561036c57600080fd5b82018360208201111561037e57600080fd5b803590602001918460018302840111640100000000831117156103a057600080fd5b909192939192939050505061126e565b60405180827bffffffffffffffffffffffffffffffffffffffffffffffffffffffff1916815260200191505060405180910390f35b61049c600480360360608110156103fb57600080fd5b81019080803573ffffffffffffffffffffffffffffffffffffffff169060200190929190803573ffffffffffffffffffffffffffffffffffffffff1690602001909291908035906020019064010000000081111561045857600080fd5b82018360208201111561046a57600080fd5b8035906020019184602083028401116401000000008311171561048c57600080fd5b9091929391929390505050611283565b005b6104ca600480360360208110156104b457600080fd5b810190808035906020019092919050505061161b565b005b610538600480360360608110156104e257600080fd5b81019080803573ffffffffffffffffffffffffffffffffffffffff169060200190929190803573ffffffffffffffffffffffffffffffffffffffff16906020019092919080359060200190929190505050611625565b005b61059c6004803603604081101561055057600080fd5b81019080803573ffffffffffffffffffffffffffffffffffffffff169060200190929190803573ffffffffffffffffffffffffffffffffffffffff16906020019092919050505061176a565b005b6105ca600480360360208110156105b457600080fd5b8101908080359060200190929190505050611949565b005b6106ac600480360360608110156105e257600080fd5b81019080803573ffffffffffffffffffffffffffffffffffffffff1690602001909291908035906020019064010000000081111561061f57600080fd5b82018360208201111561063157600080fd5b8035906020019184602083028401116401000000008311171561065357600080fd5b919080806020026020016040519081016040528093929190818152602001838360200280828437600081840152601f19601f82011690508083019250505050505050919291929080359060200190929190505050611955565b005b610710600480360360408110156106c457600080fd5b81019080803573ffffffffffffffffffffffffffffffffffffffff169060200190929190803573ffffffffffffffffffffffffffffffffffffffff169060200190929190505050611c54565b6040518082815260200191505060405180910390f35b6107686004803603602081101561073c57600080fd5b81019080803573ffffffffffffffffffffffffffffffffffffffff169060200190929190505050611e47565b6040518082815260200191505060405180910390f35b610786612037565b6040518082815260200191505060405180910390f35b6107de600480360360208110156107b257600080fd5b81019080803573ffffffffffffffffffffffffffffffffffffffff169060200190929190505050612041565b60405180821515815260200191505060405180910390f35b6108626004803603606081101561080c57600080fd5b81019080803573ffffffffffffffffffffffffffffffffffffffff16906020019092919080359060200190929190803573ffffffffffffffffffffffffffffffffffffffff169060200190929190505050612053565b005b61086c61236f565b005b6108766124df565b6040518082815260200191505060405180910390f35b6108ce600480360360208110156108a257600080fd5b81019080803573ffffffffffffffffffffffffffffffffffffffff1690602001909291905050506124e5565b60405180821515815260200191505060405180910390f35b61093c600480360360608110156108fc57600080fd5b81019080803573ffffffffffffffffffffffffffffffffffffffff16906020019092919080359060200190929190803590602001909291905050506124f7565b6040518082815260200191505060405180910390f35b61097e6004803603602081101561096857600080fd5b810190808035906020019092919050505061250d565b005b6109ec6004803603606081101561099657600080fd5b81019080803573ffffffffffffffffffffffffffffffffffffffff169060200190929190803573ffffffffffffffffffffffffffffffffffffffff169060200190929190803590602001909291905050506125c8565b005b610a5a60048036036060811015610a0457600080fd5b81019080803573ffffffffffffffffffffffffffffffffffffffff169060200190929190803573ffffffffffffffffffffffffffffffffffffffff16906020019092919080359060200190929190505050612a2c565b604051808381526020018281526020019250505060405180910390f35b610a7f612a4a565b604051808273ffffffffffffffffffffffffffffffffffffffff16815260200191505060405180910390f35b610ab3612a74565b604051808273ffffffffffffffffffffffffffffffffffffffff16815260200191505060405180910390f35b610b2160048036036020811015610af557600080fd5b81019080803573ffffffffffffffffffffffffffffffffffffffff169060200190929190505050612a9a565b005b610b2b612b55565b604051808273ffffffffffffffffffffffffffffffffffffffff16815260200191505060405180910390f35b610b5f612b7b565b6040518080602001828103825283818151815260200191508051906020019060200280838360005b83811015610ba2578082015181840152602081019050610b87565b505050509050019250505060405180910390f35b610bbe612c09565b6040518082815260200191505060405180910390f35b610c0060048036036020811015610bea57600080fd5b8101908080359060200190929190505050612c0f565b6040518082815260200191505060405180910390f35b610c8c60048036036080811015610c2c57600080fd5b81019080803573ffffffffffffffffffffffffffffffffffffffff16906020019092919080359060200190929190803573ffffffffffffffffffffffffffffffffffffffff16906020019092919080359060200190929190505050612dc4565b6040518082815260200191505060405180910390f35b610d1c60048036036060811015610cb857600080fd5b81019080803573ffffffffffffffffffffffffffffffffffffffff16906020019092919080356fffffffffffffffffffffffffffffffff16906020019092919080356fffffffffffffffffffffffffffffffff1690602001909291905050506130e8565b005b610d26613393565b604051808273ffffffffffffffffffffffffffffffffffffffff16815260200191505060405180910390f35b610d5a6133b9565b6040518082815260200191505060405180910390f35b610e7060048036036080811015610d8657600080fd5b81019080803573ffffffffffffffffffffffffffffffffffffffff16906020019092919080359060200190640100000000811115610dc357600080fd5b820183602082011115610dd557600080fd5b80359060200191846020830284011164010000000083111715610df757600080fd5b919080806020026020016040519081016040528093929190818152602001838360200280828437600081840152601f19601f82011690508083019250505050505050919291929080359060200190929190803573ffffffffffffffffffffffffffffffffffffffff1690602001909291905050506133c8565b005b610e7a61371f565b6040518082815260200191505060405180910390f35b610ed260048036036020811015610ea657600080fd5b81019080803573ffffffffffffffffffffffffffffffffffffffff169060200190929190505050613725565b60405180836fffffffffffffffffffffffffffffffff168152602001826fffffffffffffffffffffffffffffffff1681526020019250505060405180910390f35b610f3f60048036036020811015610f2957600080fd5b81019080803590602001909291905050506137ef565b6040518082815260200191505060405180910390f35b610fe160048036036080811015610f6b57600080fd5b81019080803573ffffffffffffffffffffffffffffffffffffffff16906020019092919080359060200190929190803573ffffffffffffffffffffffffffffffffffffffff169060200190929190803573ffffffffffffffffffffffffffffffffffffffff169060200190929190505050613801565b005b610feb613a7a565b6040518082815260200191505060405180910390f35b611009613c54565b6040518082815260200191505060405180910390f35b6110616004803603602081101561103557600080fd5b81019080803573ffffffffffffffffffffffffffffffffffffffff169060200190929190505050613c5a565b005b61106b613e4f565b604051808273ffffffffffffffffffffffffffffffffffffffff16815260200191505060405180910390f35b61109f613e5e565b6040518080602001828103825283818151815260200191508051906020019080838360005b838110156110df5780820151818401526020810190506110c4565b50505050905090810190601f16801561110c5780820380516001836020036101000a031916815260200191505b509250505060405180910390f35b6000611124613e97565b905090565b609960009054906101000a900473ffffffffffffffffffffffffffffffffffffffff1673ffffffffffffffffffffffffffffffffffffffff1661116a613ffa565b73ffffffffffffffffffffffffffffffffffffffff16146111f3576040517f08c379a000000000000000000000000000000000000000000000000000000000815260040180806020018281038252601c8152602001807f5072697a65506f6f6c2f6f6e6c792d7072697a6553747261746567790000000081525060200191505060405180910390fd5b6111fe838383614002565b15611269578173ffffffffffffffffffffffffffffffffffffffff168373ffffffffffffffffffffffffffffffffffffffff167fb0bac59718cd343c80a813518afcf36846cfcfe6d56e2b3cab9bd49f5f9b251c836040518082815260200191505060405180910390a35b505050565b600063150b7a0260e01b905095945050505050565b609960009054906101000a900473ffffffffffffffffffffffffffffffffffffffff1673ffffffffffffffffffffffffffffffffffffffff166112c4613ffa565b73ffffffffffffffffffffffffffffffffffffffff161461134d576040517f08c379a000000000000000000000000000000000000000000000000000000000815260040180806020018281038252601c8152602001807f5072697a65506f6f6c2f6f6e6c792d7072697a6553747261746567790000000081525060200191505060405180910390fd5b611356836140c8565b6113c8576040517f08c379a00000000000000000000000000000000000000000000000000000000081526004018080602001828103825260208152602001807f5072697a65506f6f6c2f696e76616c69642d65787465726e616c2d746f6b656e81525060200191505060405180910390fd5b60008282905014156113d957611615565b60005b8282905081101561157f578373ffffffffffffffffffffffffffffffffffffffff166342842e0e308786868681811061141157fe5b905060200201356040518463ffffffff1660e01b8152600401808473ffffffffffffffffffffffffffffffffffffffff1681526020018373ffffffffffffffffffffffffffffffffffffffff1681526020018281526020019350505050600060405180830381600087803b15801561148857600080fd5b505af1925050508015611499575060015b611571573d80600081146114c9576040519150601f19603f3d011682016040523d82523d6000602084013e6114ce565b606091505b507f17e975018310f88872b58d4d8263adca83cf5c1893496ea2a86923dab15276ad816040518080602001828103825283818151815260200191508051906020019080838360005b83811015611531578082015181840152602081019050611516565b50505050905090810190601f16801561155e5780820380516001836020036101000a031916815260200191505b509250505060405180910390a150611572565b5b80806001019150506113dc565b508273ffffffffffffffffffffffffffffffffffffffff168473ffffffffffffffffffffffffffffffffffffffff167f69c2de32bc4d47f488e72626a6cfdee85089342e52675e7de79c4b417623960c848460405180806020018281038252848482818152602001925060200280828437600081840152601f19601f820116905080830192505050935050505060405180910390a35b50505050565b8060a18190555050565b609960009054906101000a900473ffffffffffffffffffffffffffffffffffffffff1673ffffffffffffffffffffffffffffffffffffffff16611666613ffa565b73ffffffffffffffffffffffffffffffffffffffff16146116ef576040517f08c379a000000000000000000000000000000000000000000000000000000000815260040180806020018281038252601c8152602001807f5072697a65506f6f6c2f6f6e6c792d7072697a6553747261746567790000000081525060200191505060405180910390fd5b6116fa838383614002565b15611765578173ffffffffffffffffffffffffffffffffffffffff168373ffffffffffffffffffffffffffffffffffffffff167fc65f48aca3b7a99b7443d04b8ffbb073156179bc628dc3f7def5047748973469836040518082815260200191505060405180910390a35b505050565b611772613ffa565b73ffffffffffffffffffffffffffffffffffffffff16611790612a4a565b73ffffffffffffffffffffffffffffffffffffffff1614611819576040517f08c379a00000000000000000000000000000000000000000000000000000000081526004018080602001828103825260208152602001807f4f776e61626c653a2063616c6c6572206973206e6f7420746865206f776e657281525060200191505060405180910390fd5b60008273ffffffffffffffffffffffffffffffffffffffff166370a08231306040518263ffffffff1660e01b8152600401808273ffffffffffffffffffffffffffffffffffffffff16815260200191505060206040518083038186803b15801561188257600080fd5b505afa158015611896573d6000803e3d6000fd5b505050506040513d60208110156118ac57600080fd5b81019080805190602001909291905050501115611945578173ffffffffffffffffffffffffffffffffffffffff16635c19a95c826040518263ffffffff1660e01b8152600401808273ffffffffffffffffffffffffffffffffffffffff168152602001915050600060405180830381600087803b15801561192c57600080fd5b505af1158015611940573d6000803e3d6000fd5b505050505b5050565b61195281614123565b50565b600060019054906101000a900460ff16806119745750611973614225565b5b8061198a575060008054906101000a900460ff16155b6119df576040517f08c379a000000000000000000000000000000000000000000000000000000000815260040180806020018281038252602e815260200180616ded602e913960400191505060405180910390fd5b60008060019054906101000a900460ff161590508015611a2f576001600060016101000a81548160ff02191690831515021790555060016000806101000a81548160ff0219169083151502179055505b600073ffffffffffffffffffffffffffffffffffffffff168473ffffffffffffffffffffffffffffffffffffffff161415611ab5576040517f08c379a0000000000000000000000000000000000000000000000000000000008152600401808060200182810382526022815260200180616da56022913960400191505060405180910390fd5b6000835190508067ffffffffffffffff81118015611ad257600080fd5b50604051908082528060200260200182016040528015611b015781602001602082028036833780820191505090505b5060989080519060200190611b17929190616c69565b5060005b81811015611b53576000858281518110611b3157fe5b60200260200101519050611b458183614236565b508080600101915050611b1b565b50611b5c6143f4565b611b64614502565b611b8d7fffffffffffffffffffffffffffffffffffffffffffffffffffffffffffffffff614608565b84609760006101000a81548173ffffffffffffffffffffffffffffffffffffffff021916908373ffffffffffffffffffffffffffffffffffffffff16021790555082609a819055507f25ff68dd81b34665b5ba7e553ee5511bf6812e12adb4a7e2c0d9e26b3099ce7985609a54604051808373ffffffffffffffffffffffffffffffffffffffff1681526020018281526020019250505060405180910390a1508015611c4e5760008060016101000a81548160ff0219169083151502179055505b50505050565b600081611c6081614649565b611cd2576040517f08c379a00000000000000000000000000000000000000000000000000000000081526004018080602001828103825260178152602001807f5072697a65506f6f6c2f756e6b6e6f776e2d746f6b656e00000000000000000081525060200191505060405180910390fd5b611d8084848573ffffffffffffffffffffffffffffffffffffffff166370a08231886040518263ffffffff1660e01b8152600401808273ffffffffffffffffffffffffffffffffffffffff16815260200191505060206040518083038186803b158015611d3e57600080fd5b505afa158015611d52573d6000803e3d6000fd5b505050506040513d6020811015611d6857600080fd5b81019080805190602001909291905050506000614754565b609f60008473ffffffffffffffffffffffffffffffffffffffff1673ffffffffffffffffffffffffffffffffffffffff16815260200190815260200160002060008573ffffffffffffffffffffffffffffffffffffffff1673ffffffffffffffffffffffffffffffffffffffff16815260200190815260200160002060000160009054906101000a900477ffffffffffffffffffffffffffffffffffffffffffffffff1677ffffffffffffffffffffffffffffffffffffffffffffffff1691505092915050565b600080609760009054906101000a900473ffffffffffffffffffffffffffffffffffffffff1673ffffffffffffffffffffffffffffffffffffffff1663f5e3542b6040518163ffffffff1660e01b815260040160206040518083038186803b158015611eb257600080fd5b505afa158015611ec6573d6000803e3d6000fd5b505050506040513d6020811015611edc57600080fd5b810190808051906020019092919050505090503373ffffffffffffffffffffffffffffffffffffffff168173ffffffffffffffffffffffffffffffffffffffff1614611f90576040517f08c379a00000000000000000000000000000000000000000000000000000000081526004018080602001828103825260168152602001807f5072697a65506f6f6c2f6f6e6c792d726573657276650000000000000000000081525060200191505060405180910390fd5b6000609b5490506000609b819055506000611faa82614770565b9050611fde8582611fb9614829565b73ffffffffffffffffffffffffffffffffffffffff166148d39092919063ffffffff16565b8473ffffffffffffffffffffffffffffffffffffffff167f1c71c8e11fd443227c8f8d3dc1a237a3a5e8310b540c7fbcf5169754aedf42c9836040518082815260200191505060405180910390a2809350505050919050565b6000609d54905090565b600061204c826140c8565b9050919050565b609960009054906101000a900473ffffffffffffffffffffffffffffffffffffffff1673ffffffffffffffffffffffffffffffffffffffff16612094613ffa565b73ffffffffffffffffffffffffffffffffffffffff161461211d576040517f08c379a000000000000000000000000000000000000000000000000000000000815260040180806020018281038252601c8152602001807f5072697a65506f6f6c2f6f6e6c792d7072697a6553747261746567790000000081525060200191505060405180910390fd5b8061212781614649565b612199576040517f08c379a00000000000000000000000000000000000000000000000000000000081526004018080602001828103825260178152602001807f5072697a65506f6f6c2f756e6b6e6f776e2d746f6b656e00000000000000000081525060200191505060405180910390fd5b60008314156121a757612369565b609d5483111561221f576040517f08c379a000000000000000000000000000000000000000000000000000000000815260040180806020018281038252601d8152602001807f5072697a65506f6f6c2f61776172642d657863656564732d617661696c00000081525060200191505060405180910390fd5b61223483609d5461497590919063ffffffff16565b609d8190555061224784848460006149f8565b60006122538385614bc5565b905061230285848573ffffffffffffffffffffffffffffffffffffffff166370a08231896040518263ffffffff1660e01b8152600401808273ffffffffffffffffffffffffffffffffffffffff16815260200191505060206040518083038186803b1580156122c157600080fd5b505afa1580156122d5573d6000803e3d6000fd5b505050506040513d60208110156122eb57600080fd5b810190808051906020019092919050505084614754565b8273ffffffffffffffffffffffffffffffffffffffff168573ffffffffffffffffffffffffffffffffffffffff167fe2554529d99ab7a67db6b4cea2b32c7d55ae325f958861e05f304fdded867e31866040518082815260200191505060405180910390a3505b50505050565b612377613ffa565b73ffffffffffffffffffffffffffffffffffffffff16612395612a4a565b73ffffffffffffffffffffffffffffffffffffffff161461241e576040517f08c379a00000000000000000000000000000000000000000000000000000000081526004018080602001828103825260208152602001807f4f776e61626c653a2063616c6c6572206973206e6f7420746865206f776e657281525060200191505060405180910390fd5b600073ffffffffffffffffffffffffffffffffffffffff16603360009054906101000a900473ffffffffffffffffffffffffffffffffffffffff1673ffffffffffffffffffffffffffffffffffffffff167f8be0079c531659141344cd1fd0a4f28419497f9722a3daafe3b4186f6b6457e060405160405180910390a36000603360006101000a81548173ffffffffffffffffffffffffffffffffffffffff021916908373ffffffffffffffffffffffffffffffffffffffff160217905550565b609c5481565b60006124f082614649565b9050919050565b6000612504848484614c52565b90509392505050565b612515613ffa565b73ffffffffffffffffffffffffffffffffffffffff16612533612a4a565b73ffffffffffffffffffffffffffffffffffffffff16146125bc576040517f08c379a00000000000000000000000000000000000000000000000000000000081526004018080602001828103825260208152602001807f4f776e61626c653a2063616c6c6572206973206e6f7420746865206f776e657281525060200191505060405180910390fd5b6125c581614608565b50565b336125d281614649565b612644576040517f08c379a00000000000000000000000000000000000000000000000000000000081526004018080602001828103825260178152602001807f5072697a65506f6f6c2f756e6b6e6f776e2d746f6b656e00000000000000000081525060200191505060405180910390fd5b600073ffffffffffffffffffffffffffffffffffffffff168473ffffffffffffffffffffffffffffffffffffffff16146127905760003373ffffffffffffffffffffffffffffffffffffffff166370a08231866040518263ffffffff1660e01b8152600401808273ffffffffffffffffffffffffffffffffffffffff16815260200191505060206040518083038186803b1580156126e157600080fd5b505afa1580156126f5573d6000803e3d6000fd5b505050506040513d602081101561270b57600080fd5b81019080805190602001909291905050509050600061272d8633846000614d02565b90508473ffffffffffffffffffffffffffffffffffffffff168673ffffffffffffffffffffffffffffffffffffffff16146127825761277f33612779868561497590919063ffffffff16565b83614e35565b90505b61278d863383614ecb565b50505b600073ffffffffffffffffffffffffffffffffffffffff168373ffffffffffffffffffffffffffffffffffffffff16141580156127f957508373ffffffffffffffffffffffffffffffffffffffff168373ffffffffffffffffffffffffffffffffffffffff1614155b156128ad576128ac83333373ffffffffffffffffffffffffffffffffffffffff166370a08231876040518263ffffffff1660e01b8152600401808273ffffffffffffffffffffffffffffffffffffffff16815260200191505060206040518083038186803b15801561286a57600080fd5b505afa15801561287e573d6000803e3d6000fd5b505050506040513d602081101561289457600080fd5b81019080805190602001909291905050506000614754565b5b600073ffffffffffffffffffffffffffffffffffffffff168473ffffffffffffffffffffffffffffffffffffffff16141580156129395750600073ffffffffffffffffffffffffffffffffffffffff16609960009054906101000a900473ffffffffffffffffffffffffffffffffffffffff1673ffffffffffffffffffffffffffffffffffffffff1614155b15612a2657609960009054906101000a900473ffffffffffffffffffffffffffffffffffffffff1673ffffffffffffffffffffffffffffffffffffffff1663b2210957858585336040518563ffffffff1660e01b8152600401808573ffffffffffffffffffffffffffffffffffffffff1681526020018473ffffffffffffffffffffffffffffffffffffffff1681526020018381526020018273ffffffffffffffffffffffffffffffffffffffff168152602001945050505050600060405180830381600087803b158015612a0d57600080fd5b505af1158015612a21573d6000803e3d6000fd5b505050505b50505050565b600080612a3a858585615214565b8092508193505050935093915050565b6000603360009054906101000a900473ffffffffffffffffffffffffffffffffffffffff16905090565b609760009054906101000a900473ffffffffffffffffffffffffffffffffffffffff1681565b612aa2613ffa565b73ffffffffffffffffffffffffffffffffffffffff16612ac0612a4a565b73ffffffffffffffffffffffffffffffffffffffff1614612b49576040517f08c379a00000000000000000000000000000000000000000000000000000000081526004018080602001828103825260208152602001807f4f776e61626c653a2063616c6c6572206973206e6f7420746865206f776e657281525060200191505060405180910390fd5b612b5281615539565b50565b609960009054906101000a900473ffffffffffffffffffffffffffffffffffffffff1681565b60606098805480602002602001604051908101604052809291908181526020018280548015612bff57602002820191906000526020600020905b8160009054906101000a900473ffffffffffffffffffffffffffffffffffffffff1673ffffffffffffffffffffffffffffffffffffffff1681526020019060010190808311612bb5575b5050505050905090565b609a5481565b600080609760009054906101000a900473ffffffffffffffffffffffffffffffffffffffff1673ffffffffffffffffffffffffffffffffffffffff1663f5e3542b6040518163ffffffff1660e01b815260040160206040518083038186803b158015612c7a57600080fd5b505afa158015612c8e573d6000803e3d6000fd5b505050506040513d6020811015612ca457600080fd5b81019080805190602001909291905050509050600073ffffffffffffffffffffffffffffffffffffffff168173ffffffffffffffffffffffffffffffffffffffff161415612cf6576000915050612dbf565b60008173ffffffffffffffffffffffffffffffffffffffff1663010dfa58306040518263ffffffff1660e01b8152600401808273ffffffffffffffffffffffffffffffffffffffff16815260200191505060206040518083038186803b158015612d5f57600080fd5b505afa158015612d73573d6000803e3d6000fd5b505050506040513d6020811015612d8957600080fd5b810190808051906020019092919050505090506000811415612db057600092505050612dbf565b612dba8482615705565b925050505b919050565b600060026065541415612e3f576040517f08c379a000000000000000000000000000000000000000000000000000000000815260040180806020018281038252601f8152602001807f5265656e7472616e637947756172643a207265656e7472616e742063616c6c0081525060200191505060405180910390fd5b600260658190555082612e5181614649565b612ec3576040517f08c379a00000000000000000000000000000000000000000000000000000000081526004018080602001828103825260178152602001807f5072697a65506f6f6c2f756e6b6e6f776e2d746f6b656e00000000000000000081525060200191505060405180910390fd5b600080612ed1888789615214565b9150915084821115612f2e576040517f08c379a0000000000000000000000000000000000000000000000000000000008152600401808060200182810382526027815260200180616e3c6027913960400191505060405180910390fd5b612f39888783615744565b8573ffffffffffffffffffffffffffffffffffffffff1663631b5dfb612f5d613ffa565b8a8a6040518463ffffffff1660e01b8152600401808473ffffffffffffffffffffffffffffffffffffffff1681526020018373ffffffffffffffffffffffffffffffffffffffff1681526020018281526020019350505050600060405180830381600087803b158015612fcf57600080fd5b505af1158015612fe3573d6000803e3d6000fd5b505050506000612ffc838961497590919063ffffffff16565b9050600061300982614770565b905061303d8a82613018614829565b73ffffffffffffffffffffffffffffffffffffffff166148d39092919063ffffffff16565b8773ffffffffffffffffffffffffffffffffffffffff168a73ffffffffffffffffffffffffffffffffffffffff16613073613ffa565b73ffffffffffffffffffffffffffffffffffffffff167f0271704a58fd2953e49b87d67a0a3ce28a58147de98a5457f60b4686f63850308c858960405180848152602001838152602001828152602001935050505060405180910390a483955050505050506001606581905550949350505050565b826130f281614649565b613164576040517f08c379a00000000000000000000000000000000000000000000000000000000081526004018080602001828103825260178152602001807f5072697a65506f6f6c2f756e6b6e6f776e2d746f6b656e00000000000000000081525060200191505060405180910390fd5b61316c613ffa565b73ffffffffffffffffffffffffffffffffffffffff1661318a612a4a565b73ffffffffffffffffffffffffffffffffffffffff1614613213576040517f08c379a00000000000000000000000000000000000000000000000000000000081526004018080602001828103825260208152602001807f4f776e61626c653a2063616c6c6572206973206e6f7420746865206f776e657281525060200191505060405180910390fd5b6040518060400160405280836fffffffffffffffffffffffffffffffff168152602001846fffffffffffffffffffffffffffffffff16815250609e60008673ffffffffffffffffffffffffffffffffffffffff1673ffffffffffffffffffffffffffffffffffffffff16815260200190815260200160002060008201518160000160006101000a8154816fffffffffffffffffffffffffffffffff02191690836fffffffffffffffffffffffffffffffff16021790555060208201518160000160106101000a8154816fffffffffffffffffffffffffffffffff02191690836fffffffffffffffffffffffffffffffff1602179055509050507ffb0ba2cf86a2b03bcf387753a2192da80a006afa99dd022bb301c78e323bf1b9848385604051808473ffffffffffffffffffffffffffffffffffffffff168152602001836fffffffffffffffffffffffffffffffff168152602001826fffffffffffffffffffffffffffffffff168152602001935050505060405180910390a150505050565b60a060009054906101000a900473ffffffffffffffffffffffffffffffffffffffff1681565b60006133c361595d565b905090565b600060019054906101000a900460ff16806133e757506133e6614225565b5b806133fd575060008054906101000a900460ff16155b613452576040517f08c379a000000000000000000000000000000000000000000000000000000000815260040180806020018281038252602e815260200180616ded602e913960400191505060405180910390fd5b60008060019054906101000a900460ff1615905080156134a2576001600060016101000a81548160ff02191690831515021790555060016000806101000a81548160ff0219169083151502179055505b6134c18273ffffffffffffffffffffffffffffffffffffffff16615a2a565b613516576040517f08c379a0000000000000000000000000000000000000000000000000000000008152600401808060200182810382526036815260200180616eb36036913960400191505060405180910390fd5b613521858585611955565b8160a060006101000a81548173ffffffffffffffffffffffffffffffffffffffff021916908373ffffffffffffffffffffffffffffffffffffffff16021790555060008273ffffffffffffffffffffffffffffffffffffffff1663c89039c560e01b60405160200180827bffffffffffffffffffffffffffffffffffffffffffffffffffffffff191681526020019150506040516020818303038152906040526040518082805190602001908083835b602083106135f457805182526020820191506020810190506020830392506135d1565b6001836020036101000a038019825116818451168082178552505050505050905001915050600060405180830381855afa9150503d8060008114613654576040519150601f19603f3d011682016040523d82523d6000602084013e613659565b606091505b50509050806136b3576040517f08c379a0000000000000000000000000000000000000000000000000000000008152600401808060200182810382526029815260200180616d2f6029913960400191505060405180910390fd5b8273ffffffffffffffffffffffffffffffffffffffff167f7a0ca506edc9fcd36e010dbcaad57dade17bbac71dfeb53269077098e863eeca60405160405180910390a25080156137185760008060016101000a81548160ff0219169083151502179055505b5050505050565b60a15481565b600080609e60008473ffffffffffffffffffffffffffffffffffffffff1673ffffffffffffffffffffffffffffffffffffffff16815260200190815260200160002060000160009054906101000a90046fffffffffffffffffffffffffffffffff169150609e60008473ffffffffffffffffffffffffffffffffffffffff1673ffffffffffffffffffffffffffffffffffffffff16815260200190815260200160002060000160109054906101000a90046fffffffffffffffffffffffffffffffff169050915091565b60006137fa82614770565b9050919050565b6002606554141561387a576040517f08c379a000000000000000000000000000000000000000000000000000000000815260040180806020018281038252601f8152602001807f5265656e7472616e637947756172643a207265656e7472616e742063616c6c0081525060200191505060405180910390fd5b60026065819055508161388c81614649565b6138fe576040517f08c379a00000000000000000000000000000000000000000000000000000000081526004018080602001828103825260178152602001807f5072697a65506f6f6c2f756e6b6e6f776e2d746f6b656e00000000000000000081525060200191505060405180910390fd5b8361390881615a3d565b61397a576040517f08c379a000000000000000000000000000000000000000000000000000000000815260040180806020018281038252601f8152602001807f5072697a65506f6f6c2f657863656564732d6c69717569646974792d6361700081525060200191505060405180910390fd5b6000613984613ffa565b9050613992878787876149f8565b6139c68130886139a0614829565b73ffffffffffffffffffffffffffffffffffffffff16615a6a909392919063ffffffff16565b6139cf86614123565b8473ffffffffffffffffffffffffffffffffffffffff168773ffffffffffffffffffffffffffffffffffffffff168273ffffffffffffffffffffffffffffffffffffffff167f6ce569498e0f86f147466ac49211cb2a1ffe06195adb805e383b3f23651091608988604051808381526020018273ffffffffffffffffffffffffffffffffffffffff1681526020019250505060405180910390a4505050600160658190555050505050565b600060026065541415613af5576040517f08c379a000000000000000000000000000000000000000000000000000000000815260040180806020018281038252601f8152602001807f5265656e7472616e637947756172643a207265656e7472616e742063616c6c0081525060200191505060405180910390fd5b60026065819055506000613b07613e97565b90506000613b1361595d565b90506000828211613b25576000613b39565b613b38838361497590919063ffffffff16565b5b90506000609d548211613b4d576000613b63565b613b62609d548361497590919063ffffffff16565b5b90506000811115613c40576000613b7982612c0f565b90506000811115613bec57613b9981609b54615b2b90919063ffffffff16565b609b81905550613bb2818361497590919063ffffffff16565b91507f5f1703ccfa2730d4245350f228079926a37f26a44ecf6978a7eeafff0af11407816040518082815260200191505060405180910390a15b613c0182609d54615b2b90919063ffffffff16565b609d819055507fce2b6e507c7ca1a20ce136810f524eefc19ba4c7e4866eb6cc0cba76e778d4be826040518082815260200191505060405180910390a1505b609d54945050505050600160658190555090565b609b5481565b613c62613ffa565b73ffffffffffffffffffffffffffffffffffffffff16613c80612a4a565b73ffffffffffffffffffffffffffffffffffffffff1614613d09576040517f08c379a00000000000000000000000000000000000000000000000000000000081526004018080602001828103825260208152602001807f4f776e61626c653a2063616c6c6572206973206e6f7420746865206f776e657281525060200191505060405180910390fd5b600073ffffffffffffffffffffffffffffffffffffffff168173ffffffffffffffffffffffffffffffffffffffff161415613d8f576040517f08c379a0000000000000000000000000000000000000000000000000000000008152600401808060200182810382526026815260200180616d586026913960400191505060405180910390fd5b8073ffffffffffffffffffffffffffffffffffffffff16603360009054906101000a900473ffffffffffffffffffffffffffffffffffffffff1673ffffffffffffffffffffffffffffffffffffffff167f8be0079c531659141344cd1fd0a4f28419497f9722a3daafe3b4186f6b6457e060405160405180910390a380603360006101000a81548173ffffffffffffffffffffffffffffffffffffffff021916908373ffffffffffffffffffffffffffffffffffffffff16021790555050565b6000613e59614829565b905090565b6040518060400160405280600581526020017f332e342e3100000000000000000000000000000000000000000000000000000081525081565b600080609b54905060606098805480602002602001604051908101604052809291908181526020018280548015613f2357602002820191906000526020600020905b8160009054906101000a900473ffffffffffffffffffffffffffffffffffffffff1673ffffffffffffffffffffffffffffffffffffffff1681526020019060010190808311613ed9575b5050505050905060008151905060005b81811015613ff057613fe1838281518110613f4a57fe5b602002602001015173ffffffffffffffffffffffffffffffffffffffff166318160ddd6040518163ffffffff1660e01b815260040160206040518083038186803b158015613f9757600080fd5b505afa158015613fab573d6000803e3d6000fd5b505050506040513d6020811015613fc157600080fd5b810190808051906020019092919050505085615b2b90919063ffffffff16565b93508080600101915050613f33565b5082935050505090565b600033905090565b600061400d836140c8565b61407f576040517f08c379a00000000000000000000000000000000000000000000000000000000081526004018080602001828103825260208152602001807f5072697a65506f6f6c2f696e76616c69642d65787465726e616c2d746f6b656e81525060200191505060405180910390fd5b600082141561409157600090506140c1565b6140bc84838573ffffffffffffffffffffffffffffffffffffffff166148d39092919063ffffffff16565b600190505b9392505050565b600060a060009054906101000a900473ffffffffffffffffffffffffffffffffffffffff1673ffffffffffffffffffffffffffffffffffffffff168273ffffffffffffffffffffffffffffffffffffffff1614159050919050565b61417760a060009054906101000a900473ffffffffffffffffffffffffffffffffffffffff1682614152614829565b73ffffffffffffffffffffffffffffffffffffffff16615bb39092919063ffffffff16565b60a060009054906101000a900473ffffffffffffffffffffffffffffffffffffffff1673ffffffffffffffffffffffffffffffffffffffff166387a6eeef82306040518363ffffffff1660e01b8152600401808381526020018273ffffffffffffffffffffffffffffffffffffffff16815260200192505050600060405180830381600087803b15801561420a57600080fd5b505af115801561421e573d6000803e3d6000fd5b5050505050565b600061423030615a2a565b15905090565b3073ffffffffffffffffffffffffffffffffffffffff168273ffffffffffffffffffffffffffffffffffffffff1663f77c47916040518163ffffffff1660e01b815260040160206040518083038186803b15801561429357600080fd5b505afa1580156142a7573d6000803e3d6000fd5b505050506040513d60208110156142bd57600080fd5b810190808051906020019092919050505073ffffffffffffffffffffffffffffffffffffffff1614614357576040517f08c379a000000000000000000000000000000000000000000000000000000000815260040180806020018281038252601e8152602001807f5072697a65506f6f6c2f746f6b656e2d6374726c722d6d69736d61746368000081525060200191505060405180910390fd5b816098828154811061436557fe5b9060005260206000200160006101000a81548173ffffffffffffffffffffffffffffffffffffffff021916908373ffffffffffffffffffffffffffffffffffffffff1602179055508173ffffffffffffffffffffffffffffffffffffffff167f460e712b4a5d801d031ed673dea209b73ab854f7ddeb86b6c48082e92c3eee6660405160405180910390a25050565b600060019054906101000a900460ff16806144135750614412614225565b5b80614429575060008054906101000a900460ff16155b61447e576040517f08c379a000000000000000000000000000000000000000000000000000000000815260040180806020018281038252602e815260200180616ded602e913960400191505060405180910390fd5b60008060019054906101000a900460ff1615905080156144ce576001600060016101000a81548160ff02191690831515021790555060016000806101000a81548160ff0219169083151502179055505b6144d6615d78565b6144de615e76565b80156144ff5760008060016101000a81548160ff0219169083151502179055505b50565b600060019054906101000a900460ff16806145215750614520614225565b5b80614537575060008054906101000a900460ff16155b61458c576040517f08c379a000000000000000000000000000000000000000000000000000000000815260040180806020018281038252602e815260200180616ded602e913960400191505060405180910390fd5b60008060019054906101000a900460ff1615905080156145dc576001600060016101000a81548160ff02191690831515021790555060016000806101000a81548160ff0219169083151502179055505b6145e461601d565b80156146055760008060016101000a81548160ff0219169083151502179055505b50565b80609c819055507f3ff20538222f568f27ff436c0c49dfd3e48d5b8f86533a3f759dc1c7089775ab816040518082815260200191505060405180910390a150565b6000606060988054806020026020016040519081016040528092919081815260200182805480156146cf57602002820191906000526020600020905b8160009054906101000a900473ffffffffffffffffffffffffffffffffffffffff1673ffffffffffffffffffffffffffffffffffffffff1681526020019060010190808311614685575b5050505050905060008151905060005b81811015614747578473ffffffffffffffffffffffffffffffffffffffff1683828151811061470a57fe5b602002602001015173ffffffffffffffffffffffffffffffffffffffff16141561473a576001935050505061474f565b80806001019150506146df565b506000925050505b919050565b61476a848461476587878787614d02565b614ecb565b50505050565b600060a060009054906101000a900473ffffffffffffffffffffffffffffffffffffffff1673ffffffffffffffffffffffffffffffffffffffff1663013054c2836040518263ffffffff1660e01b815260040180828152602001915050602060405180830381600087803b1580156147e757600080fd5b505af11580156147fb573d6000803e3d6000fd5b505050506040513d602081101561481157600080fd5b81019080805190602001909291905050509050919050565b600060a060009054906101000a900473ffffffffffffffffffffffffffffffffffffffff1673ffffffffffffffffffffffffffffffffffffffff1663c89039c56040518163ffffffff1660e01b815260040160206040518083038186803b15801561489357600080fd5b505afa1580156148a7573d6000803e3d6000fd5b505050506040513d60208110156148bd57600080fd5b8101908080519060200190929190505050905090565b6149708363a9059cbb60e01b8484604051602401808373ffffffffffffffffffffffffffffffffffffffff16815260200182815260200192505050604051602081830303815290604052907bffffffffffffffffffffffffffffffffffffffffffffffffffffffff19166020820180517bffffffffffffffffffffffffffffffffffffffffffffffffffffffff8381831617835250505050616123565b505050565b6000828211156149ed576040517f08c379a000000000000000000000000000000000000000000000000000000000815260040180806020018281038252601e8152602001807f536166654d6174683a207375627472616374696f6e206f766572666c6f77000081525060200191505060405180910390fd5b818303905092915050565b600073ffffffffffffffffffffffffffffffffffffffff16609960009054906101000a900473ffffffffffffffffffffffffffffffffffffffff1673ffffffffffffffffffffffffffffffffffffffff1614614b3657609960009054906101000a900473ffffffffffffffffffffffffffffffffffffffff1673ffffffffffffffffffffffffffffffffffffffff16634d7f3db0858585856040518563ffffffff1660e01b8152600401808573ffffffffffffffffffffffffffffffffffffffff1681526020018481526020018373ffffffffffffffffffffffffffffffffffffffff1681526020018273ffffffffffffffffffffffffffffffffffffffff168152602001945050505050600060405180830381600087803b158015614b1d57600080fd5b505af1158015614b31573d6000803e3d6000fd5b505050505b8173ffffffffffffffffffffffffffffffffffffffff16635d7b075885856040518363ffffffff1660e01b8152600401808373ffffffffffffffffffffffffffffffffffffffff16815260200182815260200192505050600060405180830381600087803b158015614ba757600080fd5b505af1158015614bbb573d6000803e3d6000fd5b5050505050505050565b6000614c4a82614c4584609e60008873ffffffffffffffffffffffffffffffffffffffff1673ffffffffffffffffffffffffffffffffffffffff16815260200190815260200160002060000160009054906101000a90046fffffffffffffffffffffffffffffffff166fffffffffffffffffffffffffffffffff16615705565b616212565b905092915050565b600080614ccf84609e60008873ffffffffffffffffffffffffffffffffffffffff1673ffffffffffffffffffffffffffffffffffffffff16815260200190815260200160002060000160109054906101000a90046fffffffffffffffffffffffffffffffff166fffffffffffffffffffffffffffffffff16615705565b90506000811415614ce4576000915050614cfb565b614cf7818461623990919063ffffffff16565b9150505b9392505050565b6000806000609f60008773ffffffffffffffffffffffffffffffffffffffff1673ffffffffffffffffffffffffffffffffffffffff16815260200190815260200160002060008873ffffffffffffffffffffffffffffffffffffffff1673ffffffffffffffffffffffffffffffffffffffff168152602001908152602001600020905080600001601c9054906101000a900460ff16614da45760009150614e28565b6000614db18888886162c2565b9050614e248787614e1f88614e11868860000160009054906101000a900477ffffffffffffffffffffffffffffffffffffffffffffffff1677ffffffffffffffffffffffffffffffffffffffffffffffff16615b2b90919063ffffffff16565b615b2b90919063ffffffff16565b614e35565b9250505b8192505050949350505050565b600080614eb284609e60008873ffffffffffffffffffffffffffffffffffffffff1673ffffffffffffffffffffffffffffffffffffffff16815260200190815260200160002060000160009054906101000a90046fffffffffffffffffffffffffffffffff166fffffffffffffffffffffffffffffffff16615705565b905080831115614ec0578092505b829150509392505050565b6000609f60008473ffffffffffffffffffffffffffffffffffffffff1673ffffffffffffffffffffffffffffffffffffffff16815260200190815260200160002060008573ffffffffffffffffffffffffffffffffffffffff1673ffffffffffffffffffffffffffffffffffffffff16815260200190815260200160002060000160009054906101000a900477ffffffffffffffffffffffffffffffffffffffffffffffff1677ffffffffffffffffffffffffffffffffffffffffffffffff1690506040518060600160405280614fa1846164b4565b6fffffffffffffffffffffffffffffffff1677ffffffffffffffffffffffffffffffffffffffffffffffff168152602001614fe2614fdd616527565b616531565b63ffffffff16815260200160011515815250609f60008573ffffffffffffffffffffffffffffffffffffffff1673ffffffffffffffffffffffffffffffffffffffff16815260200190815260200160002060008673ffffffffffffffffffffffffffffffffffffffff1673ffffffffffffffffffffffffffffffffffffffff16815260200190815260200160002060008201518160000160006101000a81548177ffffffffffffffffffffffffffffffffffffffffffffffff021916908377ffffffffffffffffffffffffffffffffffffffffffffffff16021790555060208201518160000160186101000a81548163ffffffff021916908363ffffffff160217905550604082015181600001601c6101000a81548160ff0219169083151502179055509050508181101561518d578273ffffffffffffffffffffffffffffffffffffffff168473ffffffffffffffffffffffffffffffffffffffff167f2f92d56910619b38bc29fd8e4ca5e56359edac7a0c086cdcd305fb603fa37491615173848661497590919063ffffffff16565b6040518082815260200191505060405180910390a361520e565b8082101561520d578273ffffffffffffffffffffffffffffffffffffffff168473ffffffffffffffffffffffffffffffffffffffff167ff584c579437bc25785b953cc4d8d247251812751e1871c6130cbdecf95a106cf6151f7858561497590919063ffffffff16565b6040518082815260200191505060405180910390a35b5b50505050565b60008060008473ffffffffffffffffffffffffffffffffffffffff166370a08231876040518263ffffffff1660e01b8152600401808273ffffffffffffffffffffffffffffffffffffffff16815260200191505060206040518083038186803b15801561528057600080fd5b505afa158015615294573d6000803e3d6000fd5b505050506040513d60208110156152aa57600080fd5b8101908080519060200190929190505050905083811015615333576040517f08c379a00000000000000000000000000000000000000000000000000000000081526004018080602001828103825260168152602001807f5072697a65506f6f6c2f696e737566662d66756e64730000000000000000000081525060200191505060405180910390fd5b6153408686836000614754565b600061535e86615359878561497590919063ffffffff16565b614bc5565b9050600081609f60008973ffffffffffffffffffffffffffffffffffffffff1673ffffffffffffffffffffffffffffffffffffffff16815260200190815260200160002060008a73ffffffffffffffffffffffffffffffffffffffff1673ffffffffffffffffffffffffffffffffffffffff16815260200190815260200160002060000160009054906101000a900477ffffffffffffffffffffffffffffffffffffffffffffffff1677ffffffffffffffffffffffffffffffffffffffffffffffff16106154f9576154f682609f60008a73ffffffffffffffffffffffffffffffffffffffff1673ffffffffffffffffffffffffffffffffffffffff16815260200190815260200160002060008b73ffffffffffffffffffffffffffffffffffffffff1673ffffffffffffffffffffffffffffffffffffffff16815260200190815260200160002060000160009054906101000a900477ffffffffffffffffffffffffffffffffffffffffffffffff1677ffffffffffffffffffffffffffffffffffffffffffffffff1661497590919063ffffffff16565b90505b60006155058888614bc5565b90508082116155145781615516565b805b945061552b858261497590919063ffffffff16565b955050505050935093915050565b600073ffffffffffffffffffffffffffffffffffffffff168173ffffffffffffffffffffffffffffffffffffffff1614156155dc576040517f08c379a00000000000000000000000000000000000000000000000000000000081526004018080602001828103825260208152602001807f5072697a65506f6f6c2f7072697a6553747261746567792d6e6f742d7a65726f81525060200191505060405180910390fd5b61560c63ff5e34e760e01b8273ffffffffffffffffffffffffffffffffffffffff1661659890919063ffffffff16565b61567e576040517f08c379a000000000000000000000000000000000000000000000000000000000815260040180806020018281038252601f8152602001807f5072697a65506f6f6c2f7072697a6553747261746567792d696e76616c69640081525060200191505060405180910390fd5b80609960006101000a81548173ffffffffffffffffffffffffffffffffffffffff021916908373ffffffffffffffffffffffffffffffffffffffff1602179055508073ffffffffffffffffffffffffffffffffffffffff167f7f58dc86bc2e435cb77ca0edb1df55e25f90caf2d6bd866971715437d456a21260405160405180910390a250565b60008061571b84846165bd90919063ffffffff16565b9050615738670de0b6b3a76400008261664390919063ffffffff16565b90508091505092915050565b61581c61581782609f60008673ffffffffffffffffffffffffffffffffffffffff1673ffffffffffffffffffffffffffffffffffffffff16815260200190815260200160002060008773ffffffffffffffffffffffffffffffffffffffff1673ffffffffffffffffffffffffffffffffffffffff16815260200190815260200160002060000160009054906101000a900477ffffffffffffffffffffffffffffffffffffffffffffffff1677ffffffffffffffffffffffffffffffffffffffffffffffff1661497590919063ffffffff16565b6164b4565b6fffffffffffffffffffffffffffffffff16609f60008473ffffffffffffffffffffffffffffffffffffffff1673ffffffffffffffffffffffffffffffffffffffff16815260200190815260200160002060008573ffffffffffffffffffffffffffffffffffffffff1673ffffffffffffffffffffffffffffffffffffffff16815260200190815260200160002060000160006101000a81548177ffffffffffffffffffffffffffffffffffffffffffffffff021916908377ffffffffffffffffffffffffffffffffffffffffffffffff1602179055508173ffffffffffffffffffffffffffffffffffffffff168373ffffffffffffffffffffffffffffffffffffffff167ff584c579437bc25785b953cc4d8d247251812751e1871c6130cbdecf95a106cf836040518082815260200191505060405180910390a3505050565b600060a060009054906101000a900473ffffffffffffffffffffffffffffffffffffffff1673ffffffffffffffffffffffffffffffffffffffff1663b99152d0306040518263ffffffff1660e01b8152600401808273ffffffffffffffffffffffffffffffffffffffff168152602001915050602060405180830381600087803b1580156159ea57600080fd5b505af11580156159fe573d6000803e3d6000fd5b505050506040513d6020811015615a1457600080fd5b8101908080519060200190929190505050905090565b600080823b905060008111915050919050565b600080615a48613e97565b9050609c54615a608483615b2b90919063ffffffff16565b1115915050919050565b615b25846323b872dd60e01b858585604051602401808473ffffffffffffffffffffffffffffffffffffffff1681526020018373ffffffffffffffffffffffffffffffffffffffff1681526020018281526020019350505050604051602081830303815290604052907bffffffffffffffffffffffffffffffffffffffffffffffffffffffff19166020820180517bffffffffffffffffffffffffffffffffffffffffffffffffffffffff8381831617835250505050616123565b50505050565b600080828401905083811015615ba9576040517f08c379a000000000000000000000000000000000000000000000000000000000815260040180806020018281038252601b8152602001807f536166654d6174683a206164646974696f6e206f766572666c6f77000000000081525060200191505060405180910390fd5b8091505092915050565b6000811480615c81575060008373ffffffffffffffffffffffffffffffffffffffff1663dd62ed3e30856040518363ffffffff1660e01b8152600401808373ffffffffffffffffffffffffffffffffffffffff1681526020018273ffffffffffffffffffffffffffffffffffffffff1681526020019250505060206040518083038186803b158015615c4457600080fd5b505afa158015615c58573d6000803e3d6000fd5b505050506040513d6020811015615c6e57600080fd5b8101908080519060200190929190505050145b615cd6576040517f08c379a0000000000000000000000000000000000000000000000000000000008152600401808060200182810382526036815260200180616ee96036913960400191505060405180910390fd5b615d738363095ea7b360e01b8484604051602401808373ffffffffffffffffffffffffffffffffffffffff16815260200182815260200192505050604051602081830303815290604052907bffffffffffffffffffffffffffffffffffffffffffffffffffffffff19166020820180517bffffffffffffffffffffffffffffffffffffffffffffffffffffffff8381831617835250505050616123565b505050565b600060019054906101000a900460ff1680615d975750615d96614225565b5b80615dad575060008054906101000a900460ff16155b615e02576040517f08c379a000000000000000000000000000000000000000000000000000000000815260040180806020018281038252602e815260200180616ded602e913960400191505060405180910390fd5b60008060019054906101000a900460ff161590508015615e52576001600060016101000a81548160ff02191690831515021790555060016000806101000a81548160ff0219169083151502179055505b8015615e735760008060016101000a81548160ff0219169083151502179055505b50565b600060019054906101000a900460ff1680615e955750615e94614225565b5b80615eab575060008054906101000a900460ff16155b615f00576040517f08c379a000000000000000000000000000000000000000000000000000000000815260040180806020018281038252602e815260200180616ded602e913960400191505060405180910390fd5b60008060019054906101000a900460ff161590508015615f50576001600060016101000a81548160ff02191690831515021790555060016000806101000a81548160ff0219169083151502179055505b6000615f5a613ffa565b905080603360006101000a81548173ffffffffffffffffffffffffffffffffffffffff021916908373ffffffffffffffffffffffffffffffffffffffff1602179055508073ffffffffffffffffffffffffffffffffffffffff16600073ffffffffffffffffffffffffffffffffffffffff167f8be0079c531659141344cd1fd0a4f28419497f9722a3daafe3b4186f6b6457e060405160405180910390a350801561601a5760008060016101000a81548160ff0219169083151502179055505b50565b600060019054906101000a900460ff168061603c575061603b614225565b5b80616052575060008054906101000a900460ff16155b6160a7576040517f08c379a000000000000000000000000000000000000000000000000000000000815260040180806020018281038252602e815260200180616ded602e913960400191505060405180910390fd5b60008060019054906101000a900460ff1615905080156160f7576001600060016101000a81548160ff02191690831515021790555060016000806101000a81548160ff0219169083151502179055505b600160658190555080156161205760008060016101000a81548160ff0219169083151502179055505b50565b6060616185826040518060400160405280602081526020017f5361666545524332303a206c6f772d6c6576656c2063616c6c206661696c65648152508573ffffffffffffffffffffffffffffffffffffffff1661668d9092919063ffffffff16565b905060008151111561620d578080602001905160208110156161a657600080fd5b810190808051906020019092919050505061620c576040517f08c379a000000000000000000000000000000000000000000000000000000000815260040180806020018281038252602a815260200180616e89602a913960400191505060405180910390fd5b5b505050565b60008061622184609a54615705565b90508083111561622f578092505b8291505092915050565b60008082116162b0576040517f08c379a000000000000000000000000000000000000000000000000000000000815260040180806020018281038252601a8152602001807f536166654d6174683a206469766973696f6e206279207a65726f00000000000081525060200191505060405180910390fd5b8183816162b957fe5b04905092915050565b600080609f60008573ffffffffffffffffffffffffffffffffffffffff1673ffffffffffffffffffffffffffffffffffffffff16815260200190815260200160002060008673ffffffffffffffffffffffffffffffffffffffff1673ffffffffffffffffffffffffffffffffffffffff16815260200190815260200160002060000160189054906101000a900463ffffffff1663ffffffff169050609f60008573ffffffffffffffffffffffffffffffffffffffff1673ffffffffffffffffffffffffffffffffffffffff16815260200190815260200160002060008673ffffffffffffffffffffffffffffffffffffffff1673ffffffffffffffffffffffffffffffffffffffff168152602001908152602001600020600001601c9054906101000a900460ff166163f85760009150506164ad565b600061641482616406616527565b61497590919063ffffffff16565b9050600061649b609e60008873ffffffffffffffffffffffffffffffffffffffff1673ffffffffffffffffffffffffffffffffffffffff16815260200190815260200160002060000160109054906101000a90046fffffffffffffffffffffffffffffffff166fffffffffffffffffffffffffffffffff16836166a590919063ffffffff16565b90506164a78582615705565b93505050505b9392505050565b6000700100000000000000000000000000000000821061651f576040517f08c379a0000000000000000000000000000000000000000000000000000000008152600401808060200182810382526027815260200180616d7e6027913960400191505060405180910390fd5b819050919050565b600060a154905090565b60006401000000008210616590576040517f08c379a0000000000000000000000000000000000000000000000000000000008152600401808060200182810382526026815260200180616e636026913960400191505060405180910390fd5b819050919050565b60006165a38361672b565b80156165b557506165b4838361675f565b5b905092915050565b6000808314156165d0576000905061663d565b60008284029050828482816165e157fe5b0414616638576040517f08c379a0000000000000000000000000000000000000000000000000000000008152600401808060200182810382526021815260200180616e1b6021913960400191505060405180910390fd5b809150505b92915050565b600061668583836040518060400160405280601a81526020017f536166654d6174683a206469766973696f6e206279207a65726f000000000000815250616786565b905092915050565b606061669c848460008561684c565b90509392505050565b6000808314156166b85760009050616725565b60008284029050828482816166c957fe5b0414616720576040517f08c379a0000000000000000000000000000000000000000000000000000000008152600401808060200182810382526021815260200180616e1b6021913960400191505060405180910390fd5b809150505b92915050565b600061673e826301ffc9a760e01b61675f565b801561675857506167568263ffffffff60e01b61675f565b155b9050919050565b600080600061676e85856169f5565b9150915081801561677c5750805b9250505092915050565b60008083118290616832576040517f08c379a00000000000000000000000000000000000000000000000000000000081526004018080602001828103825283818151815260200191508051906020019080838360005b838110156167f75780820151818401526020810190506167dc565b50505050905090810190601f1680156168245780820380516001836020036101000a031916815260200191505b509250505060405180910390fd5b50600083858161683e57fe5b049050809150509392505050565b6060824710156168a7576040517f08c379a0000000000000000000000000000000000000000000000000000000008152600401808060200182810382526026815260200180616dc76026913960400191505060405180910390fd5b6168b085615a2a565b616922576040517f08c379a000000000000000000000000000000000000000000000000000000000815260040180806020018281038252601d8152602001807f416464726573733a2063616c6c20746f206e6f6e2d636f6e747261637400000081525060200191505060405180910390fd5b600060608673ffffffffffffffffffffffffffffffffffffffff1685876040518082805190602001908083835b60208310616972578051825260208201915060208101905060208303925061694f565b6001836020036101000a03801982511681845116808217855250505050505090500191505060006040518083038185875af1925050503d80600081146169d4576040519150601f19603f3d011682016040523d82523d6000602084013e6169d9565b606091505b50915091506169e9828286616b9d565b92505050949350505050565b60008060606301ffc9a760e01b8460405160240180827bffffffffffffffffffffffffffffffffffffffffffffffffffffffff19168152602001915050604051602081830303815290604052907bffffffffffffffffffffffffffffffffffffffffffffffffffffffff19166020820180517bffffffffffffffffffffffffffffffffffffffffffffffffffffffff83818316178352505050509050600060608673ffffffffffffffffffffffffffffffffffffffff16617530846040518082805190602001908083835b60208310616ae35780518252602082019150602081019050602083039250616ac0565b6001836020036101000a0380198251168184511680821785525050505050509050019150506000604051808303818686fa925050503d8060008114616b44576040519150601f19603f3d011682016040523d82523d6000602084013e616b49565b606091505b5091509150602081511015616b675760008094509450505050616b96565b81818060200190516020811015616b7d57600080fd5b8101908080519060200190929190505050945094505050505b9250929050565b60608315616bad57829050616c62565b600083511115616bc05782518084602001fd5b816040517f08c379a00000000000000000000000000000000000000000000000000000000081526004018080602001828103825283818151815260200191508051906020019080838360005b83811015616c27578082015181840152602081019050616c0c565b50505050905090810190601f168015616c545780820380516001836020036101000a031916815260200191505b509250505060405180910390fd5b9392505050565b828054828255906000526020600020908101928215616ce2579160200282015b82811115616ce15782518260006101000a81548173ffffffffffffffffffffffffffffffffffffffff021916908373ffffffffffffffffffffffffffffffffffffffff16021790555091602001919060010190616c89565b5b509050616cef9190616cf3565b5090565b5b80821115616d2a57600081816101000a81549073ffffffffffffffffffffffffffffffffffffffff021916905550600101616cf4565b509056fe5969656c64536f757263655072697a65506f6f6c2f696e76616c69642d7969656c642d736f757263654f776e61626c653a206e6577206f776e657220697320746865207a65726f206164647265737353616665436173743a2076616c756520646f65736e27742066697420696e2031323820626974735072697a65506f6f6c2f7265736572766552656769737472792d6e6f742d7a65726f416464726573733a20696e73756666696369656e742062616c616e636520666f722063616c6c496e697469616c697a61626c653a20636f6e747261637420697320616c726561647920696e697469616c697a6564536166654d6174683a206d756c7469706c69636174696f6e206f766572666c6f775072697a65506f6f6c2f657869742d6665652d657863656564732d757365722d6d6178696d756d53616665436173743a2076616c756520646f65736e27742066697420696e20333220626974735361666545524332303a204552433230206f7065726174696f6e20646964206e6f7420737563636565645969656c64536f757263655072697a65506f6f6c2f7969656c642d736f757263652d6e6f742d636f6e74726163742d616464726573735361666545524332303a20617070726f76652066726f6d206e6f6e2d7a65726f20746f206e6f6e2d7a65726f20616c6c6f77616e6365a264697066735822122000d7f87d7dbe9182fa1bdc80b9a1a5d245ba60889c30d843fc5b219d95c1b96f64736f6c634300060c0033",
  "linkReferences": {},
  "deployedLinkReferences": {}
}