{
  "_format": "hh-sol-artifact-1",
  "contractName": "MappedSinglyLinkedListExposed",
  "sourceName": "contracts/test/MappedSinglyLinkedListExposed.sol",
  "abi": [
    {
      "inputs": [
        {
          "internalType": "address",
          "name": "newAddress",
          "type": "address"
        }
      ],
      "name": "addAddress",
      "outputs": [],
      "stateMutability": "nonpayable",
      "type": "function"
    },
    {
      "inputs": [
        {
          "internalType": "address[]",
          "name": "addresses",
          "type": "address[]"
        }
      ],
      "name": "addAddresses",
      "outputs": [],
      "stateMutability": "nonpayable",
      "type": "function"
    },
    {
      "inputs": [],
      "name": "addressArray",
      "outputs": [
        {
          "internalType": "address[]",
          "name": "",
          "type": "address[]"
        }
      ],
      "stateMutability": "view",
      "type": "function"
    },
    {
      "inputs": [],
      "name": "clearAll",
      "outputs": [],
      "stateMutability": "nonpayable",
      "type": "function"
    },
    {
      "inputs": [
        {
          "internalType": "address",
          "name": "addr",
          "type": "address"
        }
      ],
      "name": "contains",
      "outputs": [
        {
          "internalType": "bool",
          "name": "",
          "type": "bool"
        }
      ],
      "stateMutability": "view",
      "type": "function"
    },
    {
      "inputs": [],
      "name": "initialize",
      "outputs": [],
      "stateMutability": "nonpayable",
      "type": "function"
    },
    {
      "inputs": [
        {
          "internalType": "address",
          "name": "prevAddress",
          "type": "address"
        },
        {
          "internalType": "address",
          "name": "addr",
          "type": "address"
        }
      ],
      "name": "removeAddress",
      "outputs": [],
      "stateMutability": "nonpayable",
      "type": "function"
    }
  ],
  "bytecode": "0x608060405234801561001057600080fd5b50610750806100206000396000f3fe608060405234801561001057600080fd5b506004361061007d5760003560e01c80635dbe47e81161005b5780635dbe47e8146101725780638129fc1c146101ac578063b6fac15a146101b4578063ebb689a1146101e25761007d565b80633628731c1461008257806338eada1c146100f45780633ce3a2d81461011a575b600080fd5b6100f26004803603602081101561009857600080fd5b8101906020810181356401000000008111156100b357600080fd5b8201836020820111156100c557600080fd5b803590602001918460208302840111640100000000831117156100e757600080fd5b5090925090506101ea565b005b6100f26004803603602081101561010a57600080fd5b50356001600160a01b031661022b565b610122610239565b60408051602080825283518183015283519192839290830191858101910280838360005b8381101561015e578181015183820152602001610146565b505050509050019250505060405180910390f35b6101986004803603602081101561018857600080fd5b50356001600160a01b031661024a565b604080519115158252519081900360200190f35b6100f261025c565b6100f2600480360360408110156101ca57600080fd5b506001600160a01b0381358116916020013516610268565b6100f2610274565b61022782828080602002602001604051908101604052809392919081815260200183836020028082843760009201829052509392505061027e9050565b5050565b6102366000826102b4565b50565b606061024560006103c8565b905090565b600061025681836104a8565b92915050565b61026660006104fa565b565b61022760008383610562565b610266600061067e565b60005b81518110156102af576102a78383838151811061029a57fe5b60200260200101516102b4565b600101610281565b505050565b6001600160a01b0381166001148015906102d657506001600160a01b03811615155b610319576040805162461bcd60e51b815260206004820152600f60248201526e496e76616c6964206164647265737360881b604482015290519081900360640190fd5b6001600160a01b0381811660009081526001840160205260409020541615610378576040805162461bcd60e51b815260206004820152600d60248201526c105b1c9958591e481859191959609a1b604482015290519081900360640190fd5b60016000818152838201602052604080822080546001600160a01b039586168085529284208054969091166001600160a01b03199687161790559183905281549093169092179091558154019055565b606080826000015467ffffffffffffffff811180156103e657600080fd5b50604051908082528060200260200182016040528015610410578160200160208202803683370190505b50600160008181529085016020526040812054919250906001600160a01b03165b6001600160a01b0381161580159061045357506001600160a01b038116600114155b1561049f578083838151811061046557fe5b6001600160a01b03928316602091820292909201810191909152918116600090815260018088019093526040902054929091019116610431565b50909392505050565b60006001600160a01b0382166001148015906104cc57506001600160a01b03821615155b80156104f357506001600160a01b0382811660009081526001850160205260409020541615155b9392505050565b80541561053d576040805162461bcd60e51b815260206004820152600c60248201526b105b1c9958591e481a5b9a5d60a21b604482015290519081900360640190fd5b60016000818152918101602052604090912080546001600160a01b0319169091179055565b6001600160a01b03811660011480159061058457506001600160a01b03811615155b6105c7576040805162461bcd60e51b815260206004820152600f60248201526e496e76616c6964206164647265737360881b604482015290519081900360640190fd5b6001600160a01b038281166000908152600185016020526040902054811690821614610630576040805162461bcd60e51b8152602060048201526013602482015272496e76616c696420707265764164647265737360681b604482015290519081900360640190fd5b6001600160a01b039081166000818152600185016020526040808220805495851683529082208054959094166001600160a01b03199586161790935552805490911690558054600019019055565b6001600081815290820160205260409020546001600160a01b03165b6001600160a01b038116158015906106bc57506001600160a01b038116600114155b156106f2576001600160a01b039081166000908152600183016020526040902080546001600160a01b031981169091551661069a565b50600160008181528282016020526040812080546001600160a01b031916909217909155905556fea2646970667358221220e0827826a02f7512f8c34e741e1cff791230c3862a7806061943fe2cb1ba817964736f6c634300060c0033",
  "linkReferences": {},
  "deployedLinkReferences": {}
}