{
  "_format": "hh-sol-artifact-1",
  "contractName": "TokenFaucetHarness",
  "sourceName": "contracts/test/TokenFaucetHarness.sol",
  "abi": [
    {
      "anonymous": false,
      "inputs": [
        {
          "indexed": true,
          "internalType": "address",
          "name": "user",
          "type": "address"
        },
        {
          "indexed": false,
          "internalType": "uint256",
          "name": "newTokens",
          "type": "uint256"
        }
      ],
      "name": "Claimed",
      "type": "event"
    },
    {
      "anonymous": false,
      "inputs": [
        {
          "indexed": true,
          "internalType": "address",
          "name": "user",
          "type": "address"
        },
        {
          "indexed": false,
          "internalType": "uint256",
          "name": "amount",
          "type": "uint256"
        }
      ],
      "name": "Deposited",
      "type": "event"
    },
    {
      "anonymous": false,
      "inputs": [
        {
          "indexed": false,
          "internalType": "uint256",
          "name": "dripRatePerSecond",
          "type": "uint256"
        }
      ],
      "name": "DripRateChanged",
      "type": "event"
    },
    {
      "anonymous": false,
      "inputs": [
        {
          "indexed": false,
          "internalType": "uint256",
          "name": "newTokens",
          "type": "uint256"
        }
      ],
      "name": "Dripped",
      "type": "event"
    },
    {
      "anonymous": false,
      "inputs": [
        {
          "indexed": true,
          "internalType": "contract IERC20Upgradeable",
          "name": "asset",
          "type": "address"
        },
        {
          "indexed": true,
          "internalType": "contract IERC20Upgradeable",
          "name": "measure",
          "type": "address"
        },
        {
          "indexed": false,
          "internalType": "uint256",
          "name": "dripRatePerSecond",
          "type": "uint256"
        }
      ],
      "name": "Initialized",
      "type": "event"
    },
    {
      "anonymous": false,
      "inputs": [
        {
          "indexed": true,
          "internalType": "address",
          "name": "previousOwner",
          "type": "address"
        },
        {
          "indexed": true,
          "internalType": "address",
          "name": "newOwner",
          "type": "address"
        }
      ],
      "name": "OwnershipTransferred",
      "type": "event"
    },
    {
      "anonymous": false,
      "inputs": [
        {
          "indexed": true,
          "internalType": "address",
          "name": "to",
          "type": "address"
        },
        {
          "indexed": false,
          "internalType": "uint256",
          "name": "amount",
          "type": "uint256"
        }
      ],
      "name": "Withdrawn",
      "type": "event"
    },
    {
      "inputs": [],
      "name": "asset",
      "outputs": [
        {
          "internalType": "contract IERC20Upgradeable",
          "name": "",
          "type": "address"
        }
      ],
      "stateMutability": "view",
      "type": "function"
    },
    {
      "inputs": [
        {
          "internalType": "address",
          "name": "to",
          "type": "address"
        },
        {
          "internalType": "uint256",
          "name": "",
          "type": "uint256"
        },
        {
          "internalType": "address",
          "name": "token",
          "type": "address"
        },
        {
          "internalType": "address",
          "name": "",
          "type": "address"
        }
      ],
      "name": "beforeTokenMint",
      "outputs": [],
      "stateMutability": "nonpayable",
      "type": "function"
    },
    {
      "inputs": [
        {
          "internalType": "address",
          "name": "from",
          "type": "address"
        },
        {
          "internalType": "address",
          "name": "to",
          "type": "address"
        },
        {
          "internalType": "uint256",
          "name": "",
          "type": "uint256"
        },
        {
          "internalType": "address",
          "name": "token",
          "type": "address"
        }
      ],
      "name": "beforeTokenTransfer",
      "outputs": [],
      "stateMutability": "nonpayable",
      "type": "function"
    },
    {
      "inputs": [
        {
          "internalType": "address",
          "name": "user",
          "type": "address"
        }
      ],
      "name": "claim",
      "outputs": [
        {
          "internalType": "uint256",
          "name": "",
          "type": "uint256"
        }
      ],
      "stateMutability": "nonpayable",
      "type": "function"
    },
    {
      "inputs": [
        {
          "internalType": "uint256",
          "name": "amount",
          "type": "uint256"
        }
      ],
      "name": "deposit",
      "outputs": [],
      "stateMutability": "nonpayable",
      "type": "function"
    },
    {
      "inputs": [],
      "name": "drip",
      "outputs": [
        {
          "internalType": "uint256",
          "name": "",
          "type": "uint256"
        }
      ],
      "stateMutability": "nonpayable",
      "type": "function"
    },
    {
      "inputs": [],
      "name": "dripRatePerSecond",
      "outputs": [
        {
          "internalType": "uint256",
          "name": "",
          "type": "uint256"
        }
      ],
      "stateMutability": "view",
      "type": "function"
    },
    {
      "inputs": [],
      "name": "exchangeRateMantissa",
      "outputs": [
        {
          "internalType": "uint112",
          "name": "",
          "type": "uint112"
        }
      ],
      "stateMutability": "view",
      "type": "function"
    },
    {
      "inputs": [
        {
          "internalType": "contract IERC20Upgradeable",
          "name": "_asset",
          "type": "address"
        },
        {
          "internalType": "contract IERC20Upgradeable",
          "name": "_measure",
          "type": "address"
        },
        {
          "internalType": "uint256",
          "name": "_dripRatePerSecond",
          "type": "uint256"
        }
      ],
      "name": "initialize",
      "outputs": [],
      "stateMutability": "nonpayable",
      "type": "function"
    },
    {
      "inputs": [],
      "name": "lastDripTimestamp",
      "outputs": [
        {
          "internalType": "uint32",
          "name": "",
          "type": "uint32"
        }
      ],
      "stateMutability": "view",
      "type": "function"
    },
    {
      "inputs": [],
      "name": "measure",
      "outputs": [
        {
          "internalType": "contract IERC20Upgradeable",
          "name": "",
          "type": "address"
        }
      ],
      "stateMutability": "view",
      "type": "function"
    },
    {
      "inputs": [],
      "name": "owner",
      "outputs": [
        {
          "internalType": "address",
          "name": "",
          "type": "address"
        }
      ],
      "stateMutability": "view",
      "type": "function"
    },
    {
      "inputs": [],
      "name": "renounceOwnership",
      "outputs": [],
      "stateMutability": "nonpayable",
      "type": "function"
    },
    {
      "inputs": [
        {
          "internalType": "uint32",
          "name": "_time",
          "type": "uint32"
        }
      ],
      "name": "setCurrentTime",
      "outputs": [],
      "stateMutability": "nonpayable",
      "type": "function"
    },
    {
      "inputs": [
        {
          "internalType": "uint256",
          "name": "_dripRatePerSecond",
          "type": "uint256"
        }
      ],
      "name": "setDripRatePerSecond",
      "outputs": [],
      "stateMutability": "nonpayable",
      "type": "function"
    },
    {
      "inputs": [
        {
          "internalType": "bytes4",
          "name": "interfaceId",
          "type": "bytes4"
        }
      ],
      "name": "supportsInterface",
      "outputs": [
        {
          "internalType": "bool",
          "name": "",
          "type": "bool"
        }
      ],
      "stateMutability": "view",
      "type": "function"
    },
    {
      "inputs": [],
      "name": "totalUnclaimed",
      "outputs": [
        {
          "internalType": "uint112",
          "name": "",
          "type": "uint112"
        }
      ],
      "stateMutability": "view",
      "type": "function"
    },
    {
      "inputs": [
        {
          "internalType": "address",
          "name": "newOwner",
          "type": "address"
        }
      ],
      "name": "transferOwnership",
      "outputs": [],
      "stateMutability": "nonpayable",
      "type": "function"
    },
    {
      "inputs": [
        {
          "internalType": "address",
          "name": "",
          "type": "address"
        }
      ],
      "name": "userStates",
      "outputs": [
        {
          "internalType": "uint128",
          "name": "lastExchangeRateMantissa",
          "type": "uint128"
        },
        {
          "internalType": "uint128",
          "name": "balance",
          "type": "uint128"
        }
      ],
      "stateMutability": "view",
      "type": "function"
    },
    {
      "inputs": [
        {
          "internalType": "address",
          "name": "to",
          "type": "address"
        },
        {
          "internalType": "uint256",
          "name": "amount",
          "type": "uint256"
        }
      ],
      "name": "withdrawTo",
      "outputs": [],
      "stateMutability": "nonpayable",
      "type": "function"
    }
  ],
  "bytecode": "0x608060405234801561001057600080fd5b50612e11806100206000396000f3fe608060405234801561001057600080fd5b506004361061012c5760003560e01c80638da5cb5b116100ad578063ca5baafc11610071578063ca5baafc1461030a578063d9772a2514610326578063e318613e14610344578063efa9a1ad14610362578063f2fde38b146103805761012c565b80638da5cb5b146102785780639f678cca14610296578063b2210957146102b4578063b6b55f25146102d0578063c96f14b8146102ec5761012c565b8063205c2878116100f4578063205c2878146101fc57806338d52e0f146102185780634d7f3db014610236578063644a9e7114610252578063715018a61461026e5761012c565b806301ffc9a7146101315780630ecc535f146101615780631794bb3c14610192578063187f3334146101ae5780631e83409a146101cc575b600080fd5b61014b600480360381019061014691906123d6565b61039c565b6040516101589190612999565b60405180910390f35b61017b60048036038101906101769190612282565b61043c565b604051610189929190612b6c565b60405180910390f35b6101ac60048036038101906101a791906123ff565b610498565b005b6101b66106e9565b6040516101c39190612b95565b60405180910390f35b6101e660048036038101906101e19190612282565b6106ef565b6040516101f39190612b95565b60405180910390f35b6102166004803603810190610211919061230e565b610975565b005b610220610c33565b60405161022d91906129b4565b60405180910390f35b610250600480360381019061024b919061234a565b610c59565b005b61026c600480360381019061026791906124a0565b610cc9565b005b610276610ced565b005b610280610e2a565b60405161028d919061291e565b60405180910390f35b61029e610e54565b6040516102ab9190612b95565b60405180910390f35b6102ce60048036038101906102c991906122ab565b611211565b005b6102ea60048036038101906102e5919061244e565b6112c4565b005b6102f46113d0565b6040516103019190612b51565b60405180910390f35b610324600480360381019061031f919061244e565b6113f0565b005b61032e6114fb565b60405161033b9190612bb0565b60405180910390f35b61034c611511565b6040516103599190612b51565b60405180910390f35b61036a611531565b60405161037791906129b4565b60405180910390f35b61039a60048036038101906103959190612282565b611557565b005b60006301ffc9a760e01b7bffffffffffffffffffffffffffffffffffffffffffffffffffffffff1916827bffffffffffffffffffffffffffffffffffffffffffffffffffffffff19161480610435575063ff5e34e760e01b7bffffffffffffffffffffffffffffffffffffffffffffffffffffffff1916827bffffffffffffffffffffffffffffffffffffffffffffffffffffffff1916145b9050919050565b60696020528060005260406000206000915090508060000160009054906101000a90046fffffffffffffffffffffffffffffffff16908060000160109054906101000a90046fffffffffffffffffffffffffffffffff16905082565b600060019054906101000a900460ff16806104b757506104b6611703565b5b806104cd575060008054906101000a900460ff16155b61050c576040517f08c379a000000000000000000000000000000000000000000000000000000000815260040161050390612a71565b60405180910390fd5b60008060019054906101000a900460ff16159050801561055c576001600060016101000a81548160ff02191690831515021790555060016000806101000a81548160ff0219169083151502179055505b610564611714565b61056c61180c565b6068601c6101000a81548163ffffffff021916908363ffffffff16021790555083606560006101000a81548173ffffffffffffffffffffffffffffffffffffffff021916908373ffffffffffffffffffffffffffffffffffffffff16021790555082606660006101000a81548173ffffffffffffffffffffffffffffffffffffffff021916908373ffffffffffffffffffffffffffffffffffffffff160217905550610617826113f0565b606660009054906101000a900473ffffffffffffffffffffffffffffffffffffffff1673ffffffffffffffffffffffffffffffffffffffff16606560009054906101000a900473ffffffffffffffffffffffffffffffffffffffff1673ffffffffffffffffffffffffffffffffffffffff167f10f27652c1015195ca7e6bc9b4c724cbf18e91c42117d92124703a3f49bb240f6067546040516106ba9190612b95565b60405180910390a380156106e35760008060016101000a81548160ff0219169083151502179055505b50505050565b60675481565b60006106f9610e54565b5061070382611826565b506000606960008473ffffffffffffffffffffffffffffffffffffffff1673ffffffffffffffffffffffffffffffffffffffff16815260200190815260200160002060000160109054906101000a90046fffffffffffffffffffffffffffffffff166fffffffffffffffffffffffffffffffff1690506000606960008573ffffffffffffffffffffffffffffffffffffffff1673ffffffffffffffffffffffffffffffffffffffff16815260200190815260200160002060000160106101000a8154816fffffffffffffffffffffffffffffffff02191690836fffffffffffffffffffffffffffffffff16021790555061083a610835826068600e9054906101000a90046dffffffffffffffffffffffffffff166dffffffffffffffffffffffffffff16611ba490919063ffffffff16565b611bf4565b6068600e6101000a8154816dffffffffffffffffffffffffffff02191690836dffffffffffffffffffffffffffff160217905550606560009054906101000a900473ffffffffffffffffffffffffffffffffffffffff1673ffffffffffffffffffffffffffffffffffffffff1663a9059cbb84836040518363ffffffff1660e01b81526004016108cb929190612970565b602060405180830381600087803b1580156108e557600080fd5b505af11580156108f9573d6000803e3d6000fd5b505050506040513d601f19601f8201168201806040525081019061091d91906123ad565b508273ffffffffffffffffffffffffffffffffffffffff167fd8138f8a3f377c5259ca548e70e4c2de94f129f5a11036a15b69513cba2b426a826040516109649190612b95565b60405180910390a280915050919050565b61097d611c4f565b73ffffffffffffffffffffffffffffffffffffffff1661099b610e2a565b73ffffffffffffffffffffffffffffffffffffffff16146109f1576040517f08c379a00000000000000000000000000000000000000000000000000000000081526004016109e890612ad1565b60405180910390fd5b6109f9610e54565b506000606560009054906101000a900473ffffffffffffffffffffffffffffffffffffffff1673ffffffffffffffffffffffffffffffffffffffff166370a08231306040518263ffffffff1660e01b8152600401610a57919061291e565b60206040518083038186803b158015610a6f57600080fd5b505afa158015610a83573d6000803e3d6000fd5b505050506040513d601f19601f82011682018060405250810190610aa79190612477565b90506000610aea6068600e9054906101000a90046dffffffffffffffffffffffffffff166dffffffffffffffffffffffffffff1683611ba490919063ffffffff16565b905080831115610b2f576040517f08c379a0000000000000000000000000000000000000000000000000000000008152600401610b2690612b31565b60405180910390fd5b606560009054906101000a900473ffffffffffffffffffffffffffffffffffffffff1673ffffffffffffffffffffffffffffffffffffffff1663a9059cbb85856040518363ffffffff1660e01b8152600401610b8c929190612970565b602060405180830381600087803b158015610ba657600080fd5b505af1158015610bba573d6000803e3d6000fd5b505050506040513d601f19601f82011682018060405250810190610bde91906123ad565b508373ffffffffffffffffffffffffffffffffffffffff167f7084f5476618d8e60b11ef0d7d3f06914655adb8793e28ff7f018d4c76d505d584604051610c259190612b95565b60405180910390a250505050565b606560009054906101000a900473ffffffffffffffffffffffffffffffffffffffff1681565b606660009054906101000a900473ffffffffffffffffffffffffffffffffffffffff1673ffffffffffffffffffffffffffffffffffffffff168273ffffffffffffffffffffffffffffffffffffffff161415610cc357610cb7610e54565b50610cc184611826565b505b50505050565b80606a60006101000a81548163ffffffff021916908363ffffffff16021790555050565b610cf5611c4f565b73ffffffffffffffffffffffffffffffffffffffff16610d13610e2a565b73ffffffffffffffffffffffffffffffffffffffff1614610d69576040517f08c379a0000000000000000000000000000000000000000000000000000000008152600401610d6090612ad1565b60405180910390fd5b600073ffffffffffffffffffffffffffffffffffffffff16603360009054906101000a900473ffffffffffffffffffffffffffffffffffffffff1673ffffffffffffffffffffffffffffffffffffffff167f8be0079c531659141344cd1fd0a4f28419497f9722a3daafe3b4186f6b6457e060405160405180910390a36000603360006101000a81548173ffffffffffffffffffffffffffffffffffffffff021916908373ffffffffffffffffffffffffffffffffffffffff160217905550565b6000603360009054906101000a900473ffffffffffffffffffffffffffffffffffffffff16905090565b600080610e5f61180c565b63ffffffff1690508063ffffffff166068601c9054906101000a900463ffffffff1663ffffffff161415610e9757600091505061120e565b6000606560009054906101000a900473ffffffffffffffffffffffffffffffffffffffff1673ffffffffffffffffffffffffffffffffffffffff166370a08231306040518263ffffffff1660e01b8152600401610ef4919061291e565b60206040518083038186803b158015610f0c57600080fd5b505afa158015610f20573d6000803e3d6000fd5b505050506040513d601f19601f82011682018060405250810190610f449190612477565b90506000610f876068600e9054906101000a90046dffffffffffffffffffffffffffff166dffffffffffffffffffffffffffff1683611ba490919063ffffffff16565b90506000610fb66068601c9054906101000a900463ffffffff1663ffffffff1685611ba490919063ffffffff16565b90506000606860009054906101000a90046dffffffffffffffffffffffffffff166dffffffffffffffffffffffffffff169050600080606660009054906101000a900473ffffffffffffffffffffffffffffffffffffffff1673ffffffffffffffffffffffffffffffffffffffff166318160ddd6040518163ffffffff1660e01b815260040160206040518083038186803b15801561105457600080fd5b505afa158015611068573d6000803e3d6000fd5b505050506040513d601f19601f8201168201806040525081019061108c9190612477565b905060008111801561109e5750600085115b15611122576110b860675485611c5790919063ffffffff16565b9150848211156110c6578491505b60006110d28383611cc7565b90506110e78185611d0690919063ffffffff16565b93507f7de59a92c9386255180c28ede4b61edb9b7b2ac96855ac634151489cef21bad6836040516111189190612b95565b60405180910390a1505b61112b83611bf4565b606860006101000a8154816dffffffffffffffffffffffffffff02191690836dffffffffffffffffffffffffffff1602179055506111a66111a1836068600e9054906101000a90046dffffffffffffffffffffffffffff166dffffffffffffffffffffffffffff16611d0690919063ffffffff16565b611bf4565b6068600e6101000a8154816dffffffffffffffffffffffffffff02191690836dffffffffffffffffffffffffffff1602179055506111e387611d5b565b6068601c6101000a81548163ffffffff021916908363ffffffff160217905550819750505050505050505b90565b606660009054906101000a900473ffffffffffffffffffffffffffffffffffffffff1673ffffffffffffffffffffffffffffffffffffffff168173ffffffffffffffffffffffffffffffffffffffff1614801561129b5750600073ffffffffffffffffffffffffffffffffffffffff168473ffffffffffffffffffffffffffffffffffffffff1614155b156112be576112a8610e54565b506112b283611826565b506112bc84611826565b505b50505050565b6112cc610e54565b50606560009054906101000a900473ffffffffffffffffffffffffffffffffffffffff1673ffffffffffffffffffffffffffffffffffffffff166323b872dd3330846040518463ffffffff1660e01b815260040161132c93929190612939565b602060405180830381600087803b15801561134657600080fd5b505af115801561135a573d6000803e3d6000fd5b505050506040513d601f19601f8201168201806040525081019061137e91906123ad565b503373ffffffffffffffffffffffffffffffffffffffff167f2da466a7b24304f47e87fa2e1e5a81b9831ce54fec19055ce277ca2f39ba42c4826040516113c59190612b95565b60405180910390a250565b6068600e9054906101000a90046dffffffffffffffffffffffffffff1681565b6113f8611c4f565b73ffffffffffffffffffffffffffffffffffffffff16611416610e2a565b73ffffffffffffffffffffffffffffffffffffffff161461146c576040517f08c379a000000000000000000000000000000000000000000000000000000000815260040161146390612ad1565b60405180910390fd5b600081116114af576040517f08c379a00000000000000000000000000000000000000000000000000000000081526004016114a690612ab1565b60405180910390fd5b6114b7610e54565b50806067819055507f3d38e7cd2e029035006f9977a727c8724cd41dffb6d2a40d9f66bd4c26836a326067546040516114f09190612b95565b60405180910390a150565b6068601c9054906101000a900463ffffffff1681565b606860009054906101000a90046dffffffffffffffffffffffffffff1681565b606660009054906101000a900473ffffffffffffffffffffffffffffffffffffffff1681565b61155f611c4f565b73ffffffffffffffffffffffffffffffffffffffff1661157d610e2a565b73ffffffffffffffffffffffffffffffffffffffff16146115d3576040517f08c379a00000000000000000000000000000000000000000000000000000000081526004016115ca90612ad1565b60405180910390fd5b600073ffffffffffffffffffffffffffffffffffffffff168173ffffffffffffffffffffffffffffffffffffffff161415611643576040517f08c379a000000000000000000000000000000000000000000000000000000000815260040161163a906129f1565b60405180910390fd5b8073ffffffffffffffffffffffffffffffffffffffff16603360009054906101000a900473ffffffffffffffffffffffffffffffffffffffff1673ffffffffffffffffffffffffffffffffffffffff167f8be0079c531659141344cd1fd0a4f28419497f9722a3daafe3b4186f6b6457e060405160405180910390a380603360006101000a81548173ffffffffffffffffffffffffffffffffffffffff021916908373ffffffffffffffffffffffffffffffffffffffff16021790555050565b600061170e30611dac565b15905090565b600060019054906101000a900460ff16806117335750611732611703565b5b80611749575060008054906101000a900460ff16155b611788576040517f08c379a000000000000000000000000000000000000000000000000000000000815260040161177f90612a71565b60405180910390fd5b60008060019054906101000a900460ff1615905080156117d8576001600060016101000a81548160ff02191690831515021790555060016000806101000a81548160ff0219169083151502179055505b6117e0611dbf565b6117e8611ea7565b80156118095760008060016101000a81548160ff0219169083151502179055505b50565b6000606a60009054906101000a900463ffffffff16905090565b600080606960008473ffffffffffffffffffffffffffffffffffffffff1673ffffffffffffffffffffffffffffffffffffffff16815260200190815260200160002090508060000160009054906101000a90046fffffffffffffffffffffffffffffffff166fffffffffffffffffffffffffffffffff16606860009054906101000a90046dffffffffffffffffffffffffffff166dffffffffffffffffffffffffffff1614156118da576000915050611b9f565b600061194d8260000160009054906101000a90046fffffffffffffffffffffffffffffffff166fffffffffffffffffffffffffffffffff16606860009054906101000a90046dffffffffffffffffffffffffffff166dffffffffffffffffffffffffffff16611ba490919063ffffffff16565b90506000606660009054906101000a900473ffffffffffffffffffffffffffffffffffffffff1673ffffffffffffffffffffffffffffffffffffffff166370a08231866040518263ffffffff1660e01b81526004016119ac919061291e565b60206040518083038186803b1580156119c457600080fd5b505afa1580156119d8573d6000803e3d6000fd5b505050506040513d601f19601f820116820180604052508101906119fc9190612477565b90506000611a12611a0d8385612038565b612077565b90506040518060400160405280606860009054906101000a90046dffffffffffffffffffffffffffff166dffffffffffffffffffffffffffff166fffffffffffffffffffffffffffffffff168152602001611ac2611abd846fffffffffffffffffffffffffffffffff168860000160109054906101000a90046fffffffffffffffffffffffffffffffff166fffffffffffffffffffffffffffffffff16611d0690919063ffffffff16565b612077565b6fffffffffffffffffffffffffffffffff16815250606960008873ffffffffffffffffffffffffffffffffffffffff1673ffffffffffffffffffffffffffffffffffffffff16815260200190815260200160002060008201518160000160006101000a8154816fffffffffffffffffffffffffffffffff02191690836fffffffffffffffffffffffffffffffff16021790555060208201518160000160106101000a8154816fffffffffffffffffffffffffffffffff02191690836fffffffffffffffffffffffffffffffff160217905550905050809450505050505b919050565b600082821115611be9576040517f08c379a0000000000000000000000000000000000000000000000000000000008152600401611be090612a51565b60405180910390fd5b818303905092915050565b60006e0100000000000000000000000000008210611c47576040517f08c379a0000000000000000000000000000000000000000000000000000000008152600401611c3e90612af1565b60405180910390fd5b819050919050565b600033905090565b600080831415611c6a5760009050611cc1565b6000828402905082848281611c7b57fe5b0414611cbc576040517f08c379a0000000000000000000000000000000000000000000000000000000008152600401611cb390612a91565b60405180910390fd5b809150505b92915050565b600080611ce5670de0b6b3a7640000856120d490919063ffffffff16565b9050611cfa838261214490919063ffffffff16565b90508091505092915050565b600080828401905083811015611d51576040517f08c379a0000000000000000000000000000000000000000000000000000000008152600401611d4890612a11565b60405180910390fd5b8091505092915050565b60006401000000008210611da4576040517f08c379a0000000000000000000000000000000000000000000000000000000008152600401611d9b90612b11565b60405180910390fd5b819050919050565b600080823b905060008111915050919050565b600060019054906101000a900460ff1680611dde5750611ddd611703565b5b80611df4575060008054906101000a900460ff16155b611e33576040517f08c379a0000000000000000000000000000000000000000000000000000000008152600401611e2a90612a71565b60405180910390fd5b60008060019054906101000a900460ff161590508015611e83576001600060016101000a81548160ff02191690831515021790555060016000806101000a81548160ff0219169083151502179055505b8015611ea45760008060016101000a81548160ff0219169083151502179055505b50565b600060019054906101000a900460ff1680611ec65750611ec5611703565b5b80611edc575060008054906101000a900460ff16155b611f1b576040517f08c379a0000000000000000000000000000000000000000000000000000000008152600401611f1290612a71565b60405180910390fd5b60008060019054906101000a900460ff161590508015611f6b576001600060016101000a81548160ff02191690831515021790555060016000806101000a81548160ff0219169083151502179055505b6000611f75611c4f565b905080603360006101000a81548173ffffffffffffffffffffffffffffffffffffffff021916908373ffffffffffffffffffffffffffffffffffffffff1602179055508073ffffffffffffffffffffffffffffffffffffffff16600073ffffffffffffffffffffffffffffffffffffffff167f8be0079c531659141344cd1fd0a4f28419497f9722a3daafe3b4186f6b6457e060405160405180910390a35080156120355760008060016101000a81548160ff0219169083151502179055505b50565b60008061204e84846120d490919063ffffffff16565b905061206b670de0b6b3a76400008261214490919063ffffffff16565b90508091505092915050565b600070010000000000000000000000000000000082106120cc576040517f08c379a00000000000000000000000000000000000000000000000000000000081526004016120c390612a31565b60405180910390fd5b819050919050565b6000808314156120e7576000905061213e565b60008284029050828482816120f857fe5b0414612139576040517f08c379a000000000000000000000000000000000000000000000000000000000815260040161213090612a91565b60405180910390fd5b809150505b92915050565b600061218683836040518060400160405280601a81526020017f536166654d6174683a206469766973696f6e206279207a65726f00000000000081525061218e565b905092915050565b600080831182906121d5576040517f08c379a00000000000000000000000000000000000000000000000000000000081526004016121cc91906129cf565b60405180910390fd5b5060008385816121e157fe5b049050809150509392505050565b6000813590506121fe81612d51565b92915050565b60008151905061221381612d68565b92915050565b60008135905061222881612d7f565b92915050565b60008135905061223d81612d96565b92915050565b60008135905061225281612dad565b92915050565b60008151905061226781612dad565b92915050565b60008135905061227c81612dc4565b92915050565b60006020828403121561229457600080fd5b60006122a2848285016121ef565b91505092915050565b600080600080608085870312156122c157600080fd5b60006122cf878288016121ef565b94505060206122e0878288016121ef565b93505060406122f187828801612243565b9250506060612302878288016121ef565b91505092959194509250565b6000806040838503121561232157600080fd5b600061232f858286016121ef565b925050602061234085828601612243565b9150509250929050565b6000806000806080858703121561236057600080fd5b600061236e878288016121ef565b945050602061237f87828801612243565b9350506040612390878288016121ef565b92505060606123a1878288016121ef565b91505092959194509250565b6000602082840312156123bf57600080fd5b60006123cd84828501612204565b91505092915050565b6000602082840312156123e857600080fd5b60006123f684828501612219565b91505092915050565b60008060006060848603121561241457600080fd5b60006124228682870161222e565b93505060206124338682870161222e565b925050604061244486828701612243565b9150509250925092565b60006020828403121561246057600080fd5b600061246e84828501612243565b91505092915050565b60006020828403121561248957600080fd5b600061249784828501612258565b91505092915050565b6000602082840312156124b257600080fd5b60006124c08482850161226d565b91505092915050565b6124d281612cb3565b82525050565b6124e181612be7565b82525050565b6124f081612bf9565b82525050565b6124ff81612cc5565b82525050565b600061251082612bcb565b61251a8185612bd6565b935061252a818560208601612d0d565b61253381612d40565b840191505092915050565b600061254b602683612bd6565b91507f4f776e61626c653a206e6577206f776e657220697320746865207a65726f206160008301527f64647265737300000000000000000000000000000000000000000000000000006020830152604082019050919050565b60006125b1601b83612bd6565b91507f536166654d6174683a206164646974696f6e206f766572666c6f7700000000006000830152602082019050919050565b60006125f1602783612bd6565b91507f53616665436173743a2076616c756520646f65736e27742066697420696e203160008301527f32382062697473000000000000000000000000000000000000000000000000006020830152604082019050919050565b6000612657601e83612bd6565b91507f536166654d6174683a207375627472616374696f6e206f766572666c6f7700006000830152602082019050919050565b6000612697602e83612bd6565b91507f496e697469616c697a61626c653a20636f6e747261637420697320616c72656160008301527f647920696e697469616c697a65640000000000000000000000000000000000006020830152604082019050919050565b60006126fd602183612bd6565b91507f536166654d6174683a206d756c7469706c69636174696f6e206f766572666c6f60008301527f77000000000000000000000000000000000000000000000000000000000000006020830152604082019050919050565b6000612763601c83612bd6565b91507f546f6b656e4661756365742f64726970526174652d67742d7a65726f000000006000830152602082019050919050565b60006127a3602083612bd6565b91507f4f776e61626c653a2063616c6c6572206973206e6f7420746865206f776e65726000830152602082019050919050565b60006127e3602983612bd6565b91507f53616665436173743a2076616c756520646f65736e27742066697420696e206160008301527f6e2075696e7431313200000000000000000000000000000000000000000000006020830152604082019050919050565b6000612849602683612bd6565b91507f53616665436173743a2076616c756520646f65736e27742066697420696e203360008301527f32206269747300000000000000000000000000000000000000000000000000006020830152604082019050919050565b60006128af601e83612bd6565b91507f546f6b656e4661756365742f696e73756666696369656e742d66756e647300006000830152602082019050919050565b6128eb81612c43565b82525050565b6128fa81612c5d565b82525050565b61290981612c99565b82525050565b61291881612ca3565b82525050565b600060208201905061293360008301846124d8565b92915050565b600060608201905061294e60008301866124c9565b61295b60208301856124d8565b6129686040830184612900565b949350505050565b600060408201905061298560008301856124d8565b6129926020830184612900565b9392505050565b60006020820190506129ae60008301846124e7565b92915050565b60006020820190506129c960008301846124f6565b92915050565b600060208201905081810360008301526129e98184612505565b905092915050565b60006020820190508181036000830152612a0a8161253e565b9050919050565b60006020820190508181036000830152612a2a816125a4565b9050919050565b60006020820190508181036000830152612a4a816125e4565b9050919050565b60006020820190508181036000830152612a6a8161264a565b9050919050565b60006020820190508181036000830152612a8a8161268a565b9050919050565b60006020820190508181036000830152612aaa816126f0565b9050919050565b60006020820190508181036000830152612aca81612756565b9050919050565b60006020820190508181036000830152612aea81612796565b9050919050565b60006020820190508181036000830152612b0a816127d6565b9050919050565b60006020820190508181036000830152612b2a8161283c565b9050919050565b60006020820190508181036000830152612b4a816128a2565b9050919050565b6000602082019050612b6660008301846128e2565b92915050565b6000604082019050612b8160008301856128f1565b612b8e60208301846128f1565b9392505050565b6000602082019050612baa6000830184612900565b92915050565b6000602082019050612bc5600083018461290f565b92915050565b600081519050919050565b600082825260208201905092915050565b6000612bf282612c79565b9050919050565b60008115159050919050565b60007fffffffff0000000000000000000000000000000000000000000000000000000082169050919050565b6000612c3c82612be7565b9050919050565b60006dffffffffffffffffffffffffffff82169050919050565b60006fffffffffffffffffffffffffffffffff82169050919050565b600073ffffffffffffffffffffffffffffffffffffffff82169050919050565b6000819050919050565b600063ffffffff82169050919050565b6000612cbe82612ce9565b9050919050565b6000612cd082612cd7565b9050919050565b6000612ce282612c79565b9050919050565b6000612cf482612cfb565b9050919050565b6000612d0682612c79565b9050919050565b60005b83811015612d2b578082015181840152602081019050612d10565b83811115612d3a576000848401525b50505050565b6000601f19601f8301169050919050565b612d5a81612be7565b8114612d6557600080fd5b50565b612d7181612bf9565b8114612d7c57600080fd5b50565b612d8881612c05565b8114612d9357600080fd5b50565b612d9f81612c31565b8114612daa57600080fd5b50565b612db681612c99565b8114612dc157600080fd5b50565b612dcd81612ca3565b8114612dd857600080fd5b5056fea26469706673582212205b81cf6259458ab5d145bf579bce40af2731cc356cf632243c3047fd67444bc664736f6c634300060c0033",
  "linkReferences": {},
  "deployedLinkReferences": {}
}