{
  "_format": "hh-sol-artifact-1",
  "contractName": "ERC1820ImplementerMock",
  "sourceName": "contracts/test/ERC1820ImplementerMock.sol",
  "abi": [
    {
      "inputs": [],
      "stateMutability": "nonpayable",
      "type": "constructor"
    },
    {
      "inputs": [
        {
          "internalType": "bytes32",
          "name": "",
          "type": "bytes32"
        },
        {
          "internalType": "address",
          "name": "",
          "type": "address"
        }
      ],
      "name": "canImplementInterfaceForAddress",
      "outputs": [
        {
          "internalType": "bytes32",
          "name": "",
          "type": "bytes32"
        }
      ],
      "stateMutability": "view",
      "type": "function"
    },
    {
      "inputs": [
        {
          "internalType": "address",
          "name": "operator",
          "type": "address"
        },
        {
          "internalType": "address",
          "name": "from",
          "type": "address"
        },
        {
          "internalType": "address",
          "name": "to",
          "type": "address"
        },
        {
          "internalType": "uint256",
          "name": "amount",
          "type": "uint256"
        },
        {
          "internalType": "bytes",
          "name": "userData",
          "type": "bytes"
        },
        {
          "internalType": "bytes",
          "name": "operatorData",
          "type": "bytes"
        }
      ],
      "name": "tokensReceived",
      "outputs": [],
      "stateMutability": "nonpayable",
      "type": "function"
    }
  ],
  "bytecode": "0x608060405234801561001057600080fd5b50604080516329965a1d60e01b815230600482018190527fb281fc8c12954d22544db45de3159a39272895b169a852b314f9cc762e44c53b602483015260448201529051731820a4b7618bde71dce8cdc73aab6c95905fad24916329965a1d91606480830192600092919082900301818387803b15801561009057600080fd5b505af11580156100a4573d6000803e3d6000fd5b505050506101cb806100b76000396000f3fe608060405234801561001057600080fd5b50600436106100355760003560e01c806223de291461003a578063249cb3fa14610126575b600080fd5b610124600480360360c081101561005057600080fd5b6001600160a01b03823581169260208101358216926040820135909216916060820135919081019060a08101608082013564010000000081111561009357600080fd5b8201836020820111156100a557600080fd5b803590602001918460018302840111640100000000831117156100c757600080fd5b9193909290916020810190356401000000008111156100e557600080fd5b8201836020820111156100f757600080fd5b8035906020019184600183028401116401000000008311171561011957600080fd5b509092509050610164565b005b6101526004803603604081101561013c57600080fd5b50803590602001356001600160a01b031661016e565b60408051918252519081900360200190f35b5050505050505050565b7fa2ef4600d742022d532d4747cb3547474667d6f13804902513b2ec01c848f4b49291505056fea2646970667358221220443e7cc7cdb43ca00bbe166fe0327f9c853f8a0eea4227b624fdc3c7ac7178b264736f6c634300060c0033",
  "linkReferences": {},
  "deployedLinkReferences": {}
}