{
  "_format": "hh-sol-artifact-1",
  "contractName": "ERC1820ImplementerMock",
  "sourceName": "contracts/test/ERC1820ImplementerMock.sol",
  "abi": [
    {
      "inputs": [],
      "stateMutability": "nonpayable",
      "type": "constructor"
    },
    {
      "inputs": [
        {
          "internalType": "bytes32",
          "name": "",
          "type": "bytes32"
        },
        {
          "internalType": "address",
          "name": "",
          "type": "address"
        }
      ],
      "name": "canImplementInterfaceForAddress",
      "outputs": [
        {
          "internalType": "bytes32",
          "name": "",
          "type": "bytes32"
        }
      ],
      "stateMutability": "view",
      "type": "function"
    },
    {
      "inputs": [
        {
          "internalType": "address",
          "name": "operator",
          "type": "address"
        },
        {
          "internalType": "address",
          "name": "from",
          "type": "address"
        },
        {
          "internalType": "address",
          "name": "to",
          "type": "address"
        },
        {
          "internalType": "uint256",
          "name": "amount",
          "type": "uint256"
        },
        {
          "internalType": "bytes",
          "name": "userData",
          "type": "bytes"
        },
        {
          "internalType": "bytes",
          "name": "operatorData",
          "type": "bytes"
        }
      ],
      "name": "tokensReceived",
      "outputs": [],
      "stateMutability": "nonpayable",
      "type": "function"
    }
  ],
  "bytecode": "0x608060405234801561001057600080fd5b50731820a4b7618bde71dce8cdc73aab6c95905fad2473ffffffffffffffffffffffffffffffffffffffff166329965a1d307fb281fc8c12954d22544db45de3159a39272895b169a852b314f9cc762e44c53b60001b306040518463ffffffff1660e01b8152600401808473ffffffffffffffffffffffffffffffffffffffff1681526020018381526020018273ffffffffffffffffffffffffffffffffffffffff1681526020019350505050600060405180830381600087803b1580156100d757600080fd5b505af11580156100eb573d6000803e3d6000fd5b50505050610242806100fe6000396000f3fe608060405234801561001057600080fd5b50600436106100355760003560e01c806223de291461003a578063249cb3fa14610172575b600080fd5b610170600480360360c081101561005057600080fd5b81019080803573ffffffffffffffffffffffffffffffffffffffff169060200190929190803573ffffffffffffffffffffffffffffffffffffffff169060200190929190803573ffffffffffffffffffffffffffffffffffffffff16906020019092919080359060200190929190803590602001906401000000008111156100d757600080fd5b8201836020820111156100e957600080fd5b8035906020019184600183028401116401000000008311171561010b57600080fd5b90919293919293908035906020019064010000000081111561012c57600080fd5b82018360208201111561013e57600080fd5b8035906020019184600183028401116401000000008311171561016057600080fd5b90919293919293905050506101d4565b005b6101be6004803603604081101561018857600080fd5b8101908080359060200190929190803573ffffffffffffffffffffffffffffffffffffffff1690602001909291905050506101de565b6040518082815260200191505060405180910390f35b5050505050505050565b60007fa2ef4600d742022d532d4747cb3547474667d6f13804902513b2ec01c848f4b460001b90509291505056fea264697066735822122027cc4bb60b7f2f9aad8ae3b2a38c4113ac35ff94031fe592c99ce1fa44a48d4464736f6c634300060c0033",
  "linkReferences": {},
  "deployedLinkReferences": {}
}