{
  "_format": "hh-sol-artifact-1",
  "contractName": "TicketProxyFactory",
  "sourceName": "contracts/token/TicketProxyFactory.sol",
  "abi": [
    {
      "inputs": [],
      "stateMutability": "nonpayable",
      "type": "constructor"
    },
    {
      "anonymous": false,
      "inputs": [
        {
          "indexed": false,
          "internalType": "address",
          "name": "proxy",
          "type": "address"
        }
      ],
      "name": "ProxyCreated",
      "type": "event"
    },
    {
      "inputs": [],
      "name": "create",
      "outputs": [
        {
          "internalType": "contract Ticket",
          "name": "",
          "type": "address"
        }
      ],
      "stateMutability": "nonpayable",
      "type": "function"
    },
    {
      "inputs": [
        {
          "internalType": "address",
          "name": "_logic",
          "type": "address"
        },
        {
          "internalType": "bytes",
          "name": "_data",
          "type": "bytes"
        }
      ],
      "name": "deployMinimal",
      "outputs": [
        {
          "internalType": "address",
          "name": "proxy",
          "type": "address"
        }
      ],
      "stateMutability": "nonpayable",
      "type": "function"
    },
    {
      "inputs": [],
      "name": "instance",
      "outputs": [
        {
          "internalType": "contract Ticket",
          "name": "",
          "type": "address"
        }
      ],
      "stateMutability": "view",
      "type": "function"
    }
  ],
  "bytecode": "0x608060405234801561001057600080fd5b5060405161001d9061007e565b604051809103906000f080158015610039573d6000803e3d6000fd5b506000806101000a81548173ffffffffffffffffffffffffffffffffffffffff021916908373ffffffffffffffffffffffffffffffffffffffff16021790555061008b565b613e90806104dc83390190565b6104428061009a6000396000f3fe608060405234801561001057600080fd5b50600436106100415760003560e01c8063022ec09514610046578063b3eeb5e21461007a578063efc81a8c1461017f575b600080fd5b61004e6101b3565b604051808273ffffffffffffffffffffffffffffffffffffffff16815260200191505060405180910390f35b6101536004803603604081101561009057600080fd5b81019080803573ffffffffffffffffffffffffffffffffffffffff169060200190929190803590602001906401000000008111156100cd57600080fd5b8201836020820111156100df57600080fd5b8035906020019184600183028401116401000000008311171561010157600080fd5b91908080601f016020809104026020016040519081016040528093929190818152602001838380828437600081840152601f19601f8201169050808301925050505050505091929192905050506101d7565b604051808273ffffffffffffffffffffffffffffffffffffffff16815260200191505060405180910390f35b6101876103a8565b604051808273ffffffffffffffffffffffffffffffffffffffff16815260200191505060405180910390f35b60008054906101000a900473ffffffffffffffffffffffffffffffffffffffff1681565b6000808360601b90506040517f3d602d80600a3d3981f3363d3d373d3d3d363d7300000000000000000000000081528160148201527f5af43d82803e903d91602b57fd5bf3000000000000000000000000000000000060288201526037816000f09250507efffc2da0b561cae30d9826d37709e9421c4725faebc226cbbb7ef5fc5e734982604051808273ffffffffffffffffffffffffffffffffffffffff16815260200191505060405180910390a16000835111156103a15760008273ffffffffffffffffffffffffffffffffffffffff16846040518082805190602001908083835b602083106102de57805182526020820191506020810190506020830392506102bb565b6001836020036101000a0380198251168184511680821785525050505050509050019150506000604051808303816000865af19150503d8060008114610340576040519150601f19603f3d011682016040523d82523d6000602084013e610345565b606091505b505090508061039f576040517f08c379a00000000000000000000000000000000000000000000000000000000081526004018080602001828103825260248152602001806103e96024913960400191505060405180910390fd5b505b5092915050565b60006103e360008054906101000a900473ffffffffffffffffffffffffffffffffffffffff16604051806020016040528060008152506101d7565b90509056fe50726f7879466163746f72792f636f6e7374727563746f722d63616c6c2d6661696c6564a26469706673582212205c43dc19a72b471768fb73273253bd6a639483a12fa669d770cb089290a088f064736f6c634300060c0033608060405234801561001057600080fd5b50613e70806100206000396000f3fe608060405234801561001057600080fd5b50600436106101375760003560e01c806370a08231116100b8578063a457c2d71161007c578063a457c2d714610655578063a9059cbb146106b9578063d505accf1461071d578063dd62ed3e146107b6578063de7ea79d1461082e578063f77c4791146109ad57610137565b806370a082311461047c5780637ecebe00146104d4578063885d194d1461052c57806390596dd11461058457806395d89b41146105d257610137565b80633644e515116100ff5780633644e515146102e657806339509351146103045780633b304147146103685780635d7b0758146103c0578063631b5dfb1461040e57610137565b806306fdde031461013c578063095ea7b3146101bf57806318160ddd1461022357806323b872dd14610241578063313ce567146102c5575b600080fd5b6101446109e1565b6040518080602001828103825283818151815260200191508051906020019080838360005b83811015610184578082015181840152602081019050610169565b50505050905090810190601f1680156101b15780820380516001836020036101000a031916815260200191505b509250505060405180910390f35b61020b600480360360408110156101d557600080fd5b81019080803573ffffffffffffffffffffffffffffffffffffffff16906020019092919080359060200190929190505050610a83565b60405180821515815260200191505060405180910390f35b61022b610aa1565b6040518082815260200191505060405180910390f35b6102ad6004803603606081101561025757600080fd5b81019080803573ffffffffffffffffffffffffffffffffffffffff169060200190929190803573ffffffffffffffffffffffffffffffffffffffff16906020019092919080359060200190929190505050610aab565b60405180821515815260200191505060405180910390f35b6102cd610b84565b604051808260ff16815260200191505060405180910390f35b6102ee610b9b565b6040518082815260200191505060405180910390f35b6103506004803603604081101561031a57600080fd5b81019080803573ffffffffffffffffffffffffffffffffffffffff16906020019092919080359060200190929190505050610baa565b60405180821515815260200191505060405180910390f35b6103946004803603602081101561037e57600080fd5b8101908080359060200190929190505050610c5d565b604051808273ffffffffffffffffffffffffffffffffffffffff16815260200191505060405180910390f35b61040c600480360360408110156103d657600080fd5b81019080803573ffffffffffffffffffffffffffffffffffffffff16906020019092919080359060200190929190505050610cd2565b005b61047a6004803603606081101561042457600080fd5b81019080803573ffffffffffffffffffffffffffffffffffffffff169060200190929190803573ffffffffffffffffffffffffffffffffffffffff16906020019092919080359060200190929190505050610daa565b005b6104be6004803603602081101561049257600080fd5b81019080803573ffffffffffffffffffffffffffffffffffffffff169060200190929190505050610efd565b6040518082815260200191505060405180910390f35b610516600480360360208110156104ea57600080fd5b81019080803573ffffffffffffffffffffffffffffffffffffffff169060200190929190505050610f46565b6040518082815260200191505060405180910390f35b61056e6004803603602081101561054257600080fd5b81019080803573ffffffffffffffffffffffffffffffffffffffff169060200190929190505050610f96565b6040518082815260200191505060405180910390f35b6105d06004803603604081101561059a57600080fd5b81019080803573ffffffffffffffffffffffffffffffffffffffff16906020019092919080359060200190929190505050610fee565b005b6105da6110c6565b6040518080602001828103825283818151815260200191508051906020019080838360005b8381101561061a5780820151818401526020810190506105ff565b50505050905090810190601f1680156106475780820380516001836020036101000a031916815260200191505b509250505060405180910390f35b6106a16004803603604081101561066b57600080fd5b81019080803573ffffffffffffffffffffffffffffffffffffffff16906020019092919080359060200190929190505050611168565b60405180821515815260200191505060405180910390f35b610705600480360360408110156106cf57600080fd5b81019080803573ffffffffffffffffffffffffffffffffffffffff16906020019092919080359060200190929190505050611235565b60405180821515815260200191505060405180910390f35b6107b4600480360360e081101561073357600080fd5b81019080803573ffffffffffffffffffffffffffffffffffffffff169060200190929190803573ffffffffffffffffffffffffffffffffffffffff1690602001909291908035906020019092919080359060200190929190803560ff1690602001909291908035906020019092919080359060200190929190505050611253565b005b610818600480360360408110156107cc57600080fd5b81019080803573ffffffffffffffffffffffffffffffffffffffff169060200190929190803573ffffffffffffffffffffffffffffffffffffffff1690602001909291905050506114ac565b6040518082815260200191505060405180910390f35b6109ab6004803603608081101561084457600080fd5b810190808035906020019064010000000081111561086157600080fd5b82018360208201111561087357600080fd5b8035906020019184600183028401116401000000008311171561089557600080fd5b91908080601f016020809104026020016040519081016040528093929190818152602001838380828437600081840152601f19601f820116905080830192505050505050509192919290803590602001906401000000008111156108f857600080fd5b82018360208201111561090a57600080fd5b8035906020019184600183028401116401000000008311171561092c57600080fd5b91908080601f016020809104026020016040519081016040528093929190818152602001838380828437600081840152601f19601f820116905080830192505050505050509192919290803560ff169060200190929190803573ffffffffffffffffffffffffffffffffffffffff169060200190929190505050611533565b005b6109b561184d565b604051808273ffffffffffffffffffffffffffffffffffffffff16815260200191505060405180910390f35b606060368054600181600116156101000203166002900480601f016020809104026020016040519081016040528092919081815260200182805460018160011615610100020316600290048015610a795780601f10610a4e57610100808354040283529160200191610a79565b820191906000526020600020905b815481529060010190602001808311610a5c57829003601f168201915b5050505050905090565b6000610a97610a90611873565b848461187b565b6001905092915050565b6000603554905090565b6000610ab8848484611a72565b610b7984610ac4611873565b610b7485604051806060016040528060288152602001613d4060289139603460008b73ffffffffffffffffffffffffffffffffffffffff1673ffffffffffffffffffffffffffffffffffffffff1681526020019081526020016000206000610b2a611873565b73ffffffffffffffffffffffffffffffffffffffff1673ffffffffffffffffffffffffffffffffffffffff16815260200190815260200160002054611d379092919063ffffffff16565b61187b565b600190509392505050565b6000603860009054906101000a900460ff16905090565b6000610ba5611df1565b905090565b6000610c53610bb7611873565b84610c4e8560346000610bc8611873565b73ffffffffffffffffffffffffffffffffffffffff1673ffffffffffffffffffffffffffffffffffffffff16815260200190815260200160002060008973ffffffffffffffffffffffffffffffffffffffff1673ffffffffffffffffffffffffffffffffffffffff16815260200190815260200160002054611e3190919063ffffffff16565b61187b565b6001905092915050565b600080610c68610aa1565b9050600080821415610c7d5760009050610cc8565b6000610c898584611eb9565b9050610cc17faf45c4fb9ef70911e5444b8eedce607366e494224d52e6feab07fbd62a53b26f8260cd611f9f9092919063ffffffff16565b60001c9150505b8092505050919050565b60cc60009054906101000a900473ffffffffffffffffffffffffffffffffffffffff1673ffffffffffffffffffffffffffffffffffffffff16610d13611873565b73ffffffffffffffffffffffffffffffffffffffff1614610d9c576040517f08c379a000000000000000000000000000000000000000000000000000000000815260040180806020018281038252601f8152602001807f436f6e74726f6c6c6564546f6b656e2f6f6e6c792d636f6e74726f6c6c65720081525060200191505060405180910390fd5b610da6828261208a565b5050565b60cc60009054906101000a900473ffffffffffffffffffffffffffffffffffffffff1673ffffffffffffffffffffffffffffffffffffffff16610deb611873565b73ffffffffffffffffffffffffffffffffffffffff1614610e74576040517f08c379a000000000000000000000000000000000000000000000000000000000815260040180806020018281038252601f8152602001807f436f6e74726f6c6c6564546f6b656e2f6f6e6c792d636f6e74726f6c6c65720081525060200191505060405180910390fd5b8173ffffffffffffffffffffffffffffffffffffffff168373ffffffffffffffffffffffffffffffffffffffff1614610eee576000610edf82604051806060016040528060218152602001613d6860219139610ed086886114ac565b611d379092919063ffffffff16565b9050610eec83858361187b565b505b610ef88282612253565b505050565b6000603360008373ffffffffffffffffffffffffffffffffffffffff1673ffffffffffffffffffffffffffffffffffffffff168152602001908152602001600020549050919050565b6000610f8f609960008473ffffffffffffffffffffffffffffffffffffffff1673ffffffffffffffffffffffffffffffffffffffff168152602001908152602001600020612419565b9050919050565b6000610fe77faf45c4fb9ef70911e5444b8eedce607366e494224d52e6feab07fbd62a53b26f8373ffffffffffffffffffffffffffffffffffffffff1660001b60cd6124279092919063ffffffff16565b9050919050565b60cc60009054906101000a900473ffffffffffffffffffffffffffffffffffffffff1673ffffffffffffffffffffffffffffffffffffffff1661102f611873565b73ffffffffffffffffffffffffffffffffffffffff16146110b8576040517f08c379a000000000000000000000000000000000000000000000000000000000815260040180806020018281038252601f8152602001807f436f6e74726f6c6c6564546f6b656e2f6f6e6c792d636f6e74726f6c6c65720081525060200191505060405180910390fd5b6110c28282612253565b5050565b606060378054600181600116156101000203166002900480601f01602080910402602001604051908101604052809291908181526020018280546001816001161561010002031660029004801561115e5780601f106111335761010080835404028352916020019161115e565b820191906000526020600020905b81548152906001019060200180831161114157829003601f168201915b5050505050905090565b600061122b611175611873565b8461122685604051806060016040528060258152602001613e16602591396034600061119f611873565b73ffffffffffffffffffffffffffffffffffffffff1673ffffffffffffffffffffffffffffffffffffffff16815260200190815260200160002060008a73ffffffffffffffffffffffffffffffffffffffff1673ffffffffffffffffffffffffffffffffffffffff16815260200190815260200160002054611d379092919063ffffffff16565b61187b565b6001905092915050565b6000611249611242611873565b8484611a72565b6001905092915050565b834211156112c9576040517f08c379a000000000000000000000000000000000000000000000000000000000815260040180806020018281038252601d8152602001807f45524332305065726d69743a206578706972656420646561646c696e6500000081525060200191505060405180910390fd5b6000609a54888888611318609960008e73ffffffffffffffffffffffffffffffffffffffff1673ffffffffffffffffffffffffffffffffffffffff168152602001908152602001600020612419565b89604051602001808781526020018673ffffffffffffffffffffffffffffffffffffffff1681526020018573ffffffffffffffffffffffffffffffffffffffff1681526020018481526020018381526020018281526020019650505050505050604051602081830303815290604052805190602001209050600061139b82612493565b905060006113ab828787876124fa565b90508973ffffffffffffffffffffffffffffffffffffffff168173ffffffffffffffffffffffffffffffffffffffff161461144e576040517f08c379a000000000000000000000000000000000000000000000000000000000815260040180806020018281038252601e8152602001807f45524332305065726d69743a20696e76616c6964207369676e6174757265000081525060200191505060405180910390fd5b611495609960008c73ffffffffffffffffffffffffffffffffffffffff1673ffffffffffffffffffffffffffffffffffffffff1681526020019081526020016000206126f9565b6114a08a8a8a61187b565b50505050505050505050565b6000603460008473ffffffffffffffffffffffffffffffffffffffff1673ffffffffffffffffffffffffffffffffffffffff16815260200190815260200160002060008373ffffffffffffffffffffffffffffffffffffffff1673ffffffffffffffffffffffffffffffffffffffff16815260200190815260200160002054905092915050565b600060019054906101000a900460ff1680611552575061155161270f565b5b80611568575060008054906101000a900460ff16155b6115bd576040517f08c379a000000000000000000000000000000000000000000000000000000000815260040180806020018281038252602e815260200180613cf0602e913960400191505060405180910390fd5b60008060019054906101000a900460ff16159050801561160d576001600060016101000a81548160ff02191690831515021790555060016000806101000a81548160ff0219169083151502179055505b600073ffffffffffffffffffffffffffffffffffffffff168273ffffffffffffffffffffffffffffffffffffffff1614156116b0576040517f08c379a000000000000000000000000000000000000000000000000000000000815260040180806020018281038252601a8152602001807f5469636b65742f636f6e74726f6c6c65722d6e6f742d7a65726f00000000000081525060200191505060405180910390fd5b6116bc85858585612720565b6116f37faf45c4fb9ef70911e5444b8eedce607366e494224d52e6feab07fbd62a53b26f600560cd612a6c9092919063ffffffff16565b7f41bc1176d7b9b7bc036f385a7e5b08b0662a7afa0844af8a599ad431150227e1858585856040518080602001806020018560ff1681526020018473ffffffffffffffffffffffffffffffffffffffff168152602001838103835287818151815260200191508051906020019080838360005b83811015611781578082015181840152602081019050611766565b50505050905090810190601f1680156117ae5780820380516001836020036101000a031916815260200191505b50838103825286818151815260200191508051906020019080838360005b838110156117e75780820151818401526020810190506117cc565b50505050905090810190601f1680156118145780820380516001836020036101000a031916815260200191505b50965050505050505060405180910390a180156118465760008060016101000a81548160ff0219169083151502179055505b5050505050565b60cc60009054906101000a900473ffffffffffffffffffffffffffffffffffffffff1681565b600033905090565b600073ffffffffffffffffffffffffffffffffffffffff168373ffffffffffffffffffffffffffffffffffffffff161415611901576040517f08c379a0000000000000000000000000000000000000000000000000000000008152600401808060200182810382526024815260200180613dcf6024913960400191505060405180910390fd5b600073ffffffffffffffffffffffffffffffffffffffff168273ffffffffffffffffffffffffffffffffffffffff161415611987576040517f08c379a0000000000000000000000000000000000000000000000000000000008152600401808060200182810382526022815260200180613c866022913960400191505060405180910390fd5b80603460008573ffffffffffffffffffffffffffffffffffffffff1673ffffffffffffffffffffffffffffffffffffffff16815260200190815260200160002060008473ffffffffffffffffffffffffffffffffffffffff1673ffffffffffffffffffffffffffffffffffffffff168152602001908152602001600020819055508173ffffffffffffffffffffffffffffffffffffffff168373ffffffffffffffffffffffffffffffffffffffff167f8c5be1e5ebec7d5bd14f71427d1e84f3dd0314c0f7b2291e5b200ac8c7c3b925836040518082815260200191505060405180910390a3505050565b600073ffffffffffffffffffffffffffffffffffffffff168373ffffffffffffffffffffffffffffffffffffffff161415611af8576040517f08c379a0000000000000000000000000000000000000000000000000000000008152600401808060200182810382526025815260200180613daa6025913960400191505060405180910390fd5b600073ffffffffffffffffffffffffffffffffffffffff168273ffffffffffffffffffffffffffffffffffffffff161415611b7e576040517f08c379a0000000000000000000000000000000000000000000000000000000008152600401808060200182810382526023815260200180613c416023913960400191505060405180910390fd5b611b89838383612c70565b611bf581604051806060016040528060268152602001613ca860269139603360008773ffffffffffffffffffffffffffffffffffffffff1673ffffffffffffffffffffffffffffffffffffffff16815260200190815260200160002054611d379092919063ffffffff16565b603360008573ffffffffffffffffffffffffffffffffffffffff1673ffffffffffffffffffffffffffffffffffffffff16815260200190815260200160002081905550611c8a81603360008573ffffffffffffffffffffffffffffffffffffffff1673ffffffffffffffffffffffffffffffffffffffff16815260200190815260200160002054611e3190919063ffffffff16565b603360008473ffffffffffffffffffffffffffffffffffffffff1673ffffffffffffffffffffffffffffffffffffffff168152602001908152602001600020819055508173ffffffffffffffffffffffffffffffffffffffff168373ffffffffffffffffffffffffffffffffffffffff167fddf252ad1be2c89b69c2b068fc378daa952ba7f163c4a11628f55a4df523b3ef836040518082815260200191505060405180910390a3505050565b6000838311158290611de4576040517f08c379a00000000000000000000000000000000000000000000000000000000081526004018080602001828103825283818151815260200191508051906020019080838360005b83811015611da9578082015181840152602081019050611d8e565b50505050905090810190601f168015611dd65780820380516001836020036101000a031916815260200191505b509250505060405180910390fd5b5082840390509392505050565b6000611e2c7f8b73c3c69bb8fe3d512ecc4cf759cc79239f7b179b0ffacaa9a75d522b39400f611e1f612e06565b611e27612e10565b612e1a565b905090565b600080828401905083811015611eaf576040517f08c379a000000000000000000000000000000000000000000000000000000000815260040180806020018281038252601b8152602001807f536166654d6174683a206164646974696f6e206f766572666c6f77000000000081525060200191505060405180910390fd5b8091505092915050565b6000808211611f30576040517f08c379a00000000000000000000000000000000000000000000000000000000081526004018080602001828103825260158152602001807f556e69666f726d52616e642f6d696e2d626f756e64000000000000000000000081525060200191505060405180910390fd5b6000828360000381611f3e57fe5b06905060008490505b600115611f8b57818110611f5a57611f8b565b80604051602001808281526020019150506040516020818303038152906040528051906020012060001c9050611f47565b838181611f9457fe5b069250505092915050565b600080846000016000858152602001908152602001600020905060008082600201600081548110611fcc57fe5b90600052602060002001548581611fdf57fe5b0690505b8260020180549050600183856000015402011015612068576000600190505b836000015481116120625760008184866000015402019050600085600201828154811061202b57fe5b90600052602060002001549050808410612049578084039350612053565b8194505050612062565b50508080600101915050612002565b50611fe3565b8260040160008381526020019081526020016000205493505050509392505050565b600073ffffffffffffffffffffffffffffffffffffffff168273ffffffffffffffffffffffffffffffffffffffff16141561212d576040517f08c379a000000000000000000000000000000000000000000000000000000000815260040180806020018281038252601f8152602001807f45524332303a206d696e7420746f20746865207a65726f20616464726573730081525060200191505060405180910390fd5b61213960008383612c70565b61214e81603554611e3190919063ffffffff16565b6035819055506121a681603360008573ffffffffffffffffffffffffffffffffffffffff1673ffffffffffffffffffffffffffffffffffffffff16815260200190815260200160002054611e3190919063ffffffff16565b603360008473ffffffffffffffffffffffffffffffffffffffff1673ffffffffffffffffffffffffffffffffffffffff168152602001908152602001600020819055508173ffffffffffffffffffffffffffffffffffffffff16600073ffffffffffffffffffffffffffffffffffffffff167fddf252ad1be2c89b69c2b068fc378daa952ba7f163c4a11628f55a4df523b3ef836040518082815260200191505060405180910390a35050565b600073ffffffffffffffffffffffffffffffffffffffff168273ffffffffffffffffffffffffffffffffffffffff1614156122d9576040517f08c379a0000000000000000000000000000000000000000000000000000000008152600401808060200182810382526021815260200180613d896021913960400191505060405180910390fd5b6122e582600083612c70565b61235181604051806060016040528060228152602001613c6460229139603360008673ffffffffffffffffffffffffffffffffffffffff1673ffffffffffffffffffffffffffffffffffffffff16815260200190815260200160002054611d379092919063ffffffff16565b603360008473ffffffffffffffffffffffffffffffffffffffff1673ffffffffffffffffffffffffffffffffffffffff168152602001908152602001600020819055506123a981603554612e8990919063ffffffff16565b603581905550600073ffffffffffffffffffffffffffffffffffffffff168273ffffffffffffffffffffffffffffffffffffffff167fddf252ad1be2c89b69c2b068fc378daa952ba7f163c4a11628f55a4df523b3ef836040518082815260200191505060405180910390a35050565b600081600001549050919050565b60008084600001600085815260200190815260200160002090506000816003016000858152602001908152602001600020549050600081141561246d576000925061248a565b81600201818154811061247c57fe5b906000526020600020015492505b50509392505050565b600061249d611df1565b8260405160200180807f190100000000000000000000000000000000000000000000000000000000000081525060020183815260200182815260200192505050604051602081830303815290604052805190602001209050919050565b60007f7fffffffffffffffffffffffffffffff5d576e7357a4501ddfe92f46681b20a08260001c1115612578576040517f08c379a0000000000000000000000000000000000000000000000000000000008152600401808060200182810382526022815260200180613cce6022913960400191505060405180910390fd5b601b8460ff16148061258d5750601c8460ff16145b6125e2576040517f08c379a0000000000000000000000000000000000000000000000000000000008152600401808060200182810382526022815260200180613d1e6022913960400191505060405180910390fd5b600060018686868660405160008152602001604052604051808581526020018460ff1681526020018381526020018281526020019450505050506020604051602081039080840390855afa15801561263e573d6000803e3d6000fd5b505050602060405103519050600073ffffffffffffffffffffffffffffffffffffffff168173ffffffffffffffffffffffffffffffffffffffff1614156126ed576040517f08c379a00000000000000000000000000000000000000000000000000000000081526004018080602001828103825260188152602001807f45434453413a20696e76616c6964207369676e6174757265000000000000000081525060200191505060405180910390fd5b80915050949350505050565b6001816000016000828254019250508190555050565b600061271a30612f0c565b15905090565b600060019054906101000a900460ff168061273f575061273e61270f565b5b80612755575060008054906101000a900460ff16155b6127aa576040517f08c379a000000000000000000000000000000000000000000000000000000000815260040180806020018281038252602e815260200180613cf0602e913960400191505060405180910390fd5b60008060019054906101000a900460ff1615905080156127fa576001600060016101000a81548160ff02191690831515021790555060016000806101000a81548160ff0219169083151502179055505b600073ffffffffffffffffffffffffffffffffffffffff168273ffffffffffffffffffffffffffffffffffffffff161415612880576040517f08c379a0000000000000000000000000000000000000000000000000000000008152600401808060200182810382526023815260200180613df36023913960400191505060405180910390fd5b61288a8585612f1f565b6128c86040518060400160405280601c81526020017f506f6f6c546f67657468657220436f6e74726f6c6c6564546f6b656e00000000815250613031565b8160cc60006101000a81548173ffffffffffffffffffffffffffffffffffffffff021916908373ffffffffffffffffffffffffffffffffffffffff16021790555061291283613180565b7f41bc1176d7b9b7bc036f385a7e5b08b0662a7afa0844af8a599ad431150227e1858585856040518080602001806020018560ff1681526020018473ffffffffffffffffffffffffffffffffffffffff168152602001838103835287818151815260200191508051906020019080838360005b838110156129a0578082015181840152602081019050612985565b50505050905090810190601f1680156129cd5780820380516001836020036101000a031916815260200191505b50838103825286818151815260200191508051906020019080838360005b83811015612a065780820151818401526020810190506129eb565b50505050905090810190601f168015612a335780820380516001836020036101000a031916815260200191505b50965050505050505060405180910390a18015612a655760008060016101000a81548160ff0219169083151502179055505b5050505050565b600083600001600084815260200190815260200160002090506000816000015414612aff576040517f08c379a00000000000000000000000000000000000000000000000000000000081526004018080602001828103825260148152602001807f5472656520616c7265616479206578697374732e00000000000000000000000081525060200191505060405180910390fd5b60018211612b75576040517f08c379a000000000000000000000000000000000000000000000000000000000815260040180806020018281038252601b8152602001807f4b206d7573742062652067726561746572207468616e206f6e652e000000000081525060200191505060405180910390fd5b818160000181905550600067ffffffffffffffff81118015612b9657600080fd5b50604051908082528060200260200182016040528015612bc55781602001602082028036833780820191505090505b50816001019080519060200190612bdd929190613b56565b50600067ffffffffffffffff81118015612bf657600080fd5b50604051908082528060200260200182016040528015612c255781602001602082028036833780820191505090505b50816002019080519060200190612c3d929190613b56565b50806002016000908060018154018082558091505060019003906000526020600020016000909190919091505550505050565b612c7b83838361319e565b8173ffffffffffffffffffffffffffffffffffffffff168373ffffffffffffffffffffffffffffffffffffffff161415612cb457612e01565b600073ffffffffffffffffffffffffffffffffffffffff168373ffffffffffffffffffffffffffffffffffffffff1614612d5a576000612d0582612cf786610efd565b612e8990919063ffffffff16565b9050612d587faf45c4fb9ef70911e5444b8eedce607366e494224d52e6feab07fbd62a53b26f828673ffffffffffffffffffffffffffffffffffffffff1660001b60cd61326c909392919063ffffffff16565b505b600073ffffffffffffffffffffffffffffffffffffffff168273ffffffffffffffffffffffffffffffffffffffff1614612e00576000612dab82612d9d85610efd565b611e3190919063ffffffff16565b9050612dfe7faf45c4fb9ef70911e5444b8eedce607366e494224d52e6feab07fbd62a53b26f828573ffffffffffffffffffffffffffffffffffffffff1660001b60cd61326c909392919063ffffffff16565b505b5b505050565b6000606554905090565b6000606654905090565b6000838383612e27613610565b30604051602001808681526020018581526020018481526020018381526020018273ffffffffffffffffffffffffffffffffffffffff168152602001955050505050506040516020818303038152906040528051906020012090509392505050565b600082821115612f01576040517f08c379a000000000000000000000000000000000000000000000000000000000815260040180806020018281038252601e8152602001807f536166654d6174683a207375627472616374696f6e206f766572666c6f77000081525060200191505060405180910390fd5b818303905092915050565b600080823b905060008111915050919050565b600060019054906101000a900460ff1680612f3e5750612f3d61270f565b5b80612f54575060008054906101000a900460ff16155b612fa9576040517f08c379a000000000000000000000000000000000000000000000000000000000815260040180806020018281038252602e815260200180613cf0602e913960400191505060405180910390fd5b60008060019054906101000a900460ff161590508015612ff9576001600060016101000a81548160ff02191690831515021790555060016000806101000a81548160ff0219169083151502179055505b613001613618565b61300b8383613716565b801561302c5760008060016101000a81548160ff0219169083151502179055505b505050565b600060019054906101000a900460ff1680613050575061304f61270f565b5b80613066575060008054906101000a900460ff16155b6130bb576040517f08c379a000000000000000000000000000000000000000000000000000000000815260040180806020018281038252602e815260200180613cf0602e913960400191505060405180910390fd5b60008060019054906101000a900460ff16159050801561310b576001600060016101000a81548160ff02191690831515021790555060016000806101000a81548160ff0219169083151502179055505b613113613618565b613152826040518060400160405280600181526020017f3100000000000000000000000000000000000000000000000000000000000000815250613860565b61315b82613988565b801561317c5760008060016101000a81548160ff0219169083151502179055505b5050565b80603860006101000a81548160ff021916908360ff16021790555050565b60cc60009054906101000a900473ffffffffffffffffffffffffffffffffffffffff1673ffffffffffffffffffffffffffffffffffffffff16637cbab1c78484846040518463ffffffff1660e01b8152600401808473ffffffffffffffffffffffffffffffffffffffff1681526020018373ffffffffffffffffffffffffffffffffffffffff1681526020018281526020019350505050600060405180830381600087803b15801561324f57600080fd5b505af1158015613263573d6000803e3d6000fd5b50505050505050565b60008460000160008581526020019081526020016000209050600081600301600084815260200190815260200160002054905060008114156134995760008414613494576000826001018054905014156133e957816002018054905090508160020184908060018154018082558091505060019003906000526020600020016000909190919091505560018114158015613316575060008260000154600183038161331357fe5b06145b156133e45760008260000154828161332a57fe5b049050600083600401600083815260200190815260200160002054905060006001840190508460020185600201848154811061336257fe5b9060005260206000200154908060018154018082558091505060019003906000526020600020016000909190919091505584600401600084815260200190815260200160002060009055808560030160008481526020019081526020016000208190555081856004016000838152602001908152602001600020819055505050505b613451565b8160010160018360010180549050038154811061340257fe5b906000526020600020015490508160010180548061341c57fe5b600190038181906000526020600020016000905590558382600201828154811061344257fe5b90600052602060002001819055505b80826003016000858152602001908152602001600020819055508282600401600083815260200190815260200160002081905550613493868683600188613aae565b5b613608565b60008414156135505760008260020182815481106134b357fe5b9060005260206000200154905060008360020183815481106134d157fe5b906000526020600020018190555082600101829080600181540180825580915050600190039060005260206000200160009091909190915055826003016000858152602001908152602001600020600090558260040160008381526020019081526020016000206000905561354a878784600085613aae565b50613607565b81600201818154811061355f57fe5b906000526020600020015484146136065760008483600201838154811061358257fe5b9060005260206000200154111590506000816135b957858460020184815481106135a857fe5b9060005260206000200154036135d6565b8360020183815481106135c857fe5b906000526020600020015486035b9050858460020184815481106135e857fe5b90600052602060002001819055506136038888858585613aae565b50505b5b5b505050505050565b600046905090565b600060019054906101000a900460ff1680613637575061363661270f565b5b8061364d575060008054906101000a900460ff16155b6136a2576040517f08c379a000000000000000000000000000000000000000000000000000000000815260040180806020018281038252602e815260200180613cf0602e913960400191505060405180910390fd5b60008060019054906101000a900460ff1615905080156136f2576001600060016101000a81548160ff02191690831515021790555060016000806101000a81548160ff0219169083151502179055505b80156137135760008060016101000a81548160ff0219169083151502179055505b50565b600060019054906101000a900460ff1680613735575061373461270f565b5b8061374b575060008054906101000a900460ff16155b6137a0576040517f08c379a000000000000000000000000000000000000000000000000000000000815260040180806020018281038252602e815260200180613cf0602e913960400191505060405180910390fd5b60008060019054906101000a900460ff1615905080156137f0576001600060016101000a81548160ff02191690831515021790555060016000806101000a81548160ff0219169083151502179055505b8260369080519060200190613806929190613ba3565b50816037908051906020019061381d929190613ba3565b506012603860006101000a81548160ff021916908360ff160217905550801561385b5760008060016101000a81548160ff0219169083151502179055505b505050565b600060019054906101000a900460ff168061387f575061387e61270f565b5b80613895575060008054906101000a900460ff16155b6138ea576040517f08c379a000000000000000000000000000000000000000000000000000000000815260040180806020018281038252602e815260200180613cf0602e913960400191505060405180910390fd5b60008060019054906101000a900460ff16159050801561393a576001600060016101000a81548160ff02191690831515021790555060016000806101000a81548160ff0219169083151502179055505b6000838051906020012090506000838051906020012090508160658190555080606681905550505080156139835760008060016101000a81548160ff0219169083151502179055505b505050565b600060019054906101000a900460ff16806139a757506139a661270f565b5b806139bd575060008054906101000a900460ff16155b613a12576040517f08c379a000000000000000000000000000000000000000000000000000000000815260040180806020018281038252602e815260200180613cf0602e913960400191505060405180910390fd5b60008060019054906101000a900460ff161590508015613a62576001600060016101000a81548160ff02191690831515021790555060016000806101000a81548160ff0219169083151502179055505b7f6e71edae12b1b97f4d1f60370fef10105fa2faae0126114a169c64845d6126c9609a819055508015613aaa5760008060016101000a81548160ff0219169083151502179055505b5050565b6000856000016000868152602001908152602001600020905060008490505b60008114613b4d5781600001546001820381613ae557fe5b04905083613b0e5782826002018281548110613afd57fe5b906000526020600020015403613b2b565b82826002018281548110613b1e57fe5b9060005260206000200154015b826002018281548110613b3a57fe5b9060005260206000200181905550613acd565b50505050505050565b828054828255906000526020600020908101928215613b92579160200282015b82811115613b91578251825591602001919060010190613b76565b5b509050613b9f9190613c23565b5090565b828054600181600116156101000203166002900490600052602060002090601f016020900481019282601f10613be457805160ff1916838001178555613c12565b82800160010185558215613c12579182015b82811115613c11578251825591602001919060010190613bf6565b5b509050613c1f9190613c23565b5090565b5b80821115613c3c576000816000905550600101613c24565b509056fe45524332303a207472616e7366657220746f20746865207a65726f206164647265737345524332303a206275726e20616d6f756e7420657863656564732062616c616e636545524332303a20617070726f766520746f20746865207a65726f206164647265737345524332303a207472616e7366657220616d6f756e7420657863656564732062616c616e636545434453413a20696e76616c6964207369676e6174757265202773272076616c7565496e697469616c697a61626c653a20636f6e747261637420697320616c726561647920696e697469616c697a656445434453413a20696e76616c6964207369676e6174757265202776272076616c756545524332303a207472616e7366657220616d6f756e74206578636565647320616c6c6f77616e6365436f6e74726f6c6c6564546f6b656e2f657863656564732d616c6c6f77616e636545524332303a206275726e2066726f6d20746865207a65726f206164647265737345524332303a207472616e736665722066726f6d20746865207a65726f206164647265737345524332303a20617070726f76652066726f6d20746865207a65726f2061646472657373436f6e74726f6c6c6564546f6b656e2f636f6e74726f6c6c65722d6e6f742d7a65726f45524332303a2064656372656173656420616c6c6f77616e63652062656c6f77207a65726fa2646970667358221220b3d5d4d44210575b44b527b1a378d0856ce801e90a12288c61984fa6f02874fe64736f6c634300060c0033",
  "linkReferences": {},
  "deployedLinkReferences": {}
}