{
  "_format": "hh-sol-artifact-1",
  "contractName": "ControlledTokenBuilder",
  "sourceName": "contracts/builders/ControlledTokenBuilder.sol",
  "abi": [
    {
      "inputs": [
        {
          "internalType": "contract ControlledTokenProxyFactory",
          "name": "_controlledTokenProxyFactory",
          "type": "address"
        },
        {
          "internalType": "contract TicketProxyFactory",
          "name": "_ticketProxyFactory",
          "type": "address"
        }
      ],
      "stateMutability": "nonpayable",
      "type": "constructor"
    },
    {
      "anonymous": false,
      "inputs": [
        {
          "indexed": true,
          "internalType": "address",
          "name": "token",
          "type": "address"
        }
      ],
      "name": "CreatedControlledToken",
      "type": "event"
    },
    {
      "anonymous": false,
      "inputs": [
        {
          "indexed": true,
          "internalType": "address",
          "name": "token",
          "type": "address"
        }
      ],
      "name": "CreatedTicket",
      "type": "event"
    },
    {
      "inputs": [],
      "name": "controlledTokenProxyFactory",
      "outputs": [
        {
          "internalType": "contract ControlledTokenProxyFactory",
          "name": "",
          "type": "address"
        }
      ],
      "stateMutability": "view",
      "type": "function"
    },
    {
      "inputs": [
        {
          "components": [
            {
              "internalType": "string",
              "name": "name",
              "type": "string"
            },
            {
              "internalType": "string",
              "name": "symbol",
              "type": "string"
            },
            {
              "internalType": "uint8",
              "name": "decimals",
              "type": "uint8"
            },
            {
              "internalType": "contract TokenControllerInterface",
              "name": "controller",
              "type": "address"
            }
          ],
          "internalType": "struct ControlledTokenBuilder.ControlledTokenConfig",
          "name": "config",
          "type": "tuple"
        }
      ],
      "name": "createControlledToken",
      "outputs": [
        {
          "internalType": "contract ControlledToken",
          "name": "",
          "type": "address"
        }
      ],
      "stateMutability": "nonpayable",
      "type": "function"
    },
    {
      "inputs": [
        {
          "components": [
            {
              "internalType": "string",
              "name": "name",
              "type": "string"
            },
            {
              "internalType": "string",
              "name": "symbol",
              "type": "string"
            },
            {
              "internalType": "uint8",
              "name": "decimals",
              "type": "uint8"
            },
            {
              "internalType": "contract TokenControllerInterface",
              "name": "controller",
              "type": "address"
            }
          ],
          "internalType": "struct ControlledTokenBuilder.ControlledTokenConfig",
          "name": "config",
          "type": "tuple"
        }
      ],
      "name": "createTicket",
      "outputs": [
        {
          "internalType": "contract Ticket",
          "name": "",
          "type": "address"
        }
      ],
      "stateMutability": "nonpayable",
      "type": "function"
    },
    {
      "inputs": [],
      "name": "ticketProxyFactory",
      "outputs": [
        {
          "internalType": "contract TicketProxyFactory",
          "name": "",
          "type": "address"
        }
      ],
      "stateMutability": "view",
      "type": "function"
    }
  ],
  "bytecode": "0x60806040523480156200001157600080fd5b5060405162000d4038038062000d408339818101604052810190620000379190620001d4565b600073ffffffffffffffffffffffffffffffffffffffff168273ffffffffffffffffffffffffffffffffffffffff161415620000aa576040517f08c379a0000000000000000000000000000000000000000000000000000000008152600401620000a19062000307565b60405180910390fd5b600073ffffffffffffffffffffffffffffffffffffffff168173ffffffffffffffffffffffffffffffffffffffff1614156200011d576040517f08c379a00000000000000000000000000000000000000000000000000000000081526004016200011490620002e5565b60405180910390fd5b816000806101000a81548173ffffffffffffffffffffffffffffffffffffffff021916908373ffffffffffffffffffffffffffffffffffffffff16021790555080600160006101000a81548173ffffffffffffffffffffffffffffffffffffffff021916908373ffffffffffffffffffffffffffffffffffffffff1602179055505050620003ca565b600081519050620001b78162000396565b92915050565b600081519050620001ce81620003b0565b92915050565b60008060408385031215620001e857600080fd5b6000620001f885828601620001a6565b92505060206200020b85828601620001bd565b9150509250929050565b60006200022460328362000329565b91507f436f6e74726f6c6c6564546f6b656e4275696c6465722f7469636b657450726f60008301527f7879466163746f72792d6e6f742d7a65726f00000000000000000000000000006020830152604082019050919050565b60006200028c603b8362000329565b91507f436f6e74726f6c6c6564546f6b656e4275696c6465722f636f6e74726f6c6c6560008301527f64546f6b656e50726f7879466163746f72792d6e6f742d7a65726f00000000006020830152604082019050919050565b60006020820190508181036000830152620003008162000215565b9050919050565b6000602082019050818103600083015262000322816200027d565b9050919050565b600082825260208201905092915050565b6000620003478262000376565b9050919050565b60006200035b826200033a565b9050919050565b60006200036f826200033a565b9050919050565b600073ffffffffffffffffffffffffffffffffffffffff82169050919050565b620003a1816200034e565b8114620003ad57600080fd5b50565b620003bb8162000362565b8114620003c757600080fd5b50565b61096680620003da6000396000f3fe608060405234801561001057600080fd5b506004361061004c5760003560e01c80636a81d8bd146100515780638c0cd38d1461006f5780638e22585d1461009f578063aa3b296c146100cf575b600080fd5b6100596100ed565b6040516100669190610660565b60405180910390f35b6100896004803603810190610084919061056f565b610111565b604051610096919061067b565b60405180910390f35b6100b960048036038101906100b4919061056f565b6102b7565b6040516100c691906106b1565b60405180910390f35b6100d761045f565b6040516100e49190610696565b60405180910390f35b60008054906101000a900473ffffffffffffffffffffffffffffffffffffffff1681565b60008060008054906101000a900473ffffffffffffffffffffffffffffffffffffffff1673ffffffffffffffffffffffffffffffffffffffff1663efc81a8c6040518163ffffffff1660e01b8152600401602060405180830381600087803b15801561017c57600080fd5b505af1158015610190573d6000803e3d6000fd5b505050506040513d601f19601f820116820180604052508101906101b491906104f4565b90508073ffffffffffffffffffffffffffffffffffffffff1663de7ea79d8480600001906101e29190610723565b8680602001906101f29190610723565b88604001602081019061020591906105b0565b8960600160208101906102189190610546565b6040518763ffffffff1660e01b8152600401610239969594939291906106cc565b600060405180830381600087803b15801561025357600080fd5b505af1158015610267573d6000803e3d6000fd5b505050508073ffffffffffffffffffffffffffffffffffffffff167fe3d5734f17a493c850907f8a8366a543676afd8eeb9b7cd16e22c998297d8ebd60405160405180910390a280915050919050565b600080600160009054906101000a900473ffffffffffffffffffffffffffffffffffffffff1673ffffffffffffffffffffffffffffffffffffffff1663efc81a8c6040518163ffffffff1660e01b8152600401602060405180830381600087803b15801561032457600080fd5b505af1158015610338573d6000803e3d6000fd5b505050506040513d601f19601f8201168201806040525081019061035c919061051d565b90508073ffffffffffffffffffffffffffffffffffffffff1663de7ea79d84806000019061038a9190610723565b86806020019061039a9190610723565b8860400160208101906103ad91906105b0565b8960600160208101906103c09190610546565b6040518763ffffffff1660e01b81526004016103e1969594939291906106cc565b600060405180830381600087803b1580156103fb57600080fd5b505af115801561040f573d6000803e3d6000fd5b505050508073ffffffffffffffffffffffffffffffffffffffff167ff771026f1a6d488c23bb75726c18bcc96f290b64209576da54a46c80fd335cab60405160405180910390a280915050919050565b600160009054906101000a900473ffffffffffffffffffffffffffffffffffffffff1681565b600081519050610494816108d4565b92915050565b6000815190506104a9816108eb565b92915050565b6000813590506104be81610902565b92915050565b6000608082840312156104d657600080fd5b81905092915050565b6000813590506104ee81610919565b92915050565b60006020828403121561050657600080fd5b600061051484828501610485565b91505092915050565b60006020828403121561052f57600080fd5b600061053d8482850161049a565b91505092915050565b60006020828403121561055857600080fd5b6000610566848285016104af565b91505092915050565b60006020828403121561058157600080fd5b600082013567ffffffffffffffff81111561059b57600080fd5b6105a7848285016104c4565b91505092915050565b6000602082840312156105c257600080fd5b60006105d0848285016104df565b91505092915050565b6105e281610800565b82525050565b6105f181610824565b82525050565b61060081610848565b82525050565b61060f8161086c565b82525050565b61061e81610890565b82525050565b6000610630838561077a565b935061063d8385846108b4565b610646836108c3565b840190509392505050565b61065a816107f3565b82525050565b600060208201905061067560008301846105d9565b92915050565b600060208201905061069060008301846105e8565b92915050565b60006020820190506106ab60008301846105f7565b92915050565b60006020820190506106c66000830184610606565b92915050565b600060808201905081810360008301526106e781888a610624565b905081810360208301526106fc818688610624565b905061070b6040830185610651565b6107186060830184610615565b979650505050505050565b6000808335600160200384360303811261073c57600080fd5b80840192508235915067ffffffffffffffff82111561075a57600080fd5b60208301925060018202360383131561077257600080fd5b509250929050565b600082825260208201905092915050565b6000610796826107d3565b9050919050565b60006107a88261078b565b9050919050565b60006107ba8261078b565b9050919050565b60006107cc8261078b565b9050919050565b600073ffffffffffffffffffffffffffffffffffffffff82169050919050565b600060ff82169050919050565b600061080b82610812565b9050919050565b600061081d826107d3565b9050919050565b600061082f82610836565b9050919050565b6000610841826107d3565b9050919050565b60006108538261085a565b9050919050565b6000610865826107d3565b9050919050565b60006108778261087e565b9050919050565b6000610889826107d3565b9050919050565b600061089b826108a2565b9050919050565b60006108ad826107d3565b9050919050565b82818337600083830152505050565b6000601f19601f8301169050919050565b6108dd8161079d565b81146108e857600080fd5b50565b6108f4816107af565b81146108ff57600080fd5b50565b61090b816107c1565b811461091657600080fd5b50565b610922816107f3565b811461092d57600080fd5b5056fea2646970667358221220ae6cfcc816852b4b51ccaa96c8b6db8116dce9915c326bd5e2e717ed43b9ba5664736f6c634300060c0033",
  "linkReferences": {},
  "deployedLinkReferences": {}
}