{
  "_format": "hh-sol-artifact-1",
  "contractName": "MappedSinglyLinkedList",
  "sourceName": "contracts/utils/MappedSinglyLinkedList.sol",
  "abi": [
    {
      "inputs": [],
      "name": "SENTINEL",
      "outputs": [
        {
          "internalType": "address",
          "name": "",
          "type": "address"
        }
      ],
      "stateMutability": "view",
      "type": "function"
    }
  ],
  "bytecode": "0x6095610024600b82828239805160001a607314601757fe5b30600052607381538281f3fe730000000000000000000000000000000000000000301460806040526004361060335760003560e01c8063f00cab43146038575b600080fd5b603e605a565b604080516001600160a01b039092168252519081900360200190f35b60018156fea26469706673582212208d94cf2cd1a7964c8143940defffb756f12c00e8b55dca54b79b06564a1dc23264736f6c634300060c0033",
  "linkReferences": {},
  "deployedLinkReferences": {}
}