{
  "_format": "hh-sol-artifact-1",
  "contractName": "MappedSinglyLinkedList",
  "sourceName": "contracts/utils/MappedSinglyLinkedList.sol",
  "abi": [
    {
      "inputs": [],
      "name": "SENTINEL",
      "outputs": [
        {
          "internalType": "address",
          "name": "",
          "type": "address"
        }
      ],
      "stateMutability": "view",
      "type": "function"
    }
  ],
  "bytecode": "0x60a5610024600b82828239805160001a607314601757fe5b30600052607381538281f3fe730000000000000000000000000000000000000000301460806040526004361060335760003560e01c8063f00cab43146038575b600080fd5b603e606a565b604051808273ffffffffffffffffffffffffffffffffffffffff16815260200191505060405180910390f35b60018156fea2646970667358221220b0118a67ba608a12738965649f2ddd958702b4c09add03327fd7c5be061e93a864736f6c634300060c0033",
  "linkReferences": {},
  "deployedLinkReferences": {}
}