{
  "_format": "hh-sol-artifact-1",
  "contractName": "BeforeAwardListenerLibrary",
  "sourceName": "contracts/prize-strategy/BeforeAwardListenerLibrary.sol",
  "abi": [
    {
      "inputs": [],
      "name": "ERC165_INTERFACE_ID_BEFORE_AWARD_LISTENER",
      "outputs": [
        {
          "internalType": "bytes4",
          "name": "",
          "type": "bytes4"
        }
      ],
      "stateMutability": "view",
      "type": "function"
    }
  ],
  "bytecode": "0x609c610024600b82828239805160001a607314601757fe5b30600052607381538281f3fe730000000000000000000000000000000000000000301460806040526004361060335760003560e01c80638a741914146038575b600080fd5b603e605b565b604080516001600160e01b03199092168252519081900360200190f35b63266fce1f60e11b8156fea26469706673582212208beb054c72e1c611f809d34911a1d8b20612d5d37c9bdfb47e24b400406b730f64736f6c634300060c0033",
  "linkReferences": {},
  "deployedLinkReferences": {}
}