{
  "_format": "hh-sol-artifact-1",
  "contractName": "YieldSourcePrizePoolProxyFactory",
  "sourceName": "contracts/prize-pool/yield-source/YieldSourcePrizePoolProxyFactory.sol",
  "abi": [
    {
      "inputs": [],
      "stateMutability": "nonpayable",
      "type": "constructor"
    },
    {
      "anonymous": false,
      "inputs": [
        {
          "indexed": false,
          "internalType": "address",
          "name": "proxy",
          "type": "address"
        }
      ],
      "name": "ProxyCreated",
      "type": "event"
    },
    {
      "inputs": [],
      "name": "create",
      "outputs": [
        {
          "internalType": "contract YieldSourcePrizePool",
          "name": "",
          "type": "address"
        }
      ],
      "stateMutability": "nonpayable",
      "type": "function"
    },
    {
      "inputs": [
        {
          "internalType": "address",
          "name": "_logic",
          "type": "address"
        },
        {
          "internalType": "bytes",
          "name": "_data",
          "type": "bytes"
        }
      ],
      "name": "deployMinimal",
      "outputs": [
        {
          "internalType": "address",
          "name": "proxy",
          "type": "address"
        }
      ],
      "stateMutability": "nonpayable",
      "type": "function"
    },
    {
      "inputs": [],
      "name": "instance",
      "outputs": [
        {
          "internalType": "contract YieldSourcePrizePool",
          "name": "",
          "type": "address"
        }
      ],
      "stateMutability": "view",
      "type": "function"
    }
  ],
  "bytecode": "0x608060405234801561001057600080fd5b5060405161001d9061005f565b604051809103906000f080158015610039573d6000803e3d6000fd5b50600080546001600160a01b0319166001600160a01b039290921691909117905561006c565b6142a6806103b283390190565b6103378061007b6000396000f3fe608060405234801561001057600080fd5b50600436106100415760003560e01c8063022ec09514610046578063b3eeb5e21461006a578063efc81a8c14610120575b600080fd5b61004e610128565b604080516001600160a01b039092168252519081900360200190f35b61004e6004803603604081101561008057600080fd5b6001600160a01b0382351691908101906040810160208201356401000000008111156100ab57600080fd5b8201836020820111156100bd57600080fd5b803590602001918460018302840111640100000000831117156100df57600080fd5b91908080601f016020809104026020016040519081016040528093929190818152602001838380828437600092019190915250929550610137945050505050565b61004e6102b3565b6000546001600160a01b031681565b6000808360601b9050604051733d602d80600a3d3981f3363d3d373d3d3d363d7360601b81528160148201526e5af43d82803e903d91602b57fd5bf360881b60288201526037816000f0604080516001600160a01b038316815290519194507efffc2da0b561cae30d9826d37709e9421c4725faebc226cbbb7ef5fc5e7349925081900360200190a18251156102ac576000826001600160a01b0316846040518082805190602001908083835b602083106102035780518252601f1990920191602091820191016101e4565b6001836020036101000a0380198251168184511680821785525050505050509050019150506000604051808303816000865af19150503d8060008114610265576040519150601f19603f3d011682016040523d82523d6000602084013e61026a565b606091505b50509050806102aa5760405162461bcd60e51b81526004018080602001828103825260248152602001806102de6024913960400191505060405180910390fd5b505b5092915050565b6000805460408051602081019091528281526102d8916001600160a01b031690610137565b90509056fe50726f7879466163746f72792f636f6e7374727563746f722d63616c6c2d6661696c6564a26469706673582212201ad8d1ee4f4c27452d6dc524d36409f4122c1f9749b1e7de9a23a8b7aba1006064736f6c634300060c0033608060405234801561001057600080fd5b50614286806100206000396000f3fe608060405234801561001057600080fd5b50600436106102275760003560e01c80638da5cb5b11610130578063b2470e5c116100b8578063e6d8a94b1161007c578063e6d8a94b1461091d578063edb4e1cf14610925578063f2fde38b1461092d578063fc0c546a14610953578063ffa1ad741461095b57610227565b8063b2470e5c146107bd578063b69ef8a8146107c5578063cfa24007146107cd578063d4a1361d1461088c578063e323f825146108e157610227565b80639d63848a116100ff5780639d63848a146106c95780639e167519146107215780639fe32a9114610729578063a016240b14610746578063a7b2cc311461078057610227565b80638da5cb5b1461066f5780638e71c1f61461069357806391ca480e1461069b57806398bf3eb6146106c157610227565b80636a3fd4f9116101b357806378b3d3271161018257806378b3d3271461057557806379cb85631461059b5780637b99adb1146105cd5780637cbab1c7146105ea578063888c2b6f1461062057610227565b80636a3fd4f9146104f55780636b1b863a1461052f578063715018a61461056557806376687d3d1461056d57610227565b80632b0ab144116101fa5780632b0ab144146103b05780633ede50c6146103e6578063494de9f71461049957806352a387ab146104c7578063630665b4146104ed57610227565b80630937eb541461022c57806313f55e3914610246578063150b7a021461027e57806316960d5514610329575b600080fd5b6102346109d8565b60408051918252519081900360200190f35b61027c6004803603606081101561025c57600080fd5b506001600160a01b038135811691602081013590911690604001356109e7565b005b61030c6004803603608081101561029457600080fd5b6001600160a01b03823581169260208101359091169160408201359190810190608081016060820135600160201b8111156102ce57600080fd5b8201836020820111156102e057600080fd5b803590602001918460018302840111600160201b8311171561030157600080fd5b509092509050610aa5565b604080516001600160e01b03199092168252519081900360200190f35b61027c6004803603606081101561033f57600080fd5b6001600160a01b038235811692602081013590911691810190606081016040820135600160201b81111561037257600080fd5b82018360208201111561038457600080fd5b803590602001918460208302840111600160201b831117156103a557600080fd5b509092509050610ab6565b61027c600480360360608110156103c657600080fd5b506001600160a01b03813581169160208101359091169060400135610d63565b61027c600480360360608110156103fc57600080fd5b6001600160a01b038235169190810190604081016020820135600160201b81111561042657600080fd5b82018360208201111561043857600080fd5b803590602001918460208302840111600160201b8311171561045957600080fd5b9190808060200260200160405190810160405280939291908181526020018383602002808284376000920191909152509295505091359250610e20915050565b610234600480360360408110156104af57600080fd5b506001600160a01b0381358116916020013516611012565b610234600480360360208110156104dd57600080fd5b50356001600160a01b0316611119565b610234611268565b61051b6004803603602081101561050b57600080fd5b50356001600160a01b031661126e565b604080519115158252519081900360200190f35b61027c6004803603606081101561054557600080fd5b506001600160a01b03813581169160208101359160409091013516611281565b61027c611489565b610234611535565b61051b6004803603602081101561058b57600080fd5b50356001600160a01b031661153b565b610234600480360360608110156105b157600080fd5b506001600160a01b038135169060208101359060400135611546565b61027c600480360360208110156105e357600080fd5b503561155b565b61027c6004803603606081101561060057600080fd5b506001600160a01b038135811691602081013590911690604001356115c9565b6106566004803603606081101561063657600080fd5b506001600160a01b03813581169160208101359091169060400135611815565b6040805192835260208301919091528051918290030190f35b61067761182f565b604080516001600160a01b039092168252519081900360200190f35b61067761183e565b61027c600480360360208110156106b157600080fd5b50356001600160a01b031661184d565b6106776118b8565b6106d16118c7565b60408051602080825283518183015283519192839290830191858101910280838360005b8381101561070d5781810151838201526020016106f5565b505050509050019250505060405180910390f35b610234611929565b6102346004803603602081101561073f57600080fd5b503561192f565b6102346004803603608081101561075c57600080fd5b506001600160a01b0381358116916020810135916040820135169060600135611a5d565b61027c6004803603606081101561079657600080fd5b506001600160a01b03813516906001600160801b0360208201358116916040013516611c94565b610677611dea565b610234611df9565b61027c600480360360808110156107e357600080fd5b6001600160a01b038235169190810190604081016020820135600160201b81111561080d57600080fd5b82018360208201111561081f57600080fd5b803590602001918460208302840111600160201b8311171561084057600080fd5b91908080602002602001604051908101604052809392919081815260200183836020028082843760009201919091525092955050823593505050602001356001600160a01b0316611e03565b6108b2600480360360208110156108a257600080fd5b50356001600160a01b031661204e565b60405180836001600160801b03168152602001826001600160801b031681526020019250505060405180910390f35b61027c600480360360808110156108f757600080fd5b506001600160a01b0381358116916020810135916040820135811691606001351661207e565b610234612233565b6102346123a9565b61027c6004803603602081101561094357600080fd5b50356001600160a01b03166123af565b6106776124b2565b6109636124bc565b6040805160208082528351818301528351919283929083019185019080838360005b8381101561099d578181015183820152602001610985565b50505050905090810190601f1680156109ca5780820380516001836020036101000a031916815260200191505b509250505060405180910390f35b60006109e26124dd565b905090565b6099546001600160a01b03166109fb6125e8565b6001600160a01b031614610a44576040805162461bcd60e51b815260206004820152601c6024820152600080516020614231833981519152604482015290519081900360640190fd5b610a4f8383836125ec565b15610aa057816001600160a01b0316836001600160a01b03167fb0bac59718cd343c80a813518afcf36846cfcfe6d56e2b3cab9bd49f5f9b251c836040518082815260200191505060405180910390a35b505050565b630a85bd0160e11b95945050505050565b6099546001600160a01b0316610aca6125e8565b6001600160a01b031614610b13576040805162461bcd60e51b815260206004820152601c6024820152600080516020614231833981519152604482015290519081900360640190fd5b610b1c83612674565b610b6d576040805162461bcd60e51b815260206004820181905260248201527f5072697a65506f6f6c2f696e76616c69642d65787465726e616c2d746f6b656e604482015290519081900360640190fd5b80610b7757610d5d565b60005b81811015610ce457836001600160a01b03166342842e0e3087868686818110610b9f57fe5b905060200201356040518463ffffffff1660e01b815260040180846001600160a01b03168152602001836001600160a01b031681526020018281526020019350505050600060405180830381600087803b158015610bfc57600080fd5b505af1925050508015610c0d575060015b610cdc573d808015610c3b576040519150601f19603f3d011682016040523d82523d6000602084013e610c40565b606091505b507f17e975018310f88872b58d4d8263adca83cf5c1893496ea2a86923dab15276ad816040518080602001828103825283818151815260200191508051906020019080838360005b83811015610ca0578181015183820152602001610c88565b50505050905090810190601f168015610ccd5780820380516001836020036101000a031916815260200191505b509250505060405180910390a1505b600101610b7a565b50826001600160a01b0316846001600160a01b03167f69c2de32bc4d47f488e72626a6cfdee85089342e52675e7de79c4b417623960c848460405180806020018281038252848482818152602001925060200280828437600083820152604051601f909101601f19169092018290039550909350505050a35b50505050565b6099546001600160a01b0316610d776125e8565b6001600160a01b031614610dc0576040805162461bcd60e51b815260206004820152601c6024820152600080516020614231833981519152604482015290519081900360640190fd5b610dcb8383836125ec565b15610aa057816001600160a01b0316836001600160a01b03167fc65f48aca3b7a99b7443d04b8ffbb073156179bc628dc3f7def5047748973469836040518082815260200191505060405180910390a3505050565b600054610100900460ff1680610e395750610e39612689565b80610e47575060005460ff16155b610e825760405162461bcd60e51b815260040180806020018281038252602e8152602001806140bf602e913960400191505060405180910390fd5b600054610100900460ff16158015610ead576000805460ff1961ff0019909116610100171660011790555b6001600160a01b038416610ef25760405162461bcd60e51b81526004018080602001828103825260228152602001806140776022913960400191505060405180910390fd5b82518067ffffffffffffffff81118015610f0b57600080fd5b50604051908082528060200260200182016040528015610f35578160200160208202803683370190505b508051610f4a91609891602090910190613f85565b5060005b81811015610f81576000858281518110610f6457fe5b60200260200101519050610f78818361269a565b50600101610f4e565b50610f8a6127c5565b610f92612876565b610f9d60001961290b565b609780546001600160a01b0319166001600160a01b038716908117909155609a849055604080519182526020820185905280517f25ff68dd81b34665b5ba7e553ee5511bf6812e12adb4a7e2c0d9e26b3099ce799281900390910190a1508015610d5d576000805461ff001916905550505050565b60008161101e81612946565b61105d576040805162461bcd60e51b81526020600482015260176024820152600080516020614155833981519152604482015290519081900360640190fd5b6110e28484856001600160a01b03166370a08231886040518263ffffffff1660e01b815260040180826001600160a01b0316815260200191505060206040518083038186803b1580156110af57600080fd5b505afa1580156110c3573d6000803e3d6000fd5b505050506040513d60208110156110d957600080fd5b50516000612a02565b50506001600160a01b039081166000908152609f60209081526040808320949093168252929092529020546001600160c01b031690565b600080609760009054906101000a90046001600160a01b03166001600160a01b031663f5e3542b6040518163ffffffff1660e01b815260040160206040518083038186803b15801561116a57600080fd5b505afa15801561117e573d6000803e3d6000fd5b505050506040513d602081101561119457600080fd5b505190506001600160a01b03811633146111ee576040805162461bcd60e51b81526020600482015260166024820152755072697a65506f6f6c2f6f6e6c792d7265736572766560501b604482015290519081900360640190fd5b609b80546000918290559061120282612a18565b90506112218582611211612a96565b6001600160a01b03169190612b0c565b6040805183815290516001600160a01b038716917f1c71c8e11fd443227c8f8d3dc1a237a3a5e8310b540c7fbcf5169754aedf42c9919081900360200190a2949350505050565b609d5490565b600061127982612674565b90505b919050565b6099546001600160a01b03166112956125e8565b6001600160a01b0316146112de576040805162461bcd60e51b815260206004820152601c6024820152600080516020614231833981519152604482015290519081900360640190fd5b806112e881612946565b611327576040805162461bcd60e51b81526020600482015260176024820152600080516020614155833981519152604482015290519081900360640190fd5b8261133157610d5d565b609d54831115611388576040805162461bcd60e51b815260206004820152601d60248201527f5072697a65506f6f6c2f61776172642d657863656564732d617661696c000000604482015290519081900360640190fd5b609d546113959084612b5e565b609d556113a58484846000612bc0565b60006113b18385612ca6565b90506114378584856001600160a01b03166370a08231896040518263ffffffff1660e01b815260040180826001600160a01b0316815260200191505060206040518083038186803b15801561140557600080fd5b505afa158015611419573d6000803e3d6000fd5b505050506040513d602081101561142f57600080fd5b505184612a02565b826001600160a01b0316856001600160a01b03167fe2554529d99ab7a67db6b4cea2b32c7d55ae325f958861e05f304fdded867e31866040518082815260200191505060405180910390a35050505050565b6114916125e8565b6001600160a01b03166114a261182f565b6001600160a01b0316146114eb576040805162461bcd60e51b8152602060048201819052602482015260008051602061410e833981519152604482015290519081900360640190fd5b6033546040516000916001600160a01b0316907f8be0079c531659141344cd1fd0a4f28419497f9722a3daafe3b4186f6b6457e0908390a3603380546001600160a01b0319169055565b609c5481565b600061127982612946565b6000611553848484612cde565b949350505050565b6115636125e8565b6001600160a01b031661157461182f565b6001600160a01b0316146115bd576040805162461bcd60e51b8152602060048201819052602482015260008051602061410e833981519152604482015290519081900360640190fd5b6115c68161290b565b50565b336115d381612946565b611612576040805162461bcd60e51b81526020600482015260176024820152600080516020614155833981519152604482015290519081900360640190fd5b6001600160a01b038416156116ec576000336001600160a01b03166370a08231866040518263ffffffff1660e01b815260040180826001600160a01b0316815260200191505060206040518083038186803b15801561167057600080fd5b505afa158015611684573d6000803e3d6000fd5b505050506040513d602081101561169a57600080fd5b5051905060006116ac86338484612d38565b9050846001600160a01b0316866001600160a01b0316146116de576116db336116d58487612b5e565b83612dc7565b90505b6116e9863383612e0d565b50505b6001600160a01b038316158015906117165750836001600160a01b0316836001600160a01b031614155b1561176d5761176d8333336001600160a01b03166370a08231876040518263ffffffff1660e01b815260040180826001600160a01b0316815260200191505060206040518083038186803b1580156110af57600080fd5b6001600160a01b0384161580159061178f57506099546001600160a01b031615155b15610d5d576099546040805163b221095760e01b81526001600160a01b0387811660048301528681166024830152604482018690523360648301529151919092169163b221095791608480830192600092919082900301818387803b1580156117f757600080fd5b505af115801561180b573d6000803e3d6000fd5b5050505050505050565b600080611823858585612fab565b90969095509350505050565b6033546001600160a01b031690565b6097546001600160a01b031681565b6118556125e8565b6001600160a01b031661186661182f565b6001600160a01b0316146118af576040805162461bcd60e51b8152602060048201819052602482015260008051602061410e833981519152604482015290519081900360640190fd5b6115c681613149565b6099546001600160a01b031681565b6060609880548060200260200160405190810160405280929190818152602001828054801561191f57602002820191906000526020600020905b81546001600160a01b03168152600190910190602001808311611901575b5050505050905090565b609a5481565b600080609760009054906101000a90046001600160a01b03166001600160a01b031663f5e3542b6040518163ffffffff1660e01b815260040160206040518083038186803b15801561198057600080fd5b505afa158015611994573d6000803e3d6000fd5b505050506040513d60208110156119aa57600080fd5b505190506001600160a01b0381166119c657600091505061127c565b6000816001600160a01b031663010dfa58306040518263ffffffff1660e01b815260040180826001600160a01b0316815260200191505060206040518083038186803b158015611a1557600080fd5b505afa158015611a29573d6000803e3d6000fd5b505050506040513d6020811015611a3f57600080fd5b5051905080611a535760009250505061127c565b611553848261325c565b600060026065541415611ab7576040805162461bcd60e51b815260206004820152601f60248201527f5265656e7472616e637947756172643a207265656e7472616e742063616c6c00604482015290519081900360640190fd5b600260655582611ac681612946565b611b05576040805162461bcd60e51b81526020600482015260176024820152600080516020614155833981519152604482015290519081900360640190fd5b600080611b13888789612fab565b9150915084821115611b565760405162461bcd60e51b815260040180806020018281038252602781526020018061412e6027913960400191505060405180910390fd5b611b6188878361327d565b856001600160a01b031663631b5dfb611b786125e8565b8a8a6040518463ffffffff1660e01b815260040180846001600160a01b03168152602001836001600160a01b031681526020018281526020019350505050600060405180830381600087803b158015611bd057600080fd5b505af1158015611be4573d6000803e3d6000fd5b505050506000611bfd8389612b5e90919063ffffffff16565b90506000611c0a82612a18565b9050611c198a82611211612a96565b876001600160a01b03168a6001600160a01b0316611c356125e8565b604080518d81526020810186905280820189905290516001600160a01b0392909216917f0271704a58fd2953e49b87d67a0a3ce28a58147de98a5457f60b4686f63850309181900360600190a450506001606555509695505050505050565b82611c9e81612946565b611cdd576040805162461bcd60e51b81526020600482015260176024820152600080516020614155833981519152604482015290519081900360640190fd5b611ce56125e8565b6001600160a01b0316611cf661182f565b6001600160a01b031614611d3f576040805162461bcd60e51b8152602060048201819052602482015260008051602061410e833981519152604482015290519081900360640190fd5b6040805180820182526001600160801b0380851680835286821660208085018281526001600160a01b038b166000818152609e84528890209651875492518716600160801b029087166fffffffffffffffffffffffffffffffff1990931692909217909516179094558451928352928201528083019190915290517ffb0ba2cf86a2b03bcf387753a2192da80a006afa99dd022bb301c78e323bf1b99181900360600190a150505050565b60a0546001600160a01b031681565b60006109e261333e565b600054610100900460ff1680611e1c5750611e1c612689565b80611e2a575060005460ff16155b611e655760405162461bcd60e51b815260040180806020018281038252602e8152602001806140bf602e913960400191505060405180910390fd5b600054610100900460ff16158015611e90576000805460ff1961ff0019909116610100171660011790555b611ea2826001600160a01b031661339e565b611edd5760405162461bcd60e51b81526004018080602001828103825260368152602001806141c56036913960400191505060405180910390fd5b611ee8858585610e20565b60a080546001600160a01b0319166001600160a01b0384169081179091556040805163c89039c560e01b60208083019190915282518083038201815291830192839052815160009493918291908401908083835b60208310611f5b5780518252601f199092019160209182019101611f3c565b6001836020036101000a038019825116818451168082178552505050505050905001915050600060405180830381855afa9150503d8060008114611fbb576040519150601f19603f3d011682016040523d82523d6000602084013e611fc0565b606091505b50509050806120005760405162461bcd60e51b81526004018080602001828103825260298152602001806140016029913960400191505060405180910390fd5b6040516001600160a01b038416907f7a0ca506edc9fcd36e010dbcaad57dade17bbac71dfeb53269077098e863eeca90600090a2508015612047576000805461ff00191690555b5050505050565b6001600160a01b03166000908152609e60205260409020546001600160801b0380821692600160801b9092041690565b600260655414156120d6576040805162461bcd60e51b815260206004820152601f60248201527f5265656e7472616e637947756172643a207265656e7472616e742063616c6c00604482015290519081900360640190fd5b6002606555816120e581612946565b612124576040805162461bcd60e51b81526020600482015260176024820152600080516020614155833981519152604482015290519081900360640190fd5b8361212e816133a4565b61217f576040805162461bcd60e51b815260206004820152601f60248201527f5072697a65506f6f6c2f657863656564732d6c69717569646974792d63617000604482015290519081900360640190fd5b60006121896125e8565b905061219787878787612bc0565b6121b68130886121a5612a96565b6001600160a01b03169291906133c8565b6121bf86613422565b846001600160a01b0316876001600160a01b0316826001600160a01b03167f6ce569498e0f86f147466ac49211cb2a1ffe06195adb805e383b3f2365109160898860405180838152602001826001600160a01b031681526020019250505060405180910390a4505060016065555050505050565b60006002606554141561228d576040805162461bcd60e51b815260206004820152601f60248201527f5265656e7472616e637947756172643a207265656e7472616e742063616c6c00604482015290519081900360640190fd5b6002606555600061229c6124dd565b905060006122a861333e565b905060008282116122ba5760006122c4565b6122c48284612b5e565b90506000609d5482116122d85760006122e6565b609d546122e6908390612b5e565b905080156123985760006122f98261192f565b9050801561235357609b5461230e90826134b2565b609b5561231b8282612b5e565b6040805183815290519193507f5f1703ccfa2730d4245350f228079926a37f26a44ecf6978a7eeafff0af11407919081900360200190a15b609d5461236090836134b2565b609d556040805183815290517fce2b6e507c7ca1a20ce136810f524eefc19ba4c7e4866eb6cc0cba76e778d4be9181900360200190a1505b609d54945050505050600160655590565b609b5481565b6123b76125e8565b6001600160a01b03166123c861182f565b6001600160a01b031614612411576040805162461bcd60e51b8152602060048201819052602482015260008051602061410e833981519152604482015290519081900360640190fd5b6001600160a01b0381166124565760405162461bcd60e51b815260040180806020018281038252602681526020018061402a6026913960400191505060405180910390fd5b6033546040516001600160a01b038084169216907f8be0079c531659141344cd1fd0a4f28419497f9722a3daafe3b4186f6b6457e090600090a3603380546001600160a01b0319166001600160a01b0392909216919091179055565b60006109e2612a96565b60405180604001604052806005815260200164332e342e3160d81b81525081565b600080609b5490506060609880548060200260200160405190810160405280929190818152602001828054801561253d57602002820191906000526020600020905b81546001600160a01b0316815260019091019060200180831161251f575b505083519394506000925050505b818110156125df576125d583828151811061256257fe5b60200260200101516001600160a01b03166318160ddd6040518163ffffffff1660e01b815260040160206040518083038186803b1580156125a257600080fd5b505afa1580156125b6573d6000803e3d6000fd5b505050506040513d60208110156125cc57600080fd5b505185906134b2565b935060010161254b565b50919250505090565b3390565b60006125f783612674565b612648576040805162461bcd60e51b815260206004820181905260248201527f5072697a65506f6f6c2f696e76616c69642d65787465726e616c2d746f6b656e604482015290519081900360640190fd5b816126555750600061266d565b6126696001600160a01b0384168584612b0c565b5060015b9392505050565b60a0546001600160a01b039081169116141590565b60006126943061339e565b15905090565b306001600160a01b0316826001600160a01b031663f77c47916040518163ffffffff1660e01b815260040160206040518083038186803b1580156126dd57600080fd5b505afa1580156126f1573d6000803e3d6000fd5b505050506040513d602081101561270757600080fd5b50516001600160a01b031614612764576040805162461bcd60e51b815260206004820152601e60248201527f5072697a65506f6f6c2f746f6b656e2d6374726c722d6d69736d617463680000604482015290519081900360640190fd5b816098828154811061277257fe5b6000918252602082200180546001600160a01b0319166001600160a01b03938416179055604051918416917f460e712b4a5d801d031ed673dea209b73ab854f7ddeb86b6c48082e92c3eee669190a25050565b600054610100900460ff16806127de57506127de612689565b806127ec575060005460ff16155b6128275760405162461bcd60e51b815260040180806020018281038252602e8152602001806140bf602e913960400191505060405180910390fd5b600054610100900460ff16158015612852576000805460ff1961ff0019909116610100171660011790555b61285a61350c565b6128626135ac565b80156115c6576000805461ff001916905550565b600054610100900460ff168061288f575061288f612689565b8061289d575060005460ff16155b6128d85760405162461bcd60e51b815260040180806020018281038252602e8152602001806140bf602e913960400191505060405180910390fd5b600054610100900460ff16158015612903576000805460ff1961ff0019909116610100171660011790555b6128626136a5565b609c8190556040805182815290517f3ff20538222f568f27ff436c0c49dfd3e48d5b8f86533a3f759dc1c7089775ab9181900360200190a150565b6000606060988054806020026020016040519081016040528092919081815260200182805480156129a057602002820191906000526020600020905b81546001600160a01b03168152600190910190602001808311612982575b505083519394506000925050505b818110156129f757846001600160a01b03168382815181106129cc57fe5b60200260200101516001600160a01b031614156129ef576001935050505061127c565b6001016129ae565b506000949350505050565b610d5d8484612a1387878787612d38565b612e0d565b60a0546040805162982a6160e11b81526004810184905290516000926001600160a01b03169163013054c291602480830192602092919082900301818787803b158015612a6457600080fd5b505af1158015612a78573d6000803e3d6000fd5b505050506040513d6020811015612a8e57600080fd5b505192915050565b60a0546040805163c89039c560e01b815290516000926001600160a01b03169163c89039c5916004808301926020929190829003018186803b158015612adb57600080fd5b505afa158015612aef573d6000803e3d6000fd5b505050506040513d6020811015612b0557600080fd5b5051905090565b604080516001600160a01b038416602482015260448082018490528251808303909101815260649091019091526020810180516001600160e01b031663a9059cbb60e01b179052610aa090849061374b565b600082821115612bb5576040805162461bcd60e51b815260206004820152601e60248201527f536166654d6174683a207375627472616374696f6e206f766572666c6f770000604482015290519081900360640190fd5b508082035b92915050565b6099546001600160a01b031615612c4f57609954604080516304d7f3db60e41b81526001600160a01b038781166004830152602482018790528581166044830152848116606483015291519190921691634d7f3db091608480830192600092919082900301818387803b158015612c3657600080fd5b505af1158015612c4a573d6000803e3d6000fd5b505050505b816001600160a01b0316635d7b075885856040518363ffffffff1660e01b815260040180836001600160a01b0316815260200182815260200192505050600060405180830381600087803b1580156117f757600080fd5b6001600160a01b0382166000908152609e602052604081205461266d908390612cd99082906001600160801b031661325c565b6137fc565b6001600160a01b0383166000908152609e60205260408120548190612d14908590600160801b90046001600160801b031661325c565b905080612d2557600091505061266d565b612d2f8382613821565b95945050505050565b6001600160a01b038381166000908152609f6020908152604080832093881683529290529081208054829190600160e01b900460ff16612d7b5760009150612dbd565b6000612d88888888613888565b8254909150612db99088908890612db4908990612dae906001600160c01b0316876134b2565b906134b2565b612dc7565b9250505b5095945050505050565b6001600160a01b0383166000908152609e60205260408120548190612df69085906001600160801b031661325c565b905080831115612e04578092505b50909392505050565b6001600160a01b038083166000908152609f602090815260408083209387168352929052819020548151606081019092526001600160c01b03169080612e5284613939565b6001600160801b03168152602001612e70612e6b613981565b613985565b63ffffffff908116825260016020928301526001600160a01b038681166000908152609f84526040808220928a168252918452819020845181549486015195909201516001600160c01b03199094166001600160c01b039092169190911763ffffffff60c01b1916600160c01b94909216939093021760ff60e01b1916600160e01b9115159190910217905581811015612f53576001600160a01b038084169085167f2f92d56910619b38bc29fd8e4ca5e56359edac7a0c086cdcd305fb603fa37491612f3d8585612b5e565b60408051918252519081900360200190a3610d5d565b80821015610d5d576001600160a01b038084169085167ff584c579437bc25785b953cc4d8d247251812751e1871c6130cbdecf95a106cf612f948486612b5e565b60408051918252519081900360200190a350505050565b6000806000846001600160a01b03166370a08231876040518263ffffffff1660e01b815260040180826001600160a01b0316815260200191505060206040518083038186803b158015612ffd57600080fd5b505afa158015613011573d6000803e3d6000fd5b505050506040513d602081101561302757600080fd5b5051905083811015613079576040805162461bcd60e51b81526020600482015260166024820152755072697a65506f6f6c2f696e737566662d66756e647360501b604482015290519081900360640190fd5b6130868686836000612a02565b600061309b866130968488612b5e565b612ca6565b6001600160a01b038088166000908152609f60209081526040808320938c16835292905290812054919250906001600160c01b03168211613112576001600160a01b038088166000908152609f60209081526040808320938c168352929052205461310f906001600160c01b031683612b5e565b90505b600061311e8888612ca6565b905080821161312d578161312f565b805b945061313b8186612b5e565b955050505050935093915050565b6001600160a01b0381166131a4576040805162461bcd60e51b815260206004820181905260248201527f5072697a65506f6f6c2f7072697a6553747261746567792d6e6f742d7a65726f604482015290519081900360640190fd5b6131c16001600160a01b038216600162a1cb1960e01b03196139c9565b613212576040805162461bcd60e51b815260206004820152601f60248201527f5072697a65506f6f6c2f7072697a6553747261746567792d696e76616c696400604482015290519081900360640190fd5b609980546001600160a01b0319166001600160a01b0383169081179091556040517f7f58dc86bc2e435cb77ca0edb1df55e25f90caf2d6bd866971715437d456a21290600090a250565b60008061326983856139e5565b905061155381670de0b6b3a7640000613a3e565b6001600160a01b038083166000908152609f60209081526040808320938716835292905220546132bf906132ba906001600160c01b031683612b5e565b613939565b6001600160a01b038084166000818152609f602090815260408083209489168084529482529182902080546001600160c01b0319166001600160801b0396909616959095179094558051858152905191937ff584c579437bc25785b953cc4d8d247251812751e1871c6130cbdecf95a106cf92918290030190a3505050565b60a05460408051630b99152d60e41b815230600482015290516000926001600160a01b03169163b99152d091602480830192602092919082900301818787803b15801561338a57600080fd5b505af1158015612aef573d6000803e3d6000fd5b3b151590565b6000806133af6124dd565b609c549091506133bf82856134b2565b11159392505050565b604080516001600160a01b0380861660248301528416604482015260648082018490528251808303909101815260849091019091526020810180516001600160e01b03166323b872dd60e01b179052610d5d90859061374b565b60a05461344b906001600160a01b03168261343b612a96565b6001600160a01b03169190613a80565b60a054604080516387a6eeef60e01b81526004810184905230602482015290516001600160a01b03909216916387a6eeef9160448082019260009290919082900301818387803b15801561349e57600080fd5b505af1158015612047573d6000803e3d6000fd5b60008282018381101561266d576040805162461bcd60e51b815260206004820152601b60248201527f536166654d6174683a206164646974696f6e206f766572666c6f770000000000604482015290519081900360640190fd5b600054610100900460ff16806135255750613525612689565b80613533575060005460ff16155b61356e5760405162461bcd60e51b815260040180806020018281038252602e8152602001806140bf602e913960400191505060405180910390fd5b600054610100900460ff16158015612862576000805460ff1961ff00199091166101001716600117905580156115c6576000805461ff001916905550565b600054610100900460ff16806135c557506135c5612689565b806135d3575060005460ff16155b61360e5760405162461bcd60e51b815260040180806020018281038252602e8152602001806140bf602e913960400191505060405180910390fd5b600054610100900460ff16158015613639576000805460ff1961ff0019909116610100171660011790555b60006136436125e8565b603380546001600160a01b0319166001600160a01b038316908117909155604051919250906000907f8be0079c531659141344cd1fd0a4f28419497f9722a3daafe3b4186f6b6457e0908290a35080156115c6576000805461ff001916905550565b600054610100900460ff16806136be57506136be612689565b806136cc575060005460ff16155b6137075760405162461bcd60e51b815260040180806020018281038252602e8152602001806140bf602e913960400191505060405180910390fd5b600054610100900460ff16158015613732576000805460ff1961ff0019909116610100171660011790555b600160655580156115c6576000805461ff001916905550565b60606137a0826040518060400160405280602081526020017f5361666545524332303a206c6f772d6c6576656c2063616c6c206661696c6564815250856001600160a01b0316613b939092919063ffffffff16565b805190915015610aa0578080602001905160208110156137bf57600080fd5b5051610aa05760405162461bcd60e51b815260040180806020018281038252602a81526020018061419b602a913960400191505060405180910390fd5b60008061380b84609a5461325c565b905080831115613819578092505b509092915050565b6000808211613877576040805162461bcd60e51b815260206004820152601a60248201527f536166654d6174683a206469766973696f6e206279207a65726f000000000000604482015290519081900360640190fd5b81838161388057fe5b049392505050565b6001600160a01b038281166000908152609f60209081526040808320938716835292905290812054600160c01b810463ffffffff1690600160e01b900460ff166138d657600091505061266d565b60006138ea826138e4613981565b90612b5e565b6001600160a01b0386166000908152609e602052604081205491925090613922908390600160801b90046001600160801b03166139e5565b905061392e858261325c565b979650505050505050565b6000600160801b821061397d5760405162461bcd60e51b81526004018080602001828103825260278152602001806140506027913960400191505060405180910390fd5b5090565b4290565b6000600160201b821061397d5760405162461bcd60e51b81526004018080602001828103825260268152602001806141756026913960400191505060405180910390fd5b60006139d483613ba2565b801561266d575061266d8383613bd5565b6000826139f457506000612bba565b82820282848281613a0157fe5b041461266d5760405162461bcd60e51b81526004018080602001828103825260218152602001806140ed6021913960400191505060405180910390fd5b600061266d83836040518060400160405280601a81526020017f536166654d6174683a206469766973696f6e206279207a65726f000000000000815250613bf8565b801580613b06575060408051636eb1769f60e11b81523060048201526001600160a01b03848116602483015291519185169163dd62ed3e91604480820192602092909190829003018186803b158015613ad857600080fd5b505afa158015613aec573d6000803e3d6000fd5b505050506040513d6020811015613b0257600080fd5b5051155b613b415760405162461bcd60e51b81526004018080602001828103825260368152602001806141fb6036913960400191505060405180910390fd5b604080516001600160a01b038416602482015260448082018490528251808303909101815260649091019091526020810180516001600160e01b031663095ea7b360e01b179052610aa090849061374b565b60606115538484600085613c9a565b6000613bb5826301ffc9a760e01b613bd5565b80156112795750613bce826001600160e01b0319613bd5565b1592915050565b6000806000613be48585613deb565b91509150818015612d2f5750949350505050565b60008183613c845760405162461bcd60e51b81526004018080602001828103825283818151815260200191508051906020019080838360005b83811015613c49578181015183820152602001613c31565b50505050905090810190601f168015613c765780820380516001836020036101000a031916815260200191505b509250505060405180910390fd5b506000838581613c9057fe5b0495945050505050565b606082471015613cdb5760405162461bcd60e51b81526004018080602001828103825260268152602001806140996026913960400191505060405180910390fd5b613ce48561339e565b613d35576040805162461bcd60e51b815260206004820152601d60248201527f416464726573733a2063616c6c20746f206e6f6e2d636f6e7472616374000000604482015290519081900360640190fd5b60006060866001600160a01b031685876040518082805190602001908083835b60208310613d745780518252601f199092019160209182019101613d55565b6001836020036101000a03801982511681845116808217855250505050505090500191505060006040518083038185875af1925050503d8060008114613dd6576040519150601f19603f3d011682016040523d82523d6000602084013e613ddb565b606091505b509150915061392e828286613f1f565b604080516001600160e01b0319831660248083019190915282518083039091018152604490910182526020810180516001600160e01b03166301ffc9a760e01b1781529151815160009384939284926060926001600160a01b038a169261753092879282918083835b60208310613e735780518252601f199092019160209182019101613e54565b6001836020036101000a0380198251168184511680821785525050505050509050019150506000604051808303818686fa925050503d8060008114613ed4576040519150601f19603f3d011682016040523d82523d6000602084013e613ed9565b606091505b5091509150602081511015613ef75760008094509450505050613f18565b81818060200190516020811015613f0d57600080fd5b505190955093505050505b9250929050565b60608315613f2e57508161266d565b825115613f3e5782518084602001fd5b60405162461bcd60e51b8152602060048201818152845160248401528451859391928392604401919085019080838360008315613c49578181015183820152602001613c31565b828054828255906000526020600020908101928215613fda579160200282015b82811115613fda57825182546001600160a01b0319166001600160a01b03909116178255602090920191600190910190613fa5565b5061397d9291505b8082111561397d5780546001600160a01b0319168155600101613fe256fe5969656c64536f757263655072697a65506f6f6c2f696e76616c69642d7969656c642d736f757263654f776e61626c653a206e6577206f776e657220697320746865207a65726f206164647265737353616665436173743a2076616c756520646f65736e27742066697420696e2031323820626974735072697a65506f6f6c2f7265736572766552656769737472792d6e6f742d7a65726f416464726573733a20696e73756666696369656e742062616c616e636520666f722063616c6c496e697469616c697a61626c653a20636f6e747261637420697320616c726561647920696e697469616c697a6564536166654d6174683a206d756c7469706c69636174696f6e206f766572666c6f774f776e61626c653a2063616c6c6572206973206e6f7420746865206f776e65725072697a65506f6f6c2f657869742d6665652d657863656564732d757365722d6d6178696d756d5072697a65506f6f6c2f756e6b6e6f776e2d746f6b656e00000000000000000053616665436173743a2076616c756520646f65736e27742066697420696e20333220626974735361666545524332303a204552433230206f7065726174696f6e20646964206e6f7420737563636565645969656c64536f757263655072697a65506f6f6c2f7969656c642d736f757263652d6e6f742d636f6e74726163742d616464726573735361666545524332303a20617070726f76652066726f6d206e6f6e2d7a65726f20746f206e6f6e2d7a65726f20616c6c6f77616e63655072697a65506f6f6c2f6f6e6c792d7072697a65537472617465677900000000a2646970667358221220c3942bc84a97fabdf708e03a47dcaca18f4a9d73e54bc04a9a743b55975f127764736f6c634300060c0033",
  "linkReferences": {},
  "deployedLinkReferences": {}
}