{
  "_format": "hh-sol-artifact-1",
  "contractName": "YieldSourcePrizePoolProxyFactory",
  "sourceName": "contracts/prize-pool/yield-source/YieldSourcePrizePoolProxyFactory.sol",
  "abi": [
    {
      "inputs": [],
      "stateMutability": "nonpayable",
      "type": "constructor"
    },
    {
      "anonymous": false,
      "inputs": [
        {
          "indexed": false,
          "internalType": "address",
          "name": "proxy",
          "type": "address"
        }
      ],
      "name": "ProxyCreated",
      "type": "event"
    },
    {
      "inputs": [],
      "name": "create",
      "outputs": [
        {
          "internalType": "contract YieldSourcePrizePool",
          "name": "",
          "type": "address"
        }
      ],
      "stateMutability": "nonpayable",
      "type": "function"
    },
    {
      "inputs": [
        {
          "internalType": "address",
          "name": "_logic",
          "type": "address"
        },
        {
          "internalType": "bytes",
          "name": "_data",
          "type": "bytes"
        }
      ],
      "name": "deployMinimal",
      "outputs": [
        {
          "internalType": "address",
          "name": "proxy",
          "type": "address"
        }
      ],
      "stateMutability": "nonpayable",
      "type": "function"
    },
    {
      "inputs": [],
      "name": "instance",
      "outputs": [
        {
          "internalType": "contract YieldSourcePrizePool",
          "name": "",
          "type": "address"
        }
      ],
      "stateMutability": "view",
      "type": "function"
    }
  ],
  "bytecode": "0x608060405234801561001057600080fd5b5060405161001d9061007e565b604051809103906000f080158015610039573d6000803e3d6000fd5b506000806101000a81548173ffffffffffffffffffffffffffffffffffffffff021916908373ffffffffffffffffffffffffffffffffffffffff16021790555061008b565b616e5d806104dc83390190565b6104428061009a6000396000f3fe608060405234801561001057600080fd5b50600436106100415760003560e01c8063022ec09514610046578063b3eeb5e21461007a578063efc81a8c1461017f575b600080fd5b61004e6101b3565b604051808273ffffffffffffffffffffffffffffffffffffffff16815260200191505060405180910390f35b6101536004803603604081101561009057600080fd5b81019080803573ffffffffffffffffffffffffffffffffffffffff169060200190929190803590602001906401000000008111156100cd57600080fd5b8201836020820111156100df57600080fd5b8035906020019184600183028401116401000000008311171561010157600080fd5b91908080601f016020809104026020016040519081016040528093929190818152602001838380828437600081840152601f19601f8201169050808301925050505050505091929192905050506101d7565b604051808273ffffffffffffffffffffffffffffffffffffffff16815260200191505060405180910390f35b6101876103a8565b604051808273ffffffffffffffffffffffffffffffffffffffff16815260200191505060405180910390f35b60008054906101000a900473ffffffffffffffffffffffffffffffffffffffff1681565b6000808360601b90506040517f3d602d80600a3d3981f3363d3d373d3d3d363d7300000000000000000000000081528160148201527f5af43d82803e903d91602b57fd5bf3000000000000000000000000000000000060288201526037816000f09250507efffc2da0b561cae30d9826d37709e9421c4725faebc226cbbb7ef5fc5e734982604051808273ffffffffffffffffffffffffffffffffffffffff16815260200191505060405180910390a16000835111156103a15760008273ffffffffffffffffffffffffffffffffffffffff16846040518082805190602001908083835b602083106102de57805182526020820191506020810190506020830392506102bb565b6001836020036101000a0380198251168184511680821785525050505050509050019150506000604051808303816000865af19150503d8060008114610340576040519150601f19603f3d011682016040523d82523d6000602084013e610345565b606091505b505090508061039f576040517f08c379a00000000000000000000000000000000000000000000000000000000081526004018080602001828103825260248152602001806103e96024913960400191505060405180910390fd5b505b5092915050565b60006103e360008054906101000a900473ffffffffffffffffffffffffffffffffffffffff16604051806020016040528060008152506101d7565b90509056fe50726f7879466163746f72792f636f6e7374727563746f722d63616c6c2d6661696c6564a264697066735822122099a2f100145e386e20631d3e8ae7e4a2e673a891195b8017aa13e72e3df0b49a64736f6c634300060c0033608060405234801561001057600080fd5b50616e3c80620000216000396000f3fe608060405234801561001057600080fd5b50600436106102325760003560e01c80638da5cb5b11610130578063b2470e5c116100b8578063e6d8a94b1161007c578063e6d8a94b14610efb578063edb4e1cf14610f19578063f2fde38b14610f37578063fc0c546a14610f7b578063ffa1ad7414610faf57610232565b8063b2470e5c14610c96578063b69ef8a814610cca578063cfa2400714610ce8578063d4a1361d14610dea578063e323f82514610e6d57610232565b80639d63848a116100ff5780639d63848a14610acf5780639e16751914610b2e5780639fe32a9114610b4c578063a016240b14610b8e578063a7b2cc3114610c1a57610232565b80638da5cb5b146109ef5780638e71c1f614610a2357806391ca480e14610a5757806398bf3eb614610a9b57610232565b8063630665b4116101be57806378b3d3271161018257806378b3d3271461080457806379cb85631461085e5780637b99adb1146108ca5780637cbab1c7146108f8578063888c2b6f1461096657610232565b8063630665b4146106f65780636a3fd4f9146107145780636b1b863a1461076e578063715018a6146107dc57806376687d3d146107e657610232565b80632b0ab144116102055780632b0ab144146104725780632f7627e3146104e05780633ede50c614610544578063494de9f71461062657806352a387ab1461069e57610232565b80630937eb541461023757806313f55e3914610255578063150b7a02146102c357806316960d55146103b9575b600080fd5b61023f611032565b6040518082815260200191505060405180910390f35b6102c16004803603606081101561026b57600080fd5b81019080803573ffffffffffffffffffffffffffffffffffffffff169060200190929190803573ffffffffffffffffffffffffffffffffffffffff16906020019092919080359060200190929190505050611041565b005b610384600480360360808110156102d957600080fd5b81019080803573ffffffffffffffffffffffffffffffffffffffff169060200190929190803573ffffffffffffffffffffffffffffffffffffffff169060200190929190803590602001909291908035906020019064010000000081111561034057600080fd5b82018360208201111561035257600080fd5b8035906020019184600183028401116401000000008311171561037457600080fd5b9091929391929390505050611186565b60405180827bffffffffffffffffffffffffffffffffffffffffffffffffffffffff1916815260200191505060405180910390f35b610470600480360360608110156103cf57600080fd5b81019080803573ffffffffffffffffffffffffffffffffffffffff169060200190929190803573ffffffffffffffffffffffffffffffffffffffff1690602001909291908035906020019064010000000081111561042c57600080fd5b82018360208201111561043e57600080fd5b8035906020019184602083028401116401000000008311171561046057600080fd5b909192939192939050505061119b565b005b6104de6004803603606081101561048857600080fd5b81019080803573ffffffffffffffffffffffffffffffffffffffff169060200190929190803573ffffffffffffffffffffffffffffffffffffffff16906020019092919080359060200190929190505050611533565b005b610542600480360360408110156104f657600080fd5b81019080803573ffffffffffffffffffffffffffffffffffffffff169060200190929190803573ffffffffffffffffffffffffffffffffffffffff169060200190929190505050611678565b005b6106246004803603606081101561055a57600080fd5b81019080803573ffffffffffffffffffffffffffffffffffffffff1690602001909291908035906020019064010000000081111561059757600080fd5b8201836020820111156105a957600080fd5b803590602001918460208302840111640100000000831117156105cb57600080fd5b919080806020026020016040519081016040528093929190818152602001838360200280828437600081840152601f19601f82011690508083019250505050505050919291929080359060200190929190505050611857565b005b6106886004803603604081101561063c57600080fd5b81019080803573ffffffffffffffffffffffffffffffffffffffff169060200190929190803573ffffffffffffffffffffffffffffffffffffffff169060200190929190505050611b56565b6040518082815260200191505060405180910390f35b6106e0600480360360208110156106b457600080fd5b81019080803573ffffffffffffffffffffffffffffffffffffffff169060200190929190505050611d49565b6040518082815260200191505060405180910390f35b6106fe611f39565b6040518082815260200191505060405180910390f35b6107566004803603602081101561072a57600080fd5b81019080803573ffffffffffffffffffffffffffffffffffffffff169060200190929190505050611f43565b60405180821515815260200191505060405180910390f35b6107da6004803603606081101561078457600080fd5b81019080803573ffffffffffffffffffffffffffffffffffffffff16906020019092919080359060200190929190803573ffffffffffffffffffffffffffffffffffffffff169060200190929190505050611f55565b005b6107e4612271565b005b6107ee6123e1565b6040518082815260200191505060405180910390f35b6108466004803603602081101561081a57600080fd5b81019080803573ffffffffffffffffffffffffffffffffffffffff1690602001909291905050506123e7565b60405180821515815260200191505060405180910390f35b6108b46004803603606081101561087457600080fd5b81019080803573ffffffffffffffffffffffffffffffffffffffff16906020019092919080359060200190929190803590602001909291905050506123f9565b6040518082815260200191505060405180910390f35b6108f6600480360360208110156108e057600080fd5b810190808035906020019092919050505061240f565b005b6109646004803603606081101561090e57600080fd5b81019080803573ffffffffffffffffffffffffffffffffffffffff169060200190929190803573ffffffffffffffffffffffffffffffffffffffff169060200190929190803590602001909291905050506124ca565b005b6109d26004803603606081101561097c57600080fd5b81019080803573ffffffffffffffffffffffffffffffffffffffff169060200190929190803573ffffffffffffffffffffffffffffffffffffffff1690602001909291908035906020019092919050505061292e565b604051808381526020018281526020019250505060405180910390f35b6109f761294c565b604051808273ffffffffffffffffffffffffffffffffffffffff16815260200191505060405180910390f35b610a2b612976565b604051808273ffffffffffffffffffffffffffffffffffffffff16815260200191505060405180910390f35b610a9960048036036020811015610a6d57600080fd5b81019080803573ffffffffffffffffffffffffffffffffffffffff16906020019092919050505061299c565b005b610aa3612a57565b604051808273ffffffffffffffffffffffffffffffffffffffff16815260200191505060405180910390f35b610ad7612a7d565b6040518080602001828103825283818151815260200191508051906020019060200280838360005b83811015610b1a578082015181840152602081019050610aff565b505050509050019250505060405180910390f35b610b36612b0b565b6040518082815260200191505060405180910390f35b610b7860048036036020811015610b6257600080fd5b8101908080359060200190929190505050612b11565b6040518082815260200191505060405180910390f35b610c0460048036036080811015610ba457600080fd5b81019080803573ffffffffffffffffffffffffffffffffffffffff16906020019092919080359060200190929190803573ffffffffffffffffffffffffffffffffffffffff16906020019092919080359060200190929190505050612cc6565b6040518082815260200191505060405180910390f35b610c9460048036036060811015610c3057600080fd5b81019080803573ffffffffffffffffffffffffffffffffffffffff16906020019092919080356fffffffffffffffffffffffffffffffff16906020019092919080356fffffffffffffffffffffffffffffffff169060200190929190505050612fea565b005b610c9e613295565b604051808273ffffffffffffffffffffffffffffffffffffffff16815260200191505060405180910390f35b610cd26132bb565b6040518082815260200191505060405180910390f35b610de860048036036080811015610cfe57600080fd5b81019080803573ffffffffffffffffffffffffffffffffffffffff16906020019092919080359060200190640100000000811115610d3b57600080fd5b820183602082011115610d4d57600080fd5b80359060200191846020830284011164010000000083111715610d6f57600080fd5b919080806020026020016040519081016040528093929190818152602001838360200280828437600081840152601f19601f82011690508083019250505050505050919291929080359060200190929190803573ffffffffffffffffffffffffffffffffffffffff1690602001909291905050506132ca565b005b610e2c60048036036020811015610e0057600080fd5b81019080803573ffffffffffffffffffffffffffffffffffffffff169060200190929190505050613621565b60405180836fffffffffffffffffffffffffffffffff168152602001826fffffffffffffffffffffffffffffffff1681526020019250505060405180910390f35b610ef960048036036080811015610e8357600080fd5b81019080803573ffffffffffffffffffffffffffffffffffffffff16906020019092919080359060200190929190803573ffffffffffffffffffffffffffffffffffffffff169060200190929190803573ffffffffffffffffffffffffffffffffffffffff1690602001909291905050506136eb565b005b610f03613964565b6040518082815260200191505060405180910390f35b610f21613b3e565b6040518082815260200191505060405180910390f35b610f7960048036036020811015610f4d57600080fd5b81019080803573ffffffffffffffffffffffffffffffffffffffff169060200190929190505050613b44565b005b610f83613d39565b604051808273ffffffffffffffffffffffffffffffffffffffff16815260200191505060405180910390f35b610fb7613d48565b6040518080602001828103825283818151815260200191508051906020019080838360005b83811015610ff7578082015181840152602081019050610fdc565b50505050905090810190601f1680156110245780820380516001836020036101000a031916815260200191505b509250505060405180910390f35b600061103c613d81565b905090565b609960009054906101000a900473ffffffffffffffffffffffffffffffffffffffff1673ffffffffffffffffffffffffffffffffffffffff16611082613ee4565b73ffffffffffffffffffffffffffffffffffffffff161461110b576040517f08c379a000000000000000000000000000000000000000000000000000000000815260040180806020018281038252601c8152602001807f5072697a65506f6f6c2f6f6e6c792d7072697a6553747261746567790000000081525060200191505060405180910390fd5b611116838383613eec565b15611181578173ffffffffffffffffffffffffffffffffffffffff168373ffffffffffffffffffffffffffffffffffffffff167fb0bac59718cd343c80a813518afcf36846cfcfe6d56e2b3cab9bd49f5f9b251c836040518082815260200191505060405180910390a35b505050565b600063150b7a0260e01b905095945050505050565b609960009054906101000a900473ffffffffffffffffffffffffffffffffffffffff1673ffffffffffffffffffffffffffffffffffffffff166111dc613ee4565b73ffffffffffffffffffffffffffffffffffffffff1614611265576040517f08c379a000000000000000000000000000000000000000000000000000000000815260040180806020018281038252601c8152602001807f5072697a65506f6f6c2f6f6e6c792d7072697a6553747261746567790000000081525060200191505060405180910390fd5b61126e83613fb2565b6112e0576040517f08c379a00000000000000000000000000000000000000000000000000000000081526004018080602001828103825260208152602001807f5072697a65506f6f6c2f696e76616c69642d65787465726e616c2d746f6b656e81525060200191505060405180910390fd5b60008282905014156112f15761152d565b60005b82829050811015611497578373ffffffffffffffffffffffffffffffffffffffff166342842e0e308786868681811061132957fe5b905060200201356040518463ffffffff1660e01b8152600401808473ffffffffffffffffffffffffffffffffffffffff1681526020018373ffffffffffffffffffffffffffffffffffffffff1681526020018281526020019350505050600060405180830381600087803b1580156113a057600080fd5b505af19250505080156113b1575060015b611489573d80600081146113e1576040519150601f19603f3d011682016040523d82523d6000602084013e6113e6565b606091505b507f17e975018310f88872b58d4d8263adca83cf5c1893496ea2a86923dab15276ad816040518080602001828103825283818151815260200191508051906020019080838360005b8381101561144957808201518184015260208101905061142e565b50505050905090810190601f1680156114765780820380516001836020036101000a031916815260200191505b509250505060405180910390a15061148a565b5b80806001019150506112f4565b508273ffffffffffffffffffffffffffffffffffffffff168473ffffffffffffffffffffffffffffffffffffffff167f69c2de32bc4d47f488e72626a6cfdee85089342e52675e7de79c4b417623960c848460405180806020018281038252848482818152602001925060200280828437600081840152601f19601f820116905080830192505050935050505060405180910390a35b50505050565b609960009054906101000a900473ffffffffffffffffffffffffffffffffffffffff1673ffffffffffffffffffffffffffffffffffffffff16611574613ee4565b73ffffffffffffffffffffffffffffffffffffffff16146115fd576040517f08c379a000000000000000000000000000000000000000000000000000000000815260040180806020018281038252601c8152602001807f5072697a65506f6f6c2f6f6e6c792d7072697a6553747261746567790000000081525060200191505060405180910390fd5b611608838383613eec565b15611673578173ffffffffffffffffffffffffffffffffffffffff168373ffffffffffffffffffffffffffffffffffffffff167fc65f48aca3b7a99b7443d04b8ffbb073156179bc628dc3f7def5047748973469836040518082815260200191505060405180910390a35b505050565b611680613ee4565b73ffffffffffffffffffffffffffffffffffffffff1661169e61294c565b73ffffffffffffffffffffffffffffffffffffffff1614611727576040517f08c379a00000000000000000000000000000000000000000000000000000000081526004018080602001828103825260208152602001807f4f776e61626c653a2063616c6c6572206973206e6f7420746865206f776e657281525060200191505060405180910390fd5b60008273ffffffffffffffffffffffffffffffffffffffff166370a08231306040518263ffffffff1660e01b8152600401808273ffffffffffffffffffffffffffffffffffffffff16815260200191505060206040518083038186803b15801561179057600080fd5b505afa1580156117a4573d6000803e3d6000fd5b505050506040513d60208110156117ba57600080fd5b81019080805190602001909291905050501115611853578173ffffffffffffffffffffffffffffffffffffffff16635c19a95c826040518263ffffffff1660e01b8152600401808273ffffffffffffffffffffffffffffffffffffffff168152602001915050600060405180830381600087803b15801561183a57600080fd5b505af115801561184e573d6000803e3d6000fd5b505050505b5050565b600060019054906101000a900460ff1680611876575061187561400d565b5b8061188c575060008054906101000a900460ff16155b6118e1576040517f08c379a000000000000000000000000000000000000000000000000000000000815260040180806020018281038252602e815260200180616cd5602e913960400191505060405180910390fd5b60008060019054906101000a900460ff161590508015611931576001600060016101000a81548160ff02191690831515021790555060016000806101000a81548160ff0219169083151502179055505b600073ffffffffffffffffffffffffffffffffffffffff168473ffffffffffffffffffffffffffffffffffffffff1614156119b7576040517f08c379a0000000000000000000000000000000000000000000000000000000008152600401808060200182810382526022815260200180616c8d6022913960400191505060405180910390fd5b6000835190508067ffffffffffffffff811180156119d457600080fd5b50604051908082528060200260200182016040528015611a035781602001602082028036833780820191505090505b5060989080519060200190611a19929190616b51565b5060005b81811015611a55576000858281518110611a3357fe5b60200260200101519050611a47818361401e565b508080600101915050611a1d565b50611a5e6141dc565b611a666142ea565b611a8f7fffffffffffffffffffffffffffffffffffffffffffffffffffffffffffffffff6143f0565b84609760006101000a81548173ffffffffffffffffffffffffffffffffffffffff021916908373ffffffffffffffffffffffffffffffffffffffff16021790555082609a819055507f25ff68dd81b34665b5ba7e553ee5511bf6812e12adb4a7e2c0d9e26b3099ce7985609a54604051808373ffffffffffffffffffffffffffffffffffffffff1681526020018281526020019250505060405180910390a1508015611b505760008060016101000a81548160ff0219169083151502179055505b50505050565b600081611b6281614431565b611bd4576040517f08c379a00000000000000000000000000000000000000000000000000000000081526004018080602001828103825260178152602001807f5072697a65506f6f6c2f756e6b6e6f776e2d746f6b656e00000000000000000081525060200191505060405180910390fd5b611c8284848573ffffffffffffffffffffffffffffffffffffffff166370a08231886040518263ffffffff1660e01b8152600401808273ffffffffffffffffffffffffffffffffffffffff16815260200191505060206040518083038186803b158015611c4057600080fd5b505afa158015611c54573d6000803e3d6000fd5b505050506040513d6020811015611c6a57600080fd5b8101908080519060200190929190505050600061453c565b609f60008473ffffffffffffffffffffffffffffffffffffffff1673ffffffffffffffffffffffffffffffffffffffff16815260200190815260200160002060008573ffffffffffffffffffffffffffffffffffffffff1673ffffffffffffffffffffffffffffffffffffffff16815260200190815260200160002060000160009054906101000a900477ffffffffffffffffffffffffffffffffffffffffffffffff1677ffffffffffffffffffffffffffffffffffffffffffffffff1691505092915050565b600080609760009054906101000a900473ffffffffffffffffffffffffffffffffffffffff1673ffffffffffffffffffffffffffffffffffffffff1663f5e3542b6040518163ffffffff1660e01b815260040160206040518083038186803b158015611db457600080fd5b505afa158015611dc8573d6000803e3d6000fd5b505050506040513d6020811015611dde57600080fd5b810190808051906020019092919050505090503373ffffffffffffffffffffffffffffffffffffffff168173ffffffffffffffffffffffffffffffffffffffff1614611e92576040517f08c379a00000000000000000000000000000000000000000000000000000000081526004018080602001828103825260168152602001807f5072697a65506f6f6c2f6f6e6c792d726573657276650000000000000000000081525060200191505060405180910390fd5b6000609b5490506000609b819055506000611eac82614558565b9050611ee08582611ebb614611565b73ffffffffffffffffffffffffffffffffffffffff166146bb9092919063ffffffff16565b8473ffffffffffffffffffffffffffffffffffffffff167f1c71c8e11fd443227c8f8d3dc1a237a3a5e8310b540c7fbcf5169754aedf42c9836040518082815260200191505060405180910390a2809350505050919050565b6000609d54905090565b6000611f4e82613fb2565b9050919050565b609960009054906101000a900473ffffffffffffffffffffffffffffffffffffffff1673ffffffffffffffffffffffffffffffffffffffff16611f96613ee4565b73ffffffffffffffffffffffffffffffffffffffff161461201f576040517f08c379a000000000000000000000000000000000000000000000000000000000815260040180806020018281038252601c8152602001807f5072697a65506f6f6c2f6f6e6c792d7072697a6553747261746567790000000081525060200191505060405180910390fd5b8061202981614431565b61209b576040517f08c379a00000000000000000000000000000000000000000000000000000000081526004018080602001828103825260178152602001807f5072697a65506f6f6c2f756e6b6e6f776e2d746f6b656e00000000000000000081525060200191505060405180910390fd5b60008314156120a95761226b565b609d54831115612121576040517f08c379a000000000000000000000000000000000000000000000000000000000815260040180806020018281038252601d8152602001807f5072697a65506f6f6c2f61776172642d657863656564732d617661696c00000081525060200191505060405180910390fd5b61213683609d5461475d90919063ffffffff16565b609d8190555061214984848460006147e0565b600061215583856149ad565b905061220485848573ffffffffffffffffffffffffffffffffffffffff166370a08231896040518263ffffffff1660e01b8152600401808273ffffffffffffffffffffffffffffffffffffffff16815260200191505060206040518083038186803b1580156121c357600080fd5b505afa1580156121d7573d6000803e3d6000fd5b505050506040513d60208110156121ed57600080fd5b81019080805190602001909291905050508461453c565b8273ffffffffffffffffffffffffffffffffffffffff168573ffffffffffffffffffffffffffffffffffffffff167fe2554529d99ab7a67db6b4cea2b32c7d55ae325f958861e05f304fdded867e31866040518082815260200191505060405180910390a3505b50505050565b612279613ee4565b73ffffffffffffffffffffffffffffffffffffffff1661229761294c565b73ffffffffffffffffffffffffffffffffffffffff1614612320576040517f08c379a00000000000000000000000000000000000000000000000000000000081526004018080602001828103825260208152602001807f4f776e61626c653a2063616c6c6572206973206e6f7420746865206f776e657281525060200191505060405180910390fd5b600073ffffffffffffffffffffffffffffffffffffffff16603360009054906101000a900473ffffffffffffffffffffffffffffffffffffffff1673ffffffffffffffffffffffffffffffffffffffff167f8be0079c531659141344cd1fd0a4f28419497f9722a3daafe3b4186f6b6457e060405160405180910390a36000603360006101000a81548173ffffffffffffffffffffffffffffffffffffffff021916908373ffffffffffffffffffffffffffffffffffffffff160217905550565b609c5481565b60006123f282614431565b9050919050565b6000612406848484614a3a565b90509392505050565b612417613ee4565b73ffffffffffffffffffffffffffffffffffffffff1661243561294c565b73ffffffffffffffffffffffffffffffffffffffff16146124be576040517f08c379a00000000000000000000000000000000000000000000000000000000081526004018080602001828103825260208152602001807f4f776e61626c653a2063616c6c6572206973206e6f7420746865206f776e657281525060200191505060405180910390fd5b6124c7816143f0565b50565b336124d481614431565b612546576040517f08c379a00000000000000000000000000000000000000000000000000000000081526004018080602001828103825260178152602001807f5072697a65506f6f6c2f756e6b6e6f776e2d746f6b656e00000000000000000081525060200191505060405180910390fd5b600073ffffffffffffffffffffffffffffffffffffffff168473ffffffffffffffffffffffffffffffffffffffff16146126925760003373ffffffffffffffffffffffffffffffffffffffff166370a08231866040518263ffffffff1660e01b8152600401808273ffffffffffffffffffffffffffffffffffffffff16815260200191505060206040518083038186803b1580156125e357600080fd5b505afa1580156125f7573d6000803e3d6000fd5b505050506040513d602081101561260d57600080fd5b81019080805190602001909291905050509050600061262f8633846000614aea565b90508473ffffffffffffffffffffffffffffffffffffffff168673ffffffffffffffffffffffffffffffffffffffff1614612684576126813361267b868561475d90919063ffffffff16565b83614c1d565b90505b61268f863383614cb3565b50505b600073ffffffffffffffffffffffffffffffffffffffff168373ffffffffffffffffffffffffffffffffffffffff16141580156126fb57508373ffffffffffffffffffffffffffffffffffffffff168373ffffffffffffffffffffffffffffffffffffffff1614155b156127af576127ae83333373ffffffffffffffffffffffffffffffffffffffff166370a08231876040518263ffffffff1660e01b8152600401808273ffffffffffffffffffffffffffffffffffffffff16815260200191505060206040518083038186803b15801561276c57600080fd5b505afa158015612780573d6000803e3d6000fd5b505050506040513d602081101561279657600080fd5b8101908080519060200190929190505050600061453c565b5b600073ffffffffffffffffffffffffffffffffffffffff168473ffffffffffffffffffffffffffffffffffffffff161415801561283b5750600073ffffffffffffffffffffffffffffffffffffffff16609960009054906101000a900473ffffffffffffffffffffffffffffffffffffffff1673ffffffffffffffffffffffffffffffffffffffff1614155b1561292857609960009054906101000a900473ffffffffffffffffffffffffffffffffffffffff1673ffffffffffffffffffffffffffffffffffffffff1663b2210957858585336040518563ffffffff1660e01b8152600401808573ffffffffffffffffffffffffffffffffffffffff1681526020018473ffffffffffffffffffffffffffffffffffffffff1681526020018381526020018273ffffffffffffffffffffffffffffffffffffffff168152602001945050505050600060405180830381600087803b15801561290f57600080fd5b505af1158015612923573d6000803e3d6000fd5b505050505b50505050565b60008061293c858585614ffc565b8092508193505050935093915050565b6000603360009054906101000a900473ffffffffffffffffffffffffffffffffffffffff16905090565b609760009054906101000a900473ffffffffffffffffffffffffffffffffffffffff1681565b6129a4613ee4565b73ffffffffffffffffffffffffffffffffffffffff166129c261294c565b73ffffffffffffffffffffffffffffffffffffffff1614612a4b576040517f08c379a00000000000000000000000000000000000000000000000000000000081526004018080602001828103825260208152602001807f4f776e61626c653a2063616c6c6572206973206e6f7420746865206f776e657281525060200191505060405180910390fd5b612a5481615321565b50565b609960009054906101000a900473ffffffffffffffffffffffffffffffffffffffff1681565b60606098805480602002602001604051908101604052809291908181526020018280548015612b0157602002820191906000526020600020905b8160009054906101000a900473ffffffffffffffffffffffffffffffffffffffff1673ffffffffffffffffffffffffffffffffffffffff1681526020019060010190808311612ab7575b5050505050905090565b609a5481565b600080609760009054906101000a900473ffffffffffffffffffffffffffffffffffffffff1673ffffffffffffffffffffffffffffffffffffffff1663f5e3542b6040518163ffffffff1660e01b815260040160206040518083038186803b158015612b7c57600080fd5b505afa158015612b90573d6000803e3d6000fd5b505050506040513d6020811015612ba657600080fd5b81019080805190602001909291905050509050600073ffffffffffffffffffffffffffffffffffffffff168173ffffffffffffffffffffffffffffffffffffffff161415612bf8576000915050612cc1565b60008173ffffffffffffffffffffffffffffffffffffffff1663010dfa58306040518263ffffffff1660e01b8152600401808273ffffffffffffffffffffffffffffffffffffffff16815260200191505060206040518083038186803b158015612c6157600080fd5b505afa158015612c75573d6000803e3d6000fd5b505050506040513d6020811015612c8b57600080fd5b810190808051906020019092919050505090506000811415612cb257600092505050612cc1565b612cbc84826154ed565b925050505b919050565b600060026065541415612d41576040517f08c379a000000000000000000000000000000000000000000000000000000000815260040180806020018281038252601f8152602001807f5265656e7472616e637947756172643a207265656e7472616e742063616c6c0081525060200191505060405180910390fd5b600260658190555082612d5381614431565b612dc5576040517f08c379a00000000000000000000000000000000000000000000000000000000081526004018080602001828103825260178152602001807f5072697a65506f6f6c2f756e6b6e6f776e2d746f6b656e00000000000000000081525060200191505060405180910390fd5b600080612dd3888789614ffc565b9150915084821115612e30576040517f08c379a0000000000000000000000000000000000000000000000000000000008152600401808060200182810382526027815260200180616d246027913960400191505060405180910390fd5b612e3b88878361552c565b8573ffffffffffffffffffffffffffffffffffffffff1663631b5dfb612e5f613ee4565b8a8a6040518463ffffffff1660e01b8152600401808473ffffffffffffffffffffffffffffffffffffffff1681526020018373ffffffffffffffffffffffffffffffffffffffff1681526020018281526020019350505050600060405180830381600087803b158015612ed157600080fd5b505af1158015612ee5573d6000803e3d6000fd5b505050506000612efe838961475d90919063ffffffff16565b90506000612f0b82614558565b9050612f3f8a82612f1a614611565b73ffffffffffffffffffffffffffffffffffffffff166146bb9092919063ffffffff16565b8773ffffffffffffffffffffffffffffffffffffffff168a73ffffffffffffffffffffffffffffffffffffffff16612f75613ee4565b73ffffffffffffffffffffffffffffffffffffffff167f0271704a58fd2953e49b87d67a0a3ce28a58147de98a5457f60b4686f63850308c858960405180848152602001838152602001828152602001935050505060405180910390a483955050505050506001606581905550949350505050565b82612ff481614431565b613066576040517f08c379a00000000000000000000000000000000000000000000000000000000081526004018080602001828103825260178152602001807f5072697a65506f6f6c2f756e6b6e6f776e2d746f6b656e00000000000000000081525060200191505060405180910390fd5b61306e613ee4565b73ffffffffffffffffffffffffffffffffffffffff1661308c61294c565b73ffffffffffffffffffffffffffffffffffffffff1614613115576040517f08c379a00000000000000000000000000000000000000000000000000000000081526004018080602001828103825260208152602001807f4f776e61626c653a2063616c6c6572206973206e6f7420746865206f776e657281525060200191505060405180910390fd5b6040518060400160405280836fffffffffffffffffffffffffffffffff168152602001846fffffffffffffffffffffffffffffffff16815250609e60008673ffffffffffffffffffffffffffffffffffffffff1673ffffffffffffffffffffffffffffffffffffffff16815260200190815260200160002060008201518160000160006101000a8154816fffffffffffffffffffffffffffffffff02191690836fffffffffffffffffffffffffffffffff16021790555060208201518160000160106101000a8154816fffffffffffffffffffffffffffffffff02191690836fffffffffffffffffffffffffffffffff1602179055509050507ffb0ba2cf86a2b03bcf387753a2192da80a006afa99dd022bb301c78e323bf1b9848385604051808473ffffffffffffffffffffffffffffffffffffffff168152602001836fffffffffffffffffffffffffffffffff168152602001826fffffffffffffffffffffffffffffffff168152602001935050505060405180910390a150505050565b60a060009054906101000a900473ffffffffffffffffffffffffffffffffffffffff1681565b60006132c5615745565b905090565b600060019054906101000a900460ff16806132e957506132e861400d565b5b806132ff575060008054906101000a900460ff16155b613354576040517f08c379a000000000000000000000000000000000000000000000000000000000815260040180806020018281038252602e815260200180616cd5602e913960400191505060405180910390fd5b60008060019054906101000a900460ff1615905080156133a4576001600060016101000a81548160ff02191690831515021790555060016000806101000a81548160ff0219169083151502179055505b6133c38273ffffffffffffffffffffffffffffffffffffffff16615812565b613418576040517f08c379a0000000000000000000000000000000000000000000000000000000008152600401808060200182810382526036815260200180616d9b6036913960400191505060405180910390fd5b613423858585611857565b8160a060006101000a81548173ffffffffffffffffffffffffffffffffffffffff021916908373ffffffffffffffffffffffffffffffffffffffff16021790555060008273ffffffffffffffffffffffffffffffffffffffff1663c89039c560e01b60405160200180827bffffffffffffffffffffffffffffffffffffffffffffffffffffffff191681526020019150506040516020818303038152906040526040518082805190602001908083835b602083106134f657805182526020820191506020810190506020830392506134d3565b6001836020036101000a038019825116818451168082178552505050505050905001915050600060405180830381855afa9150503d8060008114613556576040519150601f19603f3d011682016040523d82523d6000602084013e61355b565b606091505b50509050806135b5576040517f08c379a0000000000000000000000000000000000000000000000000000000008152600401808060200182810382526029815260200180616c176029913960400191505060405180910390fd5b8273ffffffffffffffffffffffffffffffffffffffff167f7a0ca506edc9fcd36e010dbcaad57dade17bbac71dfeb53269077098e863eeca60405160405180910390a250801561361a5760008060016101000a81548160ff0219169083151502179055505b5050505050565b600080609e60008473ffffffffffffffffffffffffffffffffffffffff1673ffffffffffffffffffffffffffffffffffffffff16815260200190815260200160002060000160009054906101000a90046fffffffffffffffffffffffffffffffff169150609e60008473ffffffffffffffffffffffffffffffffffffffff1673ffffffffffffffffffffffffffffffffffffffff16815260200190815260200160002060000160109054906101000a90046fffffffffffffffffffffffffffffffff169050915091565b60026065541415613764576040517f08c379a000000000000000000000000000000000000000000000000000000000815260040180806020018281038252601f8152602001807f5265656e7472616e637947756172643a207265656e7472616e742063616c6c0081525060200191505060405180910390fd5b60026065819055508161377681614431565b6137e8576040517f08c379a00000000000000000000000000000000000000000000000000000000081526004018080602001828103825260178152602001807f5072697a65506f6f6c2f756e6b6e6f776e2d746f6b656e00000000000000000081525060200191505060405180910390fd5b836137f281615825565b613864576040517f08c379a000000000000000000000000000000000000000000000000000000000815260040180806020018281038252601f8152602001807f5072697a65506f6f6c2f657863656564732d6c69717569646974792d6361700081525060200191505060405180910390fd5b600061386e613ee4565b905061387c878787876147e0565b6138b081308861388a614611565b73ffffffffffffffffffffffffffffffffffffffff16615852909392919063ffffffff16565b6138b986615913565b8473ffffffffffffffffffffffffffffffffffffffff168773ffffffffffffffffffffffffffffffffffffffff168273ffffffffffffffffffffffffffffffffffffffff167f6ce569498e0f86f147466ac49211cb2a1ffe06195adb805e383b3f23651091608988604051808381526020018273ffffffffffffffffffffffffffffffffffffffff1681526020019250505060405180910390a4505050600160658190555050505050565b6000600260655414156139df576040517f08c379a000000000000000000000000000000000000000000000000000000000815260040180806020018281038252601f8152602001807f5265656e7472616e637947756172643a207265656e7472616e742063616c6c0081525060200191505060405180910390fd5b600260658190555060006139f1613d81565b905060006139fd615745565b90506000828211613a0f576000613a23565b613a22838361475d90919063ffffffff16565b5b90506000609d548211613a37576000613a4d565b613a4c609d548361475d90919063ffffffff16565b5b90506000811115613b2a576000613a6382612b11565b90506000811115613ad657613a8381609b54615a1590919063ffffffff16565b609b81905550613a9c818361475d90919063ffffffff16565b91507f5f1703ccfa2730d4245350f228079926a37f26a44ecf6978a7eeafff0af11407816040518082815260200191505060405180910390a15b613aeb82609d54615a1590919063ffffffff16565b609d819055507fce2b6e507c7ca1a20ce136810f524eefc19ba4c7e4866eb6cc0cba76e778d4be826040518082815260200191505060405180910390a1505b609d54945050505050600160658190555090565b609b5481565b613b4c613ee4565b73ffffffffffffffffffffffffffffffffffffffff16613b6a61294c565b73ffffffffffffffffffffffffffffffffffffffff1614613bf3576040517f08c379a00000000000000000000000000000000000000000000000000000000081526004018080602001828103825260208152602001807f4f776e61626c653a2063616c6c6572206973206e6f7420746865206f776e657281525060200191505060405180910390fd5b600073ffffffffffffffffffffffffffffffffffffffff168173ffffffffffffffffffffffffffffffffffffffff161415613c79576040517f08c379a0000000000000000000000000000000000000000000000000000000008152600401808060200182810382526026815260200180616c406026913960400191505060405180910390fd5b8073ffffffffffffffffffffffffffffffffffffffff16603360009054906101000a900473ffffffffffffffffffffffffffffffffffffffff1673ffffffffffffffffffffffffffffffffffffffff167f8be0079c531659141344cd1fd0a4f28419497f9722a3daafe3b4186f6b6457e060405160405180910390a380603360006101000a81548173ffffffffffffffffffffffffffffffffffffffff021916908373ffffffffffffffffffffffffffffffffffffffff16021790555050565b6000613d43614611565b905090565b6040518060400160405280600581526020017f332e342e3100000000000000000000000000000000000000000000000000000081525081565b600080609b54905060606098805480602002602001604051908101604052809291908181526020018280548015613e0d57602002820191906000526020600020905b8160009054906101000a900473ffffffffffffffffffffffffffffffffffffffff1673ffffffffffffffffffffffffffffffffffffffff1681526020019060010190808311613dc3575b5050505050905060008151905060005b81811015613eda57613ecb838281518110613e3457fe5b602002602001015173ffffffffffffffffffffffffffffffffffffffff166318160ddd6040518163ffffffff1660e01b815260040160206040518083038186803b158015613e8157600080fd5b505afa158015613e95573d6000803e3d6000fd5b505050506040513d6020811015613eab57600080fd5b810190808051906020019092919050505085615a1590919063ffffffff16565b93508080600101915050613e1d565b5082935050505090565b600033905090565b6000613ef783613fb2565b613f69576040517f08c379a00000000000000000000000000000000000000000000000000000000081526004018080602001828103825260208152602001807f5072697a65506f6f6c2f696e76616c69642d65787465726e616c2d746f6b656e81525060200191505060405180910390fd5b6000821415613f7b5760009050613fab565b613fa684838573ffffffffffffffffffffffffffffffffffffffff166146bb9092919063ffffffff16565b600190505b9392505050565b600060a060009054906101000a900473ffffffffffffffffffffffffffffffffffffffff1673ffffffffffffffffffffffffffffffffffffffff168273ffffffffffffffffffffffffffffffffffffffff1614159050919050565b600061401830615812565b15905090565b3073ffffffffffffffffffffffffffffffffffffffff168273ffffffffffffffffffffffffffffffffffffffff1663f77c47916040518163ffffffff1660e01b815260040160206040518083038186803b15801561407b57600080fd5b505afa15801561408f573d6000803e3d6000fd5b505050506040513d60208110156140a557600080fd5b810190808051906020019092919050505073ffffffffffffffffffffffffffffffffffffffff161461413f576040517f08c379a000000000000000000000000000000000000000000000000000000000815260040180806020018281038252601e8152602001807f5072697a65506f6f6c2f746f6b656e2d6374726c722d6d69736d61746368000081525060200191505060405180910390fd5b816098828154811061414d57fe5b9060005260206000200160006101000a81548173ffffffffffffffffffffffffffffffffffffffff021916908373ffffffffffffffffffffffffffffffffffffffff1602179055508173ffffffffffffffffffffffffffffffffffffffff167f460e712b4a5d801d031ed673dea209b73ab854f7ddeb86b6c48082e92c3eee6660405160405180910390a25050565b600060019054906101000a900460ff16806141fb57506141fa61400d565b5b80614211575060008054906101000a900460ff16155b614266576040517f08c379a000000000000000000000000000000000000000000000000000000000815260040180806020018281038252602e815260200180616cd5602e913960400191505060405180910390fd5b60008060019054906101000a900460ff1615905080156142b6576001600060016101000a81548160ff02191690831515021790555060016000806101000a81548160ff0219169083151502179055505b6142be615a9d565b6142c6615b9b565b80156142e75760008060016101000a81548160ff0219169083151502179055505b50565b600060019054906101000a900460ff1680614309575061430861400d565b5b8061431f575060008054906101000a900460ff16155b614374576040517f08c379a000000000000000000000000000000000000000000000000000000000815260040180806020018281038252602e815260200180616cd5602e913960400191505060405180910390fd5b60008060019054906101000a900460ff1615905080156143c4576001600060016101000a81548160ff02191690831515021790555060016000806101000a81548160ff0219169083151502179055505b6143cc615d42565b80156143ed5760008060016101000a81548160ff0219169083151502179055505b50565b80609c819055507f3ff20538222f568f27ff436c0c49dfd3e48d5b8f86533a3f759dc1c7089775ab816040518082815260200191505060405180910390a150565b6000606060988054806020026020016040519081016040528092919081815260200182805480156144b757602002820191906000526020600020905b8160009054906101000a900473ffffffffffffffffffffffffffffffffffffffff1673ffffffffffffffffffffffffffffffffffffffff168152602001906001019080831161446d575b5050505050905060008151905060005b8181101561452f578473ffffffffffffffffffffffffffffffffffffffff168382815181106144f257fe5b602002602001015173ffffffffffffffffffffffffffffffffffffffff1614156145225760019350505050614537565b80806001019150506144c7565b506000925050505b919050565b614552848461454d87878787614aea565b614cb3565b50505050565b600060a060009054906101000a900473ffffffffffffffffffffffffffffffffffffffff1673ffffffffffffffffffffffffffffffffffffffff1663013054c2836040518263ffffffff1660e01b815260040180828152602001915050602060405180830381600087803b1580156145cf57600080fd5b505af11580156145e3573d6000803e3d6000fd5b505050506040513d60208110156145f957600080fd5b81019080805190602001909291905050509050919050565b600060a060009054906101000a900473ffffffffffffffffffffffffffffffffffffffff1673ffffffffffffffffffffffffffffffffffffffff1663c89039c56040518163ffffffff1660e01b815260040160206040518083038186803b15801561467b57600080fd5b505afa15801561468f573d6000803e3d6000fd5b505050506040513d60208110156146a557600080fd5b8101908080519060200190929190505050905090565b6147588363a9059cbb60e01b8484604051602401808373ffffffffffffffffffffffffffffffffffffffff16815260200182815260200192505050604051602081830303815290604052907bffffffffffffffffffffffffffffffffffffffffffffffffffffffff19166020820180517bffffffffffffffffffffffffffffffffffffffffffffffffffffffff8381831617835250505050615e48565b505050565b6000828211156147d5576040517f08c379a000000000000000000000000000000000000000000000000000000000815260040180806020018281038252601e8152602001807f536166654d6174683a207375627472616374696f6e206f766572666c6f77000081525060200191505060405180910390fd5b818303905092915050565b600073ffffffffffffffffffffffffffffffffffffffff16609960009054906101000a900473ffffffffffffffffffffffffffffffffffffffff1673ffffffffffffffffffffffffffffffffffffffff161461491e57609960009054906101000a900473ffffffffffffffffffffffffffffffffffffffff1673ffffffffffffffffffffffffffffffffffffffff16634d7f3db0858585856040518563ffffffff1660e01b8152600401808573ffffffffffffffffffffffffffffffffffffffff1681526020018481526020018373ffffffffffffffffffffffffffffffffffffffff1681526020018273ffffffffffffffffffffffffffffffffffffffff168152602001945050505050600060405180830381600087803b15801561490557600080fd5b505af1158015614919573d6000803e3d6000fd5b505050505b8173ffffffffffffffffffffffffffffffffffffffff16635d7b075885856040518363ffffffff1660e01b8152600401808373ffffffffffffffffffffffffffffffffffffffff16815260200182815260200192505050600060405180830381600087803b15801561498f57600080fd5b505af11580156149a3573d6000803e3d6000fd5b5050505050505050565b6000614a3282614a2d84609e60008873ffffffffffffffffffffffffffffffffffffffff1673ffffffffffffffffffffffffffffffffffffffff16815260200190815260200160002060000160009054906101000a90046fffffffffffffffffffffffffffffffff166fffffffffffffffffffffffffffffffff166154ed565b615f37565b905092915050565b600080614ab784609e60008873ffffffffffffffffffffffffffffffffffffffff1673ffffffffffffffffffffffffffffffffffffffff16815260200190815260200160002060000160109054906101000a90046fffffffffffffffffffffffffffffffff166fffffffffffffffffffffffffffffffff166154ed565b90506000811415614acc576000915050614ae3565b614adf8184615f5e90919063ffffffff16565b9150505b9392505050565b6000806000609f60008773ffffffffffffffffffffffffffffffffffffffff1673ffffffffffffffffffffffffffffffffffffffff16815260200190815260200160002060008873ffffffffffffffffffffffffffffffffffffffff1673ffffffffffffffffffffffffffffffffffffffff168152602001908152602001600020905080600001601c9054906101000a900460ff16614b8c5760009150614c10565b6000614b99888888615fe7565b9050614c0c8787614c0788614bf9868860000160009054906101000a900477ffffffffffffffffffffffffffffffffffffffffffffffff1677ffffffffffffffffffffffffffffffffffffffffffffffff16615a1590919063ffffffff16565b615a1590919063ffffffff16565b614c1d565b9250505b8192505050949350505050565b600080614c9a84609e60008873ffffffffffffffffffffffffffffffffffffffff1673ffffffffffffffffffffffffffffffffffffffff16815260200190815260200160002060000160009054906101000a90046fffffffffffffffffffffffffffffffff166fffffffffffffffffffffffffffffffff166154ed565b905080831115614ca8578092505b829150509392505050565b6000609f60008473ffffffffffffffffffffffffffffffffffffffff1673ffffffffffffffffffffffffffffffffffffffff16815260200190815260200160002060008573ffffffffffffffffffffffffffffffffffffffff1673ffffffffffffffffffffffffffffffffffffffff16815260200190815260200160002060000160009054906101000a900477ffffffffffffffffffffffffffffffffffffffffffffffff1677ffffffffffffffffffffffffffffffffffffffffffffffff1690506040518060600160405280614d89846161d9565b6fffffffffffffffffffffffffffffffff1677ffffffffffffffffffffffffffffffffffffffffffffffff168152602001614dca614dc561624c565b616254565b63ffffffff16815260200160011515815250609f60008573ffffffffffffffffffffffffffffffffffffffff1673ffffffffffffffffffffffffffffffffffffffff16815260200190815260200160002060008673ffffffffffffffffffffffffffffffffffffffff1673ffffffffffffffffffffffffffffffffffffffff16815260200190815260200160002060008201518160000160006101000a81548177ffffffffffffffffffffffffffffffffffffffffffffffff021916908377ffffffffffffffffffffffffffffffffffffffffffffffff16021790555060208201518160000160186101000a81548163ffffffff021916908363ffffffff160217905550604082015181600001601c6101000a81548160ff02191690831515021790555090505081811015614f75578273ffffffffffffffffffffffffffffffffffffffff168473ffffffffffffffffffffffffffffffffffffffff167f2f92d56910619b38bc29fd8e4ca5e56359edac7a0c086cdcd305fb603fa37491614f5b848661475d90919063ffffffff16565b6040518082815260200191505060405180910390a3614ff6565b80821015614ff5578273ffffffffffffffffffffffffffffffffffffffff168473ffffffffffffffffffffffffffffffffffffffff167ff584c579437bc25785b953cc4d8d247251812751e1871c6130cbdecf95a106cf614fdf858561475d90919063ffffffff16565b6040518082815260200191505060405180910390a35b5b50505050565b60008060008473ffffffffffffffffffffffffffffffffffffffff166370a08231876040518263ffffffff1660e01b8152600401808273ffffffffffffffffffffffffffffffffffffffff16815260200191505060206040518083038186803b15801561506857600080fd5b505afa15801561507c573d6000803e3d6000fd5b505050506040513d602081101561509257600080fd5b810190808051906020019092919050505090508381101561511b576040517f08c379a00000000000000000000000000000000000000000000000000000000081526004018080602001828103825260168152602001807f5072697a65506f6f6c2f696e737566662d66756e64730000000000000000000081525060200191505060405180910390fd5b615128868683600061453c565b600061514686615141878561475d90919063ffffffff16565b6149ad565b9050600081609f60008973ffffffffffffffffffffffffffffffffffffffff1673ffffffffffffffffffffffffffffffffffffffff16815260200190815260200160002060008a73ffffffffffffffffffffffffffffffffffffffff1673ffffffffffffffffffffffffffffffffffffffff16815260200190815260200160002060000160009054906101000a900477ffffffffffffffffffffffffffffffffffffffffffffffff1677ffffffffffffffffffffffffffffffffffffffffffffffff16106152e1576152de82609f60008a73ffffffffffffffffffffffffffffffffffffffff1673ffffffffffffffffffffffffffffffffffffffff16815260200190815260200160002060008b73ffffffffffffffffffffffffffffffffffffffff1673ffffffffffffffffffffffffffffffffffffffff16815260200190815260200160002060000160009054906101000a900477ffffffffffffffffffffffffffffffffffffffffffffffff1677ffffffffffffffffffffffffffffffffffffffffffffffff1661475d90919063ffffffff16565b90505b60006152ed88886149ad565b90508082116152fc57816152fe565b805b9450615313858261475d90919063ffffffff16565b955050505050935093915050565b600073ffffffffffffffffffffffffffffffffffffffff168173ffffffffffffffffffffffffffffffffffffffff1614156153c4576040517f08c379a00000000000000000000000000000000000000000000000000000000081526004018080602001828103825260208152602001807f5072697a65506f6f6c2f7072697a6553747261746567792d6e6f742d7a65726f81525060200191505060405180910390fd5b6153f463ff5e34e760e01b8273ffffffffffffffffffffffffffffffffffffffff166162bb90919063ffffffff16565b615466576040517f08c379a000000000000000000000000000000000000000000000000000000000815260040180806020018281038252601f8152602001807f5072697a65506f6f6c2f7072697a6553747261746567792d696e76616c69640081525060200191505060405180910390fd5b80609960006101000a81548173ffffffffffffffffffffffffffffffffffffffff021916908373ffffffffffffffffffffffffffffffffffffffff1602179055508073ffffffffffffffffffffffffffffffffffffffff167f7f58dc86bc2e435cb77ca0edb1df55e25f90caf2d6bd866971715437d456a21260405160405180910390a250565b60008061550384846162e090919063ffffffff16565b9050615520670de0b6b3a76400008261636690919063ffffffff16565b90508091505092915050565b6156046155ff82609f60008673ffffffffffffffffffffffffffffffffffffffff1673ffffffffffffffffffffffffffffffffffffffff16815260200190815260200160002060008773ffffffffffffffffffffffffffffffffffffffff1673ffffffffffffffffffffffffffffffffffffffff16815260200190815260200160002060000160009054906101000a900477ffffffffffffffffffffffffffffffffffffffffffffffff1677ffffffffffffffffffffffffffffffffffffffffffffffff1661475d90919063ffffffff16565b6161d9565b6fffffffffffffffffffffffffffffffff16609f60008473ffffffffffffffffffffffffffffffffffffffff1673ffffffffffffffffffffffffffffffffffffffff16815260200190815260200160002060008573ffffffffffffffffffffffffffffffffffffffff1673ffffffffffffffffffffffffffffffffffffffff16815260200190815260200160002060000160006101000a81548177ffffffffffffffffffffffffffffffffffffffffffffffff021916908377ffffffffffffffffffffffffffffffffffffffffffffffff1602179055508173ffffffffffffffffffffffffffffffffffffffff168373ffffffffffffffffffffffffffffffffffffffff167ff584c579437bc25785b953cc4d8d247251812751e1871c6130cbdecf95a106cf836040518082815260200191505060405180910390a3505050565b600060a060009054906101000a900473ffffffffffffffffffffffffffffffffffffffff1673ffffffffffffffffffffffffffffffffffffffff1663b99152d0306040518263ffffffff1660e01b8152600401808273ffffffffffffffffffffffffffffffffffffffff168152602001915050602060405180830381600087803b1580156157d257600080fd5b505af11580156157e6573d6000803e3d6000fd5b505050506040513d60208110156157fc57600080fd5b8101908080519060200190929190505050905090565b600080823b905060008111915050919050565b600080615830613d81565b9050609c546158488483615a1590919063ffffffff16565b1115915050919050565b61590d846323b872dd60e01b858585604051602401808473ffffffffffffffffffffffffffffffffffffffff1681526020018373ffffffffffffffffffffffffffffffffffffffff1681526020018281526020019350505050604051602081830303815290604052907bffffffffffffffffffffffffffffffffffffffffffffffffffffffff19166020820180517bffffffffffffffffffffffffffffffffffffffffffffffffffffffff8381831617835250505050615e48565b50505050565b61596760a060009054906101000a900473ffffffffffffffffffffffffffffffffffffffff1682615942614611565b73ffffffffffffffffffffffffffffffffffffffff166163b09092919063ffffffff16565b60a060009054906101000a900473ffffffffffffffffffffffffffffffffffffffff1673ffffffffffffffffffffffffffffffffffffffff166387a6eeef82306040518363ffffffff1660e01b8152600401808381526020018273ffffffffffffffffffffffffffffffffffffffff16815260200192505050600060405180830381600087803b1580156159fa57600080fd5b505af1158015615a0e573d6000803e3d6000fd5b5050505050565b600080828401905083811015615a93576040517f08c379a000000000000000000000000000000000000000000000000000000000815260040180806020018281038252601b8152602001807f536166654d6174683a206164646974696f6e206f766572666c6f77000000000081525060200191505060405180910390fd5b8091505092915050565b600060019054906101000a900460ff1680615abc5750615abb61400d565b5b80615ad2575060008054906101000a900460ff16155b615b27576040517f08c379a000000000000000000000000000000000000000000000000000000000815260040180806020018281038252602e815260200180616cd5602e913960400191505060405180910390fd5b60008060019054906101000a900460ff161590508015615b77576001600060016101000a81548160ff02191690831515021790555060016000806101000a81548160ff0219169083151502179055505b8015615b985760008060016101000a81548160ff0219169083151502179055505b50565b600060019054906101000a900460ff1680615bba5750615bb961400d565b5b80615bd0575060008054906101000a900460ff16155b615c25576040517f08c379a000000000000000000000000000000000000000000000000000000000815260040180806020018281038252602e815260200180616cd5602e913960400191505060405180910390fd5b60008060019054906101000a900460ff161590508015615c75576001600060016101000a81548160ff02191690831515021790555060016000806101000a81548160ff0219169083151502179055505b6000615c7f613ee4565b905080603360006101000a81548173ffffffffffffffffffffffffffffffffffffffff021916908373ffffffffffffffffffffffffffffffffffffffff1602179055508073ffffffffffffffffffffffffffffffffffffffff16600073ffffffffffffffffffffffffffffffffffffffff167f8be0079c531659141344cd1fd0a4f28419497f9722a3daafe3b4186f6b6457e060405160405180910390a3508015615d3f5760008060016101000a81548160ff0219169083151502179055505b50565b600060019054906101000a900460ff1680615d615750615d6061400d565b5b80615d77575060008054906101000a900460ff16155b615dcc576040517f08c379a000000000000000000000000000000000000000000000000000000000815260040180806020018281038252602e815260200180616cd5602e913960400191505060405180910390fd5b60008060019054906101000a900460ff161590508015615e1c576001600060016101000a81548160ff02191690831515021790555060016000806101000a81548160ff0219169083151502179055505b60016065819055508015615e455760008060016101000a81548160ff0219169083151502179055505b50565b6060615eaa826040518060400160405280602081526020017f5361666545524332303a206c6f772d6c6576656c2063616c6c206661696c65648152508573ffffffffffffffffffffffffffffffffffffffff166165759092919063ffffffff16565b9050600081511115615f3257808060200190516020811015615ecb57600080fd5b8101908080519060200190929190505050615f31576040517f08c379a000000000000000000000000000000000000000000000000000000000815260040180806020018281038252602a815260200180616d71602a913960400191505060405180910390fd5b5b505050565b600080615f4684609a546154ed565b905080831115615f54578092505b8291505092915050565b6000808211615fd5576040517f08c379a000000000000000000000000000000000000000000000000000000000815260040180806020018281038252601a8152602001807f536166654d6174683a206469766973696f6e206279207a65726f00000000000081525060200191505060405180910390fd5b818381615fde57fe5b04905092915050565b600080609f60008573ffffffffffffffffffffffffffffffffffffffff1673ffffffffffffffffffffffffffffffffffffffff16815260200190815260200160002060008673ffffffffffffffffffffffffffffffffffffffff1673ffffffffffffffffffffffffffffffffffffffff16815260200190815260200160002060000160189054906101000a900463ffffffff1663ffffffff169050609f60008573ffffffffffffffffffffffffffffffffffffffff1673ffffffffffffffffffffffffffffffffffffffff16815260200190815260200160002060008673ffffffffffffffffffffffffffffffffffffffff1673ffffffffffffffffffffffffffffffffffffffff168152602001908152602001600020600001601c9054906101000a900460ff1661611d5760009150506161d2565b60006161398261612b61624c565b61475d90919063ffffffff16565b905060006161c0609e60008873ffffffffffffffffffffffffffffffffffffffff1673ffffffffffffffffffffffffffffffffffffffff16815260200190815260200160002060000160109054906101000a90046fffffffffffffffffffffffffffffffff166fffffffffffffffffffffffffffffffff168361658d90919063ffffffff16565b90506161cc85826154ed565b93505050505b9392505050565b60007001000000000000000000000000000000008210616244576040517f08c379a0000000000000000000000000000000000000000000000000000000008152600401808060200182810382526027815260200180616c666027913960400191505060405180910390fd5b819050919050565b600042905090565b600064010000000082106162b3576040517f08c379a0000000000000000000000000000000000000000000000000000000008152600401808060200182810382526026815260200180616d4b6026913960400191505060405180910390fd5b819050919050565b60006162c683616613565b80156162d857506162d78383616647565b5b905092915050565b6000808314156162f35760009050616360565b600082840290508284828161630457fe5b041461635b576040517f08c379a0000000000000000000000000000000000000000000000000000000008152600401808060200182810382526021815260200180616d036021913960400191505060405180910390fd5b809150505b92915050565b60006163a883836040518060400160405280601a81526020017f536166654d6174683a206469766973696f6e206279207a65726f00000000000081525061666e565b905092915050565b600081148061647e575060008373ffffffffffffffffffffffffffffffffffffffff1663dd62ed3e30856040518363ffffffff1660e01b8152600401808373ffffffffffffffffffffffffffffffffffffffff1681526020018273ffffffffffffffffffffffffffffffffffffffff1681526020019250505060206040518083038186803b15801561644157600080fd5b505afa158015616455573d6000803e3d6000fd5b505050506040513d602081101561646b57600080fd5b8101908080519060200190929190505050145b6164d3576040517f08c379a0000000000000000000000000000000000000000000000000000000008152600401808060200182810382526036815260200180616dd16036913960400191505060405180910390fd5b6165708363095ea7b360e01b8484604051602401808373ffffffffffffffffffffffffffffffffffffffff16815260200182815260200192505050604051602081830303815290604052907bffffffffffffffffffffffffffffffffffffffffffffffffffffffff19166020820180517bffffffffffffffffffffffffffffffffffffffffffffffffffffffff8381831617835250505050615e48565b505050565b60606165848484600085616734565b90509392505050565b6000808314156165a0576000905061660d565b60008284029050828482816165b157fe5b0414616608576040517f08c379a0000000000000000000000000000000000000000000000000000000008152600401808060200182810382526021815260200180616d036021913960400191505060405180910390fd5b809150505b92915050565b6000616626826301ffc9a760e01b616647565b8015616640575061663e8263ffffffff60e01b616647565b155b9050919050565b600080600061665685856168dd565b915091508180156166645750805b9250505092915050565b6000808311829061671a576040517f08c379a00000000000000000000000000000000000000000000000000000000081526004018080602001828103825283818151815260200191508051906020019080838360005b838110156166df5780820151818401526020810190506166c4565b50505050905090810190601f16801561670c5780820380516001836020036101000a031916815260200191505b509250505060405180910390fd5b50600083858161672657fe5b049050809150509392505050565b60608247101561678f576040517f08c379a0000000000000000000000000000000000000000000000000000000008152600401808060200182810382526026815260200180616caf6026913960400191505060405180910390fd5b61679885615812565b61680a576040517f08c379a000000000000000000000000000000000000000000000000000000000815260040180806020018281038252601d8152602001807f416464726573733a2063616c6c20746f206e6f6e2d636f6e747261637400000081525060200191505060405180910390fd5b600060608673ffffffffffffffffffffffffffffffffffffffff1685876040518082805190602001908083835b6020831061685a5780518252602082019150602081019050602083039250616837565b6001836020036101000a03801982511681845116808217855250505050505090500191505060006040518083038185875af1925050503d80600081146168bc576040519150601f19603f3d011682016040523d82523d6000602084013e6168c1565b606091505b50915091506168d1828286616a85565b92505050949350505050565b60008060606301ffc9a760e01b8460405160240180827bffffffffffffffffffffffffffffffffffffffffffffffffffffffff19168152602001915050604051602081830303815290604052907bffffffffffffffffffffffffffffffffffffffffffffffffffffffff19166020820180517bffffffffffffffffffffffffffffffffffffffffffffffffffffffff83818316178352505050509050600060608673ffffffffffffffffffffffffffffffffffffffff16617530846040518082805190602001908083835b602083106169cb57805182526020820191506020810190506020830392506169a8565b6001836020036101000a0380198251168184511680821785525050505050509050019150506000604051808303818686fa925050503d8060008114616a2c576040519150601f19603f3d011682016040523d82523d6000602084013e616a31565b606091505b5091509150602081511015616a4f5760008094509450505050616a7e565b81818060200190516020811015616a6557600080fd5b8101908080519060200190929190505050945094505050505b9250929050565b60608315616a9557829050616b4a565b600083511115616aa85782518084602001fd5b816040517f08c379a00000000000000000000000000000000000000000000000000000000081526004018080602001828103825283818151815260200191508051906020019080838360005b83811015616b0f578082015181840152602081019050616af4565b50505050905090810190601f168015616b3c5780820380516001836020036101000a031916815260200191505b509250505060405180910390fd5b9392505050565b828054828255906000526020600020908101928215616bca579160200282015b82811115616bc95782518260006101000a81548173ffffffffffffffffffffffffffffffffffffffff021916908373ffffffffffffffffffffffffffffffffffffffff16021790555091602001919060010190616b71565b5b509050616bd79190616bdb565b5090565b5b80821115616c1257600081816101000a81549073ffffffffffffffffffffffffffffffffffffffff021916905550600101616bdc565b509056fe5969656c64536f757263655072697a65506f6f6c2f696e76616c69642d7969656c642d736f757263654f776e61626c653a206e6577206f776e657220697320746865207a65726f206164647265737353616665436173743a2076616c756520646f65736e27742066697420696e2031323820626974735072697a65506f6f6c2f7265736572766552656769737472792d6e6f742d7a65726f416464726573733a20696e73756666696369656e742062616c616e636520666f722063616c6c496e697469616c697a61626c653a20636f6e747261637420697320616c726561647920696e697469616c697a6564536166654d6174683a206d756c7469706c69636174696f6e206f766572666c6f775072697a65506f6f6c2f657869742d6665652d657863656564732d757365722d6d6178696d756d53616665436173743a2076616c756520646f65736e27742066697420696e20333220626974735361666545524332303a204552433230206f7065726174696f6e20646964206e6f7420737563636565645969656c64536f757263655072697a65506f6f6c2f7969656c642d736f757263652d6e6f742d636f6e74726163742d616464726573735361666545524332303a20617070726f76652066726f6d206e6f6e2d7a65726f20746f206e6f6e2d7a65726f20616c6c6f77616e6365a264697066735822122089bfddbf693d6a92554159c0a59433d24b618a11e64354b1b55c20eb68c73aa564736f6c634300060c0033",
  "linkReferences": {},
  "deployedLinkReferences": {}
}