{
  "_format": "hh-sol-artifact-1",
  "contractName": "Constants",
  "sourceName": "contracts/Constants.sol",
  "abi": [
    {
      "inputs": [],
      "name": "ACCEPT_MAGIC",
      "outputs": [
        {
          "internalType": "bytes32",
          "name": "",
          "type": "bytes32"
        }
      ],
      "stateMutability": "view",
      "type": "function"
    },
    {
      "inputs": [],
      "name": "ERC165_INTERFACE_ID_ERC165",
      "outputs": [
        {
          "internalType": "bytes4",
          "name": "",
          "type": "bytes4"
        }
      ],
      "stateMutability": "view",
      "type": "function"
    },
    {
      "inputs": [],
      "name": "ERC165_INTERFACE_ID_ERC721",
      "outputs": [
        {
          "internalType": "bytes4",
          "name": "",
          "type": "bytes4"
        }
      ],
      "stateMutability": "view",
      "type": "function"
    },
    {
      "inputs": [],
      "name": "REGISTRY",
      "outputs": [
        {
          "internalType": "contract IERC1820RegistryUpgradeable",
          "name": "",
          "type": "IERC1820RegistryUpgradeable"
        }
      ],
      "stateMutability": "view",
      "type": "function"
    },
    {
      "inputs": [],
      "name": "TOKENS_RECIPIENT_INTERFACE_HASH",
      "outputs": [
        {
          "internalType": "bytes32",
          "name": "",
          "type": "bytes32"
        }
      ],
      "stateMutability": "view",
      "type": "function"
    },
    {
      "inputs": [],
      "name": "TOKENS_SENDER_INTERFACE_HASH",
      "outputs": [
        {
          "internalType": "bytes32",
          "name": "",
          "type": "bytes32"
        }
      ],
      "stateMutability": "view",
      "type": "function"
    }
  ],
  "bytecode": "0x610252610026600b82828239805160001a60731461001957fe5b30600052607381538281f3fe730000000000000000000000000000000000000000301460806040526004361061006c5760003560e01c806306433b1b146100715780634e39bfb6146100a5578063669b0532146100c357806372581cc0146100e1578063a5ab436d146100ff578063c92669ed1461013c575b600080fd5b610079610179565b604051808273ffffffffffffffffffffffffffffffffffffffff16815260200191505060405180910390f35b6100ad610191565b6040518082815260200191505060405180910390f35b6100cb6101b8565b6040518082815260200191505060405180910390f35b6100e96101df565b6040518082815260200191505060405180910390f35b610107610206565b60405180827bffffffffffffffffffffffffffffffffffffffffffffffffffffffff1916815260200191505060405180910390f35b610144610211565b60405180827bffffffffffffffffffffffffffffffffffffffffffffffffffffffff1916815260200191505060405180910390f35b731820a4b7618bde71dce8cdc73aab6c95905fad2481565b7fa2ef4600d742022d532d4747cb3547474667d6f13804902513b2ec01c848f4b460001b81565b7f29ddb589b1fb5fc7cf394961c1adf5f8c6454761adf795e67fe149f658abe89560001b81565b7fb281fc8c12954d22544db45de3159a39272895b169a852b314f9cc762e44c53b60001b81565b6301ffc9a760e01b81565b6380ac58cd60e01b8156fea264697066735822122030aff6e77fa600022a756deaadc126ed1ac953d53e685dde2e9046adb5dde8c264736f6c634300060c0033",
  "linkReferences": {},
  "deployedLinkReferences": {}
}