{
  "_format": "hh-sol-artifact-1",
  "contractName": "MultipleWinnersHarnessProxyFactory",
  "sourceName": "contracts/test/MultipleWinnersHarnessProxyFactory.sol",
  "abi": [
    {
      "inputs": [],
      "stateMutability": "nonpayable",
      "type": "constructor"
    },
    {
      "anonymous": false,
      "inputs": [
        {
          "indexed": false,
          "internalType": "address",
          "name": "proxy",
          "type": "address"
        }
      ],
      "name": "ProxyCreated",
      "type": "event"
    },
    {
      "inputs": [],
      "name": "create",
      "outputs": [
        {
          "internalType": "contract MultipleWinnersHarness",
          "name": "",
          "type": "address"
        }
      ],
      "stateMutability": "nonpayable",
      "type": "function"
    },
    {
      "inputs": [
        {
          "internalType": "address",
          "name": "_logic",
          "type": "address"
        },
        {
          "internalType": "bytes",
          "name": "_data",
          "type": "bytes"
        }
      ],
      "name": "deployMinimal",
      "outputs": [
        {
          "internalType": "address",
          "name": "proxy",
          "type": "address"
        }
      ],
      "stateMutability": "nonpayable",
      "type": "function"
    },
    {
      "inputs": [],
      "name": "instance",
      "outputs": [
        {
          "internalType": "contract MultipleWinnersHarness",
          "name": "",
          "type": "address"
        }
      ],
      "stateMutability": "view",
      "type": "function"
    }
  ],
  "bytecode": "0x608060405234801561001057600080fd5b5060405161001d9061005f565b604051809103906000f080158015610039573d6000803e3d6000fd5b50600080546001600160a01b0319166001600160a01b039290921691909117905561006c565b614bb4806103b283390190565b6103378061007b6000396000f3fe608060405234801561001057600080fd5b50600436106100415760003560e01c8063022ec09514610046578063b3eeb5e21461006a578063efc81a8c14610120575b600080fd5b61004e610128565b604080516001600160a01b039092168252519081900360200190f35b61004e6004803603604081101561008057600080fd5b6001600160a01b0382351691908101906040810160208201356401000000008111156100ab57600080fd5b8201836020820111156100bd57600080fd5b803590602001918460018302840111640100000000831117156100df57600080fd5b91908080601f016020809104026020016040519081016040528093929190818152602001838380828437600092019190915250929550610137945050505050565b61004e6102b3565b6000546001600160a01b031681565b6000808360601b9050604051733d602d80600a3d3981f3363d3d373d3d3d363d7360601b81528160148201526e5af43d82803e903d91602b57fd5bf360881b60288201526037816000f0604080516001600160a01b038316815290519194507efffc2da0b561cae30d9826d37709e9421c4725faebc226cbbb7ef5fc5e7349925081900360200190a18251156102ac576000826001600160a01b0316846040518082805190602001908083835b602083106102035780518252601f1990920191602091820191016101e4565b6001836020036101000a0380198251168184511680821785525050505050509050019150506000604051808303816000865af19150503d8060008114610265576040519150601f19603f3d011682016040523d82523d6000602084013e61026a565b606091505b50509050806102aa5760405162461bcd60e51b81526004018080602001828103825260248152602001806102de6024913960400191505060405180910390fd5b505b5092915050565b6000805460408051602081019091528281526102d8916001600160a01b031690610137565b90509056fe50726f7879466163746f72792f636f6e7374727563746f722d63616c6c2d6661696c6564a2646970667358221220b4b4952f47bf8484dc1d05447614647470270c81e68c7588e9c79a7a4990b1d964736f6c634300060c0033608060405234801561001057600080fd5b50614b94806100206000396000f3fe608060405234801561001057600080fd5b506004361061035d5760003560e01c806372f33ea9116101d3578063b024468211610104578063d5ad6bf6116100a2578063f2fde38b1161007c578063f2fde38b14610676578063f48af35214610689578063fbf0953e1461069c578063ffa1ad74146106af5761035d565b8063d5ad6bf614610646578063dfb2f13b1461064e578063eefc8ad1146106565761035d565b8063c2f19ee8116100de578063c2f19ee81461061b578063c42b42a014610623578063c48ddbcb1461062b578063d18e81b31461063e5761035d565b8063b0244682146105e2578063b2210957146105f5578063c25a9c32146106085761035d565b80638e204c43116101715780639417783f1161014b5780639417783f146105a757806395e5f9ee146105265780639dafafb0146105c7578063a4e075ca146105cf5761035d565b80638e204c431461057957806391c05b0b1461058c57806394144c6b1461059f5761035d565b80638aa3ec6f116101ad5780638aa3ec6f146105415780638acfaca9146105545780638d5f10c41461055c5780638da5cb5b146105715761035d565b806372f33ea91461051e578063876f5c7e14610526578063884a44481461052e5761035d565b80634d7f3db0116102ad578063671137c41161024b5780636dfb0386116102255780636dfb0386146104f35780636f46f22114610506578063715018a61461050e578063719ce73e146105165761035d565b8063671137c4146104d05780636be51c4f146104e35780636cc25db7146104eb5761035d565b806352a301091161028757806352a301091461048f578063605e25ac146104a257806362c77a61146104b557806366968221146104bd5761035d565b80634d7f3db0146104615780634e5d08e014610474578063500db70d146104875761035d565b8063152d308c1161031a57806330fcdf41116102f457806330fcdf411461041357806338a9b4b61461042657806342d092091461043957806347bed9981461044e5761035d565b8063152d308c146103e557806322f8e566146103f85780632c8fe73d1461040b5761035d565b806301b48e341461036257806301ffc9a71461038b578063035d09f8146103ab5780630c949043146103c05780630d847fc4146103c85780630faf125f146103dd575b600080fd5b610375610370366004613d3d565b6106c4565b6040516103829190613efd565b60405180910390f35b61039e610399366004613c46565b6106dd565b604051610382919061411f565b6103be6103b9366004613e52565b610713565b005b6103756107bf565b6103d06107de565b6040516103829190613f06565b6103756107ed565b61039e6103f3366004613a42565b6107f3565b6103be610406366004613d3d565b610899565b61037561089e565b6103be6104213660046139b8565b6108ae565b6103be610434366004613c0e565b61097e565b610441610a0c565b604051610382919061401e565b61037561045c366004613d3d565b610a18565b6103be61046f366004613a7a565b610a23565b6103be6104823660046139b8565b610add565b6103d0610b72565b61039e61049d366004613d3d565b610b81565b6103be6104b03660046139b8565b610c07565b610441610ce0565b6103be6104cb366004613b5e565b610cec565b6103be6104de366004613c6e565b610db6565b6103d0610e0e565b6103d0610e1d565b6103be610501366004613d3d565b610e2c565b61039e610e74565b6103be610e7d565b6103d0610f06565b610375610f15565b61039e610f1b565b6103be61053c366004613d3d565b610f25565b6103be61054f3660046139b8565b610f6d565b61037561103d565b610564611043565b604051610382919061406b565b6103d06110c8565b61039e6105873660046139b8565b6110d7565b6103be61059a366004613d3d565b6110ec565b6103756110f5565b6105ba6105b53660046139b8565b6110fb565b60405161038291906140e7565b61039e611167565b61039e6105dd366004613c0e565b611170565b6103be6105f0366004613c6e565b6111ef565b6103be6106033660046139f0565b611272565b6103be610616366004613b9e565b611325565b6103d06116b4565b6103756116c3565b6103be610639366004613c9b565b611740565b61037561192d565b610375611933565b6103be61193d565b610669610664366004613d3d565b611ae1565b60405161038291906149fb565b6103be6106843660046139b8565b611b46565b6103be610697366004613d6d565b611c07565b6103be6106aa366004613d09565b611e27565b6106b7611fc6565b604051610382919061413f565b60006106d76106d1611fe7565b83612024565b92915050565b60006001600160e01b031982166301ffc9a760e01b14806106d75750506001600160e01b031916600162a1cb1960e01b03191490565b600054610100900460ff168061072c575061072c61204d565b8061073a575060005460ff16155b61075f5760405162461bcd60e51b8152600401610756906145d5565b60405180910390fd5b600054610100900460ff1615801561078a576000805460ff1961ff0019909116610100171660011790555b606061079a888888888886611c07565b6107a38361205e565b5080156107b6576000805461ff00191690555b50505050505050565b60008060405160208160208460ff600019fa6107d757fe5b5192915050565b6070546001600160a01b031681565b60775481565b60006107fd6120b3565b6001600160a01b031661080e6110c8565b6001600160a01b0316146108345760405162461bcd60e51b815260040161075690614716565b6001600160a01b03831660008181526075602052604090819020805460ff1916851515179055517fd1ac9a365c0e3bfad562e0a809a5ded3842a2b489f839b3327e4e34ee0128f289061088890859061411f565b60405180910390a250600192915050565b607855565b60006108a86120b7565b90505b90565b6108b66120b3565b6001600160a01b03166108c76110c8565b6001600160a01b0316146108ed5760405162461bcd60e51b815260040161075690614716565b6001600160a01b038116158061091857506109186001600160a01b03821663266fce1f60e11b6120d0565b6109345760405162461bcd60e51b8152600401610756906147c4565b607080546001600160a01b0319166001600160a01b0383169081179091556040517fc4feff61630891ea2cb42a54fbe3ff2e65422f2ed17323ac6b65f4521112e87e90600090a250565b6109866120b3565b6001600160a01b03166109976110c8565b6001600160a01b0316146109bd5760405162461bcd60e51b815260040161075690614716565b6074805460ff191682151517908190556040517f6959d02e8fb6264d1d39bf37f1e725001f342714933cf38f8627a2442efc43fd91610a019160ff9091169061411f565b60405180910390a150565b60606108a8606d6120f3565b60006106d7826121d3565b6066546001600160a01b0316610a376120b3565b6001600160a01b031614610a5d5760405162461bcd60e51b815260040161075690614407565b6065546001600160a01b031615610ad7576065546040516304d7f3db60e41b81526001600160a01b0390911690634d7f3db090610aa4908790879087908790600401613ff3565b600060405180830381600087803b158015610abe57600080fd5b505af1158015610ad2573d6000803e3d6000fd5b505050505b50505050565b610ae56110c8565b6001600160a01b0316610af66120b3565b6001600160a01b03161480610b2557506071546001600160a01b0316610b1a6120b3565b6001600160a01b0316145b80610b4a57506070546001600160a01b0316610b3f6120b3565b6001600160a01b0316145b610b665760405162461bcd60e51b81526004016107569061429e565b610b6f8161221a565b50565b6068546001600160a01b031681565b6000610b8b6120b3565b6001600160a01b0316610b9c6110c8565b6001600160a01b031614610bc25760405162461bcd60e51b815260040161075690614716565b60778290556040517f63e4e34f49d12428c03e04e61340c7167e36eb0ff6f0b1970c7544026179403990610bf7908490613efd565b60405180910390a1506001919050565b610c0f6120b3565b6001600160a01b0316610c206110c8565b6001600160a01b031614610c465760405162461bcd60e51b815260040161075690614716565b6001600160a01b0381161580610c745750610c746001600160a01b038216600162a1cb1960e01b03196120d0565b610c905760405162461bcd60e51b8152600401610756906141b6565b606580546001600160a01b0319166001600160a01b0383811691909117918290556040519116907f9fc437aa70ad4ee5f33f6772bf338eed41e21b95435820817ab8b4df161ce4dd90600090a250565b60606108a8606b6120f3565b610cf46110c8565b6001600160a01b0316610d056120b3565b6001600160a01b03161480610d3457506071546001600160a01b0316610d296120b3565b6001600160a01b0316145b80610d5957506070546001600160a01b0316610d4e6120b3565b6001600160a01b0316145b610d755760405162461bcd60e51b81526004016107569061429e565b60005b81811015610db157610da9838383818110610d8f57fe5b9050602002016020810190610da491906139b8565b61221a565b600101610d78565b505050565b610dbe6120b3565b6001600160a01b0316610dcf6110c8565b6001600160a01b031614610df55760405162461bcd60e51b815260040161075690614716565b610e01606d82846123ce565b610e0a82612498565b5050565b6065546001600160a01b031681565b6067546001600160a01b031681565b610e346120b3565b6001600160a01b0316610e456110c8565b6001600160a01b031614610e6b5760405162461bcd60e51b815260040161075690614716565b610b6f8161205e565b60765460ff1681565b610e856120b3565b6001600160a01b0316610e966110c8565b6001600160a01b031614610ebc5760405162461bcd60e51b815260040161075690614716565b6033546040516000916001600160a01b0316907f8be0079c531659141344cd1fd0a4f28419497f9722a3daafe3b4186f6b6457e0908390a3603380546001600160a01b0319169055565b6066546001600160a01b031681565b606a5481565b60006108a86124f0565b610f2d6120b3565b6001600160a01b0316610f3e6110c8565b6001600160a01b031614610f645760405162461bcd60e51b815260040161075690614716565b610b6f81612509565b610f756120b3565b6001600160a01b0316610f866110c8565b6001600160a01b031614610fac5760405162461bcd60e51b815260040161075690614716565b6001600160a01b0381161580610fd75750610fd76001600160a01b038216632ba8396360e11b6120d0565b610ff35760405162461bcd60e51b81526004016107569061491b565b607180546001600160a01b0319166001600160a01b0383169081179091556040517fda05d50a3a1ec0ffab059f1d457ae59f68ccfb3ffbb4dad283c516f9103d584b90600090a250565b60735490565b60606072805480602002602001604051908101604052809291908181526020016000905b828210156110bf57600084815260209081902060408051606081018252918501546001600160a01b0381168352600160a01b810461ffff1683850152600160b01b900460ff1690820152825260019092019101611067565b50505050905090565b6033546001600160a01b031690565b60756020526000908152604090205460ff1681565b610b6f8161255e565b60695481565b6001600160a01b0381166000908152606f602090815260409182902080548351818402810184019094528084526060939283018282801561115b57602002820191906000526020600020905b815481526020019060010190808311611147575b50505050509050919050565b60745460ff1681565b600061117a6120b3565b6001600160a01b031661118b6110c8565b6001600160a01b0316146111b15760405162461bcd60e51b815260040161075690614716565b6076805460ff19168315151790556040517f2b4b6ffe286f7ce4ccc6b136bb14987b0a00092174d88938a0c667a104a4a73190610bf790849061411f565b6111f76120b3565b6001600160a01b03166112086110c8565b6001600160a01b03161461122e5760405162461bcd60e51b815260040161075690614716565b61123a606b82846123ce565b6040516001600160a01b038316907f58982464497acdab11ad29d39907e076b0d3b8daf1d9b734174c7c3a2a0e8c7490600090a25050565b6066546001600160a01b03166112866120b3565b6001600160a01b0316146112ac5760405162461bcd60e51b815260040161075690614407565b826001600160a01b0316846001600160a01b031614156112de5760405162461bcd60e51b81526004016107569061444c565b6065546001600160a01b031615610ad75760655460405163b221095760e01b81526001600160a01b039091169063b221095790610aa4908790879087908790600401613fa5565b61132d6120b3565b6001600160a01b031661133e6110c8565b6001600160a01b0316146113645760405162461bcd60e51b815260040161075690614716565b8060005b81811015611609576113786138ac565b84848381811061138457fe5b90506060020180360381019061139a9190613cee565b90506001816040015160ff1611156113c45760405162461bcd60e51b81526004016107569061436b565b80516001600160a01b03166113eb5760405162461bcd60e51b815260040161075690614549565b6072548210611487576072805460018101825560009190915281517fdffbd64cc7c1a7eb27984335d9416d51137a03d3fabec7141025c62663253fe190910180546020840151604085015160ff16600160b01b0260ff60b01b1961ffff909216600160a01b0261ffff60a01b196001600160a01b039096166001600160a01b0319909416939093179490941691909117169190911790556115ae565b61148f6138ac565b6072838154811061149c57fe5b60009182526020918290206040805160608101825292909101546001600160a01b03808216808552600160a01b830461ffff1695850195909552600160b01b90910460ff169183019190915284519193501614158061150b5750806020015161ffff16826020015161ffff1614155b806115245750806040015160ff16826040015160ff1614155b156115a557816072848154811061153757fe5b6000918252602091829020835191018054928401516040909401516001600160a01b03199093166001600160a01b039092169190911761ffff60a01b1916600160a01b61ffff909416939093029290921760ff60b01b1916600160b01b60ff909216919091021790556115ac565b5050611601565b505b80600001516001600160a01b03167fc1bf93444a0055a24a7d0154b75fedf78edfe355c06a2ce8e47f9f390872055982602001518360400151856040516115f793929190614a09565b60405180910390a2505b600101611368565b505b60725481101561168657607254600090611626906001612aeb565b9050607280548061163357fe5b600082815260208120820160001990810180546001600160b81b031916905590910190915560405182917f99fa473fdf53414bcd014cf6e7509fc58c68f7b86174767faa6ad5100cd5bae591a25061160b565b6000611690612b13565b90506103e8811115610ad75760405162461bcd60e51b815260040161075690614771565b6071546001600160a01b031681565b606654604080516318c1996d60e21b815290516000926001600160a01b03169163630665b4916004808301926020929190829003018186803b15801561170857600080fd5b505afa15801561171c573d6000803e3d6000fd5b505050506040513d601f19601f820116820180604052508101906108a89190613d55565b6117486110c8565b6001600160a01b03166117596120b3565b6001600160a01b0316148061178857506071546001600160a01b031661177d6120b3565b6001600160a01b0316145b806117ad57506070546001600160a01b03166117a26120b3565b6001600160a01b0316145b6117c95760405162461bcd60e51b81526004016107569061429e565b606654604051636a3fd4f960e01b81526001600160a01b0390911690636a3fd4f9906117f9908690600401613f06565b60206040518083038186803b15801561181157600080fd5b505afa158015611825573d6000803e3d6000fd5b505050506040513d601f19601f820116820180604052508101906118499190613c2a565b6118655760405162461bcd60e51b815260040161075690614815565b61187f6001600160a01b0384166380ac58cd60e01b6120d0565b61189b5760405162461bcd60e51b815260040161075690614172565b6118a6606d84612ba5565b6118b5576118b5606d84612bf6565b60005b818110156118e4576118dc848484848181106118d057fe5b90506020020135612cbe565b6001016118b8565b50826001600160a01b03167f51541dc4b4c08a16085809cccdc4cc77d8000b60fbb00142e57f236d8429867583836040516119209291906140ad565b60405180910390a2505050565b60785481565b60006108a8611fe7565b60006119476107bf565b6070549091506001600160a01b0316156119c257607054606a5460405163266fce1f60e11b81526001600160a01b0390921691634cdf9c3e9161198f91859190600401614a47565b600060405180830381600087803b1580156119a957600080fd5b505af11580156119bd573d6000803e3d6000fd5b505050505b6119cb8161255e565b6071546001600160a01b031615611a4357607154606a54604051632ba8396360e11b81526001600160a01b039092169163575072c691611a1091859190600401614a47565b600060405180830381600087803b158015611a2a57600080fd5b505af1158015611a3e573d6000803e3d6000fd5b505050505b611a53611a4e612e0f565b6121d3565b606a55611a5e6120b3565b6001600160a01b03167f9c4163ece98173eab9a496c4db8bf3e2c8edcc5d2854377880597ccb858b7a9d82604051611a969190613efd565b60405180910390a2606a54611aa96120b3565b6001600160a01b03167fc61852c20f0b03b31d782f3022f2bf20322ac17ce66c5349fb6e24740cdd645660405160405180910390a350565b611ae96138ac565b60728281548110611af657fe5b60009182526020918290206040805160608101825292909101546001600160a01b0381168352600160a01b810461ffff1693830193909352600160b01b90920460ff169181019190915292915050565b611b4e6120b3565b6001600160a01b0316611b5f6110c8565b6001600160a01b031614611b855760405162461bcd60e51b815260040161075690614716565b6001600160a01b038116611bab5760405162461bcd60e51b815260040161075690614258565b6033546040516001600160a01b038084169216907f8be0079c531659141344cd1fd0a4f28419497f9722a3daafe3b4186f6b6457e090600090a3603380546001600160a01b0319166001600160a01b0392909216919091179055565b600054610100900460ff1680611c205750611c2061204d565b80611c2e575060005460ff16155b611c4a5760405162461bcd60e51b8152600401610756906145d5565b600054610100900460ff16158015611c75576000805460ff1961ff0019909116610100171660011790555b6001600160a01b038516611c9b5760405162461bcd60e51b8152600401610756906144c9565b6001600160a01b038416611cc15760405162461bcd60e51b8152600401610756906148d6565b6001600160a01b038316611ce75760405162461bcd60e51b815260040161075690614321565b606680546001600160a01b038088166001600160a01b031992831617909255606780548784169083161790556068805492861692909116919091179055611d2d86612509565b611d35612e15565b611d3f606b612ea7565b60005b8251811015611d6f57611d67838281518110611d5a57fe5b602002602001015161221a565b600101611d42565b506069869055606a879055611d84606d612ea7565b846001600160a01b03167f08df3eb19fd45e75c3427461686799fdfd60a8c9a1d0880105960f65a513ce748888878787604051611dc5959493929190614a55565b60405180910390a2606a54611dd86120b3565b6001600160a01b03167fc61852c20f0b03b31d782f3022f2bf20322ac17ce66c5349fb6e24740cdd645660405160405180910390a380156107b6576000805461ff001916905550505050505050565b611e2f6120b3565b6001600160a01b0316611e406110c8565b6001600160a01b031614611e665760405162461bcd60e51b815260040161075690614716565b60725460ff821610611e8a5760405162461bcd60e51b815260040161075690614623565b6001826040015160ff161115611eb25760405162461bcd60e51b81526004016107569061436b565b81516001600160a01b0316611ed95760405162461bcd60e51b815260040161075690614549565b8160728260ff1681548110611eea57fe5b600091825260208083208451920180549185015160409095015160ff16600160b01b0260ff60b01b1961ffff909616600160a01b0261ffff60a01b196001600160a01b039095166001600160a01b03199094169390931793909316919091179390931617909155611f59612b13565b90506103e8811115611f7d5760405162461bcd60e51b815260040161075690614771565b82600001516001600160a01b03167fc1bf93444a0055a24a7d0154b75fedf78edfe355c06a2ce8e47f9f3908720559846020015185604001518560405161192093929190614a28565b60405180604001604052806005815260200164332e342e3160d81b81525081565b600080611ff26120b7565b90506000611ffe612e0f565b905081811115612013576000925050506108ab565b61201d8282612aeb565b9250505090565b600080612039670de0b6b3a764000085612eeb565b90506120458184612f25565b949350505050565b600061205830612f67565b15905090565b6000811161207e5760405162461bcd60e51b81526004016107569061469e565b60738190556040517fc44c7222e8df09744ced394101df47e78dedb642d3065267bb388901de9df6d490610a01908390613efd565b3390565b60006108a8606954606a54612f6d90919063ffffffff16565b60006120db83612f92565b80156120ec57506120ec8383612fc5565b9392505050565b606080826000015467ffffffffffffffff8111801561211157600080fd5b5060405190808252806020026020018201604052801561213b578160200160208202803683370190505b50600160008181529085016020526040812054919250906001600160a01b03165b6001600160a01b0381161580159061217e57506001600160a01b038116600114155b156121ca578083838151811061219057fe5b6001600160a01b0392831660209182029290920181019190915291811660009081526001808801909352604090205492909101911661215c565b50909392505050565b6000806121f76069546121f1606a5486612aeb90919063ffffffff16565b90612feb565b90506120ec61221160695483612eeb90919063ffffffff16565b606a5490612f6d565b61222c816001600160a01b0316612f67565b6122485760405162461bcd60e51b815260040161075690614669565b606654604051636a3fd4f960e01b81526001600160a01b0390911690636a3fd4f990612278908490600401613f06565b60206040518083038186803b15801561229057600080fd5b505afa1580156122a4573d6000803e3d6000fd5b505050506040513d601f19601f820116820180604052508101906122c89190613c2a565b6122e45760405162461bcd60e51b815260040161075690614815565b60408051600481526024810182526020810180516001600160e01b03166318160ddd60e01b17905290516000916060916001600160a01b0385169161232891613ee1565b600060405180830381855afa9150503d8060008114612363576040519150601f19603f3d011682016040523d82523d6000602084013e612368565b606091505b50915091508161238a5760405162461bcd60e51b815260040161075690614592565b612395606b84612bf6565b6040516001600160a01b038416907fbcd6d991f3416e288bf59a2997b423772937b62c7ea7dd1a54af7771de1f741890600090a2505050565b6001600160a01b0381166001148015906123f057506001600160a01b03811615155b61240c5760405162461bcd60e51b815260040161075690614202565b6001600160a01b03828116600090815260018501602052604090205481169082161461244a5760405162461bcd60e51b81526004016107569061422b565b6001600160a01b039081166000818152600185016020526040808220805495851683529082208054959094166001600160a01b03199586161790935552805490911690558054600019019055565b6001600160a01b0381166000908152606f602052604081206124b9916138cc565b6040516001600160a01b038216907fcd64d9dacd230c5ccf1278ea5332b0621aa28c950fb0e61c8fbc9e2011c88a3490600090a250565b60006124fa6120b7565b612502612e0f565b1015905090565b600081116125295760405162461bcd60e51b8152600401610756906143b3565b60698190556040517f0d379c1a7282461e725a9dc2d74e65246c77e98ae93835e26c2f1654c48ee4ec90610a01908390613efd565b6066546040805163e6d8a94b60e01b815290516000926001600160a01b03169163e6d8a94b91600480830192602092919082900301818787803b1580156125a457600080fd5b505af11580156125b8573d6000803e3d6000fd5b505050506040513d601f19601f820116820180604052508101906125dc9190613d55565b90506125e78161301d565b9050606760009054906101000a90046001600160a01b03166001600160a01b03166318160ddd6040518163ffffffff1660e01b815260040160206040518083038186803b15801561263757600080fd5b505afa15801561264b573d6000803e3d6000fd5b505050506040513d601f19601f8201168201806040525081019061266f9190613d55565b6126a2576040517f3728feb3fc1ef1bf4a24036afbe7d34b59c551bf0d2ab5564e87ec1734fa80dd90600090a150610b6f565b60765460735460ff9091169060608167ffffffffffffffff811180156126c757600080fd5b506040519080825280602002602001820160405280156126f1578160200160208202803683370190505b50607754909150859060009081905b8583101561289c57606754604051633b30414760e01b81526000916001600160a01b031690633b30414790612739908890600401613efd565b60206040518083038186803b15801561275157600080fd5b505afa158015612765573d6000803e3d6000fd5b505050506040513d601f19601f8201168201806040525081019061278991906139d4565b6001600160a01b03811660009081526075602052604090205490915060ff166127e457808685806001019650815181106127bf57fe5b60200260200101906001600160a01b031690816001600160a01b03168152505061285d565b81836001019350831061285d577fb5f728fcb182000eb8e953c15f6795f07b6cda75b35ef0b65645b53aac636945846040516128209190613efd565b60405180910390a183612857576040517f3728feb3fc1ef1bf4a24036afbe7d34b59c551bf0d2ab5564e87ec1734fa80dd90600090a15b5061289c565b60008461020902866101f3010160405160200161287a9190613efd565b60408051601f1981840301815291905280516020909101209550612700915050565b6128b9856000815181106128ac57fe5b60200260200101516130ca565b6000876128cf576128ca8985612feb565b6128d9565b6128d98988612feb565b905080156129135760005b84811015612911576129098782815181106128fb57fe5b60200260200101518361323a565b6001016128e4565b505b60745460ff1615612ac257600061292a606b6132a7565b90505b6001600160a01b03811615801590612960575061294a606b6132c4565b6001600160a01b0316816001600160a01b031614155b15612abc576066546040516370a0823160e01b81526000916001600160a01b03808516926370a0823192612998921690600401613f06565b60206040518083038186803b1580156129b057600080fd5b505afa1580156129c4573d6000803e3d6000fd5b505050506040513d601f19601f820116820180604052508101906129e89190613d55565b905060008a612a00576129fb8288612feb565b612a0a565b612a0a828b612feb565b90508015612aa85760005b87811015612aa6576066548a516001600160a01b0390911690632b0ab144908c9084908110612a4057fe5b602002602001015186856040518463ffffffff1660e01b8152600401612a6893929190613f81565b600060405180830381600087803b158015612a8257600080fd5b505af1158015612a96573d6000803e3d6000fd5b505060019092019150612a159050565b505b612ab3606b846132ca565b9250505061292d565b50612adf565b612adf86600081518110612ad257fe5b60200260200101516132ed565b50505050505050505050565b600082821115612b0d5760405162461bcd60e51b815260040161075690614492565b50900390565b6072546000908190815b818160ff161015612b9d57612b306138ac565b60728260ff1681548110612b4057fe5b60009182526020918290206040805160608101825292909101546001600160a01b0381168352600160a01b810461ffff16938301849052600160b01b900460ff16908201529150612b92908590612f6d565b935050600101612b1d565b509091505090565b60006001600160a01b038216600114801590612bc957506001600160a01b03821615155b80156120ec5750506001600160a01b03908116600090815260019290920160205260409091205416151590565b6001600160a01b038116600114801590612c1857506001600160a01b03811615155b612c345760405162461bcd60e51b815260040161075690614202565b6001600160a01b0381811660009081526001840160205260409020541615612c6e5760405162461bcd60e51b815260040161075690614860565b60016000818152838201602052604080822080546001600160a01b039586168085529284208054969091166001600160a01b03199687161790559183905281549093169092179091558154019055565b6066546040516331a9108f60e11b81526001600160a01b0391821691841690636352211e90612cf1908590600401613efd565b60206040518083038186803b158015612d0957600080fd5b505afa158015612d1d573d6000803e3d6000fd5b505050506040513d601f19601f82011682018060405250810190612d4191906139d4565b6001600160a01b031614612d675760405162461bcd60e51b8152600401610756906149b4565b60005b6001600160a01b0383166000908152606f6020526040902054811015612de2576001600160a01b0383166000908152606f60205260409020805483919083908110612db157fe5b90600052602060002001541415612dda5760405162461bcd60e51b81526004016107569061496e565b600101612d6a565b506001600160a01b039091166000908152606f602090815260408220805460018101825590835291200155565b60785490565b600054610100900460ff1680612e2e5750612e2e61204d565b80612e3c575060005460ff16155b612e585760405162461bcd60e51b8152600401610756906145d5565b600054610100900460ff16158015612e83576000805460ff1961ff0019909116610100171660011790555b612e8b613439565b612e936134ba565b8015610b6f576000805461ff001916905550565b805415612ec65760405162461bcd60e51b81526004016107569061474b565b60016000818152918101602052604090912080546001600160a01b0319169091179055565b600082612efa575060006106d7565b82820282848281612f0757fe5b04146120ec5760405162461bcd60e51b8152600401610756906146d5565b60006120ec83836040518060400160405280601a81526020017f536166654d6174683a206469766973696f6e206279207a65726f000000000000815250613594565b3b151590565b6000828201838110156120ec5760405162461bcd60e51b8152600401610756906142ea565b6000612fa5826301ffc9a760e01b612fc5565b80156106d75750612fbe826001600160e01b0319612fc5565b1592915050565b6000806000612fd485856135cb565b91509150818015612fe25750805b95945050505050565b600080821161300c5760405162461bcd60e51b815260040161075690614512565b81838161301557fe5b049392505050565b6072546000908290825b818110156130c1576130376138ac565b6072828154811061304457fe5b600091825260208083206040805160608101825293909101546001600160a01b0381168452600160a01b810461ffff16928401839052600160b01b900460ff16908301529092506130969086906136c0565b90506130ab82600001518284604001516136d4565b6130b58782612aeb565b96505050600101613027565b50929392505050565b60006130d6606d6132a7565b90505b6001600160a01b0381161580159061310c57506130f6606d6132c4565b6001600160a01b0316816001600160a01b031614155b15613230576066546040516370a0823160e01b81526000916001600160a01b03808516926370a0823192613144921690600401613f06565b60206040518083038186803b15801561315c57600080fd5b505afa158015613170573d6000803e3d6000fd5b505050506040513d601f19601f820116820180604052508101906131949190613d55565b9050801561321d576066546001600160a01b038381166000908152606f60205260409081902090516316960d5560e01b815291909216916316960d55916131e2918791879190600401613f1a565b600060405180830381600087803b1580156131fc57600080fd5b505af1158015613210573d6000803e3d6000fd5b5050505061321d82612498565b613228606d836132ca565b9150506130d9565b610e0a606d6136df565b60665460675460405163358dc31d60e11b81526001600160a01b0392831692636b1b863a9261327192879287921690600401613fd0565b600060405180830381600087803b15801561328b57600080fd5b505af115801561329f573d6000803e3d6000fd5b505050505050565b60016000818152910160205260409020546001600160a01b031690565b50600190565b6001600160a01b0380821660009081526001840160205260409020541692915050565b60006132f9606b6132a7565b90505b6001600160a01b0381161580159061332f5750613319606b6132c4565b6001600160a01b0316816001600160a01b031614155b15610e0a576066546040516370a0823160e01b81526000916001600160a01b03808516926370a0823192613367921690600401613f06565b60206040518083038186803b15801561337f57600080fd5b505afa158015613393573d6000803e3d6000fd5b505050506040513d601f19601f820116820180604052508101906133b79190613d55565b9050801561342657606654604051630ac2ac5160e21b81526001600160a01b0390911690632b0ab144906133f390869086908690600401613f81565b600060405180830381600087803b15801561340d57600080fd5b505af1158015613421573d6000803e3d6000fd5b505050505b613431606b836132ca565b9150506132fc565b600054610100900460ff1680613452575061345261204d565b80613460575060005460ff16155b61347c5760405162461bcd60e51b8152600401610756906145d5565b600054610100900460ff16158015612e93576000805460ff1961ff0019909116610100171660011790558015610b6f576000805461ff001916905550565b600054610100900460ff16806134d357506134d361204d565b806134e1575060005460ff16155b6134fd5760405162461bcd60e51b8152600401610756906145d5565b600054610100900460ff16158015613528576000805460ff1961ff0019909116610100171660011790555b60006135326120b3565b603380546001600160a01b0319166001600160a01b038316908117909155604051919250906000907f8be0079c531659141344cd1fd0a4f28419497f9722a3daafe3b4186f6b6457e0908290a3508015610b6f576000805461ff001916905550565b600081836135b55760405162461bcd60e51b8152600401610756919061413f565b5060008385816135c157fe5b0495945050505050565b60008060606301ffc9a760e01b846040516024016135e9919061412a565b604051602081830303815290604052906001600160e01b0319166020820180516001600160e01b038381831617835250505050905060006060866001600160a01b03166175308460405161363d9190613ee1565b6000604051808303818686fa925050503d8060008114613679576040519150601f19603f3d011682016040523d82523d6000602084013e61367e565b606091505b509150915060208151101561369c57600080945094505050506136b9565b81818060200190518101906136b19190613c2a565b945094505050505b9250929050565b60006120ec61ffff831684026103e8612feb565b610db183838361377b565b6001600081815290820160205260409020546001600160a01b03165b6001600160a01b0381161580159061371d57506001600160a01b038116600114155b15613753576001600160a01b039081166000908152600183016020526040902080546001600160a01b03198116909155166136fb565b50600160008181528282016020526040812080546001600160a01b0319169092179091559055565b60665460408051634eb1c24560e11b815290516060926001600160a01b031691639d63848a916004808301926000929190829003018186803b1580156137c057600080fd5b505afa1580156137d4573d6000803e3d6000fd5b505050506040513d6000823e601f3d908101601f191682016040526137fc9190810190613ac1565b905080518260ff1611156138225760405162461bcd60e51b815260040161075690614887565b6000818360ff168151811061383357fe5b602090810291909101015160665460405163358dc31d60e11b81529192506001600160a01b031690636b1b863a9061387390889088908690600401613fd0565b600060405180830381600087803b15801561388d57600080fd5b505af11580156138a1573d6000803e3d6000fd5b505050505050505050565b604080516060810182526000808252602082018190529181019190915290565b5080546000825590600052602060002090810190610b6f91905b808211156138fa57600081556001016138e6565b5090565b60008083601f84011261390f578081fd5b50813567ffffffffffffffff811115613926578182fd5b60208301915083602080830285010111156136b957600080fd5b80516106d781614b3b565b60006060828403121561395c578081fd5b6139666060614ac8565b9050813561397381614b3b565b8152602082013561ffff8116811461398a57600080fd5b602082015261399c83604084016139a7565b604082015292915050565b803560ff811681146106d757600080fd5b6000602082840312156139c9578081fd5b81356120ec81614b3b565b6000602082840312156139e5578081fd5b81516120ec81614b3b565b60008060008060808587031215613a05578283fd5b8435613a1081614b3b565b93506020850135613a2081614b3b565b9250604085013591506060850135613a3781614b3b565b939692955090935050565b60008060408385031215613a54578182fd5b8235613a5f81614b3b565b91506020830135613a6f81614b50565b809150509250929050565b60008060008060808587031215613a8f578384fd5b8435613a9a81614b3b565b9350602085013592506040850135613ab181614b3b565b91506060850135613a3781614b3b565b60006020808385031215613ad3578182fd5b825167ffffffffffffffff811115613ae9578283fd5b8301601f81018513613af9578283fd5b8051613b0c613b0782614aef565b614ac8565b8181528381019083850185840285018601891015613b28578687fd5b8694505b83851015613b5257613b3e8982613940565b835260019490940193918501918501613b2c565b50979650505050505050565b60008060208385031215613b70578182fd5b823567ffffffffffffffff811115613b86578283fd5b613b92858286016138fe565b90969095509350505050565b60008060208385031215613bb0578182fd5b823567ffffffffffffffff80821115613bc7578384fd5b818501915085601f830112613bda578384fd5b813581811115613be8578485fd5b866020606083028501011115613bfc578485fd5b60209290920196919550909350505050565b600060208284031215613c1f578081fd5b81356120ec81614b50565b600060208284031215613c3b578081fd5b81516120ec81614b50565b600060208284031215613c57578081fd5b81356001600160e01b0319811681146120ec578182fd5b60008060408385031215613c80578182fd5b8235613c8b81614b3b565b91506020830135613a6f81614b3b565b600080600060408486031215613caf578081fd5b8335613cba81614b3b565b9250602084013567ffffffffffffffff811115613cd5578182fd5b613ce1868287016138fe565b9497909650939450505050565b600060608284031215613cff578081fd5b6120ec838361394b565b60008060808385031215613d1b578182fd5b613d25848461394b565b9150613d3484606085016139a7565b90509250929050565b600060208284031215613d4e578081fd5b5035919050565b600060208284031215613d66578081fd5b5051919050565b60008060008060008060c08789031215613d85578384fd5b8635955060208088013595506040880135613d9f81614b3b565b94506060880135613daf81614b3b565b93506080880135613dbf81614b3b565b925060a088013567ffffffffffffffff811115613dda578283fd5b8801601f81018a13613dea578283fd5b8035613df8613b0782614aef565b81815283810190838501858402850186018e1015613e14578687fd5b8694505b83851015613e3f578035613e2b81614b3b565b835260019490940193918501918501613e18565b5080955050505050509295509295509295565b60008060008060008060c08789031215613e6a578384fd5b86359550602087013594506040870135613e8381614b3b565b93506060870135613e9381614b3b565b92506080870135613ea381614b3b565b8092505060a087013590509295509295509295565b80516001600160a01b0316825260208082015161ffff169083015260409081015160ff16910152565b60008251613ef3818460208701614b0f565b9190910192915050565b90815260200190565b6001600160a01b0391909116815260200190565b6001600160a01b03848116825283166020808301919091526060604083018190528354908301819052600084815282812090929091608085019190845b81811015613f7357845484526001948501949383019301613f57565b509198975050505050505050565b6001600160a01b039384168152919092166020820152604081019190915260600190565b6001600160a01b03948516815292841660208401526040830191909152909116606082015260800190565b6001600160a01b0393841681526020810192909252909116604082015260600190565b6001600160a01b03948516815260208101939093529083166040830152909116606082015260800190565b6020808252825182820181905260009190848201906040850190845b8181101561405f5783516001600160a01b03168352928401929184019160010161403a565b50909695505050505050565b6020808252825182820181905260009190848201906040850190845b8181101561405f5761409a838551613eb8565b9284019260609290920191600101614087565b6020808252810182905260006001600160fb1b038311156140cc578081fd5b60208302808560408501379190910160400190815292915050565b6020808252825182820181905260009190848201906040850190845b8181101561405f57835183529284019291840191600101614103565b901515815260200190565b6001600160e01b031991909116815260200190565b600060208252825180602084015261415e816040850160208701614b0f565b601f01601f19169190910160400192915050565b60208082526024908201527f506572696f6469635072697a6553747261746567792f6572633732312d696e76604082015263185b1a5960e21b606082015260800190565b6020808252602c908201527f506572696f6469635072697a6553747261746567792f746f6b656e2d6c69737460408201526b195b995c8b5a5b9d985b1a5960a21b606082015260800190565b6020808252600f908201526e496e76616c6964206164647265737360881b604082015260600190565b602080825260139082015272496e76616c696420707265764164647265737360681b604082015260600190565b60208082526026908201527f4f776e61626c653a206e6577206f776e657220697320746865207a65726f206160408201526564647265737360d01b606082015260800190565b6020808252602c908201527f506572696f6469635072697a6553747261746567792f6f6e6c792d6f776e657260408201526b16b7b916b634b9ba32b732b960a11b606082015260800190565b6020808252601b908201527f536166654d6174683a206164646974696f6e206f766572666c6f770000000000604082015260600190565b6020808252602a908201527f506572696f6469635072697a6553747261746567792f73706f6e736f72736869604082015269702d6e6f742d7a65726f60b01b606082015260800190565b60208082526028908201527f4d756c7469706c6557696e6e6572732f696e76616c69642d7072697a6573706c60408201526734ba16ba37b5b2b760c11b606082015260800190565b60208082526034908201527f506572696f6469635072697a6553747261746567792f7072697a652d706572696040820152736f642d677265617465722d7468616e2d7a65726f60601b606082015260800190565b60208082526025908201527f506572696f6469635072697a6553747261746567792f6f6e6c792d7072697a656040820152640b5c1bdbdb60da1b606082015260800190565b60208082526026908201527f506572696f6469635072697a6553747261746567792f7472616e736665722d746040820152653796b9b2b63360d11b606082015260800190565b6020808252601e908201527f536166654d6174683a207375627472616374696f6e206f766572666c6f770000604082015260600190565b60208082526029908201527f506572696f6469635072697a6553747261746567792f7072697a652d706f6f6c6040820152682d6e6f742d7a65726f60b81b606082015260800190565b6020808252601a908201527f536166654d6174683a206469766973696f6e206279207a65726f000000000000604082015260600190565b60208082526029908201527f4d756c7469706c6557696e6e6572732f696e76616c69642d7072697a6573706c6040820152681a5d0b5d185c99d95d60ba1b606082015260800190565b60208082526023908201527f506572696f6469635072697a6553747261746567792f65726332302d696e76616040820152621b1a5960ea1b606082015260800190565b6020808252602e908201527f496e697469616c697a61626c653a20636f6e747261637420697320616c72656160408201526d191e481a5b9a5d1a585b1a5e995960921b606082015260800190565b60208082526026908201527f4d756c7469706c6557696e6e6572732f6e6f6e6578697374656e742d7072697a604082015265195cdc1b1a5d60d21b606082015260800190565b6020808252818101527f506572696f6469635072697a6553747261746567792f65726332302d6e756c6c604082015260600190565b6020808252601f908201527f4d756c7469706c6557696e6e6572732f77696e6e6572732d6774652d6f6e6500604082015260600190565b60208082526021908201527f536166654d6174683a206d756c7469706c69636174696f6e206f766572666c6f6040820152607760f81b606082015260800190565b6020808252818101527f4f776e61626c653a2063616c6c6572206973206e6f7420746865206f776e6572604082015260600190565b6020808252600c908201526b105b1c9958591e481a5b9a5d60a21b604082015260600190565b60208082526033908201527f4d756c7469706c6557696e6e6572732f696e76616c69642d7072697a6573706c6040820152721a5d0b5c195c98d95b9d1859d94b5d1bdd185b606a1b606082015260800190565b60208082526031908201527f506572696f6469635072697a6553747261746567792f6265666f72654177617260408201527019131a5cdd195b995c8b5a5b9d985b1a59607a1b606082015260800190565b6020808252602b908201527f506572696f6469635072697a6553747261746567792f63616e6e6f742d61776160408201526a1c990b595e1d195c9b985b60aa1b606082015260800190565b6020808252600d908201526c105b1c9958591e481859191959609a1b604082015260600190565b6020808252602f908201527f506572696f6469635072697a6553747261746567792f61776172642d696e766160408201526e0d8d2c85ae8ded6cadc5ad2dcc8caf608b1b606082015260800190565b60208082526025908201527f506572696f6469635072697a6553747261746567792f7469636b65742d6e6f746040820152642d7a65726f60d81b606082015260800190565b60208082526033908201527f506572696f6469635072697a6553747261746567792f7072697a6553747261746040820152721959de531a5cdd195b995c8b5a5b9d985b1a59606a1b606082015260800190565b60208082526026908201527f506572696f6469635072697a6553747261746567792f6572633732312d6475706040820152656c696361746560d01b606082015260800190565b60208082526027908201527f506572696f6469635072697a6553747261746567792f756e617661696c61626c6040820152663296ba37b5b2b760c91b606082015260800190565b606081016106d78284613eb8565b61ffff93909316835260ff919091166020830152604082015260600190565b61ffff93909316835260ff918216602084015216604082015260600190565b918252602082015260400190565b85815260208082018690526001600160a01b038581166040840152848116606084015260a060808401819052845190840181905260009285810192909160c0860190855b81811015614ab7578551841683529484019491840191600101614a99565b50909b9a5050505050505050505050565b60405181810167ffffffffffffffff81118282101715614ae757600080fd5b604052919050565b600067ffffffffffffffff821115614b05578081fd5b5060209081020190565b60005b83811015614b2a578181015183820152602001614b12565b83811115610ad75750506000910152565b6001600160a01b0381168114610b6f57600080fd5b8015158114610b6f57600080fdfea26469706673582212204d9e59c5e67ab4c4d8f6fd817c731e19e0140ecd0231291cf251dfdc6982e3d764736f6c634300060c0033",
  "linkReferences": {},
  "deployedLinkReferences": {}
}