{
  "_format": "hh-sol-artifact-1",
  "contractName": "MultipleWinnersHarnessProxyFactory",
  "sourceName": "contracts/test/MultipleWinnersHarnessProxyFactory.sol",
  "abi": [
    {
      "inputs": [],
      "stateMutability": "nonpayable",
      "type": "constructor"
    },
    {
      "anonymous": false,
      "inputs": [
        {
          "indexed": false,
          "internalType": "address",
          "name": "proxy",
          "type": "address"
        }
      ],
      "name": "ProxyCreated",
      "type": "event"
    },
    {
      "inputs": [],
      "name": "create",
      "outputs": [
        {
          "internalType": "contract MultipleWinnersHarness",
          "name": "",
          "type": "address"
        }
      ],
      "stateMutability": "nonpayable",
      "type": "function"
    },
    {
      "inputs": [
        {
          "internalType": "address",
          "name": "_logic",
          "type": "address"
        },
        {
          "internalType": "bytes",
          "name": "_data",
          "type": "bytes"
        }
      ],
      "name": "deployMinimal",
      "outputs": [
        {
          "internalType": "address",
          "name": "proxy",
          "type": "address"
        }
      ],
      "stateMutability": "nonpayable",
      "type": "function"
    },
    {
      "inputs": [],
      "name": "instance",
      "outputs": [
        {
          "internalType": "contract MultipleWinnersHarness",
          "name": "",
          "type": "address"
        }
      ],
      "stateMutability": "view",
      "type": "function"
    }
  ],
  "bytecode": "0x608060405234801561001057600080fd5b5060405161001d9061005f565b604051809103906000f080158015610039573d6000803e3d6000fd5b50600080546001600160a01b0319166001600160a01b039290921691909117905561006c565b614c4b806103b283390190565b6103378061007b6000396000f3fe608060405234801561001057600080fd5b50600436106100415760003560e01c8063022ec09514610046578063b3eeb5e21461006a578063efc81a8c14610120575b600080fd5b61004e610128565b604080516001600160a01b039092168252519081900360200190f35b61004e6004803603604081101561008057600080fd5b6001600160a01b0382351691908101906040810160208201356401000000008111156100ab57600080fd5b8201836020820111156100bd57600080fd5b803590602001918460018302840111640100000000831117156100df57600080fd5b91908080601f016020809104026020016040519081016040528093929190818152602001838380828437600092019190915250929550610137945050505050565b61004e6102b3565b6000546001600160a01b031681565b6000808360601b9050604051733d602d80600a3d3981f3363d3d373d3d3d363d7360601b81528160148201526e5af43d82803e903d91602b57fd5bf360881b60288201526037816000f0604080516001600160a01b038316815290519194507efffc2da0b561cae30d9826d37709e9421c4725faebc226cbbb7ef5fc5e7349925081900360200190a18251156102ac576000826001600160a01b0316846040518082805190602001908083835b602083106102035780518252601f1990920191602091820191016101e4565b6001836020036101000a0380198251168184511680821785525050505050509050019150506000604051808303816000865af19150503d8060008114610265576040519150601f19603f3d011682016040523d82523d6000602084013e61026a565b606091505b50509050806102aa5760405162461bcd60e51b81526004018080602001828103825260248152602001806102de6024913960400191505060405180910390fd5b505b5092915050565b6000805460408051602081019091528281526102d8916001600160a01b031690610137565b90509056fe50726f7879466163746f72792f636f6e7374727563746f722d63616c6c2d6661696c6564a26469706673582212204c24f15ad4a16016f3d9c5f1d181aa0eddb747f34ee18cdeacad383f143b954364736f6c634300060c0033608060405234801561001057600080fd5b50614c2b806100206000396000f3fe608060405234801561001057600080fd5b506004361061035d5760003560e01c806372f33ea9116101d3578063b024468211610104578063d5ad6bf6116100a2578063f2fde38b1161007c578063f2fde38b14610676578063f48af35214610689578063fbf0953e1461069c578063ffa1ad74146106af5761035d565b8063d5ad6bf614610646578063dfb2f13b1461064e578063eefc8ad1146106565761035d565b8063c2f19ee8116100de578063c2f19ee81461061b578063c42b42a014610623578063c48ddbcb1461062b578063d18e81b31461063e5761035d565b8063b0244682146105e2578063b2210957146105f5578063c25a9c32146106085761035d565b80638e204c43116101715780639417783f1161014b5780639417783f146105a757806395e5f9ee146105265780639dafafb0146105c7578063a4e075ca146105cf5761035d565b80638e204c431461057957806391c05b0b1461058c57806394144c6b1461059f5761035d565b80638aa3ec6f116101ad5780638aa3ec6f146105415780638acfaca9146105545780638d5f10c41461055c5780638da5cb5b146105715761035d565b806372f33ea91461051e578063876f5c7e14610526578063884a44481461052e5761035d565b80634d7f3db0116102ad578063671137c41161024b5780636dfb0386116102255780636dfb0386146104f35780636f46f22114610506578063715018a61461050e578063719ce73e146105165761035d565b8063671137c4146104d05780636be51c4f146104e35780636cc25db7146104eb5761035d565b806352a301091161028757806352a301091461048f578063605e25ac146104a257806362c77a61146104b557806366968221146104bd5761035d565b80634d7f3db0146104615780634e5d08e014610474578063500db70d146104875761035d565b8063152d308c1161031a57806330fcdf41116102f457806330fcdf411461041357806338a9b4b61461042657806342d092091461043957806347bed9981461044e5761035d565b8063152d308c146103e557806322f8e566146103f85780632c8fe73d1461040b5761035d565b806301b48e341461036257806301ffc9a71461038b578063035d09f8146103ab5780630c949043146103c05780630d847fc4146103c85780630faf125f146103dd575b600080fd5b610375610370366004613dd5565b6106c4565b6040516103829190613f94565b60405180910390f35b61039e610399366004613cde565b6106dd565b60405161038291906141b6565b6103be6103b9366004613ee9565b610713565b005b6103756107bf565b6103d06107de565b6040516103829190613f9d565b6103756107ed565b61039e6103f3366004613ada565b6107f3565b6103be610406366004613dd5565b610899565b61037561089e565b6103be610421366004613a50565b6108ae565b6103be610434366004613ca6565b61097e565b610441610a0c565b60405161038291906140b5565b61037561045c366004613dd5565b610a18565b6103be61046f366004613b12565b610a23565b6103be610482366004613a50565b610add565b6103d0610b72565b61039e61049d366004613dd5565b610b81565b6103be6104b0366004613a50565b610c07565b610441610ce0565b6103be6104cb366004613bf6565b610cec565b6103be6104de366004613d06565b610db6565b6103d0610e0e565b6103d0610e1d565b6103be610501366004613dd5565b610e2c565b61039e610e74565b6103be610e7d565b6103d0610f06565b610375610f15565b61039e610f1b565b6103be61053c366004613dd5565b610f25565b6103be61054f366004613a50565b610f6d565b61037561103d565b610564611043565b6040516103829190614102565b6103d06110c8565b61039e610587366004613a50565b6110d7565b6103be61059a366004613dd5565b6110ec565b6103756110f5565b6105ba6105b5366004613a50565b6110fb565b604051610382919061417e565b61039e611167565b61039e6105dd366004613ca6565b611170565b6103be6105f0366004613d06565b6111ef565b6103be610603366004613a88565b611272565b6103be610616366004613c36565b611325565b6103d06116b4565b6103756116c3565b6103be610639366004613d33565b611740565b61037561192d565b610375611933565b6103be61193d565b610669610664366004613dd5565b611ae1565b6040516103829190614a92565b6103be610684366004613a50565b611b46565b6103be610697366004613e05565b611c07565b6103be6106aa366004613da1565b611eb4565b6106b7612053565b60405161038291906141d6565b60006106d76106d1612074565b836120b1565b92915050565b60006001600160e01b031982166301ffc9a760e01b14806106d75750506001600160e01b031916600162a1cb1960e01b03191490565b600054610100900460ff168061072c575061072c6120da565b8061073a575060005460ff16155b61075f5760405162461bcd60e51b81526004016107569061466c565b60405180910390fd5b600054610100900460ff1615801561078a576000805460ff1961ff0019909116610100171660011790555b606061079a888888888886611c07565b6107a3836120eb565b5080156107b6576000805461ff00191690555b50505050505050565b60008060405160208160208460ff600019fa6107d757fe5b5192915050565b6070546001600160a01b031681565b60775481565b60006107fd612140565b6001600160a01b031661080e6110c8565b6001600160a01b0316146108345760405162461bcd60e51b8152600401610756906147ad565b6001600160a01b03831660008181526075602052604090819020805460ff1916851515179055517fd1ac9a365c0e3bfad562e0a809a5ded3842a2b489f839b3327e4e34ee0128f28906108889085906141b6565b60405180910390a250600192915050565b607855565b60006108a8612144565b90505b90565b6108b6612140565b6001600160a01b03166108c76110c8565b6001600160a01b0316146108ed5760405162461bcd60e51b8152600401610756906147ad565b6001600160a01b038116158061091857506109186001600160a01b03821663266fce1f60e11b61215d565b6109345760405162461bcd60e51b81526004016107569061485b565b607080546001600160a01b0319166001600160a01b0383169081179091556040517fc4feff61630891ea2cb42a54fbe3ff2e65422f2ed17323ac6b65f4521112e87e90600090a250565b610986612140565b6001600160a01b03166109976110c8565b6001600160a01b0316146109bd5760405162461bcd60e51b8152600401610756906147ad565b6074805460ff191682151517908190556040517f6959d02e8fb6264d1d39bf37f1e725001f342714933cf38f8627a2442efc43fd91610a019160ff909116906141b6565b60405180910390a150565b60606108a8606d612180565b60006106d782612260565b6066546001600160a01b0316610a37612140565b6001600160a01b031614610a5d5760405162461bcd60e51b81526004016107569061449e565b6065546001600160a01b031615610ad7576065546040516304d7f3db60e41b81526001600160a01b0390911690634d7f3db090610aa490879087908790879060040161408a565b600060405180830381600087803b158015610abe57600080fd5b505af1158015610ad2573d6000803e3d6000fd5b505050505b50505050565b610ae56110c8565b6001600160a01b0316610af6612140565b6001600160a01b03161480610b2557506071546001600160a01b0316610b1a612140565b6001600160a01b0316145b80610b4a57506070546001600160a01b0316610b3f612140565b6001600160a01b0316145b610b665760405162461bcd60e51b815260040161075690614335565b610b6f816122a7565b50565b6068546001600160a01b031681565b6000610b8b612140565b6001600160a01b0316610b9c6110c8565b6001600160a01b031614610bc25760405162461bcd60e51b8152600401610756906147ad565b60778290556040517f63e4e34f49d12428c03e04e61340c7167e36eb0ff6f0b1970c7544026179403990610bf7908490613f94565b60405180910390a1506001919050565b610c0f612140565b6001600160a01b0316610c206110c8565b6001600160a01b031614610c465760405162461bcd60e51b8152600401610756906147ad565b6001600160a01b0381161580610c745750610c746001600160a01b038216600162a1cb1960e01b031961215d565b610c905760405162461bcd60e51b81526004016107569061424d565b606580546001600160a01b0319166001600160a01b0383811691909117918290556040519116907f9fc437aa70ad4ee5f33f6772bf338eed41e21b95435820817ab8b4df161ce4dd90600090a250565b60606108a8606b612180565b610cf46110c8565b6001600160a01b0316610d05612140565b6001600160a01b03161480610d3457506071546001600160a01b0316610d29612140565b6001600160a01b0316145b80610d5957506070546001600160a01b0316610d4e612140565b6001600160a01b0316145b610d755760405162461bcd60e51b815260040161075690614335565b60005b81811015610db157610da9838383818110610d8f57fe5b9050602002016020810190610da49190613a50565b6122a7565b600101610d78565b505050565b610dbe612140565b6001600160a01b0316610dcf6110c8565b6001600160a01b031614610df55760405162461bcd60e51b8152600401610756906147ad565b610e01606d828461245b565b610e0a82612525565b5050565b6065546001600160a01b031681565b6067546001600160a01b031681565b610e34612140565b6001600160a01b0316610e456110c8565b6001600160a01b031614610e6b5760405162461bcd60e51b8152600401610756906147ad565b610b6f816120eb565b60765460ff1681565b610e85612140565b6001600160a01b0316610e966110c8565b6001600160a01b031614610ebc5760405162461bcd60e51b8152600401610756906147ad565b6033546040516000916001600160a01b0316907f8be0079c531659141344cd1fd0a4f28419497f9722a3daafe3b4186f6b6457e0908390a3603380546001600160a01b0319169055565b6066546001600160a01b031681565b606a5481565b60006108a861257d565b610f2d612140565b6001600160a01b0316610f3e6110c8565b6001600160a01b031614610f645760405162461bcd60e51b8152600401610756906147ad565b610b6f81612596565b610f75612140565b6001600160a01b0316610f866110c8565b6001600160a01b031614610fac5760405162461bcd60e51b8152600401610756906147ad565b6001600160a01b0381161580610fd75750610fd76001600160a01b038216632ba8396360e11b61215d565b610ff35760405162461bcd60e51b8152600401610756906149b2565b607180546001600160a01b0319166001600160a01b0383169081179091556040517fda05d50a3a1ec0ffab059f1d457ae59f68ccfb3ffbb4dad283c516f9103d584b90600090a250565b60735490565b60606072805480602002602001604051908101604052809291908181526020016000905b828210156110bf57600084815260209081902060408051606081018252918501546001600160a01b0381168352600160a01b810461ffff1683850152600160b01b900460ff1690820152825260019092019101611067565b50505050905090565b6033546001600160a01b031690565b60756020526000908152604090205460ff1681565b610b6f816125eb565b60695481565b6001600160a01b0381166000908152606f602090815260409182902080548351818402810184019094528084526060939283018282801561115b57602002820191906000526020600020905b815481526020019060010190808311611147575b50505050509050919050565b60745460ff1681565b600061117a612140565b6001600160a01b031661118b6110c8565b6001600160a01b0316146111b15760405162461bcd60e51b8152600401610756906147ad565b6076805460ff19168315151790556040517f2b4b6ffe286f7ce4ccc6b136bb14987b0a00092174d88938a0c667a104a4a73190610bf79084906141b6565b6111f7612140565b6001600160a01b03166112086110c8565b6001600160a01b03161461122e5760405162461bcd60e51b8152600401610756906147ad565b61123a606b828461245b565b6040516001600160a01b038316907f58982464497acdab11ad29d39907e076b0d3b8daf1d9b734174c7c3a2a0e8c7490600090a25050565b6066546001600160a01b0316611286612140565b6001600160a01b0316146112ac5760405162461bcd60e51b81526004016107569061449e565b826001600160a01b0316846001600160a01b031614156112de5760405162461bcd60e51b8152600401610756906144e3565b6065546001600160a01b031615610ad75760655460405163b221095760e01b81526001600160a01b039091169063b221095790610aa490879087908790879060040161403c565b61132d612140565b6001600160a01b031661133e6110c8565b6001600160a01b0316146113645760405162461bcd60e51b8152600401610756906147ad565b8060005b8181101561160957611378613939565b84848381811061138457fe5b90506060020180360381019061139a9190613d86565b90506001816040015160ff1611156113c45760405162461bcd60e51b815260040161075690614402565b80516001600160a01b03166113eb5760405162461bcd60e51b8152600401610756906145e0565b6072548210611487576072805460018101825560009190915281517fdffbd64cc7c1a7eb27984335d9416d51137a03d3fabec7141025c62663253fe190910180546020840151604085015160ff16600160b01b0260ff60b01b1961ffff909216600160a01b0261ffff60a01b196001600160a01b039096166001600160a01b0319909416939093179490941691909117169190911790556115ae565b61148f613939565b6072838154811061149c57fe5b60009182526020918290206040805160608101825292909101546001600160a01b03808216808552600160a01b830461ffff1695850195909552600160b01b90910460ff169183019190915284519193501614158061150b5750806020015161ffff16826020015161ffff1614155b806115245750806040015160ff16826040015160ff1614155b156115a557816072848154811061153757fe5b6000918252602091829020835191018054928401516040909401516001600160a01b03199093166001600160a01b039092169190911761ffff60a01b1916600160a01b61ffff909416939093029290921760ff60b01b1916600160b01b60ff909216919091021790556115ac565b5050611601565b505b80600001516001600160a01b03167fc1bf93444a0055a24a7d0154b75fedf78edfe355c06a2ce8e47f9f390872055982602001518360400151856040516115f793929190614aa0565b60405180910390a2505b600101611368565b505b60725481101561168657607254600090611626906001612b78565b9050607280548061163357fe5b600082815260208120820160001990810180546001600160b81b031916905590910190915560405182917f99fa473fdf53414bcd014cf6e7509fc58c68f7b86174767faa6ad5100cd5bae591a25061160b565b6000611690612ba0565b90506103e8811115610ad75760405162461bcd60e51b815260040161075690614808565b6071546001600160a01b031681565b606654604080516318c1996d60e21b815290516000926001600160a01b03169163630665b4916004808301926020929190829003018186803b15801561170857600080fd5b505afa15801561171c573d6000803e3d6000fd5b505050506040513d601f19601f820116820180604052508101906108a89190613ded565b6117486110c8565b6001600160a01b0316611759612140565b6001600160a01b0316148061178857506071546001600160a01b031661177d612140565b6001600160a01b0316145b806117ad57506070546001600160a01b03166117a2612140565b6001600160a01b0316145b6117c95760405162461bcd60e51b815260040161075690614335565b606654604051636a3fd4f960e01b81526001600160a01b0390911690636a3fd4f9906117f9908690600401613f9d565b60206040518083038186803b15801561181157600080fd5b505afa158015611825573d6000803e3d6000fd5b505050506040513d601f19601f820116820180604052508101906118499190613cc2565b6118655760405162461bcd60e51b8152600401610756906148ac565b61187f6001600160a01b0384166380ac58cd60e01b61215d565b61189b5760405162461bcd60e51b815260040161075690614209565b6118a6606d84612c32565b6118b5576118b5606d84612c83565b60005b818110156118e4576118dc848484848181106118d057fe5b90506020020135612d4b565b6001016118b8565b50826001600160a01b03167f51541dc4b4c08a16085809cccdc4cc77d8000b60fbb00142e57f236d842986758383604051611920929190614144565b60405180910390a2505050565b60785481565b60006108a8612074565b60006119476107bf565b6070549091506001600160a01b0316156119c257607054606a5460405163266fce1f60e11b81526001600160a01b0390921691634cdf9c3e9161198f91859190600401614ade565b600060405180830381600087803b1580156119a957600080fd5b505af11580156119bd573d6000803e3d6000fd5b505050505b6119cb816125eb565b6071546001600160a01b031615611a4357607154606a54604051632ba8396360e11b81526001600160a01b039092169163575072c691611a1091859190600401614ade565b600060405180830381600087803b158015611a2a57600080fd5b505af1158015611a3e573d6000803e3d6000fd5b505050505b611a53611a4e612e9c565b612260565b606a55611a5e612140565b6001600160a01b03167f9c4163ece98173eab9a496c4db8bf3e2c8edcc5d2854377880597ccb858b7a9d82604051611a969190613f94565b60405180910390a2606a54611aa9612140565b6001600160a01b03167fc61852c20f0b03b31d782f3022f2bf20322ac17ce66c5349fb6e24740cdd645660405160405180910390a350565b611ae9613939565b60728281548110611af657fe5b60009182526020918290206040805160608101825292909101546001600160a01b0381168352600160a01b810461ffff1693830193909352600160b01b90920460ff169181019190915292915050565b611b4e612140565b6001600160a01b0316611b5f6110c8565b6001600160a01b031614611b855760405162461bcd60e51b8152600401610756906147ad565b6001600160a01b038116611bab5760405162461bcd60e51b8152600401610756906142ef565b6033546040516001600160a01b038084169216907f8be0079c531659141344cd1fd0a4f28419497f9722a3daafe3b4186f6b6457e090600090a3603380546001600160a01b0319166001600160a01b0392909216919091179055565b600054610100900460ff1680611c205750611c206120da565b80611c2e575060005460ff16155b611c4a5760405162461bcd60e51b81526004016107569061466c565b600054610100900460ff16158015611c75576000805460ff1961ff0019909116610100171660011790555b6001600160a01b038516611c9b5760405162461bcd60e51b815260040161075690614560565b6001600160a01b038416611cc15760405162461bcd60e51b81526004016107569061496d565b6001600160a01b038316611ce75760405162461bcd60e51b8152600401610756906143b8565b606680546001600160a01b038088166001600160a01b031992831617909255606780548784169083161790556068805492861692909116919091179055611d2d86612596565b611d35612ea2565b6040516329965a1d60e01b8152731820a4b7618bde71dce8cdc73aab6c95905fad24906329965a1d90611d909030907fb281fc8c12954d22544db45de3159a39272895b169a852b314f9cc762e44c53b908290600401614067565b600060405180830381600087803b158015611daa57600080fd5b505af1158015611dbe573d6000803e3d6000fd5b50505050611dcc606b612f34565b60005b8251811015611dfc57611df4838281518110611de757fe5b60200260200101516122a7565b600101611dcf565b506069869055606a879055611e11606d612f34565b846001600160a01b03167f08df3eb19fd45e75c3427461686799fdfd60a8c9a1d0880105960f65a513ce748888878787604051611e52959493929190614aec565b60405180910390a2606a54611e65612140565b6001600160a01b03167fc61852c20f0b03b31d782f3022f2bf20322ac17ce66c5349fb6e24740cdd645660405160405180910390a380156107b6576000805461ff001916905550505050505050565b611ebc612140565b6001600160a01b0316611ecd6110c8565b6001600160a01b031614611ef35760405162461bcd60e51b8152600401610756906147ad565b60725460ff821610611f175760405162461bcd60e51b8152600401610756906146ba565b6001826040015160ff161115611f3f5760405162461bcd60e51b815260040161075690614402565b81516001600160a01b0316611f665760405162461bcd60e51b8152600401610756906145e0565b8160728260ff1681548110611f7757fe5b600091825260208083208451920180549185015160409095015160ff16600160b01b0260ff60b01b1961ffff909616600160a01b0261ffff60a01b196001600160a01b039095166001600160a01b03199094169390931793909316919091179390931617909155611fe6612ba0565b90506103e881111561200a5760405162461bcd60e51b815260040161075690614808565b82600001516001600160a01b03167fc1bf93444a0055a24a7d0154b75fedf78edfe355c06a2ce8e47f9f3908720559846020015185604001518560405161192093929190614abf565b60405180604001604052806005815260200164332e342e3160d81b81525081565b60008061207f612144565b9050600061208b612e9c565b9050818111156120a0576000925050506108ab565b6120aa8282612b78565b9250505090565b6000806120c6670de0b6b3a764000085612f78565b90506120d28184612fb2565b949350505050565b60006120e530612ff4565b15905090565b6000811161210b5760405162461bcd60e51b815260040161075690614735565b60738190556040517fc44c7222e8df09744ced394101df47e78dedb642d3065267bb388901de9df6d490610a01908390613f94565b3390565b60006108a8606954606a54612ffa90919063ffffffff16565b60006121688361301f565b801561217957506121798383613052565b9392505050565b606080826000015467ffffffffffffffff8111801561219e57600080fd5b506040519080825280602002602001820160405280156121c8578160200160208202803683370190505b50600160008181529085016020526040812054919250906001600160a01b03165b6001600160a01b0381161580159061220b57506001600160a01b038116600114155b15612257578083838151811061221d57fe5b6001600160a01b039283166020918202929092018101919091529181166000908152600180880190935260409020549290910191166121e9565b50909392505050565b60008061228460695461227e606a5486612b7890919063ffffffff16565b90613078565b905061217961229e60695483612f7890919063ffffffff16565b606a5490612ffa565b6122b9816001600160a01b0316612ff4565b6122d55760405162461bcd60e51b815260040161075690614700565b606654604051636a3fd4f960e01b81526001600160a01b0390911690636a3fd4f990612305908490600401613f9d565b60206040518083038186803b15801561231d57600080fd5b505afa158015612331573d6000803e3d6000fd5b505050506040513d601f19601f820116820180604052508101906123559190613cc2565b6123715760405162461bcd60e51b8152600401610756906148ac565b60408051600481526024810182526020810180516001600160e01b03166318160ddd60e01b17905290516000916060916001600160a01b038516916123b591613f78565b600060405180830381855afa9150503d80600081146123f0576040519150601f19603f3d011682016040523d82523d6000602084013e6123f5565b606091505b5091509150816124175760405162461bcd60e51b815260040161075690614629565b612422606b84612c83565b6040516001600160a01b038416907fbcd6d991f3416e288bf59a2997b423772937b62c7ea7dd1a54af7771de1f741890600090a2505050565b6001600160a01b03811660011480159061247d57506001600160a01b03811615155b6124995760405162461bcd60e51b815260040161075690614299565b6001600160a01b0382811660009081526001850160205260409020548116908216146124d75760405162461bcd60e51b8152600401610756906142c2565b6001600160a01b039081166000818152600185016020526040808220805495851683529082208054959094166001600160a01b03199586161790935552805490911690558054600019019055565b6001600160a01b0381166000908152606f6020526040812061254691613959565b6040516001600160a01b038216907fcd64d9dacd230c5ccf1278ea5332b0621aa28c950fb0e61c8fbc9e2011c88a3490600090a250565b6000612587612144565b61258f612e9c565b1015905090565b600081116125b65760405162461bcd60e51b81526004016107569061444a565b60698190556040517f0d379c1a7282461e725a9dc2d74e65246c77e98ae93835e26c2f1654c48ee4ec90610a01908390613f94565b6066546040805163e6d8a94b60e01b815290516000926001600160a01b03169163e6d8a94b91600480830192602092919082900301818787803b15801561263157600080fd5b505af1158015612645573d6000803e3d6000fd5b505050506040513d601f19601f820116820180604052508101906126699190613ded565b9050612674816130aa565b9050606760009054906101000a90046001600160a01b03166001600160a01b03166318160ddd6040518163ffffffff1660e01b815260040160206040518083038186803b1580156126c457600080fd5b505afa1580156126d8573d6000803e3d6000fd5b505050506040513d601f19601f820116820180604052508101906126fc9190613ded565b61272f576040517f3728feb3fc1ef1bf4a24036afbe7d34b59c551bf0d2ab5564e87ec1734fa80dd90600090a150610b6f565b60765460735460ff9091169060608167ffffffffffffffff8111801561275457600080fd5b5060405190808252806020026020018201604052801561277e578160200160208202803683370190505b50607754909150859060009081905b8583101561292957606754604051633b30414760e01b81526000916001600160a01b031690633b304147906127c6908890600401613f94565b60206040518083038186803b1580156127de57600080fd5b505afa1580156127f2573d6000803e3d6000fd5b505050506040513d601f19601f820116820180604052508101906128169190613a6c565b6001600160a01b03811660009081526075602052604090205490915060ff16612871578086858060010196508151811061284c57fe5b60200260200101906001600160a01b031690816001600160a01b0316815250506128ea565b8183600101935083106128ea577fb5f728fcb182000eb8e953c15f6795f07b6cda75b35ef0b65645b53aac636945846040516128ad9190613f94565b60405180910390a1836128e4576040517f3728feb3fc1ef1bf4a24036afbe7d34b59c551bf0d2ab5564e87ec1734fa80dd90600090a15b50612929565b60008461020902866101f301016040516020016129079190613f94565b60408051601f198184030181529190528051602090910120955061278d915050565b6129468560008151811061293957fe5b6020026020010151613157565b60008761295c576129578985613078565b612966565b6129668988613078565b905080156129a05760005b8481101561299e5761299687828151811061298857fe5b6020026020010151836132c7565b600101612971565b505b60745460ff1615612b4f5760006129b7606b613334565b90505b6001600160a01b038116158015906129ed57506129d7606b613351565b6001600160a01b0316816001600160a01b031614155b15612b49576066546040516370a0823160e01b81526000916001600160a01b03808516926370a0823192612a25921690600401613f9d565b60206040518083038186803b158015612a3d57600080fd5b505afa158015612a51573d6000803e3d6000fd5b505050506040513d601f19601f82011682018060405250810190612a759190613ded565b905060008a612a8d57612a888288613078565b612a97565b612a97828b613078565b90508015612b355760005b87811015612b33576066548a516001600160a01b0390911690632b0ab144908c9084908110612acd57fe5b602002602001015186856040518463ffffffff1660e01b8152600401612af593929190614018565b600060405180830381600087803b158015612b0f57600080fd5b505af1158015612b23573d6000803e3d6000fd5b505060019092019150612aa29050565b505b612b40606b84613357565b925050506129ba565b50612b6c565b612b6c86600081518110612b5f57fe5b602002602001015161337a565b50505050505050505050565b600082821115612b9a5760405162461bcd60e51b815260040161075690614529565b50900390565b6072546000908190815b818160ff161015612c2a57612bbd613939565b60728260ff1681548110612bcd57fe5b60009182526020918290206040805160608101825292909101546001600160a01b0381168352600160a01b810461ffff16938301849052600160b01b900460ff16908201529150612c1f908590612ffa565b935050600101612baa565b509091505090565b60006001600160a01b038216600114801590612c5657506001600160a01b03821615155b80156121795750506001600160a01b03908116600090815260019290920160205260409091205416151590565b6001600160a01b038116600114801590612ca557506001600160a01b03811615155b612cc15760405162461bcd60e51b815260040161075690614299565b6001600160a01b0381811660009081526001840160205260409020541615612cfb5760405162461bcd60e51b8152600401610756906148f7565b60016000818152838201602052604080822080546001600160a01b039586168085529284208054969091166001600160a01b03199687161790559183905281549093169092179091558154019055565b6066546040516331a9108f60e11b81526001600160a01b0391821691841690636352211e90612d7e908590600401613f94565b60206040518083038186803b158015612d9657600080fd5b505afa158015612daa573d6000803e3d6000fd5b505050506040513d601f19601f82011682018060405250810190612dce9190613a6c565b6001600160a01b031614612df45760405162461bcd60e51b815260040161075690614a4b565b60005b6001600160a01b0383166000908152606f6020526040902054811015612e6f576001600160a01b0383166000908152606f60205260409020805483919083908110612e3e57fe5b90600052602060002001541415612e675760405162461bcd60e51b815260040161075690614a05565b600101612df7565b506001600160a01b039091166000908152606f602090815260408220805460018101825590835291200155565b60785490565b600054610100900460ff1680612ebb5750612ebb6120da565b80612ec9575060005460ff16155b612ee55760405162461bcd60e51b81526004016107569061466c565b600054610100900460ff16158015612f10576000805460ff1961ff0019909116610100171660011790555b612f186134c6565b612f20613547565b8015610b6f576000805461ff001916905550565b805415612f535760405162461bcd60e51b8152600401610756906147e2565b60016000818152918101602052604090912080546001600160a01b0319169091179055565b600082612f87575060006106d7565b82820282848281612f9457fe5b04146121795760405162461bcd60e51b81526004016107569061476c565b600061217983836040518060400160405280601a81526020017f536166654d6174683a206469766973696f6e206279207a65726f000000000000815250613621565b3b151590565b6000828201838110156121795760405162461bcd60e51b815260040161075690614381565b6000613032826301ffc9a760e01b613052565b80156106d7575061304b826001600160e01b0319613052565b1592915050565b60008060006130618585613658565b9150915081801561306f5750805b95945050505050565b60008082116130995760405162461bcd60e51b8152600401610756906145a9565b8183816130a257fe5b049392505050565b6072546000908290825b8181101561314e576130c4613939565b607282815481106130d157fe5b600091825260208083206040805160608101825293909101546001600160a01b0381168452600160a01b810461ffff16928401839052600160b01b900460ff169083015290925061312390869061374d565b90506131388260000151828460400151613761565b6131428782612b78565b965050506001016130b4565b50929392505050565b6000613163606d613334565b90505b6001600160a01b038116158015906131995750613183606d613351565b6001600160a01b0316816001600160a01b031614155b156132bd576066546040516370a0823160e01b81526000916001600160a01b03808516926370a08231926131d1921690600401613f9d565b60206040518083038186803b1580156131e957600080fd5b505afa1580156131fd573d6000803e3d6000fd5b505050506040513d601f19601f820116820180604052508101906132219190613ded565b905080156132aa576066546001600160a01b038381166000908152606f60205260409081902090516316960d5560e01b815291909216916316960d559161326f918791879190600401613fb1565b600060405180830381600087803b15801561328957600080fd5b505af115801561329d573d6000803e3d6000fd5b505050506132aa82612525565b6132b5606d83613357565b915050613166565b610e0a606d61376c565b60665460675460405163358dc31d60e11b81526001600160a01b0392831692636b1b863a926132fe92879287921690600401614067565b600060405180830381600087803b15801561331857600080fd5b505af115801561332c573d6000803e3d6000fd5b505050505050565b60016000818152910160205260409020546001600160a01b031690565b50600190565b6001600160a01b0380821660009081526001840160205260409020541692915050565b6000613386606b613334565b90505b6001600160a01b038116158015906133bc57506133a6606b613351565b6001600160a01b0316816001600160a01b031614155b15610e0a576066546040516370a0823160e01b81526000916001600160a01b03808516926370a08231926133f4921690600401613f9d565b60206040518083038186803b15801561340c57600080fd5b505afa158015613420573d6000803e3d6000fd5b505050506040513d601f19601f820116820180604052508101906134449190613ded565b905080156134b357606654604051630ac2ac5160e21b81526001600160a01b0390911690632b0ab1449061348090869086908690600401614018565b600060405180830381600087803b15801561349a57600080fd5b505af11580156134ae573d6000803e3d6000fd5b505050505b6134be606b83613357565b915050613389565b600054610100900460ff16806134df57506134df6120da565b806134ed575060005460ff16155b6135095760405162461bcd60e51b81526004016107569061466c565b600054610100900460ff16158015612f20576000805460ff1961ff0019909116610100171660011790558015610b6f576000805461ff001916905550565b600054610100900460ff168061356057506135606120da565b8061356e575060005460ff16155b61358a5760405162461bcd60e51b81526004016107569061466c565b600054610100900460ff161580156135b5576000805460ff1961ff0019909116610100171660011790555b60006135bf612140565b603380546001600160a01b0319166001600160a01b038316908117909155604051919250906000907f8be0079c531659141344cd1fd0a4f28419497f9722a3daafe3b4186f6b6457e0908290a3508015610b6f576000805461ff001916905550565b600081836136425760405162461bcd60e51b815260040161075691906141d6565b50600083858161364e57fe5b0495945050505050565b60008060606301ffc9a760e01b8460405160240161367691906141c1565b604051602081830303815290604052906001600160e01b0319166020820180516001600160e01b038381831617835250505050905060006060866001600160a01b0316617530846040516136ca9190613f78565b6000604051808303818686fa925050503d8060008114613706576040519150601f19603f3d011682016040523d82523d6000602084013e61370b565b606091505b50915091506020815110156137295760008094509450505050613746565b818180602001905181019061373e9190613cc2565b945094505050505b9250929050565b600061217961ffff831684026103e8613078565b610db1838383613808565b6001600081815290820160205260409020546001600160a01b03165b6001600160a01b038116158015906137aa57506001600160a01b038116600114155b156137e0576001600160a01b039081166000908152600183016020526040902080546001600160a01b0319811690915516613788565b50600160008181528282016020526040812080546001600160a01b0319169092179091559055565b60665460408051634eb1c24560e11b815290516060926001600160a01b031691639d63848a916004808301926000929190829003018186803b15801561384d57600080fd5b505afa158015613861573d6000803e3d6000fd5b505050506040513d6000823e601f3d908101601f191682016040526138899190810190613b59565b905080518260ff1611156138af5760405162461bcd60e51b81526004016107569061491e565b6000818360ff16815181106138c057fe5b602090810291909101015160665460405163358dc31d60e11b81529192506001600160a01b031690636b1b863a9061390090889088908690600401614067565b600060405180830381600087803b15801561391a57600080fd5b505af115801561392e573d6000803e3d6000fd5b505050505050505050565b604080516060810182526000808252602082018190529181019190915290565b5080546000825590600052602060002090810190610b6f91905b808211156139875760008155600101613973565b5090565b60008083601f84011261399c578081fd5b50813567ffffffffffffffff8111156139b3578182fd5b602083019150836020808302850101111561374657600080fd5b80516106d781614bd2565b80356106d781614bd2565b6000606082840312156139f4578081fd5b6139fe6060614b5f565b90508135613a0b81614bd2565b8152602082013561ffff81168114613a2257600080fd5b6020820152613a348360408401613a3f565b604082015292915050565b803560ff811681146106d757600080fd5b600060208284031215613a61578081fd5b813561217981614bd2565b600060208284031215613a7d578081fd5b815161217981614bd2565b60008060008060808587031215613a9d578283fd5b8435613aa881614bd2565b93506020850135613ab881614bd2565b9250604085013591506060850135613acf81614bd2565b939692955090935050565b60008060408385031215613aec578182fd5b8235613af781614bd2565b91506020830135613b0781614be7565b809150509250929050565b60008060008060808587031215613b27578384fd5b8435613b3281614bd2565b9350602085013592506040850135613b4981614bd2565b91506060850135613acf81614bd2565b60006020808385031215613b6b578182fd5b825167ffffffffffffffff811115613b81578283fd5b8301601f81018513613b91578283fd5b8051613ba4613b9f82614b86565b614b5f565b8181528381019083850185840285018601891015613bc0578687fd5b8694505b83851015613bea57613bd689826139cd565b835260019490940193918501918501613bc4565b50979650505050505050565b60008060208385031215613c08578182fd5b823567ffffffffffffffff811115613c1e578283fd5b613c2a8582860161398b565b90969095509350505050565b60008060208385031215613c48578182fd5b823567ffffffffffffffff80821115613c5f578384fd5b818501915085601f830112613c72578384fd5b813581811115613c80578485fd5b866020606083028501011115613c94578485fd5b60209290920196919550909350505050565b600060208284031215613cb7578081fd5b813561217981614be7565b600060208284031215613cd3578081fd5b815161217981614be7565b600060208284031215613cef578081fd5b81356001600160e01b031981168114612179578182fd5b60008060408385031215613d18578182fd5b8235613d2381614bd2565b91506020830135613b0781614bd2565b600080600060408486031215613d47578081fd5b8335613d5281614bd2565b9250602084013567ffffffffffffffff811115613d6d578182fd5b613d798682870161398b565b9497909650939450505050565b600060608284031215613d97578081fd5b61217983836139e3565b60008060808385031215613db3578182fd5b613dbd84846139e3565b9150613dcc8460608501613a3f565b90509250929050565b600060208284031215613de6578081fd5b5035919050565b600060208284031215613dfe578081fd5b5051919050565b60008060008060008060c08789031215613e1d578384fd5b8635955060208088013595506040880135613e3781614bd2565b94506060880135613e4781614bd2565b93506080880135613e5781614bd2565b925060a088013567ffffffffffffffff811115613e72578283fd5b8801601f81018a13613e82578283fd5b8035613e90613b9f82614b86565b81815283810190838501858402850186018e1015613eac578687fd5b8694505b83851015613ed657613ec28e826139d8565b835260019490940193918501918501613eb0565b5080955050505050509295509295509295565b60008060008060008060c08789031215613f01578384fd5b86359550602087013594506040870135613f1a81614bd2565b93506060870135613f2a81614bd2565b92506080870135613f3a81614bd2565b8092505060a087013590509295509295509295565b80516001600160a01b0316825260208082015161ffff169083015260409081015160ff16910152565b60008251613f8a818460208701614ba6565b9190910192915050565b90815260200190565b6001600160a01b0391909116815260200190565b6001600160a01b03848116825283166020808301919091526060604083018190528354908301819052600084815282812090929091608085019190845b8181101561400a57845484526001948501949383019301613fee565b509198975050505050505050565b6001600160a01b039384168152919092166020820152604081019190915260600190565b6001600160a01b03948516815292841660208401526040830191909152909116606082015260800190565b6001600160a01b0393841681526020810192909252909116604082015260600190565b6001600160a01b03948516815260208101939093529083166040830152909116606082015260800190565b6020808252825182820181905260009190848201906040850190845b818110156140f65783516001600160a01b0316835292840192918401916001016140d1565b50909695505050505050565b6020808252825182820181905260009190848201906040850190845b818110156140f657614131838551613f4f565b928401926060929092019160010161411e565b6020808252810182905260006001600160fb1b03831115614163578081fd5b60208302808560408501379190910160400190815292915050565b6020808252825182820181905260009190848201906040850190845b818110156140f65783518352928401929184019160010161419a565b901515815260200190565b6001600160e01b031991909116815260200190565b60006020825282518060208401526141f5816040850160208701614ba6565b601f01601f19169190910160400192915050565b60208082526024908201527f506572696f6469635072697a6553747261746567792f6572633732312d696e76604082015263185b1a5960e21b606082015260800190565b6020808252602c908201527f506572696f6469635072697a6553747261746567792f746f6b656e2d6c69737460408201526b195b995c8b5a5b9d985b1a5960a21b606082015260800190565b6020808252600f908201526e496e76616c6964206164647265737360881b604082015260600190565b602080825260139082015272496e76616c696420707265764164647265737360681b604082015260600190565b60208082526026908201527f4f776e61626c653a206e6577206f776e657220697320746865207a65726f206160408201526564647265737360d01b606082015260800190565b6020808252602c908201527f506572696f6469635072697a6553747261746567792f6f6e6c792d6f776e657260408201526b16b7b916b634b9ba32b732b960a11b606082015260800190565b6020808252601b908201527f536166654d6174683a206164646974696f6e206f766572666c6f770000000000604082015260600190565b6020808252602a908201527f506572696f6469635072697a6553747261746567792f73706f6e736f72736869604082015269702d6e6f742d7a65726f60b01b606082015260800190565b60208082526028908201527f4d756c7469706c6557696e6e6572732f696e76616c69642d7072697a6573706c60408201526734ba16ba37b5b2b760c11b606082015260800190565b60208082526034908201527f506572696f6469635072697a6553747261746567792f7072697a652d706572696040820152736f642d677265617465722d7468616e2d7a65726f60601b606082015260800190565b60208082526025908201527f506572696f6469635072697a6553747261746567792f6f6e6c792d7072697a656040820152640b5c1bdbdb60da1b606082015260800190565b60208082526026908201527f506572696f6469635072697a6553747261746567792f7472616e736665722d746040820152653796b9b2b63360d11b606082015260800190565b6020808252601e908201527f536166654d6174683a207375627472616374696f6e206f766572666c6f770000604082015260600190565b60208082526029908201527f506572696f6469635072697a6553747261746567792f7072697a652d706f6f6c6040820152682d6e6f742d7a65726f60b81b606082015260800190565b6020808252601a908201527f536166654d6174683a206469766973696f6e206279207a65726f000000000000604082015260600190565b60208082526029908201527f4d756c7469706c6557696e6e6572732f696e76616c69642d7072697a6573706c6040820152681a5d0b5d185c99d95d60ba1b606082015260800190565b60208082526023908201527f506572696f6469635072697a6553747261746567792f65726332302d696e76616040820152621b1a5960ea1b606082015260800190565b6020808252602e908201527f496e697469616c697a61626c653a20636f6e747261637420697320616c72656160408201526d191e481a5b9a5d1a585b1a5e995960921b606082015260800190565b60208082526026908201527f4d756c7469706c6557696e6e6572732f6e6f6e6578697374656e742d7072697a604082015265195cdc1b1a5d60d21b606082015260800190565b6020808252818101527f506572696f6469635072697a6553747261746567792f65726332302d6e756c6c604082015260600190565b6020808252601f908201527f4d756c7469706c6557696e6e6572732f77696e6e6572732d6774652d6f6e6500604082015260600190565b60208082526021908201527f536166654d6174683a206d756c7469706c69636174696f6e206f766572666c6f6040820152607760f81b606082015260800190565b6020808252818101527f4f776e61626c653a2063616c6c6572206973206e6f7420746865206f776e6572604082015260600190565b6020808252600c908201526b105b1c9958591e481a5b9a5d60a21b604082015260600190565b60208082526033908201527f4d756c7469706c6557696e6e6572732f696e76616c69642d7072697a6573706c6040820152721a5d0b5c195c98d95b9d1859d94b5d1bdd185b606a1b606082015260800190565b60208082526031908201527f506572696f6469635072697a6553747261746567792f6265666f72654177617260408201527019131a5cdd195b995c8b5a5b9d985b1a59607a1b606082015260800190565b6020808252602b908201527f506572696f6469635072697a6553747261746567792f63616e6e6f742d61776160408201526a1c990b595e1d195c9b985b60aa1b606082015260800190565b6020808252600d908201526c105b1c9958591e481859191959609a1b604082015260600190565b6020808252602f908201527f506572696f6469635072697a6553747261746567792f61776172642d696e766160408201526e0d8d2c85ae8ded6cadc5ad2dcc8caf608b1b606082015260800190565b60208082526025908201527f506572696f6469635072697a6553747261746567792f7469636b65742d6e6f746040820152642d7a65726f60d81b606082015260800190565b60208082526033908201527f506572696f6469635072697a6553747261746567792f7072697a6553747261746040820152721959de531a5cdd195b995c8b5a5b9d985b1a59606a1b606082015260800190565b60208082526026908201527f506572696f6469635072697a6553747261746567792f6572633732312d6475706040820152656c696361746560d01b606082015260800190565b60208082526027908201527f506572696f6469635072697a6553747261746567792f756e617661696c61626c6040820152663296ba37b5b2b760c91b606082015260800190565b606081016106d78284613f4f565b61ffff93909316835260ff919091166020830152604082015260600190565b61ffff93909316835260ff918216602084015216604082015260600190565b918252602082015260400190565b85815260208082018690526001600160a01b038581166040840152848116606084015260a060808401819052845190840181905260009285810192909160c0860190855b81811015614b4e578551841683529484019491840191600101614b30565b50909b9a5050505050505050505050565b60405181810167ffffffffffffffff81118282101715614b7e57600080fd5b604052919050565b600067ffffffffffffffff821115614b9c578081fd5b5060209081020190565b60005b83811015614bc1578181015183820152602001614ba9565b83811115610ad75750506000910152565b6001600160a01b0381168114610b6f57600080fd5b8015158114610b6f57600080fdfea2646970667358221220294f6debddfc134a2d33e00f2a82854cf684646bb0f91a77f4861f8d5dceb09e64736f6c634300060c0033",
  "linkReferences": {},
  "deployedLinkReferences": {}
}