{
  "_format": "hh-sol-artifact-1",
  "contractName": "PrizeSplitHarness",
  "sourceName": "contracts/test/PrizeSplitHarness.sol",
  "abi": [
    {
      "inputs": [],
      "stateMutability": "nonpayable",
      "type": "constructor"
    },
    {
      "anonymous": false,
      "inputs": [
        {
          "indexed": true,
          "internalType": "address",
          "name": "previousOwner",
          "type": "address"
        },
        {
          "indexed": true,
          "internalType": "address",
          "name": "newOwner",
          "type": "address"
        }
      ],
      "name": "OwnershipTransferred",
      "type": "event"
    },
    {
      "anonymous": false,
      "inputs": [
        {
          "indexed": true,
          "internalType": "uint256",
          "name": "target",
          "type": "uint256"
        }
      ],
      "name": "PrizeSplitRemoved",
      "type": "event"
    },
    {
      "anonymous": false,
      "inputs": [
        {
          "indexed": true,
          "internalType": "address",
          "name": "target",
          "type": "address"
        },
        {
          "indexed": false,
          "internalType": "uint16",
          "name": "percentage",
          "type": "uint16"
        },
        {
          "indexed": false,
          "internalType": "uint8",
          "name": "token",
          "type": "uint8"
        },
        {
          "indexed": false,
          "internalType": "uint256",
          "name": "index",
          "type": "uint256"
        }
      ],
      "name": "PrizeSplitSet",
      "type": "event"
    },
    {
      "inputs": [
        {
          "internalType": "address",
          "name": "from",
          "type": "address"
        },
        {
          "internalType": "address",
          "name": "to",
          "type": "address"
        },
        {
          "internalType": "uint256",
          "name": "amount",
          "type": "uint256"
        }
      ],
      "name": "beforeTokenTransfer",
      "outputs": [],
      "stateMutability": "nonpayable",
      "type": "function"
    },
    {
      "inputs": [
        {
          "internalType": "uint256",
          "name": "prizeAmount",
          "type": "uint256"
        }
      ],
      "name": "distribute",
      "outputs": [
        {
          "internalType": "uint256",
          "name": "",
          "type": "uint256"
        }
      ],
      "stateMutability": "nonpayable",
      "type": "function"
    },
    {
      "inputs": [
        {
          "internalType": "contract ControlledToken[]",
          "name": "tokens",
          "type": "address[]"
        }
      ],
      "name": "initialize",
      "outputs": [],
      "stateMutability": "nonpayable",
      "type": "function"
    },
    {
      "inputs": [],
      "name": "owner",
      "outputs": [
        {
          "internalType": "address",
          "name": "",
          "type": "address"
        }
      ],
      "stateMutability": "view",
      "type": "function"
    },
    {
      "inputs": [
        {
          "internalType": "uint256",
          "name": "prizeSplitIndex",
          "type": "uint256"
        }
      ],
      "name": "prizeSplit",
      "outputs": [
        {
          "components": [
            {
              "internalType": "address",
              "name": "target",
              "type": "address"
            },
            {
              "internalType": "uint16",
              "name": "percentage",
              "type": "uint16"
            },
            {
              "internalType": "uint8",
              "name": "token",
              "type": "uint8"
            }
          ],
          "internalType": "struct PrizeSplit.PrizeSplitConfig",
          "name": "",
          "type": "tuple"
        }
      ],
      "stateMutability": "view",
      "type": "function"
    },
    {
      "inputs": [],
      "name": "prizeSplits",
      "outputs": [
        {
          "components": [
            {
              "internalType": "address",
              "name": "target",
              "type": "address"
            },
            {
              "internalType": "uint16",
              "name": "percentage",
              "type": "uint16"
            },
            {
              "internalType": "uint8",
              "name": "token",
              "type": "uint8"
            }
          ],
          "internalType": "struct PrizeSplit.PrizeSplitConfig[]",
          "name": "",
          "type": "tuple[]"
        }
      ],
      "stateMutability": "view",
      "type": "function"
    },
    {
      "inputs": [],
      "name": "renounceOwnership",
      "outputs": [],
      "stateMutability": "nonpayable",
      "type": "function"
    },
    {
      "inputs": [
        {
          "components": [
            {
              "internalType": "address",
              "name": "target",
              "type": "address"
            },
            {
              "internalType": "uint16",
              "name": "percentage",
              "type": "uint16"
            },
            {
              "internalType": "uint8",
              "name": "token",
              "type": "uint8"
            }
          ],
          "internalType": "struct PrizeSplit.PrizeSplitConfig",
          "name": "prizeStrategySplit",
          "type": "tuple"
        },
        {
          "internalType": "uint8",
          "name": "prizeSplitIndex",
          "type": "uint8"
        }
      ],
      "name": "setPrizeSplit",
      "outputs": [],
      "stateMutability": "nonpayable",
      "type": "function"
    },
    {
      "inputs": [
        {
          "components": [
            {
              "internalType": "address",
              "name": "target",
              "type": "address"
            },
            {
              "internalType": "uint16",
              "name": "percentage",
              "type": "uint16"
            },
            {
              "internalType": "uint8",
              "name": "token",
              "type": "uint8"
            }
          ],
          "internalType": "struct PrizeSplit.PrizeSplitConfig[]",
          "name": "newPrizeSplits",
          "type": "tuple[]"
        }
      ],
      "name": "setPrizeSplits",
      "outputs": [],
      "stateMutability": "nonpayable",
      "type": "function"
    },
    {
      "inputs": [
        {
          "internalType": "address",
          "name": "newOwner",
          "type": "address"
        }
      ],
      "name": "transferOwnership",
      "outputs": [],
      "stateMutability": "nonpayable",
      "type": "function"
    }
  ],
  "bytecode": "0x60806040523480156200001157600080fd5b50620000226200002860201b60201c565b620004b2565b600060019054906101000a900460ff16806200005057506200004f6200013f60201b60201c565b5b8062000067575060008054906101000a900460ff16155b620000a9576040517f08c379a0000000000000000000000000000000000000000000000000000000008152600401620000a0906200047f565b60405180910390fd5b60008060019054906101000a900460ff161590508015620000fa576001600060016101000a81548160ff02191690831515021790555060016000806101000a81548160ff0219169083151502179055505b6200010a6200015d60201b60201c565b6200011a6200025460201b60201c565b80156200013c5760008060016101000a81548160ff0219169083151502179055505b50565b60006200015730620003fc60201b62000ff01760201c565b15905090565b600060019054906101000a900460ff1680620001855750620001846200013f60201b60201c565b5b806200019c575060008054906101000a900460ff16155b620001de576040517f08c379a0000000000000000000000000000000000000000000000000000000008152600401620001d5906200047f565b60405180910390fd5b60008060019054906101000a900460ff1615905080156200022f576001600060016101000a81548160ff02191690831515021790555060016000806101000a81548160ff0219169083151502179055505b8015620002515760008060016101000a81548160ff0219169083151502179055505b50565b600060019054906101000a900460ff16806200027c57506200027b6200013f60201b60201c565b5b8062000293575060008054906101000a900460ff16155b620002d5576040517f08c379a0000000000000000000000000000000000000000000000000000000008152600401620002cc906200047f565b60405180910390fd5b60008060019054906101000a900460ff16159050801562000326576001600060016101000a81548160ff02191690831515021790555060016000806101000a81548160ff0219169083151502179055505b6000620003386200040f60201b60201c565b905080603360006101000a81548173ffffffffffffffffffffffffffffffffffffffff021916908373ffffffffffffffffffffffffffffffffffffffff1602179055508073ffffffffffffffffffffffffffffffffffffffff16600073ffffffffffffffffffffffffffffffffffffffff167f8be0079c531659141344cd1fd0a4f28419497f9722a3daafe3b4186f6b6457e060405160405180910390a3508015620003f95760008060016101000a81548160ff0219169083151502179055505b50565b600080823b905060008111915050919050565b600033905090565b600062000426602e83620004a1565b91507f496e697469616c697a61626c653a20636f6e747261637420697320616c72656160008301527f647920696e697469616c697a65640000000000000000000000000000000000006020830152604082019050919050565b600060208201905081810360008301526200049a8162000417565b9050919050565b600082825260208201905092915050565b61207f80620004c26000396000f3fe608060405234801561001057600080fd5b506004361061009e5760003560e01c8063a224cee711610066578063a224cee714610135578063c25a9c3214610151578063eefc8ad11461016d578063f2fde38b1461019d578063fbf0953e146101b95761009e565b8063715018a6146100a35780637cbab1c7146100ad5780638d5f10c4146100c95780638da5cb5b146100e757806391c05b0b14610105575b600080fd5b6100ab6101d5565b005b6100c760048036038101906100c29190611634565b610312565b005b6100d1610317565b6040516100de9190611cde565b60405180910390f35b6100ef610405565b6040516100fc9190611c9a565b60405180910390f35b61011f600480360381019061011a919061179b565b61042f565b60405161012c9190611ec9565b60405180910390f35b61014f600480360381019061014a9190611683565b610444565b005b61016b600480360381019061016691906116c8565b6104e7565b005b6101876004803603810190610182919061179b565b610a9e565b6040516101949190611e40565b60405180910390f35b6101b760048036038101906101b2919061160b565b610b62565b005b6101d360048036038101906101ce919061175f565b610d0e565b005b6101dd611003565b73ffffffffffffffffffffffffffffffffffffffff166101fb610405565b73ffffffffffffffffffffffffffffffffffffffff1614610251576040517f08c379a000000000000000000000000000000000000000000000000000000000815260040161024890611de0565b60405180910390fd5b600073ffffffffffffffffffffffffffffffffffffffff16603360009054906101000a900473ffffffffffffffffffffffffffffffffffffffff1673ffffffffffffffffffffffffffffffffffffffff167f8be0079c531659141344cd1fd0a4f28419497f9722a3daafe3b4186f6b6457e060405160405180910390a36000603360006101000a81548173ffffffffffffffffffffffffffffffffffffffff021916908373ffffffffffffffffffffffffffffffffffffffff160217905550565b505050565b60606065805480602002602001604051908101604052809291908181526020016000905b828210156103fc578382906000526020600020016040518060600160405290816000820160009054906101000a900473ffffffffffffffffffffffffffffffffffffffff1673ffffffffffffffffffffffffffffffffffffffff1673ffffffffffffffffffffffffffffffffffffffff1681526020016000820160149054906101000a900461ffff1661ffff1661ffff1681526020016000820160169054906101000a900460ff1660ff1660ff16815250508152602001906001019061033b565b50505050905090565b6000603360009054906101000a900473ffffffffffffffffffffffffffffffffffffffff16905090565b600061043a8261100b565b9150819050919050565b60005b828290508110156104e257606683838381811061046057fe5b9050602002016020810190610475919061170d565b9080600181540180825580915050600190039060005260206000200160009091909190916101000a81548173ffffffffffffffffffffffffffffffffffffffff021916908373ffffffffffffffffffffffffffffffffffffffff1602179055508080600101915050610447565b505050565b6104ef611003565b73ffffffffffffffffffffffffffffffffffffffff1661050d610405565b73ffffffffffffffffffffffffffffffffffffffff1614610563576040517f08c379a000000000000000000000000000000000000000000000000000000000815260040161055a90611de0565b60405180910390fd5b600082829050905060005b818110156109785761057e611470565b84848381811061058a57fe5b9050606002018036038101906105a09190611736565b90506001816040015160ff1611156105ed576040517f08c379a00000000000000000000000000000000000000000000000000000000081526004016105e490611d40565b60405180910390fd5b600073ffffffffffffffffffffffffffffffffffffffff16816000015173ffffffffffffffffffffffffffffffffffffffff161415610661576040517f08c379a000000000000000000000000000000000000000000000000000000000815260040161065890611da0565b60405180910390fd5b8160658054905011610727576065819080600181540180825580915050600190039060005260206000200160009091909190915060008201518160000160006101000a81548173ffffffffffffffffffffffffffffffffffffffff021916908373ffffffffffffffffffffffffffffffffffffffff16021790555060208201518160000160146101000a81548161ffff021916908361ffff16021790555060408201518160000160166101000a81548160ff021916908360ff160217905550505061090b565b61072f611470565b6065838154811061073c57fe5b906000526020600020016040518060600160405290816000820160009054906101000a900473ffffffffffffffffffffffffffffffffffffffff1673ffffffffffffffffffffffffffffffffffffffff1673ffffffffffffffffffffffffffffffffffffffff1681526020016000820160149054906101000a900461ffff1661ffff1661ffff1681526020016000820160169054906101000a900460ff1660ff1660ff16815250509050806000015173ffffffffffffffffffffffffffffffffffffffff16826000015173ffffffffffffffffffffffffffffffffffffffff161415806108395750806020015161ffff16826020015161ffff1614155b806108525750806040015160ff16826040015160ff1614155b1561090257816065848154811061086557fe5b9060005260206000200160008201518160000160006101000a81548173ffffffffffffffffffffffffffffffffffffffff021916908373ffffffffffffffffffffffffffffffffffffffff16021790555060208201518160000160146101000a81548161ffff021916908361ffff16021790555060408201518160000160166101000a81548160ff021916908360ff160217905550905050610909565b505061096b565b505b806000015173ffffffffffffffffffffffffffffffffffffffff167fc1bf93444a0055a24a7d0154b75fedf78edfe355c06a2ce8e47f9f3908720559826020015183604001518560405161096193929190611e5b565b60405180910390a2505b808060010191505061056e565b505b806065805490501115610a475760006109a2600160658054905061113990919063ffffffff16565b905060658054806109af57fe5b60019003818190600052602060002001600080820160006101000a81549073ffffffffffffffffffffffffffffffffffffffff02191690556000820160146101000a81549061ffff02191690556000820160166101000a81549060ff021916905550509055807f99fa473fdf53414bcd014cf6e7509fc58c68f7b86174767faa6ad5100cd5bae560405160405180910390a25061097a565b6000610a51611189565b90506103e8811115610a98576040517f08c379a0000000000000000000000000000000000000000000000000000000008152600401610a8f90611e00565b60405180910390fd5b50505050565b610aa6611470565b60658281548110610ab357fe5b906000526020600020016040518060600160405290816000820160009054906101000a900473ffffffffffffffffffffffffffffffffffffffff1673ffffffffffffffffffffffffffffffffffffffff1673ffffffffffffffffffffffffffffffffffffffff1681526020016000820160149054906101000a900461ffff1661ffff1661ffff1681526020016000820160169054906101000a900460ff1660ff1660ff16815250509050919050565b610b6a611003565b73ffffffffffffffffffffffffffffffffffffffff16610b88610405565b73ffffffffffffffffffffffffffffffffffffffff1614610bde576040517f08c379a0000000000000000000000000000000000000000000000000000000008152600401610bd590611de0565b60405180910390fd5b600073ffffffffffffffffffffffffffffffffffffffff168173ffffffffffffffffffffffffffffffffffffffff161415610c4e576040517f08c379a0000000000000000000000000000000000000000000000000000000008152600401610c4590611d00565b60405180910390fd5b8073ffffffffffffffffffffffffffffffffffffffff16603360009054906101000a900473ffffffffffffffffffffffffffffffffffffffff1673ffffffffffffffffffffffffffffffffffffffff167f8be0079c531659141344cd1fd0a4f28419497f9722a3daafe3b4186f6b6457e060405160405180910390a380603360006101000a81548173ffffffffffffffffffffffffffffffffffffffff021916908373ffffffffffffffffffffffffffffffffffffffff16021790555050565b610d16611003565b73ffffffffffffffffffffffffffffffffffffffff16610d34610405565b73ffffffffffffffffffffffffffffffffffffffff1614610d8a576040517f08c379a0000000000000000000000000000000000000000000000000000000008152600401610d8190611de0565b60405180910390fd5b6065805490508160ff1610610dd4576040517f08c379a0000000000000000000000000000000000000000000000000000000008152600401610dcb90611dc0565b60405180910390fd5b6001826040015160ff161115610e1f576040517f08c379a0000000000000000000000000000000000000000000000000000000008152600401610e1690611d40565b60405180910390fd5b600073ffffffffffffffffffffffffffffffffffffffff16826000015173ffffffffffffffffffffffffffffffffffffffff161415610e93576040517f08c379a0000000000000000000000000000000000000000000000000000000008152600401610e8a90611da0565b60405180910390fd5b8160658260ff1681548110610ea457fe5b9060005260206000200160008201518160000160006101000a81548173ffffffffffffffffffffffffffffffffffffffff021916908373ffffffffffffffffffffffffffffffffffffffff16021790555060208201518160000160146101000a81548161ffff021916908361ffff16021790555060408201518160000160166101000a81548160ff021916908360ff1602179055509050506000610f46611189565b90506103e8811115610f8d576040517f08c379a0000000000000000000000000000000000000000000000000000000008152600401610f8490611e00565b60405180910390fd5b826000015173ffffffffffffffffffffffffffffffffffffffff167fc1bf93444a0055a24a7d0154b75fedf78edfe355c06a2ce8e47f9f39087205598460200151856040015185604051610fe393929190611e92565b60405180910390a2505050565b600080823b905060008111915050919050565b600033905090565b6000808290506000606580549050905060005b8181101561112e5761102e611470565b6065828154811061103b57fe5b906000526020600020016040518060600160405290816000820160009054906101000a900473ffffffffffffffffffffffffffffffffffffffff1673ffffffffffffffffffffffffffffffffffffffff1673ffffffffffffffffffffffffffffffffffffffff1681526020016000820160149054906101000a900461ffff1661ffff1661ffff1681526020016000820160169054906101000a900460ff1660ff1660ff1681525050905060006110f585836020015161129a565b905061110a82600001518284604001516112bf565b61111d818861113990919063ffffffff16565b96505050808060010191505061101e565b508392505050919050565b60008282111561117e576040517f08c379a000000000000000000000000000000000000000000000000000000000815260040161117590611d60565b60405180910390fd5b818303905092915050565b6000806000606580549050905060005b818160ff161015611291576111ac611470565b60658260ff16815481106111bc57fe5b906000526020600020016040518060600160405290816000820160009054906101000a900473ffffffffffffffffffffffffffffffffffffffff1673ffffffffffffffffffffffffffffffffffffffff1673ffffffffffffffffffffffffffffffffffffffff1681526020016000820160149054906101000a900461ffff1661ffff1661ffff1681526020016000820160169054906101000a900460ff1660ff1660ff16815250509050611281816020015161ffff16856113c590919063ffffffff16565b9350508080600101915050611199565b50819250505090565b60006112b76103e88361ffff16850261141a90919063ffffffff16565b905092915050565b60008160ff1614806112d4575060018160ff16145b611313576040517f08c379a000000000000000000000000000000000000000000000000000000000815260040161130a90611e20565b60405180910390fd5b600060668260ff168154811061132557fe5b9060005260206000200160009054906101000a900473ffffffffffffffffffffffffffffffffffffffff1690508073ffffffffffffffffffffffffffffffffffffffff16635d7b075885856040518363ffffffff1660e01b815260040161138d929190611cb5565b600060405180830381600087803b1580156113a757600080fd5b505af11580156113bb573d6000803e3d6000fd5b5050505050505050565b600080828401905083811015611410576040517f08c379a000000000000000000000000000000000000000000000000000000000815260040161140790611d20565b60405180910390fd5b8091505092915050565b600080821161145e576040517f08c379a000000000000000000000000000000000000000000000000000000000815260040161145590611d80565b60405180910390fd5b81838161146757fe5b04905092915050565b6040518060600160405280600073ffffffffffffffffffffffffffffffffffffffff168152602001600061ffff168152602001600060ff1681525090565b6000813590506114bd81611fd6565b92915050565b60008083601f8401126114d557600080fd5b8235905067ffffffffffffffff8111156114ee57600080fd5b60208301915083602082028301111561150657600080fd5b9250929050565b60008083601f84011261151f57600080fd5b8235905067ffffffffffffffff81111561153857600080fd5b60208301915083606082028301111561155057600080fd5b9250929050565b60008135905061156681611fed565b92915050565b60006060828403121561157e57600080fd5b6115886060611ee4565b90506000611598848285016114ae565b60008301525060206115ac848285016115cc565b60208301525060406115c0848285016115f6565b60408301525092915050565b6000813590506115db81612004565b92915050565b6000813590506115f08161201b565b92915050565b60008135905061160581612032565b92915050565b60006020828403121561161d57600080fd5b600061162b848285016114ae565b91505092915050565b60008060006060848603121561164957600080fd5b6000611657868287016114ae565b9350506020611668868287016114ae565b9250506040611679868287016115e1565b9150509250925092565b6000806020838503121561169657600080fd5b600083013567ffffffffffffffff8111156116b057600080fd5b6116bc858286016114c3565b92509250509250929050565b600080602083850312156116db57600080fd5b600083013567ffffffffffffffff8111156116f557600080fd5b6117018582860161150d565b92509250509250929050565b60006020828403121561171f57600080fd5b600061172d84828501611557565b91505092915050565b60006060828403121561174857600080fd5b60006117568482850161156c565b91505092915050565b6000806080838503121561177257600080fd5b60006117808582860161156c565b9250506060611791858286016115f6565b9150509250929050565b6000602082840312156117ad57600080fd5b60006117bb848285016115e1565b91505092915050565b60006117d08383611bbc565b60608301905092915050565b6117e581611f5b565b82525050565b6117f481611f5b565b82525050565b600061180582611f21565b61180f8185611f39565b935061181a83611f11565b8060005b8381101561184b57815161183288826117c4565b975061183d83611f2c565b92505060018101905061181e565b5085935050505092915050565b6000611865602683611f4a565b91507f4f776e61626c653a206e6577206f776e657220697320746865207a65726f206160008301527f64647265737300000000000000000000000000000000000000000000000000006020830152604082019050919050565b60006118cb601b83611f4a565b91507f536166654d6174683a206164646974696f6e206f766572666c6f7700000000006000830152602082019050919050565b600061190b602883611f4a565b91507f4d756c7469706c6557696e6e6572732f696e76616c69642d7072697a6573706c60008301527f69742d746f6b656e0000000000000000000000000000000000000000000000006020830152604082019050919050565b6000611971601e83611f4a565b91507f536166654d6174683a207375627472616374696f6e206f766572666c6f7700006000830152602082019050919050565b60006119b1601a83611f4a565b91507f536166654d6174683a206469766973696f6e206279207a65726f0000000000006000830152602082019050919050565b60006119f1602983611f4a565b91507f4d756c7469706c6557696e6e6572732f696e76616c69642d7072697a6573706c60008301527f69742d74617267657400000000000000000000000000000000000000000000006020830152604082019050919050565b6000611a57602683611f4a565b91507f4d756c7469706c6557696e6e6572732f6e6f6e6578697374656e742d7072697a60008301527f6573706c697400000000000000000000000000000000000000000000000000006020830152604082019050919050565b6000611abd602083611f4a565b91507f4f776e61626c653a2063616c6c6572206973206e6f7420746865206f776e65726000830152602082019050919050565b6000611afd603383611f4a565b91507f4d756c7469706c6557696e6e6572732f696e76616c69642d7072697a6573706c60008301527f69742d70657263656e746167652d746f74616c000000000000000000000000006020830152604082019050919050565b6000611b63602f83611f4a565b91507f5072697a6553706c69744861726e6573732f696e76616c69642d7072697a657360008301527f706c69742d746f6b656e2d7479706500000000000000000000000000000000006020830152604082019050919050565b606082016000820151611bd260008501826117dc565b506020820151611be56020850182611c40565b506040820151611bf86040850182611c7c565b50505050565b606082016000820151611c1460008501826117dc565b506020820151611c276020850182611c40565b506040820151611c3a6040850182611c7c565b50505050565b611c4981611f7f565b82525050565b611c5881611f7f565b82525050565b611c6781611fad565b82525050565b611c7681611fc4565b82525050565b611c8581611fb7565b82525050565b611c9481611fb7565b82525050565b6000602082019050611caf60008301846117eb565b92915050565b6000604082019050611cca60008301856117eb565b611cd76020830184611c5e565b9392505050565b60006020820190508181036000830152611cf881846117fa565b905092915050565b60006020820190508181036000830152611d1981611858565b9050919050565b60006020820190508181036000830152611d39816118be565b9050919050565b60006020820190508181036000830152611d59816118fe565b9050919050565b60006020820190508181036000830152611d7981611964565b9050919050565b60006020820190508181036000830152611d99816119a4565b9050919050565b60006020820190508181036000830152611db9816119e4565b9050919050565b60006020820190508181036000830152611dd981611a4a565b9050919050565b60006020820190508181036000830152611df981611ab0565b9050919050565b60006020820190508181036000830152611e1981611af0565b9050919050565b60006020820190508181036000830152611e3981611b56565b9050919050565b6000606082019050611e556000830184611bfe565b92915050565b6000606082019050611e706000830186611c4f565b611e7d6020830185611c8b565b611e8a6040830184611c5e565b949350505050565b6000606082019050611ea76000830186611c4f565b611eb46020830185611c8b565b611ec16040830184611c6d565b949350505050565b6000602082019050611ede6000830184611c5e565b92915050565b6000604051905081810181811067ffffffffffffffff82111715611f0757600080fd5b8060405250919050565b6000819050602082019050919050565b600081519050919050565b6000602082019050919050565b600082825260208201905092915050565b600082825260208201905092915050565b6000611f6682611f8d565b9050919050565b6000611f7882611f5b565b9050919050565b600061ffff82169050919050565b600073ffffffffffffffffffffffffffffffffffffffff82169050919050565b6000819050919050565b600060ff82169050919050565b6000611fcf82611fb7565b9050919050565b611fdf81611f5b565b8114611fea57600080fd5b50565b611ff681611f6d565b811461200157600080fd5b50565b61200d81611f7f565b811461201857600080fd5b50565b61202481611fad565b811461202f57600080fd5b50565b61203b81611fb7565b811461204657600080fd5b5056fea264697066735822122019cab295dfe3fc4467cbeb9c5067bd4bd3b9bdeeeedb9867ec10d74adf04807a64736f6c634300060c0033",
  "linkReferences": {},
  "deployedLinkReferences": {}
}