{
  "_format": "hh-sol-artifact-1",
  "contractName": "PrizePoolHarness",
  "sourceName": "contracts/test/PrizePoolHarness.sol",
  "abi": [
    {
      "anonymous": false,
      "inputs": [
        {
          "indexed": false,
          "internalType": "uint256",
          "name": "amount",
          "type": "uint256"
        }
      ],
      "name": "AwardCaptured",
      "type": "event"
    },
    {
      "anonymous": false,
      "inputs": [
        {
          "indexed": true,
          "internalType": "address",
          "name": "winner",
          "type": "address"
        },
        {
          "indexed": true,
          "internalType": "address",
          "name": "token",
          "type": "address"
        },
        {
          "indexed": false,
          "internalType": "uint256",
          "name": "amount",
          "type": "uint256"
        }
      ],
      "name": "Awarded",
      "type": "event"
    },
    {
      "anonymous": false,
      "inputs": [
        {
          "indexed": true,
          "internalType": "address",
          "name": "winner",
          "type": "address"
        },
        {
          "indexed": true,
          "internalType": "address",
          "name": "token",
          "type": "address"
        },
        {
          "indexed": false,
          "internalType": "uint256",
          "name": "amount",
          "type": "uint256"
        }
      ],
      "name": "AwardedExternalERC20",
      "type": "event"
    },
    {
      "anonymous": false,
      "inputs": [
        {
          "indexed": true,
          "internalType": "address",
          "name": "winner",
          "type": "address"
        },
        {
          "indexed": true,
          "internalType": "address",
          "name": "token",
          "type": "address"
        },
        {
          "indexed": false,
          "internalType": "uint256[]",
          "name": "tokenIds",
          "type": "uint256[]"
        }
      ],
      "name": "AwardedExternalERC721",
      "type": "event"
    },
    {
      "anonymous": false,
      "inputs": [
        {
          "indexed": true,
          "internalType": "contract ControlledTokenInterface",
          "name": "token",
          "type": "address"
        }
      ],
      "name": "ControlledTokenAdded",
      "type": "event"
    },
    {
      "anonymous": false,
      "inputs": [
        {
          "indexed": true,
          "internalType": "address",
          "name": "user",
          "type": "address"
        },
        {
          "indexed": true,
          "internalType": "address",
          "name": "token",
          "type": "address"
        },
        {
          "indexed": false,
          "internalType": "uint256",
          "name": "amount",
          "type": "uint256"
        }
      ],
      "name": "CreditBurned",
      "type": "event"
    },
    {
      "anonymous": false,
      "inputs": [
        {
          "indexed": true,
          "internalType": "address",
          "name": "user",
          "type": "address"
        },
        {
          "indexed": true,
          "internalType": "address",
          "name": "token",
          "type": "address"
        },
        {
          "indexed": false,
          "internalType": "uint256",
          "name": "amount",
          "type": "uint256"
        }
      ],
      "name": "CreditMinted",
      "type": "event"
    },
    {
      "anonymous": false,
      "inputs": [
        {
          "indexed": false,
          "internalType": "address",
          "name": "token",
          "type": "address"
        },
        {
          "indexed": false,
          "internalType": "uint128",
          "name": "creditLimitMantissa",
          "type": "uint128"
        },
        {
          "indexed": false,
          "internalType": "uint128",
          "name": "creditRateMantissa",
          "type": "uint128"
        }
      ],
      "name": "CreditPlanSet",
      "type": "event"
    },
    {
      "anonymous": false,
      "inputs": [
        {
          "indexed": true,
          "internalType": "address",
          "name": "operator",
          "type": "address"
        },
        {
          "indexed": true,
          "internalType": "address",
          "name": "to",
          "type": "address"
        },
        {
          "indexed": true,
          "internalType": "address",
          "name": "token",
          "type": "address"
        },
        {
          "indexed": false,
          "internalType": "uint256",
          "name": "amount",
          "type": "uint256"
        },
        {
          "indexed": false,
          "internalType": "address",
          "name": "referrer",
          "type": "address"
        }
      ],
      "name": "Deposited",
      "type": "event"
    },
    {
      "anonymous": false,
      "inputs": [
        {
          "indexed": false,
          "internalType": "bytes",
          "name": "error",
          "type": "bytes"
        }
      ],
      "name": "ErrorAwardingExternalERC721",
      "type": "event"
    },
    {
      "anonymous": false,
      "inputs": [
        {
          "indexed": false,
          "internalType": "address",
          "name": "reserveRegistry",
          "type": "address"
        },
        {
          "indexed": false,
          "internalType": "uint256",
          "name": "maxExitFeeMantissa",
          "type": "uint256"
        }
      ],
      "name": "Initialized",
      "type": "event"
    },
    {
      "anonymous": false,
      "inputs": [
        {
          "indexed": true,
          "internalType": "address",
          "name": "operator",
          "type": "address"
        },
        {
          "indexed": true,
          "internalType": "address",
          "name": "from",
          "type": "address"
        },
        {
          "indexed": true,
          "internalType": "address",
          "name": "token",
          "type": "address"
        },
        {
          "indexed": false,
          "internalType": "uint256",
          "name": "amount",
          "type": "uint256"
        },
        {
          "indexed": false,
          "internalType": "uint256",
          "name": "redeemed",
          "type": "uint256"
        },
        {
          "indexed": false,
          "internalType": "uint256",
          "name": "exitFee",
          "type": "uint256"
        }
      ],
      "name": "InstantWithdrawal",
      "type": "event"
    },
    {
      "anonymous": false,
      "inputs": [
        {
          "indexed": false,
          "internalType": "uint256",
          "name": "liquidityCap",
          "type": "uint256"
        }
      ],
      "name": "LiquidityCapSet",
      "type": "event"
    },
    {
      "anonymous": false,
      "inputs": [
        {
          "indexed": true,
          "internalType": "address",
          "name": "previousOwner",
          "type": "address"
        },
        {
          "indexed": true,
          "internalType": "address",
          "name": "newOwner",
          "type": "address"
        }
      ],
      "name": "OwnershipTransferred",
      "type": "event"
    },
    {
      "anonymous": false,
      "inputs": [
        {
          "indexed": true,
          "internalType": "address",
          "name": "prizeStrategy",
          "type": "address"
        }
      ],
      "name": "PrizeStrategySet",
      "type": "event"
    },
    {
      "anonymous": false,
      "inputs": [
        {
          "indexed": false,
          "internalType": "uint256",
          "name": "amount",
          "type": "uint256"
        }
      ],
      "name": "ReserveFeeCaptured",
      "type": "event"
    },
    {
      "anonymous": false,
      "inputs": [
        {
          "indexed": true,
          "internalType": "address",
          "name": "to",
          "type": "address"
        },
        {
          "indexed": false,
          "internalType": "uint256",
          "name": "amount",
          "type": "uint256"
        }
      ],
      "name": "ReserveWithdrawal",
      "type": "event"
    },
    {
      "anonymous": false,
      "inputs": [
        {
          "indexed": true,
          "internalType": "address",
          "name": "to",
          "type": "address"
        },
        {
          "indexed": true,
          "internalType": "address",
          "name": "token",
          "type": "address"
        },
        {
          "indexed": false,
          "internalType": "uint256",
          "name": "amount",
          "type": "uint256"
        }
      ],
      "name": "TransferredExternalERC20",
      "type": "event"
    },
    {
      "inputs": [],
      "name": "VERSION",
      "outputs": [
        {
          "internalType": "string",
          "name": "",
          "type": "string"
        }
      ],
      "stateMutability": "view",
      "type": "function"
    },
    {
      "inputs": [],
      "name": "accountedBalance",
      "outputs": [
        {
          "internalType": "uint256",
          "name": "",
          "type": "uint256"
        }
      ],
      "stateMutability": "view",
      "type": "function"
    },
    {
      "inputs": [
        {
          "internalType": "address",
          "name": "to",
          "type": "address"
        },
        {
          "internalType": "uint256",
          "name": "amount",
          "type": "uint256"
        },
        {
          "internalType": "address",
          "name": "controlledToken",
          "type": "address"
        }
      ],
      "name": "award",
      "outputs": [],
      "stateMutability": "nonpayable",
      "type": "function"
    },
    {
      "inputs": [],
      "name": "awardBalance",
      "outputs": [
        {
          "internalType": "uint256",
          "name": "",
          "type": "uint256"
        }
      ],
      "stateMutability": "view",
      "type": "function"
    },
    {
      "inputs": [
        {
          "internalType": "address",
          "name": "to",
          "type": "address"
        },
        {
          "internalType": "address",
          "name": "externalToken",
          "type": "address"
        },
        {
          "internalType": "uint256",
          "name": "amount",
          "type": "uint256"
        }
      ],
      "name": "awardExternalERC20",
      "outputs": [],
      "stateMutability": "nonpayable",
      "type": "function"
    },
    {
      "inputs": [
        {
          "internalType": "address",
          "name": "to",
          "type": "address"
        },
        {
          "internalType": "address",
          "name": "externalToken",
          "type": "address"
        },
        {
          "internalType": "uint256[]",
          "name": "tokenIds",
          "type": "uint256[]"
        }
      ],
      "name": "awardExternalERC721",
      "outputs": [],
      "stateMutability": "nonpayable",
      "type": "function"
    },
    {
      "inputs": [],
      "name": "balance",
      "outputs": [
        {
          "internalType": "uint256",
          "name": "",
          "type": "uint256"
        }
      ],
      "stateMutability": "nonpayable",
      "type": "function"
    },
    {
      "inputs": [
        {
          "internalType": "address",
          "name": "user",
          "type": "address"
        },
        {
          "internalType": "address",
          "name": "controlledToken",
          "type": "address"
        }
      ],
      "name": "balanceOfCredit",
      "outputs": [
        {
          "internalType": "uint256",
          "name": "",
          "type": "uint256"
        }
      ],
      "stateMutability": "nonpayable",
      "type": "function"
    },
    {
      "inputs": [
        {
          "internalType": "address",
          "name": "from",
          "type": "address"
        },
        {
          "internalType": "address",
          "name": "to",
          "type": "address"
        },
        {
          "internalType": "uint256",
          "name": "amount",
          "type": "uint256"
        }
      ],
      "name": "beforeTokenTransfer",
      "outputs": [],
      "stateMutability": "nonpayable",
      "type": "function"
    },
    {
      "inputs": [
        {
          "internalType": "address",
          "name": "from",
          "type": "address"
        },
        {
          "internalType": "address",
          "name": "controlledToken",
          "type": "address"
        },
        {
          "internalType": "uint256",
          "name": "amount",
          "type": "uint256"
        }
      ],
      "name": "calculateEarlyExitFee",
      "outputs": [
        {
          "internalType": "uint256",
          "name": "exitFee",
          "type": "uint256"
        },
        {
          "internalType": "uint256",
          "name": "burnedCredit",
          "type": "uint256"
        }
      ],
      "stateMutability": "nonpayable",
      "type": "function"
    },
    {
      "inputs": [
        {
          "internalType": "uint256",
          "name": "amount",
          "type": "uint256"
        }
      ],
      "name": "calculateReserveFee",
      "outputs": [
        {
          "internalType": "uint256",
          "name": "",
          "type": "uint256"
        }
      ],
      "stateMutability": "view",
      "type": "function"
    },
    {
      "inputs": [
        {
          "internalType": "address",
          "name": "_externalToken",
          "type": "address"
        }
      ],
      "name": "canAwardExternal",
      "outputs": [
        {
          "internalType": "bool",
          "name": "",
          "type": "bool"
        }
      ],
      "stateMutability": "view",
      "type": "function"
    },
    {
      "inputs": [],
      "name": "captureAwardBalance",
      "outputs": [
        {
          "internalType": "uint256",
          "name": "",
          "type": "uint256"
        }
      ],
      "stateMutability": "nonpayable",
      "type": "function"
    },
    {
      "inputs": [
        {
          "internalType": "address",
          "name": "controlledToken",
          "type": "address"
        }
      ],
      "name": "creditPlanOf",
      "outputs": [
        {
          "internalType": "uint128",
          "name": "creditLimitMantissa",
          "type": "uint128"
        },
        {
          "internalType": "uint128",
          "name": "creditRateMantissa",
          "type": "uint128"
        }
      ],
      "stateMutability": "view",
      "type": "function"
    },
    {
      "inputs": [],
      "name": "currentTime",
      "outputs": [
        {
          "internalType": "uint256",
          "name": "",
          "type": "uint256"
        }
      ],
      "stateMutability": "view",
      "type": "function"
    },
    {
      "inputs": [
        {
          "internalType": "address",
          "name": "to",
          "type": "address"
        },
        {
          "internalType": "uint256",
          "name": "amount",
          "type": "uint256"
        },
        {
          "internalType": "address",
          "name": "controlledToken",
          "type": "address"
        },
        {
          "internalType": "address",
          "name": "referrer",
          "type": "address"
        }
      ],
      "name": "depositTo",
      "outputs": [],
      "stateMutability": "nonpayable",
      "type": "function"
    },
    {
      "inputs": [
        {
          "internalType": "address",
          "name": "_controlledToken",
          "type": "address"
        },
        {
          "internalType": "uint256",
          "name": "_principal",
          "type": "uint256"
        },
        {
          "internalType": "uint256",
          "name": "_interest",
          "type": "uint256"
        }
      ],
      "name": "estimateCreditAccrualTime",
      "outputs": [
        {
          "internalType": "uint256",
          "name": "durationSeconds",
          "type": "uint256"
        }
      ],
      "stateMutability": "view",
      "type": "function"
    },
    {
      "inputs": [
        {
          "internalType": "contract RegistryInterface",
          "name": "_reserveRegistry",
          "type": "address"
        },
        {
          "internalType": "contract ControlledTokenInterface[]",
          "name": "_controlledTokens",
          "type": "address[]"
        },
        {
          "internalType": "uint256",
          "name": "_maxExitFeeMantissa",
          "type": "uint256"
        }
      ],
      "name": "initialize",
      "outputs": [],
      "stateMutability": "nonpayable",
      "type": "function"
    },
    {
      "inputs": [
        {
          "internalType": "contract RegistryInterface",
          "name": "_reserveRegistry",
          "type": "address"
        },
        {
          "internalType": "contract ControlledTokenInterface[]",
          "name": "_controlledTokens",
          "type": "address[]"
        },
        {
          "internalType": "uint256",
          "name": "_maxExitFeeMantissa",
          "type": "uint256"
        },
        {
          "internalType": "contract YieldSourceStub",
          "name": "_stubYieldSource",
          "type": "address"
        }
      ],
      "name": "initializeAll",
      "outputs": [],
      "stateMutability": "nonpayable",
      "type": "function"
    },
    {
      "inputs": [
        {
          "internalType": "contract ControlledTokenInterface",
          "name": "controlledToken",
          "type": "address"
        }
      ],
      "name": "isControlled",
      "outputs": [
        {
          "internalType": "bool",
          "name": "",
          "type": "bool"
        }
      ],
      "stateMutability": "view",
      "type": "function"
    },
    {
      "inputs": [],
      "name": "liquidityCap",
      "outputs": [
        {
          "internalType": "uint256",
          "name": "",
          "type": "uint256"
        }
      ],
      "stateMutability": "view",
      "type": "function"
    },
    {
      "inputs": [],
      "name": "maxExitFeeMantissa",
      "outputs": [
        {
          "internalType": "uint256",
          "name": "",
          "type": "uint256"
        }
      ],
      "stateMutability": "view",
      "type": "function"
    },
    {
      "inputs": [
        {
          "internalType": "address",
          "name": "operator",
          "type": "address"
        },
        {
          "internalType": "address",
          "name": "from",
          "type": "address"
        },
        {
          "internalType": "uint256",
          "name": "tokenId",
          "type": "uint256"
        },
        {
          "internalType": "bytes",
          "name": "data",
          "type": "bytes"
        }
      ],
      "name": "onERC721Received",
      "outputs": [
        {
          "internalType": "bytes4",
          "name": "",
          "type": "bytes4"
        }
      ],
      "stateMutability": "nonpayable",
      "type": "function"
    },
    {
      "inputs": [],
      "name": "owner",
      "outputs": [
        {
          "internalType": "address",
          "name": "",
          "type": "address"
        }
      ],
      "stateMutability": "view",
      "type": "function"
    },
    {
      "inputs": [],
      "name": "prizeStrategy",
      "outputs": [
        {
          "internalType": "contract TokenListenerInterface",
          "name": "",
          "type": "address"
        }
      ],
      "stateMutability": "view",
      "type": "function"
    },
    {
      "inputs": [
        {
          "internalType": "uint256",
          "name": "redeemAmount",
          "type": "uint256"
        }
      ],
      "name": "redeem",
      "outputs": [],
      "stateMutability": "nonpayable",
      "type": "function"
    },
    {
      "inputs": [],
      "name": "renounceOwnership",
      "outputs": [],
      "stateMutability": "nonpayable",
      "type": "function"
    },
    {
      "inputs": [],
      "name": "reserveRegistry",
      "outputs": [
        {
          "internalType": "contract RegistryInterface",
          "name": "",
          "type": "address"
        }
      ],
      "stateMutability": "view",
      "type": "function"
    },
    {
      "inputs": [],
      "name": "reserveTotalSupply",
      "outputs": [
        {
          "internalType": "uint256",
          "name": "",
          "type": "uint256"
        }
      ],
      "stateMutability": "view",
      "type": "function"
    },
    {
      "inputs": [
        {
          "internalType": "address",
          "name": "_controlledToken",
          "type": "address"
        },
        {
          "internalType": "uint128",
          "name": "_creditRateMantissa",
          "type": "uint128"
        },
        {
          "internalType": "uint128",
          "name": "_creditLimitMantissa",
          "type": "uint128"
        }
      ],
      "name": "setCreditPlanOf",
      "outputs": [],
      "stateMutability": "nonpayable",
      "type": "function"
    },
    {
      "inputs": [
        {
          "internalType": "uint256",
          "name": "_currentTime",
          "type": "uint256"
        }
      ],
      "name": "setCurrentTime",
      "outputs": [],
      "stateMutability": "nonpayable",
      "type": "function"
    },
    {
      "inputs": [
        {
          "internalType": "uint256",
          "name": "_liquidityCap",
          "type": "uint256"
        }
      ],
      "name": "setLiquidityCap",
      "outputs": [],
      "stateMutability": "nonpayable",
      "type": "function"
    },
    {
      "inputs": [
        {
          "internalType": "contract TokenListenerInterface",
          "name": "_prizeStrategy",
          "type": "address"
        }
      ],
      "name": "setPrizeStrategy",
      "outputs": [],
      "stateMutability": "nonpayable",
      "type": "function"
    },
    {
      "inputs": [
        {
          "internalType": "uint256",
          "name": "mintAmount",
          "type": "uint256"
        }
      ],
      "name": "supply",
      "outputs": [],
      "stateMutability": "nonpayable",
      "type": "function"
    },
    {
      "inputs": [],
      "name": "token",
      "outputs": [
        {
          "internalType": "address",
          "name": "",
          "type": "address"
        }
      ],
      "stateMutability": "view",
      "type": "function"
    },
    {
      "inputs": [],
      "name": "tokens",
      "outputs": [
        {
          "internalType": "contract ControlledTokenInterface[]",
          "name": "",
          "type": "address[]"
        }
      ],
      "stateMutability": "view",
      "type": "function"
    },
    {
      "inputs": [
        {
          "internalType": "address",
          "name": "to",
          "type": "address"
        },
        {
          "internalType": "address",
          "name": "externalToken",
          "type": "address"
        },
        {
          "internalType": "uint256",
          "name": "amount",
          "type": "uint256"
        }
      ],
      "name": "transferExternalERC20",
      "outputs": [],
      "stateMutability": "nonpayable",
      "type": "function"
    },
    {
      "inputs": [
        {
          "internalType": "address",
          "name": "newOwner",
          "type": "address"
        }
      ],
      "name": "transferOwnership",
      "outputs": [],
      "stateMutability": "nonpayable",
      "type": "function"
    },
    {
      "inputs": [
        {
          "internalType": "address",
          "name": "from",
          "type": "address"
        },
        {
          "internalType": "uint256",
          "name": "amount",
          "type": "uint256"
        },
        {
          "internalType": "address",
          "name": "controlledToken",
          "type": "address"
        },
        {
          "internalType": "uint256",
          "name": "maximumExitFee",
          "type": "uint256"
        }
      ],
      "name": "withdrawInstantlyFrom",
      "outputs": [
        {
          "internalType": "uint256",
          "name": "",
          "type": "uint256"
        }
      ],
      "stateMutability": "nonpayable",
      "type": "function"
    },
    {
      "inputs": [
        {
          "internalType": "address",
          "name": "to",
          "type": "address"
        }
      ],
      "name": "withdrawReserve",
      "outputs": [
        {
          "internalType": "uint256",
          "name": "",
          "type": "uint256"
        }
      ],
      "stateMutability": "nonpayable",
      "type": "function"
    }
  ],
  "bytecode": "0x608060405234801561001057600080fd5b50613f72806100206000396000f3fe608060405234801561001057600080fd5b50600436106102485760003560e01c8063888c2b6f1161013b578063b69ef8a8116100b8578063e6d8a94b1161007c578063e6d8a94b14610995578063edb4e1cf1461099d578063f2fde38b146109a5578063fc0c546a146109cb578063ffa1ad74146109d357610248565b8063b69ef8a8146108d7578063d18e81b3146108df578063d4a1361d146108e7578063db006a751461093c578063e323f8251461095957610248565b80639d63848a116100ff5780639d63848a146107e35780639e1675191461083b5780639fe32a9114610843578063a016240b14610860578063a7b2cc311461089a57610248565b8063888c2b6f1461073a5780638da5cb5b146107895780638e71c1f6146107ad57806391ca480e146107b557806398bf3eb6146107db57610248565b8063610c75ea116101c957806376687d3d1161018d57806376687d3d1461068757806378b3d3271461068f57806379cb8563146106b55780637b99adb1146106e75780637cbab1c71461070457610248565b8063610c75ea14610548578063630665b4146106075780636a3fd4f91461060f5780636b1b863a14610649578063715018a61461067f57610248565b80632b0ab144116102105780632b0ab144146103ee57806335403023146104245780633ede50c614610441578063494de9f7146104f457806352a387ab1461052257610248565b80630937eb541461024d57806313f55e3914610267578063150b7a021461029f57806316960d551461034a57806322f8e566146103d1575b600080fd5b610255610a50565b60408051918252519081900360200190f35b61029d6004803603606081101561027d57600080fd5b506001600160a01b03813581169160208101359091169060400135610a5f565b005b61032d600480360360808110156102b557600080fd5b6001600160a01b03823581169260208101359091169160408201359190810190608081016060820135600160201b8111156102ef57600080fd5b82018360208201111561030157600080fd5b803590602001918460018302840111600160201b8311171561032257600080fd5b509092509050610b1d565b604080516001600160e01b03199092168252519081900360200190f35b61029d6004803603606081101561036057600080fd5b6001600160a01b038235811692602081013590911691810190606081016040820135600160201b81111561039357600080fd5b8201836020820111156103a557600080fd5b803590602001918460208302840111600160201b831117156103c657600080fd5b509092509050610b2e565b61029d600480360360208110156103e757600080fd5b5035610ddb565b61029d6004803603606081101561040457600080fd5b506001600160a01b03813581169160208101359091169060400135610de0565b61029d6004803603602081101561043a57600080fd5b5035610e9d565b61029d6004803603606081101561045757600080fd5b6001600160a01b038235169190810190604081016020820135600160201b81111561048157600080fd5b82018360208201111561049357600080fd5b803590602001918460208302840111600160201b831117156104b457600080fd5b9190808060200260200160405190810160405280939291908181526020018383602002808284376000920191909152509295505091359250610ea9915050565b6102556004803603604081101561050a57600080fd5b506001600160a01b038135811691602001351661109b565b6102556004803603602081101561053857600080fd5b50356001600160a01b03166111a2565b61029d6004803603608081101561055e57600080fd5b6001600160a01b038235169190810190604081016020820135600160201b81111561058857600080fd5b82018360208201111561059a57600080fd5b803590602001918460208302840111600160201b831117156105bb57600080fd5b91908080602002602001604051908101604052809392919081815260200183836020028082843760009201919091525092955050823593505050602001356001600160a01b03166112f1565b610255611321565b6106356004803603602081101561062557600080fd5b50356001600160a01b0316611327565b604080519115158252519081900360200190f35b61029d6004803603606081101561065f57600080fd5b506001600160a01b0381358116916020810135916040909101351661133a565b61029d611542565b6102556115ee565b610635600480360360208110156106a557600080fd5b50356001600160a01b03166115f4565b610255600480360360608110156106cb57600080fd5b506001600160a01b0381351690602081013590604001356115ff565b61029d600480360360208110156106fd57600080fd5b5035611614565b61029d6004803603606081101561071a57600080fd5b506001600160a01b0381358116916020810135909116906040013561167f565b6107706004803603606081101561075057600080fd5b506001600160a01b038135811691602081013590911690604001356118cb565b6040805192835260208301919091528051918290030190f35b6107916118e5565b604080516001600160a01b039092168252519081900360200190f35b6107916118f4565b61029d600480360360208110156107cb57600080fd5b50356001600160a01b0316611903565b61079161196e565b6107eb61197d565b60408051602080825283518183015283519192839290830191858101910280838360005b8381101561082757818101518382015260200161080f565b505050509050019250505060405180910390f35b6102556119df565b6102556004803603602081101561085957600080fd5b50356119e5565b6102556004803603608081101561087657600080fd5b506001600160a01b0381358116916020810135916040820135169060600135611b13565b61029d600480360360608110156108b057600080fd5b506001600160a01b03813516906001600160801b0360208201358116916040013516611d4a565b610255611ea0565b610255611eaa565b61090d600480360360208110156108fd57600080fd5b50356001600160a01b0316611eb0565b60405180836001600160801b03168152602001826001600160801b031681526020019250505060405180910390f35b61029d6004803603602081101561095257600080fd5b5035611ee0565b61029d6004803603608081101561096f57600080fd5b506001600160a01b03813581169160208101359160408201358116916060013516611eed565b6102556120a2565b610255612218565b61029d600480360360208110156109bb57600080fd5b50356001600160a01b031661221e565b610791612321565b6109db61232b565b6040805160208082528351818301528351919283929083019185019080838360005b83811015610a155781810151838201526020016109fd565b50505050905090810190601f168015610a425780820380516001836020036101000a031916815260200191505b509250505060405180910390f35b6000610a5a61234c565b905090565b6099546001600160a01b0316610a73612457565b6001600160a01b031614610abc576040805162461bcd60e51b815260206004820152601c6024820152600080516020613f1d833981519152604482015290519081900360640190fd5b610ac783838361245b565b15610b1857816001600160a01b0316836001600160a01b03167fb0bac59718cd343c80a813518afcf36846cfcfe6d56e2b3cab9bd49f5f9b251c836040518082815260200191505060405180910390a35b505050565b630a85bd0160e11b95945050505050565b6099546001600160a01b0316610b42612457565b6001600160a01b031614610b8b576040805162461bcd60e51b815260206004820152601c6024820152600080516020613f1d833981519152604482015290519081900360640190fd5b610b94836124e3565b610be5576040805162461bcd60e51b815260206004820181905260248201527f5072697a65506f6f6c2f696e76616c69642d65787465726e616c2d746f6b656e604482015290519081900360640190fd5b80610bef57610dd5565b60005b81811015610d5c57836001600160a01b03166342842e0e3087868686818110610c1757fe5b905060200201356040518463ffffffff1660e01b815260040180846001600160a01b03168152602001836001600160a01b031681526020018281526020019350505050600060405180830381600087803b158015610c7457600080fd5b505af1925050508015610c85575060015b610d54573d808015610cb3576040519150601f19603f3d011682016040523d82523d6000602084013e610cb8565b606091505b507f17e975018310f88872b58d4d8263adca83cf5c1893496ea2a86923dab15276ad816040518080602001828103825283818151815260200191508051906020019080838360005b83811015610d18578181015183820152602001610d00565b50505050905090810190601f168015610d455780820380516001836020036101000a031916815260200191505b509250505060405180910390a1505b600101610bf2565b50826001600160a01b0316846001600160a01b03167f69c2de32bc4d47f488e72626a6cfdee85089342e52675e7de79c4b417623960c848460405180806020018281038252848482818152602001925060200280828437600083820152604051601f909101601f19169092018290039550909350505050a35b50505050565b60a055565b6099546001600160a01b0316610df4612457565b6001600160a01b031614610e3d576040805162461bcd60e51b815260206004820152601c6024820152600080516020613f1d833981519152604482015290519081900360640190fd5b610e4883838361245b565b15610b1857816001600160a01b0316836001600160a01b03167fc65f48aca3b7a99b7443d04b8ffbb073156179bc628dc3f7def5047748973469836040518082815260200191505060405180910390a3505050565b610ea681612566565b50565b600054610100900460ff1680610ec25750610ec26125ce565b80610ed0575060005460ff16155b610f0b5760405162461bcd60e51b815260040180806020018281038252602e815260200180613e17602e913960400191505060405180910390fd5b600054610100900460ff16158015610f36576000805460ff1961ff0019909116610100171660011790555b6001600160a01b038416610f7b5760405162461bcd60e51b8152600401808060200182810382526022815260200180613dcf6022913960400191505060405180910390fd5b82518067ffffffffffffffff81118015610f9457600080fd5b50604051908082528060200260200182016040528015610fbe578160200160208202803683370190505b508051610fd391609891602090910190613d06565b5060005b8181101561100a576000858281518110610fed57fe5b6020026020010151905061100181836125df565b50600101610fd7565b5061101361270a565b61101b6127bb565b611026600019612850565b609780546001600160a01b0319166001600160a01b038716908117909155609a849055604080519182526020820185905280517f25ff68dd81b34665b5ba7e553ee5511bf6812e12adb4a7e2c0d9e26b3099ce799281900390910190a1508015610dd5576000805461ff001916905550505050565b6000816110a78161288b565b6110e6576040805162461bcd60e51b81526020600482015260176024820152600080516020613ead833981519152604482015290519081900360640190fd5b61116b8484856001600160a01b03166370a08231886040518263ffffffff1660e01b815260040180826001600160a01b0316815260200191505060206040518083038186803b15801561113857600080fd5b505afa15801561114c573d6000803e3d6000fd5b505050506040513d602081101561116257600080fd5b50516000612947565b50506001600160a01b039081166000908152609f60209081526040808320949093168252929092529020546001600160c01b031690565b600080609760009054906101000a90046001600160a01b03166001600160a01b031663f5e3542b6040518163ffffffff1660e01b815260040160206040518083038186803b1580156111f357600080fd5b505afa158015611207573d6000803e3d6000fd5b505050506040513d602081101561121d57600080fd5b505190506001600160a01b0381163314611277576040805162461bcd60e51b81526020600482015260166024820152755072697a65506f6f6c2f6f6e6c792d7265736572766560501b604482015290519081900360640190fd5b609b80546000918290559061128b8261295d565b90506112aa858261129a6129be565b6001600160a01b03169190612a34565b6040805183815290516001600160a01b038716917f1c71c8e11fd443227c8f8d3dc1a237a3a5e8310b540c7fbcf5169754aedf42c9919081900360200190a2949350505050565b6112fc848484610ea9565b60a180546001600160a01b0319166001600160a01b0392909216919091179055505050565b609d5490565b6000611332826124e3565b90505b919050565b6099546001600160a01b031661134e612457565b6001600160a01b031614611397576040805162461bcd60e51b815260206004820152601c6024820152600080516020613f1d833981519152604482015290519081900360640190fd5b806113a18161288b565b6113e0576040805162461bcd60e51b81526020600482015260176024820152600080516020613ead833981519152604482015290519081900360640190fd5b826113ea57610dd5565b609d54831115611441576040805162461bcd60e51b815260206004820152601d60248201527f5072697a65506f6f6c2f61776172642d657863656564732d617661696c000000604482015290519081900360640190fd5b609d5461144e9084612a86565b609d5561145e8484846000612ae8565b600061146a8385612bce565b90506114f08584856001600160a01b03166370a08231896040518263ffffffff1660e01b815260040180826001600160a01b0316815260200191505060206040518083038186803b1580156114be57600080fd5b505afa1580156114d2573d6000803e3d6000fd5b505050506040513d60208110156114e857600080fd5b505184612947565b826001600160a01b0316856001600160a01b03167fe2554529d99ab7a67db6b4cea2b32c7d55ae325f958861e05f304fdded867e31866040518082815260200191505060405180910390a35050505050565b61154a612457565b6001600160a01b031661155b6118e5565b6001600160a01b0316146115a4576040805162461bcd60e51b81526020600482018190526024820152600080516020613e66833981519152604482015290519081900360640190fd5b6033546040516000916001600160a01b0316907f8be0079c531659141344cd1fd0a4f28419497f9722a3daafe3b4186f6b6457e0908390a3603380546001600160a01b0319169055565b609c5481565b60006113328261288b565b600061160c848484612c06565b949350505050565b61161c612457565b6001600160a01b031661162d6118e5565b6001600160a01b031614611676576040805162461bcd60e51b81526020600482018190526024820152600080516020613e66833981519152604482015290519081900360640190fd5b610ea681612850565b336116898161288b565b6116c8576040805162461bcd60e51b81526020600482015260176024820152600080516020613ead833981519152604482015290519081900360640190fd5b6001600160a01b038416156117a2576000336001600160a01b03166370a08231866040518263ffffffff1660e01b815260040180826001600160a01b0316815260200191505060206040518083038186803b15801561172657600080fd5b505afa15801561173a573d6000803e3d6000fd5b505050506040513d602081101561175057600080fd5b50519050600061176286338484612c60565b9050846001600160a01b0316866001600160a01b031614611794576117913361178b8487612a86565b83612cef565b90505b61179f863383612d35565b50505b6001600160a01b038316158015906117cc5750836001600160a01b0316836001600160a01b031614155b15611823576118238333336001600160a01b03166370a08231876040518263ffffffff1660e01b815260040180826001600160a01b0316815260200191505060206040518083038186803b15801561113857600080fd5b6001600160a01b0384161580159061184557506099546001600160a01b031615155b15610dd5576099546040805163b221095760e01b81526001600160a01b0387811660048301528681166024830152604482018690523360648301529151919092169163b221095791608480830192600092919082900301818387803b1580156118ad57600080fd5b505af11580156118c1573d6000803e3d6000fd5b5050505050505050565b6000806118d9858585612ed3565b90969095509350505050565b6033546001600160a01b031690565b6097546001600160a01b031681565b61190b612457565b6001600160a01b031661191c6118e5565b6001600160a01b031614611965576040805162461bcd60e51b81526020600482018190526024820152600080516020613e66833981519152604482015290519081900360640190fd5b610ea681613071565b6099546001600160a01b031681565b606060988054806020026020016040519081016040528092919081815260200182805480156119d557602002820191906000526020600020905b81546001600160a01b031681526001909101906020018083116119b7575b5050505050905090565b609a5481565b600080609760009054906101000a90046001600160a01b03166001600160a01b031663f5e3542b6040518163ffffffff1660e01b815260040160206040518083038186803b158015611a3657600080fd5b505afa158015611a4a573d6000803e3d6000fd5b505050506040513d6020811015611a6057600080fd5b505190506001600160a01b038116611a7c576000915050611335565b6000816001600160a01b031663010dfa58306040518263ffffffff1660e01b815260040180826001600160a01b0316815260200191505060206040518083038186803b158015611acb57600080fd5b505afa158015611adf573d6000803e3d6000fd5b505050506040513d6020811015611af557600080fd5b5051905080611b0957600092505050611335565b61160c8482613184565b600060026065541415611b6d576040805162461bcd60e51b815260206004820152601f60248201527f5265656e7472616e637947756172643a207265656e7472616e742063616c6c00604482015290519081900360640190fd5b600260655582611b7c8161288b565b611bbb576040805162461bcd60e51b81526020600482015260176024820152600080516020613ead833981519152604482015290519081900360640190fd5b600080611bc9888789612ed3565b9150915084821115611c0c5760405162461bcd60e51b8152600401808060200182810382526027815260200180613e866027913960400191505060405180910390fd5b611c178887836131a5565b856001600160a01b031663631b5dfb611c2e612457565b8a8a6040518463ffffffff1660e01b815260040180846001600160a01b03168152602001836001600160a01b031681526020018281526020019350505050600060405180830381600087803b158015611c8657600080fd5b505af1158015611c9a573d6000803e3d6000fd5b505050506000611cb38389612a8690919063ffffffff16565b90506000611cc08261295d565b9050611ccf8a8261129a6129be565b876001600160a01b03168a6001600160a01b0316611ceb612457565b604080518d81526020810186905280820189905290516001600160a01b0392909216917f0271704a58fd2953e49b87d67a0a3ce28a58147de98a5457f60b4686f63850309181900360600190a450506001606555509695505050505050565b82611d548161288b565b611d93576040805162461bcd60e51b81526020600482015260176024820152600080516020613ead833981519152604482015290519081900360640190fd5b611d9b612457565b6001600160a01b0316611dac6118e5565b6001600160a01b031614611df5576040805162461bcd60e51b81526020600482018190526024820152600080516020613e66833981519152604482015290519081900360640190fd5b6040805180820182526001600160801b0380851680835286821660208085018281526001600160a01b038b166000818152609e84528890209651875492518716600160801b029087166fffffffffffffffffffffffffffffffff1990931692909217909516179094558451928352928201528083019190915290517ffb0ba2cf86a2b03bcf387753a2192da80a006afa99dd022bb301c78e323bf1b99181900360600190a150505050565b6000610a5a613266565b60a05481565b6001600160a01b03166000908152609e60205260409020546001600160801b0380821692600160801b9092041690565b611ee98161295d565b5050565b60026065541415611f45576040805162461bcd60e51b815260206004820152601f60248201527f5265656e7472616e637947756172643a207265656e7472616e742063616c6c00604482015290519081900360640190fd5b600260655581611f548161288b565b611f93576040805162461bcd60e51b81526020600482015260176024820152600080516020613ead833981519152604482015290519081900360640190fd5b83611f9d816132c0565b611fee576040805162461bcd60e51b815260206004820152601f60248201527f5072697a65506f6f6c2f657863656564732d6c69717569646974792d63617000604482015290519081900360640190fd5b6000611ff8612457565b905061200687878787612ae8565b6120258130886120146129be565b6001600160a01b03169291906132e4565b61202e86612566565b846001600160a01b0316876001600160a01b0316826001600160a01b03167f6ce569498e0f86f147466ac49211cb2a1ffe06195adb805e383b3f2365109160898860405180838152602001826001600160a01b031681526020019250505060405180910390a4505060016065555050505050565b6000600260655414156120fc576040805162461bcd60e51b815260206004820152601f60248201527f5265656e7472616e637947756172643a207265656e7472616e742063616c6c00604482015290519081900360640190fd5b6002606555600061210b61234c565b90506000612117613266565b90506000828211612129576000612133565b6121338284612a86565b90506000609d548211612147576000612155565b609d54612155908390612a86565b90508015612207576000612168826119e5565b905080156121c257609b5461217d908261333e565b609b5561218a8282612a86565b6040805183815290519193507f5f1703ccfa2730d4245350f228079926a37f26a44ecf6978a7eeafff0af11407919081900360200190a15b609d546121cf908361333e565b609d556040805183815290517fce2b6e507c7ca1a20ce136810f524eefc19ba4c7e4866eb6cc0cba76e778d4be9181900360200190a1505b609d54945050505050600160655590565b609b5481565b612226612457565b6001600160a01b03166122376118e5565b6001600160a01b031614612280576040805162461bcd60e51b81526020600482018190526024820152600080516020613e66833981519152604482015290519081900360640190fd5b6001600160a01b0381166122c55760405162461bcd60e51b8152600401808060200182810382526026815260200180613d826026913960400191505060405180910390fd5b6033546040516001600160a01b038084169216907f8be0079c531659141344cd1fd0a4f28419497f9722a3daafe3b4186f6b6457e090600090a3603380546001600160a01b0319166001600160a01b0392909216919091179055565b6000610a5a6129be565b60405180604001604052806005815260200164332e342e3160d81b81525081565b600080609b549050606060988054806020026020016040519081016040528092919081815260200182805480156123ac57602002820191906000526020600020905b81546001600160a01b0316815260019091019060200180831161238e575b505083519394506000925050505b8181101561244e576124448382815181106123d157fe5b60200260200101516001600160a01b03166318160ddd6040518163ffffffff1660e01b815260040160206040518083038186803b15801561241157600080fd5b505afa158015612425573d6000803e3d6000fd5b505050506040513d602081101561243b57600080fd5b5051859061333e565b93506001016123ba565b50919250505090565b3390565b6000612466836124e3565b6124b7576040805162461bcd60e51b815260206004820181905260248201527f5072697a65506f6f6c2f696e76616c69642d65787465726e616c2d746f6b656e604482015290519081900360640190fd5b816124c4575060006124dc565b6124d86001600160a01b0384168584612a34565b5060015b9392505050565b60a15460408051636a3fd4f960e01b81526001600160a01b03848116600483015291516000939290921691636a3fd4f991602480820192602092909190829003018186803b15801561253457600080fd5b505afa158015612548573d6000803e3d6000fd5b505050506040513d602081101561255e57600080fd5b505192915050565b60a15460408051633540302360e01b81526004810184905290516001600160a01b039092169163354030239160248082019260009290919082900301818387803b1580156125b357600080fd5b505af11580156125c7573d6000803e3d6000fd5b5050505050565b60006125d930613398565b15905090565b306001600160a01b0316826001600160a01b031663f77c47916040518163ffffffff1660e01b815260040160206040518083038186803b15801561262257600080fd5b505afa158015612636573d6000803e3d6000fd5b505050506040513d602081101561264c57600080fd5b50516001600160a01b0316146126a9576040805162461bcd60e51b815260206004820152601e60248201527f5072697a65506f6f6c2f746f6b656e2d6374726c722d6d69736d617463680000604482015290519081900360640190fd5b81609882815481106126b757fe5b6000918252602082200180546001600160a01b0319166001600160a01b03938416179055604051918416917f460e712b4a5d801d031ed673dea209b73ab854f7ddeb86b6c48082e92c3eee669190a25050565b600054610100900460ff168061272357506127236125ce565b80612731575060005460ff16155b61276c5760405162461bcd60e51b815260040180806020018281038252602e815260200180613e17602e913960400191505060405180910390fd5b600054610100900460ff16158015612797576000805460ff1961ff0019909116610100171660011790555b61279f61339e565b6127a761343e565b8015610ea6576000805461ff001916905550565b600054610100900460ff16806127d457506127d46125ce565b806127e2575060005460ff16155b61281d5760405162461bcd60e51b815260040180806020018281038252602e815260200180613e17602e913960400191505060405180910390fd5b600054610100900460ff16158015612848576000805460ff1961ff0019909116610100171660011790555b6127a7613537565b609c8190556040805182815290517f3ff20538222f568f27ff436c0c49dfd3e48d5b8f86533a3f759dc1c7089775ab9181900360200190a150565b6000606060988054806020026020016040519081016040528092919081815260200182805480156128e557602002820191906000526020600020905b81546001600160a01b031681526001909101906020018083116128c7575b505083519394506000925050505b8181101561293c57846001600160a01b031683828151811061291157fe5b60200260200101516001600160a01b031614156129345760019350505050611335565b6001016128f3565b506000949350505050565b610dd5848461295887878787612c60565b612d35565b60a1546040805163db006a7560e01b81526004810184905290516000926001600160a01b03169163db006a7591602480830192602092919082900301818787803b1580156129aa57600080fd5b505af1158015612548573d6000803e3d6000fd5b60a15460408051637e062a3560e11b815290516000926001600160a01b03169163fc0c546a916004808301926020929190829003018186803b158015612a0357600080fd5b505afa158015612a17573d6000803e3d6000fd5b505050506040513d6020811015612a2d57600080fd5b5051905090565b604080516001600160a01b038416602482015260448082018490528251808303909101815260649091019091526020810180516001600160e01b031663a9059cbb60e01b179052610b189084906135dd565b600082821115612add576040805162461bcd60e51b815260206004820152601e60248201527f536166654d6174683a207375627472616374696f6e206f766572666c6f770000604482015290519081900360640190fd5b508082035b92915050565b6099546001600160a01b031615612b7757609954604080516304d7f3db60e41b81526001600160a01b038781166004830152602482018790528581166044830152848116606483015291519190921691634d7f3db091608480830192600092919082900301818387803b158015612b5e57600080fd5b505af1158015612b72573d6000803e3d6000fd5b505050505b816001600160a01b0316635d7b075885856040518363ffffffff1660e01b815260040180836001600160a01b0316815260200182815260200192505050600060405180830381600087803b1580156118ad57600080fd5b6001600160a01b0382166000908152609e60205260408120546124dc908390612c019082906001600160801b0316613184565b61368e565b6001600160a01b0383166000908152609e60205260408120548190612c3c908590600160801b90046001600160801b0316613184565b905080612c4d5760009150506124dc565b612c5783826136b3565b95945050505050565b6001600160a01b038381166000908152609f6020908152604080832093881683529290529081208054829190600160e01b900460ff16612ca35760009150612ce5565b6000612cb088888861371a565b8254909150612ce19088908890612cdc908990612cd6906001600160c01b03168761333e565b9061333e565b612cef565b9250505b5095945050505050565b6001600160a01b0383166000908152609e60205260408120548190612d1e9085906001600160801b0316613184565b905080831115612d2c578092505b50909392505050565b6001600160a01b038083166000908152609f602090815260408083209387168352929052819020548151606081019092526001600160c01b03169080612d7a846137cb565b6001600160801b03168152602001612d98612d93613813565b613819565b63ffffffff908116825260016020928301526001600160a01b038681166000908152609f84526040808220928a168252918452819020845181549486015195909201516001600160c01b03199094166001600160c01b039092169190911763ffffffff60c01b1916600160c01b94909216939093021760ff60e01b1916600160e01b9115159190910217905581811015612e7b576001600160a01b038084169085167f2f92d56910619b38bc29fd8e4ca5e56359edac7a0c086cdcd305fb603fa37491612e658585612a86565b60408051918252519081900360200190a3610dd5565b80821015610dd5576001600160a01b038084169085167ff584c579437bc25785b953cc4d8d247251812751e1871c6130cbdecf95a106cf612ebc8486612a86565b60408051918252519081900360200190a350505050565b6000806000846001600160a01b03166370a08231876040518263ffffffff1660e01b815260040180826001600160a01b0316815260200191505060206040518083038186803b158015612f2557600080fd5b505afa158015612f39573d6000803e3d6000fd5b505050506040513d6020811015612f4f57600080fd5b5051905083811015612fa1576040805162461bcd60e51b81526020600482015260166024820152755072697a65506f6f6c2f696e737566662d66756e647360501b604482015290519081900360640190fd5b612fae8686836000612947565b6000612fc386612fbe8488612a86565b612bce565b6001600160a01b038088166000908152609f60209081526040808320938c16835292905290812054919250906001600160c01b0316821161303a576001600160a01b038088166000908152609f60209081526040808320938c1683529290522054613037906001600160c01b031683612a86565b90505b60006130468888612bce565b90508082116130555781613057565b805b94506130638186612a86565b955050505050935093915050565b6001600160a01b0381166130cc576040805162461bcd60e51b815260206004820181905260248201527f5072697a65506f6f6c2f7072697a6553747261746567792d6e6f742d7a65726f604482015290519081900360640190fd5b6130e96001600160a01b038216600162a1cb1960e01b031961385d565b61313a576040805162461bcd60e51b815260206004820152601f60248201527f5072697a65506f6f6c2f7072697a6553747261746567792d696e76616c696400604482015290519081900360640190fd5b609980546001600160a01b0319166001600160a01b0383169081179091556040517f7f58dc86bc2e435cb77ca0edb1df55e25f90caf2d6bd866971715437d456a21290600090a250565b6000806131918385613879565b905061160c81670de0b6b3a76400006138d2565b6001600160a01b038083166000908152609f60209081526040808320938716835292905220546131e7906131e2906001600160c01b031683612a86565b6137cb565b6001600160a01b038084166000818152609f602090815260408083209489168084529482529182902080546001600160c01b0319166001600160801b0396909616959095179094558051858152905191937ff584c579437bc25785b953cc4d8d247251812751e1871c6130cbdecf95a106cf92918290030190a3505050565b60a154604080516316d3df1560e31b815290516000926001600160a01b03169163b69ef8a891600480830192602092919082900301818787803b1580156132ac57600080fd5b505af1158015612a17573d6000803e3d6000fd5b6000806132cb61234c565b609c549091506132db828561333e565b11159392505050565b604080516001600160a01b0380861660248301528416604482015260648082018490528251808303909101815260849091019091526020810180516001600160e01b03166323b872dd60e01b179052610dd59085906135dd565b6000828201838110156124dc576040805162461bcd60e51b815260206004820152601b60248201527f536166654d6174683a206164646974696f6e206f766572666c6f770000000000604482015290519081900360640190fd5b3b151590565b600054610100900460ff16806133b757506133b76125ce565b806133c5575060005460ff16155b6134005760405162461bcd60e51b815260040180806020018281038252602e815260200180613e17602e913960400191505060405180910390fd5b600054610100900460ff161580156127a7576000805460ff1961ff0019909116610100171660011790558015610ea6576000805461ff001916905550565b600054610100900460ff168061345757506134576125ce565b80613465575060005460ff16155b6134a05760405162461bcd60e51b815260040180806020018281038252602e815260200180613e17602e913960400191505060405180910390fd5b600054610100900460ff161580156134cb576000805460ff1961ff0019909116610100171660011790555b60006134d5612457565b603380546001600160a01b0319166001600160a01b038316908117909155604051919250906000907f8be0079c531659141344cd1fd0a4f28419497f9722a3daafe3b4186f6b6457e0908290a3508015610ea6576000805461ff001916905550565b600054610100900460ff168061355057506135506125ce565b8061355e575060005460ff16155b6135995760405162461bcd60e51b815260040180806020018281038252602e815260200180613e17602e913960400191505060405180910390fd5b600054610100900460ff161580156135c4576000805460ff1961ff0019909116610100171660011790555b60016065558015610ea6576000805461ff001916905550565b6060613632826040518060400160405280602081526020017f5361666545524332303a206c6f772d6c6576656c2063616c6c206661696c6564815250856001600160a01b03166139149092919063ffffffff16565b805190915015610b185780806020019051602081101561365157600080fd5b5051610b185760405162461bcd60e51b815260040180806020018281038252602a815260200180613ef3602a913960400191505060405180910390fd5b60008061369d84609a54613184565b9050808311156136ab578092505b509092915050565b6000808211613709576040805162461bcd60e51b815260206004820152601a60248201527f536166654d6174683a206469766973696f6e206279207a65726f000000000000604482015290519081900360640190fd5b81838161371257fe5b049392505050565b6001600160a01b038281166000908152609f60209081526040808320938716835292905290812054600160c01b810463ffffffff1690600160e01b900460ff166137685760009150506124dc565b600061377c82613776613813565b90612a86565b6001600160a01b0386166000908152609e6020526040812054919250906137b4908390600160801b90046001600160801b0316613879565b90506137c08582613184565b979650505050505050565b6000600160801b821061380f5760405162461bcd60e51b8152600401808060200182810382526027815260200180613da86027913960400191505060405180910390fd5b5090565b60a05490565b6000600160201b821061380f5760405162461bcd60e51b8152600401808060200182810382526026815260200180613ecd6026913960400191505060405180910390fd5b600061386883613923565b80156124dc57506124dc8383613956565b60008261388857506000612ae2565b8282028284828161389557fe5b04146124dc5760405162461bcd60e51b8152600401808060200182810382526021815260200180613e456021913960400191505060405180910390fd5b60006124dc83836040518060400160405280601a81526020017f536166654d6174683a206469766973696f6e206279207a65726f000000000000815250613979565b606061160c8484600085613a1b565b6000613936826301ffc9a760e01b613956565b8015611332575061394f826001600160e01b0319613956565b1592915050565b60008060006139658585613b6c565b91509150818015612c575750949350505050565b60008183613a055760405162461bcd60e51b81526004018080602001828103825283818151815260200191508051906020019080838360005b838110156139ca5781810151838201526020016139b2565b50505050905090810190601f1680156139f75780820380516001836020036101000a031916815260200191505b509250505060405180910390fd5b506000838581613a1157fe5b0495945050505050565b606082471015613a5c5760405162461bcd60e51b8152600401808060200182810382526026815260200180613df16026913960400191505060405180910390fd5b613a6585613398565b613ab6576040805162461bcd60e51b815260206004820152601d60248201527f416464726573733a2063616c6c20746f206e6f6e2d636f6e7472616374000000604482015290519081900360640190fd5b60006060866001600160a01b031685876040518082805190602001908083835b60208310613af55780518252601f199092019160209182019101613ad6565b6001836020036101000a03801982511681845116808217855250505050505090500191505060006040518083038185875af1925050503d8060008114613b57576040519150601f19603f3d011682016040523d82523d6000602084013e613b5c565b606091505b50915091506137c0828286613ca0565b604080516001600160e01b0319831660248083019190915282518083039091018152604490910182526020810180516001600160e01b03166301ffc9a760e01b1781529151815160009384939284926060926001600160a01b038a169261753092879282918083835b60208310613bf45780518252601f199092019160209182019101613bd5565b6001836020036101000a0380198251168184511680821785525050505050509050019150506000604051808303818686fa925050503d8060008114613c55576040519150601f19603f3d011682016040523d82523d6000602084013e613c5a565b606091505b5091509150602081511015613c785760008094509450505050613c99565b81818060200190516020811015613c8e57600080fd5b505190955093505050505b9250929050565b60608315613caf5750816124dc565b825115613cbf5782518084602001fd5b60405162461bcd60e51b81526020600482018181528451602484015284518593919283926044019190850190808383600083156139ca5781810151838201526020016139b2565b828054828255906000526020600020908101928215613d5b579160200282015b82811115613d5b57825182546001600160a01b0319166001600160a01b03909116178255602090920191600190910190613d26565b5061380f9291505b8082111561380f5780546001600160a01b0319168155600101613d6356fe4f776e61626c653a206e6577206f776e657220697320746865207a65726f206164647265737353616665436173743a2076616c756520646f65736e27742066697420696e2031323820626974735072697a65506f6f6c2f7265736572766552656769737472792d6e6f742d7a65726f416464726573733a20696e73756666696369656e742062616c616e636520666f722063616c6c496e697469616c697a61626c653a20636f6e747261637420697320616c726561647920696e697469616c697a6564536166654d6174683a206d756c7469706c69636174696f6e206f766572666c6f774f776e61626c653a2063616c6c6572206973206e6f7420746865206f776e65725072697a65506f6f6c2f657869742d6665652d657863656564732d757365722d6d6178696d756d5072697a65506f6f6c2f756e6b6e6f776e2d746f6b656e00000000000000000053616665436173743a2076616c756520646f65736e27742066697420696e20333220626974735361666545524332303a204552433230206f7065726174696f6e20646964206e6f7420737563636565645072697a65506f6f6c2f6f6e6c792d7072697a65537472617465677900000000a264697066735822122031003c2b260bf1c66e4d79ee5568978b6984c47dafdab920371e889661e4204964736f6c634300060c0033",
  "linkReferences": {},
  "deployedLinkReferences": {}
}