{
  "_format": "hh-sol-artifact-1",
  "contractName": "Timestamp",
  "sourceName": "contracts/test/Timestamp.sol",
  "abi": [
    {
      "inputs": [],
      "name": "blockTime",
      "outputs": [
        {
          "internalType": "uint256",
          "name": "",
          "type": "uint256"
        }
      ],
      "stateMutability": "view",
      "type": "function"
    }
  ],
  "bytecode": "0x6080604052348015600f57600080fd5b50607f8061001e6000396000f3fe6080604052348015600f57600080fd5b506004361060285760003560e01c806348b1516614602d575b600080fd5b60336045565b60408051918252519081900360200190f35b429056fea26469706673582212207d33a25a80176475960e6714d0d7a4625919199d8d705f65ee4ee470d925cbd364736f6c634300060c0033",
  "linkReferences": {},
  "deployedLinkReferences": {}
}