{
  "_format": "hh-sol-artifact-1",
  "contractName": "Timestamp",
  "sourceName": "contracts/test/Timestamp.sol",
  "abi": [
    {
      "inputs": [],
      "name": "blockTime",
      "outputs": [
        {
          "internalType": "uint256",
          "name": "",
          "type": "uint256"
        }
      ],
      "stateMutability": "view",
      "type": "function"
    }
  ],
  "bytecode": "0x6080604052348015600f57600080fd5b5060878061001e6000396000f3fe6080604052348015600f57600080fd5b506004361060285760003560e01c806348b1516614602d575b600080fd5b60336049565b6040518082815260200191505060405180910390f35b60004290509056fea26469706673582212208b507055bd764b76d1c5aa00c39f11fb81fb2574767d9e5c28fbec95edd663e864736f6c634300060c0033",
  "linkReferences": {},
  "deployedLinkReferences": {}
}