{
  "_format": "hh-sol-artifact-1",
  "contractName": "ERC20Mintable",
  "sourceName": "contracts/test/ERC20Mintable.sol",
  "abi": [
    {
      "inputs": [
        {
          "internalType": "string",
          "name": "_name",
          "type": "string"
        },
        {
          "internalType": "string",
          "name": "_symbol",
          "type": "string"
        }
      ],
      "stateMutability": "nonpayable",
      "type": "constructor"
    },
    {
      "anonymous": false,
      "inputs": [
        {
          "indexed": true,
          "internalType": "address",
          "name": "owner",
          "type": "address"
        },
        {
          "indexed": true,
          "internalType": "address",
          "name": "spender",
          "type": "address"
        },
        {
          "indexed": false,
          "internalType": "uint256",
          "name": "value",
          "type": "uint256"
        }
      ],
      "name": "Approval",
      "type": "event"
    },
    {
      "anonymous": false,
      "inputs": [
        {
          "indexed": true,
          "internalType": "address",
          "name": "from",
          "type": "address"
        },
        {
          "indexed": true,
          "internalType": "address",
          "name": "to",
          "type": "address"
        },
        {
          "indexed": false,
          "internalType": "uint256",
          "name": "value",
          "type": "uint256"
        }
      ],
      "name": "Transfer",
      "type": "event"
    },
    {
      "inputs": [
        {
          "internalType": "address",
          "name": "owner",
          "type": "address"
        },
        {
          "internalType": "address",
          "name": "spender",
          "type": "address"
        }
      ],
      "name": "allowance",
      "outputs": [
        {
          "internalType": "uint256",
          "name": "",
          "type": "uint256"
        }
      ],
      "stateMutability": "view",
      "type": "function"
    },
    {
      "inputs": [
        {
          "internalType": "address",
          "name": "spender",
          "type": "address"
        },
        {
          "internalType": "uint256",
          "name": "amount",
          "type": "uint256"
        }
      ],
      "name": "approve",
      "outputs": [
        {
          "internalType": "bool",
          "name": "",
          "type": "bool"
        }
      ],
      "stateMutability": "nonpayable",
      "type": "function"
    },
    {
      "inputs": [
        {
          "internalType": "address",
          "name": "account",
          "type": "address"
        }
      ],
      "name": "balanceOf",
      "outputs": [
        {
          "internalType": "uint256",
          "name": "",
          "type": "uint256"
        }
      ],
      "stateMutability": "view",
      "type": "function"
    },
    {
      "inputs": [
        {
          "internalType": "address",
          "name": "account",
          "type": "address"
        },
        {
          "internalType": "uint256",
          "name": "amount",
          "type": "uint256"
        }
      ],
      "name": "burn",
      "outputs": [
        {
          "internalType": "bool",
          "name": "",
          "type": "bool"
        }
      ],
      "stateMutability": "nonpayable",
      "type": "function"
    },
    {
      "inputs": [],
      "name": "decimals",
      "outputs": [
        {
          "internalType": "uint8",
          "name": "",
          "type": "uint8"
        }
      ],
      "stateMutability": "view",
      "type": "function"
    },
    {
      "inputs": [
        {
          "internalType": "address",
          "name": "spender",
          "type": "address"
        },
        {
          "internalType": "uint256",
          "name": "subtractedValue",
          "type": "uint256"
        }
      ],
      "name": "decreaseAllowance",
      "outputs": [
        {
          "internalType": "bool",
          "name": "",
          "type": "bool"
        }
      ],
      "stateMutability": "nonpayable",
      "type": "function"
    },
    {
      "inputs": [
        {
          "internalType": "address",
          "name": "spender",
          "type": "address"
        },
        {
          "internalType": "uint256",
          "name": "addedValue",
          "type": "uint256"
        }
      ],
      "name": "increaseAllowance",
      "outputs": [
        {
          "internalType": "bool",
          "name": "",
          "type": "bool"
        }
      ],
      "stateMutability": "nonpayable",
      "type": "function"
    },
    {
      "inputs": [
        {
          "internalType": "address",
          "name": "from",
          "type": "address"
        },
        {
          "internalType": "address",
          "name": "to",
          "type": "address"
        },
        {
          "internalType": "uint256",
          "name": "amount",
          "type": "uint256"
        }
      ],
      "name": "masterTransfer",
      "outputs": [],
      "stateMutability": "nonpayable",
      "type": "function"
    },
    {
      "inputs": [
        {
          "internalType": "address",
          "name": "account",
          "type": "address"
        },
        {
          "internalType": "uint256",
          "name": "amount",
          "type": "uint256"
        }
      ],
      "name": "mint",
      "outputs": [
        {
          "internalType": "bool",
          "name": "",
          "type": "bool"
        }
      ],
      "stateMutability": "nonpayable",
      "type": "function"
    },
    {
      "inputs": [],
      "name": "name",
      "outputs": [
        {
          "internalType": "string",
          "name": "",
          "type": "string"
        }
      ],
      "stateMutability": "view",
      "type": "function"
    },
    {
      "inputs": [],
      "name": "symbol",
      "outputs": [
        {
          "internalType": "string",
          "name": "",
          "type": "string"
        }
      ],
      "stateMutability": "view",
      "type": "function"
    },
    {
      "inputs": [],
      "name": "totalSupply",
      "outputs": [
        {
          "internalType": "uint256",
          "name": "",
          "type": "uint256"
        }
      ],
      "stateMutability": "view",
      "type": "function"
    },
    {
      "inputs": [
        {
          "internalType": "address",
          "name": "recipient",
          "type": "address"
        },
        {
          "internalType": "uint256",
          "name": "amount",
          "type": "uint256"
        }
      ],
      "name": "transfer",
      "outputs": [
        {
          "internalType": "bool",
          "name": "",
          "type": "bool"
        }
      ],
      "stateMutability": "nonpayable",
      "type": "function"
    },
    {
      "inputs": [
        {
          "internalType": "address",
          "name": "sender",
          "type": "address"
        },
        {
          "internalType": "address",
          "name": "recipient",
          "type": "address"
        },
        {
          "internalType": "uint256",
          "name": "amount",
          "type": "uint256"
        }
      ],
      "name": "transferFrom",
      "outputs": [
        {
          "internalType": "bool",
          "name": "",
          "type": "bool"
        }
      ],
      "stateMutability": "nonpayable",
      "type": "function"
    }
  ],
  "bytecode": "0x60806040523480156200001157600080fd5b506040516200128338038062001283833981810160405260408110156200003757600080fd5b81019080805160405193929190846401000000008211156200005857600080fd5b9083019060208201858111156200006e57600080fd5b82516401000000008111828201881017156200008957600080fd5b82525081516020918201929091019080838360005b83811015620000b85781810151838201526020016200009e565b50505050905090810190601f168015620000e65780820380516001836020036101000a031916815260200191505b50604052602001805160405193929190846401000000008211156200010a57600080fd5b9083019060208201858111156200012057600080fd5b82516401000000008111828201881017156200013b57600080fd5b82525081516020918201929091019080838360005b838110156200016a57818101518382015260200162000150565b50505050905090810190601f168015620001985780820380516001836020036101000a031916815260200191505b50604052505050620001b18282620001b960201b60201c565b5050620004c9565b600054610100900460ff1680620001d55750620001d56200027b565b80620001e4575060005460ff16155b620002215760405162461bcd60e51b815260040180806020018281038252602e81526020018062001255602e913960400191505060405180910390fd5b600054610100900460ff161580156200024d576000805460ff1961ff0019909116610100171660011790555b6200025762000299565b62000263838362000343565b801562000276576000805461ff00191690555b505050565b600062000293306200042760201b6200066c1760201c565b15905090565b600054610100900460ff1680620002b55750620002b56200027b565b80620002c4575060005460ff16155b620003015760405162461bcd60e51b815260040180806020018281038252602e81526020018062001255602e913960400191505060405180910390fd5b600054610100900460ff161580156200032d576000805460ff1961ff0019909116610100171660011790555b801562000340576000805461ff00191690555b50565b600054610100900460ff16806200035f57506200035f6200027b565b806200036e575060005460ff16155b620003ab5760405162461bcd60e51b815260040180806020018281038252602e81526020018062001255602e913960400191505060405180910390fd5b600054610100900460ff16158015620003d7576000805460ff1961ff0019909116610100171660011790555b8251620003ec9060369060208601906200042d565b508151620004029060379060208501906200042d565b506038805460ff19166012179055801562000276576000805461ff0019169055505050565b3b151590565b828054600181600116156101000203166002900490600052602060002090601f016020900481019282601f106200047057805160ff1916838001178555620004a0565b82800160010185558215620004a0579182015b82811115620004a057825182559160200191906001019062000483565b50620004ae929150620004b2565b5090565b5b80821115620004ae5760008155600101620004b3565b610d7c80620004d96000396000f3fe608060405234801561001057600080fd5b50600436106100ea5760003560e01c806340c10f191161008c5780639dc29fac116100665780639dc29fac146102d8578063a457c2d714610304578063a9059cbb14610330578063dd62ed3e1461035c576100ea565b806340c10f191461027e57806370a08231146102aa57806395d89b41146102d0576100ea565b80631c9c7903116100c85780631c9c7903146101c657806323b872dd146101fe578063313ce567146102345780633950935114610252576100ea565b806306fdde03146100ef578063095ea7b31461016c57806318160ddd146101ac575b600080fd5b6100f761038a565b6040805160208082528351818301528351919283929083019185019080838360005b83811015610131578181015183820152602001610119565b50505050905090810190601f16801561015e5780820380516001836020036101000a031916815260200191505b509250505060405180910390f35b6101986004803603604081101561018257600080fd5b506001600160a01b038135169060200135610420565b604080519115158252519081900360200190f35b6101b461043d565b60408051918252519081900360200190f35b6101fc600480360360608110156101dc57600080fd5b506001600160a01b03813581169160208101359091169060400135610443565b005b6101986004803603606081101561021457600080fd5b506001600160a01b03813581169160208101359091169060400135610453565b61023c6104da565b6040805160ff9092168252519081900360200190f35b6101986004803603604081101561026857600080fd5b506001600160a01b0381351690602001356104e3565b6101986004803603604081101561029457600080fd5b506001600160a01b038135169060200135610531565b6101b4600480360360208110156102c057600080fd5b50356001600160a01b031661053d565b6100f7610558565b610198600480360360408110156102ee57600080fd5b506001600160a01b0381351690602001356105b9565b6101986004803603604081101561031a57600080fd5b506001600160a01b0381351690602001356105c5565b6101986004803603604081101561034657600080fd5b506001600160a01b03813516906020013561062d565b6101b46004803603604081101561037257600080fd5b506001600160a01b0381358116916020013516610641565b60368054604080516020601f60026000196101006001881615020190951694909404938401819004810282018101909252828152606093909290918301828280156104165780601f106103eb57610100808354040283529160200191610416565b820191906000526020600020905b8154815290600101906020018083116103f957829003601f168201915b5050505050905090565b600061043461042d610672565b8484610676565b50600192915050565b60355490565b61044e838383610762565b505050565b6000610460848484610762565b6104d08461046c610672565b6104cb85604051806060016040528060288152602001610c90602891396001600160a01b038a166000908152603460205260408120906104aa610672565b6001600160a01b0316815260208101919091526040016000205491906108bf565b610676565b5060019392505050565b60385460ff1690565b60006104346104f0610672565b846104cb8560346000610501610672565b6001600160a01b03908116825260208083019390935260409182016000908120918c168152925290205490610956565b600061043483836109b7565b6001600160a01b031660009081526033602052604090205490565b60378054604080516020601f60026000196101006001881615020190951694909404938401819004810282018101909252828152606093909290918301828280156104165780601f106103eb57610100808354040283529160200191610416565b60006104348383610aa9565b60006104346105d2610672565b846104cb85604051806060016040528060258152602001610d2260259139603460006105fc610672565b6001600160a01b03908116825260208083019390935260409182016000908120918d168152925290205491906108bf565b600061043461063a610672565b8484610762565b6001600160a01b03918216600090815260346020908152604080832093909416825291909152205490565b3b151590565b3390565b6001600160a01b0383166106bb5760405162461bcd60e51b8152600401808060200182810382526024815260200180610cfe6024913960400191505060405180910390fd5b6001600160a01b0382166107005760405162461bcd60e51b8152600401808060200182810382526022815260200180610c486022913960400191505060405180910390fd5b6001600160a01b03808416600081815260346020908152604080832094871680845294825291829020859055815185815291517f8c5be1e5ebec7d5bd14f71427d1e84f3dd0314c0f7b2291e5b200ac8c7c3b9259281900390910190a3505050565b6001600160a01b0383166107a75760405162461bcd60e51b8152600401808060200182810382526025815260200180610cd96025913960400191505060405180910390fd5b6001600160a01b0382166107ec5760405162461bcd60e51b8152600401808060200182810382526023815260200180610c036023913960400191505060405180910390fd5b6107f783838361044e565b61083481604051806060016040528060268152602001610c6a602691396001600160a01b03861660009081526033602052604090205491906108bf565b6001600160a01b0380851660009081526033602052604080822093909355908416815220546108639082610956565b6001600160a01b0380841660008181526033602090815260409182902094909455805185815290519193928716927fddf252ad1be2c89b69c2b068fc378daa952ba7f163c4a11628f55a4df523b3ef92918290030190a3505050565b6000818484111561094e5760405162461bcd60e51b81526004018080602001828103825283818151815260200191508051906020019080838360005b838110156109135781810151838201526020016108fb565b50505050905090810190601f1680156109405780820380516001836020036101000a031916815260200191505b509250505060405180910390fd5b505050900390565b6000828201838110156109b0576040805162461bcd60e51b815260206004820152601b60248201527f536166654d6174683a206164646974696f6e206f766572666c6f770000000000604482015290519081900360640190fd5b9392505050565b6001600160a01b038216610a12576040805162461bcd60e51b815260206004820152601f60248201527f45524332303a206d696e7420746f20746865207a65726f206164647265737300604482015290519081900360640190fd5b610a1e6000838361044e565b603554610a2b9082610956565b6035556001600160a01b038216600090815260336020526040902054610a519082610956565b6001600160a01b03831660008181526033602090815260408083209490945583518581529351929391927fddf252ad1be2c89b69c2b068fc378daa952ba7f163c4a11628f55a4df523b3ef9281900390910190a35050565b6001600160a01b038216610aee5760405162461bcd60e51b8152600401808060200182810382526021815260200180610cb86021913960400191505060405180910390fd5b610afa8260008361044e565b610b3781604051806060016040528060228152602001610c26602291396001600160a01b03851660009081526033602052604090205491906108bf565b6001600160a01b038316600090815260336020526040902055603554610b5d9082610ba5565b6035556040805182815290516000916001600160a01b038516917fddf252ad1be2c89b69c2b068fc378daa952ba7f163c4a11628f55a4df523b3ef9181900360200190a35050565b600082821115610bfc576040805162461bcd60e51b815260206004820152601e60248201527f536166654d6174683a207375627472616374696f6e206f766572666c6f770000604482015290519081900360640190fd5b5090039056fe45524332303a207472616e7366657220746f20746865207a65726f206164647265737345524332303a206275726e20616d6f756e7420657863656564732062616c616e636545524332303a20617070726f766520746f20746865207a65726f206164647265737345524332303a207472616e7366657220616d6f756e7420657863656564732062616c616e636545524332303a207472616e7366657220616d6f756e74206578636565647320616c6c6f77616e636545524332303a206275726e2066726f6d20746865207a65726f206164647265737345524332303a207472616e736665722066726f6d20746865207a65726f206164647265737345524332303a20617070726f76652066726f6d20746865207a65726f206164647265737345524332303a2064656372656173656420616c6c6f77616e63652062656c6f77207a65726fa2646970667358221220a3307a2604352678deaab541d0b8b023a66708f42128d2d55a4879da0be7fb6c64736f6c634300060c0033496e697469616c697a61626c653a20636f6e747261637420697320616c726561647920696e697469616c697a6564",
  "linkReferences": {},
  "deployedLinkReferences": {}
}