{
  "_format": "hh-sol-artifact-1",
  "contractName": "BeforeAwardListenerStub",
  "sourceName": "contracts/test/BeforeAwardListenerStub.sol",
  "abi": [
    {
      "anonymous": false,
      "inputs": [],
      "name": "Awarded",
      "type": "event"
    },
    {
      "inputs": [
        {
          "internalType": "uint256",
          "name": "randomNumber",
          "type": "uint256"
        },
        {
          "internalType": "uint256",
          "name": "prizePeriodStartedAt",
          "type": "uint256"
        }
      ],
      "name": "beforePrizePoolAwarded",
      "outputs": [],
      "stateMutability": "nonpayable",
      "type": "function"
    },
    {
      "inputs": [
        {
          "internalType": "bytes4",
          "name": "interfaceId",
          "type": "bytes4"
        }
      ],
      "name": "supportsInterface",
      "outputs": [
        {
          "internalType": "bool",
          "name": "",
          "type": "bool"
        }
      ],
      "stateMutability": "view",
      "type": "function"
    }
  ],
  "bytecode": "0x608060405234801561001057600080fd5b506101dc806100206000396000f3fe608060405234801561001057600080fd5b50600436106100365760003560e01c806301ffc9a71461003b5780634cdf9c3e1461009e575b600080fd5b6100866004803603602081101561005157600080fd5b8101908080357bffffffffffffffffffffffffffffffffffffffffffffffffffffffff191690602001909291905050506100d6565b60405180821515815260200191505060405180910390f35b6100d4600480360360408110156100b457600080fd5b810190808035906020019092919080359060200190929190505050610176565b005b60006301ffc9a760e01b7bffffffffffffffffffffffffffffffffffffffffffffffffffffffff1916827bffffffffffffffffffffffffffffffffffffffffffffffffffffffff1916148061016f5750634cdf9c3e60e01b7bffffffffffffffffffffffffffffffffffffffffffffffffffffffff1916827bffffffffffffffffffffffffffffffffffffffffffffffffffffffff1916145b9050919050565b7fff25434fb2c7a5b6e29600471de5f2b833288fc8658779d4766cb8f8f6fbdc3060405160405180910390a1505056fea26469706673582212207fb18dc2120a41c29ac541cb2a22a2fe152d48765fa65d022b2b2f4a300301ca64736f6c634300060c0033",
  "linkReferences": {},
  "deployedLinkReferences": {}
}