{
  "_format": "hh-sol-artifact-1",
  "contractName": "MultipleWinnersProxyFactory",
  "sourceName": "contracts/prize-strategy/multiple-winners/MultipleWinnersProxyFactory.sol",
  "abi": [
    {
      "inputs": [],
      "stateMutability": "nonpayable",
      "type": "constructor"
    },
    {
      "anonymous": false,
      "inputs": [
        {
          "indexed": false,
          "internalType": "address",
          "name": "proxy",
          "type": "address"
        }
      ],
      "name": "ProxyCreated",
      "type": "event"
    },
    {
      "inputs": [],
      "name": "create",
      "outputs": [
        {
          "internalType": "contract MultipleWinners",
          "name": "",
          "type": "address"
        }
      ],
      "stateMutability": "nonpayable",
      "type": "function"
    },
    {
      "inputs": [
        {
          "internalType": "address",
          "name": "_logic",
          "type": "address"
        },
        {
          "internalType": "bytes",
          "name": "_data",
          "type": "bytes"
        }
      ],
      "name": "deployMinimal",
      "outputs": [
        {
          "internalType": "address",
          "name": "proxy",
          "type": "address"
        }
      ],
      "stateMutability": "nonpayable",
      "type": "function"
    },
    {
      "inputs": [],
      "name": "instance",
      "outputs": [
        {
          "internalType": "contract MultipleWinners",
          "name": "",
          "type": "address"
        }
      ],
      "stateMutability": "view",
      "type": "function"
    }
  ],
  "bytecode": "0x608060405234801561001057600080fd5b5060405161001d9061007e565b604051809103906000f080158015610039573d6000803e3d6000fd5b506000806101000a81548173ffffffffffffffffffffffffffffffffffffffff021916908373ffffffffffffffffffffffffffffffffffffffff16021790555061008b565b61aa91806104dc83390190565b6104428061009a6000396000f3fe608060405234801561001057600080fd5b50600436106100415760003560e01c8063022ec09514610046578063b3eeb5e21461007a578063efc81a8c1461017f575b600080fd5b61004e6101b3565b604051808273ffffffffffffffffffffffffffffffffffffffff16815260200191505060405180910390f35b6101536004803603604081101561009057600080fd5b81019080803573ffffffffffffffffffffffffffffffffffffffff169060200190929190803590602001906401000000008111156100cd57600080fd5b8201836020820111156100df57600080fd5b8035906020019184600183028401116401000000008311171561010157600080fd5b91908080601f016020809104026020016040519081016040528093929190818152602001838380828437600081840152601f19601f8201169050808301925050505050505091929192905050506101d7565b604051808273ffffffffffffffffffffffffffffffffffffffff16815260200191505060405180910390f35b6101876103a8565b604051808273ffffffffffffffffffffffffffffffffffffffff16815260200191505060405180910390f35b60008054906101000a900473ffffffffffffffffffffffffffffffffffffffff1681565b6000808360601b90506040517f3d602d80600a3d3981f3363d3d373d3d3d363d7300000000000000000000000081528160148201527f5af43d82803e903d91602b57fd5bf3000000000000000000000000000000000060288201526037816000f09250507efffc2da0b561cae30d9826d37709e9421c4725faebc226cbbb7ef5fc5e734982604051808273ffffffffffffffffffffffffffffffffffffffff16815260200191505060405180910390a16000835111156103a15760008273ffffffffffffffffffffffffffffffffffffffff16846040518082805190602001908083835b602083106102de57805182526020820191506020810190506020830392506102bb565b6001836020036101000a0380198251168184511680821785525050505050509050019150506000604051808303816000865af19150503d8060008114610340576040519150601f19603f3d011682016040523d82523d6000602084013e610345565b606091505b505090508061039f576040517f08c379a00000000000000000000000000000000000000000000000000000000081526004018080602001828103825260248152602001806103e96024913960400191505060405180910390fd5b505b5092915050565b60006103e360008054906101000a900473ffffffffffffffffffffffffffffffffffffffff16604051806020016040528060008152506101d7565b90509056fe50726f7879466163746f72792f636f6e7374727563746f722d63616c6c2d6661696c6564a2646970667358221220b7b8e765f790f45966bc4ffddc71c57ef0803bb0f322008402492b0810d7b12664736f6c634300060c003360806040523480156200001157600080fd5b5061aa6f80620000226000396000f3fe608060405234801561001057600080fd5b50600436106103c55760003560e01c8063738bbea8116101ff578063b02446821161011a578063d5ad6bf6116100ad578063f2fde38b1161007c578063f2fde38b14610ae4578063f97700e214610b00578063fbf0953e14610b1c578063ffa1ad7414610b38576103c5565b8063d5ad6bf614610a6e578063d605787b14610a8c578063dfb2f13b14610aaa578063eefc8ad114610ab4576103c5565b8063c2f19ee8116100e9578063c2f19ee8146109fa578063c42b42a014610a18578063c48ddbcb14610a36578063c685327014610a52576103c5565b8063b02446821461099c578063b2210957146109b8578063b9ee1e05146109d4578063c25a9c32146109de576103c5565b80638da5cb5b1161019257806395e5f9ee1161016157806395e5f9ee146109125780639dafafb014610930578063a4e075ca1461094e578063acca5b951461097e576103c5565b80638da5cb5b146108765780638e204c431461089457806394144c6b146108c45780639417783f146108e2576103c5565b8063884a4448116101ce578063884a4448146108025780638aa3ec6f1461081e5780638acfaca91461083a5780638d5f10c414610858576103c5565b8063738bbea81461078e5780637f2be9fc146107ac5780637f4296d7146107c8578063876f5c7e146107e4576103c5565b80634e5d08e0116102ef5780636be51c4f116102825780636f46f221116102515780636f46f2211461072a578063715018a614610748578063719ce73e1461075257806372f33ea914610770576103c5565b80636be51c4f146106b45780636bea5344146106d25780636cc25db7146106f05780636dfb03861461070e576103c5565b806362c77a61116102be57806362c77a6114610640578063669682211461065e578063671137c41461067a5780636a74f10714610696576103c5565b80634e5d08e0146105ba578063500db70d146105d657806352a30109146105f4578063605e25ac14610624576103c5565b80632c8fe73d1161036757806347bed9981161033657806347bed998146105465780634aba4f6b146105765780634c169f4f146105945780634d7f3db01461059e576103c5565b80632c8fe73d146104d257806330fcdf41146104f057806338a9b4b61461050c57806342d0920914610528576103c5565b80630faf125f116103a35780630faf125f14610448578063111070e414610466578063152d308c146104845780632a7ad609146104b4576103c5565b806301b48e34146103ca57806301ffc9a7146103fa5780630d847fc41461042a575b600080fd5b6103e460048036038101906103df91906181d3565b610b56565b6040516103f1919061a359565b60405180910390f35b610414600480360381019061040f9190617f7f565b610b70565b6040516104219190619bfb565b60405180910390f35b610432610c10565b60405161043f9190619c31565b60405180910390f35b610450610c36565b60405161045d919061a359565b60405180910390f35b61046e610c3c565b60405161047b9190619bfb565b60405180910390f35b61049e60048036038101906104999190617d87565b610c62565b6040516104ab9190619bfb565b60405180910390f35b6104bc610d97565b6040516104c9919061a405565b60405180910390f35b6104da610db4565b6040516104e7919061a359565b60405180910390f35b61050a60048036038101906105059190617fa8565b610dc3565b005b61052660048036038101906105219190617f2d565b610f74565b005b61053061105b565b60405161053d9190619b71565b60405180910390f35b610560600480360381019061055b91906181d3565b61106c565b60405161056d919061a359565b60405180910390f35b61057e61107e565b60405161058b9190619bfb565b60405180910390f35b61059c611145565b005b6105b860048036038101906105b39190617dff565b6112c8565b005b6105d460048036038101906105cf9190617fd1565b6114ae565b005b6105de6115fc565b6040516105eb9190619c4c565b60405180910390f35b61060e600480360381019061060991906181d3565b611622565b60405161061b9190619bfb565b60405180910390f35b61063e60048036038101906106399190618145565b6116ef565b005b6106486118c2565b6040516106559190619b71565b60405180910390f35b61067860048036038101906106739190617ea3565b6118d3565b005b610694600480360381019061068f91906180b7565b611a5e565b005b61069e611b05565b6040516106ab9190619bfb565b60405180910390f35b6106bc611b24565b6040516106c99190619cd3565b60405180910390f35b6106da611b4a565b6040516106e7919061a405565b60405180910390f35b6106f8611b67565b6040516107059190619cb8565b60405180910390f35b610728600480360381019061072391906181d3565b611b8d565b005b610732611c1d565b60405161073f9190619bfb565b60405180910390f35b610750611c30565b005b61075a611d6d565b6040516107679190619c82565b60405180910390f35b610778611d93565b604051610785919061a359565b60405180910390f35b610796611d99565b6040516107a39190619bfb565b60405180910390f35b6107c660048036038101906107c191906182db565b611e1c565b005b6107e260048036038101906107dd919061811c565b611f26565b005b6107ec612079565b6040516107f99190619bfb565b60405180910390f35b61081c600480360381019061081791906181d3565b612099565b005b610838600480360381019061083391906180f3565b612129565b005b6108426122da565b60405161084f919061a359565b60405180910390f35b6108606122e4565b60405161086d9190619b93565b60405180910390f35b61087e6123d2565b60405161088b9190619997565b60405180910390f35b6108ae60048036038101906108a99190617cd2565b6123fc565b6040516108bb9190619bfb565b60405180910390f35b6108cc61241c565b6040516108d9919061a359565b60405180910390f35b6108fc60048036038101906108f79190618036565b612422565b6040516109099190619bd9565b60405180910390f35b61091a6124b9565b6040516109279190619bfb565b60405180910390f35b6109386124c8565b6040516109459190619bfb565b60405180910390f35b61096860048036038101906109639190617f2d565b6124db565b6040516109759190619bfb565b60405180910390f35b6109866125bb565b604051610993919061a405565b60405180910390f35b6109b660048036038101906109b19190617ffa565b6125d1565b005b6109d260048036038101906109cd9190617d24565b6126b2565b005b6109dc612907565b005b6109f860048036038101906109f39190617ee8565b612c8a565b005b610a02613241565b604051610a0f9190619c67565b60405180910390f35b610a20613267565b604051610a2d919061a359565b60405180910390f35b610a506004803603810190610a4b919061805f565b61330e565b005b610a6c6004803603810190610a679190618379565b613663565b005b610a766136f3565b604051610a83919061a359565b60405180910390f35b610a94613702565b604051610aa19190619c9d565b60405180910390f35b610ab2613728565b005b610ace6004803603810190610ac991906181d3565b613b5a565b604051610adb919061a2d0565b60405180910390f35b610afe6004803603810190610af99190617cd2565b613c1e565b005b610b1a6004803603810190610b159190618225565b613dca565b005b610b366004803603810190610b319190618197565b61433c565b005b610b4061461e565b604051610b4d9190619cee565b60405180910390f35b6000610b69610b63614657565b8361469e565b9050919050565b60006301ffc9a760e01b7bffffffffffffffffffffffffffffffffffffffffffffffffffffffff1916827bffffffffffffffffffffffffffffffffffffffffffffffffffffffff19161480610c09575063ff5e34e760e01b7bffffffffffffffffffffffffffffffffffffffffffffffffffffffff1916827bffffffffffffffffffffffffffffffffffffffffffffffffffffffff1916145b9050919050565b607360009054906101000a900473ffffffffffffffffffffffffffffffffffffffff1681565b607a5481565b600080606a60000160009054906101000a900463ffffffff1663ffffffff161415905090565b6000610c6c6146dd565b73ffffffffffffffffffffffffffffffffffffffff16610c8a6123d2565b73ffffffffffffffffffffffffffffffffffffffff1614610ce0576040517f08c379a0000000000000000000000000000000000000000000000000000000008152600401610cd79061a070565b60405180910390fd5b610ce86146e5565b81607860008573ffffffffffffffffffffffffffffffffffffffff1673ffffffffffffffffffffffffffffffffffffffff16815260200190815260200160002060006101000a81548160ff0219169083151502179055508273ffffffffffffffffffffffffffffffffffffffff167fd1ac9a365c0e3bfad562e0a809a5ded3842a2b489f839b3327e4e34ee0128f2883604051610d859190619bfb565b60405180910390a26001905092915050565b6000606a60000160009054906101000a900463ffffffff16905090565b6000610dbe614777565b905090565b610dcb6146dd565b73ffffffffffffffffffffffffffffffffffffffff16610de96123d2565b73ffffffffffffffffffffffffffffffffffffffff1614610e3f576040517f08c379a0000000000000000000000000000000000000000000000000000000008152600401610e369061a070565b60405180910390fd5b610e476146e5565b8073ffffffffffffffffffffffffffffffffffffffff16600073ffffffffffffffffffffffffffffffffffffffff161480610eae5750610ead634cdf9c3e60e01b8273ffffffffffffffffffffffffffffffffffffffff1661479590919063ffffffff16565b5b610eed576040517f08c379a0000000000000000000000000000000000000000000000000000000008152600401610ee49061a0d0565b60405180910390fd5b80607360006101000a81548173ffffffffffffffffffffffffffffffffffffffff021916908373ffffffffffffffffffffffffffffffffffffffff1602179055508073ffffffffffffffffffffffffffffffffffffffff167fc4feff61630891ea2cb42a54fbe3ff2e65422f2ed17323ac6b65f4521112e87e60405160405180910390a250565b610f7c6146dd565b73ffffffffffffffffffffffffffffffffffffffff16610f9a6123d2565b73ffffffffffffffffffffffffffffffffffffffff1614610ff0576040517f08c379a0000000000000000000000000000000000000000000000000000000008152600401610fe79061a070565b60405180910390fd5b610ff86146e5565b80607760006101000a81548160ff0219169083151502179055507f6959d02e8fb6264d1d39bf37f1e725001f342714933cf38f8627a2442efc43fd607760009054906101000a900460ff166040516110509190619bfb565b60405180910390a150565b606061106760706147ba565b905090565b6000611077826149a5565b9050919050565b6000606960009054906101000a900473ffffffffffffffffffffffffffffffffffffffff1673ffffffffffffffffffffffffffffffffffffffff16633a19b9bc606a60000160009054906101000a900463ffffffff166040518263ffffffff1660e01b81526004016110f0919061a405565b60206040518083038186803b15801561110857600080fd5b505afa15801561111c573d6000803e3d6000fd5b505050506040513d601f19601f820116820180604052508101906111409190617f56565b905090565b61114d611d99565b61118c576040517f08c379a00000000000000000000000000000000000000000000000000000000081526004016111839061a250565b60405180910390fd5b6000606a60000160009054906101000a900463ffffffff1690506000606a60000160049054906101000a900463ffffffff169050606a600080820160006101000a81549063ffffffff02191690556000820160046101000a81549063ffffffff02191690556000820160086101000a81549063ffffffff021916905550507fee6702c46c5618e6fc7e625c71f4c85df9c91d456cb16a3aea71ab83b1fee00560405160405180910390a18163ffffffff16606660009054906101000a900473ffffffffffffffffffffffffffffffffffffffff1673ffffffffffffffffffffffffffffffffffffffff163373ffffffffffffffffffffffffffffffffffffffff167fd50026ee0824513af20cdf5e72d1fbfbe8fd646ee0576378e080326f1a695e58846040516112bc919061a405565b60405180910390a45050565b606660009054906101000a900473ffffffffffffffffffffffffffffffffffffffff1673ffffffffffffffffffffffffffffffffffffffff166113096146dd565b73ffffffffffffffffffffffffffffffffffffffff161461135f576040517f08c379a000000000000000000000000000000000000000000000000000000000815260040161135690619e70565b60405180910390fd5b606760009054906101000a900473ffffffffffffffffffffffffffffffffffffffff1673ffffffffffffffffffffffffffffffffffffffff168273ffffffffffffffffffffffffffffffffffffffff1614156113be576113bd6146e5565b5b600073ffffffffffffffffffffffffffffffffffffffff16606560009054906101000a900473ffffffffffffffffffffffffffffffffffffffff1673ffffffffffffffffffffffffffffffffffffffff16146114a857606560009054906101000a900473ffffffffffffffffffffffffffffffffffffffff1673ffffffffffffffffffffffffffffffffffffffff16634d7f3db0858585856040518563ffffffff1660e01b81526004016114759493929190619b2c565b600060405180830381600087803b15801561148f57600080fd5b505af11580156114a3573d6000803e3d6000fd5b505050505b50505050565b6114b66123d2565b73ffffffffffffffffffffffffffffffffffffffff166114d46146dd565b73ffffffffffffffffffffffffffffffffffffffff16148061154a5750607460009054906101000a900473ffffffffffffffffffffffffffffffffffffffff1673ffffffffffffffffffffffffffffffffffffffff166115326146dd565b73ffffffffffffffffffffffffffffffffffffffff16145b806115a95750607360009054906101000a900473ffffffffffffffffffffffffffffffffffffffff1673ffffffffffffffffffffffffffffffffffffffff166115916146dd565b73ffffffffffffffffffffffffffffffffffffffff16145b6115e8576040517f08c379a00000000000000000000000000000000000000000000000000000000081526004016115df90619dd0565b60405180910390fd5b6115f06146e5565b6115f981614a04565b50565b606860009054906101000a900473ffffffffffffffffffffffffffffffffffffffff1681565b600061162c6146dd565b73ffffffffffffffffffffffffffffffffffffffff1661164a6123d2565b73ffffffffffffffffffffffffffffffffffffffff16146116a0576040517f08c379a00000000000000000000000000000000000000000000000000000000081526004016116979061a070565b60405180910390fd5b6116a86146e5565b81607a819055507f63e4e34f49d12428c03e04e61340c7167e36eb0ff6f0b1970c75440261794039826040516116de919061a359565b60405180910390a160019050919050565b6116f76146dd565b73ffffffffffffffffffffffffffffffffffffffff166117156123d2565b73ffffffffffffffffffffffffffffffffffffffff161461176b576040517f08c379a00000000000000000000000000000000000000000000000000000000081526004016117629061a070565b60405180910390fd5b6117736146e5565b8073ffffffffffffffffffffffffffffffffffffffff16600073ffffffffffffffffffffffffffffffffffffffff1614806117da57506117d963ff5e34e760e01b8273ffffffffffffffffffffffffffffffffffffffff1661479590919063ffffffff16565b5b611819576040517f08c379a000000000000000000000000000000000000000000000000000000000815260040161181090619d30565b60405180910390fd5b80606560006101000a81548173ffffffffffffffffffffffffffffffffffffffff021916908373ffffffffffffffffffffffffffffffffffffffff160217905550606560009054906101000a900473ffffffffffffffffffffffffffffffffffffffff1673ffffffffffffffffffffffffffffffffffffffff167f9fc437aa70ad4ee5f33f6772bf338eed41e21b95435820817ab8b4df161ce4dd60405160405180910390a250565b60606118ce606e6147ba565b905090565b6118db6123d2565b73ffffffffffffffffffffffffffffffffffffffff166118f96146dd565b73ffffffffffffffffffffffffffffffffffffffff16148061196f5750607460009054906101000a900473ffffffffffffffffffffffffffffffffffffffff1673ffffffffffffffffffffffffffffffffffffffff166119576146dd565b73ffffffffffffffffffffffffffffffffffffffff16145b806119ce5750607360009054906101000a900473ffffffffffffffffffffffffffffffffffffffff1673ffffffffffffffffffffffffffffffffffffffff166119b66146dd565b73ffffffffffffffffffffffffffffffffffffffff16145b611a0d576040517f08c379a0000000000000000000000000000000000000000000000000000000008152600401611a0490619dd0565b60405180910390fd5b611a156146e5565b60005b82829050811015611a5957611a4c838383818110611a3257fe5b9050602002016020810190611a479190617fd1565b614a04565b8080600101915050611a18565b505050565b611a666146dd565b73ffffffffffffffffffffffffffffffffffffffff16611a846123d2565b73ffffffffffffffffffffffffffffffffffffffff1614611ada576040517f08c379a0000000000000000000000000000000000000000000000000000000008152600401611ad19061a070565b60405180910390fd5b611ae26146e5565b611af881836070614cd89092919063ffffffff16565b611b0182614faa565b5050565b6000611b0f610c3c565b8015611b1f5750611b1e61107e565b5b905090565b606560009054906101000a900473ffffffffffffffffffffffffffffffffffffffff1681565b6000606a60000160049054906101000a900463ffffffff16905090565b606760009054906101000a900473ffffffffffffffffffffffffffffffffffffffff1681565b611b956146dd565b73ffffffffffffffffffffffffffffffffffffffff16611bb36123d2565b73ffffffffffffffffffffffffffffffffffffffff1614611c09576040517f08c379a0000000000000000000000000000000000000000000000000000000008152600401611c009061a070565b60405180910390fd5b611c116146e5565b611c1a8161503b565b50565b607960009054906101000a900460ff1681565b611c386146dd565b73ffffffffffffffffffffffffffffffffffffffff16611c566123d2565b73ffffffffffffffffffffffffffffffffffffffff1614611cac576040517f08c379a0000000000000000000000000000000000000000000000000000000008152600401611ca39061a070565b60405180910390fd5b600073ffffffffffffffffffffffffffffffffffffffff16603360009054906101000a900473ffffffffffffffffffffffffffffffffffffffff1673ffffffffffffffffffffffffffffffffffffffff167f8be0079c531659141344cd1fd0a4f28419497f9722a3daafe3b4186f6b6457e060405160405180910390a36000603360006101000a81548173ffffffffffffffffffffffffffffffffffffffff021916908373ffffffffffffffffffffffffffffffffffffffff160217905550565b606660009054906101000a900473ffffffffffffffffffffffffffffffffffffffff1681565b606d5481565b600080606a60000160089054906101000a900463ffffffff1663ffffffff161415611dc75760009050611e19565b611e0d606a60000160089054906101000a900463ffffffff1663ffffffff16606b60009054906101000a900463ffffffff1663ffffffff166150bf90919063ffffffff16565b611e15615114565b1190505b90565b600060019054906101000a900460ff1680611e3b5750611e3a61511c565b5b80611e51575060008054906101000a900460ff16155b611e90576040517f08c379a0000000000000000000000000000000000000000000000000000000008152600401611e8790619fb0565b60405180910390fd5b60008060019054906101000a900460ff161590508015611ee0576001600060016101000a81548160ff02191690831515021790555060016000806101000a81548160ff0219169083151502179055505b6060611ef189898989898987613dca565b611efa8361503b565b508015611f1c5760008060016101000a81548160ff0219169083151502179055505b5050505050505050565b611f2e6146dd565b73ffffffffffffffffffffffffffffffffffffffff16611f4c6123d2565b73ffffffffffffffffffffffffffffffffffffffff1614611fa2576040517f08c379a0000000000000000000000000000000000000000000000000000000008152600401611f999061a070565b60405180910390fd5b611faa6146e5565b611fb2610c3c565b15611ff2576040517f08c379a0000000000000000000000000000000000000000000000000000000008152600401611fe99061a230565b60405180910390fd5b80606960006101000a81548173ffffffffffffffffffffffffffffffffffffffff021916908373ffffffffffffffffffffffffffffffffffffffff1602179055508073ffffffffffffffffffffffffffffffffffffffff167ff935763cc7c57ee8ed6318ed71e756cca0731294c9f46ff5b386f36d6ff1417a60405160405180910390a250565b600061208361512d565b80156120945750612092610c3c565b155b905090565b6120a16146dd565b73ffffffffffffffffffffffffffffffffffffffff166120bf6123d2565b73ffffffffffffffffffffffffffffffffffffffff1614612115576040517f08c379a000000000000000000000000000000000000000000000000000000000815260040161210c9061a070565b60405180910390fd5b61211d6146e5565b61212681615146565b50565b6121316146dd565b73ffffffffffffffffffffffffffffffffffffffff1661214f6123d2565b73ffffffffffffffffffffffffffffffffffffffff16146121a5576040517f08c379a000000000000000000000000000000000000000000000000000000000815260040161219c9061a070565b60405180910390fd5b6121ad6146e5565b8073ffffffffffffffffffffffffffffffffffffffff16600073ffffffffffffffffffffffffffffffffffffffff161480612214575061221363575072c660e01b8273ffffffffffffffffffffffffffffffffffffffff1661479590919063ffffffff16565b5b612253576040517f08c379a000000000000000000000000000000000000000000000000000000000815260040161224a9061a1d0565b60405180910390fd5b80607460006101000a81548173ffffffffffffffffffffffffffffffffffffffff021916908373ffffffffffffffffffffffffffffffffffffffff1602179055508073ffffffffffffffffffffffffffffffffffffffff167fda05d50a3a1ec0ffab059f1d457ae59f68ccfb3ffbb4dad283c516f9103d584b60405160405180910390a250565b6000607654905090565b60606075805480602002602001604051908101604052809291908181526020016000905b828210156123c9578382906000526020600020016040518060600160405290816000820160009054906101000a900473ffffffffffffffffffffffffffffffffffffffff1673ffffffffffffffffffffffffffffffffffffffff1673ffffffffffffffffffffffffffffffffffffffff1681526020016000820160149054906101000a900461ffff1661ffff1661ffff1681526020016000820160169054906101000a900460ff1660ff1660ff168152505081526020019060010190612308565b50505050905090565b6000603360009054906101000a900473ffffffffffffffffffffffffffffffffffffffff16905090565b60786020528060005260406000206000915054906101000a900460ff1681565b606c5481565b6060607260008373ffffffffffffffffffffffffffffffffffffffff1673ffffffffffffffffffffffffffffffffffffffff1681526020019081526020016000208054806020026020016040519081016040528092919081815260200182805480156124ad57602002820191906000526020600020905b815481526020019060010190808311612499575b50505050509050919050565b60006124c361512d565b905090565b607760009054906101000a900460ff1681565b60006124e56146dd565b73ffffffffffffffffffffffffffffffffffffffff166125036123d2565b73ffffffffffffffffffffffffffffffffffffffff1614612559576040517f08c379a00000000000000000000000000000000000000000000000000000000081526004016125509061a070565b60405180910390fd5b6125616146e5565b81607960006101000a81548160ff0219169083151502179055507f2b4b6ffe286f7ce4ccc6b136bb14987b0a00092174d88938a0c667a104a4a731826040516125aa9190619bfb565b60405180910390a160019050919050565b606b60009054906101000a900463ffffffff1681565b6125d96146dd565b73ffffffffffffffffffffffffffffffffffffffff166125f76123d2565b73ffffffffffffffffffffffffffffffffffffffff161461264d576040517f08c379a00000000000000000000000000000000000000000000000000000000081526004016126449061a070565b60405180910390fd5b6126556146e5565b61266b8183606e614cd89092919063ffffffff16565b8173ffffffffffffffffffffffffffffffffffffffff167f58982464497acdab11ad29d39907e076b0d3b8daf1d9b734174c7c3a2a0e8c7460405160405180910390a25050565b606660009054906101000a900473ffffffffffffffffffffffffffffffffffffffff1673ffffffffffffffffffffffffffffffffffffffff166126f36146dd565b73ffffffffffffffffffffffffffffffffffffffff1614612749576040517f08c379a000000000000000000000000000000000000000000000000000000000815260040161274090619e70565b60405180910390fd5b8273ffffffffffffffffffffffffffffffffffffffff168473ffffffffffffffffffffffffffffffffffffffff1614156127b8576040517f08c379a00000000000000000000000000000000000000000000000000000000081526004016127af90619e90565b60405180910390fd5b606760009054906101000a900473ffffffffffffffffffffffffffffffffffffffff1673ffffffffffffffffffffffffffffffffffffffff168173ffffffffffffffffffffffffffffffffffffffff161415612817576128166146e5565b5b600073ffffffffffffffffffffffffffffffffffffffff16606560009054906101000a900473ffffffffffffffffffffffffffffffffffffffff1673ffffffffffffffffffffffffffffffffffffffff161461290157606560009054906101000a900473ffffffffffffffffffffffffffffffffffffffff1673ffffffffffffffffffffffffffffffffffffffff1663b2210957858585856040518563ffffffff1660e01b81526004016128ce9493929190619a50565b600060405180830381600087803b1580156128e857600080fd5b505af11580156128fc573d6000803e3d6000fd5b505050505b50505050565b61290f61512d565b61294e576040517f08c379a000000000000000000000000000000000000000000000000000000000815260040161294590619d90565b60405180910390fd5b612956610c3c565b15612996576040517f08c379a000000000000000000000000000000000000000000000000000000000815260040161298d9061a010565b60405180910390fd5b600080606960009054906101000a900473ffffffffffffffffffffffffffffffffffffffff1673ffffffffffffffffffffffffffffffffffffffff16630d37b5376040518163ffffffff1660e01b8152600401604080518083038186803b158015612a0057600080fd5b505afa158015612a14573d6000803e3d6000fd5b505050506040513d601f19601f82011682018060405250810190612a389190617dc3565b91509150600073ffffffffffffffffffffffffffffffffffffffff168273ffffffffffffffffffffffffffffffffffffffff1614158015612a795750600081115b15612acc57612acb606960009054906101000a900473ffffffffffffffffffffffffffffffffffffffff16828473ffffffffffffffffffffffffffffffffffffffff166151cc9092919063ffffffff16565b5b600080606960009054906101000a900473ffffffffffffffffffffffffffffffffffffffff1673ffffffffffffffffffffffffffffffffffffffff16638678a7b26040518163ffffffff1660e01b81526004016040805180830381600087803b158015612b3857600080fd5b505af1158015612b4c573d6000803e3d6000fd5b505050506040513d601f19601f82011682018060405250810190612b7091906183a2565b9150915081606a60000160006101000a81548163ffffffff021916908363ffffffff16021790555080606a60000160046101000a81548163ffffffff021916908363ffffffff160217905550612bcc612bc7615114565b61532a565b606a60000160086101000a81548163ffffffff021916908363ffffffff1602179055508163ffffffff16606660009054906101000a900473ffffffffffffffffffffffffffffffffffffffff1673ffffffffffffffffffffffffffffffffffffffff16612c376146dd565b73ffffffffffffffffffffffffffffffffffffffff167f4d31e658dcf617bb3a3c8cf7c6dddb33f7030ac588e271631ecdb5d76c2e91ef84604051612c7c919061a405565b60405180910390a450505050565b612c926146dd565b73ffffffffffffffffffffffffffffffffffffffff16612cb06123d2565b73ffffffffffffffffffffffffffffffffffffffff1614612d06576040517f08c379a0000000000000000000000000000000000000000000000000000000008152600401612cfd9061a070565b60405180910390fd5b600082829050905060005b8181101561311b57612d2161786e565b848483818110612d2d57fe5b905060600201803603810190612d43919061816e565b90506001816040015160ff161115612d90576040517f08c379a0000000000000000000000000000000000000000000000000000000008152600401612d8790619e30565b60405180910390fd5b600073ffffffffffffffffffffffffffffffffffffffff16816000015173ffffffffffffffffffffffffffffffffffffffff161415612e04576040517f08c379a0000000000000000000000000000000000000000000000000000000008152600401612dfb90619f70565b60405180910390fd5b8160758054905011612eca576075819080600181540180825580915050600190039060005260206000200160009091909190915060008201518160000160006101000a81548173ffffffffffffffffffffffffffffffffffffffff021916908373ffffffffffffffffffffffffffffffffffffffff16021790555060208201518160000160146101000a81548161ffff021916908361ffff16021790555060408201518160000160166101000a81548160ff021916908360ff16021790555050506130ae565b612ed261786e565b60758381548110612edf57fe5b906000526020600020016040518060600160405290816000820160009054906101000a900473ffffffffffffffffffffffffffffffffffffffff1673ffffffffffffffffffffffffffffffffffffffff1673ffffffffffffffffffffffffffffffffffffffff1681526020016000820160149054906101000a900461ffff1661ffff1661ffff1681526020016000820160169054906101000a900460ff1660ff1660ff16815250509050806000015173ffffffffffffffffffffffffffffffffffffffff16826000015173ffffffffffffffffffffffffffffffffffffffff16141580612fdc5750806020015161ffff16826020015161ffff1614155b80612ff55750806040015160ff16826040015160ff1614155b156130a557816075848154811061300857fe5b9060005260206000200160008201518160000160006101000a81548173ffffffffffffffffffffffffffffffffffffffff021916908373ffffffffffffffffffffffffffffffffffffffff16021790555060208201518160000160146101000a81548161ffff021916908361ffff16021790555060408201518160000160166101000a81548160ff021916908360ff1602179055509050506130ac565b505061310e565b505b806000015173ffffffffffffffffffffffffffffffffffffffff167fc1bf93444a0055a24a7d0154b75fedf78edfe355c06a2ce8e47f9f390872055982602001518360400151856040516131049392919061a2eb565b60405180910390a2505b8080600101915050612d11565b505b8060758054905011156131ea576000613145600160758054905061537b90919063ffffffff16565b9050607580548061315257fe5b60019003818190600052602060002001600080820160006101000a81549073ffffffffffffffffffffffffffffffffffffffff02191690556000820160146101000a81549061ffff02191690556000820160166101000a81549060ff021916905550509055807f99fa473fdf53414bcd014cf6e7509fc58c68f7b86174767faa6ad5100cd5bae560405160405180910390a25061311d565b60006131f46153cb565b90506103e881111561323b576040517f08c379a00000000000000000000000000000000000000000000000000000000081526004016132329061a0b0565b60405180910390fd5b50505050565b607460009054906101000a900473ffffffffffffffffffffffffffffffffffffffff1681565b6000606660009054906101000a900473ffffffffffffffffffffffffffffffffffffffff1673ffffffffffffffffffffffffffffffffffffffff1663630665b46040518163ffffffff1660e01b815260040160206040518083038186803b1580156132d157600080fd5b505afa1580156132e5573d6000803e3d6000fd5b505050506040513d601f19601f8201168201806040525081019061330991906181fc565b905090565b6133166123d2565b73ffffffffffffffffffffffffffffffffffffffff166133346146dd565b73ffffffffffffffffffffffffffffffffffffffff1614806133aa5750607460009054906101000a900473ffffffffffffffffffffffffffffffffffffffff1673ffffffffffffffffffffffffffffffffffffffff166133926146dd565b73ffffffffffffffffffffffffffffffffffffffff16145b806134095750607360009054906101000a900473ffffffffffffffffffffffffffffffffffffffff1673ffffffffffffffffffffffffffffffffffffffff166133f16146dd565b73ffffffffffffffffffffffffffffffffffffffff16145b613448576040517f08c379a000000000000000000000000000000000000000000000000000000000815260040161343f90619dd0565b60405180910390fd5b6134506146e5565b606660009054906101000a900473ffffffffffffffffffffffffffffffffffffffff1673ffffffffffffffffffffffffffffffffffffffff16636a3fd4f9846040518263ffffffff1660e01b81526004016134ab9190619997565b60206040518083038186803b1580156134c357600080fd5b505afa1580156134d7573d6000803e3d6000fd5b505050506040513d601f19601f820116820180604052508101906134fb9190617f56565b61353a576040517f08c379a00000000000000000000000000000000000000000000000000000000081526004016135319061a0f0565b60405180910390fd5b61356a6380ac58cd60e01b8473ffffffffffffffffffffffffffffffffffffffff1661479590919063ffffffff16565b6135a9576040517f08c379a00000000000000000000000000000000000000000000000000000000081526004016135a090619d10565b60405180910390fd5b6135bd8360706154dc90919063ffffffff16565b6135d6576135d58360706155ea90919063ffffffff16565b5b60005b8282905081101561360d57613600848484848181106135f457fe5b905060200201356158da565b80806001019150506135d9565b508273ffffffffffffffffffffffffffffffffffffffff167f51541dc4b4c08a16085809cccdc4cc77d8000b60fbb00142e57f236d842986758383604051613656929190619bb5565b60405180910390a2505050565b61366b6146dd565b73ffffffffffffffffffffffffffffffffffffffff166136896123d2565b73ffffffffffffffffffffffffffffffffffffffff16146136df576040517f08c379a00000000000000000000000000000000000000000000000000000000081526004016136d69061a070565b60405180910390fd5b6136e76146e5565b6136f081615b4e565b50565b60006136fd614657565b905090565b606960009054906101000a900473ffffffffffffffffffffffffffffffffffffffff1681565b613730610c3c565b61376f576040517f08c379a00000000000000000000000000000000000000000000000000000000081526004016137669061a290565b60405180910390fd5b61377761107e565b6137b6576040517f08c379a00000000000000000000000000000000000000000000000000000000081526004016137ad90619f50565b60405180910390fd5b6000606960009054906101000a900473ffffffffffffffffffffffffffffffffffffffff1673ffffffffffffffffffffffffffffffffffffffff16639d2a5f98606a60000160009054906101000a900463ffffffff166040518263ffffffff1660e01b8152600401613828919061a405565b602060405180830381600087803b15801561384257600080fd5b505af1158015613856573d6000803e3d6000fd5b505050506040513d601f19601f8201168201806040525081019061387a91906181fc565b9050606a600080820160006101000a81549063ffffffff02191690556000820160046101000a81549063ffffffff02191690556000820160086101000a81549063ffffffff02191690555050600073ffffffffffffffffffffffffffffffffffffffff16607360009054906101000a900473ffffffffffffffffffffffffffffffffffffffff1673ffffffffffffffffffffffffffffffffffffffff16146139ae57607360009054906101000a900473ffffffffffffffffffffffffffffffffffffffff1673ffffffffffffffffffffffffffffffffffffffff16634cdf9c3e82606d546040518363ffffffff1660e01b815260040161397b92919061a374565b600060405180830381600087803b15801561399557600080fd5b505af11580156139a9573d6000803e3d6000fd5b505050505b6139b781615c04565b600073ffffffffffffffffffffffffffffffffffffffff16607460009054906101000a900473ffffffffffffffffffffffffffffffffffffffff1673ffffffffffffffffffffffffffffffffffffffff1614613a9f57607460009054906101000a900473ffffffffffffffffffffffffffffffffffffffff1673ffffffffffffffffffffffffffffffffffffffff1663575072c682606d546040518363ffffffff1660e01b8152600401613a6c92919061a374565b600060405180830381600087803b158015613a8657600080fd5b505af1158015613a9a573d6000803e3d6000fd5b505050505b613aaf613aaa615114565b6149a5565b606d81905550613abd6146dd565b73ffffffffffffffffffffffffffffffffffffffff167f9c4163ece98173eab9a496c4db8bf3e2c8edcc5d2854377880597ccb858b7a9d82604051613b02919061a359565b60405180910390a2606d54613b156146dd565b73ffffffffffffffffffffffffffffffffffffffff167fc61852c20f0b03b31d782f3022f2bf20322ac17ce66c5349fb6e24740cdd645660405160405180910390a350565b613b6261786e565b60758281548110613b6f57fe5b906000526020600020016040518060600160405290816000820160009054906101000a900473ffffffffffffffffffffffffffffffffffffffff1673ffffffffffffffffffffffffffffffffffffffff1673ffffffffffffffffffffffffffffffffffffffff1681526020016000820160149054906101000a900461ffff1661ffff1661ffff1681526020016000820160169054906101000a900460ff1660ff1660ff16815250509050919050565b613c266146dd565b73ffffffffffffffffffffffffffffffffffffffff16613c446123d2565b73ffffffffffffffffffffffffffffffffffffffff1614613c9a576040517f08c379a0000000000000000000000000000000000000000000000000000000008152600401613c919061a070565b60405180910390fd5b600073ffffffffffffffffffffffffffffffffffffffff168173ffffffffffffffffffffffffffffffffffffffff161415613d0a576040517f08c379a0000000000000000000000000000000000000000000000000000000008152600401613d0190619db0565b60405180910390fd5b8073ffffffffffffffffffffffffffffffffffffffff16603360009054906101000a900473ffffffffffffffffffffffffffffffffffffffff1673ffffffffffffffffffffffffffffffffffffffff167f8be0079c531659141344cd1fd0a4f28419497f9722a3daafe3b4186f6b6457e060405160405180910390a380603360006101000a81548173ffffffffffffffffffffffffffffffffffffffff021916908373ffffffffffffffffffffffffffffffffffffffff16021790555050565b600060019054906101000a900460ff1680613de95750613de861511c565b5b80613dff575060008054906101000a900460ff16155b613e3e576040517f08c379a0000000000000000000000000000000000000000000000000000000008152600401613e3590619fb0565b60405180910390fd5b60008060019054906101000a900460ff161590508015613e8e576001600060016101000a81548160ff02191690831515021790555060016000806101000a81548160ff0219169083151502179055505b600073ffffffffffffffffffffffffffffffffffffffff168673ffffffffffffffffffffffffffffffffffffffff161415613efe576040517f08c379a0000000000000000000000000000000000000000000000000000000008152600401613ef590619ed0565b60405180910390fd5b600073ffffffffffffffffffffffffffffffffffffffff168573ffffffffffffffffffffffffffffffffffffffff161415613f6e576040517f08c379a0000000000000000000000000000000000000000000000000000000008152600401613f659061a190565b60405180910390fd5b600073ffffffffffffffffffffffffffffffffffffffff168473ffffffffffffffffffffffffffffffffffffffff161415613fde576040517f08c379a0000000000000000000000000000000000000000000000000000000008152600401613fd590619e10565b60405180910390fd5b600073ffffffffffffffffffffffffffffffffffffffff168373ffffffffffffffffffffffffffffffffffffffff16141561404e576040517f08c379a000000000000000000000000000000000000000000000000000000000815260040161404590619f10565b60405180910390fd5b85606660006101000a81548173ffffffffffffffffffffffffffffffffffffffff021916908373ffffffffffffffffffffffffffffffffffffffff16021790555084606760006101000a81548173ffffffffffffffffffffffffffffffffffffffff021916908373ffffffffffffffffffffffffffffffffffffffff16021790555082606960006101000a81548173ffffffffffffffffffffffffffffffffffffffff021916908373ffffffffffffffffffffffffffffffffffffffff16021790555083606860006101000a81548173ffffffffffffffffffffffffffffffffffffffff021916908373ffffffffffffffffffffffffffffffffffffffff16021790555061415b87615146565b614163616348565b731820a4b7618bde71dce8cdc73aab6c95905fad2473ffffffffffffffffffffffffffffffffffffffff166329965a1d307fb281fc8c12954d22544db45de3159a39272895b169a852b314f9cc762e44c53b60001b306040518463ffffffff1660e01b81526004016141d793929190619a95565b600060405180830381600087803b1580156141f157600080fd5b505af1158015614205573d6000803e3d6000fd5b50505050614213606e616440565b60005b82518110156142485761423b83828151811061422e57fe5b6020026020010151614a04565b8080600101915050614216565b5086606c8190555087606d819055506142616070616440565b61426c610708615b4e565b8573ffffffffffffffffffffffffffffffffffffffff167ff9632d212436344a25150ff0c161dabf412aade556621c2dea146ca63ff643f58989888888886040516142bc9695949392919061a39d565b60405180910390a2606d546142cf6146dd565b73ffffffffffffffffffffffffffffffffffffffff167fc61852c20f0b03b31d782f3022f2bf20322ac17ce66c5349fb6e24740cdd645660405160405180910390a380156143325760008060016101000a81548160ff0219169083151502179055505b5050505050505050565b6143446146dd565b73ffffffffffffffffffffffffffffffffffffffff166143626123d2565b73ffffffffffffffffffffffffffffffffffffffff16146143b8576040517f08c379a00000000000000000000000000000000000000000000000000000000081526004016143af9061a070565b60405180910390fd5b6075805490508160ff1610614402576040517f08c379a00000000000000000000000000000000000000000000000000000000081526004016143f990619fd0565b60405180910390fd5b6001826040015160ff16111561444d576040517f08c379a000000000000000000000000000000000000000000000000000000000815260040161444490619e30565b60405180910390fd5b600073ffffffffffffffffffffffffffffffffffffffff16826000015173ffffffffffffffffffffffffffffffffffffffff1614156144c1576040517f08c379a00000000000000000000000000000000000000000000000000000000081526004016144b890619f70565b60405180910390fd5b8160758260ff16815481106144d257fe5b9060005260206000200160008201518160000160006101000a81548173ffffffffffffffffffffffffffffffffffffffff021916908373ffffffffffffffffffffffffffffffffffffffff16021790555060208201518160000160146101000a81548161ffff021916908361ffff16021790555060408201518160000160166101000a81548160ff021916908360ff16021790555090505060006145746153cb565b90506103e88111156145bb576040517f08c379a00000000000000000000000000000000000000000000000000000000081526004016145b29061a0b0565b60405180910390fd5b826000015173ffffffffffffffffffffffffffffffffffffffff167fc1bf93444a0055a24a7d0154b75fedf78edfe355c06a2ce8e47f9f390872055984602001518560400151856040516146119392919061a322565b60405180910390a2505050565b6040518060400160405280600581526020017f332e342e3100000000000000000000000000000000000000000000000000000081525081565b600080614662614777565b9050600061466e615114565b9050818111156146835760009250505061469b565b614696818361537b90919063ffffffff16565b925050505b90565b6000806146bc84670de0b6b3a764000061650c90919063ffffffff16565b90506146d1838261657c90919063ffffffff16565b90508091505092915050565b600033905090565b60006146ef6165c6565b90506000606a60000160049054906101000a900463ffffffff1663ffffffff1614806147355750606a60000160049054906101000a900463ffffffff1663ffffffff1681105b614774576040517f08c379a000000000000000000000000000000000000000000000000000000000815260040161476b9061a230565b60405180910390fd5b50565b6000614790606c54606d546150bf90919063ffffffff16565b905090565b60006147a0836165ce565b80156147b257506147b18383616602565b5b905092915050565b606080826000015467ffffffffffffffff811180156147d857600080fd5b506040519080825280602002602001820160405280156148075781602001602082028036833780820191505090505b509050600080846001016000600173ffffffffffffffffffffffffffffffffffffffff1673ffffffffffffffffffffffffffffffffffffffff16815260200190815260200160002060009054906101000a900473ffffffffffffffffffffffffffffffffffffffff1690505b600073ffffffffffffffffffffffffffffffffffffffff168173ffffffffffffffffffffffffffffffffffffffff16141580156148dd5750600173ffffffffffffffffffffffffffffffffffffffff168173ffffffffffffffffffffffffffffffffffffffff1614155b1561499a57808383815181106148ef57fe5b602002602001019073ffffffffffffffffffffffffffffffffffffffff16908173ffffffffffffffffffffffffffffffffffffffff16815250508460010160008273ffffffffffffffffffffffffffffffffffffffff1673ffffffffffffffffffffffffffffffffffffffff16815260200190815260200160002060009054906101000a900473ffffffffffffffffffffffffffffffffffffffff1690508180600101925050614873565b829350505050919050565b6000806149d1606c546149c3606d548661537b90919063ffffffff16565b61662990919063ffffffff16565b90506149fc6149eb606c548361667f90919063ffffffff16565b606d546150bf90919063ffffffff16565b915050919050565b614a238173ffffffffffffffffffffffffffffffffffffffff166166ef565b614a62576040517f08c379a0000000000000000000000000000000000000000000000000000000008152600401614a5990619ff0565b60405180910390fd5b606660009054906101000a900473ffffffffffffffffffffffffffffffffffffffff1673ffffffffffffffffffffffffffffffffffffffff16636a3fd4f9826040518263ffffffff1660e01b8152600401614abd9190619997565b60206040518083038186803b158015614ad557600080fd5b505afa158015614ae9573d6000803e3d6000fd5b505050506040513d601f19601f82011682018060405250810190614b0d9190617f56565b614b4c576040517f08c379a0000000000000000000000000000000000000000000000000000000008152600401614b439061a0f0565b60405180910390fd5b600060608273ffffffffffffffffffffffffffffffffffffffff166040516024016040516020818303038152906040527f18160ddd000000000000000000000000000000000000000000000000000000007bffffffffffffffffffffffffffffffffffffffffffffffffffffffff19166020820180517bffffffffffffffffffffffffffffffffffffffffffffffffffffffff8381831617835250505050604051614bf79190619965565b600060405180830381855afa9150503d8060008114614c32576040519150601f19603f3d011682016040523d82523d6000602084013e614c37565b606091505b509150915081614c7c576040517f08c379a0000000000000000000000000000000000000000000000000000000008152600401614c7390619f90565b60405180910390fd5b614c9083606e6155ea90919063ffffffff16565b8273ffffffffffffffffffffffffffffffffffffffff167fbcd6d991f3416e288bf59a2997b423772937b62c7ea7dd1a54af7771de1f741860405160405180910390a2505050565b600173ffffffffffffffffffffffffffffffffffffffff168173ffffffffffffffffffffffffffffffffffffffff1614158015614d425750600073ffffffffffffffffffffffffffffffffffffffff168173ffffffffffffffffffffffffffffffffffffffff1614155b614d81576040517f08c379a0000000000000000000000000000000000000000000000000000000008152600401614d7890619d50565b60405180910390fd5b8073ffffffffffffffffffffffffffffffffffffffff168360010160008473ffffffffffffffffffffffffffffffffffffffff1673ffffffffffffffffffffffffffffffffffffffff16815260200190815260200160002060009054906101000a900473ffffffffffffffffffffffffffffffffffffffff1673ffffffffffffffffffffffffffffffffffffffff1614614e50576040517f08c379a0000000000000000000000000000000000000000000000000000000008152600401614e4790619d70565b60405180910390fd5b8260010160008273ffffffffffffffffffffffffffffffffffffffff1673ffffffffffffffffffffffffffffffffffffffff16815260200190815260200160002060009054906101000a900473ffffffffffffffffffffffffffffffffffffffff168360010160008473ffffffffffffffffffffffffffffffffffffffff1673ffffffffffffffffffffffffffffffffffffffff16815260200190815260200160002060006101000a81548173ffffffffffffffffffffffffffffffffffffffff021916908373ffffffffffffffffffffffffffffffffffffffff1602179055508260010160008273ffffffffffffffffffffffffffffffffffffffff1673ffffffffffffffffffffffffffffffffffffffff16815260200190815260200160002060006101000a81549073ffffffffffffffffffffffffffffffffffffffff021916905560018360000154038360000181905550505050565b607260008273ffffffffffffffffffffffffffffffffffffffff1673ffffffffffffffffffffffffffffffffffffffff1681526020019081526020016000206000614ff591906178ac565b8073ffffffffffffffffffffffffffffffffffffffff167fcd64d9dacd230c5ccf1278ea5332b0621aa28c950fb0e61c8fbc9e2011c88a3460405160405180910390a250565b6000811161507e576040517f08c379a00000000000000000000000000000000000000000000000000000000081526004016150759061a030565b60405180910390fd5b806076819055507fc44c7222e8df09744ced394101df47e78dedb642d3065267bb388901de9df6d4816040516150b4919061a359565b60405180910390a150565b60008082840190508381101561510a576040517f08c379a000000000000000000000000000000000000000000000000000000000815260040161510190619df0565b60405180910390fd5b8091505092915050565b600042905090565b6000615127306166ef565b15905090565b6000615137614777565b61513f615114565b1015905090565b60008111615189576040517f08c379a000000000000000000000000000000000000000000000000000000000815260040161518090619e50565b60405180910390fd5b80606c819055507f0d379c1a7282461e725a9dc2d74e65246c77e98ae93835e26c2f1654c48ee4ec606c546040516151c1919061a359565b60405180910390a150565b6000811480615265575060008373ffffffffffffffffffffffffffffffffffffffff1663dd62ed3e30856040518363ffffffff1660e01b81526004016152139291906199b2565b60206040518083038186803b15801561522b57600080fd5b505afa15801561523f573d6000803e3d6000fd5b505050506040513d601f19601f8201168201806040525081019061526391906181fc565b145b6152a4576040517f08c379a000000000000000000000000000000000000000000000000000000000815260040161529b9061a1f0565b60405180910390fd5b6153258363095ea7b360e01b84846040516024016152c3929190619acc565b604051602081830303815290604052907bffffffffffffffffffffffffffffffffffffffffffffffffffffffff19166020820180517bffffffffffffffffffffffffffffffffffffffffffffffffffffffff8381831617835250505050616702565b505050565b60006401000000008210615373576040517f08c379a000000000000000000000000000000000000000000000000000000000815260040161536a9061a130565b60405180910390fd5b819050919050565b6000828211156153c0576040517f08c379a00000000000000000000000000000000000000000000000000000000081526004016153b790619eb0565b60405180910390fd5b818303905092915050565b6000806000607580549050905060005b818160ff1610156154d3576153ee61786e565b60758260ff16815481106153fe57fe5b906000526020600020016040518060600160405290816000820160009054906101000a900473ffffffffffffffffffffffffffffffffffffffff1673ffffffffffffffffffffffffffffffffffffffff1673ffffffffffffffffffffffffffffffffffffffff1681526020016000820160149054906101000a900461ffff1661ffff1661ffff1681526020016000820160169054906101000a900460ff1660ff1660ff168152505090506154c3816020015161ffff16856150bf90919063ffffffff16565b93505080806001019150506153db565b50819250505090565b6000600173ffffffffffffffffffffffffffffffffffffffff168273ffffffffffffffffffffffffffffffffffffffff16141580156155485750600073ffffffffffffffffffffffffffffffffffffffff168273ffffffffffffffffffffffffffffffffffffffff1614155b80156155e25750600073ffffffffffffffffffffffffffffffffffffffff168360010160008473ffffffffffffffffffffffffffffffffffffffff1673ffffffffffffffffffffffffffffffffffffffff16815260200190815260200160002060009054906101000a900473ffffffffffffffffffffffffffffffffffffffff1673ffffffffffffffffffffffffffffffffffffffff1614155b905092915050565b600173ffffffffffffffffffffffffffffffffffffffff168173ffffffffffffffffffffffffffffffffffffffff16141580156156545750600073ffffffffffffffffffffffffffffffffffffffff168173ffffffffffffffffffffffffffffffffffffffff1614155b615693576040517f08c379a000000000000000000000000000000000000000000000000000000000815260040161568a90619d50565b60405180910390fd5b600073ffffffffffffffffffffffffffffffffffffffff168260010160008373ffffffffffffffffffffffffffffffffffffffff1673ffffffffffffffffffffffffffffffffffffffff16815260200190815260200160002060009054906101000a900473ffffffffffffffffffffffffffffffffffffffff1673ffffffffffffffffffffffffffffffffffffffff1614615763576040517f08c379a000000000000000000000000000000000000000000000000000000000815260040161575a9061a110565b60405180910390fd5b816001016000600173ffffffffffffffffffffffffffffffffffffffff1673ffffffffffffffffffffffffffffffffffffffff16815260200190815260200160002060009054906101000a900473ffffffffffffffffffffffffffffffffffffffff168260010160008373ffffffffffffffffffffffffffffffffffffffff1673ffffffffffffffffffffffffffffffffffffffff16815260200190815260200160002060006101000a81548173ffffffffffffffffffffffffffffffffffffffff021916908373ffffffffffffffffffffffffffffffffffffffff16021790555080826001016000600173ffffffffffffffffffffffffffffffffffffffff1673ffffffffffffffffffffffffffffffffffffffff16815260200190815260200160002060006101000a81548173ffffffffffffffffffffffffffffffffffffffff021916908373ffffffffffffffffffffffffffffffffffffffff160217905550600182600001540182600001819055505050565b606660009054906101000a900473ffffffffffffffffffffffffffffffffffffffff1673ffffffffffffffffffffffffffffffffffffffff168273ffffffffffffffffffffffffffffffffffffffff16636352211e836040518263ffffffff1660e01b815260040161594c919061a359565b60206040518083038186803b15801561596457600080fd5b505afa158015615978573d6000803e3d6000fd5b505050506040513d601f19601f8201168201806040525081019061599c9190617cfb565b73ffffffffffffffffffffffffffffffffffffffff16146159f2576040517f08c379a00000000000000000000000000000000000000000000000000000000081526004016159e99061a2b0565b60405180910390fd5b60005b607260008473ffffffffffffffffffffffffffffffffffffffff1673ffffffffffffffffffffffffffffffffffffffff16815260200190815260200160002080549050811015615ae35781607260008573ffffffffffffffffffffffffffffffffffffffff1673ffffffffffffffffffffffffffffffffffffffff1681526020019081526020016000208281548110615a8a57fe5b90600052602060002001541415615ad6576040517f08c379a0000000000000000000000000000000000000000000000000000000008152600401615acd9061a210565b60405180910390fd5b80806001019150506159f5565b50607260008373ffffffffffffffffffffffffffffffffffffffff1673ffffffffffffffffffffffffffffffffffffffff1681526020019081526020016000208190806001815401808255809150506001900390600052602060002001600090919091909150555050565b603c8163ffffffff1611615b97576040517f08c379a0000000000000000000000000000000000000000000000000000000008152600401615b8e9061a270565b60405180910390fd5b80606b60006101000a81548163ffffffff021916908363ffffffff1602179055507f4f27f6f220ffad585e728389bc2f0f6b74eeebeb43f95f53752a647cb6e7e687606b60009054906101000a900463ffffffff16604051615bf9919061a405565b60405180910390a150565b6000606660009054906101000a900473ffffffffffffffffffffffffffffffffffffffff1673ffffffffffffffffffffffffffffffffffffffff1663e6d8a94b6040518163ffffffff1660e01b8152600401602060405180830381600087803b158015615c7057600080fd5b505af1158015615c84573d6000803e3d6000fd5b505050506040513d601f19601f82011682018060405250810190615ca891906181fc565b9050615cb3816167c9565b90506000606760009054906101000a900473ffffffffffffffffffffffffffffffffffffffff1673ffffffffffffffffffffffffffffffffffffffff166318160ddd6040518163ffffffff1660e01b815260040160206040518083038186803b158015615d1f57600080fd5b505afa158015615d33573d6000803e3d6000fd5b505050506040513d601f19601f82011682018060405250810190615d5791906181fc565b1415615d8f577f3728feb3fc1ef1bf4a24036afbe7d34b59c551bf0d2ab5564e87ec1734fa80dd60405160405180910390a150616345565b6000607960009054906101000a900460ff1690506000607654905060608167ffffffffffffffff81118015615dc357600080fd5b50604051908082528060200260200182016040528015615df25781602001602082028036833780820191505090505b50905060008590506000806000607a5490505b85831015616022576000606760009054906101000a900473ffffffffffffffffffffffffffffffffffffffff1673ffffffffffffffffffffffffffffffffffffffff16633b304147866040518263ffffffff1660e01b8152600401615e6a919061a359565b60206040518083038186803b158015615e8257600080fd5b505afa158015615e96573d6000803e3d6000fd5b505050506040513d601f19601f82011682018060405250810190615eba9190617cfb565b9050607860008273ffffffffffffffffffffffffffffffffffffffff1673ffffffffffffffffffffffffffffffffffffffff16815260200190815260200160002060009054906101000a900460ff16615f5f5780868580600101965081518110615f2057fe5b602002602001019073ffffffffffffffffffffffffffffffffffffffff16908173ffffffffffffffffffffffffffffffffffffffff1681525050615fe0565b818360010193508310615fdf577fb5f728fcb182000eb8e953c15f6795f07b6cda75b35ef0b65645b53aac63694584604051615f9b919061a359565b60405180910390a16000841415615fd9577f3728feb3fc1ef1bf4a24036afbe7d34b59c551bf0d2ab5564e87ec1734fa80dd60405160405180910390a15b50616022565b5b600061020985026101f3870101604051602001615ffd919061997c565b6040516020818303038152906040528051906020012090508060001c95505050615e05565b61603f8560008151811061603257fe5b60200260200101516168f7565b60008761605e57616059848a61662990919063ffffffff16565b616072565b616071878a61662990919063ffffffff16565b5b905060008111156160b45760005b848110156160b2576160a587828151811061609757fe5b602002602001015183616b38565b8080600101915050616080565b505b607760009054906101000a900460ff161561631d5760006160d5606e616bef565b90505b600073ffffffffffffffffffffffffffffffffffffffff168173ffffffffffffffffffffffffffffffffffffffff161415801561614a575061611a606e616c5b565b73ffffffffffffffffffffffffffffffffffffffff168173ffffffffffffffffffffffffffffffffffffffff1614155b156163175760008173ffffffffffffffffffffffffffffffffffffffff166370a08231606660009054906101000a900473ffffffffffffffffffffffffffffffffffffffff166040518263ffffffff1660e01b81526004016161ac9190619997565b60206040518083038186803b1580156161c457600080fd5b505afa1580156161d8573d6000803e3d6000fd5b505050506040513d601f19601f820116820180604052508101906161fc91906181fc565b905060008a61621d57616218878361662990919063ffffffff16565b616231565b6162308a8361662990919063ffffffff16565b5b905060008111156162fa5760005b878110156162f857606660009054906101000a900473ffffffffffffffffffffffffffffffffffffffff1673ffffffffffffffffffffffffffffffffffffffff16632b0ab1448b838151811061629157fe5b602002602001015186856040518463ffffffff1660e01b81526004016162b993929190619a19565b600060405180830381600087803b1580156162d357600080fd5b505af11580156162e7573d6000803e3d6000fd5b50505050808060010191505061623f565b505b61630e83606e616c6690919063ffffffff16565b925050506160d8565b5061633b565b61633a8660008151811061632d57fe5b6020026020010151616cd2565b5b5050505050505050505b50565b600060019054906101000a900460ff1680616367575061636661511c565b5b8061637d575060008054906101000a900460ff16155b6163bc576040517f08c379a00000000000000000000000000000000000000000000000000000000081526004016163b390619fb0565b60405180910390fd5b60008060019054906101000a900460ff16159050801561640c576001600060016101000a81548160ff02191690831515021790555060016000806101000a81548160ff0219169083151502179055505b616414616ec2565b61641c616faa565b801561643d5760008060016101000a81548160ff0219169083151502179055505b50565b6000816000015414616487576040517f08c379a000000000000000000000000000000000000000000000000000000000815260040161647e9061a090565b60405180910390fd5b6001816001016000600173ffffffffffffffffffffffffffffffffffffffff1673ffffffffffffffffffffffffffffffffffffffff16815260200190815260200160002060006101000a81548173ffffffffffffffffffffffffffffffffffffffff021916908373ffffffffffffffffffffffffffffffffffffffff16021790555050565b60008083141561651f5760009050616576565b600082840290508284828161653057fe5b0414616571576040517f08c379a00000000000000000000000000000000000000000000000000000000081526004016165689061a050565b60405180910390fd5b809150505b92915050565b60006165be83836040518060400160405280601a81526020017f536166654d6174683a206469766973696f6e206279207a65726f00000000000081525061713b565b905092915050565b600043905090565b60006165e1826301ffc9a760e01b616602565b80156165fb57506165f98263ffffffff60e01b616602565b155b9050919050565b6000806000616611858561719c565b9150915081801561661f5750805b9250505092915050565b600080821161666d576040517f08c379a000000000000000000000000000000000000000000000000000000000815260040161666490619f30565b60405180910390fd5b81838161667657fe5b04905092915050565b60008083141561669257600090506166e9565b60008284029050828482816166a357fe5b04146166e4576040517f08c379a00000000000000000000000000000000000000000000000000000000081526004016166db9061a050565b60405180910390fd5b809150505b92915050565b600080823b905060008111915050919050565b6060616764826040518060400160405280602081526020017f5361666545524332303a206c6f772d6c6576656c2063616c6c206661696c65648152508573ffffffffffffffffffffffffffffffffffffffff166172c89092919063ffffffff16565b90506000815111156167c457808060200190518101906167849190617f56565b6167c3576040517f08c379a00000000000000000000000000000000000000000000000000000000081526004016167ba9061a1b0565b60405180910390fd5b5b505050565b6000808290506000607580549050905060005b818110156168ec576167ec61786e565b607582815481106167f957fe5b906000526020600020016040518060600160405290816000820160009054906101000a900473ffffffffffffffffffffffffffffffffffffffff1673ffffffffffffffffffffffffffffffffffffffff1673ffffffffffffffffffffffffffffffffffffffff1681526020016000820160149054906101000a900461ffff1661ffff1661ffff1681526020016000820160169054906101000a900460ff1660ff1660ff1681525050905060006168b38583602001516172e0565b90506168c88260000151828460400151617305565b6168db818861537b90919063ffffffff16565b9650505080806001019150506167dc565b508392505050919050565b60006169036070616bef565b90505b600073ffffffffffffffffffffffffffffffffffffffff168173ffffffffffffffffffffffffffffffffffffffff161415801561697857506169486070616c5b565b73ffffffffffffffffffffffffffffffffffffffff168173ffffffffffffffffffffffffffffffffffffffff1614155b15616b2a5760008173ffffffffffffffffffffffffffffffffffffffff166370a08231606660009054906101000a900473ffffffffffffffffffffffffffffffffffffffff166040518263ffffffff1660e01b81526004016169da9190619997565b60206040518083038186803b1580156169f257600080fd5b505afa158015616a06573d6000803e3d6000fd5b505050506040513d601f19601f82011682018060405250810190616a2a91906181fc565b90506000811115616b0e57606660009054906101000a900473ffffffffffffffffffffffffffffffffffffffff1673ffffffffffffffffffffffffffffffffffffffff166316960d558484607260008773ffffffffffffffffffffffffffffffffffffffff1673ffffffffffffffffffffffffffffffffffffffff1681526020019081526020016000206040518463ffffffff1660e01b8152600401616ad2939291906199db565b600060405180830381600087803b158015616aec57600080fd5b505af1158015616b00573d6000803e3d6000fd5b50505050616b0d82614faa565b5b616b22826070616c6690919063ffffffff16565b915050616906565b616b346070617315565b5050565b606660009054906101000a900473ffffffffffffffffffffffffffffffffffffffff1673ffffffffffffffffffffffffffffffffffffffff16636b1b863a8383606760009054906101000a900473ffffffffffffffffffffffffffffffffffffffff166040518463ffffffff1660e01b8152600401616bb993929190619af5565b600060405180830381600087803b158015616bd357600080fd5b505af1158015616be7573d6000803e3d6000fd5b505050505050565b6000816001016000600173ffffffffffffffffffffffffffffffffffffffff1673ffffffffffffffffffffffffffffffffffffffff16815260200190815260200160002060009054906101000a900473ffffffffffffffffffffffffffffffffffffffff169050919050565b600060019050919050565b60008260010160008373ffffffffffffffffffffffffffffffffffffffff1673ffffffffffffffffffffffffffffffffffffffff16815260200190815260200160002060009054906101000a900473ffffffffffffffffffffffffffffffffffffffff16905092915050565b6000616cde606e616bef565b90505b600073ffffffffffffffffffffffffffffffffffffffff168173ffffffffffffffffffffffffffffffffffffffff1614158015616d535750616d23606e616c5b565b73ffffffffffffffffffffffffffffffffffffffff168173ffffffffffffffffffffffffffffffffffffffff1614155b15616ebe5760008173ffffffffffffffffffffffffffffffffffffffff166370a08231606660009054906101000a900473ffffffffffffffffffffffffffffffffffffffff166040518263ffffffff1660e01b8152600401616db59190619997565b60206040518083038186803b158015616dcd57600080fd5b505afa158015616de1573d6000803e3d6000fd5b505050506040513d601f19601f82011682018060405250810190616e0591906181fc565b90506000811115616ea257606660009054906101000a900473ffffffffffffffffffffffffffffffffffffffff1673ffffffffffffffffffffffffffffffffffffffff16632b0ab1448484846040518463ffffffff1660e01b8152600401616e6f93929190619a19565b600060405180830381600087803b158015616e8957600080fd5b505af1158015616e9d573d6000803e3d6000fd5b505050505b616eb682606e616c6690919063ffffffff16565b915050616ce1565b5050565b600060019054906101000a900460ff1680616ee15750616ee061511c565b5b80616ef7575060008054906101000a900460ff16155b616f36576040517f08c379a0000000000000000000000000000000000000000000000000000000008152600401616f2d90619fb0565b60405180910390fd5b60008060019054906101000a900460ff161590508015616f86576001600060016101000a81548160ff02191690831515021790555060016000806101000a81548160ff0219169083151502179055505b8015616fa75760008060016101000a81548160ff0219169083151502179055505b50565b600060019054906101000a900460ff1680616fc95750616fc861511c565b5b80616fdf575060008054906101000a900460ff16155b61701e576040517f08c379a000000000000000000000000000000000000000000000000000000000815260040161701590619fb0565b60405180910390fd5b60008060019054906101000a900460ff16159050801561706e576001600060016101000a81548160ff02191690831515021790555060016000806101000a81548160ff0219169083151502179055505b60006170786146dd565b905080603360006101000a81548173ffffffffffffffffffffffffffffffffffffffff021916908373ffffffffffffffffffffffffffffffffffffffff1602179055508073ffffffffffffffffffffffffffffffffffffffff16600073ffffffffffffffffffffffffffffffffffffffff167f8be0079c531659141344cd1fd0a4f28419497f9722a3daafe3b4186f6b6457e060405160405180910390a35080156171385760008060016101000a81548160ff0219169083151502179055505b50565b60008083118290617182576040517f08c379a00000000000000000000000000000000000000000000000000000000081526004016171799190619cee565b60405180910390fd5b50600083858161718e57fe5b049050809150509392505050565b60008060606301ffc9a760e01b846040516024016171ba9190619c16565b604051602081830303815290604052907bffffffffffffffffffffffffffffffffffffffffffffffffffffffff19166020820180517bffffffffffffffffffffffffffffffffffffffffffffffffffffffff83818316178352505050509050600060608673ffffffffffffffffffffffffffffffffffffffff16617530846040516172459190619965565b6000604051808303818686fa925050503d8060008114617281576040519150601f19603f3d011682016040523d82523d6000602084013e617286565b606091505b50915091506020815110156172a457600080945094505050506172c1565b81818060200190518101906172b99190617f56565b945094505050505b9250929050565b60606172d7848460008561754f565b90509392505050565b60006172fd6103e88361ffff16850261662990919063ffffffff16565b905092915050565b617310838383617664565b505050565b6000816001016000600173ffffffffffffffffffffffffffffffffffffffff1673ffffffffffffffffffffffffffffffffffffffff16815260200190815260200160002060009054906101000a900473ffffffffffffffffffffffffffffffffffffffff1690505b600073ffffffffffffffffffffffffffffffffffffffff168173ffffffffffffffffffffffffffffffffffffffff16141580156173e75750600173ffffffffffffffffffffffffffffffffffffffff168173ffffffffffffffffffffffffffffffffffffffff1614155b156174bf5760008260010160008373ffffffffffffffffffffffffffffffffffffffff1673ffffffffffffffffffffffffffffffffffffffff16815260200190815260200160002060009054906101000a900473ffffffffffffffffffffffffffffffffffffffff1690508260010160008373ffffffffffffffffffffffffffffffffffffffff1673ffffffffffffffffffffffffffffffffffffffff16815260200190815260200160002060006101000a81549073ffffffffffffffffffffffffffffffffffffffff02191690558091505061737d565b6001826001016000600173ffffffffffffffffffffffffffffffffffffffff1673ffffffffffffffffffffffffffffffffffffffff16815260200190815260200160002060006101000a81548173ffffffffffffffffffffffffffffffffffffffff021916908373ffffffffffffffffffffffffffffffffffffffff160217905550600082600001819055505050565b606082471015617594576040517f08c379a000000000000000000000000000000000000000000000000000000000815260040161758b90619ef0565b60405180910390fd5b61759d856166ef565b6175dc576040517f08c379a00000000000000000000000000000000000000000000000000000000081526004016175d39061a150565b60405180910390fd5b600060608673ffffffffffffffffffffffffffffffffffffffff1685876040516176069190619965565b60006040518083038185875af1925050503d8060008114617643576040519150601f19603f3d011682016040523d82523d6000602084013e617648565b606091505b5091509150617658828286617807565b92505050949350505050565b6060606660009054906101000a900473ffffffffffffffffffffffffffffffffffffffff1673ffffffffffffffffffffffffffffffffffffffff16639d63848a6040518163ffffffff1660e01b815260040160006040518083038186803b1580156176ce57600080fd5b505afa1580156176e2573d6000803e3d6000fd5b505050506040513d6000823e3d601f19601f8201168201806040525081019061770b9190617e62565b905080518260ff161115617754576040517f08c379a000000000000000000000000000000000000000000000000000000000815260040161774b9061a170565b60405180910390fd5b6000818360ff168151811061776557fe5b60200260200101519050606660009054906101000a900473ffffffffffffffffffffffffffffffffffffffff1673ffffffffffffffffffffffffffffffffffffffff16636b1b863a8686846040518463ffffffff1660e01b81526004016177ce93929190619af5565b600060405180830381600087803b1580156177e857600080fd5b505af11580156177fc573d6000803e3d6000fd5b505050505050505050565b6060831561781757829050617867565b60008351111561782a5782518084602001fd5b816040517f08c379a000000000000000000000000000000000000000000000000000000000815260040161785e9190619cee565b60405180910390fd5b9392505050565b6040518060600160405280600073ffffffffffffffffffffffffffffffffffffffff168152602001600061ffff168152602001600060ff1681525090565b50805460008255906000526020600020908101906178ca91906178cd565b50565b5b808211156178e65760008160009055506001016178ce565b5090565b6000813590506178f98161a8c9565b92915050565b60008151905061790e8161a8c9565b92915050565b600082601f83011261792557600080fd5b81516179386179338261a44d565b61a420565b9150818183526020840193506020810190508385602084028201111561795d57600080fd5b60005b8381101561798d57816179738882617b4c565b845260208401935060208301925050600181019050617960565b5050505092915050565b60008083601f8401126179a957600080fd5b8235905067ffffffffffffffff8111156179c257600080fd5b6020830191508360208202830111156179da57600080fd5b9250929050565b600082601f8301126179f257600080fd5b8135617a05617a008261a475565b61a420565b91508181835260208401935060208101905083856020840282011115617a2a57600080fd5b60005b83811015617a5a5781617a408882617b61565b845260208401935060208301925050600181019050617a2d565b5050505092915050565b60008083601f840112617a7657600080fd5b8235905067ffffffffffffffff811115617a8f57600080fd5b602083019150836060820283011115617aa757600080fd5b9250929050565b60008083601f840112617ac057600080fd5b8235905067ffffffffffffffff811115617ad957600080fd5b602083019150836020820283011115617af157600080fd5b9250929050565b600081359050617b078161a8e0565b92915050565b600081519050617b1c8161a8e0565b92915050565b600081359050617b318161a8f7565b92915050565b600081359050617b468161a90e565b92915050565b600081519050617b5b8161a925565b92915050565b600081359050617b708161a93c565b92915050565b600081359050617b858161a953565b92915050565b600081359050617b9a8161a96a565b92915050565b600081359050617baf8161a981565b92915050565b600081359050617bc48161a998565b92915050565b600081359050617bd98161a9af565b92915050565b600081359050617bee8161a9c6565b92915050565b600060608284031215617c0657600080fd5b617c10606061a420565b90506000617c20848285016178ea565b6000830152506020617c3484828501617c54565b6020830152506040617c4884828501617cbd565b60408301525092915050565b600081359050617c638161a9dd565b92915050565b600081359050617c788161a9f4565b92915050565b600081519050617c8d8161a9f4565b92915050565b600081359050617ca28161aa0b565b92915050565b600081519050617cb78161aa0b565b92915050565b600081359050617ccc8161aa22565b92915050565b600060208284031215617ce457600080fd5b6000617cf2848285016178ea565b91505092915050565b600060208284031215617d0d57600080fd5b6000617d1b848285016178ff565b91505092915050565b60008060008060808587031215617d3a57600080fd5b6000617d48878288016178ea565b9450506020617d59878288016178ea565b9350506040617d6a87828801617c69565b9250506060617d7b878288016178ea565b91505092959194509250565b60008060408385031215617d9a57600080fd5b6000617da8858286016178ea565b9250506020617db985828601617af8565b9150509250929050565b60008060408385031215617dd657600080fd5b6000617de4858286016178ff565b9250506020617df585828601617c7e565b9150509250929050565b60008060008060808587031215617e1557600080fd5b6000617e23878288016178ea565b9450506020617e3487828801617c69565b9350506040617e45878288016178ea565b9250506060617e56878288016178ea565b91505092959194509250565b600060208284031215617e7457600080fd5b600082015167ffffffffffffffff811115617e8e57600080fd5b617e9a84828501617914565b91505092915050565b60008060208385031215617eb657600080fd5b600083013567ffffffffffffffff811115617ed057600080fd5b617edc85828601617997565b92509250509250929050565b60008060208385031215617efb57600080fd5b600083013567ffffffffffffffff811115617f1557600080fd5b617f2185828601617a64565b92509250509250929050565b600060208284031215617f3f57600080fd5b6000617f4d84828501617af8565b91505092915050565b600060208284031215617f6857600080fd5b6000617f7684828501617b0d565b91505092915050565b600060208284031215617f9157600080fd5b6000617f9f84828501617b22565b91505092915050565b600060208284031215617fba57600080fd5b6000617fc884828501617b37565b91505092915050565b600060208284031215617fe357600080fd5b6000617ff184828501617b61565b91505092915050565b6000806040838503121561800d57600080fd5b600061801b85828601617b61565b925050602061802c85828601617b61565b9150509250929050565b60006020828403121561804857600080fd5b600061805684828501617b76565b91505092915050565b60008060006040848603121561807457600080fd5b600061808286828701617b76565b935050602084013567ffffffffffffffff81111561809f57600080fd5b6180ab86828701617aae565b92509250509250925092565b600080604083850312156180ca57600080fd5b60006180d885828601617b76565b92505060206180e985828601617b76565b9150509250929050565b60006020828403121561810557600080fd5b600061811384828501617b8b565b91505092915050565b60006020828403121561812e57600080fd5b600061813c84828501617bb5565b91505092915050565b60006020828403121561815757600080fd5b600061816584828501617bdf565b91505092915050565b60006060828403121561818057600080fd5b600061818e84828501617bf4565b91505092915050565b600080608083850312156181aa57600080fd5b60006181b885828601617bf4565b92505060606181c985828601617cbd565b9150509250929050565b6000602082840312156181e557600080fd5b60006181f384828501617c69565b91505092915050565b60006020828403121561820e57600080fd5b600061821c84828501617c7e565b91505092915050565b600080600080600080600060e0888a03121561824057600080fd5b600061824e8a828b01617c69565b975050602061825f8a828b01617c69565b96505060406182708a828b01617ba0565b95505060606182818a828b01617bca565b94505060806182928a828b01617b61565b93505060a06182a38a828b01617bb5565b92505060c088013567ffffffffffffffff8111156182c057600080fd5b6182cc8a828b016179e1565b91505092959891949750929550565b600080600080600080600060e0888a0312156182f657600080fd5b60006183048a828b01617c69565b97505060206183158a828b01617c69565b96505060406183268a828b01617ba0565b95505060606183378a828b01617bca565b94505060806183488a828b01617b61565b93505060a06183598a828b01617bb5565b92505060c061836a8a828b01617c69565b91505092959891949750929550565b60006020828403121561838b57600080fd5b600061839984828501617c93565b91505092915050565b600080604083850312156183b557600080fd5b60006183c385828601617ca8565b92505060206183d485828601617ca8565b9150509250929050565b60006183ea838361843e565b60208301905092915050565b600061840283836186fe565b60208301905092915050565b600061841a8383619852565b60608301905092915050565b600061843283836198f4565b60208301905092915050565b6184478161a5d9565b82525050565b6184568161a5d9565b82525050565b60006184678261a4f2565b618471818561a580565b935061847c8361a49d565b8060005b838110156184ad57815161849488826183de565b975061849f8361a53f565b925050600181019050618480565b5085935050505092915050565b60006184c58261a4fd565b6184cf818561a580565b93506184da8361a4ad565b8060005b8381101561850b5781516184f288826183f6565b97506184fd8361a54c565b9250506001810190506184de565b5085935050505092915050565b60006185238261a508565b61852d818561a591565b93506185388361a4bd565b8060005b83811015618569578151618550888261840e565b975061855b8361a559565b92505060018101905061853c565b5085935050505092915050565b6000618582838561a5a2565b93507f07ffffffffffffffffffffffffffffffffffffffffffffffffffffffffffffff8311156185b157600080fd5b6020830292506185c283858461a832565b82840190509392505050565b60006185d98261a513565b6185e3818561a5a2565b93506185ee8361a4cd565b8060005b8381101561861f5781516186068882618426565b97506186118361a566565b9250506001810190506185f2565b5085935050505092915050565b60006186378261a51e565b618641818561a5a2565b935061864c8361a4dd565b8060005b83811015618684576186618261a898565b61866b8882618426565b97506186768361a573565b925050600181019050618650565b5085935050505092915050565b61869a8161a5eb565b82525050565b6186a98161a5f7565b82525050565b6186b88161a601565b82525050565b60006186c98261a529565b6186d3818561a5b3565b93506186e381856020860161a841565b80840191505092915050565b6186f88161a724565b82525050565b6187078161a748565b82525050565b6187168161a748565b82525050565b6187258161a76c565b82525050565b6187348161a790565b82525050565b6187438161a7b4565b82525050565b6187528161a7d8565b82525050565b6187618161a7fc565b82525050565b60006187728261a534565b61877c818561a5be565b935061878c81856020860161a841565b6187958161a8ab565b840191505092915050565b60006187ad60248361a5be565b91507f506572696f6469635072697a6553747261746567792f6572633732312d696e7660008301527f616c6964000000000000000000000000000000000000000000000000000000006020830152604082019050919050565b6000618813602c8361a5be565b91507f506572696f6469635072697a6553747261746567792f746f6b656e2d6c69737460008301527f656e65722d696e76616c696400000000000000000000000000000000000000006020830152604082019050919050565b6000618879600f8361a5be565b91507f496e76616c6964206164647265737300000000000000000000000000000000006000830152602082019050919050565b60006188b960138361a5be565b91507f496e76616c6964207072657641646472657373000000000000000000000000006000830152602082019050919050565b60006188f9602b8361a5be565b91507f506572696f6469635072697a6553747261746567792f7072697a652d7065726960008301527f6f642d6e6f742d6f7665720000000000000000000000000000000000000000006020830152604082019050919050565b600061895f60268361a5be565b91507f4f776e61626c653a206e6577206f776e657220697320746865207a65726f206160008301527f64647265737300000000000000000000000000000000000000000000000000006020830152604082019050919050565b60006189c5602c8361a5be565b91507f506572696f6469635072697a6553747261746567792f6f6e6c792d6f776e657260008301527f2d6f722d6c697374656e657200000000000000000000000000000000000000006020830152604082019050919050565b6000618a2b601b8361a5be565b91507f536166654d6174683a206164646974696f6e206f766572666c6f7700000000006000830152602082019050919050565b6000618a6b602a8361a5be565b91507f506572696f6469635072697a6553747261746567792f73706f6e736f7273686960008301527f702d6e6f742d7a65726f000000000000000000000000000000000000000000006020830152604082019050919050565b6000618ad160288361a5be565b91507f4d756c7469706c6557696e6e6572732f696e76616c69642d7072697a6573706c60008301527f69742d746f6b656e0000000000000000000000000000000000000000000000006020830152604082019050919050565b6000618b3760348361a5be565b91507f506572696f6469635072697a6553747261746567792f7072697a652d7065726960008301527f6f642d677265617465722d7468616e2d7a65726f0000000000000000000000006020830152604082019050919050565b6000618b9d60258361a5be565b91507f506572696f6469635072697a6553747261746567792f6f6e6c792d7072697a6560008301527f2d706f6f6c0000000000000000000000000000000000000000000000000000006020830152604082019050919050565b6000618c0360268361a5be565b91507f506572696f6469635072697a6553747261746567792f7472616e736665722d7460008301527f6f2d73656c6600000000000000000000000000000000000000000000000000006020830152604082019050919050565b6000618c69601e8361a5be565b91507f536166654d6174683a207375627472616374696f6e206f766572666c6f7700006000830152602082019050919050565b6000618ca960298361a5be565b91507f506572696f6469635072697a6553747261746567792f7072697a652d706f6f6c60008301527f2d6e6f742d7a65726f00000000000000000000000000000000000000000000006020830152604082019050919050565b6000618d0f60268361a5be565b91507f416464726573733a20696e73756666696369656e742062616c616e636520666f60008301527f722063616c6c00000000000000000000000000000000000000000000000000006020830152604082019050919050565b6000618d7560228361a5be565b91507f506572696f6469635072697a6553747261746567792f726e672d6e6f742d7a6560008301527f726f0000000000000000000000000000000000000000000000000000000000006020830152604082019050919050565b6000618ddb601a8361a5be565b91507f536166654d6174683a206469766973696f6e206279207a65726f0000000000006000830152602082019050919050565b6000618e1b60268361a5be565b91507f506572696f6469635072697a6553747261746567792f726e672d6e6f742d636f60008301527f6d706c65746500000000000000000000000000000000000000000000000000006020830152604082019050919050565b6000618e8160298361a5be565b91507f4d756c7469706c6557696e6e6572732f696e76616c69642d7072697a6573706c60008301527f69742d74617267657400000000000000000000000000000000000000000000006020830152604082019050919050565b6000618ee760238361a5be565b91507f506572696f6469635072697a6553747261746567792f65726332302d696e766160008301527f6c696400000000000000000000000000000000000000000000000000000000006020830152604082019050919050565b6000618f4d602e8361a5be565b91507f496e697469616c697a61626c653a20636f6e747261637420697320616c72656160008301527f647920696e697469616c697a65640000000000000000000000000000000000006020830152604082019050919050565b6000618fb360268361a5be565b91507f4d756c7469706c6557696e6e6572732f6e6f6e6578697374656e742d7072697a60008301527f6573706c697400000000000000000000000000000000000000000000000000006020830152604082019050919050565b600061901960208361a5be565b91507f506572696f6469635072697a6553747261746567792f65726332302d6e756c6c6000830152602082019050919050565b6000619059602b8361a5be565b91507f506572696f6469635072697a6553747261746567792f726e672d616c7265616460008301527f792d7265717565737465640000000000000000000000000000000000000000006020830152604082019050919050565b60006190bf601f8361a5be565b91507f4d756c7469706c6557696e6e6572732f77696e6e6572732d6774652d6f6e65006000830152602082019050919050565b60006190ff60218361a5be565b91507f536166654d6174683a206d756c7469706c69636174696f6e206f766572666c6f60008301527f77000000000000000000000000000000000000000000000000000000000000006020830152604082019050919050565b600061916560208361a5be565b91507f4f776e61626c653a2063616c6c6572206973206e6f7420746865206f776e65726000830152602082019050919050565b60006191a5600c8361a5be565b91507f416c726561647920696e697400000000000000000000000000000000000000006000830152602082019050919050565b60006191e560338361a5be565b91507f4d756c7469706c6557696e6e6572732f696e76616c69642d7072697a6573706c60008301527f69742d70657263656e746167652d746f74616c000000000000000000000000006020830152604082019050919050565b600061924b60318361a5be565b91507f506572696f6469635072697a6553747261746567792f6265666f72654177617260008301527f644c697374656e65722d696e76616c69640000000000000000000000000000006020830152604082019050919050565b60006192b1602b8361a5be565b91507f506572696f6469635072697a6553747261746567792f63616e6e6f742d61776160008301527f72642d65787465726e616c0000000000000000000000000000000000000000006020830152604082019050919050565b6000619317600d8361a5be565b91507f416c7265616479206164646564000000000000000000000000000000000000006000830152602082019050919050565b600061935760268361a5be565b91507f53616665436173743a2076616c756520646f65736e27742066697420696e203360008301527f32206269747300000000000000000000000000000000000000000000000000006020830152604082019050919050565b60006193bd601d8361a5be565b91507f416464726573733a2063616c6c20746f206e6f6e2d636f6e74726163740000006000830152602082019050919050565b60006193fd602f8361a5be565b91507f506572696f6469635072697a6553747261746567792f61776172642d696e766160008301527f6c69642d746f6b656e2d696e64657800000000000000000000000000000000006020830152604082019050919050565b600061946360258361a5be565b91507f506572696f6469635072697a6553747261746567792f7469636b65742d6e6f7460008301527f2d7a65726f0000000000000000000000000000000000000000000000000000006020830152604082019050919050565b60006194c9602a8361a5be565b91507f5361666545524332303a204552433230206f7065726174696f6e20646964206e60008301527f6f742073756363656564000000000000000000000000000000000000000000006020830152604082019050919050565b600061952f60338361a5be565b91507f506572696f6469635072697a6553747261746567792f7072697a65537472617460008301527f6567794c697374656e65722d696e76616c6964000000000000000000000000006020830152604082019050919050565b600061959560368361a5be565b91507f5361666545524332303a20617070726f76652066726f6d206e6f6e2d7a65726f60008301527f20746f206e6f6e2d7a65726f20616c6c6f77616e6365000000000000000000006020830152604082019050919050565b60006195fb60268361a5be565b91507f506572696f6469635072697a6553747261746567792f6572633732312d64757060008301527f6c696361746500000000000000000000000000000000000000000000000000006020830152604082019050919050565b600061966160238361a5be565b91507f506572696f6469635072697a6553747261746567792f726e672d696e2d666c6960008301527f67687400000000000000000000000000000000000000000000000000000000006020830152604082019050919050565b60006196c760268361a5be565b91507f506572696f6469635072697a6553747261746567792f726e672d6e6f742d746960008301527f6d65646f757400000000000000000000000000000000000000000000000000006020830152604082019050919050565b600061972d602c8361a5be565b91507f506572696f6469635072697a6553747261746567792f726e672d74696d656f7560008301527f742d67742d36302d7365637300000000000000000000000000000000000000006020830152604082019050919050565b600061979360278361a5be565b91507f506572696f6469635072697a6553747261746567792f726e672d6e6f742d726560008301527f71756573746564000000000000000000000000000000000000000000000000006020830152604082019050919050565b60006197f960278361a5be565b91507f506572696f6469635072697a6553747261746567792f756e617661696c61626c60008301527f652d746f6b656e000000000000000000000000000000000000000000000000006020830152604082019050919050565b606082016000820151619868600085018261843e565b50602082015161987b60208501826198d6565b50604082015161988e6040850182619947565b50505050565b6060820160008201516198aa600085018261843e565b5060208201516198bd60208501826198d6565b5060408201516198d06040850182619947565b50505050565b6198df8161a6cf565b82525050565b6198ee8161a6cf565b82525050565b6198fd8161a6fd565b82525050565b61990c8161a6fd565b82525050565b61992361991e8261a6fd565b61a88e565b82525050565b6199328161a707565b82525050565b6199418161a820565b82525050565b6199508161a717565b82525050565b61995f8161a717565b82525050565b600061997182846186be565b915081905092915050565b60006199888284619912565b60208201915081905092915050565b60006020820190506199ac600083018461844d565b92915050565b60006040820190506199c7600083018561844d565b6199d4602083018461844d565b9392505050565b60006060820190506199f0600083018661844d565b6199fd602083018561844d565b8181036040830152619a0f818461862c565b9050949350505050565b6000606082019050619a2e600083018661844d565b619a3b602083018561844d565b619a486040830184619903565b949350505050565b6000608082019050619a65600083018761844d565b619a72602083018661844d565b619a7f6040830185619903565b619a8c606083018461844d565b95945050505050565b6000606082019050619aaa600083018661844d565b619ab760208301856186a0565b619ac4604083018461844d565b949350505050565b6000604082019050619ae1600083018561844d565b619aee6020830184619903565b9392505050565b6000606082019050619b0a600083018661844d565b619b176020830185619903565b619b24604083018461844d565b949350505050565b6000608082019050619b41600083018761844d565b619b4e6020830186619903565b619b5b604083018561844d565b619b68606083018461844d565b95945050505050565b60006020820190508181036000830152619b8b818461845c565b905092915050565b60006020820190508181036000830152619bad8184618518565b905092915050565b60006020820190508181036000830152619bd0818486618576565b90509392505050565b60006020820190508181036000830152619bf381846185ce565b905092915050565b6000602082019050619c106000830184618691565b92915050565b6000602082019050619c2b60008301846186af565b92915050565b6000602082019050619c4660008301846186ef565b92915050565b6000602082019050619c61600083018461870d565b92915050565b6000602082019050619c7c600083018461871c565b92915050565b6000602082019050619c97600083018461872b565b92915050565b6000602082019050619cb2600083018461873a565b92915050565b6000602082019050619ccd6000830184618749565b92915050565b6000602082019050619ce86000830184618758565b92915050565b60006020820190508181036000830152619d088184618767565b905092915050565b60006020820190508181036000830152619d29816187a0565b9050919050565b60006020820190508181036000830152619d4981618806565b9050919050565b60006020820190508181036000830152619d698161886c565b9050919050565b60006020820190508181036000830152619d89816188ac565b9050919050565b60006020820190508181036000830152619da9816188ec565b9050919050565b60006020820190508181036000830152619dc981618952565b9050919050565b60006020820190508181036000830152619de9816189b8565b9050919050565b60006020820190508181036000830152619e0981618a1e565b9050919050565b60006020820190508181036000830152619e2981618a5e565b9050919050565b60006020820190508181036000830152619e4981618ac4565b9050919050565b60006020820190508181036000830152619e6981618b2a565b9050919050565b60006020820190508181036000830152619e8981618b90565b9050919050565b60006020820190508181036000830152619ea981618bf6565b9050919050565b60006020820190508181036000830152619ec981618c5c565b9050919050565b60006020820190508181036000830152619ee981618c9c565b9050919050565b60006020820190508181036000830152619f0981618d02565b9050919050565b60006020820190508181036000830152619f2981618d68565b9050919050565b60006020820190508181036000830152619f4981618dce565b9050919050565b60006020820190508181036000830152619f6981618e0e565b9050919050565b60006020820190508181036000830152619f8981618e74565b9050919050565b60006020820190508181036000830152619fa981618eda565b9050919050565b60006020820190508181036000830152619fc981618f40565b9050919050565b60006020820190508181036000830152619fe981618fa6565b9050919050565b6000602082019050818103600083015261a0098161900c565b9050919050565b6000602082019050818103600083015261a0298161904c565b9050919050565b6000602082019050818103600083015261a049816190b2565b9050919050565b6000602082019050818103600083015261a069816190f2565b9050919050565b6000602082019050818103600083015261a08981619158565b9050919050565b6000602082019050818103600083015261a0a981619198565b9050919050565b6000602082019050818103600083015261a0c9816191d8565b9050919050565b6000602082019050818103600083015261a0e98161923e565b9050919050565b6000602082019050818103600083015261a109816192a4565b9050919050565b6000602082019050818103600083015261a1298161930a565b9050919050565b6000602082019050818103600083015261a1498161934a565b9050919050565b6000602082019050818103600083015261a169816193b0565b9050919050565b6000602082019050818103600083015261a189816193f0565b9050919050565b6000602082019050818103600083015261a1a981619456565b9050919050565b6000602082019050818103600083015261a1c9816194bc565b9050919050565b6000602082019050818103600083015261a1e981619522565b9050919050565b6000602082019050818103600083015261a20981619588565b9050919050565b6000602082019050818103600083015261a229816195ee565b9050919050565b6000602082019050818103600083015261a24981619654565b9050919050565b6000602082019050818103600083015261a269816196ba565b9050919050565b6000602082019050818103600083015261a28981619720565b9050919050565b6000602082019050818103600083015261a2a981619786565b9050919050565b6000602082019050818103600083015261a2c9816197ec565b9050919050565b600060608201905061a2e56000830184619894565b92915050565b600060608201905061a30060008301866198e5565b61a30d6020830185619956565b61a31a6040830184619903565b949350505050565b600060608201905061a33760008301866198e5565b61a3446020830185619956565b61a3516040830184619938565b949350505050565b600060208201905061a36e6000830184619903565b92915050565b600060408201905061a3896000830185619903565b61a3966020830184619903565b9392505050565b600060c08201905061a3b26000830189619903565b61a3bf6020830188619903565b61a3cc6040830187618749565b61a3d9606083018661870d565b61a3e6608083018561873a565b81810360a083015261a3f881846184ba565b9050979650505050505050565b600060208201905061a41a6000830184619929565b92915050565b6000604051905081810181811067ffffffffffffffff8211171561a44357600080fd5b8060405250919050565b600067ffffffffffffffff82111561a46457600080fd5b602082029050602081019050919050565b600067ffffffffffffffff82111561a48c57600080fd5b602082029050602081019050919050565b6000819050602082019050919050565b6000819050602082019050919050565b6000819050602082019050919050565b6000819050602082019050919050565b60008190508160005260206000209050919050565b600081519050919050565b600081519050919050565b600081519050919050565b600081519050919050565b600081549050919050565b600081519050919050565b600081519050919050565b6000602082019050919050565b6000602082019050919050565b6000602082019050919050565b6000602082019050919050565b6000600182019050919050565b600082825260208201905092915050565b600082825260208201905092915050565b600082825260208201905092915050565b600081905092915050565b600082825260208201905092915050565b6000819050919050565b600061a5e48261a6dd565b9050919050565b60008115159050919050565b6000819050919050565b60007fffffffff0000000000000000000000000000000000000000000000000000000082169050919050565b600061a6388261a5d9565b9050919050565b600061a64a8261a5d9565b9050919050565b600061a65c8261a5d9565b9050919050565b600061a66e8261a5d9565b9050919050565b600061a6808261a5d9565b9050919050565b600061a6928261a5d9565b9050919050565b600061a6a48261a5d9565b9050919050565b600061a6b68261a5d9565b9050919050565b600061a6c88261a5d9565b9050919050565b600061ffff82169050919050565b600073ffffffffffffffffffffffffffffffffffffffff82169050919050565b6000819050919050565b600063ffffffff82169050919050565b600060ff82169050919050565b600061a72f8261a736565b9050919050565b600061a7418261a6dd565b9050919050565b600061a7538261a75a565b9050919050565b600061a7658261a6dd565b9050919050565b600061a7778261a77e565b9050919050565b600061a7898261a6dd565b9050919050565b600061a79b8261a7a2565b9050919050565b600061a7ad8261a6dd565b9050919050565b600061a7bf8261a7c6565b9050919050565b600061a7d18261a6dd565b9050919050565b600061a7e38261a7ea565b9050919050565b600061a7f58261a6dd565b9050919050565b600061a8078261a80e565b9050919050565b600061a8198261a6dd565b9050919050565b600061a82b8261a717565b9050919050565b82818337600083830152505050565b60005b8381101561a85f57808201518184015260208101905061a844565b8381111561a86e576000848401525b50505050565b600061a88761a8828361a8bc565b61a5cf565b9050919050565b6000819050919050565b600061a8a4825461a874565b9050919050565b6000601f19601f8301169050919050565b60008160001c9050919050565b61a8d28161a5d9565b811461a8dd57600080fd5b50565b61a8e98161a5eb565b811461a8f457600080fd5b50565b61a9008161a601565b811461a90b57600080fd5b50565b61a9178161a62d565b811461a92257600080fd5b50565b61a92e8161a63f565b811461a93957600080fd5b50565b61a9458161a651565b811461a95057600080fd5b50565b61a95c8161a663565b811461a96757600080fd5b50565b61a9738161a675565b811461a97e57600080fd5b50565b61a98a8161a687565b811461a99557600080fd5b50565b61a9a18161a699565b811461a9ac57600080fd5b50565b61a9b88161a6ab565b811461a9c357600080fd5b50565b61a9cf8161a6bd565b811461a9da57600080fd5b50565b61a9e68161a6cf565b811461a9f157600080fd5b50565b61a9fd8161a6fd565b811461aa0857600080fd5b50565b61aa148161a707565b811461aa1f57600080fd5b50565b61aa2b8161a717565b811461aa3657600080fd5b5056fea2646970667358221220925f3069a36345849a084bcd310bf21ee4637734c55ef38bc73ca21ca38ecc5064736f6c634300060c0033",
  "linkReferences": {},
  "deployedLinkReferences": {}
}