{
  "_format": "hh-sol-artifact-1",
  "contractName": "MultipleWinnersProxyFactory",
  "sourceName": "contracts/prize-strategy/multiple-winners/MultipleWinnersProxyFactory.sol",
  "abi": [
    {
      "inputs": [],
      "stateMutability": "nonpayable",
      "type": "constructor"
    },
    {
      "anonymous": false,
      "inputs": [
        {
          "indexed": false,
          "internalType": "address",
          "name": "proxy",
          "type": "address"
        }
      ],
      "name": "ProxyCreated",
      "type": "event"
    },
    {
      "inputs": [],
      "name": "create",
      "outputs": [
        {
          "internalType": "contract MultipleWinners",
          "name": "",
          "type": "address"
        }
      ],
      "stateMutability": "nonpayable",
      "type": "function"
    },
    {
      "inputs": [
        {
          "internalType": "address",
          "name": "_logic",
          "type": "address"
        },
        {
          "internalType": "bytes",
          "name": "_data",
          "type": "bytes"
        }
      ],
      "name": "deployMinimal",
      "outputs": [
        {
          "internalType": "address",
          "name": "proxy",
          "type": "address"
        }
      ],
      "stateMutability": "nonpayable",
      "type": "function"
    },
    {
      "inputs": [],
      "name": "instance",
      "outputs": [
        {
          "internalType": "contract MultipleWinners",
          "name": "",
          "type": "address"
        }
      ],
      "stateMutability": "view",
      "type": "function"
    }
  ],
  "bytecode": "0x608060405234801561001057600080fd5b5060405161001d9061005f565b604051809103906000f080158015610039573d6000803e3d6000fd5b50600080546001600160a01b0319166001600160a01b039290921691909117905561006c565b614b1f806103b283390190565b6103378061007b6000396000f3fe608060405234801561001057600080fd5b50600436106100415760003560e01c8063022ec09514610046578063b3eeb5e21461006a578063efc81a8c14610120575b600080fd5b61004e610128565b604080516001600160a01b039092168252519081900360200190f35b61004e6004803603604081101561008057600080fd5b6001600160a01b0382351691908101906040810160208201356401000000008111156100ab57600080fd5b8201836020820111156100bd57600080fd5b803590602001918460018302840111640100000000831117156100df57600080fd5b91908080601f016020809104026020016040519081016040528093929190818152602001838380828437600092019190915250929550610137945050505050565b61004e6102b3565b6000546001600160a01b031681565b6000808360601b9050604051733d602d80600a3d3981f3363d3d373d3d3d363d7360601b81528160148201526e5af43d82803e903d91602b57fd5bf360881b60288201526037816000f0604080516001600160a01b038316815290519194507efffc2da0b561cae30d9826d37709e9421c4725faebc226cbbb7ef5fc5e7349925081900360200190a18251156102ac576000826001600160a01b0316846040518082805190602001908083835b602083106102035780518252601f1990920191602091820191016101e4565b6001836020036101000a0380198251168184511680821785525050505050509050019150506000604051808303816000865af19150503d8060008114610265576040519150601f19603f3d011682016040523d82523d6000602084013e61026a565b606091505b50509050806102aa5760405162461bcd60e51b81526004018080602001828103825260248152602001806102de6024913960400191505060405180910390fd5b505b5092915050565b6000805460408051602081019091528281526102d8916001600160a01b031690610137565b90509056fe50726f7879466163746f72792f636f6e7374727563746f722d63616c6c2d6661696c6564a2646970667358221220ca5a6cacec772c548b9c5f8324daa698094e9d4c9e5967b4b0bd675e00736c9764736f6c634300060c0033608060405234801561001057600080fd5b50614aff806100206000396000f3fe608060405234801561001057600080fd5b506004361061030c5760003560e01c806372f33ea91161019d578063b0244682116100e9578063d5ad6bf6116100a2578063f2fde38b1161007c578063f2fde38b146105f7578063f48af3521461060a578063fbf0953e1461061d578063ffa1ad74146106305761030c565b8063d5ad6bf6146105c7578063dfb2f13b146105cf578063eefc8ad1146105d75761030c565b8063b02446821461056b578063b22109571461057e578063c25a9c3214610591578063c2f19ee8146105a4578063c42b42a0146105ac578063c48ddbcb146105b45761030c565b80638da5cb5b116101565780639417783f116101305780639417783f1461053057806395e5f9ee146104c25780639dafafb014610550578063a4e075ca146105585761030c565b80638da5cb5b1461050d5780638e204c431461051557806394144c6b146105285761030c565b806372f33ea9146104ba578063876f5c7e146104c2578063884a4448146104ca5780638aa3ec6f146104dd5780638acfaca9146104f05780638d5f10c4146104f85761030c565b80634e5d08e01161025c578063671137c4116102155780636dfb0386116101ef5780636dfb03861461048f5780636f46f221146104a2578063715018a6146104aa578063719ce73e146104b25761030c565b8063671137c41461046c5780636be51c4f1461047f5780636cc25db7146104875761030c565b80634e5d08e014610410578063500db70d1461042357806352a301091461042b578063605e25ac1461043e57806362c77a611461045157806366968221146104595761030c565b8063152d308c116102c957806338a9b4b6116102a357806338a9b4b6146103c257806342d09209146103d557806347bed998146103ea5780634d7f3db0146103fd5761030c565b8063152d308c146103945780632c8fe73d146103a757806330fcdf41146103af5761030c565b806301b48e341461031157806301ffc9a71461033a578063035d09f81461035a5780630c9490431461036f5780630d847fc4146103775780630faf125f1461038c575b600080fd5b61032461031f366004613ca8565b610645565b6040516103319190613e68565b60405180910390f35b61034d610348366004613bb1565b61065e565b604051610331919061408a565b61036d610368366004613dbd565b610694565b005b610324610740565b61037f61075f565b6040516103319190613e71565b61032461076e565b61034d6103a23660046139ad565b610774565b61032461081a565b61036d6103bd366004613923565b61082a565b61036d6103d0366004613b79565b6108fa565b6103dd610988565b6040516103319190613f89565b6103246103f8366004613ca8565b610994565b61036d61040b3660046139e5565b61099f565b61036d61041e366004613923565b610a59565b61037f610aee565b61034d610439366004613ca8565b610afd565b61036d61044c366004613923565b610b83565b6103dd610c5c565b61036d610467366004613ac9565b610c68565b61036d61047a366004613bd9565b610d32565b61037f610d8a565b61037f610d99565b61036d61049d366004613ca8565b610da8565b61034d610df0565b61036d610df9565b61037f610e82565b610324610e91565b61034d610e97565b61036d6104d8366004613ca8565b610ea1565b61036d6104eb366004613923565b610ee9565b610324610fb9565b610500610fbf565b6040516103319190613fd6565b61037f611044565b61034d610523366004613923565b611053565b610324611068565b61054361053e366004613923565b61106e565b6040516103319190614052565b61034d6110da565b61034d610566366004613b79565b6110e3565b61036d610579366004613bd9565b611162565b61036d61058c36600461395b565b6111e5565b61036d61059f366004613b09565b611298565b61037f611627565b610324611636565b61036d6105c2366004613c06565b6116b3565b6103246118a0565b61036d6118aa565b6105ea6105e5366004613ca8565b611a4e565b6040516103319190614966565b61036d610605366004613923565b611ab3565b61036d610618366004613cd8565b611b74565b61036d61062b366004613c74565b611d94565b610638611f33565b60405161033191906140aa565b6000610658610652611f54565b83611f91565b92915050565b60006001600160e01b031982166301ffc9a760e01b14806106585750506001600160e01b031916600162a1cb1960e01b03191490565b600054610100900460ff16806106ad57506106ad611fba565b806106bb575060005460ff16155b6106e05760405162461bcd60e51b81526004016106d790614540565b60405180910390fd5b600054610100900460ff1615801561070b576000805460ff1961ff0019909116610100171660011790555b606061071b888888888886611b74565b61072483611fcb565b508015610737576000805461ff00191690555b50505050505050565b60008060405160208160208460ff600019fa61075857fe5b5192915050565b6070546001600160a01b031681565b60775481565b600061077e612020565b6001600160a01b031661078f611044565b6001600160a01b0316146107b55760405162461bcd60e51b81526004016106d790614681565b6001600160a01b03831660008181526075602052604090819020805460ff1916851515179055517fd1ac9a365c0e3bfad562e0a809a5ded3842a2b489f839b3327e4e34ee0128f289061080990859061408a565b60405180910390a250600192915050565b6000610824612024565b90505b90565b610832612020565b6001600160a01b0316610843611044565b6001600160a01b0316146108695760405162461bcd60e51b81526004016106d790614681565b6001600160a01b038116158061089457506108946001600160a01b03821663266fce1f60e11b61203d565b6108b05760405162461bcd60e51b81526004016106d79061472f565b607080546001600160a01b0319166001600160a01b0383169081179091556040517fc4feff61630891ea2cb42a54fbe3ff2e65422f2ed17323ac6b65f4521112e87e90600090a250565b610902612020565b6001600160a01b0316610913611044565b6001600160a01b0316146109395760405162461bcd60e51b81526004016106d790614681565b6074805460ff191682151517908190556040517f6959d02e8fb6264d1d39bf37f1e725001f342714933cf38f8627a2442efc43fd9161097d9160ff9091169061408a565b60405180910390a150565b6060610824606d612060565b600061065882612140565b6066546001600160a01b03166109b3612020565b6001600160a01b0316146109d95760405162461bcd60e51b81526004016106d790614372565b6065546001600160a01b031615610a53576065546040516304d7f3db60e41b81526001600160a01b0390911690634d7f3db090610a20908790879087908790600401613f5e565b600060405180830381600087803b158015610a3a57600080fd5b505af1158015610a4e573d6000803e3d6000fd5b505050505b50505050565b610a61611044565b6001600160a01b0316610a72612020565b6001600160a01b03161480610aa157506071546001600160a01b0316610a96612020565b6001600160a01b0316145b80610ac657506070546001600160a01b0316610abb612020565b6001600160a01b0316145b610ae25760405162461bcd60e51b81526004016106d790614209565b610aeb81612187565b50565b6068546001600160a01b031681565b6000610b07612020565b6001600160a01b0316610b18611044565b6001600160a01b031614610b3e5760405162461bcd60e51b81526004016106d790614681565b60778290556040517f63e4e34f49d12428c03e04e61340c7167e36eb0ff6f0b1970c7544026179403990610b73908490613e68565b60405180910390a1506001919050565b610b8b612020565b6001600160a01b0316610b9c611044565b6001600160a01b031614610bc25760405162461bcd60e51b81526004016106d790614681565b6001600160a01b0381161580610bf05750610bf06001600160a01b038216600162a1cb1960e01b031961203d565b610c0c5760405162461bcd60e51b81526004016106d790614121565b606580546001600160a01b0319166001600160a01b0383811691909117918290556040519116907f9fc437aa70ad4ee5f33f6772bf338eed41e21b95435820817ab8b4df161ce4dd90600090a250565b6060610824606b612060565b610c70611044565b6001600160a01b0316610c81612020565b6001600160a01b03161480610cb057506071546001600160a01b0316610ca5612020565b6001600160a01b0316145b80610cd557506070546001600160a01b0316610cca612020565b6001600160a01b0316145b610cf15760405162461bcd60e51b81526004016106d790614209565b60005b81811015610d2d57610d25838383818110610d0b57fe5b9050602002016020810190610d209190613923565b612187565b600101610cf4565b505050565b610d3a612020565b6001600160a01b0316610d4b611044565b6001600160a01b031614610d715760405162461bcd60e51b81526004016106d790614681565b610d7d606d828461233b565b610d8682612405565b5050565b6065546001600160a01b031681565b6067546001600160a01b031681565b610db0612020565b6001600160a01b0316610dc1611044565b6001600160a01b031614610de75760405162461bcd60e51b81526004016106d790614681565b610aeb81611fcb565b60765460ff1681565b610e01612020565b6001600160a01b0316610e12611044565b6001600160a01b031614610e385760405162461bcd60e51b81526004016106d790614681565b6033546040516000916001600160a01b0316907f8be0079c531659141344cd1fd0a4f28419497f9722a3daafe3b4186f6b6457e0908390a3603380546001600160a01b0319169055565b6066546001600160a01b031681565b606a5481565b600061082461245d565b610ea9612020565b6001600160a01b0316610eba611044565b6001600160a01b031614610ee05760405162461bcd60e51b81526004016106d790614681565b610aeb81612476565b610ef1612020565b6001600160a01b0316610f02611044565b6001600160a01b031614610f285760405162461bcd60e51b81526004016106d790614681565b6001600160a01b0381161580610f535750610f536001600160a01b038216632ba8396360e11b61203d565b610f6f5760405162461bcd60e51b81526004016106d790614886565b607180546001600160a01b0319166001600160a01b0383169081179091556040517fda05d50a3a1ec0ffab059f1d457ae59f68ccfb3ffbb4dad283c516f9103d584b90600090a250565b60735490565b60606072805480602002602001604051908101604052809291908181526020016000905b8282101561103b57600084815260209081902060408051606081018252918501546001600160a01b0381168352600160a01b810461ffff1683850152600160b01b900460ff1690820152825260019092019101610fe3565b50505050905090565b6033546001600160a01b031690565b60756020526000908152604090205460ff1681565b60695481565b6001600160a01b0381166000908152606f60209081526040918290208054835181840281018401909452808452606093928301828280156110ce57602002820191906000526020600020905b8154815260200190600101908083116110ba575b50505050509050919050565b60745460ff1681565b60006110ed612020565b6001600160a01b03166110fe611044565b6001600160a01b0316146111245760405162461bcd60e51b81526004016106d790614681565b6076805460ff19168315151790556040517f2b4b6ffe286f7ce4ccc6b136bb14987b0a00092174d88938a0c667a104a4a73190610b7390849061408a565b61116a612020565b6001600160a01b031661117b611044565b6001600160a01b0316146111a15760405162461bcd60e51b81526004016106d790614681565b6111ad606b828461233b565b6040516001600160a01b038316907f58982464497acdab11ad29d39907e076b0d3b8daf1d9b734174c7c3a2a0e8c7490600090a25050565b6066546001600160a01b03166111f9612020565b6001600160a01b03161461121f5760405162461bcd60e51b81526004016106d790614372565b826001600160a01b0316846001600160a01b031614156112515760405162461bcd60e51b81526004016106d7906143b7565b6065546001600160a01b031615610a535760655460405163b221095760e01b81526001600160a01b039091169063b221095790610a20908790879087908790600401613f10565b6112a0612020565b6001600160a01b03166112b1611044565b6001600160a01b0316146112d75760405162461bcd60e51b81526004016106d790614681565b8060005b8181101561157c576112eb613817565b8484838181106112f757fe5b90506060020180360381019061130d9190613c59565b90506001816040015160ff1611156113375760405162461bcd60e51b81526004016106d7906142d6565b80516001600160a01b031661135e5760405162461bcd60e51b81526004016106d7906144b4565b60725482106113fa576072805460018101825560009190915281517fdffbd64cc7c1a7eb27984335d9416d51137a03d3fabec7141025c62663253fe190910180546020840151604085015160ff16600160b01b0260ff60b01b1961ffff909216600160a01b0261ffff60a01b196001600160a01b039096166001600160a01b031990941693909317949094169190911716919091179055611521565b611402613817565b6072838154811061140f57fe5b60009182526020918290206040805160608101825292909101546001600160a01b03808216808552600160a01b830461ffff1695850195909552600160b01b90910460ff169183019190915284519193501614158061147e5750806020015161ffff16826020015161ffff1614155b806114975750806040015160ff16826040015160ff1614155b156115185781607284815481106114aa57fe5b6000918252602091829020835191018054928401516040909401516001600160a01b03199093166001600160a01b039092169190911761ffff60a01b1916600160a01b61ffff909416939093029290921760ff60b01b1916600160b01b60ff9092169190910217905561151f565b5050611574565b505b80600001516001600160a01b03167fc1bf93444a0055a24a7d0154b75fedf78edfe355c06a2ce8e47f9f3908720559826020015183604001518560405161156a93929190614974565b60405180910390a2505b6001016112db565b505b6072548110156115f9576072546000906115999060016124cb565b905060728054806115a657fe5b600082815260208120820160001990810180546001600160b81b031916905590910190915560405182917f99fa473fdf53414bcd014cf6e7509fc58c68f7b86174767faa6ad5100cd5bae591a25061157e565b60006116036124f3565b90506103e8811115610a535760405162461bcd60e51b81526004016106d7906146dc565b6071546001600160a01b031681565b606654604080516318c1996d60e21b815290516000926001600160a01b03169163630665b4916004808301926020929190829003018186803b15801561167b57600080fd5b505afa15801561168f573d6000803e3d6000fd5b505050506040513d601f19601f820116820180604052508101906108249190613cc0565b6116bb611044565b6001600160a01b03166116cc612020565b6001600160a01b031614806116fb57506071546001600160a01b03166116f0612020565b6001600160a01b0316145b8061172057506070546001600160a01b0316611715612020565b6001600160a01b0316145b61173c5760405162461bcd60e51b81526004016106d790614209565b606654604051636a3fd4f960e01b81526001600160a01b0390911690636a3fd4f99061176c908690600401613e71565b60206040518083038186803b15801561178457600080fd5b505afa158015611798573d6000803e3d6000fd5b505050506040513d601f19601f820116820180604052508101906117bc9190613b95565b6117d85760405162461bcd60e51b81526004016106d790614780565b6117f26001600160a01b0384166380ac58cd60e01b61203d565b61180e5760405162461bcd60e51b81526004016106d7906140dd565b611819606d84612585565b61182857611828606d846125d6565b60005b818110156118575761184f8484848481811061184357fe5b9050602002013561269e565b60010161182b565b50826001600160a01b03167f51541dc4b4c08a16085809cccdc4cc77d8000b60fbb00142e57f236d842986758383604051611893929190614018565b60405180910390a2505050565b6000610824611f54565b60006118b4610740565b6070549091506001600160a01b03161561192f57607054606a5460405163266fce1f60e11b81526001600160a01b0390921691634cdf9c3e916118fc918591906004016149b2565b600060405180830381600087803b15801561191657600080fd5b505af115801561192a573d6000803e3d6000fd5b505050505b611938816127ef565b6071546001600160a01b0316156119b057607154606a54604051632ba8396360e11b81526001600160a01b039092169163575072c69161197d918591906004016149b2565b600060405180830381600087803b15801561199757600080fd5b505af11580156119ab573d6000803e3d6000fd5b505050505b6119c06119bb612d7c565b612140565b606a556119cb612020565b6001600160a01b03167f9c4163ece98173eab9a496c4db8bf3e2c8edcc5d2854377880597ccb858b7a9d82604051611a039190613e68565b60405180910390a2606a54611a16612020565b6001600160a01b03167fc61852c20f0b03b31d782f3022f2bf20322ac17ce66c5349fb6e24740cdd645660405160405180910390a350565b611a56613817565b60728281548110611a6357fe5b60009182526020918290206040805160608101825292909101546001600160a01b0381168352600160a01b810461ffff1693830193909352600160b01b90920460ff169181019190915292915050565b611abb612020565b6001600160a01b0316611acc611044565b6001600160a01b031614611af25760405162461bcd60e51b81526004016106d790614681565b6001600160a01b038116611b185760405162461bcd60e51b81526004016106d7906141c3565b6033546040516001600160a01b038084169216907f8be0079c531659141344cd1fd0a4f28419497f9722a3daafe3b4186f6b6457e090600090a3603380546001600160a01b0319166001600160a01b0392909216919091179055565b600054610100900460ff1680611b8d5750611b8d611fba565b80611b9b575060005460ff16155b611bb75760405162461bcd60e51b81526004016106d790614540565b600054610100900460ff16158015611be2576000805460ff1961ff0019909116610100171660011790555b6001600160a01b038516611c085760405162461bcd60e51b81526004016106d790614434565b6001600160a01b038416611c2e5760405162461bcd60e51b81526004016106d790614841565b6001600160a01b038316611c545760405162461bcd60e51b81526004016106d79061428c565b606680546001600160a01b038088166001600160a01b031992831617909255606780548784169083161790556068805492861692909116919091179055611c9a86612476565b611ca2612d80565b611cac606b612e12565b60005b8251811015611cdc57611cd4838281518110611cc757fe5b6020026020010151612187565b600101611caf565b506069869055606a879055611cf1606d612e12565b846001600160a01b03167f08df3eb19fd45e75c3427461686799fdfd60a8c9a1d0880105960f65a513ce748888878787604051611d329594939291906149c0565b60405180910390a2606a54611d45612020565b6001600160a01b03167fc61852c20f0b03b31d782f3022f2bf20322ac17ce66c5349fb6e24740cdd645660405160405180910390a38015610737576000805461ff001916905550505050505050565b611d9c612020565b6001600160a01b0316611dad611044565b6001600160a01b031614611dd35760405162461bcd60e51b81526004016106d790614681565b60725460ff821610611df75760405162461bcd60e51b81526004016106d79061458e565b6001826040015160ff161115611e1f5760405162461bcd60e51b81526004016106d7906142d6565b81516001600160a01b0316611e465760405162461bcd60e51b81526004016106d7906144b4565b8160728260ff1681548110611e5757fe5b600091825260208083208451920180549185015160409095015160ff16600160b01b0260ff60b01b1961ffff909616600160a01b0261ffff60a01b196001600160a01b039095166001600160a01b03199094169390931793909316919091179390931617909155611ec66124f3565b90506103e8811115611eea5760405162461bcd60e51b81526004016106d7906146dc565b82600001516001600160a01b03167fc1bf93444a0055a24a7d0154b75fedf78edfe355c06a2ce8e47f9f3908720559846020015185604001518560405161189393929190614993565b60405180604001604052806005815260200164332e342e3160d81b81525081565b600080611f5f612024565b90506000611f6b612d7c565b905081811115611f8057600092505050610827565b611f8a82826124cb565b9250505090565b600080611fa6670de0b6b3a764000085612e56565b9050611fb28184612e90565b949350505050565b6000611fc530612ed2565b15905090565b60008111611feb5760405162461bcd60e51b81526004016106d790614609565b60738190556040517fc44c7222e8df09744ced394101df47e78dedb642d3065267bb388901de9df6d49061097d908390613e68565b3390565b6000610824606954606a54612ed890919063ffffffff16565b600061204883612efd565b801561205957506120598383612f30565b9392505050565b606080826000015467ffffffffffffffff8111801561207e57600080fd5b506040519080825280602002602001820160405280156120a8578160200160208202803683370190505b50600160008181529085016020526040812054919250906001600160a01b03165b6001600160a01b038116158015906120eb57506001600160a01b038116600114155b1561213757808383815181106120fd57fe5b6001600160a01b039283166020918202929092018101919091529181166000908152600180880190935260409020549290910191166120c9565b50909392505050565b60008061216460695461215e606a54866124cb90919063ffffffff16565b90612f56565b905061205961217e60695483612e5690919063ffffffff16565b606a5490612ed8565b612199816001600160a01b0316612ed2565b6121b55760405162461bcd60e51b81526004016106d7906145d4565b606654604051636a3fd4f960e01b81526001600160a01b0390911690636a3fd4f9906121e5908490600401613e71565b60206040518083038186803b1580156121fd57600080fd5b505afa158015612211573d6000803e3d6000fd5b505050506040513d601f19601f820116820180604052508101906122359190613b95565b6122515760405162461bcd60e51b81526004016106d790614780565b60408051600481526024810182526020810180516001600160e01b03166318160ddd60e01b17905290516000916060916001600160a01b0385169161229591613e4c565b600060405180830381855afa9150503d80600081146122d0576040519150601f19603f3d011682016040523d82523d6000602084013e6122d5565b606091505b5091509150816122f75760405162461bcd60e51b81526004016106d7906144fd565b612302606b846125d6565b6040516001600160a01b038416907fbcd6d991f3416e288bf59a2997b423772937b62c7ea7dd1a54af7771de1f741890600090a2505050565b6001600160a01b03811660011480159061235d57506001600160a01b03811615155b6123795760405162461bcd60e51b81526004016106d79061416d565b6001600160a01b0382811660009081526001850160205260409020548116908216146123b75760405162461bcd60e51b81526004016106d790614196565b6001600160a01b039081166000818152600185016020526040808220805495851683529082208054959094166001600160a01b03199586161790935552805490911690558054600019019055565b6001600160a01b0381166000908152606f6020526040812061242691613837565b6040516001600160a01b038216907fcd64d9dacd230c5ccf1278ea5332b0621aa28c950fb0e61c8fbc9e2011c88a3490600090a250565b6000612467612024565b61246f612d7c565b1015905090565b600081116124965760405162461bcd60e51b81526004016106d79061431e565b60698190556040517f0d379c1a7282461e725a9dc2d74e65246c77e98ae93835e26c2f1654c48ee4ec9061097d908390613e68565b6000828211156124ed5760405162461bcd60e51b81526004016106d7906143fd565b50900390565b6072546000908190815b818160ff16101561257d57612510613817565b60728260ff168154811061252057fe5b60009182526020918290206040805160608101825292909101546001600160a01b0381168352600160a01b810461ffff16938301849052600160b01b900460ff16908201529150612572908590612ed8565b9350506001016124fd565b509091505090565b60006001600160a01b0382166001148015906125a957506001600160a01b03821615155b80156120595750506001600160a01b03908116600090815260019290920160205260409091205416151590565b6001600160a01b0381166001148015906125f857506001600160a01b03811615155b6126145760405162461bcd60e51b81526004016106d79061416d565b6001600160a01b038181166000908152600184016020526040902054161561264e5760405162461bcd60e51b81526004016106d7906147cb565b60016000818152838201602052604080822080546001600160a01b039586168085529284208054969091166001600160a01b03199687161790559183905281549093169092179091558154019055565b6066546040516331a9108f60e11b81526001600160a01b0391821691841690636352211e906126d1908590600401613e68565b60206040518083038186803b1580156126e957600080fd5b505afa1580156126fd573d6000803e3d6000fd5b505050506040513d601f19601f82011682018060405250810190612721919061393f565b6001600160a01b0316146127475760405162461bcd60e51b81526004016106d79061491f565b60005b6001600160a01b0383166000908152606f60205260409020548110156127c2576001600160a01b0383166000908152606f6020526040902080548391908390811061279157fe5b906000526020600020015414156127ba5760405162461bcd60e51b81526004016106d7906148d9565b60010161274a565b506001600160a01b039091166000908152606f602090815260408220805460018101825590835291200155565b6066546040805163e6d8a94b60e01b815290516000926001600160a01b03169163e6d8a94b91600480830192602092919082900301818787803b15801561283557600080fd5b505af1158015612849573d6000803e3d6000fd5b505050506040513d601f19601f8201168201806040525081019061286d9190613cc0565b905061287881612f88565b9050606760009054906101000a90046001600160a01b03166001600160a01b03166318160ddd6040518163ffffffff1660e01b815260040160206040518083038186803b1580156128c857600080fd5b505afa1580156128dc573d6000803e3d6000fd5b505050506040513d601f19601f820116820180604052508101906129009190613cc0565b612933576040517f3728feb3fc1ef1bf4a24036afbe7d34b59c551bf0d2ab5564e87ec1734fa80dd90600090a150610aeb565b60765460735460ff9091169060608167ffffffffffffffff8111801561295857600080fd5b50604051908082528060200260200182016040528015612982578160200160208202803683370190505b50607754909150859060009081905b85831015612b2d57606754604051633b30414760e01b81526000916001600160a01b031690633b304147906129ca908890600401613e68565b60206040518083038186803b1580156129e257600080fd5b505afa1580156129f6573d6000803e3d6000fd5b505050506040513d601f19601f82011682018060405250810190612a1a919061393f565b6001600160a01b03811660009081526075602052604090205490915060ff16612a755780868580600101965081518110612a5057fe5b60200260200101906001600160a01b031690816001600160a01b031681525050612aee565b818360010193508310612aee577fb5f728fcb182000eb8e953c15f6795f07b6cda75b35ef0b65645b53aac63694584604051612ab19190613e68565b60405180910390a183612ae8576040517f3728feb3fc1ef1bf4a24036afbe7d34b59c551bf0d2ab5564e87ec1734fa80dd90600090a15b50612b2d565b60008461020902866101f30101604051602001612b0b9190613e68565b60408051601f1981840301815291905280516020909101209550612991915050565b612b4a85600081518110612b3d57fe5b6020026020010151613035565b600087612b6057612b5b8985612f56565b612b6a565b612b6a8988612f56565b90508015612ba45760005b84811015612ba257612b9a878281518110612b8c57fe5b6020026020010151836131a5565b600101612b75565b505b60745460ff1615612d53576000612bbb606b613212565b90505b6001600160a01b03811615801590612bf15750612bdb606b61322f565b6001600160a01b0316816001600160a01b031614155b15612d4d576066546040516370a0823160e01b81526000916001600160a01b03808516926370a0823192612c29921690600401613e71565b60206040518083038186803b158015612c4157600080fd5b505afa158015612c55573d6000803e3d6000fd5b505050506040513d601f19601f82011682018060405250810190612c799190613cc0565b905060008a612c9157612c8c8288612f56565b612c9b565b612c9b828b612f56565b90508015612d395760005b87811015612d37576066548a516001600160a01b0390911690632b0ab144908c9084908110612cd157fe5b602002602001015186856040518463ffffffff1660e01b8152600401612cf993929190613eec565b600060405180830381600087803b158015612d1357600080fd5b505af1158015612d27573d6000803e3d6000fd5b505060019092019150612ca69050565b505b612d44606b84613235565b92505050612bbe565b50612d70565b612d7086600081518110612d6357fe5b6020026020010151613258565b50505050505050505050565b4290565b600054610100900460ff1680612d995750612d99611fba565b80612da7575060005460ff16155b612dc35760405162461bcd60e51b81526004016106d790614540565b600054610100900460ff16158015612dee576000805460ff1961ff0019909116610100171660011790555b612df66133a4565b612dfe613425565b8015610aeb576000805461ff001916905550565b805415612e315760405162461bcd60e51b81526004016106d7906146b6565b60016000818152918101602052604090912080546001600160a01b0319169091179055565b600082612e6557506000610658565b82820282848281612e7257fe5b04146120595760405162461bcd60e51b81526004016106d790614640565b600061205983836040518060400160405280601a81526020017f536166654d6174683a206469766973696f6e206279207a65726f0000000000008152506134ff565b3b151590565b6000828201838110156120595760405162461bcd60e51b81526004016106d790614255565b6000612f10826301ffc9a760e01b612f30565b80156106585750612f29826001600160e01b0319612f30565b1592915050565b6000806000612f3f8585613536565b91509150818015612f4d5750805b95945050505050565b6000808211612f775760405162461bcd60e51b81526004016106d79061447d565b818381612f8057fe5b049392505050565b6072546000908290825b8181101561302c57612fa2613817565b60728281548110612faf57fe5b600091825260208083206040805160608101825293909101546001600160a01b0381168452600160a01b810461ffff16928401839052600160b01b900460ff169083015290925061300190869061362b565b9050613016826000015182846040015161363f565b61302087826124cb565b96505050600101612f92565b50929392505050565b6000613041606d613212565b90505b6001600160a01b038116158015906130775750613061606d61322f565b6001600160a01b0316816001600160a01b031614155b1561319b576066546040516370a0823160e01b81526000916001600160a01b03808516926370a08231926130af921690600401613e71565b60206040518083038186803b1580156130c757600080fd5b505afa1580156130db573d6000803e3d6000fd5b505050506040513d601f19601f820116820180604052508101906130ff9190613cc0565b90508015613188576066546001600160a01b038381166000908152606f60205260409081902090516316960d5560e01b815291909216916316960d559161314d918791879190600401613e85565b600060405180830381600087803b15801561316757600080fd5b505af115801561317b573d6000803e3d6000fd5b5050505061318882612405565b613193606d83613235565b915050613044565b610d86606d61364a565b60665460675460405163358dc31d60e11b81526001600160a01b0392831692636b1b863a926131dc92879287921690600401613f3b565b600060405180830381600087803b1580156131f657600080fd5b505af115801561320a573d6000803e3d6000fd5b505050505050565b60016000818152910160205260409020546001600160a01b031690565b50600190565b6001600160a01b0380821660009081526001840160205260409020541692915050565b6000613264606b613212565b90505b6001600160a01b0381161580159061329a5750613284606b61322f565b6001600160a01b0316816001600160a01b031614155b15610d86576066546040516370a0823160e01b81526000916001600160a01b03808516926370a08231926132d2921690600401613e71565b60206040518083038186803b1580156132ea57600080fd5b505afa1580156132fe573d6000803e3d6000fd5b505050506040513d601f19601f820116820180604052508101906133229190613cc0565b9050801561339157606654604051630ac2ac5160e21b81526001600160a01b0390911690632b0ab1449061335e90869086908690600401613eec565b600060405180830381600087803b15801561337857600080fd5b505af115801561338c573d6000803e3d6000fd5b505050505b61339c606b83613235565b915050613267565b600054610100900460ff16806133bd57506133bd611fba565b806133cb575060005460ff16155b6133e75760405162461bcd60e51b81526004016106d790614540565b600054610100900460ff16158015612dfe576000805460ff1961ff0019909116610100171660011790558015610aeb576000805461ff001916905550565b600054610100900460ff168061343e575061343e611fba565b8061344c575060005460ff16155b6134685760405162461bcd60e51b81526004016106d790614540565b600054610100900460ff16158015613493576000805460ff1961ff0019909116610100171660011790555b600061349d612020565b603380546001600160a01b0319166001600160a01b038316908117909155604051919250906000907f8be0079c531659141344cd1fd0a4f28419497f9722a3daafe3b4186f6b6457e0908290a3508015610aeb576000805461ff001916905550565b600081836135205760405162461bcd60e51b81526004016106d791906140aa565b50600083858161352c57fe5b0495945050505050565b60008060606301ffc9a760e01b846040516024016135549190614095565b604051602081830303815290604052906001600160e01b0319166020820180516001600160e01b038381831617835250505050905060006060866001600160a01b0316617530846040516135a89190613e4c565b6000604051808303818686fa925050503d80600081146135e4576040519150601f19603f3d011682016040523d82523d6000602084013e6135e9565b606091505b50915091506020815110156136075760008094509450505050613624565b818180602001905181019061361c9190613b95565b945094505050505b9250929050565b600061205961ffff831684026103e8612f56565b610d2d8383836136e6565b6001600081815290820160205260409020546001600160a01b03165b6001600160a01b0381161580159061368857506001600160a01b038116600114155b156136be576001600160a01b039081166000908152600183016020526040902080546001600160a01b0319811690915516613666565b50600160008181528282016020526040812080546001600160a01b0319169092179091559055565b60665460408051634eb1c24560e11b815290516060926001600160a01b031691639d63848a916004808301926000929190829003018186803b15801561372b57600080fd5b505afa15801561373f573d6000803e3d6000fd5b505050506040513d6000823e601f3d908101601f191682016040526137679190810190613a2c565b905080518260ff16111561378d5760405162461bcd60e51b81526004016106d7906147f2565b6000818360ff168151811061379e57fe5b602090810291909101015160665460405163358dc31d60e11b81529192506001600160a01b031690636b1b863a906137de90889088908690600401613f3b565b600060405180830381600087803b1580156137f857600080fd5b505af115801561380c573d6000803e3d6000fd5b505050505050505050565b604080516060810182526000808252602082018190529181019190915290565b5080546000825590600052602060002090810190610aeb91905b808211156138655760008155600101613851565b5090565b60008083601f84011261387a578081fd5b50813567ffffffffffffffff811115613891578182fd5b602083019150836020808302850101111561362457600080fd5b805161065881614aa6565b6000606082840312156138c7578081fd5b6138d16060614a33565b905081356138de81614aa6565b8152602082013561ffff811681146138f557600080fd5b60208201526139078360408401613912565b604082015292915050565b803560ff8116811461065857600080fd5b600060208284031215613934578081fd5b813561205981614aa6565b600060208284031215613950578081fd5b815161205981614aa6565b60008060008060808587031215613970578283fd5b843561397b81614aa6565b9350602085013561398b81614aa6565b92506040850135915060608501356139a281614aa6565b939692955090935050565b600080604083850312156139bf578182fd5b82356139ca81614aa6565b915060208301356139da81614abb565b809150509250929050565b600080600080608085870312156139fa578384fd5b8435613a0581614aa6565b9350602085013592506040850135613a1c81614aa6565b915060608501356139a281614aa6565b60006020808385031215613a3e578182fd5b825167ffffffffffffffff811115613a54578283fd5b8301601f81018513613a64578283fd5b8051613a77613a7282614a5a565b614a33565b8181528381019083850185840285018601891015613a93578687fd5b8694505b83851015613abd57613aa989826138ab565b835260019490940193918501918501613a97565b50979650505050505050565b60008060208385031215613adb578182fd5b823567ffffffffffffffff811115613af1578283fd5b613afd85828601613869565b90969095509350505050565b60008060208385031215613b1b578182fd5b823567ffffffffffffffff80821115613b32578384fd5b818501915085601f830112613b45578384fd5b813581811115613b53578485fd5b866020606083028501011115613b67578485fd5b60209290920196919550909350505050565b600060208284031215613b8a578081fd5b813561205981614abb565b600060208284031215613ba6578081fd5b815161205981614abb565b600060208284031215613bc2578081fd5b81356001600160e01b031981168114612059578182fd5b60008060408385031215613beb578182fd5b8235613bf681614aa6565b915060208301356139da81614aa6565b600080600060408486031215613c1a578081fd5b8335613c2581614aa6565b9250602084013567ffffffffffffffff811115613c40578182fd5b613c4c86828701613869565b9497909650939450505050565b600060608284031215613c6a578081fd5b61205983836138b6565b60008060808385031215613c86578182fd5b613c9084846138b6565b9150613c9f8460608501613912565b90509250929050565b600060208284031215613cb9578081fd5b5035919050565b600060208284031215613cd1578081fd5b5051919050565b60008060008060008060c08789031215613cf0578384fd5b8635955060208088013595506040880135613d0a81614aa6565b94506060880135613d1a81614aa6565b93506080880135613d2a81614aa6565b925060a088013567ffffffffffffffff811115613d45578283fd5b8801601f81018a13613d55578283fd5b8035613d63613a7282614a5a565b81815283810190838501858402850186018e1015613d7f578687fd5b8694505b83851015613daa578035613d9681614aa6565b835260019490940193918501918501613d83565b5080955050505050509295509295509295565b60008060008060008060c08789031215613dd5578384fd5b86359550602087013594506040870135613dee81614aa6565b93506060870135613dfe81614aa6565b92506080870135613e0e81614aa6565b8092505060a087013590509295509295509295565b80516001600160a01b0316825260208082015161ffff169083015260409081015160ff16910152565b60008251613e5e818460208701614a7a565b9190910192915050565b90815260200190565b6001600160a01b0391909116815260200190565b6001600160a01b03848116825283166020808301919091526060604083018190528354908301819052600084815282812090929091608085019190845b81811015613ede57845484526001948501949383019301613ec2565b509198975050505050505050565b6001600160a01b039384168152919092166020820152604081019190915260600190565b6001600160a01b03948516815292841660208401526040830191909152909116606082015260800190565b6001600160a01b0393841681526020810192909252909116604082015260600190565b6001600160a01b03948516815260208101939093529083166040830152909116606082015260800190565b6020808252825182820181905260009190848201906040850190845b81811015613fca5783516001600160a01b031683529284019291840191600101613fa5565b50909695505050505050565b6020808252825182820181905260009190848201906040850190845b81811015613fca57614005838551613e23565b9284019260609290920191600101613ff2565b6020808252810182905260006001600160fb1b03831115614037578081fd5b60208302808560408501379190910160400190815292915050565b6020808252825182820181905260009190848201906040850190845b81811015613fca5783518352928401929184019160010161406e565b901515815260200190565b6001600160e01b031991909116815260200190565b60006020825282518060208401526140c9816040850160208701614a7a565b601f01601f19169190910160400192915050565b60208082526024908201527f506572696f6469635072697a6553747261746567792f6572633732312d696e76604082015263185b1a5960e21b606082015260800190565b6020808252602c908201527f506572696f6469635072697a6553747261746567792f746f6b656e2d6c69737460408201526b195b995c8b5a5b9d985b1a5960a21b606082015260800190565b6020808252600f908201526e496e76616c6964206164647265737360881b604082015260600190565b602080825260139082015272496e76616c696420707265764164647265737360681b604082015260600190565b60208082526026908201527f4f776e61626c653a206e6577206f776e657220697320746865207a65726f206160408201526564647265737360d01b606082015260800190565b6020808252602c908201527f506572696f6469635072697a6553747261746567792f6f6e6c792d6f776e657260408201526b16b7b916b634b9ba32b732b960a11b606082015260800190565b6020808252601b908201527f536166654d6174683a206164646974696f6e206f766572666c6f770000000000604082015260600190565b6020808252602a908201527f506572696f6469635072697a6553747261746567792f73706f6e736f72736869604082015269702d6e6f742d7a65726f60b01b606082015260800190565b60208082526028908201527f4d756c7469706c6557696e6e6572732f696e76616c69642d7072697a6573706c60408201526734ba16ba37b5b2b760c11b606082015260800190565b60208082526034908201527f506572696f6469635072697a6553747261746567792f7072697a652d706572696040820152736f642d677265617465722d7468616e2d7a65726f60601b606082015260800190565b60208082526025908201527f506572696f6469635072697a6553747261746567792f6f6e6c792d7072697a656040820152640b5c1bdbdb60da1b606082015260800190565b60208082526026908201527f506572696f6469635072697a6553747261746567792f7472616e736665722d746040820152653796b9b2b63360d11b606082015260800190565b6020808252601e908201527f536166654d6174683a207375627472616374696f6e206f766572666c6f770000604082015260600190565b60208082526029908201527f506572696f6469635072697a6553747261746567792f7072697a652d706f6f6c6040820152682d6e6f742d7a65726f60b81b606082015260800190565b6020808252601a908201527f536166654d6174683a206469766973696f6e206279207a65726f000000000000604082015260600190565b60208082526029908201527f4d756c7469706c6557696e6e6572732f696e76616c69642d7072697a6573706c6040820152681a5d0b5d185c99d95d60ba1b606082015260800190565b60208082526023908201527f506572696f6469635072697a6553747261746567792f65726332302d696e76616040820152621b1a5960ea1b606082015260800190565b6020808252602e908201527f496e697469616c697a61626c653a20636f6e747261637420697320616c72656160408201526d191e481a5b9a5d1a585b1a5e995960921b606082015260800190565b60208082526026908201527f4d756c7469706c6557696e6e6572732f6e6f6e6578697374656e742d7072697a604082015265195cdc1b1a5d60d21b606082015260800190565b6020808252818101527f506572696f6469635072697a6553747261746567792f65726332302d6e756c6c604082015260600190565b6020808252601f908201527f4d756c7469706c6557696e6e6572732f77696e6e6572732d6774652d6f6e6500604082015260600190565b60208082526021908201527f536166654d6174683a206d756c7469706c69636174696f6e206f766572666c6f6040820152607760f81b606082015260800190565b6020808252818101527f4f776e61626c653a2063616c6c6572206973206e6f7420746865206f776e6572604082015260600190565b6020808252600c908201526b105b1c9958591e481a5b9a5d60a21b604082015260600190565b60208082526033908201527f4d756c7469706c6557696e6e6572732f696e76616c69642d7072697a6573706c6040820152721a5d0b5c195c98d95b9d1859d94b5d1bdd185b606a1b606082015260800190565b60208082526031908201527f506572696f6469635072697a6553747261746567792f6265666f72654177617260408201527019131a5cdd195b995c8b5a5b9d985b1a59607a1b606082015260800190565b6020808252602b908201527f506572696f6469635072697a6553747261746567792f63616e6e6f742d61776160408201526a1c990b595e1d195c9b985b60aa1b606082015260800190565b6020808252600d908201526c105b1c9958591e481859191959609a1b604082015260600190565b6020808252602f908201527f506572696f6469635072697a6553747261746567792f61776172642d696e766160408201526e0d8d2c85ae8ded6cadc5ad2dcc8caf608b1b606082015260800190565b60208082526025908201527f506572696f6469635072697a6553747261746567792f7469636b65742d6e6f746040820152642d7a65726f60d81b606082015260800190565b60208082526033908201527f506572696f6469635072697a6553747261746567792f7072697a6553747261746040820152721959de531a5cdd195b995c8b5a5b9d985b1a59606a1b606082015260800190565b60208082526026908201527f506572696f6469635072697a6553747261746567792f6572633732312d6475706040820152656c696361746560d01b606082015260800190565b60208082526027908201527f506572696f6469635072697a6553747261746567792f756e617661696c61626c6040820152663296ba37b5b2b760c91b606082015260800190565b606081016106588284613e23565b61ffff93909316835260ff919091166020830152604082015260600190565b61ffff93909316835260ff918216602084015216604082015260600190565b918252602082015260400190565b85815260208082018690526001600160a01b038581166040840152848116606084015260a060808401819052845190840181905260009285810192909160c0860190855b81811015614a22578551841683529484019491840191600101614a04565b50909b9a5050505050505050505050565b60405181810167ffffffffffffffff81118282101715614a5257600080fd5b604052919050565b600067ffffffffffffffff821115614a70578081fd5b5060209081020190565b60005b83811015614a95578181015183820152602001614a7d565b83811115610a535750506000910152565b6001600160a01b0381168114610aeb57600080fd5b8015158114610aeb57600080fdfea26469706673582212208ed03d4ac4c97e45f3128b1324ca48c3a9cb0e27172ce2a3dda031c592c1970964736f6c634300060c0033",
  "linkReferences": {},
  "deployedLinkReferences": {}
}