{
  "_format": "hh-sol-artifact-1",
  "contractName": "MultipleWinners",
  "sourceName": "contracts/prize-strategy/multiple-winners/MultipleWinners.sol",
  "abi": [
    {
      "anonymous": false,
      "inputs": [
        {
          "indexed": true,
          "internalType": "contract BeforeAwardListenerInterface",
          "name": "beforeAwardListener",
          "type": "address"
        }
      ],
      "name": "BeforeAwardListenerSet",
      "type": "event"
    },
    {
      "anonymous": false,
      "inputs": [
        {
          "indexed": false,
          "internalType": "bool",
          "name": "carry",
          "type": "bool"
        }
      ],
      "name": "BlocklistCarrySet",
      "type": "event"
    },
    {
      "anonymous": false,
      "inputs": [
        {
          "indexed": false,
          "internalType": "uint256",
          "name": "count",
          "type": "uint256"
        }
      ],
      "name": "BlocklistRetryCountSet",
      "type": "event"
    },
    {
      "anonymous": false,
      "inputs": [
        {
          "indexed": true,
          "internalType": "address",
          "name": "user",
          "type": "address"
        },
        {
          "indexed": false,
          "internalType": "bool",
          "name": "isBlocked",
          "type": "bool"
        }
      ],
      "name": "BlocklistSet",
      "type": "event"
    },
    {
      "anonymous": false,
      "inputs": [
        {
          "indexed": true,
          "internalType": "contract IERC20Upgradeable",
          "name": "externalErc20",
          "type": "address"
        }
      ],
      "name": "ExternalErc20AwardAdded",
      "type": "event"
    },
    {
      "anonymous": false,
      "inputs": [
        {
          "indexed": true,
          "internalType": "contract IERC20Upgradeable",
          "name": "externalErc20Award",
          "type": "address"
        }
      ],
      "name": "ExternalErc20AwardRemoved",
      "type": "event"
    },
    {
      "anonymous": false,
      "inputs": [
        {
          "indexed": true,
          "internalType": "contract IERC721Upgradeable",
          "name": "externalErc721",
          "type": "address"
        },
        {
          "indexed": false,
          "internalType": "uint256[]",
          "name": "tokenIds",
          "type": "uint256[]"
        }
      ],
      "name": "ExternalErc721AwardAdded",
      "type": "event"
    },
    {
      "anonymous": false,
      "inputs": [
        {
          "indexed": true,
          "internalType": "contract IERC721Upgradeable",
          "name": "externalErc721Award",
          "type": "address"
        }
      ],
      "name": "ExternalErc721AwardRemoved",
      "type": "event"
    },
    {
      "anonymous": false,
      "inputs": [
        {
          "indexed": false,
          "internalType": "uint256",
          "name": "prizePeriodStart",
          "type": "uint256"
        },
        {
          "indexed": false,
          "internalType": "uint256",
          "name": "prizePeriodSeconds",
          "type": "uint256"
        },
        {
          "indexed": true,
          "internalType": "contract PrizePool",
          "name": "prizePool",
          "type": "address"
        },
        {
          "indexed": false,
          "internalType": "contract TicketInterface",
          "name": "ticket",
          "type": "address"
        },
        {
          "indexed": false,
          "internalType": "contract IERC20Upgradeable",
          "name": "sponsorship",
          "type": "address"
        },
        {
          "indexed": false,
          "internalType": "contract IERC20Upgradeable[]",
          "name": "externalErc20Awards",
          "type": "address[]"
        }
      ],
      "name": "Initialized",
      "type": "event"
    },
    {
      "anonymous": false,
      "inputs": [],
      "name": "NoWinners",
      "type": "event"
    },
    {
      "anonymous": false,
      "inputs": [
        {
          "indexed": false,
          "internalType": "uint256",
          "name": "numberOfWinners",
          "type": "uint256"
        }
      ],
      "name": "NumberOfWinnersSet",
      "type": "event"
    },
    {
      "anonymous": false,
      "inputs": [
        {
          "indexed": true,
          "internalType": "address",
          "name": "previousOwner",
          "type": "address"
        },
        {
          "indexed": true,
          "internalType": "address",
          "name": "newOwner",
          "type": "address"
        }
      ],
      "name": "OwnershipTransferred",
      "type": "event"
    },
    {
      "anonymous": false,
      "inputs": [
        {
          "indexed": true,
          "internalType": "contract PeriodicPrizeStrategyListenerInterface",
          "name": "periodicPrizeStrategyListener",
          "type": "address"
        }
      ],
      "name": "PeriodicPrizeStrategyListenerSet",
      "type": "event"
    },
    {
      "anonymous": false,
      "inputs": [
        {
          "indexed": false,
          "internalType": "uint256",
          "name": "prizePeriodSeconds",
          "type": "uint256"
        }
      ],
      "name": "PrizePeriodSecondsUpdated",
      "type": "event"
    },
    {
      "anonymous": false,
      "inputs": [
        {
          "indexed": true,
          "internalType": "address",
          "name": "operator",
          "type": "address"
        },
        {
          "indexed": true,
          "internalType": "address",
          "name": "prizePool",
          "type": "address"
        },
        {
          "indexed": true,
          "internalType": "uint32",
          "name": "rngRequestId",
          "type": "uint32"
        },
        {
          "indexed": false,
          "internalType": "uint32",
          "name": "rngLockBlock",
          "type": "uint32"
        }
      ],
      "name": "PrizePoolAwardCancelled",
      "type": "event"
    },
    {
      "anonymous": false,
      "inputs": [
        {
          "indexed": true,
          "internalType": "address",
          "name": "operator",
          "type": "address"
        },
        {
          "indexed": true,
          "internalType": "address",
          "name": "prizePool",
          "type": "address"
        },
        {
          "indexed": true,
          "internalType": "uint32",
          "name": "rngRequestId",
          "type": "uint32"
        },
        {
          "indexed": false,
          "internalType": "uint32",
          "name": "rngLockBlock",
          "type": "uint32"
        }
      ],
      "name": "PrizePoolAwardStarted",
      "type": "event"
    },
    {
      "anonymous": false,
      "inputs": [
        {
          "indexed": true,
          "internalType": "address",
          "name": "operator",
          "type": "address"
        },
        {
          "indexed": false,
          "internalType": "uint256",
          "name": "randomNumber",
          "type": "uint256"
        }
      ],
      "name": "PrizePoolAwarded",
      "type": "event"
    },
    {
      "anonymous": false,
      "inputs": [
        {
          "indexed": true,
          "internalType": "address",
          "name": "operator",
          "type": "address"
        },
        {
          "indexed": true,
          "internalType": "uint256",
          "name": "prizePeriodStartedAt",
          "type": "uint256"
        }
      ],
      "name": "PrizePoolOpened",
      "type": "event"
    },
    {
      "anonymous": false,
      "inputs": [
        {
          "indexed": true,
          "internalType": "uint256",
          "name": "target",
          "type": "uint256"
        }
      ],
      "name": "PrizeSplitRemoved",
      "type": "event"
    },
    {
      "anonymous": false,
      "inputs": [
        {
          "indexed": true,
          "internalType": "address",
          "name": "target",
          "type": "address"
        },
        {
          "indexed": false,
          "internalType": "uint16",
          "name": "percentage",
          "type": "uint16"
        },
        {
          "indexed": false,
          "internalType": "uint8",
          "name": "token",
          "type": "uint8"
        },
        {
          "indexed": false,
          "internalType": "uint256",
          "name": "index",
          "type": "uint256"
        }
      ],
      "name": "PrizeSplitSet",
      "type": "event"
    },
    {
      "anonymous": false,
      "inputs": [
        {
          "indexed": false,
          "internalType": "uint256",
          "name": "numberOfWinners",
          "type": "uint256"
        }
      ],
      "name": "RetryMaxLimitReached",
      "type": "event"
    },
    {
      "anonymous": false,
      "inputs": [
        {
          "indexed": false,
          "internalType": "uint32",
          "name": "rngRequestTimeout",
          "type": "uint32"
        }
      ],
      "name": "RngRequestTimeoutSet",
      "type": "event"
    },
    {
      "anonymous": false,
      "inputs": [
        {
          "indexed": false,
          "internalType": "bool",
          "name": "splitExternalErc20Awards",
          "type": "bool"
        }
      ],
      "name": "SplitExternalErc20AwardsSet",
      "type": "event"
    },
    {
      "anonymous": false,
      "inputs": [
        {
          "indexed": true,
          "internalType": "contract TokenListenerInterface",
          "name": "tokenListener",
          "type": "address"
        }
      ],
      "name": "TokenListenerUpdated",
      "type": "event"
    },
    {
      "inputs": [],
      "name": "VERSION",
      "outputs": [
        {
          "internalType": "string",
          "name": "",
          "type": "string"
        }
      ],
      "stateMutability": "view",
      "type": "function"
    },
    {
      "inputs": [
        {
          "internalType": "contract IERC20Upgradeable",
          "name": "_externalErc20",
          "type": "address"
        }
      ],
      "name": "addExternalErc20Award",
      "outputs": [],
      "stateMutability": "nonpayable",
      "type": "function"
    },
    {
      "inputs": [
        {
          "internalType": "contract IERC20Upgradeable[]",
          "name": "_externalErc20s",
          "type": "address[]"
        }
      ],
      "name": "addExternalErc20Awards",
      "outputs": [],
      "stateMutability": "nonpayable",
      "type": "function"
    },
    {
      "inputs": [
        {
          "internalType": "contract IERC721Upgradeable",
          "name": "_externalErc721",
          "type": "address"
        },
        {
          "internalType": "uint256[]",
          "name": "_tokenIds",
          "type": "uint256[]"
        }
      ],
      "name": "addExternalErc721Award",
      "outputs": [],
      "stateMutability": "nonpayable",
      "type": "function"
    },
    {
      "inputs": [],
      "name": "beforeAwardListener",
      "outputs": [
        {
          "internalType": "contract BeforeAwardListenerInterface",
          "name": "",
          "type": "address"
        }
      ],
      "stateMutability": "view",
      "type": "function"
    },
    {
      "inputs": [
        {
          "internalType": "address",
          "name": "to",
          "type": "address"
        },
        {
          "internalType": "uint256",
          "name": "amount",
          "type": "uint256"
        },
        {
          "internalType": "address",
          "name": "controlledToken",
          "type": "address"
        },
        {
          "internalType": "address",
          "name": "referrer",
          "type": "address"
        }
      ],
      "name": "beforeTokenMint",
      "outputs": [],
      "stateMutability": "nonpayable",
      "type": "function"
    },
    {
      "inputs": [
        {
          "internalType": "address",
          "name": "from",
          "type": "address"
        },
        {
          "internalType": "address",
          "name": "to",
          "type": "address"
        },
        {
          "internalType": "uint256",
          "name": "amount",
          "type": "uint256"
        },
        {
          "internalType": "address",
          "name": "controlledToken",
          "type": "address"
        }
      ],
      "name": "beforeTokenTransfer",
      "outputs": [],
      "stateMutability": "nonpayable",
      "type": "function"
    },
    {
      "inputs": [],
      "name": "blocklistRetryCount",
      "outputs": [
        {
          "internalType": "uint256",
          "name": "",
          "type": "uint256"
        }
      ],
      "stateMutability": "view",
      "type": "function"
    },
    {
      "inputs": [
        {
          "internalType": "uint256",
          "name": "currentTime",
          "type": "uint256"
        }
      ],
      "name": "calculateNextPrizePeriodStartTime",
      "outputs": [
        {
          "internalType": "uint256",
          "name": "",
          "type": "uint256"
        }
      ],
      "stateMutability": "view",
      "type": "function"
    },
    {
      "inputs": [],
      "name": "canStartAward",
      "outputs": [
        {
          "internalType": "bool",
          "name": "",
          "type": "bool"
        }
      ],
      "stateMutability": "view",
      "type": "function"
    },
    {
      "inputs": [],
      "name": "carryOverBlocklist",
      "outputs": [
        {
          "internalType": "bool",
          "name": "",
          "type": "bool"
        }
      ],
      "stateMutability": "view",
      "type": "function"
    },
    {
      "inputs": [],
      "name": "completeAward",
      "outputs": [],
      "stateMutability": "nonpayable",
      "type": "function"
    },
    {
      "inputs": [],
      "name": "currentPrize",
      "outputs": [
        {
          "internalType": "uint256",
          "name": "",
          "type": "uint256"
        }
      ],
      "stateMutability": "view",
      "type": "function"
    },
    {
      "inputs": [
        {
          "internalType": "uint256",
          "name": "secondsPerBlockMantissa",
          "type": "uint256"
        }
      ],
      "name": "estimateRemainingBlocksToPrize",
      "outputs": [
        {
          "internalType": "uint256",
          "name": "",
          "type": "uint256"
        }
      ],
      "stateMutability": "view",
      "type": "function"
    },
    {
      "inputs": [],
      "name": "getExternalErc20Awards",
      "outputs": [
        {
          "internalType": "address[]",
          "name": "",
          "type": "address[]"
        }
      ],
      "stateMutability": "view",
      "type": "function"
    },
    {
      "inputs": [
        {
          "internalType": "contract IERC721Upgradeable",
          "name": "_externalErc721",
          "type": "address"
        }
      ],
      "name": "getExternalErc721AwardTokenIds",
      "outputs": [
        {
          "internalType": "uint256[]",
          "name": "",
          "type": "uint256[]"
        }
      ],
      "stateMutability": "view",
      "type": "function"
    },
    {
      "inputs": [],
      "name": "getExternalErc721Awards",
      "outputs": [
        {
          "internalType": "address[]",
          "name": "",
          "type": "address[]"
        }
      ],
      "stateMutability": "view",
      "type": "function"
    },
    {
      "inputs": [
        {
          "internalType": "uint256",
          "name": "_prizePeriodStart",
          "type": "uint256"
        },
        {
          "internalType": "uint256",
          "name": "_prizePeriodSeconds",
          "type": "uint256"
        },
        {
          "internalType": "contract PrizePool",
          "name": "_prizePool",
          "type": "address"
        },
        {
          "internalType": "contract TicketInterface",
          "name": "_ticket",
          "type": "address"
        },
        {
          "internalType": "contract IERC20Upgradeable",
          "name": "_sponsorship",
          "type": "address"
        },
        {
          "internalType": "contract IERC20Upgradeable[]",
          "name": "externalErc20Awards",
          "type": "address[]"
        }
      ],
      "name": "initialize",
      "outputs": [],
      "stateMutability": "nonpayable",
      "type": "function"
    },
    {
      "inputs": [
        {
          "internalType": "uint256",
          "name": "_prizePeriodStart",
          "type": "uint256"
        },
        {
          "internalType": "uint256",
          "name": "_prizePeriodSeconds",
          "type": "uint256"
        },
        {
          "internalType": "contract PrizePool",
          "name": "_prizePool",
          "type": "address"
        },
        {
          "internalType": "contract TicketInterface",
          "name": "_ticket",
          "type": "address"
        },
        {
          "internalType": "contract IERC20Upgradeable",
          "name": "_sponsorship",
          "type": "address"
        },
        {
          "internalType": "uint256",
          "name": "_numberOfWinners",
          "type": "uint256"
        }
      ],
      "name": "initializeMultipleWinners",
      "outputs": [],
      "stateMutability": "nonpayable",
      "type": "function"
    },
    {
      "inputs": [
        {
          "internalType": "address",
          "name": "",
          "type": "address"
        }
      ],
      "name": "isBlocklisted",
      "outputs": [
        {
          "internalType": "bool",
          "name": "",
          "type": "bool"
        }
      ],
      "stateMutability": "view",
      "type": "function"
    },
    {
      "inputs": [],
      "name": "isPrizePeriodOver",
      "outputs": [
        {
          "internalType": "bool",
          "name": "",
          "type": "bool"
        }
      ],
      "stateMutability": "view",
      "type": "function"
    },
    {
      "inputs": [],
      "name": "isRngTimedOut",
      "outputs": [
        {
          "internalType": "bool",
          "name": "",
          "type": "bool"
        }
      ],
      "stateMutability": "view",
      "type": "function"
    },
    {
      "inputs": [],
      "name": "numberOfWinners",
      "outputs": [
        {
          "internalType": "uint256",
          "name": "",
          "type": "uint256"
        }
      ],
      "stateMutability": "view",
      "type": "function"
    },
    {
      "inputs": [],
      "name": "owner",
      "outputs": [
        {
          "internalType": "address",
          "name": "",
          "type": "address"
        }
      ],
      "stateMutability": "view",
      "type": "function"
    },
    {
      "inputs": [],
      "name": "periodicPrizeStrategyListener",
      "outputs": [
        {
          "internalType": "contract PeriodicPrizeStrategyListenerInterface",
          "name": "",
          "type": "address"
        }
      ],
      "stateMutability": "view",
      "type": "function"
    },
    {
      "inputs": [],
      "name": "prizePeriodEndAt",
      "outputs": [
        {
          "internalType": "uint256",
          "name": "",
          "type": "uint256"
        }
      ],
      "stateMutability": "view",
      "type": "function"
    },
    {
      "inputs": [],
      "name": "prizePeriodRemainingSeconds",
      "outputs": [
        {
          "internalType": "uint256",
          "name": "",
          "type": "uint256"
        }
      ],
      "stateMutability": "view",
      "type": "function"
    },
    {
      "inputs": [],
      "name": "prizePeriodSeconds",
      "outputs": [
        {
          "internalType": "uint256",
          "name": "",
          "type": "uint256"
        }
      ],
      "stateMutability": "view",
      "type": "function"
    },
    {
      "inputs": [],
      "name": "prizePeriodStartedAt",
      "outputs": [
        {
          "internalType": "uint256",
          "name": "",
          "type": "uint256"
        }
      ],
      "stateMutability": "view",
      "type": "function"
    },
    {
      "inputs": [],
      "name": "prizePool",
      "outputs": [
        {
          "internalType": "contract PrizePool",
          "name": "",
          "type": "address"
        }
      ],
      "stateMutability": "view",
      "type": "function"
    },
    {
      "inputs": [
        {
          "internalType": "uint256",
          "name": "prizeSplitIndex",
          "type": "uint256"
        }
      ],
      "name": "prizeSplit",
      "outputs": [
        {
          "components": [
            {
              "internalType": "address",
              "name": "target",
              "type": "address"
            },
            {
              "internalType": "uint16",
              "name": "percentage",
              "type": "uint16"
            },
            {
              "internalType": "uint8",
              "name": "token",
              "type": "uint8"
            }
          ],
          "internalType": "struct PrizeSplit.PrizeSplitConfig",
          "name": "",
          "type": "tuple"
        }
      ],
      "stateMutability": "view",
      "type": "function"
    },
    {
      "inputs": [],
      "name": "prizeSplits",
      "outputs": [
        {
          "components": [
            {
              "internalType": "address",
              "name": "target",
              "type": "address"
            },
            {
              "internalType": "uint16",
              "name": "percentage",
              "type": "uint16"
            },
            {
              "internalType": "uint8",
              "name": "token",
              "type": "uint8"
            }
          ],
          "internalType": "struct PrizeSplit.PrizeSplitConfig[]",
          "name": "",
          "type": "tuple[]"
        }
      ],
      "stateMutability": "view",
      "type": "function"
    },
    {
      "inputs": [
        {
          "internalType": "contract IERC20Upgradeable",
          "name": "_externalErc20",
          "type": "address"
        },
        {
          "internalType": "contract IERC20Upgradeable",
          "name": "_prevExternalErc20",
          "type": "address"
        }
      ],
      "name": "removeExternalErc20Award",
      "outputs": [],
      "stateMutability": "nonpayable",
      "type": "function"
    },
    {
      "inputs": [
        {
          "internalType": "contract IERC721Upgradeable",
          "name": "_externalErc721",
          "type": "address"
        },
        {
          "internalType": "contract IERC721Upgradeable",
          "name": "_prevExternalErc721",
          "type": "address"
        }
      ],
      "name": "removeExternalErc721Award",
      "outputs": [],
      "stateMutability": "nonpayable",
      "type": "function"
    },
    {
      "inputs": [],
      "name": "renounceOwnership",
      "outputs": [],
      "stateMutability": "nonpayable",
      "type": "function"
    },
    {
      "inputs": [],
      "name": "rngRequestTimeout",
      "outputs": [
        {
          "internalType": "uint32",
          "name": "",
          "type": "uint32"
        }
      ],
      "stateMutability": "view",
      "type": "function"
    },
    {
      "inputs": [
        {
          "internalType": "contract BeforeAwardListenerInterface",
          "name": "_beforeAwardListener",
          "type": "address"
        }
      ],
      "name": "setBeforeAwardListener",
      "outputs": [],
      "stateMutability": "nonpayable",
      "type": "function"
    },
    {
      "inputs": [
        {
          "internalType": "uint256",
          "name": "_count",
          "type": "uint256"
        }
      ],
      "name": "setBlocklistRetryCount",
      "outputs": [
        {
          "internalType": "bool",
          "name": "",
          "type": "bool"
        }
      ],
      "stateMutability": "nonpayable",
      "type": "function"
    },
    {
      "inputs": [
        {
          "internalType": "address",
          "name": "_user",
          "type": "address"
        },
        {
          "internalType": "bool",
          "name": "_isBlocked",
          "type": "bool"
        }
      ],
      "name": "setBlocklisted",
      "outputs": [
        {
          "internalType": "bool",
          "name": "",
          "type": "bool"
        }
      ],
      "stateMutability": "nonpayable",
      "type": "function"
    },
    {
      "inputs": [
        {
          "internalType": "bool",
          "name": "_carry",
          "type": "bool"
        }
      ],
      "name": "setCarryBlocklist",
      "outputs": [
        {
          "internalType": "bool",
          "name": "",
          "type": "bool"
        }
      ],
      "stateMutability": "nonpayable",
      "type": "function"
    },
    {
      "inputs": [
        {
          "internalType": "uint256",
          "name": "count",
          "type": "uint256"
        }
      ],
      "name": "setNumberOfWinners",
      "outputs": [],
      "stateMutability": "nonpayable",
      "type": "function"
    },
    {
      "inputs": [
        {
          "internalType": "contract PeriodicPrizeStrategyListenerInterface",
          "name": "_periodicPrizeStrategyListener",
          "type": "address"
        }
      ],
      "name": "setPeriodicPrizeStrategyListener",
      "outputs": [],
      "stateMutability": "nonpayable",
      "type": "function"
    },
    {
      "inputs": [
        {
          "internalType": "uint256",
          "name": "_prizePeriodSeconds",
          "type": "uint256"
        }
      ],
      "name": "setPrizePeriodSeconds",
      "outputs": [],
      "stateMutability": "nonpayable",
      "type": "function"
    },
    {
      "inputs": [
        {
          "components": [
            {
              "internalType": "address",
              "name": "target",
              "type": "address"
            },
            {
              "internalType": "uint16",
              "name": "percentage",
              "type": "uint16"
            },
            {
              "internalType": "uint8",
              "name": "token",
              "type": "uint8"
            }
          ],
          "internalType": "struct PrizeSplit.PrizeSplitConfig",
          "name": "prizeStrategySplit",
          "type": "tuple"
        },
        {
          "internalType": "uint8",
          "name": "prizeSplitIndex",
          "type": "uint8"
        }
      ],
      "name": "setPrizeSplit",
      "outputs": [],
      "stateMutability": "nonpayable",
      "type": "function"
    },
    {
      "inputs": [
        {
          "components": [
            {
              "internalType": "address",
              "name": "target",
              "type": "address"
            },
            {
              "internalType": "uint16",
              "name": "percentage",
              "type": "uint16"
            },
            {
              "internalType": "uint8",
              "name": "token",
              "type": "uint8"
            }
          ],
          "internalType": "struct PrizeSplit.PrizeSplitConfig[]",
          "name": "newPrizeSplits",
          "type": "tuple[]"
        }
      ],
      "name": "setPrizeSplits",
      "outputs": [],
      "stateMutability": "nonpayable",
      "type": "function"
    },
    {
      "inputs": [
        {
          "internalType": "bool",
          "name": "_splitExternalErc20Awards",
          "type": "bool"
        }
      ],
      "name": "setSplitExternalErc20Awards",
      "outputs": [],
      "stateMutability": "nonpayable",
      "type": "function"
    },
    {
      "inputs": [
        {
          "internalType": "contract TokenListenerInterface",
          "name": "_tokenListener",
          "type": "address"
        }
      ],
      "name": "setTokenListener",
      "outputs": [],
      "stateMutability": "nonpayable",
      "type": "function"
    },
    {
      "inputs": [],
      "name": "splitExternalErc20Awards",
      "outputs": [
        {
          "internalType": "bool",
          "name": "",
          "type": "bool"
        }
      ],
      "stateMutability": "view",
      "type": "function"
    },
    {
      "inputs": [],
      "name": "sponsorship",
      "outputs": [
        {
          "internalType": "contract IERC20Upgradeable",
          "name": "",
          "type": "address"
        }
      ],
      "stateMutability": "view",
      "type": "function"
    },
    {
      "inputs": [
        {
          "internalType": "bytes4",
          "name": "interfaceId",
          "type": "bytes4"
        }
      ],
      "name": "supportsInterface",
      "outputs": [
        {
          "internalType": "bool",
          "name": "",
          "type": "bool"
        }
      ],
      "stateMutability": "view",
      "type": "function"
    },
    {
      "inputs": [],
      "name": "ticket",
      "outputs": [
        {
          "internalType": "contract TicketInterface",
          "name": "",
          "type": "address"
        }
      ],
      "stateMutability": "view",
      "type": "function"
    },
    {
      "inputs": [],
      "name": "tokenListener",
      "outputs": [
        {
          "internalType": "contract TokenListenerInterface",
          "name": "",
          "type": "address"
        }
      ],
      "stateMutability": "view",
      "type": "function"
    },
    {
      "inputs": [
        {
          "internalType": "address",
          "name": "newOwner",
          "type": "address"
        }
      ],
      "name": "transferOwnership",
      "outputs": [],
      "stateMutability": "nonpayable",
      "type": "function"
    },
    {
      "inputs": [],
      "name": "vrf",
      "outputs": [
        {
          "internalType": "bytes32",
          "name": "result",
          "type": "bytes32"
        }
      ],
      "stateMutability": "view",
      "type": "function"
    }
  ],
  "bytecode": "0x60806040523480156200001157600080fd5b506191d780620000226000396000f3fe608060405234801561001057600080fd5b50600436106103425760003560e01c8063738bbea8116101b8578063acca5b9511610104578063d5ad6bf6116100a2578063f2fde38b1161007c578063f2fde38b1461097f578063f48af3521461099b578063fbf0953e146109b7578063ffa1ad74146109d357610342565b8063d5ad6bf614610927578063dfb2f13b14610945578063eefc8ad11461094f57610342565b8063c25a9c32116100de578063c25a9c32146108b3578063c2f19ee8146108cf578063c42b42a0146108ed578063c48ddbcb1461090b57610342565b8063acca5b951461085d578063b02446821461087b578063b22109571461089757610342565b80638da5cb5b116101715780639417783f1161014b5780639417783f146107c157806395e5f9ee146107f15780639dafafb01461080f578063a4e075ca1461082d57610342565b80638da5cb5b146107555780638e204c431461077357806394144c6b146107a357610342565b8063738bbea8146106a5578063876f5c7e146106c3578063884a4448146106e15780638aa3ec6f146106fd5780638acfaca9146107195780638d5f10c41461073757610342565b80634e5d08e0116102925780636be51c4f116102305780636f46f2211161020a5780636f46f22114610641578063715018a61461065f578063719ce73e1461066957806372f33ea91461068757610342565b80636be51c4f146105e95780636cc25db7146106075780636dfb03861461062557610342565b8063605e25ac1161026c578063605e25ac1461057757806362c77a611461059357806366968221146105b1578063671137c4146105cd57610342565b80634e5d08e01461050d578063500db70d1461052957806352a301091461054757610342565b8063152d308c116102ff57806338a9b4b6116102d957806338a9b4b61461048757806342d09209146104a357806347bed998146104c15780634d7f3db0146104f157610342565b8063152d308c1461041d5780632c8fe73d1461044d57806330fcdf411461046b57610342565b806301b48e341461034757806301ffc9a714610377578063035d09f8146103a75780630c949043146103c35780630d847fc4146103e15780630faf125f146103ff575b600080fd5b610361600480360381019061035c91906170bf565b6109f1565b60405161036e9190618b33565b60405180910390f35b610391600480360381019061038c9190616e94565b610a0b565b60405161039e9190618555565b60405180910390f35b6103c160048036038101906103bc91906171b2565b610aab565b005b6103cb610bb3565b6040516103d89190618570565b60405180910390f35b6103e9610bd4565b6040516103f691906185a6565b60405180910390f35b610407610bfa565b6040516104149190618b33565b60405180910390f35b61043760048036038101906104329190616cd8565b610c00565b6040516104449190618555565b60405180910390f35b610455610d35565b6040516104629190618b33565b60405180910390f35b61048560048036038101906104809190616ebd565b610d44565b005b6104a1600480360381019061049c9190616e42565b610ef5565b005b6104ab610fdc565b6040516104b891906184cb565b60405180910390f35b6104db60048036038101906104d691906170bf565b610fed565b6040516104e89190618b33565b60405180910390f35b61050b60048036038101906105069190616d14565b610fff565b005b61052760048036038101906105229190616ee6565b6111e5565b005b610531611333565b60405161053e91906185c1565b60405180910390f35b610561600480360381019061055c91906170bf565b611359565b60405161056e9190618555565b60405180910390f35b610591600480360381019061058c9190617031565b611426565b005b61059b6115f9565b6040516105a891906184cb565b60405180910390f35b6105cb60048036038101906105c69190616db8565b61160a565b005b6105e760048036038101906105e29190616fcc565b611795565b005b6105f161183c565b6040516105fe919061862d565b60405180910390f35b61060f611862565b60405161061c9190618612565b60405180910390f35b61063f600480360381019061063a91906170bf565b611888565b005b610649611918565b6040516106569190618555565b60405180910390f35b61066761192b565b005b610671611a68565b60405161067e91906185f7565b60405180910390f35b61068f611a8e565b60405161069c9190618b33565b60405180910390f35b6106ad611a94565b6040516106ba9190618555565b60405180910390f35b6106cb611b17565b6040516106d89190618555565b60405180910390f35b6106fb60048036038101906106f691906170bf565b611b26565b005b61071760048036038101906107129190617008565b611bb6565b005b610721611d67565b60405161072e9190618b33565b60405180910390f35b61073f611d71565b60405161074c91906184ed565b60405180910390f35b61075d611e5f565b60405161076a9190618343565b60405180910390f35b61078d60048036038101906107889190616c23565b611e89565b60405161079a9190618555565b60405180910390f35b6107ab611ea9565b6040516107b89190618b33565b60405180910390f35b6107db60048036038101906107d69190616f4b565b611eaf565b6040516107e89190618533565b60405180910390f35b6107f9611f46565b6040516108069190618555565b60405180910390f35b610817611f55565b6040516108249190618555565b60405180910390f35b61084760048036038101906108429190616e42565b611f68565b6040516108549190618555565b60405180910390f35b610865612048565b6040516108729190618bd1565b60405180910390f35b61089560048036038101906108909190616f0f565b61205e565b005b6108b160048036038101906108ac9190616c75565b61213f565b005b6108cd60048036038101906108c89190616dfd565b612394565b005b6108d761294b565b6040516108e491906185dc565b60405180910390f35b6108f5612971565b6040516109029190618b33565b60405180910390f35b61092560048036038101906109209190616f74565b612a18565b005b61092f612d6d565b60405161093c9190618b33565b60405180910390f35b61094d612d7c565b005b610969600480360381019061096491906170bf565b613069565b6040516109769190618aaa565b60405180910390f35b61099960048036038101906109949190616c23565b61312d565b005b6109b560048036038101906109b09190617111565b6132d9565b005b6109d160048036038101906109cc9190617083565b61378c565b005b6109db613a6e565b6040516109e89190618648565b60405180910390f35b6000610a046109fe613aa7565b83613aee565b9050919050565b60006301ffc9a760e01b7bffffffffffffffffffffffffffffffffffffffffffffffffffffffff1916827bffffffffffffffffffffffffffffffffffffffffffffffffffffffff19161480610aa4575063ff5e34e760e01b7bffffffffffffffffffffffffffffffffffffffffffffffffffffffff1916827bffffffffffffffffffffffffffffffffffffffffffffffffffffffff1916145b9050919050565b600060019054906101000a900460ff1680610aca5750610ac9613b2d565b5b80610ae0575060008054906101000a900460ff16155b610b1f576040517f08c379a0000000000000000000000000000000000000000000000000000000008152600401610b169061888a565b60405180910390fd5b60008060019054906101000a900460ff161590508015610b6f576001600060016101000a81548160ff02191690831515021790555060016000806101000a81548160ff0219169083151502179055505b6060610b7f8888888888866132d9565b610b8883613b3e565b508015610baa5760008060016101000a81548160ff0219169083151502179055505b50505050505050565b60008060405160208160208460ff600019fa610bcb57fe5b80519250505090565b607260009054906101000a900473ffffffffffffffffffffffffffffffffffffffff1681565b60795481565b6000610c0a613bc2565b73ffffffffffffffffffffffffffffffffffffffff16610c28611e5f565b73ffffffffffffffffffffffffffffffffffffffff1614610c7e576040517f08c379a0000000000000000000000000000000000000000000000000000000008152600401610c759061892a565b60405180910390fd5b610c86613bca565b81607760008573ffffffffffffffffffffffffffffffffffffffff1673ffffffffffffffffffffffffffffffffffffffff16815260200190815260200160002060006101000a81548160ff0219169083151502179055508273ffffffffffffffffffffffffffffffffffffffff167fd1ac9a365c0e3bfad562e0a809a5ded3842a2b489f839b3327e4e34ee0128f2883604051610d239190618555565b60405180910390a26001905092915050565b6000610d3f613c5c565b905090565b610d4c613bc2565b73ffffffffffffffffffffffffffffffffffffffff16610d6a611e5f565b73ffffffffffffffffffffffffffffffffffffffff1614610dc0576040517f08c379a0000000000000000000000000000000000000000000000000000000008152600401610db79061892a565b60405180910390fd5b610dc8613bca565b8073ffffffffffffffffffffffffffffffffffffffff16600073ffffffffffffffffffffffffffffffffffffffff161480610e2f5750610e2e634cdf9c3e60e01b8273ffffffffffffffffffffffffffffffffffffffff16613c7a90919063ffffffff16565b5b610e6e576040517f08c379a0000000000000000000000000000000000000000000000000000000008152600401610e659061898a565b60405180910390fd5b80607260006101000a81548173ffffffffffffffffffffffffffffffffffffffff021916908373ffffffffffffffffffffffffffffffffffffffff1602179055508073ffffffffffffffffffffffffffffffffffffffff167fc4feff61630891ea2cb42a54fbe3ff2e65422f2ed17323ac6b65f4521112e87e60405160405180910390a250565b610efd613bc2565b73ffffffffffffffffffffffffffffffffffffffff16610f1b611e5f565b73ffffffffffffffffffffffffffffffffffffffff1614610f71576040517f08c379a0000000000000000000000000000000000000000000000000000000008152600401610f689061892a565b60405180910390fd5b610f79613bca565b80607660006101000a81548160ff0219169083151502179055507f6959d02e8fb6264d1d39bf37f1e725001f342714933cf38f8627a2442efc43fd607660009054906101000a900460ff16604051610fd19190618555565b60405180910390a150565b6060610fe8606f613c9f565b905090565b6000610ff882613e8a565b9050919050565b606660009054906101000a900473ffffffffffffffffffffffffffffffffffffffff1673ffffffffffffffffffffffffffffffffffffffff16611040613bc2565b73ffffffffffffffffffffffffffffffffffffffff1614611096576040517f08c379a000000000000000000000000000000000000000000000000000000000815260040161108d906187aa565b60405180910390fd5b606760009054906101000a900473ffffffffffffffffffffffffffffffffffffffff1673ffffffffffffffffffffffffffffffffffffffff168273ffffffffffffffffffffffffffffffffffffffff1614156110f5576110f4613bca565b5b600073ffffffffffffffffffffffffffffffffffffffff16606560009054906101000a900473ffffffffffffffffffffffffffffffffffffffff1673ffffffffffffffffffffffffffffffffffffffff16146111df57606560009054906101000a900473ffffffffffffffffffffffffffffffffffffffff1673ffffffffffffffffffffffffffffffffffffffff16634d7f3db0858585856040518563ffffffff1660e01b81526004016111ac9493929190618486565b600060405180830381600087803b1580156111c657600080fd5b505af11580156111da573d6000803e3d6000fd5b505050505b50505050565b6111ed611e5f565b73ffffffffffffffffffffffffffffffffffffffff1661120b613bc2565b73ffffffffffffffffffffffffffffffffffffffff1614806112815750607360009054906101000a900473ffffffffffffffffffffffffffffffffffffffff1673ffffffffffffffffffffffffffffffffffffffff16611269613bc2565b73ffffffffffffffffffffffffffffffffffffffff16145b806112e05750607260009054906101000a900473ffffffffffffffffffffffffffffffffffffffff1673ffffffffffffffffffffffffffffffffffffffff166112c8613bc2565b73ffffffffffffffffffffffffffffffffffffffff16145b61131f576040517f08c379a00000000000000000000000000000000000000000000000000000000081526004016113169061870a565b60405180910390fd5b611327613bca565b61133081613ee9565b50565b606860009054906101000a900473ffffffffffffffffffffffffffffffffffffffff1681565b6000611363613bc2565b73ffffffffffffffffffffffffffffffffffffffff16611381611e5f565b73ffffffffffffffffffffffffffffffffffffffff16146113d7576040517f08c379a00000000000000000000000000000000000000000000000000000000081526004016113ce9061892a565b60405180910390fd5b6113df613bca565b816079819055507f63e4e34f49d12428c03e04e61340c7167e36eb0ff6f0b1970c75440261794039826040516114159190618b33565b60405180910390a160019050919050565b61142e613bc2565b73ffffffffffffffffffffffffffffffffffffffff1661144c611e5f565b73ffffffffffffffffffffffffffffffffffffffff16146114a2576040517f08c379a00000000000000000000000000000000000000000000000000000000081526004016114999061892a565b60405180910390fd5b6114aa613bca565b8073ffffffffffffffffffffffffffffffffffffffff16600073ffffffffffffffffffffffffffffffffffffffff161480611511575061151063ff5e34e760e01b8273ffffffffffffffffffffffffffffffffffffffff16613c7a90919063ffffffff16565b5b611550576040517f08c379a00000000000000000000000000000000000000000000000000000000081526004016115479061868a565b60405180910390fd5b80606560006101000a81548173ffffffffffffffffffffffffffffffffffffffff021916908373ffffffffffffffffffffffffffffffffffffffff160217905550606560009054906101000a900473ffffffffffffffffffffffffffffffffffffffff1673ffffffffffffffffffffffffffffffffffffffff167f9fc437aa70ad4ee5f33f6772bf338eed41e21b95435820817ab8b4df161ce4dd60405160405180910390a250565b6060611605606d613c9f565b905090565b611612611e5f565b73ffffffffffffffffffffffffffffffffffffffff16611630613bc2565b73ffffffffffffffffffffffffffffffffffffffff1614806116a65750607360009054906101000a900473ffffffffffffffffffffffffffffffffffffffff1673ffffffffffffffffffffffffffffffffffffffff1661168e613bc2565b73ffffffffffffffffffffffffffffffffffffffff16145b806117055750607260009054906101000a900473ffffffffffffffffffffffffffffffffffffffff1673ffffffffffffffffffffffffffffffffffffffff166116ed613bc2565b73ffffffffffffffffffffffffffffffffffffffff16145b611744576040517f08c379a000000000000000000000000000000000000000000000000000000000815260040161173b9061870a565b60405180910390fd5b61174c613bca565b60005b828290508110156117905761178383838381811061176957fe5b905060200201602081019061177e9190616ee6565b613ee9565b808060010191505061174f565b505050565b61179d613bc2565b73ffffffffffffffffffffffffffffffffffffffff166117bb611e5f565b73ffffffffffffffffffffffffffffffffffffffff1614611811576040517f08c379a00000000000000000000000000000000000000000000000000000000081526004016118089061892a565b60405180910390fd5b611819613bca565b61182f8183606f6141bd9092919063ffffffff16565b6118388261448f565b5050565b606560009054906101000a900473ffffffffffffffffffffffffffffffffffffffff1681565b606760009054906101000a900473ffffffffffffffffffffffffffffffffffffffff1681565b611890613bc2565b73ffffffffffffffffffffffffffffffffffffffff166118ae611e5f565b73ffffffffffffffffffffffffffffffffffffffff1614611904576040517f08c379a00000000000000000000000000000000000000000000000000000000081526004016118fb9061892a565b60405180910390fd5b61190c613bca565b61191581613b3e565b50565b607860009054906101000a900460ff1681565b611933613bc2565b73ffffffffffffffffffffffffffffffffffffffff16611951611e5f565b73ffffffffffffffffffffffffffffffffffffffff16146119a7576040517f08c379a000000000000000000000000000000000000000000000000000000000815260040161199e9061892a565b60405180910390fd5b600073ffffffffffffffffffffffffffffffffffffffff16603360009054906101000a900473ffffffffffffffffffffffffffffffffffffffff1673ffffffffffffffffffffffffffffffffffffffff167f8be0079c531659141344cd1fd0a4f28419497f9722a3daafe3b4186f6b6457e060405160405180910390a36000603360006101000a81548173ffffffffffffffffffffffffffffffffffffffff021916908373ffffffffffffffffffffffffffffffffffffffff160217905550565b606660009054906101000a900473ffffffffffffffffffffffffffffffffffffffff1681565b606c5481565b600080606960000160089054906101000a900463ffffffff1663ffffffff161415611ac25760009050611b14565b611b08606960000160089054906101000a900463ffffffff1663ffffffff16606a60009054906101000a900463ffffffff1663ffffffff1661452090919063ffffffff16565b611b10614575565b1190505b90565b6000611b2161457d565b905090565b611b2e613bc2565b73ffffffffffffffffffffffffffffffffffffffff16611b4c611e5f565b73ffffffffffffffffffffffffffffffffffffffff1614611ba2576040517f08c379a0000000000000000000000000000000000000000000000000000000008152600401611b999061892a565b60405180910390fd5b611baa613bca565b611bb381614596565b50565b611bbe613bc2565b73ffffffffffffffffffffffffffffffffffffffff16611bdc611e5f565b73ffffffffffffffffffffffffffffffffffffffff1614611c32576040517f08c379a0000000000000000000000000000000000000000000000000000000008152600401611c299061892a565b60405180910390fd5b611c3a613bca565b8073ffffffffffffffffffffffffffffffffffffffff16600073ffffffffffffffffffffffffffffffffffffffff161480611ca15750611ca063575072c660e01b8273ffffffffffffffffffffffffffffffffffffffff16613c7a90919063ffffffff16565b5b611ce0576040517f08c379a0000000000000000000000000000000000000000000000000000000008152600401611cd790618a2a565b60405180910390fd5b80607360006101000a81548173ffffffffffffffffffffffffffffffffffffffff021916908373ffffffffffffffffffffffffffffffffffffffff1602179055508073ffffffffffffffffffffffffffffffffffffffff167fda05d50a3a1ec0ffab059f1d457ae59f68ccfb3ffbb4dad283c516f9103d584b60405160405180910390a250565b6000607554905090565b60606074805480602002602001604051908101604052809291908181526020016000905b82821015611e56578382906000526020600020016040518060600160405290816000820160009054906101000a900473ffffffffffffffffffffffffffffffffffffffff1673ffffffffffffffffffffffffffffffffffffffff1673ffffffffffffffffffffffffffffffffffffffff1681526020016000820160149054906101000a900461ffff1661ffff1661ffff1681526020016000820160169054906101000a900460ff1660ff1660ff168152505081526020019060010190611d95565b50505050905090565b6000603360009054906101000a900473ffffffffffffffffffffffffffffffffffffffff16905090565b60776020528060005260406000206000915054906101000a900460ff1681565b606b5481565b6060607160008373ffffffffffffffffffffffffffffffffffffffff1673ffffffffffffffffffffffffffffffffffffffff168152602001908152602001600020805480602002602001604051908101604052809291908181526020018280548015611f3a57602002820191906000526020600020905b815481526020019060010190808311611f26575b50505050509050919050565b6000611f5061457d565b905090565b607660009054906101000a900460ff1681565b6000611f72613bc2565b73ffffffffffffffffffffffffffffffffffffffff16611f90611e5f565b73ffffffffffffffffffffffffffffffffffffffff1614611fe6576040517f08c379a0000000000000000000000000000000000000000000000000000000008152600401611fdd9061892a565b60405180910390fd5b611fee613bca565b81607860006101000a81548160ff0219169083151502179055507f2b4b6ffe286f7ce4ccc6b136bb14987b0a00092174d88938a0c667a104a4a731826040516120379190618555565b60405180910390a160019050919050565b606a60009054906101000a900463ffffffff1681565b612066613bc2565b73ffffffffffffffffffffffffffffffffffffffff16612084611e5f565b73ffffffffffffffffffffffffffffffffffffffff16146120da576040517f08c379a00000000000000000000000000000000000000000000000000000000081526004016120d19061892a565b60405180910390fd5b6120e2613bca565b6120f88183606d6141bd9092919063ffffffff16565b8173ffffffffffffffffffffffffffffffffffffffff167f58982464497acdab11ad29d39907e076b0d3b8daf1d9b734174c7c3a2a0e8c7460405160405180910390a25050565b606660009054906101000a900473ffffffffffffffffffffffffffffffffffffffff1673ffffffffffffffffffffffffffffffffffffffff16612180613bc2565b73ffffffffffffffffffffffffffffffffffffffff16146121d6576040517f08c379a00000000000000000000000000000000000000000000000000000000081526004016121cd906187aa565b60405180910390fd5b8273ffffffffffffffffffffffffffffffffffffffff168473ffffffffffffffffffffffffffffffffffffffff161415612245576040517f08c379a000000000000000000000000000000000000000000000000000000000815260040161223c906187ca565b60405180910390fd5b606760009054906101000a900473ffffffffffffffffffffffffffffffffffffffff1673ffffffffffffffffffffffffffffffffffffffff168173ffffffffffffffffffffffffffffffffffffffff1614156122a4576122a3613bca565b5b600073ffffffffffffffffffffffffffffffffffffffff16606560009054906101000a900473ffffffffffffffffffffffffffffffffffffffff1673ffffffffffffffffffffffffffffffffffffffff161461238e57606560009054906101000a900473ffffffffffffffffffffffffffffffffffffffff1673ffffffffffffffffffffffffffffffffffffffff1663b2210957858585856040518563ffffffff1660e01b815260040161235b94939291906183d3565b600060405180830381600087803b15801561237557600080fd5b505af1158015612389573d6000803e3d6000fd5b505050505b50505050565b61239c613bc2565b73ffffffffffffffffffffffffffffffffffffffff166123ba611e5f565b73ffffffffffffffffffffffffffffffffffffffff1614612410576040517f08c379a00000000000000000000000000000000000000000000000000000000081526004016124079061892a565b60405180910390fd5b600082829050905060005b818110156128255761242b6167fe565b84848381811061243757fe5b90506060020180360381019061244d919061705a565b90506001816040015160ff16111561249a576040517f08c379a00000000000000000000000000000000000000000000000000000000081526004016124919061876a565b60405180910390fd5b600073ffffffffffffffffffffffffffffffffffffffff16816000015173ffffffffffffffffffffffffffffffffffffffff16141561250e576040517f08c379a00000000000000000000000000000000000000000000000000000000081526004016125059061884a565b60405180910390fd5b81607480549050116125d4576074819080600181540180825580915050600190039060005260206000200160009091909190915060008201518160000160006101000a81548173ffffffffffffffffffffffffffffffffffffffff021916908373ffffffffffffffffffffffffffffffffffffffff16021790555060208201518160000160146101000a81548161ffff021916908361ffff16021790555060408201518160000160166101000a81548160ff021916908360ff16021790555050506127b8565b6125dc6167fe565b607483815481106125e957fe5b906000526020600020016040518060600160405290816000820160009054906101000a900473ffffffffffffffffffffffffffffffffffffffff1673ffffffffffffffffffffffffffffffffffffffff1673ffffffffffffffffffffffffffffffffffffffff1681526020016000820160149054906101000a900461ffff1661ffff1661ffff1681526020016000820160169054906101000a900460ff1660ff1660ff16815250509050806000015173ffffffffffffffffffffffffffffffffffffffff16826000015173ffffffffffffffffffffffffffffffffffffffff161415806126e65750806020015161ffff16826020015161ffff1614155b806126ff5750806040015160ff16826040015160ff1614155b156127af57816074848154811061271257fe5b9060005260206000200160008201518160000160006101000a81548173ffffffffffffffffffffffffffffffffffffffff021916908373ffffffffffffffffffffffffffffffffffffffff16021790555060208201518160000160146101000a81548161ffff021916908361ffff16021790555060408201518160000160166101000a81548160ff021916908360ff1602179055509050506127b6565b5050612818565b505b806000015173ffffffffffffffffffffffffffffffffffffffff167fc1bf93444a0055a24a7d0154b75fedf78edfe355c06a2ce8e47f9f3908720559826020015183604001518560405161280e93929190618ac5565b60405180910390a2505b808060010191505061241b565b505b8060748054905011156128f457600061284f600160748054905061461c90919063ffffffff16565b9050607480548061285c57fe5b60019003818190600052602060002001600080820160006101000a81549073ffffffffffffffffffffffffffffffffffffffff02191690556000820160146101000a81549061ffff02191690556000820160166101000a81549060ff021916905550509055807f99fa473fdf53414bcd014cf6e7509fc58c68f7b86174767faa6ad5100cd5bae560405160405180910390a250612827565b60006128fe61466c565b90506103e8811115612945576040517f08c379a000000000000000000000000000000000000000000000000000000000815260040161293c9061896a565b60405180910390fd5b50505050565b607360009054906101000a900473ffffffffffffffffffffffffffffffffffffffff1681565b6000606660009054906101000a900473ffffffffffffffffffffffffffffffffffffffff1673ffffffffffffffffffffffffffffffffffffffff1663630665b46040518163ffffffff1660e01b815260040160206040518083038186803b1580156129db57600080fd5b505afa1580156129ef573d6000803e3d6000fd5b505050506040513d601f19601f82011682018060405250810190612a1391906170e8565b905090565b612a20611e5f565b73ffffffffffffffffffffffffffffffffffffffff16612a3e613bc2565b73ffffffffffffffffffffffffffffffffffffffff161480612ab45750607360009054906101000a900473ffffffffffffffffffffffffffffffffffffffff1673ffffffffffffffffffffffffffffffffffffffff16612a9c613bc2565b73ffffffffffffffffffffffffffffffffffffffff16145b80612b135750607260009054906101000a900473ffffffffffffffffffffffffffffffffffffffff1673ffffffffffffffffffffffffffffffffffffffff16612afb613bc2565b73ffffffffffffffffffffffffffffffffffffffff16145b612b52576040517f08c379a0000000000000000000000000000000000000000000000000000000008152600401612b499061870a565b60405180910390fd5b612b5a613bca565b606660009054906101000a900473ffffffffffffffffffffffffffffffffffffffff1673ffffffffffffffffffffffffffffffffffffffff16636a3fd4f9846040518263ffffffff1660e01b8152600401612bb59190618343565b60206040518083038186803b158015612bcd57600080fd5b505afa158015612be1573d6000803e3d6000fd5b505050506040513d601f19601f82011682018060405250810190612c059190616e6b565b612c44576040517f08c379a0000000000000000000000000000000000000000000000000000000008152600401612c3b906189aa565b60405180910390fd5b612c746380ac58cd60e01b8473ffffffffffffffffffffffffffffffffffffffff16613c7a90919063ffffffff16565b612cb3576040517f08c379a0000000000000000000000000000000000000000000000000000000008152600401612caa9061866a565b60405180910390fd5b612cc783606f61477d90919063ffffffff16565b612ce057612cdf83606f61488b90919063ffffffff16565b5b60005b82829050811015612d1757612d0a84848484818110612cfe57fe5b90506020020135614b7b565b8080600101915050612ce3565b508273ffffffffffffffffffffffffffffffffffffffff167f51541dc4b4c08a16085809cccdc4cc77d8000b60fbb00142e57f236d842986758383604051612d6092919061850f565b60405180910390a2505050565b6000612d77613aa7565b905090565b6000612d86610bb3565b60001c90506069600080820160006101000a81549063ffffffff02191690556000820160046101000a81549063ffffffff02191690556000820160086101000a81549063ffffffff02191690555050600073ffffffffffffffffffffffffffffffffffffffff16607260009054906101000a900473ffffffffffffffffffffffffffffffffffffffff1673ffffffffffffffffffffffffffffffffffffffff1614612ebd57607260009054906101000a900473ffffffffffffffffffffffffffffffffffffffff1673ffffffffffffffffffffffffffffffffffffffff16634cdf9c3e82606c546040518363ffffffff1660e01b8152600401612e8a929190618b4e565b600060405180830381600087803b158015612ea457600080fd5b505af1158015612eb8573d6000803e3d6000fd5b505050505b612ec681614def565b600073ffffffffffffffffffffffffffffffffffffffff16607360009054906101000a900473ffffffffffffffffffffffffffffffffffffffff1673ffffffffffffffffffffffffffffffffffffffff1614612fae57607360009054906101000a900473ffffffffffffffffffffffffffffffffffffffff1673ffffffffffffffffffffffffffffffffffffffff1663575072c682606c546040518363ffffffff1660e01b8152600401612f7b929190618b4e565b600060405180830381600087803b158015612f9557600080fd5b505af1158015612fa9573d6000803e3d6000fd5b505050505b612fbe612fb9614575565b613e8a565b606c81905550612fcc613bc2565b73ffffffffffffffffffffffffffffffffffffffff167f9c4163ece98173eab9a496c4db8bf3e2c8edcc5d2854377880597ccb858b7a9d826040516130119190618b33565b60405180910390a2606c54613024613bc2565b73ffffffffffffffffffffffffffffffffffffffff167fc61852c20f0b03b31d782f3022f2bf20322ac17ce66c5349fb6e24740cdd645660405160405180910390a350565b6130716167fe565b6074828154811061307e57fe5b906000526020600020016040518060600160405290816000820160009054906101000a900473ffffffffffffffffffffffffffffffffffffffff1673ffffffffffffffffffffffffffffffffffffffff1673ffffffffffffffffffffffffffffffffffffffff1681526020016000820160149054906101000a900461ffff1661ffff1661ffff1681526020016000820160169054906101000a900460ff1660ff1660ff16815250509050919050565b613135613bc2565b73ffffffffffffffffffffffffffffffffffffffff16613153611e5f565b73ffffffffffffffffffffffffffffffffffffffff16146131a9576040517f08c379a00000000000000000000000000000000000000000000000000000000081526004016131a09061892a565b60405180910390fd5b600073ffffffffffffffffffffffffffffffffffffffff168173ffffffffffffffffffffffffffffffffffffffff161415613219576040517f08c379a0000000000000000000000000000000000000000000000000000000008152600401613210906186ea565b60405180910390fd5b8073ffffffffffffffffffffffffffffffffffffffff16603360009054906101000a900473ffffffffffffffffffffffffffffffffffffffff1673ffffffffffffffffffffffffffffffffffffffff167f8be0079c531659141344cd1fd0a4f28419497f9722a3daafe3b4186f6b6457e060405160405180910390a380603360006101000a81548173ffffffffffffffffffffffffffffffffffffffff021916908373ffffffffffffffffffffffffffffffffffffffff16021790555050565b600060019054906101000a900460ff16806132f857506132f7613b2d565b5b8061330e575060008054906101000a900460ff16155b61334d576040517f08c379a00000000000000000000000000000000000000000000000000000000081526004016133449061888a565b60405180910390fd5b60008060019054906101000a900460ff16159050801561339d576001600060016101000a81548160ff02191690831515021790555060016000806101000a81548160ff0219169083151502179055505b600073ffffffffffffffffffffffffffffffffffffffff168573ffffffffffffffffffffffffffffffffffffffff16141561340d576040517f08c379a00000000000000000000000000000000000000000000000000000000081526004016134049061880a565b60405180910390fd5b600073ffffffffffffffffffffffffffffffffffffffff168473ffffffffffffffffffffffffffffffffffffffff16141561347d576040517f08c379a000000000000000000000000000000000000000000000000000000000815260040161347490618a0a565b60405180910390fd5b600073ffffffffffffffffffffffffffffffffffffffff168373ffffffffffffffffffffffffffffffffffffffff1614156134ed576040517f08c379a00000000000000000000000000000000000000000000000000000000081526004016134e49061874a565b60405180910390fd5b84606660006101000a81548173ffffffffffffffffffffffffffffffffffffffff021916908373ffffffffffffffffffffffffffffffffffffffff16021790555083606760006101000a81548173ffffffffffffffffffffffffffffffffffffffff021916908373ffffffffffffffffffffffffffffffffffffffff16021790555082606860006101000a81548173ffffffffffffffffffffffffffffffffffffffff021916908373ffffffffffffffffffffffffffffffffffffffff1602179055506135b986614596565b6135c1615533565b731820a4b7618bde71dce8cdc73aab6c95905fad2473ffffffffffffffffffffffffffffffffffffffff166329965a1d307fb281fc8c12954d22544db45de3159a39272895b169a852b314f9cc762e44c53b60001b306040518463ffffffff1660e01b815260040161363593929190618418565b600060405180830381600087803b15801561364f57600080fd5b505af1158015613663573d6000803e3d6000fd5b50505050613671606d61562b565b60005b82518110156136a65761369983828151811061368c57fe5b6020026020010151613ee9565b8080600101915050613674565b5085606b8190555086606c819055506136bf606f61562b565b8473ffffffffffffffffffffffffffffffffffffffff167f08df3eb19fd45e75c3427461686799fdfd60a8c9a1d0880105960f65a513ce74888887878760405161370d959493929190618b77565b60405180910390a2606c54613720613bc2565b73ffffffffffffffffffffffffffffffffffffffff167fc61852c20f0b03b31d782f3022f2bf20322ac17ce66c5349fb6e24740cdd645660405160405180910390a380156137835760008060016101000a81548160ff0219169083151502179055505b50505050505050565b613794613bc2565b73ffffffffffffffffffffffffffffffffffffffff166137b2611e5f565b73ffffffffffffffffffffffffffffffffffffffff1614613808576040517f08c379a00000000000000000000000000000000000000000000000000000000081526004016137ff9061892a565b60405180910390fd5b6074805490508160ff1610613852576040517f08c379a0000000000000000000000000000000000000000000000000000000008152600401613849906188aa565b60405180910390fd5b6001826040015160ff16111561389d576040517f08c379a00000000000000000000000000000000000000000000000000000000081526004016138949061876a565b60405180910390fd5b600073ffffffffffffffffffffffffffffffffffffffff16826000015173ffffffffffffffffffffffffffffffffffffffff161415613911576040517f08c379a00000000000000000000000000000000000000000000000000000000081526004016139089061884a565b60405180910390fd5b8160748260ff168154811061392257fe5b9060005260206000200160008201518160000160006101000a81548173ffffffffffffffffffffffffffffffffffffffff021916908373ffffffffffffffffffffffffffffffffffffffff16021790555060208201518160000160146101000a81548161ffff021916908361ffff16021790555060408201518160000160166101000a81548160ff021916908360ff16021790555090505060006139c461466c565b90506103e8811115613a0b576040517f08c379a0000000000000000000000000000000000000000000000000000000008152600401613a029061896a565b60405180910390fd5b826000015173ffffffffffffffffffffffffffffffffffffffff167fc1bf93444a0055a24a7d0154b75fedf78edfe355c06a2ce8e47f9f39087205598460200151856040015185604051613a6193929190618afc565b60405180910390a2505050565b6040518060400160405280600581526020017f332e342e3100000000000000000000000000000000000000000000000000000081525081565b600080613ab2613c5c565b90506000613abe614575565b905081811115613ad357600092505050613aeb565b613ae6818361461c90919063ffffffff16565b925050505b90565b600080613b0c84670de0b6b3a76400006156f790919063ffffffff16565b9050613b21838261576790919063ffffffff16565b90508091505092915050565b6000613b38306157b1565b15905090565b60008111613b81576040517f08c379a0000000000000000000000000000000000000000000000000000000008152600401613b78906188ea565b60405180910390fd5b806075819055507fc44c7222e8df09744ced394101df47e78dedb642d3065267bb388901de9df6d481604051613bb79190618b33565b60405180910390a150565b600033905090565b6000613bd46157c4565b90506000606960000160049054906101000a900463ffffffff1663ffffffff161480613c1a5750606960000160049054906101000a900463ffffffff1663ffffffff1681105b613c59576040517f08c379a0000000000000000000000000000000000000000000000000000000008152600401613c5090618a6a565b60405180910390fd5b50565b6000613c75606b54606c5461452090919063ffffffff16565b905090565b6000613c85836157cc565b8015613c975750613c968383615800565b5b905092915050565b606080826000015467ffffffffffffffff81118015613cbd57600080fd5b50604051908082528060200260200182016040528015613cec5781602001602082028036833780820191505090505b509050600080846001016000600173ffffffffffffffffffffffffffffffffffffffff1673ffffffffffffffffffffffffffffffffffffffff16815260200190815260200160002060009054906101000a900473ffffffffffffffffffffffffffffffffffffffff1690505b600073ffffffffffffffffffffffffffffffffffffffff168173ffffffffffffffffffffffffffffffffffffffff1614158015613dc25750600173ffffffffffffffffffffffffffffffffffffffff168173ffffffffffffffffffffffffffffffffffffffff1614155b15613e7f5780838381518110613dd457fe5b602002602001019073ffffffffffffffffffffffffffffffffffffffff16908173ffffffffffffffffffffffffffffffffffffffff16815250508460010160008273ffffffffffffffffffffffffffffffffffffffff1673ffffffffffffffffffffffffffffffffffffffff16815260200190815260200160002060009054906101000a900473ffffffffffffffffffffffffffffffffffffffff1690508180600101925050613d58565b829350505050919050565b600080613eb6606b54613ea8606c548661461c90919063ffffffff16565b61582790919063ffffffff16565b9050613ee1613ed0606b548361587d90919063ffffffff16565b606c5461452090919063ffffffff16565b915050919050565b613f088173ffffffffffffffffffffffffffffffffffffffff166157b1565b613f47576040517f08c379a0000000000000000000000000000000000000000000000000000000008152600401613f3e906188ca565b60405180910390fd5b606660009054906101000a900473ffffffffffffffffffffffffffffffffffffffff1673ffffffffffffffffffffffffffffffffffffffff16636a3fd4f9826040518263ffffffff1660e01b8152600401613fa29190618343565b60206040518083038186803b158015613fba57600080fd5b505afa158015613fce573d6000803e3d6000fd5b505050506040513d601f19601f82011682018060405250810190613ff29190616e6b565b614031576040517f08c379a0000000000000000000000000000000000000000000000000000000008152600401614028906189aa565b60405180910390fd5b600060608273ffffffffffffffffffffffffffffffffffffffff166040516024016040516020818303038152906040527f18160ddd000000000000000000000000000000000000000000000000000000007bffffffffffffffffffffffffffffffffffffffffffffffffffffffff19166020820180517bffffffffffffffffffffffffffffffffffffffffffffffffffffffff83818316178352505050506040516140dc9190618311565b600060405180830381855afa9150503d8060008114614117576040519150601f19603f3d011682016040523d82523d6000602084013e61411c565b606091505b509150915081614161576040517f08c379a00000000000000000000000000000000000000000000000000000000081526004016141589061886a565b60405180910390fd5b61417583606d61488b90919063ffffffff16565b8273ffffffffffffffffffffffffffffffffffffffff167fbcd6d991f3416e288bf59a2997b423772937b62c7ea7dd1a54af7771de1f741860405160405180910390a2505050565b600173ffffffffffffffffffffffffffffffffffffffff168173ffffffffffffffffffffffffffffffffffffffff16141580156142275750600073ffffffffffffffffffffffffffffffffffffffff168173ffffffffffffffffffffffffffffffffffffffff1614155b614266576040517f08c379a000000000000000000000000000000000000000000000000000000000815260040161425d906186aa565b60405180910390fd5b8073ffffffffffffffffffffffffffffffffffffffff168360010160008473ffffffffffffffffffffffffffffffffffffffff1673ffffffffffffffffffffffffffffffffffffffff16815260200190815260200160002060009054906101000a900473ffffffffffffffffffffffffffffffffffffffff1673ffffffffffffffffffffffffffffffffffffffff1614614335576040517f08c379a000000000000000000000000000000000000000000000000000000000815260040161432c906186ca565b60405180910390fd5b8260010160008273ffffffffffffffffffffffffffffffffffffffff1673ffffffffffffffffffffffffffffffffffffffff16815260200190815260200160002060009054906101000a900473ffffffffffffffffffffffffffffffffffffffff168360010160008473ffffffffffffffffffffffffffffffffffffffff1673ffffffffffffffffffffffffffffffffffffffff16815260200190815260200160002060006101000a81548173ffffffffffffffffffffffffffffffffffffffff021916908373ffffffffffffffffffffffffffffffffffffffff1602179055508260010160008273ffffffffffffffffffffffffffffffffffffffff1673ffffffffffffffffffffffffffffffffffffffff16815260200190815260200160002060006101000a81549073ffffffffffffffffffffffffffffffffffffffff021916905560018360000154038360000181905550505050565b607160008273ffffffffffffffffffffffffffffffffffffffff1673ffffffffffffffffffffffffffffffffffffffff16815260200190815260200160002060006144da919061683c565b8073ffffffffffffffffffffffffffffffffffffffff167fcd64d9dacd230c5ccf1278ea5332b0621aa28c950fb0e61c8fbc9e2011c88a3460405160405180910390a250565b60008082840190508381101561456b576040517f08c379a00000000000000000000000000000000000000000000000000000000081526004016145629061872a565b60405180910390fd5b8091505092915050565b600042905090565b6000614587613c5c565b61458f614575565b1015905090565b600081116145d9576040517f08c379a00000000000000000000000000000000000000000000000000000000081526004016145d09061878a565b60405180910390fd5b80606b819055507f0d379c1a7282461e725a9dc2d74e65246c77e98ae93835e26c2f1654c48ee4ec606b546040516146119190618b33565b60405180910390a150565b600082821115614661576040517f08c379a0000000000000000000000000000000000000000000000000000000008152600401614658906187ea565b60405180910390fd5b818303905092915050565b6000806000607480549050905060005b818160ff1610156147745761468f6167fe565b60748260ff168154811061469f57fe5b906000526020600020016040518060600160405290816000820160009054906101000a900473ffffffffffffffffffffffffffffffffffffffff1673ffffffffffffffffffffffffffffffffffffffff1673ffffffffffffffffffffffffffffffffffffffff1681526020016000820160149054906101000a900461ffff1661ffff1661ffff1681526020016000820160169054906101000a900460ff1660ff1660ff16815250509050614764816020015161ffff168561452090919063ffffffff16565b935050808060010191505061467c565b50819250505090565b6000600173ffffffffffffffffffffffffffffffffffffffff168273ffffffffffffffffffffffffffffffffffffffff16141580156147e95750600073ffffffffffffffffffffffffffffffffffffffff168273ffffffffffffffffffffffffffffffffffffffff1614155b80156148835750600073ffffffffffffffffffffffffffffffffffffffff168360010160008473ffffffffffffffffffffffffffffffffffffffff1673ffffffffffffffffffffffffffffffffffffffff16815260200190815260200160002060009054906101000a900473ffffffffffffffffffffffffffffffffffffffff1673ffffffffffffffffffffffffffffffffffffffff1614155b905092915050565b600173ffffffffffffffffffffffffffffffffffffffff168173ffffffffffffffffffffffffffffffffffffffff16141580156148f55750600073ffffffffffffffffffffffffffffffffffffffff168173ffffffffffffffffffffffffffffffffffffffff1614155b614934576040517f08c379a000000000000000000000000000000000000000000000000000000000815260040161492b906186aa565b60405180910390fd5b600073ffffffffffffffffffffffffffffffffffffffff168260010160008373ffffffffffffffffffffffffffffffffffffffff1673ffffffffffffffffffffffffffffffffffffffff16815260200190815260200160002060009054906101000a900473ffffffffffffffffffffffffffffffffffffffff1673ffffffffffffffffffffffffffffffffffffffff1614614a04576040517f08c379a00000000000000000000000000000000000000000000000000000000081526004016149fb906189ca565b60405180910390fd5b816001016000600173ffffffffffffffffffffffffffffffffffffffff1673ffffffffffffffffffffffffffffffffffffffff16815260200190815260200160002060009054906101000a900473ffffffffffffffffffffffffffffffffffffffff168260010160008373ffffffffffffffffffffffffffffffffffffffff1673ffffffffffffffffffffffffffffffffffffffff16815260200190815260200160002060006101000a81548173ffffffffffffffffffffffffffffffffffffffff021916908373ffffffffffffffffffffffffffffffffffffffff16021790555080826001016000600173ffffffffffffffffffffffffffffffffffffffff1673ffffffffffffffffffffffffffffffffffffffff16815260200190815260200160002060006101000a81548173ffffffffffffffffffffffffffffffffffffffff021916908373ffffffffffffffffffffffffffffffffffffffff160217905550600182600001540182600001819055505050565b606660009054906101000a900473ffffffffffffffffffffffffffffffffffffffff1673ffffffffffffffffffffffffffffffffffffffff168273ffffffffffffffffffffffffffffffffffffffff16636352211e836040518263ffffffff1660e01b8152600401614bed9190618b33565b60206040518083038186803b158015614c0557600080fd5b505afa158015614c19573d6000803e3d6000fd5b505050506040513d601f19601f82011682018060405250810190614c3d9190616c4c565b73ffffffffffffffffffffffffffffffffffffffff1614614c93576040517f08c379a0000000000000000000000000000000000000000000000000000000008152600401614c8a90618a8a565b60405180910390fd5b60005b607160008473ffffffffffffffffffffffffffffffffffffffff1673ffffffffffffffffffffffffffffffffffffffff16815260200190815260200160002080549050811015614d845781607160008573ffffffffffffffffffffffffffffffffffffffff1673ffffffffffffffffffffffffffffffffffffffff1681526020019081526020016000208281548110614d2b57fe5b90600052602060002001541415614d77576040517f08c379a0000000000000000000000000000000000000000000000000000000008152600401614d6e90618a4a565b60405180910390fd5b8080600101915050614c96565b50607160008373ffffffffffffffffffffffffffffffffffffffff1673ffffffffffffffffffffffffffffffffffffffff1681526020019081526020016000208190806001815401808255809150506001900390600052602060002001600090919091909150555050565b6000606660009054906101000a900473ffffffffffffffffffffffffffffffffffffffff1673ffffffffffffffffffffffffffffffffffffffff1663e6d8a94b6040518163ffffffff1660e01b8152600401602060405180830381600087803b158015614e5b57600080fd5b505af1158015614e6f573d6000803e3d6000fd5b505050506040513d601f19601f82011682018060405250810190614e9391906170e8565b9050614e9e816158ed565b90506000606760009054906101000a900473ffffffffffffffffffffffffffffffffffffffff1673ffffffffffffffffffffffffffffffffffffffff166318160ddd6040518163ffffffff1660e01b815260040160206040518083038186803b158015614f0a57600080fd5b505afa158015614f1e573d6000803e3d6000fd5b505050506040513d601f19601f82011682018060405250810190614f4291906170e8565b1415614f7a577f3728feb3fc1ef1bf4a24036afbe7d34b59c551bf0d2ab5564e87ec1734fa80dd60405160405180910390a150615530565b6000607860009054906101000a900460ff1690506000607554905060608167ffffffffffffffff81118015614fae57600080fd5b50604051908082528060200260200182016040528015614fdd5781602001602082028036833780820191505090505b5090506000859050600080600060795490505b8583101561520d576000606760009054906101000a900473ffffffffffffffffffffffffffffffffffffffff1673ffffffffffffffffffffffffffffffffffffffff16633b304147866040518263ffffffff1660e01b81526004016150559190618b33565b60206040518083038186803b15801561506d57600080fd5b505afa158015615081573d6000803e3d6000fd5b505050506040513d601f19601f820116820180604052508101906150a59190616c4c565b9050607760008273ffffffffffffffffffffffffffffffffffffffff1673ffffffffffffffffffffffffffffffffffffffff16815260200190815260200160002060009054906101000a900460ff1661514a578086858060010196508151811061510b57fe5b602002602001019073ffffffffffffffffffffffffffffffffffffffff16908173ffffffffffffffffffffffffffffffffffffffff16815250506151cb565b8183600101935083106151ca577fb5f728fcb182000eb8e953c15f6795f07b6cda75b35ef0b65645b53aac636945846040516151869190618b33565b60405180910390a160008414156151c4577f3728feb3fc1ef1bf4a24036afbe7d34b59c551bf0d2ab5564e87ec1734fa80dd60405160405180910390a15b5061520d565b5b600061020985026101f38701016040516020016151e89190618328565b6040516020818303038152906040528051906020012090508060001c95505050614ff0565b61522a8560008151811061521d57fe5b6020026020010151615a1b565b60008761524957615244848a61582790919063ffffffff16565b61525d565b61525c878a61582790919063ffffffff16565b5b9050600081111561529f5760005b8481101561529d5761529087828151811061528257fe5b602002602001015183615c5c565b808060010191505061526b565b505b607660009054906101000a900460ff16156155085760006152c0606d615d13565b90505b600073ffffffffffffffffffffffffffffffffffffffff168173ffffffffffffffffffffffffffffffffffffffff16141580156153355750615305606d615d7f565b73ffffffffffffffffffffffffffffffffffffffff168173ffffffffffffffffffffffffffffffffffffffff1614155b156155025760008173ffffffffffffffffffffffffffffffffffffffff166370a08231606660009054906101000a900473ffffffffffffffffffffffffffffffffffffffff166040518263ffffffff1660e01b81526004016153979190618343565b60206040518083038186803b1580156153af57600080fd5b505afa1580156153c3573d6000803e3d6000fd5b505050506040513d601f19601f820116820180604052508101906153e791906170e8565b905060008a61540857615403878361582790919063ffffffff16565b61541c565b61541b8a8361582790919063ffffffff16565b5b905060008111156154e55760005b878110156154e357606660009054906101000a900473ffffffffffffffffffffffffffffffffffffffff1673ffffffffffffffffffffffffffffffffffffffff16632b0ab1448b838151811061547c57fe5b602002602001015186856040518463ffffffff1660e01b81526004016154a49392919061839c565b600060405180830381600087803b1580156154be57600080fd5b505af11580156154d2573d6000803e3d6000fd5b50505050808060010191505061542a565b505b6154f983606d615d8a90919063ffffffff16565b925050506152c3565b50615526565b6155258660008151811061551857fe5b6020026020010151615df6565b5b5050505050505050505b50565b600060019054906101000a900460ff16806155525750615551613b2d565b5b80615568575060008054906101000a900460ff16155b6155a7576040517f08c379a000000000000000000000000000000000000000000000000000000000815260040161559e9061888a565b60405180910390fd5b60008060019054906101000a900460ff1615905080156155f7576001600060016101000a81548160ff02191690831515021790555060016000806101000a81548160ff0219169083151502179055505b6155ff615fe6565b6156076160ce565b80156156285760008060016101000a81548160ff0219169083151502179055505b50565b6000816000015414615672576040517f08c379a00000000000000000000000000000000000000000000000000000000081526004016156699061894a565b60405180910390fd5b6001816001016000600173ffffffffffffffffffffffffffffffffffffffff1673ffffffffffffffffffffffffffffffffffffffff16815260200190815260200160002060006101000a81548173ffffffffffffffffffffffffffffffffffffffff021916908373ffffffffffffffffffffffffffffffffffffffff16021790555050565b60008083141561570a5760009050615761565b600082840290508284828161571b57fe5b041461575c576040517f08c379a00000000000000000000000000000000000000000000000000000000081526004016157539061890a565b60405180910390fd5b809150505b92915050565b60006157a983836040518060400160405280601a81526020017f536166654d6174683a206469766973696f6e206279207a65726f00000000000081525061625f565b905092915050565b600080823b905060008111915050919050565b600043905090565b60006157df826301ffc9a760e01b615800565b80156157f957506157f78263ffffffff60e01b615800565b155b9050919050565b600080600061580f85856162c0565b9150915081801561581d5750805b9250505092915050565b600080821161586b576040517f08c379a00000000000000000000000000000000000000000000000000000000081526004016158629061882a565b60405180910390fd5b81838161587457fe5b04905092915050565b60008083141561589057600090506158e7565b60008284029050828482816158a157fe5b04146158e2576040517f08c379a00000000000000000000000000000000000000000000000000000000081526004016158d99061890a565b60405180910390fd5b809150505b92915050565b6000808290506000607480549050905060005b81811015615a10576159106167fe565b6074828154811061591d57fe5b906000526020600020016040518060600160405290816000820160009054906101000a900473ffffffffffffffffffffffffffffffffffffffff1673ffffffffffffffffffffffffffffffffffffffff1673ffffffffffffffffffffffffffffffffffffffff1681526020016000820160149054906101000a900461ffff1661ffff1661ffff1681526020016000820160169054906101000a900460ff1660ff1660ff1681525050905060006159d78583602001516163ec565b90506159ec8260000151828460400151616411565b6159ff818861461c90919063ffffffff16565b965050508080600101915050615900565b508392505050919050565b6000615a27606f615d13565b90505b600073ffffffffffffffffffffffffffffffffffffffff168173ffffffffffffffffffffffffffffffffffffffff1614158015615a9c5750615a6c606f615d7f565b73ffffffffffffffffffffffffffffffffffffffff168173ffffffffffffffffffffffffffffffffffffffff1614155b15615c4e5760008173ffffffffffffffffffffffffffffffffffffffff166370a08231606660009054906101000a900473ffffffffffffffffffffffffffffffffffffffff166040518263ffffffff1660e01b8152600401615afe9190618343565b60206040518083038186803b158015615b1657600080fd5b505afa158015615b2a573d6000803e3d6000fd5b505050506040513d601f19601f82011682018060405250810190615b4e91906170e8565b90506000811115615c3257606660009054906101000a900473ffffffffffffffffffffffffffffffffffffffff1673ffffffffffffffffffffffffffffffffffffffff166316960d558484607160008773ffffffffffffffffffffffffffffffffffffffff1673ffffffffffffffffffffffffffffffffffffffff1681526020019081526020016000206040518463ffffffff1660e01b8152600401615bf69392919061835e565b600060405180830381600087803b158015615c1057600080fd5b505af1158015615c24573d6000803e3d6000fd5b50505050615c318261448f565b5b615c4682606f615d8a90919063ffffffff16565b915050615a2a565b615c58606f616421565b5050565b606660009054906101000a900473ffffffffffffffffffffffffffffffffffffffff1673ffffffffffffffffffffffffffffffffffffffff16636b1b863a8383606760009054906101000a900473ffffffffffffffffffffffffffffffffffffffff166040518463ffffffff1660e01b8152600401615cdd9392919061844f565b600060405180830381600087803b158015615cf757600080fd5b505af1158015615d0b573d6000803e3d6000fd5b505050505050565b6000816001016000600173ffffffffffffffffffffffffffffffffffffffff1673ffffffffffffffffffffffffffffffffffffffff16815260200190815260200160002060009054906101000a900473ffffffffffffffffffffffffffffffffffffffff169050919050565b600060019050919050565b60008260010160008373ffffffffffffffffffffffffffffffffffffffff1673ffffffffffffffffffffffffffffffffffffffff16815260200190815260200160002060009054906101000a900473ffffffffffffffffffffffffffffffffffffffff16905092915050565b6000615e02606d615d13565b90505b600073ffffffffffffffffffffffffffffffffffffffff168173ffffffffffffffffffffffffffffffffffffffff1614158015615e775750615e47606d615d7f565b73ffffffffffffffffffffffffffffffffffffffff168173ffffffffffffffffffffffffffffffffffffffff1614155b15615fe25760008173ffffffffffffffffffffffffffffffffffffffff166370a08231606660009054906101000a900473ffffffffffffffffffffffffffffffffffffffff166040518263ffffffff1660e01b8152600401615ed99190618343565b60206040518083038186803b158015615ef157600080fd5b505afa158015615f05573d6000803e3d6000fd5b505050506040513d601f19601f82011682018060405250810190615f2991906170e8565b90506000811115615fc657606660009054906101000a900473ffffffffffffffffffffffffffffffffffffffff1673ffffffffffffffffffffffffffffffffffffffff16632b0ab1448484846040518463ffffffff1660e01b8152600401615f939392919061839c565b600060405180830381600087803b158015615fad57600080fd5b505af1158015615fc1573d6000803e3d6000fd5b505050505b615fda82606d615d8a90919063ffffffff16565b915050615e05565b5050565b600060019054906101000a900460ff16806160055750616004613b2d565b5b8061601b575060008054906101000a900460ff16155b61605a576040517f08c379a00000000000000000000000000000000000000000000000000000000081526004016160519061888a565b60405180910390fd5b60008060019054906101000a900460ff1615905080156160aa576001600060016101000a81548160ff02191690831515021790555060016000806101000a81548160ff0219169083151502179055505b80156160cb5760008060016101000a81548160ff0219169083151502179055505b50565b600060019054906101000a900460ff16806160ed57506160ec613b2d565b5b80616103575060008054906101000a900460ff16155b616142576040517f08c379a00000000000000000000000000000000000000000000000000000000081526004016161399061888a565b60405180910390fd5b60008060019054906101000a900460ff161590508015616192576001600060016101000a81548160ff02191690831515021790555060016000806101000a81548160ff0219169083151502179055505b600061619c613bc2565b905080603360006101000a81548173ffffffffffffffffffffffffffffffffffffffff021916908373ffffffffffffffffffffffffffffffffffffffff1602179055508073ffffffffffffffffffffffffffffffffffffffff16600073ffffffffffffffffffffffffffffffffffffffff167f8be0079c531659141344cd1fd0a4f28419497f9722a3daafe3b4186f6b6457e060405160405180910390a350801561625c5760008060016101000a81548160ff0219169083151502179055505b50565b600080831182906162a6576040517f08c379a000000000000000000000000000000000000000000000000000000000815260040161629d9190618648565b60405180910390fd5b5060008385816162b257fe5b049050809150509392505050565b60008060606301ffc9a760e01b846040516024016162de919061858b565b604051602081830303815290604052907bffffffffffffffffffffffffffffffffffffffffffffffffffffffff19166020820180517bffffffffffffffffffffffffffffffffffffffffffffffffffffffff83818316178352505050509050600060608673ffffffffffffffffffffffffffffffffffffffff16617530846040516163699190618311565b6000604051808303818686fa925050503d80600081146163a5576040519150601f19603f3d011682016040523d82523d6000602084013e6163aa565b606091505b50915091506020815110156163c857600080945094505050506163e5565b81818060200190518101906163dd9190616e6b565b945094505050505b9250929050565b60006164096103e88361ffff16850261582790919063ffffffff16565b905092915050565b61641c83838361665b565b505050565b6000816001016000600173ffffffffffffffffffffffffffffffffffffffff1673ffffffffffffffffffffffffffffffffffffffff16815260200190815260200160002060009054906101000a900473ffffffffffffffffffffffffffffffffffffffff1690505b600073ffffffffffffffffffffffffffffffffffffffff168173ffffffffffffffffffffffffffffffffffffffff16141580156164f35750600173ffffffffffffffffffffffffffffffffffffffff168173ffffffffffffffffffffffffffffffffffffffff1614155b156165cb5760008260010160008373ffffffffffffffffffffffffffffffffffffffff1673ffffffffffffffffffffffffffffffffffffffff16815260200190815260200160002060009054906101000a900473ffffffffffffffffffffffffffffffffffffffff1690508260010160008373ffffffffffffffffffffffffffffffffffffffff1673ffffffffffffffffffffffffffffffffffffffff16815260200190815260200160002060006101000a81549073ffffffffffffffffffffffffffffffffffffffff021916905580915050616489565b6001826001016000600173ffffffffffffffffffffffffffffffffffffffff1673ffffffffffffffffffffffffffffffffffffffff16815260200190815260200160002060006101000a81548173ffffffffffffffffffffffffffffffffffffffff021916908373ffffffffffffffffffffffffffffffffffffffff160217905550600082600001819055505050565b6060606660009054906101000a900473ffffffffffffffffffffffffffffffffffffffff1673ffffffffffffffffffffffffffffffffffffffff16639d63848a6040518163ffffffff1660e01b815260040160006040518083038186803b1580156166c557600080fd5b505afa1580156166d9573d6000803e3d6000fd5b505050506040513d6000823e3d601f19601f820116820180604052508101906167029190616d77565b905080518260ff16111561674b576040517f08c379a0000000000000000000000000000000000000000000000000000000008152600401616742906189ea565b60405180910390fd5b6000818360ff168151811061675c57fe5b60200260200101519050606660009054906101000a900473ffffffffffffffffffffffffffffffffffffffff1673ffffffffffffffffffffffffffffffffffffffff16636b1b863a8686846040518463ffffffff1660e01b81526004016167c59392919061844f565b600060405180830381600087803b1580156167df57600080fd5b505af11580156167f3573d6000803e3d6000fd5b505050505050505050565b6040518060600160405280600073ffffffffffffffffffffffffffffffffffffffff168152602001600061ffff168152602001600060ff1681525090565b508054600082559060005260206000209081019061685a919061685d565b50565b5b8082111561687657600081600090555060010161685e565b5090565b6000813590506168898161905f565b92915050565b60008151905061689e8161905f565b92915050565b600082601f8301126168b557600080fd5b81516168c86168c382618c19565b618bec565b915081818352602084019350602081019050838560208402820111156168ed57600080fd5b60005b8381101561691d57816169038882616adc565b8452602084019350602083019250506001810190506168f0565b5050505092915050565b60008083601f84011261693957600080fd5b8235905067ffffffffffffffff81111561695257600080fd5b60208301915083602082028301111561696a57600080fd5b9250929050565b600082601f83011261698257600080fd5b813561699561699082618c41565b618bec565b915081818352602084019350602081019050838560208402820111156169ba57600080fd5b60005b838110156169ea57816169d08882616af1565b8452602084019350602083019250506001810190506169bd565b5050505092915050565b60008083601f840112616a0657600080fd5b8235905067ffffffffffffffff811115616a1f57600080fd5b602083019150836060820283011115616a3757600080fd5b9250929050565b60008083601f840112616a5057600080fd5b8235905067ffffffffffffffff811115616a6957600080fd5b602083019150836020820283011115616a8157600080fd5b9250929050565b600081359050616a9781619076565b92915050565b600081519050616aac81619076565b92915050565b600081359050616ac18161908d565b92915050565b600081359050616ad6816190a4565b92915050565b600081519050616aeb816190bb565b92915050565b600081359050616b00816190d2565b92915050565b600081359050616b15816190e9565b92915050565b600081359050616b2a81619100565b92915050565b600081359050616b3f81619117565b92915050565b600081359050616b548161912e565b92915050565b600081359050616b6981619145565b92915050565b600060608284031215616b8157600080fd5b616b8b6060618bec565b90506000616b9b8482850161687a565b6000830152506020616baf84828501616bcf565b6020830152506040616bc384828501616c0e565b60408301525092915050565b600081359050616bde8161915c565b92915050565b600081359050616bf381619173565b92915050565b600081519050616c0881619173565b92915050565b600081359050616c1d8161918a565b92915050565b600060208284031215616c3557600080fd5b6000616c438482850161687a565b91505092915050565b600060208284031215616c5e57600080fd5b6000616c6c8482850161688f565b91505092915050565b60008060008060808587031215616c8b57600080fd5b6000616c998782880161687a565b9450506020616caa8782880161687a565b9350506040616cbb87828801616be4565b9250506060616ccc8782880161687a565b91505092959194509250565b60008060408385031215616ceb57600080fd5b6000616cf98582860161687a565b9250506020616d0a85828601616a88565b9150509250929050565b60008060008060808587031215616d2a57600080fd5b6000616d388782880161687a565b9450506020616d4987828801616be4565b9350506040616d5a8782880161687a565b9250506060616d6b8782880161687a565b91505092959194509250565b600060208284031215616d8957600080fd5b600082015167ffffffffffffffff811115616da357600080fd5b616daf848285016168a4565b91505092915050565b60008060208385031215616dcb57600080fd5b600083013567ffffffffffffffff811115616de557600080fd5b616df185828601616927565b92509250509250929050565b60008060208385031215616e1057600080fd5b600083013567ffffffffffffffff811115616e2a57600080fd5b616e36858286016169f4565b92509250509250929050565b600060208284031215616e5457600080fd5b6000616e6284828501616a88565b91505092915050565b600060208284031215616e7d57600080fd5b6000616e8b84828501616a9d565b91505092915050565b600060208284031215616ea657600080fd5b6000616eb484828501616ab2565b91505092915050565b600060208284031215616ecf57600080fd5b6000616edd84828501616ac7565b91505092915050565b600060208284031215616ef857600080fd5b6000616f0684828501616af1565b91505092915050565b60008060408385031215616f2257600080fd5b6000616f3085828601616af1565b9250506020616f4185828601616af1565b9150509250929050565b600060208284031215616f5d57600080fd5b6000616f6b84828501616b06565b91505092915050565b600080600060408486031215616f8957600080fd5b6000616f9786828701616b06565b935050602084013567ffffffffffffffff811115616fb457600080fd5b616fc086828701616a3e565b92509250509250925092565b60008060408385031215616fdf57600080fd5b6000616fed85828601616b06565b9250506020616ffe85828601616b06565b9150509250929050565b60006020828403121561701a57600080fd5b600061702884828501616b1b565b91505092915050565b60006020828403121561704357600080fd5b600061705184828501616b5a565b91505092915050565b60006060828403121561706c57600080fd5b600061707a84828501616b6f565b91505092915050565b6000806080838503121561709657600080fd5b60006170a485828601616b6f565b92505060606170b585828601616c0e565b9150509250929050565b6000602082840312156170d157600080fd5b60006170df84828501616be4565b91505092915050565b6000602082840312156170fa57600080fd5b600061710884828501616bf9565b91505092915050565b60008060008060008060c0878903121561712a57600080fd5b600061713889828a01616be4565b965050602061714989828a01616be4565b955050604061715a89828a01616b30565b945050606061716b89828a01616b45565b935050608061717c89828a01616af1565b92505060a087013567ffffffffffffffff81111561719957600080fd5b6171a589828a01616971565b9150509295509295509295565b60008060008060008060c087890312156171cb57600080fd5b60006171d989828a01616be4565b96505060206171ea89828a01616be4565b95505060406171fb89828a01616b30565b945050606061720c89828a01616b45565b935050608061721d89828a01616af1565b92505060a061722e89828a01616be4565b9150509295509295509295565b6000617247838361729b565b60208301905092915050565b600061725f838361755b565b60208301905092915050565b600061727783836181fe565b60608301905092915050565b600061728f83836182a0565b60208301905092915050565b6172a481618da5565b82525050565b6172b381618da5565b82525050565b60006172c482618cbe565b6172ce8185618d4c565b93506172d983618c69565b8060005b8381101561730a5781516172f1888261723b565b97506172fc83618d0b565b9250506001810190506172dd565b5085935050505092915050565b600061732282618cc9565b61732c8185618d4c565b935061733783618c79565b8060005b8381101561736857815161734f8882617253565b975061735a83618d18565b92505060018101905061733b565b5085935050505092915050565b600061738082618cd4565b61738a8185618d5d565b935061739583618c89565b8060005b838110156173c65781516173ad888261726b565b97506173b883618d25565b925050600181019050617399565b5085935050505092915050565b60006173df8385618d6e565b93507f07ffffffffffffffffffffffffffffffffffffffffffffffffffffffffffffff83111561740e57600080fd5b60208302925061741f838584618fc8565b82840190509392505050565b600061743682618cdf565b6174408185618d6e565b935061744b83618c99565b8060005b8381101561747c5781516174638882617283565b975061746e83618d32565b92505060018101905061744f565b5085935050505092915050565b600061749482618cea565b61749e8185618d6e565b93506174a983618ca9565b8060005b838110156174e1576174be8261902e565b6174c88882617283565b97506174d383618d3f565b9250506001810190506174ad565b5085935050505092915050565b6174f781618db7565b82525050565b61750681618dc3565b82525050565b61751581618dcd565b82525050565b600061752682618cf5565b6175308185618d7f565b9350617540818560208601618fd7565b80840191505092915050565b61755581618ede565b82525050565b61756481618f02565b82525050565b61757381618f02565b82525050565b61758281618f26565b82525050565b61759181618f4a565b82525050565b6175a081618f6e565b82525050565b6175af81618f92565b82525050565b60006175c082618d00565b6175ca8185618d8a565b93506175da818560208601618fd7565b6175e381619041565b840191505092915050565b60006175fb602483618d8a565b91507f506572696f6469635072697a6553747261746567792f6572633732312d696e7660008301527f616c6964000000000000000000000000000000000000000000000000000000006020830152604082019050919050565b6000617661602c83618d8a565b91507f506572696f6469635072697a6553747261746567792f746f6b656e2d6c69737460008301527f656e65722d696e76616c696400000000000000000000000000000000000000006020830152604082019050919050565b60006176c7600f83618d8a565b91507f496e76616c6964206164647265737300000000000000000000000000000000006000830152602082019050919050565b6000617707601383618d8a565b91507f496e76616c6964207072657641646472657373000000000000000000000000006000830152602082019050919050565b6000617747602683618d8a565b91507f4f776e61626c653a206e6577206f776e657220697320746865207a65726f206160008301527f64647265737300000000000000000000000000000000000000000000000000006020830152604082019050919050565b60006177ad602c83618d8a565b91507f506572696f6469635072697a6553747261746567792f6f6e6c792d6f776e657260008301527f2d6f722d6c697374656e657200000000000000000000000000000000000000006020830152604082019050919050565b6000617813601b83618d8a565b91507f536166654d6174683a206164646974696f6e206f766572666c6f7700000000006000830152602082019050919050565b6000617853602a83618d8a565b91507f506572696f6469635072697a6553747261746567792f73706f6e736f7273686960008301527f702d6e6f742d7a65726f000000000000000000000000000000000000000000006020830152604082019050919050565b60006178b9602883618d8a565b91507f4d756c7469706c6557696e6e6572732f696e76616c69642d7072697a6573706c60008301527f69742d746f6b656e0000000000000000000000000000000000000000000000006020830152604082019050919050565b600061791f603483618d8a565b91507f506572696f6469635072697a6553747261746567792f7072697a652d7065726960008301527f6f642d677265617465722d7468616e2d7a65726f0000000000000000000000006020830152604082019050919050565b6000617985602583618d8a565b91507f506572696f6469635072697a6553747261746567792f6f6e6c792d7072697a6560008301527f2d706f6f6c0000000000000000000000000000000000000000000000000000006020830152604082019050919050565b60006179eb602683618d8a565b91507f506572696f6469635072697a6553747261746567792f7472616e736665722d7460008301527f6f2d73656c6600000000000000000000000000000000000000000000000000006020830152604082019050919050565b6000617a51601e83618d8a565b91507f536166654d6174683a207375627472616374696f6e206f766572666c6f7700006000830152602082019050919050565b6000617a91602983618d8a565b91507f506572696f6469635072697a6553747261746567792f7072697a652d706f6f6c60008301527f2d6e6f742d7a65726f00000000000000000000000000000000000000000000006020830152604082019050919050565b6000617af7601a83618d8a565b91507f536166654d6174683a206469766973696f6e206279207a65726f0000000000006000830152602082019050919050565b6000617b37602983618d8a565b91507f4d756c7469706c6557696e6e6572732f696e76616c69642d7072697a6573706c60008301527f69742d74617267657400000000000000000000000000000000000000000000006020830152604082019050919050565b6000617b9d602383618d8a565b91507f506572696f6469635072697a6553747261746567792f65726332302d696e766160008301527f6c696400000000000000000000000000000000000000000000000000000000006020830152604082019050919050565b6000617c03602e83618d8a565b91507f496e697469616c697a61626c653a20636f6e747261637420697320616c72656160008301527f647920696e697469616c697a65640000000000000000000000000000000000006020830152604082019050919050565b6000617c69602683618d8a565b91507f4d756c7469706c6557696e6e6572732f6e6f6e6578697374656e742d7072697a60008301527f6573706c697400000000000000000000000000000000000000000000000000006020830152604082019050919050565b6000617ccf602083618d8a565b91507f506572696f6469635072697a6553747261746567792f65726332302d6e756c6c6000830152602082019050919050565b6000617d0f601f83618d8a565b91507f4d756c7469706c6557696e6e6572732f77696e6e6572732d6774652d6f6e65006000830152602082019050919050565b6000617d4f602183618d8a565b91507f536166654d6174683a206d756c7469706c69636174696f6e206f766572666c6f60008301527f77000000000000000000000000000000000000000000000000000000000000006020830152604082019050919050565b6000617db5602083618d8a565b91507f4f776e61626c653a2063616c6c6572206973206e6f7420746865206f776e65726000830152602082019050919050565b6000617df5600c83618d8a565b91507f416c726561647920696e697400000000000000000000000000000000000000006000830152602082019050919050565b6000617e35603383618d8a565b91507f4d756c7469706c6557696e6e6572732f696e76616c69642d7072697a6573706c60008301527f69742d70657263656e746167652d746f74616c000000000000000000000000006020830152604082019050919050565b6000617e9b603183618d8a565b91507f506572696f6469635072697a6553747261746567792f6265666f72654177617260008301527f644c697374656e65722d696e76616c69640000000000000000000000000000006020830152604082019050919050565b6000617f01602b83618d8a565b91507f506572696f6469635072697a6553747261746567792f63616e6e6f742d61776160008301527f72642d65787465726e616c0000000000000000000000000000000000000000006020830152604082019050919050565b6000617f67600d83618d8a565b91507f416c7265616479206164646564000000000000000000000000000000000000006000830152602082019050919050565b6000617fa7602f83618d8a565b91507f506572696f6469635072697a6553747261746567792f61776172642d696e766160008301527f6c69642d746f6b656e2d696e64657800000000000000000000000000000000006020830152604082019050919050565b600061800d602583618d8a565b91507f506572696f6469635072697a6553747261746567792f7469636b65742d6e6f7460008301527f2d7a65726f0000000000000000000000000000000000000000000000000000006020830152604082019050919050565b6000618073603383618d8a565b91507f506572696f6469635072697a6553747261746567792f7072697a65537472617460008301527f6567794c697374656e65722d696e76616c6964000000000000000000000000006020830152604082019050919050565b60006180d9602683618d8a565b91507f506572696f6469635072697a6553747261746567792f6572633732312d64757060008301527f6c696361746500000000000000000000000000000000000000000000000000006020830152604082019050919050565b600061813f602383618d8a565b91507f506572696f6469635072697a6553747261746567792f726e672d696e2d666c6960008301527f67687400000000000000000000000000000000000000000000000000000000006020830152604082019050919050565b60006181a5602783618d8a565b91507f506572696f6469635072697a6553747261746567792f756e617661696c61626c60008301527f652d746f6b656e000000000000000000000000000000000000000000000000006020830152604082019050919050565b606082016000820151618214600085018261729b565b5060208201516182276020850182618282565b50604082015161823a60408501826182f3565b50505050565b606082016000820151618256600085018261729b565b5060208201516182696020850182618282565b50604082015161827c60408501826182f3565b50505050565b61828b81618e89565b82525050565b61829a81618e89565b82525050565b6182a981618eb7565b82525050565b6182b881618eb7565b82525050565b6182cf6182ca82618eb7565b619024565b82525050565b6182de81618ec1565b82525050565b6182ed81618fb6565b82525050565b6182fc81618ed1565b82525050565b61830b81618ed1565b82525050565b600061831d828461751b565b915081905092915050565b600061833482846182be565b60208201915081905092915050565b600060208201905061835860008301846172aa565b92915050565b600060608201905061837360008301866172aa565b61838060208301856172aa565b81810360408301526183928184617489565b9050949350505050565b60006060820190506183b160008301866172aa565b6183be60208301856172aa565b6183cb60408301846182af565b949350505050565b60006080820190506183e860008301876172aa565b6183f560208301866172aa565b61840260408301856182af565b61840f60608301846172aa565b95945050505050565b600060608201905061842d60008301866172aa565b61843a60208301856174fd565b61844760408301846172aa565b949350505050565b600060608201905061846460008301866172aa565b61847160208301856182af565b61847e60408301846172aa565b949350505050565b600060808201905061849b60008301876172aa565b6184a860208301866182af565b6184b560408301856172aa565b6184c260608301846172aa565b95945050505050565b600060208201905081810360008301526184e581846172b9565b905092915050565b600060208201905081810360008301526185078184617375565b905092915050565b6000602082019050818103600083015261852a8184866173d3565b90509392505050565b6000602082019050818103600083015261854d818461742b565b905092915050565b600060208201905061856a60008301846174ee565b92915050565b600060208201905061858560008301846174fd565b92915050565b60006020820190506185a0600083018461750c565b92915050565b60006020820190506185bb600083018461754c565b92915050565b60006020820190506185d6600083018461756a565b92915050565b60006020820190506185f16000830184617579565b92915050565b600060208201905061860c6000830184617588565b92915050565b60006020820190506186276000830184617597565b92915050565b600060208201905061864260008301846175a6565b92915050565b6000602082019050818103600083015261866281846175b5565b905092915050565b60006020820190508181036000830152618683816175ee565b9050919050565b600060208201905081810360008301526186a381617654565b9050919050565b600060208201905081810360008301526186c3816176ba565b9050919050565b600060208201905081810360008301526186e3816176fa565b9050919050565b600060208201905081810360008301526187038161773a565b9050919050565b60006020820190508181036000830152618723816177a0565b9050919050565b6000602082019050818103600083015261874381617806565b9050919050565b6000602082019050818103600083015261876381617846565b9050919050565b60006020820190508181036000830152618783816178ac565b9050919050565b600060208201905081810360008301526187a381617912565b9050919050565b600060208201905081810360008301526187c381617978565b9050919050565b600060208201905081810360008301526187e3816179de565b9050919050565b6000602082019050818103600083015261880381617a44565b9050919050565b6000602082019050818103600083015261882381617a84565b9050919050565b6000602082019050818103600083015261884381617aea565b9050919050565b6000602082019050818103600083015261886381617b2a565b9050919050565b6000602082019050818103600083015261888381617b90565b9050919050565b600060208201905081810360008301526188a381617bf6565b9050919050565b600060208201905081810360008301526188c381617c5c565b9050919050565b600060208201905081810360008301526188e381617cc2565b9050919050565b6000602082019050818103600083015261890381617d02565b9050919050565b6000602082019050818103600083015261892381617d42565b9050919050565b6000602082019050818103600083015261894381617da8565b9050919050565b6000602082019050818103600083015261896381617de8565b9050919050565b6000602082019050818103600083015261898381617e28565b9050919050565b600060208201905081810360008301526189a381617e8e565b9050919050565b600060208201905081810360008301526189c381617ef4565b9050919050565b600060208201905081810360008301526189e381617f5a565b9050919050565b60006020820190508181036000830152618a0381617f9a565b9050919050565b60006020820190508181036000830152618a2381618000565b9050919050565b60006020820190508181036000830152618a4381618066565b9050919050565b60006020820190508181036000830152618a63816180cc565b9050919050565b60006020820190508181036000830152618a8381618132565b9050919050565b60006020820190508181036000830152618aa381618198565b9050919050565b6000606082019050618abf6000830184618240565b92915050565b6000606082019050618ada6000830186618291565b618ae76020830185618302565b618af460408301846182af565b949350505050565b6000606082019050618b116000830186618291565b618b1e6020830185618302565b618b2b60408301846182e4565b949350505050565b6000602082019050618b4860008301846182af565b92915050565b6000604082019050618b6360008301856182af565b618b7060208301846182af565b9392505050565b600060a082019050618b8c60008301886182af565b618b9960208301876182af565b618ba66040830186617597565b618bb3606083018561756a565b8181036080830152618bc58184617317565b90509695505050505050565b6000602082019050618be660008301846182d5565b92915050565b6000604051905081810181811067ffffffffffffffff82111715618c0f57600080fd5b8060405250919050565b600067ffffffffffffffff821115618c3057600080fd5b602082029050602081019050919050565b600067ffffffffffffffff821115618c5857600080fd5b602082029050602081019050919050565b6000819050602082019050919050565b6000819050602082019050919050565b6000819050602082019050919050565b6000819050602082019050919050565b60008190508160005260206000209050919050565b600081519050919050565b600081519050919050565b600081519050919050565b600081519050919050565b600081549050919050565b600081519050919050565b600081519050919050565b6000602082019050919050565b6000602082019050919050565b6000602082019050919050565b6000602082019050919050565b6000600182019050919050565b600082825260208201905092915050565b600082825260208201905092915050565b600082825260208201905092915050565b600081905092915050565b600082825260208201905092915050565b6000819050919050565b6000618db082618e97565b9050919050565b60008115159050919050565b6000819050919050565b60007fffffffff0000000000000000000000000000000000000000000000000000000082169050919050565b6000618e0482618da5565b9050919050565b6000618e1682618da5565b9050919050565b6000618e2882618da5565b9050919050565b6000618e3a82618da5565b9050919050565b6000618e4c82618da5565b9050919050565b6000618e5e82618da5565b9050919050565b6000618e7082618da5565b9050919050565b6000618e8282618da5565b9050919050565b600061ffff82169050919050565b600073ffffffffffffffffffffffffffffffffffffffff82169050919050565b6000819050919050565b600063ffffffff82169050919050565b600060ff82169050919050565b6000618ee982618ef0565b9050919050565b6000618efb82618e97565b9050919050565b6000618f0d82618f14565b9050919050565b6000618f1f82618e97565b9050919050565b6000618f3182618f38565b9050919050565b6000618f4382618e97565b9050919050565b6000618f5582618f5c565b9050919050565b6000618f6782618e97565b9050919050565b6000618f7982618f80565b9050919050565b6000618f8b82618e97565b9050919050565b6000618f9d82618fa4565b9050919050565b6000618faf82618e97565b9050919050565b6000618fc182618ed1565b9050919050565b82818337600083830152505050565b60005b83811015618ff5578082015181840152602081019050618fda565b83811115619004576000848401525b50505050565b600061901d61901883619052565b618d9b565b9050919050565b6000819050919050565b600061903a825461900a565b9050919050565b6000601f19601f8301169050919050565b60008160001c9050919050565b61906881618da5565b811461907357600080fd5b50565b61907f81618db7565b811461908a57600080fd5b50565b61909681618dcd565b81146190a157600080fd5b50565b6190ad81618df9565b81146190b857600080fd5b50565b6190c481618e0b565b81146190cf57600080fd5b50565b6190db81618e1d565b81146190e657600080fd5b50565b6190f281618e2f565b81146190fd57600080fd5b50565b61910981618e41565b811461911457600080fd5b50565b61912081618e53565b811461912b57600080fd5b50565b61913781618e65565b811461914257600080fd5b50565b61914e81618e77565b811461915957600080fd5b50565b61916581618e89565b811461917057600080fd5b50565b61917c81618eb7565b811461918757600080fd5b50565b61919381618ed1565b811461919e57600080fd5b5056fea2646970667358221220246f8472cbefe5df6bceb5b42ca91e49ea48fa1388c767877e92cf9e9eafb23564736f6c634300060c0033",
  "linkReferences": {},
  "deployedLinkReferences": {}
}