{
  "_format": "hh-sol-artifact-1",
  "contractName": "MultipleWinners",
  "sourceName": "contracts/prize-strategy/multiple-winners/MultipleWinners.sol",
  "abi": [
    {
      "anonymous": false,
      "inputs": [
        {
          "indexed": true,
          "internalType": "contract BeforeAwardListenerInterface",
          "name": "beforeAwardListener",
          "type": "address"
        }
      ],
      "name": "BeforeAwardListenerSet",
      "type": "event"
    },
    {
      "anonymous": false,
      "inputs": [
        {
          "indexed": false,
          "internalType": "bool",
          "name": "carry",
          "type": "bool"
        }
      ],
      "name": "BlocklistCarrySet",
      "type": "event"
    },
    {
      "anonymous": false,
      "inputs": [
        {
          "indexed": false,
          "internalType": "uint256",
          "name": "count",
          "type": "uint256"
        }
      ],
      "name": "BlocklistRetryCountSet",
      "type": "event"
    },
    {
      "anonymous": false,
      "inputs": [
        {
          "indexed": true,
          "internalType": "address",
          "name": "user",
          "type": "address"
        },
        {
          "indexed": false,
          "internalType": "bool",
          "name": "isBlocked",
          "type": "bool"
        }
      ],
      "name": "BlocklistSet",
      "type": "event"
    },
    {
      "anonymous": false,
      "inputs": [
        {
          "indexed": true,
          "internalType": "contract IERC20Upgradeable",
          "name": "externalErc20",
          "type": "address"
        }
      ],
      "name": "ExternalErc20AwardAdded",
      "type": "event"
    },
    {
      "anonymous": false,
      "inputs": [
        {
          "indexed": true,
          "internalType": "contract IERC20Upgradeable",
          "name": "externalErc20Award",
          "type": "address"
        }
      ],
      "name": "ExternalErc20AwardRemoved",
      "type": "event"
    },
    {
      "anonymous": false,
      "inputs": [
        {
          "indexed": true,
          "internalType": "contract IERC721Upgradeable",
          "name": "externalErc721",
          "type": "address"
        },
        {
          "indexed": false,
          "internalType": "uint256[]",
          "name": "tokenIds",
          "type": "uint256[]"
        }
      ],
      "name": "ExternalErc721AwardAdded",
      "type": "event"
    },
    {
      "anonymous": false,
      "inputs": [
        {
          "indexed": true,
          "internalType": "contract IERC721Upgradeable",
          "name": "externalErc721Award",
          "type": "address"
        }
      ],
      "name": "ExternalErc721AwardRemoved",
      "type": "event"
    },
    {
      "anonymous": false,
      "inputs": [
        {
          "indexed": false,
          "internalType": "uint256",
          "name": "prizePeriodStart",
          "type": "uint256"
        },
        {
          "indexed": false,
          "internalType": "uint256",
          "name": "prizePeriodSeconds",
          "type": "uint256"
        },
        {
          "indexed": true,
          "internalType": "contract PrizePool",
          "name": "prizePool",
          "type": "address"
        },
        {
          "indexed": false,
          "internalType": "contract TicketInterface",
          "name": "ticket",
          "type": "address"
        },
        {
          "indexed": false,
          "internalType": "contract IERC20Upgradeable",
          "name": "sponsorship",
          "type": "address"
        },
        {
          "indexed": false,
          "internalType": "contract IERC20Upgradeable[]",
          "name": "externalErc20Awards",
          "type": "address[]"
        }
      ],
      "name": "Initialized",
      "type": "event"
    },
    {
      "anonymous": false,
      "inputs": [],
      "name": "NoWinners",
      "type": "event"
    },
    {
      "anonymous": false,
      "inputs": [
        {
          "indexed": false,
          "internalType": "uint256",
          "name": "numberOfWinners",
          "type": "uint256"
        }
      ],
      "name": "NumberOfWinnersSet",
      "type": "event"
    },
    {
      "anonymous": false,
      "inputs": [
        {
          "indexed": true,
          "internalType": "address",
          "name": "previousOwner",
          "type": "address"
        },
        {
          "indexed": true,
          "internalType": "address",
          "name": "newOwner",
          "type": "address"
        }
      ],
      "name": "OwnershipTransferred",
      "type": "event"
    },
    {
      "anonymous": false,
      "inputs": [
        {
          "indexed": true,
          "internalType": "contract PeriodicPrizeStrategyListenerInterface",
          "name": "periodicPrizeStrategyListener",
          "type": "address"
        }
      ],
      "name": "PeriodicPrizeStrategyListenerSet",
      "type": "event"
    },
    {
      "anonymous": false,
      "inputs": [
        {
          "indexed": false,
          "internalType": "uint256",
          "name": "prizePeriodSeconds",
          "type": "uint256"
        }
      ],
      "name": "PrizePeriodSecondsUpdated",
      "type": "event"
    },
    {
      "anonymous": false,
      "inputs": [
        {
          "indexed": true,
          "internalType": "address",
          "name": "operator",
          "type": "address"
        },
        {
          "indexed": true,
          "internalType": "address",
          "name": "prizePool",
          "type": "address"
        }
      ],
      "name": "PrizePoolAwardCancelled",
      "type": "event"
    },
    {
      "anonymous": false,
      "inputs": [
        {
          "indexed": true,
          "internalType": "address",
          "name": "operator",
          "type": "address"
        },
        {
          "indexed": true,
          "internalType": "address",
          "name": "prizePool",
          "type": "address"
        }
      ],
      "name": "PrizePoolAwardStarted",
      "type": "event"
    },
    {
      "anonymous": false,
      "inputs": [
        {
          "indexed": true,
          "internalType": "address",
          "name": "operator",
          "type": "address"
        },
        {
          "indexed": false,
          "internalType": "uint256",
          "name": "randomNumber",
          "type": "uint256"
        }
      ],
      "name": "PrizePoolAwarded",
      "type": "event"
    },
    {
      "anonymous": false,
      "inputs": [
        {
          "indexed": true,
          "internalType": "address",
          "name": "operator",
          "type": "address"
        },
        {
          "indexed": true,
          "internalType": "uint256",
          "name": "prizePeriodStartedAt",
          "type": "uint256"
        }
      ],
      "name": "PrizePoolOpened",
      "type": "event"
    },
    {
      "anonymous": false,
      "inputs": [
        {
          "indexed": true,
          "internalType": "uint256",
          "name": "target",
          "type": "uint256"
        }
      ],
      "name": "PrizeSplitRemoved",
      "type": "event"
    },
    {
      "anonymous": false,
      "inputs": [
        {
          "indexed": true,
          "internalType": "address",
          "name": "target",
          "type": "address"
        },
        {
          "indexed": false,
          "internalType": "uint16",
          "name": "percentage",
          "type": "uint16"
        },
        {
          "indexed": false,
          "internalType": "uint8",
          "name": "token",
          "type": "uint8"
        },
        {
          "indexed": false,
          "internalType": "uint256",
          "name": "index",
          "type": "uint256"
        }
      ],
      "name": "PrizeSplitSet",
      "type": "event"
    },
    {
      "anonymous": false,
      "inputs": [
        {
          "indexed": false,
          "internalType": "uint256",
          "name": "numberOfWinners",
          "type": "uint256"
        }
      ],
      "name": "RetryMaxLimitReached",
      "type": "event"
    },
    {
      "anonymous": false,
      "inputs": [
        {
          "indexed": false,
          "internalType": "bool",
          "name": "splitExternalErc20Awards",
          "type": "bool"
        }
      ],
      "name": "SplitExternalErc20AwardsSet",
      "type": "event"
    },
    {
      "anonymous": false,
      "inputs": [
        {
          "indexed": true,
          "internalType": "contract TokenListenerInterface",
          "name": "tokenListener",
          "type": "address"
        }
      ],
      "name": "TokenListenerUpdated",
      "type": "event"
    },
    {
      "inputs": [],
      "name": "VERSION",
      "outputs": [
        {
          "internalType": "string",
          "name": "",
          "type": "string"
        }
      ],
      "stateMutability": "view",
      "type": "function"
    },
    {
      "inputs": [
        {
          "internalType": "contract IERC20Upgradeable",
          "name": "_externalErc20",
          "type": "address"
        }
      ],
      "name": "addExternalErc20Award",
      "outputs": [],
      "stateMutability": "nonpayable",
      "type": "function"
    },
    {
      "inputs": [
        {
          "internalType": "contract IERC20Upgradeable[]",
          "name": "_externalErc20s",
          "type": "address[]"
        }
      ],
      "name": "addExternalErc20Awards",
      "outputs": [],
      "stateMutability": "nonpayable",
      "type": "function"
    },
    {
      "inputs": [
        {
          "internalType": "contract IERC721Upgradeable",
          "name": "_externalErc721",
          "type": "address"
        },
        {
          "internalType": "uint256[]",
          "name": "_tokenIds",
          "type": "uint256[]"
        }
      ],
      "name": "addExternalErc721Award",
      "outputs": [],
      "stateMutability": "nonpayable",
      "type": "function"
    },
    {
      "inputs": [],
      "name": "beforeAwardListener",
      "outputs": [
        {
          "internalType": "contract BeforeAwardListenerInterface",
          "name": "",
          "type": "address"
        }
      ],
      "stateMutability": "view",
      "type": "function"
    },
    {
      "inputs": [
        {
          "internalType": "address",
          "name": "to",
          "type": "address"
        },
        {
          "internalType": "uint256",
          "name": "amount",
          "type": "uint256"
        },
        {
          "internalType": "address",
          "name": "controlledToken",
          "type": "address"
        },
        {
          "internalType": "address",
          "name": "referrer",
          "type": "address"
        }
      ],
      "name": "beforeTokenMint",
      "outputs": [],
      "stateMutability": "nonpayable",
      "type": "function"
    },
    {
      "inputs": [
        {
          "internalType": "address",
          "name": "from",
          "type": "address"
        },
        {
          "internalType": "address",
          "name": "to",
          "type": "address"
        },
        {
          "internalType": "uint256",
          "name": "amount",
          "type": "uint256"
        },
        {
          "internalType": "address",
          "name": "controlledToken",
          "type": "address"
        }
      ],
      "name": "beforeTokenTransfer",
      "outputs": [],
      "stateMutability": "nonpayable",
      "type": "function"
    },
    {
      "inputs": [],
      "name": "blocklistRetryCount",
      "outputs": [
        {
          "internalType": "uint256",
          "name": "",
          "type": "uint256"
        }
      ],
      "stateMutability": "view",
      "type": "function"
    },
    {
      "inputs": [
        {
          "internalType": "uint256",
          "name": "currentTime",
          "type": "uint256"
        }
      ],
      "name": "calculateNextPrizePeriodStartTime",
      "outputs": [
        {
          "internalType": "uint256",
          "name": "",
          "type": "uint256"
        }
      ],
      "stateMutability": "view",
      "type": "function"
    },
    {
      "inputs": [],
      "name": "canStartAward",
      "outputs": [
        {
          "internalType": "bool",
          "name": "",
          "type": "bool"
        }
      ],
      "stateMutability": "view",
      "type": "function"
    },
    {
      "inputs": [],
      "name": "carryOverBlocklist",
      "outputs": [
        {
          "internalType": "bool",
          "name": "",
          "type": "bool"
        }
      ],
      "stateMutability": "view",
      "type": "function"
    },
    {
      "inputs": [],
      "name": "completeAward",
      "outputs": [],
      "stateMutability": "nonpayable",
      "type": "function"
    },
    {
      "inputs": [],
      "name": "currentPrize",
      "outputs": [
        {
          "internalType": "uint256",
          "name": "",
          "type": "uint256"
        }
      ],
      "stateMutability": "view",
      "type": "function"
    },
    {
      "inputs": [
        {
          "internalType": "uint256",
          "name": "secondsPerBlockMantissa",
          "type": "uint256"
        }
      ],
      "name": "estimateRemainingBlocksToPrize",
      "outputs": [
        {
          "internalType": "uint256",
          "name": "",
          "type": "uint256"
        }
      ],
      "stateMutability": "view",
      "type": "function"
    },
    {
      "inputs": [],
      "name": "getExternalErc20Awards",
      "outputs": [
        {
          "internalType": "address[]",
          "name": "",
          "type": "address[]"
        }
      ],
      "stateMutability": "view",
      "type": "function"
    },
    {
      "inputs": [
        {
          "internalType": "contract IERC721Upgradeable",
          "name": "_externalErc721",
          "type": "address"
        }
      ],
      "name": "getExternalErc721AwardTokenIds",
      "outputs": [
        {
          "internalType": "uint256[]",
          "name": "",
          "type": "uint256[]"
        }
      ],
      "stateMutability": "view",
      "type": "function"
    },
    {
      "inputs": [],
      "name": "getExternalErc721Awards",
      "outputs": [
        {
          "internalType": "address[]",
          "name": "",
          "type": "address[]"
        }
      ],
      "stateMutability": "view",
      "type": "function"
    },
    {
      "inputs": [
        {
          "internalType": "uint256",
          "name": "_prizePeriodStart",
          "type": "uint256"
        },
        {
          "internalType": "uint256",
          "name": "_prizePeriodSeconds",
          "type": "uint256"
        },
        {
          "internalType": "contract PrizePool",
          "name": "_prizePool",
          "type": "address"
        },
        {
          "internalType": "contract TicketInterface",
          "name": "_ticket",
          "type": "address"
        },
        {
          "internalType": "contract IERC20Upgradeable",
          "name": "_sponsorship",
          "type": "address"
        },
        {
          "internalType": "contract IERC20Upgradeable[]",
          "name": "externalErc20Awards",
          "type": "address[]"
        }
      ],
      "name": "initialize",
      "outputs": [],
      "stateMutability": "nonpayable",
      "type": "function"
    },
    {
      "inputs": [
        {
          "internalType": "uint256",
          "name": "_prizePeriodStart",
          "type": "uint256"
        },
        {
          "internalType": "uint256",
          "name": "_prizePeriodSeconds",
          "type": "uint256"
        },
        {
          "internalType": "contract PrizePool",
          "name": "_prizePool",
          "type": "address"
        },
        {
          "internalType": "contract TicketInterface",
          "name": "_ticket",
          "type": "address"
        },
        {
          "internalType": "contract IERC20Upgradeable",
          "name": "_sponsorship",
          "type": "address"
        },
        {
          "internalType": "uint256",
          "name": "_numberOfWinners",
          "type": "uint256"
        }
      ],
      "name": "initializeMultipleWinners",
      "outputs": [],
      "stateMutability": "nonpayable",
      "type": "function"
    },
    {
      "inputs": [
        {
          "internalType": "address",
          "name": "",
          "type": "address"
        }
      ],
      "name": "isBlocklisted",
      "outputs": [
        {
          "internalType": "bool",
          "name": "",
          "type": "bool"
        }
      ],
      "stateMutability": "view",
      "type": "function"
    },
    {
      "inputs": [],
      "name": "isPrizePeriodOver",
      "outputs": [
        {
          "internalType": "bool",
          "name": "",
          "type": "bool"
        }
      ],
      "stateMutability": "view",
      "type": "function"
    },
    {
      "inputs": [],
      "name": "numberOfWinners",
      "outputs": [
        {
          "internalType": "uint256",
          "name": "",
          "type": "uint256"
        }
      ],
      "stateMutability": "view",
      "type": "function"
    },
    {
      "inputs": [],
      "name": "owner",
      "outputs": [
        {
          "internalType": "address",
          "name": "",
          "type": "address"
        }
      ],
      "stateMutability": "view",
      "type": "function"
    },
    {
      "inputs": [],
      "name": "periodicPrizeStrategyListener",
      "outputs": [
        {
          "internalType": "contract PeriodicPrizeStrategyListenerInterface",
          "name": "",
          "type": "address"
        }
      ],
      "stateMutability": "view",
      "type": "function"
    },
    {
      "inputs": [],
      "name": "prizePeriodEndAt",
      "outputs": [
        {
          "internalType": "uint256",
          "name": "",
          "type": "uint256"
        }
      ],
      "stateMutability": "view",
      "type": "function"
    },
    {
      "inputs": [],
      "name": "prizePeriodRemainingSeconds",
      "outputs": [
        {
          "internalType": "uint256",
          "name": "",
          "type": "uint256"
        }
      ],
      "stateMutability": "view",
      "type": "function"
    },
    {
      "inputs": [],
      "name": "prizePeriodSeconds",
      "outputs": [
        {
          "internalType": "uint256",
          "name": "",
          "type": "uint256"
        }
      ],
      "stateMutability": "view",
      "type": "function"
    },
    {
      "inputs": [],
      "name": "prizePeriodStartedAt",
      "outputs": [
        {
          "internalType": "uint256",
          "name": "",
          "type": "uint256"
        }
      ],
      "stateMutability": "view",
      "type": "function"
    },
    {
      "inputs": [],
      "name": "prizePool",
      "outputs": [
        {
          "internalType": "contract PrizePool",
          "name": "",
          "type": "address"
        }
      ],
      "stateMutability": "view",
      "type": "function"
    },
    {
      "inputs": [
        {
          "internalType": "uint256",
          "name": "prizeSplitIndex",
          "type": "uint256"
        }
      ],
      "name": "prizeSplit",
      "outputs": [
        {
          "components": [
            {
              "internalType": "address",
              "name": "target",
              "type": "address"
            },
            {
              "internalType": "uint16",
              "name": "percentage",
              "type": "uint16"
            },
            {
              "internalType": "uint8",
              "name": "token",
              "type": "uint8"
            }
          ],
          "internalType": "struct PrizeSplit.PrizeSplitConfig",
          "name": "",
          "type": "tuple"
        }
      ],
      "stateMutability": "view",
      "type": "function"
    },
    {
      "inputs": [],
      "name": "prizeSplits",
      "outputs": [
        {
          "components": [
            {
              "internalType": "address",
              "name": "target",
              "type": "address"
            },
            {
              "internalType": "uint16",
              "name": "percentage",
              "type": "uint16"
            },
            {
              "internalType": "uint8",
              "name": "token",
              "type": "uint8"
            }
          ],
          "internalType": "struct PrizeSplit.PrizeSplitConfig[]",
          "name": "",
          "type": "tuple[]"
        }
      ],
      "stateMutability": "view",
      "type": "function"
    },
    {
      "inputs": [
        {
          "internalType": "contract IERC20Upgradeable",
          "name": "_externalErc20",
          "type": "address"
        },
        {
          "internalType": "contract IERC20Upgradeable",
          "name": "_prevExternalErc20",
          "type": "address"
        }
      ],
      "name": "removeExternalErc20Award",
      "outputs": [],
      "stateMutability": "nonpayable",
      "type": "function"
    },
    {
      "inputs": [
        {
          "internalType": "contract IERC721Upgradeable",
          "name": "_externalErc721",
          "type": "address"
        },
        {
          "internalType": "contract IERC721Upgradeable",
          "name": "_prevExternalErc721",
          "type": "address"
        }
      ],
      "name": "removeExternalErc721Award",
      "outputs": [],
      "stateMutability": "nonpayable",
      "type": "function"
    },
    {
      "inputs": [],
      "name": "renounceOwnership",
      "outputs": [],
      "stateMutability": "nonpayable",
      "type": "function"
    },
    {
      "inputs": [
        {
          "internalType": "contract BeforeAwardListenerInterface",
          "name": "_beforeAwardListener",
          "type": "address"
        }
      ],
      "name": "setBeforeAwardListener",
      "outputs": [],
      "stateMutability": "nonpayable",
      "type": "function"
    },
    {
      "inputs": [
        {
          "internalType": "uint256",
          "name": "_count",
          "type": "uint256"
        }
      ],
      "name": "setBlocklistRetryCount",
      "outputs": [
        {
          "internalType": "bool",
          "name": "",
          "type": "bool"
        }
      ],
      "stateMutability": "nonpayable",
      "type": "function"
    },
    {
      "inputs": [
        {
          "internalType": "address",
          "name": "_user",
          "type": "address"
        },
        {
          "internalType": "bool",
          "name": "_isBlocked",
          "type": "bool"
        }
      ],
      "name": "setBlocklisted",
      "outputs": [
        {
          "internalType": "bool",
          "name": "",
          "type": "bool"
        }
      ],
      "stateMutability": "nonpayable",
      "type": "function"
    },
    {
      "inputs": [
        {
          "internalType": "bool",
          "name": "_carry",
          "type": "bool"
        }
      ],
      "name": "setCarryBlocklist",
      "outputs": [
        {
          "internalType": "bool",
          "name": "",
          "type": "bool"
        }
      ],
      "stateMutability": "nonpayable",
      "type": "function"
    },
    {
      "inputs": [
        {
          "internalType": "uint256",
          "name": "count",
          "type": "uint256"
        }
      ],
      "name": "setNumberOfWinners",
      "outputs": [],
      "stateMutability": "nonpayable",
      "type": "function"
    },
    {
      "inputs": [
        {
          "internalType": "contract PeriodicPrizeStrategyListenerInterface",
          "name": "_periodicPrizeStrategyListener",
          "type": "address"
        }
      ],
      "name": "setPeriodicPrizeStrategyListener",
      "outputs": [],
      "stateMutability": "nonpayable",
      "type": "function"
    },
    {
      "inputs": [
        {
          "internalType": "uint256",
          "name": "_prizePeriodSeconds",
          "type": "uint256"
        }
      ],
      "name": "setPrizePeriodSeconds",
      "outputs": [],
      "stateMutability": "nonpayable",
      "type": "function"
    },
    {
      "inputs": [
        {
          "components": [
            {
              "internalType": "address",
              "name": "target",
              "type": "address"
            },
            {
              "internalType": "uint16",
              "name": "percentage",
              "type": "uint16"
            },
            {
              "internalType": "uint8",
              "name": "token",
              "type": "uint8"
            }
          ],
          "internalType": "struct PrizeSplit.PrizeSplitConfig",
          "name": "prizeStrategySplit",
          "type": "tuple"
        },
        {
          "internalType": "uint8",
          "name": "prizeSplitIndex",
          "type": "uint8"
        }
      ],
      "name": "setPrizeSplit",
      "outputs": [],
      "stateMutability": "nonpayable",
      "type": "function"
    },
    {
      "inputs": [
        {
          "components": [
            {
              "internalType": "address",
              "name": "target",
              "type": "address"
            },
            {
              "internalType": "uint16",
              "name": "percentage",
              "type": "uint16"
            },
            {
              "internalType": "uint8",
              "name": "token",
              "type": "uint8"
            }
          ],
          "internalType": "struct PrizeSplit.PrizeSplitConfig[]",
          "name": "newPrizeSplits",
          "type": "tuple[]"
        }
      ],
      "name": "setPrizeSplits",
      "outputs": [],
      "stateMutability": "nonpayable",
      "type": "function"
    },
    {
      "inputs": [
        {
          "internalType": "bool",
          "name": "_splitExternalErc20Awards",
          "type": "bool"
        }
      ],
      "name": "setSplitExternalErc20Awards",
      "outputs": [],
      "stateMutability": "nonpayable",
      "type": "function"
    },
    {
      "inputs": [
        {
          "internalType": "contract TokenListenerInterface",
          "name": "_tokenListener",
          "type": "address"
        }
      ],
      "name": "setTokenListener",
      "outputs": [],
      "stateMutability": "nonpayable",
      "type": "function"
    },
    {
      "inputs": [],
      "name": "splitExternalErc20Awards",
      "outputs": [
        {
          "internalType": "bool",
          "name": "",
          "type": "bool"
        }
      ],
      "stateMutability": "view",
      "type": "function"
    },
    {
      "inputs": [],
      "name": "sponsorship",
      "outputs": [
        {
          "internalType": "contract IERC20Upgradeable",
          "name": "",
          "type": "address"
        }
      ],
      "stateMutability": "view",
      "type": "function"
    },
    {
      "inputs": [
        {
          "internalType": "bytes4",
          "name": "interfaceId",
          "type": "bytes4"
        }
      ],
      "name": "supportsInterface",
      "outputs": [
        {
          "internalType": "bool",
          "name": "",
          "type": "bool"
        }
      ],
      "stateMutability": "view",
      "type": "function"
    },
    {
      "inputs": [],
      "name": "ticket",
      "outputs": [
        {
          "internalType": "contract TicketInterface",
          "name": "",
          "type": "address"
        }
      ],
      "stateMutability": "view",
      "type": "function"
    },
    {
      "inputs": [],
      "name": "tokenListener",
      "outputs": [
        {
          "internalType": "contract TokenListenerInterface",
          "name": "",
          "type": "address"
        }
      ],
      "stateMutability": "view",
      "type": "function"
    },
    {
      "inputs": [
        {
          "internalType": "address",
          "name": "newOwner",
          "type": "address"
        }
      ],
      "name": "transferOwnership",
      "outputs": [],
      "stateMutability": "nonpayable",
      "type": "function"
    },
    {
      "inputs": [],
      "name": "vrf",
      "outputs": [
        {
          "internalType": "bytes32",
          "name": "result",
          "type": "bytes32"
        }
      ],
      "stateMutability": "view",
      "type": "function"
    }
  ],
  "bytecode": "0x608060405234801561001057600080fd5b50614b96806100206000396000f3fe608060405234801561001057600080fd5b506004361061030c5760003560e01c806372f33ea91161019d578063b0244682116100e9578063d5ad6bf6116100a2578063f2fde38b1161007c578063f2fde38b146105f7578063f48af3521461060a578063fbf0953e1461061d578063ffa1ad74146106305761030c565b8063d5ad6bf6146105c7578063dfb2f13b146105cf578063eefc8ad1146105d75761030c565b8063b02446821461056b578063b22109571461057e578063c25a9c3214610591578063c2f19ee8146105a4578063c42b42a0146105ac578063c48ddbcb146105b45761030c565b80638da5cb5b116101565780639417783f116101305780639417783f1461053057806395e5f9ee146104c25780639dafafb014610550578063a4e075ca146105585761030c565b80638da5cb5b1461050d5780638e204c431461051557806394144c6b146105285761030c565b806372f33ea9146104ba578063876f5c7e146104c2578063884a4448146104ca5780638aa3ec6f146104dd5780638acfaca9146104f05780638d5f10c4146104f85761030c565b80634e5d08e01161025c578063671137c4116102155780636dfb0386116101ef5780636dfb03861461048f5780636f46f221146104a2578063715018a6146104aa578063719ce73e146104b25761030c565b8063671137c41461046c5780636be51c4f1461047f5780636cc25db7146104875761030c565b80634e5d08e014610410578063500db70d1461042357806352a301091461042b578063605e25ac1461043e57806362c77a611461045157806366968221146104595761030c565b8063152d308c116102c957806338a9b4b6116102a357806338a9b4b6146103c257806342d09209146103d557806347bed998146103ea5780634d7f3db0146103fd5761030c565b8063152d308c146103945780632c8fe73d146103a757806330fcdf41146103af5761030c565b806301b48e341461031157806301ffc9a71461033a578063035d09f81461035a5780630c9490431461036f5780630d847fc4146103775780630faf125f1461038c575b600080fd5b61032461031f366004613d40565b610645565b6040516103319190613eff565b60405180910390f35b61034d610348366004613c49565b61065e565b6040516103319190614121565b61036d610368366004613e54565b610694565b005b610324610740565b61037f61075f565b6040516103319190613f08565b61032461076e565b61034d6103a2366004613a45565b610774565b61032461081a565b61036d6103bd3660046139bb565b61082a565b61036d6103d0366004613c11565b6108fa565b6103dd610988565b6040516103319190614020565b6103246103f8366004613d40565b610994565b61036d61040b366004613a7d565b61099f565b61036d61041e3660046139bb565b610a59565b61037f610aee565b61034d610439366004613d40565b610afd565b61036d61044c3660046139bb565b610b83565b6103dd610c5c565b61036d610467366004613b61565b610c68565b61036d61047a366004613c71565b610d32565b61037f610d8a565b61037f610d99565b61036d61049d366004613d40565b610da8565b61034d610df0565b61036d610df9565b61037f610e82565b610324610e91565b61034d610e97565b61036d6104d8366004613d40565b610ea1565b61036d6104eb3660046139bb565b610ee9565b610324610fb9565b610500610fbf565b604051610331919061406d565b61037f611044565b61034d6105233660046139bb565b611053565b610324611068565b61054361053e3660046139bb565b61106e565b60405161033191906140e9565b61034d6110da565b61034d610566366004613c11565b6110e3565b61036d610579366004613c71565b611162565b61036d61058c3660046139f3565b6111e5565b61036d61059f366004613ba1565b611298565b61037f611627565b610324611636565b61036d6105c2366004613c9e565b6116b3565b6103246118a0565b61036d6118aa565b6105ea6105e5366004613d40565b611a4e565b60405161033191906149fd565b61036d6106053660046139bb565b611ab3565b61036d610618366004613d70565b611b74565b61036d61062b366004613d0c565b611e21565b610638611fc0565b6040516103319190614141565b6000610658610652611fe1565b8361201e565b92915050565b60006001600160e01b031982166301ffc9a760e01b14806106585750506001600160e01b031916600162a1cb1960e01b03191490565b600054610100900460ff16806106ad57506106ad612047565b806106bb575060005460ff16155b6106e05760405162461bcd60e51b81526004016106d7906145d7565b60405180910390fd5b600054610100900460ff1615801561070b576000805460ff1961ff0019909116610100171660011790555b606061071b888888888886611b74565b61072483612058565b508015610737576000805461ff00191690555b50505050505050565b60008060405160208160208460ff600019fa61075857fe5b5192915050565b6070546001600160a01b031681565b60775481565b600061077e6120ad565b6001600160a01b031661078f611044565b6001600160a01b0316146107b55760405162461bcd60e51b81526004016106d790614718565b6001600160a01b03831660008181526075602052604090819020805460ff1916851515179055517fd1ac9a365c0e3bfad562e0a809a5ded3842a2b489f839b3327e4e34ee0128f2890610809908590614121565b60405180910390a250600192915050565b60006108246120b1565b90505b90565b6108326120ad565b6001600160a01b0316610843611044565b6001600160a01b0316146108695760405162461bcd60e51b81526004016106d790614718565b6001600160a01b038116158061089457506108946001600160a01b03821663266fce1f60e11b6120ca565b6108b05760405162461bcd60e51b81526004016106d7906147c6565b607080546001600160a01b0319166001600160a01b0383169081179091556040517fc4feff61630891ea2cb42a54fbe3ff2e65422f2ed17323ac6b65f4521112e87e90600090a250565b6109026120ad565b6001600160a01b0316610913611044565b6001600160a01b0316146109395760405162461bcd60e51b81526004016106d790614718565b6074805460ff191682151517908190556040517f6959d02e8fb6264d1d39bf37f1e725001f342714933cf38f8627a2442efc43fd9161097d9160ff90911690614121565b60405180910390a150565b6060610824606d6120ed565b6000610658826121cd565b6066546001600160a01b03166109b36120ad565b6001600160a01b0316146109d95760405162461bcd60e51b81526004016106d790614409565b6065546001600160a01b031615610a53576065546040516304d7f3db60e41b81526001600160a01b0390911690634d7f3db090610a20908790879087908790600401613ff5565b600060405180830381600087803b158015610a3a57600080fd5b505af1158015610a4e573d6000803e3d6000fd5b505050505b50505050565b610a61611044565b6001600160a01b0316610a726120ad565b6001600160a01b03161480610aa157506071546001600160a01b0316610a966120ad565b6001600160a01b0316145b80610ac657506070546001600160a01b0316610abb6120ad565b6001600160a01b0316145b610ae25760405162461bcd60e51b81526004016106d7906142a0565b610aeb81612214565b50565b6068546001600160a01b031681565b6000610b076120ad565b6001600160a01b0316610b18611044565b6001600160a01b031614610b3e5760405162461bcd60e51b81526004016106d790614718565b60778290556040517f63e4e34f49d12428c03e04e61340c7167e36eb0ff6f0b1970c7544026179403990610b73908490613eff565b60405180910390a1506001919050565b610b8b6120ad565b6001600160a01b0316610b9c611044565b6001600160a01b031614610bc25760405162461bcd60e51b81526004016106d790614718565b6001600160a01b0381161580610bf05750610bf06001600160a01b038216600162a1cb1960e01b03196120ca565b610c0c5760405162461bcd60e51b81526004016106d7906141b8565b606580546001600160a01b0319166001600160a01b0383811691909117918290556040519116907f9fc437aa70ad4ee5f33f6772bf338eed41e21b95435820817ab8b4df161ce4dd90600090a250565b6060610824606b6120ed565b610c70611044565b6001600160a01b0316610c816120ad565b6001600160a01b03161480610cb057506071546001600160a01b0316610ca56120ad565b6001600160a01b0316145b80610cd557506070546001600160a01b0316610cca6120ad565b6001600160a01b0316145b610cf15760405162461bcd60e51b81526004016106d7906142a0565b60005b81811015610d2d57610d25838383818110610d0b57fe5b9050602002016020810190610d2091906139bb565b612214565b600101610cf4565b505050565b610d3a6120ad565b6001600160a01b0316610d4b611044565b6001600160a01b031614610d715760405162461bcd60e51b81526004016106d790614718565b610d7d606d82846123c8565b610d8682612492565b5050565b6065546001600160a01b031681565b6067546001600160a01b031681565b610db06120ad565b6001600160a01b0316610dc1611044565b6001600160a01b031614610de75760405162461bcd60e51b81526004016106d790614718565b610aeb81612058565b60765460ff1681565b610e016120ad565b6001600160a01b0316610e12611044565b6001600160a01b031614610e385760405162461bcd60e51b81526004016106d790614718565b6033546040516000916001600160a01b0316907f8be0079c531659141344cd1fd0a4f28419497f9722a3daafe3b4186f6b6457e0908390a3603380546001600160a01b0319169055565b6066546001600160a01b031681565b606a5481565b60006108246124ea565b610ea96120ad565b6001600160a01b0316610eba611044565b6001600160a01b031614610ee05760405162461bcd60e51b81526004016106d790614718565b610aeb81612503565b610ef16120ad565b6001600160a01b0316610f02611044565b6001600160a01b031614610f285760405162461bcd60e51b81526004016106d790614718565b6001600160a01b0381161580610f535750610f536001600160a01b038216632ba8396360e11b6120ca565b610f6f5760405162461bcd60e51b81526004016106d79061491d565b607180546001600160a01b0319166001600160a01b0383169081179091556040517fda05d50a3a1ec0ffab059f1d457ae59f68ccfb3ffbb4dad283c516f9103d584b90600090a250565b60735490565b60606072805480602002602001604051908101604052809291908181526020016000905b8282101561103b57600084815260209081902060408051606081018252918501546001600160a01b0381168352600160a01b810461ffff1683850152600160b01b900460ff1690820152825260019092019101610fe3565b50505050905090565b6033546001600160a01b031690565b60756020526000908152604090205460ff1681565b60695481565b6001600160a01b0381166000908152606f60209081526040918290208054835181840281018401909452808452606093928301828280156110ce57602002820191906000526020600020905b8154815260200190600101908083116110ba575b50505050509050919050565b60745460ff1681565b60006110ed6120ad565b6001600160a01b03166110fe611044565b6001600160a01b0316146111245760405162461bcd60e51b81526004016106d790614718565b6076805460ff19168315151790556040517f2b4b6ffe286f7ce4ccc6b136bb14987b0a00092174d88938a0c667a104a4a73190610b73908490614121565b61116a6120ad565b6001600160a01b031661117b611044565b6001600160a01b0316146111a15760405162461bcd60e51b81526004016106d790614718565b6111ad606b82846123c8565b6040516001600160a01b038316907f58982464497acdab11ad29d39907e076b0d3b8daf1d9b734174c7c3a2a0e8c7490600090a25050565b6066546001600160a01b03166111f96120ad565b6001600160a01b03161461121f5760405162461bcd60e51b81526004016106d790614409565b826001600160a01b0316846001600160a01b031614156112515760405162461bcd60e51b81526004016106d79061444e565b6065546001600160a01b031615610a535760655460405163b221095760e01b81526001600160a01b039091169063b221095790610a20908790879087908790600401613fa7565b6112a06120ad565b6001600160a01b03166112b1611044565b6001600160a01b0316146112d75760405162461bcd60e51b81526004016106d790614718565b8060005b8181101561157c576112eb6138a4565b8484838181106112f757fe5b90506060020180360381019061130d9190613cf1565b90506001816040015160ff1611156113375760405162461bcd60e51b81526004016106d79061436d565b80516001600160a01b031661135e5760405162461bcd60e51b81526004016106d79061454b565b60725482106113fa576072805460018101825560009190915281517fdffbd64cc7c1a7eb27984335d9416d51137a03d3fabec7141025c62663253fe190910180546020840151604085015160ff16600160b01b0260ff60b01b1961ffff909216600160a01b0261ffff60a01b196001600160a01b039096166001600160a01b031990941693909317949094169190911716919091179055611521565b6114026138a4565b6072838154811061140f57fe5b60009182526020918290206040805160608101825292909101546001600160a01b03808216808552600160a01b830461ffff1695850195909552600160b01b90910460ff169183019190915284519193501614158061147e5750806020015161ffff16826020015161ffff1614155b806114975750806040015160ff16826040015160ff1614155b156115185781607284815481106114aa57fe5b6000918252602091829020835191018054928401516040909401516001600160a01b03199093166001600160a01b039092169190911761ffff60a01b1916600160a01b61ffff909416939093029290921760ff60b01b1916600160b01b60ff9092169190910217905561151f565b5050611574565b505b80600001516001600160a01b03167fc1bf93444a0055a24a7d0154b75fedf78edfe355c06a2ce8e47f9f3908720559826020015183604001518560405161156a93929190614a0b565b60405180910390a2505b6001016112db565b505b6072548110156115f957607254600090611599906001612558565b905060728054806115a657fe5b600082815260208120820160001990810180546001600160b81b031916905590910190915560405182917f99fa473fdf53414bcd014cf6e7509fc58c68f7b86174767faa6ad5100cd5bae591a25061157e565b6000611603612580565b90506103e8811115610a535760405162461bcd60e51b81526004016106d790614773565b6071546001600160a01b031681565b606654604080516318c1996d60e21b815290516000926001600160a01b03169163630665b4916004808301926020929190829003018186803b15801561167b57600080fd5b505afa15801561168f573d6000803e3d6000fd5b505050506040513d601f19601f820116820180604052508101906108249190613d58565b6116bb611044565b6001600160a01b03166116cc6120ad565b6001600160a01b031614806116fb57506071546001600160a01b03166116f06120ad565b6001600160a01b0316145b8061172057506070546001600160a01b03166117156120ad565b6001600160a01b0316145b61173c5760405162461bcd60e51b81526004016106d7906142a0565b606654604051636a3fd4f960e01b81526001600160a01b0390911690636a3fd4f99061176c908690600401613f08565b60206040518083038186803b15801561178457600080fd5b505afa158015611798573d6000803e3d6000fd5b505050506040513d601f19601f820116820180604052508101906117bc9190613c2d565b6117d85760405162461bcd60e51b81526004016106d790614817565b6117f26001600160a01b0384166380ac58cd60e01b6120ca565b61180e5760405162461bcd60e51b81526004016106d790614174565b611819606d84612612565b61182857611828606d84612663565b60005b818110156118575761184f8484848481811061184357fe5b9050602002013561272b565b60010161182b565b50826001600160a01b03167f51541dc4b4c08a16085809cccdc4cc77d8000b60fbb00142e57f236d8429867583836040516118939291906140af565b60405180910390a2505050565b6000610824611fe1565b60006118b4610740565b6070549091506001600160a01b03161561192f57607054606a5460405163266fce1f60e11b81526001600160a01b0390921691634cdf9c3e916118fc91859190600401614a49565b600060405180830381600087803b15801561191657600080fd5b505af115801561192a573d6000803e3d6000fd5b505050505b6119388161287c565b6071546001600160a01b0316156119b057607154606a54604051632ba8396360e11b81526001600160a01b039092169163575072c69161197d91859190600401614a49565b600060405180830381600087803b15801561199757600080fd5b505af11580156119ab573d6000803e3d6000fd5b505050505b6119c06119bb612e09565b6121cd565b606a556119cb6120ad565b6001600160a01b03167f9c4163ece98173eab9a496c4db8bf3e2c8edcc5d2854377880597ccb858b7a9d82604051611a039190613eff565b60405180910390a2606a54611a166120ad565b6001600160a01b03167fc61852c20f0b03b31d782f3022f2bf20322ac17ce66c5349fb6e24740cdd645660405160405180910390a350565b611a566138a4565b60728281548110611a6357fe5b60009182526020918290206040805160608101825292909101546001600160a01b0381168352600160a01b810461ffff1693830193909352600160b01b90920460ff169181019190915292915050565b611abb6120ad565b6001600160a01b0316611acc611044565b6001600160a01b031614611af25760405162461bcd60e51b81526004016106d790614718565b6001600160a01b038116611b185760405162461bcd60e51b81526004016106d79061425a565b6033546040516001600160a01b038084169216907f8be0079c531659141344cd1fd0a4f28419497f9722a3daafe3b4186f6b6457e090600090a3603380546001600160a01b0319166001600160a01b0392909216919091179055565b600054610100900460ff1680611b8d5750611b8d612047565b80611b9b575060005460ff16155b611bb75760405162461bcd60e51b81526004016106d7906145d7565b600054610100900460ff16158015611be2576000805460ff1961ff0019909116610100171660011790555b6001600160a01b038516611c085760405162461bcd60e51b81526004016106d7906144cb565b6001600160a01b038416611c2e5760405162461bcd60e51b81526004016106d7906148d8565b6001600160a01b038316611c545760405162461bcd60e51b81526004016106d790614323565b606680546001600160a01b038088166001600160a01b031992831617909255606780548784169083161790556068805492861692909116919091179055611c9a86612503565b611ca2612e0d565b6040516329965a1d60e01b8152731820a4b7618bde71dce8cdc73aab6c95905fad24906329965a1d90611cfd9030907fb281fc8c12954d22544db45de3159a39272895b169a852b314f9cc762e44c53b908290600401613fd2565b600060405180830381600087803b158015611d1757600080fd5b505af1158015611d2b573d6000803e3d6000fd5b50505050611d39606b612e9f565b60005b8251811015611d6957611d61838281518110611d5457fe5b6020026020010151612214565b600101611d3c565b506069869055606a879055611d7e606d612e9f565b846001600160a01b03167f08df3eb19fd45e75c3427461686799fdfd60a8c9a1d0880105960f65a513ce748888878787604051611dbf959493929190614a57565b60405180910390a2606a54611dd26120ad565b6001600160a01b03167fc61852c20f0b03b31d782f3022f2bf20322ac17ce66c5349fb6e24740cdd645660405160405180910390a38015610737576000805461ff001916905550505050505050565b611e296120ad565b6001600160a01b0316611e3a611044565b6001600160a01b031614611e605760405162461bcd60e51b81526004016106d790614718565b60725460ff821610611e845760405162461bcd60e51b81526004016106d790614625565b6001826040015160ff161115611eac5760405162461bcd60e51b81526004016106d79061436d565b81516001600160a01b0316611ed35760405162461bcd60e51b81526004016106d79061454b565b8160728260ff1681548110611ee457fe5b600091825260208083208451920180549185015160409095015160ff16600160b01b0260ff60b01b1961ffff909616600160a01b0261ffff60a01b196001600160a01b039095166001600160a01b03199094169390931793909316919091179390931617909155611f53612580565b90506103e8811115611f775760405162461bcd60e51b81526004016106d790614773565b82600001516001600160a01b03167fc1bf93444a0055a24a7d0154b75fedf78edfe355c06a2ce8e47f9f3908720559846020015185604001518560405161189393929190614a2a565b60405180604001604052806005815260200164332e342e3160d81b81525081565b600080611fec6120b1565b90506000611ff8612e09565b90508181111561200d57600092505050610827565b6120178282612558565b9250505090565b600080612033670de0b6b3a764000085612ee3565b905061203f8184612f1d565b949350505050565b600061205230612f5f565b15905090565b600081116120785760405162461bcd60e51b81526004016106d7906146a0565b60738190556040517fc44c7222e8df09744ced394101df47e78dedb642d3065267bb388901de9df6d49061097d908390613eff565b3390565b6000610824606954606a54612f6590919063ffffffff16565b60006120d583612f8a565b80156120e657506120e68383612fbd565b9392505050565b606080826000015467ffffffffffffffff8111801561210b57600080fd5b50604051908082528060200260200182016040528015612135578160200160208202803683370190505b50600160008181529085016020526040812054919250906001600160a01b03165b6001600160a01b0381161580159061217857506001600160a01b038116600114155b156121c4578083838151811061218a57fe5b6001600160a01b03928316602091820292909201810191909152918116600090815260018088019093526040902054929091019116612156565b50909392505050565b6000806121f16069546121eb606a548661255890919063ffffffff16565b90612fe3565b90506120e661220b60695483612ee390919063ffffffff16565b606a5490612f65565b612226816001600160a01b0316612f5f565b6122425760405162461bcd60e51b81526004016106d79061466b565b606654604051636a3fd4f960e01b81526001600160a01b0390911690636a3fd4f990612272908490600401613f08565b60206040518083038186803b15801561228a57600080fd5b505afa15801561229e573d6000803e3d6000fd5b505050506040513d601f19601f820116820180604052508101906122c29190613c2d565b6122de5760405162461bcd60e51b81526004016106d790614817565b60408051600481526024810182526020810180516001600160e01b03166318160ddd60e01b17905290516000916060916001600160a01b0385169161232291613ee3565b600060405180830381855afa9150503d806000811461235d576040519150601f19603f3d011682016040523d82523d6000602084013e612362565b606091505b5091509150816123845760405162461bcd60e51b81526004016106d790614594565b61238f606b84612663565b6040516001600160a01b038416907fbcd6d991f3416e288bf59a2997b423772937b62c7ea7dd1a54af7771de1f741890600090a2505050565b6001600160a01b0381166001148015906123ea57506001600160a01b03811615155b6124065760405162461bcd60e51b81526004016106d790614204565b6001600160a01b0382811660009081526001850160205260409020548116908216146124445760405162461bcd60e51b81526004016106d79061422d565b6001600160a01b039081166000818152600185016020526040808220805495851683529082208054959094166001600160a01b03199586161790935552805490911690558054600019019055565b6001600160a01b0381166000908152606f602052604081206124b3916138c4565b6040516001600160a01b038216907fcd64d9dacd230c5ccf1278ea5332b0621aa28c950fb0e61c8fbc9e2011c88a3490600090a250565b60006124f46120b1565b6124fc612e09565b1015905090565b600081116125235760405162461bcd60e51b81526004016106d7906143b5565b60698190556040517f0d379c1a7282461e725a9dc2d74e65246c77e98ae93835e26c2f1654c48ee4ec9061097d908390613eff565b60008282111561257a5760405162461bcd60e51b81526004016106d790614494565b50900390565b6072546000908190815b818160ff16101561260a5761259d6138a4565b60728260ff16815481106125ad57fe5b60009182526020918290206040805160608101825292909101546001600160a01b0381168352600160a01b810461ffff16938301849052600160b01b900460ff169082015291506125ff908590612f65565b93505060010161258a565b509091505090565b60006001600160a01b03821660011480159061263657506001600160a01b03821615155b80156120e65750506001600160a01b03908116600090815260019290920160205260409091205416151590565b6001600160a01b03811660011480159061268557506001600160a01b03811615155b6126a15760405162461bcd60e51b81526004016106d790614204565b6001600160a01b03818116600090815260018401602052604090205416156126db5760405162461bcd60e51b81526004016106d790614862565b60016000818152838201602052604080822080546001600160a01b039586168085529284208054969091166001600160a01b03199687161790559183905281549093169092179091558154019055565b6066546040516331a9108f60e11b81526001600160a01b0391821691841690636352211e9061275e908590600401613eff565b60206040518083038186803b15801561277657600080fd5b505afa15801561278a573d6000803e3d6000fd5b505050506040513d601f19601f820116820180604052508101906127ae91906139d7565b6001600160a01b0316146127d45760405162461bcd60e51b81526004016106d7906149b6565b60005b6001600160a01b0383166000908152606f602052604090205481101561284f576001600160a01b0383166000908152606f6020526040902080548391908390811061281e57fe5b906000526020600020015414156128475760405162461bcd60e51b81526004016106d790614970565b6001016127d7565b506001600160a01b039091166000908152606f602090815260408220805460018101825590835291200155565b6066546040805163e6d8a94b60e01b815290516000926001600160a01b03169163e6d8a94b91600480830192602092919082900301818787803b1580156128c257600080fd5b505af11580156128d6573d6000803e3d6000fd5b505050506040513d601f19601f820116820180604052508101906128fa9190613d58565b905061290581613015565b9050606760009054906101000a90046001600160a01b03166001600160a01b03166318160ddd6040518163ffffffff1660e01b815260040160206040518083038186803b15801561295557600080fd5b505afa158015612969573d6000803e3d6000fd5b505050506040513d601f19601f8201168201806040525081019061298d9190613d58565b6129c0576040517f3728feb3fc1ef1bf4a24036afbe7d34b59c551bf0d2ab5564e87ec1734fa80dd90600090a150610aeb565b60765460735460ff9091169060608167ffffffffffffffff811180156129e557600080fd5b50604051908082528060200260200182016040528015612a0f578160200160208202803683370190505b50607754909150859060009081905b85831015612bba57606754604051633b30414760e01b81526000916001600160a01b031690633b30414790612a57908890600401613eff565b60206040518083038186803b158015612a6f57600080fd5b505afa158015612a83573d6000803e3d6000fd5b505050506040513d601f19601f82011682018060405250810190612aa791906139d7565b6001600160a01b03811660009081526075602052604090205490915060ff16612b025780868580600101965081518110612add57fe5b60200260200101906001600160a01b031690816001600160a01b031681525050612b7b565b818360010193508310612b7b577fb5f728fcb182000eb8e953c15f6795f07b6cda75b35ef0b65645b53aac63694584604051612b3e9190613eff565b60405180910390a183612b75576040517f3728feb3fc1ef1bf4a24036afbe7d34b59c551bf0d2ab5564e87ec1734fa80dd90600090a15b50612bba565b60008461020902866101f30101604051602001612b989190613eff565b60408051601f1981840301815291905280516020909101209550612a1e915050565b612bd785600081518110612bca57fe5b60200260200101516130c2565b600087612bed57612be88985612fe3565b612bf7565b612bf78988612fe3565b90508015612c315760005b84811015612c2f57612c27878281518110612c1957fe5b602002602001015183613232565b600101612c02565b505b60745460ff1615612de0576000612c48606b61329f565b90505b6001600160a01b03811615801590612c7e5750612c68606b6132bc565b6001600160a01b0316816001600160a01b031614155b15612dda576066546040516370a0823160e01b81526000916001600160a01b03808516926370a0823192612cb6921690600401613f08565b60206040518083038186803b158015612cce57600080fd5b505afa158015612ce2573d6000803e3d6000fd5b505050506040513d601f19601f82011682018060405250810190612d069190613d58565b905060008a612d1e57612d198288612fe3565b612d28565b612d28828b612fe3565b90508015612dc65760005b87811015612dc4576066548a516001600160a01b0390911690632b0ab144908c9084908110612d5e57fe5b602002602001015186856040518463ffffffff1660e01b8152600401612d8693929190613f83565b600060405180830381600087803b158015612da057600080fd5b505af1158015612db4573d6000803e3d6000fd5b505060019092019150612d339050565b505b612dd1606b846132c2565b92505050612c4b565b50612dfd565b612dfd86600081518110612df057fe5b60200260200101516132e5565b50505050505050505050565b4290565b600054610100900460ff1680612e265750612e26612047565b80612e34575060005460ff16155b612e505760405162461bcd60e51b81526004016106d7906145d7565b600054610100900460ff16158015612e7b576000805460ff1961ff0019909116610100171660011790555b612e83613431565b612e8b6134b2565b8015610aeb576000805461ff001916905550565b805415612ebe5760405162461bcd60e51b81526004016106d79061474d565b60016000818152918101602052604090912080546001600160a01b0319169091179055565b600082612ef257506000610658565b82820282848281612eff57fe5b04146120e65760405162461bcd60e51b81526004016106d7906146d7565b60006120e683836040518060400160405280601a81526020017f536166654d6174683a206469766973696f6e206279207a65726f00000000000081525061358c565b3b151590565b6000828201838110156120e65760405162461bcd60e51b81526004016106d7906142ec565b6000612f9d826301ffc9a760e01b612fbd565b80156106585750612fb6826001600160e01b0319612fbd565b1592915050565b6000806000612fcc85856135c3565b91509150818015612fda5750805b95945050505050565b60008082116130045760405162461bcd60e51b81526004016106d790614514565b81838161300d57fe5b049392505050565b6072546000908290825b818110156130b95761302f6138a4565b6072828154811061303c57fe5b600091825260208083206040805160608101825293909101546001600160a01b0381168452600160a01b810461ffff16928401839052600160b01b900460ff169083015290925061308e9086906136b8565b90506130a382600001518284604001516136cc565b6130ad8782612558565b9650505060010161301f565b50929392505050565b60006130ce606d61329f565b90505b6001600160a01b0381161580159061310457506130ee606d6132bc565b6001600160a01b0316816001600160a01b031614155b15613228576066546040516370a0823160e01b81526000916001600160a01b03808516926370a082319261313c921690600401613f08565b60206040518083038186803b15801561315457600080fd5b505afa158015613168573d6000803e3d6000fd5b505050506040513d601f19601f8201168201806040525081019061318c9190613d58565b90508015613215576066546001600160a01b038381166000908152606f60205260409081902090516316960d5560e01b815291909216916316960d55916131da918791879190600401613f1c565b600060405180830381600087803b1580156131f457600080fd5b505af1158015613208573d6000803e3d6000fd5b5050505061321582612492565b613220606d836132c2565b9150506130d1565b610d86606d6136d7565b60665460675460405163358dc31d60e11b81526001600160a01b0392831692636b1b863a9261326992879287921690600401613fd2565b600060405180830381600087803b15801561328357600080fd5b505af1158015613297573d6000803e3d6000fd5b505050505050565b60016000818152910160205260409020546001600160a01b031690565b50600190565b6001600160a01b0380821660009081526001840160205260409020541692915050565b60006132f1606b61329f565b90505b6001600160a01b038116158015906133275750613311606b6132bc565b6001600160a01b0316816001600160a01b031614155b15610d86576066546040516370a0823160e01b81526000916001600160a01b03808516926370a082319261335f921690600401613f08565b60206040518083038186803b15801561337757600080fd5b505afa15801561338b573d6000803e3d6000fd5b505050506040513d601f19601f820116820180604052508101906133af9190613d58565b9050801561341e57606654604051630ac2ac5160e21b81526001600160a01b0390911690632b0ab144906133eb90869086908690600401613f83565b600060405180830381600087803b15801561340557600080fd5b505af1158015613419573d6000803e3d6000fd5b505050505b613429606b836132c2565b9150506132f4565b600054610100900460ff168061344a575061344a612047565b80613458575060005460ff16155b6134745760405162461bcd60e51b81526004016106d7906145d7565b600054610100900460ff16158015612e8b576000805460ff1961ff0019909116610100171660011790558015610aeb576000805461ff001916905550565b600054610100900460ff16806134cb57506134cb612047565b806134d9575060005460ff16155b6134f55760405162461bcd60e51b81526004016106d7906145d7565b600054610100900460ff16158015613520576000805460ff1961ff0019909116610100171660011790555b600061352a6120ad565b603380546001600160a01b0319166001600160a01b038316908117909155604051919250906000907f8be0079c531659141344cd1fd0a4f28419497f9722a3daafe3b4186f6b6457e0908290a3508015610aeb576000805461ff001916905550565b600081836135ad5760405162461bcd60e51b81526004016106d79190614141565b5060008385816135b957fe5b0495945050505050565b60008060606301ffc9a760e01b846040516024016135e1919061412c565b604051602081830303815290604052906001600160e01b0319166020820180516001600160e01b038381831617835250505050905060006060866001600160a01b0316617530846040516136359190613ee3565b6000604051808303818686fa925050503d8060008114613671576040519150601f19603f3d011682016040523d82523d6000602084013e613676565b606091505b509150915060208151101561369457600080945094505050506136b1565b81818060200190518101906136a99190613c2d565b945094505050505b9250929050565b60006120e661ffff831684026103e8612fe3565b610d2d838383613773565b6001600081815290820160205260409020546001600160a01b03165b6001600160a01b0381161580159061371557506001600160a01b038116600114155b1561374b576001600160a01b039081166000908152600183016020526040902080546001600160a01b03198116909155166136f3565b50600160008181528282016020526040812080546001600160a01b0319169092179091559055565b60665460408051634eb1c24560e11b815290516060926001600160a01b031691639d63848a916004808301926000929190829003018186803b1580156137b857600080fd5b505afa1580156137cc573d6000803e3d6000fd5b505050506040513d6000823e601f3d908101601f191682016040526137f49190810190613ac4565b905080518260ff16111561381a5760405162461bcd60e51b81526004016106d790614889565b6000818360ff168151811061382b57fe5b602090810291909101015160665460405163358dc31d60e11b81529192506001600160a01b031690636b1b863a9061386b90889088908690600401613fd2565b600060405180830381600087803b15801561388557600080fd5b505af1158015613899573d6000803e3d6000fd5b505050505050505050565b604080516060810182526000808252602082018190529181019190915290565b5080546000825590600052602060002090810190610aeb91905b808211156138f257600081556001016138de565b5090565b60008083601f840112613907578081fd5b50813567ffffffffffffffff81111561391e578182fd5b60208301915083602080830285010111156136b157600080fd5b805161065881614b3d565b803561065881614b3d565b60006060828403121561395f578081fd5b6139696060614aca565b9050813561397681614b3d565b8152602082013561ffff8116811461398d57600080fd5b602082015261399f83604084016139aa565b604082015292915050565b803560ff8116811461065857600080fd5b6000602082840312156139cc578081fd5b81356120e681614b3d565b6000602082840312156139e8578081fd5b81516120e681614b3d565b60008060008060808587031215613a08578283fd5b8435613a1381614b3d565b93506020850135613a2381614b3d565b9250604085013591506060850135613a3a81614b3d565b939692955090935050565b60008060408385031215613a57578182fd5b8235613a6281614b3d565b91506020830135613a7281614b52565b809150509250929050565b60008060008060808587031215613a92578384fd5b8435613a9d81614b3d565b9350602085013592506040850135613ab481614b3d565b91506060850135613a3a81614b3d565b60006020808385031215613ad6578182fd5b825167ffffffffffffffff811115613aec578283fd5b8301601f81018513613afc578283fd5b8051613b0f613b0a82614af1565b614aca565b8181528381019083850185840285018601891015613b2b578687fd5b8694505b83851015613b5557613b418982613938565b835260019490940193918501918501613b2f565b50979650505050505050565b60008060208385031215613b73578182fd5b823567ffffffffffffffff811115613b89578283fd5b613b95858286016138f6565b90969095509350505050565b60008060208385031215613bb3578182fd5b823567ffffffffffffffff80821115613bca578384fd5b818501915085601f830112613bdd578384fd5b813581811115613beb578485fd5b866020606083028501011115613bff578485fd5b60209290920196919550909350505050565b600060208284031215613c22578081fd5b81356120e681614b52565b600060208284031215613c3e578081fd5b81516120e681614b52565b600060208284031215613c5a578081fd5b81356001600160e01b0319811681146120e6578182fd5b60008060408385031215613c83578182fd5b8235613c8e81614b3d565b91506020830135613a7281614b3d565b600080600060408486031215613cb2578081fd5b8335613cbd81614b3d565b9250602084013567ffffffffffffffff811115613cd8578182fd5b613ce4868287016138f6565b9497909650939450505050565b600060608284031215613d02578081fd5b6120e6838361394e565b60008060808385031215613d1e578182fd5b613d28848461394e565b9150613d3784606085016139aa565b90509250929050565b600060208284031215613d51578081fd5b5035919050565b600060208284031215613d69578081fd5b5051919050565b60008060008060008060c08789031215613d88578384fd5b8635955060208088013595506040880135613da281614b3d565b94506060880135613db281614b3d565b93506080880135613dc281614b3d565b925060a088013567ffffffffffffffff811115613ddd578283fd5b8801601f81018a13613ded578283fd5b8035613dfb613b0a82614af1565b81815283810190838501858402850186018e1015613e17578687fd5b8694505b83851015613e4157613e2d8e82613943565b835260019490940193918501918501613e1b565b5080955050505050509295509295509295565b60008060008060008060c08789031215613e6c578384fd5b86359550602087013594506040870135613e8581614b3d565b93506060870135613e9581614b3d565b92506080870135613ea581614b3d565b8092505060a087013590509295509295509295565b80516001600160a01b0316825260208082015161ffff169083015260409081015160ff16910152565b60008251613ef5818460208701614b11565b9190910192915050565b90815260200190565b6001600160a01b0391909116815260200190565b6001600160a01b03848116825283166020808301919091526060604083018190528354908301819052600084815282812090929091608085019190845b81811015613f7557845484526001948501949383019301613f59565b509198975050505050505050565b6001600160a01b039384168152919092166020820152604081019190915260600190565b6001600160a01b03948516815292841660208401526040830191909152909116606082015260800190565b6001600160a01b0393841681526020810192909252909116604082015260600190565b6001600160a01b03948516815260208101939093529083166040830152909116606082015260800190565b6020808252825182820181905260009190848201906040850190845b818110156140615783516001600160a01b03168352928401929184019160010161403c565b50909695505050505050565b6020808252825182820181905260009190848201906040850190845b818110156140615761409c838551613eba565b9284019260609290920191600101614089565b6020808252810182905260006001600160fb1b038311156140ce578081fd5b60208302808560408501379190910160400190815292915050565b6020808252825182820181905260009190848201906040850190845b8181101561406157835183529284019291840191600101614105565b901515815260200190565b6001600160e01b031991909116815260200190565b6000602082528251806020840152614160816040850160208701614b11565b601f01601f19169190910160400192915050565b60208082526024908201527f506572696f6469635072697a6553747261746567792f6572633732312d696e76604082015263185b1a5960e21b606082015260800190565b6020808252602c908201527f506572696f6469635072697a6553747261746567792f746f6b656e2d6c69737460408201526b195b995c8b5a5b9d985b1a5960a21b606082015260800190565b6020808252600f908201526e496e76616c6964206164647265737360881b604082015260600190565b602080825260139082015272496e76616c696420707265764164647265737360681b604082015260600190565b60208082526026908201527f4f776e61626c653a206e6577206f776e657220697320746865207a65726f206160408201526564647265737360d01b606082015260800190565b6020808252602c908201527f506572696f6469635072697a6553747261746567792f6f6e6c792d6f776e657260408201526b16b7b916b634b9ba32b732b960a11b606082015260800190565b6020808252601b908201527f536166654d6174683a206164646974696f6e206f766572666c6f770000000000604082015260600190565b6020808252602a908201527f506572696f6469635072697a6553747261746567792f73706f6e736f72736869604082015269702d6e6f742d7a65726f60b01b606082015260800190565b60208082526028908201527f4d756c7469706c6557696e6e6572732f696e76616c69642d7072697a6573706c60408201526734ba16ba37b5b2b760c11b606082015260800190565b60208082526034908201527f506572696f6469635072697a6553747261746567792f7072697a652d706572696040820152736f642d677265617465722d7468616e2d7a65726f60601b606082015260800190565b60208082526025908201527f506572696f6469635072697a6553747261746567792f6f6e6c792d7072697a656040820152640b5c1bdbdb60da1b606082015260800190565b60208082526026908201527f506572696f6469635072697a6553747261746567792f7472616e736665722d746040820152653796b9b2b63360d11b606082015260800190565b6020808252601e908201527f536166654d6174683a207375627472616374696f6e206f766572666c6f770000604082015260600190565b60208082526029908201527f506572696f6469635072697a6553747261746567792f7072697a652d706f6f6c6040820152682d6e6f742d7a65726f60b81b606082015260800190565b6020808252601a908201527f536166654d6174683a206469766973696f6e206279207a65726f000000000000604082015260600190565b60208082526029908201527f4d756c7469706c6557696e6e6572732f696e76616c69642d7072697a6573706c6040820152681a5d0b5d185c99d95d60ba1b606082015260800190565b60208082526023908201527f506572696f6469635072697a6553747261746567792f65726332302d696e76616040820152621b1a5960ea1b606082015260800190565b6020808252602e908201527f496e697469616c697a61626c653a20636f6e747261637420697320616c72656160408201526d191e481a5b9a5d1a585b1a5e995960921b606082015260800190565b60208082526026908201527f4d756c7469706c6557696e6e6572732f6e6f6e6578697374656e742d7072697a604082015265195cdc1b1a5d60d21b606082015260800190565b6020808252818101527f506572696f6469635072697a6553747261746567792f65726332302d6e756c6c604082015260600190565b6020808252601f908201527f4d756c7469706c6557696e6e6572732f77696e6e6572732d6774652d6f6e6500604082015260600190565b60208082526021908201527f536166654d6174683a206d756c7469706c69636174696f6e206f766572666c6f6040820152607760f81b606082015260800190565b6020808252818101527f4f776e61626c653a2063616c6c6572206973206e6f7420746865206f776e6572604082015260600190565b6020808252600c908201526b105b1c9958591e481a5b9a5d60a21b604082015260600190565b60208082526033908201527f4d756c7469706c6557696e6e6572732f696e76616c69642d7072697a6573706c6040820152721a5d0b5c195c98d95b9d1859d94b5d1bdd185b606a1b606082015260800190565b60208082526031908201527f506572696f6469635072697a6553747261746567792f6265666f72654177617260408201527019131a5cdd195b995c8b5a5b9d985b1a59607a1b606082015260800190565b6020808252602b908201527f506572696f6469635072697a6553747261746567792f63616e6e6f742d61776160408201526a1c990b595e1d195c9b985b60aa1b606082015260800190565b6020808252600d908201526c105b1c9958591e481859191959609a1b604082015260600190565b6020808252602f908201527f506572696f6469635072697a6553747261746567792f61776172642d696e766160408201526e0d8d2c85ae8ded6cadc5ad2dcc8caf608b1b606082015260800190565b60208082526025908201527f506572696f6469635072697a6553747261746567792f7469636b65742d6e6f746040820152642d7a65726f60d81b606082015260800190565b60208082526033908201527f506572696f6469635072697a6553747261746567792f7072697a6553747261746040820152721959de531a5cdd195b995c8b5a5b9d985b1a59606a1b606082015260800190565b60208082526026908201527f506572696f6469635072697a6553747261746567792f6572633732312d6475706040820152656c696361746560d01b606082015260800190565b60208082526027908201527f506572696f6469635072697a6553747261746567792f756e617661696c61626c6040820152663296ba37b5b2b760c91b606082015260800190565b606081016106588284613eba565b61ffff93909316835260ff919091166020830152604082015260600190565b61ffff93909316835260ff918216602084015216604082015260600190565b918252602082015260400190565b85815260208082018690526001600160a01b038581166040840152848116606084015260a060808401819052845190840181905260009285810192909160c0860190855b81811015614ab9578551841683529484019491840191600101614a9b565b50909b9a5050505050505050505050565b60405181810167ffffffffffffffff81118282101715614ae957600080fd5b604052919050565b600067ffffffffffffffff821115614b07578081fd5b5060209081020190565b60005b83811015614b2c578181015183820152602001614b14565b83811115610a535750506000910152565b6001600160a01b0381168114610aeb57600080fd5b8015158114610aeb57600080fdfea26469706673582212206fb02b158f8b5cd1a68987c9eb7674126382673dccf84bfe670f6f7a23b1ba3764736f6c634300060c0033",
  "linkReferences": {},
  "deployedLinkReferences": {}
}