{
  "_format": "hh-sol-artifact-1",
  "contractName": "YieldSourcePrizePoolHarness",
  "sourceName": "contracts/test/YieldSourcePrizePoolHarness.sol",
  "abi": [
    {
      "anonymous": false,
      "inputs": [
        {
          "indexed": false,
          "internalType": "uint256",
          "name": "amount",
          "type": "uint256"
        }
      ],
      "name": "AwardCaptured",
      "type": "event"
    },
    {
      "anonymous": false,
      "inputs": [
        {
          "indexed": true,
          "internalType": "address",
          "name": "winner",
          "type": "address"
        },
        {
          "indexed": true,
          "internalType": "address",
          "name": "token",
          "type": "address"
        },
        {
          "indexed": false,
          "internalType": "uint256",
          "name": "amount",
          "type": "uint256"
        }
      ],
      "name": "Awarded",
      "type": "event"
    },
    {
      "anonymous": false,
      "inputs": [
        {
          "indexed": true,
          "internalType": "address",
          "name": "winner",
          "type": "address"
        },
        {
          "indexed": true,
          "internalType": "address",
          "name": "token",
          "type": "address"
        },
        {
          "indexed": false,
          "internalType": "uint256",
          "name": "amount",
          "type": "uint256"
        }
      ],
      "name": "AwardedExternalERC20",
      "type": "event"
    },
    {
      "anonymous": false,
      "inputs": [
        {
          "indexed": true,
          "internalType": "address",
          "name": "winner",
          "type": "address"
        },
        {
          "indexed": true,
          "internalType": "address",
          "name": "token",
          "type": "address"
        },
        {
          "indexed": false,
          "internalType": "uint256[]",
          "name": "tokenIds",
          "type": "uint256[]"
        }
      ],
      "name": "AwardedExternalERC721",
      "type": "event"
    },
    {
      "anonymous": false,
      "inputs": [
        {
          "indexed": true,
          "internalType": "contract ControlledTokenInterface",
          "name": "token",
          "type": "address"
        }
      ],
      "name": "ControlledTokenAdded",
      "type": "event"
    },
    {
      "anonymous": false,
      "inputs": [
        {
          "indexed": true,
          "internalType": "address",
          "name": "user",
          "type": "address"
        },
        {
          "indexed": true,
          "internalType": "address",
          "name": "token",
          "type": "address"
        },
        {
          "indexed": false,
          "internalType": "uint256",
          "name": "amount",
          "type": "uint256"
        }
      ],
      "name": "CreditBurned",
      "type": "event"
    },
    {
      "anonymous": false,
      "inputs": [
        {
          "indexed": true,
          "internalType": "address",
          "name": "user",
          "type": "address"
        },
        {
          "indexed": true,
          "internalType": "address",
          "name": "token",
          "type": "address"
        },
        {
          "indexed": false,
          "internalType": "uint256",
          "name": "amount",
          "type": "uint256"
        }
      ],
      "name": "CreditMinted",
      "type": "event"
    },
    {
      "anonymous": false,
      "inputs": [
        {
          "indexed": false,
          "internalType": "address",
          "name": "token",
          "type": "address"
        },
        {
          "indexed": false,
          "internalType": "uint128",
          "name": "creditLimitMantissa",
          "type": "uint128"
        },
        {
          "indexed": false,
          "internalType": "uint128",
          "name": "creditRateMantissa",
          "type": "uint128"
        }
      ],
      "name": "CreditPlanSet",
      "type": "event"
    },
    {
      "anonymous": false,
      "inputs": [
        {
          "indexed": true,
          "internalType": "address",
          "name": "operator",
          "type": "address"
        },
        {
          "indexed": true,
          "internalType": "address",
          "name": "to",
          "type": "address"
        },
        {
          "indexed": true,
          "internalType": "address",
          "name": "token",
          "type": "address"
        },
        {
          "indexed": false,
          "internalType": "uint256",
          "name": "amount",
          "type": "uint256"
        },
        {
          "indexed": false,
          "internalType": "address",
          "name": "referrer",
          "type": "address"
        }
      ],
      "name": "Deposited",
      "type": "event"
    },
    {
      "anonymous": false,
      "inputs": [
        {
          "indexed": false,
          "internalType": "bytes",
          "name": "error",
          "type": "bytes"
        }
      ],
      "name": "ErrorAwardingExternalERC721",
      "type": "event"
    },
    {
      "anonymous": false,
      "inputs": [
        {
          "indexed": false,
          "internalType": "address",
          "name": "reserveRegistry",
          "type": "address"
        },
        {
          "indexed": false,
          "internalType": "uint256",
          "name": "maxExitFeeMantissa",
          "type": "uint256"
        }
      ],
      "name": "Initialized",
      "type": "event"
    },
    {
      "anonymous": false,
      "inputs": [
        {
          "indexed": true,
          "internalType": "address",
          "name": "operator",
          "type": "address"
        },
        {
          "indexed": true,
          "internalType": "address",
          "name": "from",
          "type": "address"
        },
        {
          "indexed": true,
          "internalType": "address",
          "name": "token",
          "type": "address"
        },
        {
          "indexed": false,
          "internalType": "uint256",
          "name": "amount",
          "type": "uint256"
        },
        {
          "indexed": false,
          "internalType": "uint256",
          "name": "redeemed",
          "type": "uint256"
        },
        {
          "indexed": false,
          "internalType": "uint256",
          "name": "exitFee",
          "type": "uint256"
        }
      ],
      "name": "InstantWithdrawal",
      "type": "event"
    },
    {
      "anonymous": false,
      "inputs": [
        {
          "indexed": false,
          "internalType": "uint256",
          "name": "liquidityCap",
          "type": "uint256"
        }
      ],
      "name": "LiquidityCapSet",
      "type": "event"
    },
    {
      "anonymous": false,
      "inputs": [
        {
          "indexed": true,
          "internalType": "address",
          "name": "previousOwner",
          "type": "address"
        },
        {
          "indexed": true,
          "internalType": "address",
          "name": "newOwner",
          "type": "address"
        }
      ],
      "name": "OwnershipTransferred",
      "type": "event"
    },
    {
      "anonymous": false,
      "inputs": [
        {
          "indexed": true,
          "internalType": "address",
          "name": "prizeStrategy",
          "type": "address"
        }
      ],
      "name": "PrizeStrategySet",
      "type": "event"
    },
    {
      "anonymous": false,
      "inputs": [
        {
          "indexed": false,
          "internalType": "uint256",
          "name": "amount",
          "type": "uint256"
        }
      ],
      "name": "ReserveFeeCaptured",
      "type": "event"
    },
    {
      "anonymous": false,
      "inputs": [
        {
          "indexed": true,
          "internalType": "address",
          "name": "to",
          "type": "address"
        },
        {
          "indexed": false,
          "internalType": "uint256",
          "name": "amount",
          "type": "uint256"
        }
      ],
      "name": "ReserveWithdrawal",
      "type": "event"
    },
    {
      "anonymous": false,
      "inputs": [
        {
          "indexed": true,
          "internalType": "address",
          "name": "to",
          "type": "address"
        },
        {
          "indexed": true,
          "internalType": "address",
          "name": "token",
          "type": "address"
        },
        {
          "indexed": false,
          "internalType": "uint256",
          "name": "amount",
          "type": "uint256"
        }
      ],
      "name": "TransferredExternalERC20",
      "type": "event"
    },
    {
      "anonymous": false,
      "inputs": [
        {
          "indexed": true,
          "internalType": "address",
          "name": "yieldSource",
          "type": "address"
        }
      ],
      "name": "YieldSourcePrizePoolInitialized",
      "type": "event"
    },
    {
      "inputs": [],
      "name": "VERSION",
      "outputs": [
        {
          "internalType": "string",
          "name": "",
          "type": "string"
        }
      ],
      "stateMutability": "view",
      "type": "function"
    },
    {
      "inputs": [],
      "name": "accountedBalance",
      "outputs": [
        {
          "internalType": "uint256",
          "name": "",
          "type": "uint256"
        }
      ],
      "stateMutability": "view",
      "type": "function"
    },
    {
      "inputs": [
        {
          "internalType": "address",
          "name": "to",
          "type": "address"
        },
        {
          "internalType": "uint256",
          "name": "amount",
          "type": "uint256"
        },
        {
          "internalType": "address",
          "name": "controlledToken",
          "type": "address"
        }
      ],
      "name": "award",
      "outputs": [],
      "stateMutability": "nonpayable",
      "type": "function"
    },
    {
      "inputs": [],
      "name": "awardBalance",
      "outputs": [
        {
          "internalType": "uint256",
          "name": "",
          "type": "uint256"
        }
      ],
      "stateMutability": "view",
      "type": "function"
    },
    {
      "inputs": [
        {
          "internalType": "address",
          "name": "to",
          "type": "address"
        },
        {
          "internalType": "address",
          "name": "externalToken",
          "type": "address"
        },
        {
          "internalType": "uint256",
          "name": "amount",
          "type": "uint256"
        }
      ],
      "name": "awardExternalERC20",
      "outputs": [],
      "stateMutability": "nonpayable",
      "type": "function"
    },
    {
      "inputs": [
        {
          "internalType": "address",
          "name": "to",
          "type": "address"
        },
        {
          "internalType": "address",
          "name": "externalToken",
          "type": "address"
        },
        {
          "internalType": "uint256[]",
          "name": "tokenIds",
          "type": "uint256[]"
        }
      ],
      "name": "awardExternalERC721",
      "outputs": [],
      "stateMutability": "nonpayable",
      "type": "function"
    },
    {
      "inputs": [],
      "name": "balance",
      "outputs": [
        {
          "internalType": "uint256",
          "name": "",
          "type": "uint256"
        }
      ],
      "stateMutability": "nonpayable",
      "type": "function"
    },
    {
      "inputs": [
        {
          "internalType": "address",
          "name": "user",
          "type": "address"
        },
        {
          "internalType": "address",
          "name": "controlledToken",
          "type": "address"
        }
      ],
      "name": "balanceOfCredit",
      "outputs": [
        {
          "internalType": "uint256",
          "name": "",
          "type": "uint256"
        }
      ],
      "stateMutability": "nonpayable",
      "type": "function"
    },
    {
      "inputs": [
        {
          "internalType": "address",
          "name": "from",
          "type": "address"
        },
        {
          "internalType": "address",
          "name": "to",
          "type": "address"
        },
        {
          "internalType": "uint256",
          "name": "amount",
          "type": "uint256"
        }
      ],
      "name": "beforeTokenTransfer",
      "outputs": [],
      "stateMutability": "nonpayable",
      "type": "function"
    },
    {
      "inputs": [
        {
          "internalType": "address",
          "name": "from",
          "type": "address"
        },
        {
          "internalType": "address",
          "name": "controlledToken",
          "type": "address"
        },
        {
          "internalType": "uint256",
          "name": "amount",
          "type": "uint256"
        }
      ],
      "name": "calculateEarlyExitFee",
      "outputs": [
        {
          "internalType": "uint256",
          "name": "exitFee",
          "type": "uint256"
        },
        {
          "internalType": "uint256",
          "name": "burnedCredit",
          "type": "uint256"
        }
      ],
      "stateMutability": "nonpayable",
      "type": "function"
    },
    {
      "inputs": [
        {
          "internalType": "uint256",
          "name": "amount",
          "type": "uint256"
        }
      ],
      "name": "calculateReserveFee",
      "outputs": [
        {
          "internalType": "uint256",
          "name": "",
          "type": "uint256"
        }
      ],
      "stateMutability": "view",
      "type": "function"
    },
    {
      "inputs": [
        {
          "internalType": "address",
          "name": "_externalToken",
          "type": "address"
        }
      ],
      "name": "canAwardExternal",
      "outputs": [
        {
          "internalType": "bool",
          "name": "",
          "type": "bool"
        }
      ],
      "stateMutability": "view",
      "type": "function"
    },
    {
      "inputs": [],
      "name": "captureAwardBalance",
      "outputs": [
        {
          "internalType": "uint256",
          "name": "",
          "type": "uint256"
        }
      ],
      "stateMutability": "nonpayable",
      "type": "function"
    },
    {
      "inputs": [
        {
          "internalType": "address",
          "name": "controlledToken",
          "type": "address"
        }
      ],
      "name": "creditPlanOf",
      "outputs": [
        {
          "internalType": "uint128",
          "name": "creditLimitMantissa",
          "type": "uint128"
        },
        {
          "internalType": "uint128",
          "name": "creditRateMantissa",
          "type": "uint128"
        }
      ],
      "stateMutability": "view",
      "type": "function"
    },
    {
      "inputs": [],
      "name": "currentTime",
      "outputs": [
        {
          "internalType": "uint256",
          "name": "",
          "type": "uint256"
        }
      ],
      "stateMutability": "view",
      "type": "function"
    },
    {
      "inputs": [
        {
          "internalType": "address",
          "name": "to",
          "type": "address"
        },
        {
          "internalType": "uint256",
          "name": "amount",
          "type": "uint256"
        },
        {
          "internalType": "address",
          "name": "controlledToken",
          "type": "address"
        },
        {
          "internalType": "address",
          "name": "referrer",
          "type": "address"
        }
      ],
      "name": "depositTo",
      "outputs": [],
      "stateMutability": "nonpayable",
      "type": "function"
    },
    {
      "inputs": [
        {
          "internalType": "address",
          "name": "_controlledToken",
          "type": "address"
        },
        {
          "internalType": "uint256",
          "name": "_principal",
          "type": "uint256"
        },
        {
          "internalType": "uint256",
          "name": "_interest",
          "type": "uint256"
        }
      ],
      "name": "estimateCreditAccrualTime",
      "outputs": [
        {
          "internalType": "uint256",
          "name": "durationSeconds",
          "type": "uint256"
        }
      ],
      "stateMutability": "view",
      "type": "function"
    },
    {
      "inputs": [
        {
          "internalType": "contract RegistryInterface",
          "name": "_reserveRegistry",
          "type": "address"
        },
        {
          "internalType": "contract ControlledTokenInterface[]",
          "name": "_controlledTokens",
          "type": "address[]"
        },
        {
          "internalType": "uint256",
          "name": "_maxExitFeeMantissa",
          "type": "uint256"
        }
      ],
      "name": "initialize",
      "outputs": [],
      "stateMutability": "nonpayable",
      "type": "function"
    },
    {
      "inputs": [
        {
          "internalType": "contract RegistryInterface",
          "name": "_reserveRegistry",
          "type": "address"
        },
        {
          "internalType": "contract ControlledTokenInterface[]",
          "name": "_controlledTokens",
          "type": "address[]"
        },
        {
          "internalType": "uint256",
          "name": "_maxExitFeeMantissa",
          "type": "uint256"
        },
        {
          "internalType": "contract IYieldSource",
          "name": "_yieldSource",
          "type": "address"
        }
      ],
      "name": "initializeYieldSourcePrizePool",
      "outputs": [],
      "stateMutability": "nonpayable",
      "type": "function"
    },
    {
      "inputs": [
        {
          "internalType": "contract ControlledTokenInterface",
          "name": "controlledToken",
          "type": "address"
        }
      ],
      "name": "isControlled",
      "outputs": [
        {
          "internalType": "bool",
          "name": "",
          "type": "bool"
        }
      ],
      "stateMutability": "view",
      "type": "function"
    },
    {
      "inputs": [],
      "name": "liquidityCap",
      "outputs": [
        {
          "internalType": "uint256",
          "name": "",
          "type": "uint256"
        }
      ],
      "stateMutability": "view",
      "type": "function"
    },
    {
      "inputs": [],
      "name": "maxExitFeeMantissa",
      "outputs": [
        {
          "internalType": "uint256",
          "name": "",
          "type": "uint256"
        }
      ],
      "stateMutability": "view",
      "type": "function"
    },
    {
      "inputs": [
        {
          "internalType": "address",
          "name": "operator",
          "type": "address"
        },
        {
          "internalType": "address",
          "name": "from",
          "type": "address"
        },
        {
          "internalType": "uint256",
          "name": "tokenId",
          "type": "uint256"
        },
        {
          "internalType": "bytes",
          "name": "data",
          "type": "bytes"
        }
      ],
      "name": "onERC721Received",
      "outputs": [
        {
          "internalType": "bytes4",
          "name": "",
          "type": "bytes4"
        }
      ],
      "stateMutability": "nonpayable",
      "type": "function"
    },
    {
      "inputs": [],
      "name": "owner",
      "outputs": [
        {
          "internalType": "address",
          "name": "",
          "type": "address"
        }
      ],
      "stateMutability": "view",
      "type": "function"
    },
    {
      "inputs": [],
      "name": "prizeStrategy",
      "outputs": [
        {
          "internalType": "contract TokenListenerInterface",
          "name": "",
          "type": "address"
        }
      ],
      "stateMutability": "view",
      "type": "function"
    },
    {
      "inputs": [
        {
          "internalType": "uint256",
          "name": "redeemAmount",
          "type": "uint256"
        }
      ],
      "name": "redeem",
      "outputs": [
        {
          "internalType": "uint256",
          "name": "",
          "type": "uint256"
        }
      ],
      "stateMutability": "nonpayable",
      "type": "function"
    },
    {
      "inputs": [],
      "name": "renounceOwnership",
      "outputs": [],
      "stateMutability": "nonpayable",
      "type": "function"
    },
    {
      "inputs": [],
      "name": "reserveRegistry",
      "outputs": [
        {
          "internalType": "contract RegistryInterface",
          "name": "",
          "type": "address"
        }
      ],
      "stateMutability": "view",
      "type": "function"
    },
    {
      "inputs": [],
      "name": "reserveTotalSupply",
      "outputs": [
        {
          "internalType": "uint256",
          "name": "",
          "type": "uint256"
        }
      ],
      "stateMutability": "view",
      "type": "function"
    },
    {
      "inputs": [
        {
          "internalType": "address",
          "name": "_controlledToken",
          "type": "address"
        },
        {
          "internalType": "uint128",
          "name": "_creditRateMantissa",
          "type": "uint128"
        },
        {
          "internalType": "uint128",
          "name": "_creditLimitMantissa",
          "type": "uint128"
        }
      ],
      "name": "setCreditPlanOf",
      "outputs": [],
      "stateMutability": "nonpayable",
      "type": "function"
    },
    {
      "inputs": [
        {
          "internalType": "uint256",
          "name": "_currentTime",
          "type": "uint256"
        }
      ],
      "name": "setCurrentTime",
      "outputs": [],
      "stateMutability": "nonpayable",
      "type": "function"
    },
    {
      "inputs": [
        {
          "internalType": "uint256",
          "name": "_liquidityCap",
          "type": "uint256"
        }
      ],
      "name": "setLiquidityCap",
      "outputs": [],
      "stateMutability": "nonpayable",
      "type": "function"
    },
    {
      "inputs": [
        {
          "internalType": "contract TokenListenerInterface",
          "name": "_prizeStrategy",
          "type": "address"
        }
      ],
      "name": "setPrizeStrategy",
      "outputs": [],
      "stateMutability": "nonpayable",
      "type": "function"
    },
    {
      "inputs": [
        {
          "internalType": "uint256",
          "name": "mintAmount",
          "type": "uint256"
        }
      ],
      "name": "supply",
      "outputs": [],
      "stateMutability": "nonpayable",
      "type": "function"
    },
    {
      "inputs": [],
      "name": "token",
      "outputs": [
        {
          "internalType": "address",
          "name": "",
          "type": "address"
        }
      ],
      "stateMutability": "view",
      "type": "function"
    },
    {
      "inputs": [],
      "name": "tokens",
      "outputs": [
        {
          "internalType": "contract ControlledTokenInterface[]",
          "name": "",
          "type": "address[]"
        }
      ],
      "stateMutability": "view",
      "type": "function"
    },
    {
      "inputs": [
        {
          "internalType": "address",
          "name": "to",
          "type": "address"
        },
        {
          "internalType": "address",
          "name": "externalToken",
          "type": "address"
        },
        {
          "internalType": "uint256",
          "name": "amount",
          "type": "uint256"
        }
      ],
      "name": "transferExternalERC20",
      "outputs": [],
      "stateMutability": "nonpayable",
      "type": "function"
    },
    {
      "inputs": [
        {
          "internalType": "address",
          "name": "newOwner",
          "type": "address"
        }
      ],
      "name": "transferOwnership",
      "outputs": [],
      "stateMutability": "nonpayable",
      "type": "function"
    },
    {
      "inputs": [
        {
          "internalType": "address",
          "name": "from",
          "type": "address"
        },
        {
          "internalType": "uint256",
          "name": "amount",
          "type": "uint256"
        },
        {
          "internalType": "address",
          "name": "controlledToken",
          "type": "address"
        },
        {
          "internalType": "uint256",
          "name": "maximumExitFee",
          "type": "uint256"
        }
      ],
      "name": "withdrawInstantlyFrom",
      "outputs": [
        {
          "internalType": "uint256",
          "name": "",
          "type": "uint256"
        }
      ],
      "stateMutability": "nonpayable",
      "type": "function"
    },
    {
      "inputs": [
        {
          "internalType": "address",
          "name": "to",
          "type": "address"
        }
      ],
      "name": "withdrawReserve",
      "outputs": [
        {
          "internalType": "uint256",
          "name": "",
          "type": "uint256"
        }
      ],
      "stateMutability": "nonpayable",
      "type": "function"
    },
    {
      "inputs": [],
      "name": "yieldSource",
      "outputs": [
        {
          "internalType": "contract IYieldSource",
          "name": "",
          "type": "address"
        }
      ],
      "stateMutability": "view",
      "type": "function"
    }
  ],
  "bytecode": "0x608060405234801561001057600080fd5b50614332806100206000396000f3fe608060405234801561001057600080fd5b50600436106102535760003560e01c80638da5cb5b11610146578063b69ef8a8116100c3578063e323f82511610087578063e323f8251461096c578063e6d8a94b146109a8578063edb4e1cf146109b0578063f2fde38b146109b8578063fc0c546a146109de578063ffa1ad74146109e657610253565b8063b69ef8a81461082b578063cfa2400714610833578063d18e81b3146108f2578063d4a1361d146108fa578063db006a751461094f57610253565b80639e1675191161010a5780639e167519146107875780639fe32a911461078f578063a016240b146107ac578063a7b2cc31146107e6578063b2470e5c1461082357610253565b80638da5cb5b146106d55780638e71c1f6146106f957806391ca480e1461070157806398bf3eb6146107275780639d63848a1461072f57610253565b8063630665b4116101d457806378b3d3271161019857806378b3d327146105db57806379cb8563146106015780637b99adb1146106335780637cbab1c714610650578063888c2b6f1461068657610253565b8063630665b4146105535780636a3fd4f91461055b5780636b1b863a14610595578063715018a6146105cb57806376687d3d146105d357610253565b80632b0ab1441161021b5780632b0ab144146103f9578063354030231461042f5780633ede50c61461044c578063494de9f7146104ff57806352a387ab1461052d57610253565b80630937eb541461025857806313f55e3914610272578063150b7a02146102aa57806316960d551461035557806322f8e566146103dc575b600080fd5b610260610a63565b60408051918252519081900360200190f35b6102a86004803603606081101561028857600080fd5b506001600160a01b03813581169160208101359091169060400135610a72565b005b610338600480360360808110156102c057600080fd5b6001600160a01b03823581169260208101359091169160408201359190810190608081016060820135600160201b8111156102fa57600080fd5b82018360208201111561030c57600080fd5b803590602001918460018302840111600160201b8311171561032d57600080fd5b509092509050610b30565b604080516001600160e01b03199092168252519081900360200190f35b6102a86004803603606081101561036b57600080fd5b6001600160a01b038235811692602081013590911691810190606081016040820135600160201b81111561039e57600080fd5b8201836020820111156103b057600080fd5b803590602001918460208302840111600160201b831117156103d157600080fd5b509092509050610b41565b6102a8600480360360208110156103f257600080fd5b5035610dee565b6102a86004803603606081101561040f57600080fd5b506001600160a01b03813581169160208101359091169060400135610df3565b6102a86004803603602081101561044557600080fd5b5035610eb0565b6102a86004803603606081101561046257600080fd5b6001600160a01b038235169190810190604081016020820135600160201b81111561048c57600080fd5b82018360208201111561049e57600080fd5b803590602001918460208302840111600160201b831117156104bf57600080fd5b9190808060200260200160405190810160405280939291908181526020018383602002808284376000920191909152509295505091359250610ebc915050565b6102606004803603604081101561051557600080fd5b506001600160a01b03813581169160200135166110ae565b6102606004803603602081101561054357600080fd5b50356001600160a01b03166111b5565b610260611304565b6105816004803603602081101561057157600080fd5b50356001600160a01b031661130a565b604080519115158252519081900360200190f35b6102a8600480360360608110156105ab57600080fd5b506001600160a01b0381358116916020810135916040909101351661131d565b6102a8611525565b6102606115d1565b610581600480360360208110156105f157600080fd5b50356001600160a01b03166115d7565b6102606004803603606081101561061757600080fd5b506001600160a01b0381351690602081013590604001356115e2565b6102a86004803603602081101561064957600080fd5b50356115f7565b6102a86004803603606081101561066657600080fd5b506001600160a01b03813581169160208101359091169060400135611662565b6106bc6004803603606081101561069c57600080fd5b506001600160a01b038135811691602081013590911690604001356118ae565b6040805192835260208301919091528051918290030190f35b6106dd6118c8565b604080516001600160a01b039092168252519081900360200190f35b6106dd6118d7565b6102a86004803603602081101561071757600080fd5b50356001600160a01b03166118e6565b6106dd611951565b610737611960565b60408051602080825283518183015283519192839290830191858101910280838360005b8381101561077357818101518382015260200161075b565b505050509050019250505060405180910390f35b6102606119c2565b610260600480360360208110156107a557600080fd5b50356119c8565b610260600480360360808110156107c257600080fd5b506001600160a01b0381358116916020810135916040820135169060600135611af6565b6102a8600480360360608110156107fc57600080fd5b506001600160a01b03813516906001600160801b0360208201358116916040013516611d2d565b6106dd611e83565b610260611e92565b6102a86004803603608081101561084957600080fd5b6001600160a01b038235169190810190604081016020820135600160201b81111561087357600080fd5b82018360208201111561088557600080fd5b803590602001918460208302840111600160201b831117156108a657600080fd5b91908080602002602001604051908101604052809392919081815260200183836020028082843760009201919091525092955050823593505050602001356001600160a01b0316611e9c565b6102606120e7565b6109206004803603602081101561091057600080fd5b50356001600160a01b03166120ed565b60405180836001600160801b03168152602001826001600160801b031681526020019250505060405180910390f35b6102606004803603602081101561096557600080fd5b503561211d565b6102a86004803603608081101561098257600080fd5b506001600160a01b03813581169160208101359160408201358116916060013516612128565b6102606122dd565b610260612453565b6102a8600480360360208110156109ce57600080fd5b50356001600160a01b0316612459565b6106dd61255c565b6109ee612566565b6040805160208082528351818301528351919283929083019185019080838360005b83811015610a28578181015183820152602001610a10565b50505050905090810190601f168015610a555780820380516001836020036101000a031916815260200191505b509250505060405180910390f35b6000610a6d612587565b905090565b6099546001600160a01b0316610a86612692565b6001600160a01b031614610acf576040805162461bcd60e51b815260206004820152601c60248201526000805160206142dd833981519152604482015290519081900360640190fd5b610ada838383612696565b15610b2b57816001600160a01b0316836001600160a01b03167fb0bac59718cd343c80a813518afcf36846cfcfe6d56e2b3cab9bd49f5f9b251c836040518082815260200191505060405180910390a35b505050565b630a85bd0160e11b95945050505050565b6099546001600160a01b0316610b55612692565b6001600160a01b031614610b9e576040805162461bcd60e51b815260206004820152601c60248201526000805160206142dd833981519152604482015290519081900360640190fd5b610ba78361271e565b610bf8576040805162461bcd60e51b815260206004820181905260248201527f5072697a65506f6f6c2f696e76616c69642d65787465726e616c2d746f6b656e604482015290519081900360640190fd5b80610c0257610de8565b60005b81811015610d6f57836001600160a01b03166342842e0e3087868686818110610c2a57fe5b905060200201356040518463ffffffff1660e01b815260040180846001600160a01b03168152602001836001600160a01b031681526020018281526020019350505050600060405180830381600087803b158015610c8757600080fd5b505af1925050508015610c98575060015b610d67573d808015610cc6576040519150601f19603f3d011682016040523d82523d6000602084013e610ccb565b606091505b507f17e975018310f88872b58d4d8263adca83cf5c1893496ea2a86923dab15276ad816040518080602001828103825283818151815260200191508051906020019080838360005b83811015610d2b578181015183820152602001610d13565b50505050905090810190601f168015610d585780820380516001836020036101000a031916815260200191505b509250505060405180910390a1505b600101610c05565b50826001600160a01b0316846001600160a01b03167f69c2de32bc4d47f488e72626a6cfdee85089342e52675e7de79c4b417623960c848460405180806020018281038252848482818152602001925060200280828437600083820152604051601f909101601f19169092018290039550909350505050a35b50505050565b60a155565b6099546001600160a01b0316610e07612692565b6001600160a01b031614610e50576040805162461bcd60e51b815260206004820152601c60248201526000805160206142dd833981519152604482015290519081900360640190fd5b610e5b838383612696565b15610b2b57816001600160a01b0316836001600160a01b03167fc65f48aca3b7a99b7443d04b8ffbb073156179bc628dc3f7def5047748973469836040518082815260200191505060405180910390a3505050565b610eb981612733565b50565b600054610100900460ff1680610ed55750610ed56127c3565b80610ee3575060005460ff16155b610f1e5760405162461bcd60e51b815260040180806020018281038252602e81526020018061416b602e913960400191505060405180910390fd5b600054610100900460ff16158015610f49576000805460ff1961ff0019909116610100171660011790555b6001600160a01b038416610f8e5760405162461bcd60e51b81526004018080602001828103825260228152602001806141236022913960400191505060405180910390fd5b82518067ffffffffffffffff81118015610fa757600080fd5b50604051908082528060200260200182016040528015610fd1578160200160208202803683370190505b508051610fe691609891602090910190614031565b5060005b8181101561101d57600085828151811061100057fe5b6020026020010151905061101481836127d4565b50600101610fea565b506110266128ff565b61102e6129b0565b611039600019612a45565b609780546001600160a01b0319166001600160a01b038716908117909155609a849055604080519182526020820185905280517f25ff68dd81b34665b5ba7e553ee5511bf6812e12adb4a7e2c0d9e26b3099ce799281900390910190a1508015610de8576000805461ff001916905550505050565b6000816110ba81612a80565b6110f9576040805162461bcd60e51b81526020600482015260176024820152600080516020614201833981519152604482015290519081900360640190fd5b61117e8484856001600160a01b03166370a08231886040518263ffffffff1660e01b815260040180826001600160a01b0316815260200191505060206040518083038186803b15801561114b57600080fd5b505afa15801561115f573d6000803e3d6000fd5b505050506040513d602081101561117557600080fd5b50516000612b3c565b50506001600160a01b039081166000908152609f60209081526040808320949093168252929092529020546001600160c01b031690565b600080609760009054906101000a90046001600160a01b03166001600160a01b031663f5e3542b6040518163ffffffff1660e01b815260040160206040518083038186803b15801561120657600080fd5b505afa15801561121a573d6000803e3d6000fd5b505050506040513d602081101561123057600080fd5b505190506001600160a01b038116331461128a576040805162461bcd60e51b81526020600482015260166024820152755072697a65506f6f6c2f6f6e6c792d7265736572766560501b604482015290519081900360640190fd5b609b80546000918290559061129e82612b52565b90506112bd85826112ad612bd0565b6001600160a01b03169190612c46565b6040805183815290516001600160a01b038716917f1c71c8e11fd443227c8f8d3dc1a237a3a5e8310b540c7fbcf5169754aedf42c9919081900360200190a2949350505050565b609d5490565b60006113158261271e565b90505b919050565b6099546001600160a01b0316611331612692565b6001600160a01b03161461137a576040805162461bcd60e51b815260206004820152601c60248201526000805160206142dd833981519152604482015290519081900360640190fd5b8061138481612a80565b6113c3576040805162461bcd60e51b81526020600482015260176024820152600080516020614201833981519152604482015290519081900360640190fd5b826113cd57610de8565b609d54831115611424576040805162461bcd60e51b815260206004820152601d60248201527f5072697a65506f6f6c2f61776172642d657863656564732d617661696c000000604482015290519081900360640190fd5b609d546114319084612c98565b609d556114418484846000612cfa565b600061144d8385612de0565b90506114d38584856001600160a01b03166370a08231896040518263ffffffff1660e01b815260040180826001600160a01b0316815260200191505060206040518083038186803b1580156114a157600080fd5b505afa1580156114b5573d6000803e3d6000fd5b505050506040513d60208110156114cb57600080fd5b505184612b3c565b826001600160a01b0316856001600160a01b03167fe2554529d99ab7a67db6b4cea2b32c7d55ae325f958861e05f304fdded867e31866040518082815260200191505060405180910390a35050505050565b61152d612692565b6001600160a01b031661153e6118c8565b6001600160a01b031614611587576040805162461bcd60e51b815260206004820181905260248201526000805160206141ba833981519152604482015290519081900360640190fd5b6033546040516000916001600160a01b0316907f8be0079c531659141344cd1fd0a4f28419497f9722a3daafe3b4186f6b6457e0908390a3603380546001600160a01b0319169055565b609c5481565b600061131582612a80565b60006115ef848484612e18565b949350505050565b6115ff612692565b6001600160a01b03166116106118c8565b6001600160a01b031614611659576040805162461bcd60e51b815260206004820181905260248201526000805160206141ba833981519152604482015290519081900360640190fd5b610eb981612a45565b3361166c81612a80565b6116ab576040805162461bcd60e51b81526020600482015260176024820152600080516020614201833981519152604482015290519081900360640190fd5b6001600160a01b03841615611785576000336001600160a01b03166370a08231866040518263ffffffff1660e01b815260040180826001600160a01b0316815260200191505060206040518083038186803b15801561170957600080fd5b505afa15801561171d573d6000803e3d6000fd5b505050506040513d602081101561173357600080fd5b50519050600061174586338484612e72565b9050846001600160a01b0316866001600160a01b031614611777576117743361176e8487612c98565b83612f01565b90505b611782863383612f47565b50505b6001600160a01b038316158015906117af5750836001600160a01b0316836001600160a01b031614155b15611806576118068333336001600160a01b03166370a08231876040518263ffffffff1660e01b815260040180826001600160a01b0316815260200191505060206040518083038186803b15801561114b57600080fd5b6001600160a01b0384161580159061182857506099546001600160a01b031615155b15610de8576099546040805163b221095760e01b81526001600160a01b0387811660048301528681166024830152604482018690523360648301529151919092169163b221095791608480830192600092919082900301818387803b15801561189057600080fd5b505af11580156118a4573d6000803e3d6000fd5b5050505050505050565b6000806118bc8585856130e5565b90969095509350505050565b6033546001600160a01b031690565b6097546001600160a01b031681565b6118ee612692565b6001600160a01b03166118ff6118c8565b6001600160a01b031614611948576040805162461bcd60e51b815260206004820181905260248201526000805160206141ba833981519152604482015290519081900360640190fd5b610eb981613283565b6099546001600160a01b031681565b606060988054806020026020016040519081016040528092919081815260200182805480156119b857602002820191906000526020600020905b81546001600160a01b0316815260019091019060200180831161199a575b5050505050905090565b609a5481565b600080609760009054906101000a90046001600160a01b03166001600160a01b031663f5e3542b6040518163ffffffff1660e01b815260040160206040518083038186803b158015611a1957600080fd5b505afa158015611a2d573d6000803e3d6000fd5b505050506040513d6020811015611a4357600080fd5b505190506001600160a01b038116611a5f576000915050611318565b6000816001600160a01b031663010dfa58306040518263ffffffff1660e01b815260040180826001600160a01b0316815260200191505060206040518083038186803b158015611aae57600080fd5b505afa158015611ac2573d6000803e3d6000fd5b505050506040513d6020811015611ad857600080fd5b5051905080611aec57600092505050611318565b6115ef8482613396565b600060026065541415611b50576040805162461bcd60e51b815260206004820152601f60248201527f5265656e7472616e637947756172643a207265656e7472616e742063616c6c00604482015290519081900360640190fd5b600260655582611b5f81612a80565b611b9e576040805162461bcd60e51b81526020600482015260176024820152600080516020614201833981519152604482015290519081900360640190fd5b600080611bac8887896130e5565b9150915084821115611bef5760405162461bcd60e51b81526004018080602001828103825260278152602001806141da6027913960400191505060405180910390fd5b611bfa8887836133b7565b856001600160a01b031663631b5dfb611c11612692565b8a8a6040518463ffffffff1660e01b815260040180846001600160a01b03168152602001836001600160a01b031681526020018281526020019350505050600060405180830381600087803b158015611c6957600080fd5b505af1158015611c7d573d6000803e3d6000fd5b505050506000611c968389612c9890919063ffffffff16565b90506000611ca382612b52565b9050611cb28a826112ad612bd0565b876001600160a01b03168a6001600160a01b0316611cce612692565b604080518d81526020810186905280820189905290516001600160a01b0392909216917f0271704a58fd2953e49b87d67a0a3ce28a58147de98a5457f60b4686f63850309181900360600190a450506001606555509695505050505050565b82611d3781612a80565b611d76576040805162461bcd60e51b81526020600482015260176024820152600080516020614201833981519152604482015290519081900360640190fd5b611d7e612692565b6001600160a01b0316611d8f6118c8565b6001600160a01b031614611dd8576040805162461bcd60e51b815260206004820181905260248201526000805160206141ba833981519152604482015290519081900360640190fd5b6040805180820182526001600160801b0380851680835286821660208085018281526001600160a01b038b166000818152609e84528890209651875492518716600160801b029087166fffffffffffffffffffffffffffffffff1990931692909217909516179094558451928352928201528083019190915290517ffb0ba2cf86a2b03bcf387753a2192da80a006afa99dd022bb301c78e323bf1b99181900360600190a150505050565b60a0546001600160a01b031681565b6000610a6d613478565b600054610100900460ff1680611eb55750611eb56127c3565b80611ec3575060005460ff16155b611efe5760405162461bcd60e51b815260040180806020018281038252602e81526020018061416b602e913960400191505060405180910390fd5b600054610100900460ff16158015611f29576000805460ff1961ff0019909116610100171660011790555b611f3b826001600160a01b03166134d8565b611f765760405162461bcd60e51b81526004018080602001828103825260368152602001806142716036913960400191505060405180910390fd5b611f81858585610ebc565b60a080546001600160a01b0319166001600160a01b0384169081179091556040805163c89039c560e01b60208083019190915282518083038201815291830192839052815160009493918291908401908083835b60208310611ff45780518252601f199092019160209182019101611fd5565b6001836020036101000a038019825116818451168082178552505050505050905001915050600060405180830381855afa9150503d8060008114612054576040519150601f19603f3d011682016040523d82523d6000602084013e612059565b606091505b50509050806120995760405162461bcd60e51b81526004018080602001828103825260298152602001806140ad6029913960400191505060405180910390fd5b6040516001600160a01b038416907f7a0ca506edc9fcd36e010dbcaad57dade17bbac71dfeb53269077098e863eeca90600090a25080156120e0576000805461ff00191690555b5050505050565b60a15481565b6001600160a01b03166000908152609e60205260409020546001600160801b0380821692600160801b9092041690565b600061131582612b52565b60026065541415612180576040805162461bcd60e51b815260206004820152601f60248201527f5265656e7472616e637947756172643a207265656e7472616e742063616c6c00604482015290519081900360640190fd5b60026065558161218f81612a80565b6121ce576040805162461bcd60e51b81526020600482015260176024820152600080516020614201833981519152604482015290519081900360640190fd5b836121d8816134de565b612229576040805162461bcd60e51b815260206004820152601f60248201527f5072697a65506f6f6c2f657863656564732d6c69717569646974792d63617000604482015290519081900360640190fd5b6000612233612692565b905061224187878787612cfa565b61226081308861224f612bd0565b6001600160a01b0316929190613502565b61226986612733565b846001600160a01b0316876001600160a01b0316826001600160a01b03167f6ce569498e0f86f147466ac49211cb2a1ffe06195adb805e383b3f2365109160898860405180838152602001826001600160a01b031681526020019250505060405180910390a4505060016065555050505050565b600060026065541415612337576040805162461bcd60e51b815260206004820152601f60248201527f5265656e7472616e637947756172643a207265656e7472616e742063616c6c00604482015290519081900360640190fd5b60026065556000612346612587565b90506000612352613478565b9050600082821161236457600061236e565b61236e8284612c98565b90506000609d548211612382576000612390565b609d54612390908390612c98565b905080156124425760006123a3826119c8565b905080156123fd57609b546123b8908261355c565b609b556123c58282612c98565b6040805183815290519193507f5f1703ccfa2730d4245350f228079926a37f26a44ecf6978a7eeafff0af11407919081900360200190a15b609d5461240a908361355c565b609d556040805183815290517fce2b6e507c7ca1a20ce136810f524eefc19ba4c7e4866eb6cc0cba76e778d4be9181900360200190a1505b609d54945050505050600160655590565b609b5481565b612461612692565b6001600160a01b03166124726118c8565b6001600160a01b0316146124bb576040805162461bcd60e51b815260206004820181905260248201526000805160206141ba833981519152604482015290519081900360640190fd5b6001600160a01b0381166125005760405162461bcd60e51b81526004018080602001828103825260268152602001806140d66026913960400191505060405180910390fd5b6033546040516001600160a01b038084169216907f8be0079c531659141344cd1fd0a4f28419497f9722a3daafe3b4186f6b6457e090600090a3603380546001600160a01b0319166001600160a01b0392909216919091179055565b6000610a6d612bd0565b60405180604001604052806005815260200164332e342e3160d81b81525081565b600080609b549050606060988054806020026020016040519081016040528092919081815260200182805480156125e757602002820191906000526020600020905b81546001600160a01b031681526001909101906020018083116125c9575b505083519394506000925050505b818110156126895761267f83828151811061260c57fe5b60200260200101516001600160a01b03166318160ddd6040518163ffffffff1660e01b815260040160206040518083038186803b15801561264c57600080fd5b505afa158015612660573d6000803e3d6000fd5b505050506040513d602081101561267657600080fd5b5051859061355c565b93506001016125f5565b50919250505090565b3390565b60006126a18361271e565b6126f2576040805162461bcd60e51b815260206004820181905260248201527f5072697a65506f6f6c2f696e76616c69642d65787465726e616c2d746f6b656e604482015290519081900360640190fd5b816126ff57506000612717565b6127136001600160a01b0384168584612c46565b5060015b9392505050565b60a0546001600160a01b039081169116141590565b60a05461275c906001600160a01b03168261274c612bd0565b6001600160a01b031691906135b6565b60a054604080516387a6eeef60e01b81526004810184905230602482015290516001600160a01b03909216916387a6eeef9160448082019260009290919082900301818387803b1580156127af57600080fd5b505af11580156120e0573d6000803e3d6000fd5b60006127ce306134d8565b15905090565b306001600160a01b0316826001600160a01b031663f77c47916040518163ffffffff1660e01b815260040160206040518083038186803b15801561281757600080fd5b505afa15801561282b573d6000803e3d6000fd5b505050506040513d602081101561284157600080fd5b50516001600160a01b03161461289e576040805162461bcd60e51b815260206004820152601e60248201527f5072697a65506f6f6c2f746f6b656e2d6374726c722d6d69736d617463680000604482015290519081900360640190fd5b81609882815481106128ac57fe5b6000918252602082200180546001600160a01b0319166001600160a01b03938416179055604051918416917f460e712b4a5d801d031ed673dea209b73ab854f7ddeb86b6c48082e92c3eee669190a25050565b600054610100900460ff168061291857506129186127c3565b80612926575060005460ff16155b6129615760405162461bcd60e51b815260040180806020018281038252602e81526020018061416b602e913960400191505060405180910390fd5b600054610100900460ff1615801561298c576000805460ff1961ff0019909116610100171660011790555b6129946136c9565b61299c613769565b8015610eb9576000805461ff001916905550565b600054610100900460ff16806129c957506129c96127c3565b806129d7575060005460ff16155b612a125760405162461bcd60e51b815260040180806020018281038252602e81526020018061416b602e913960400191505060405180910390fd5b600054610100900460ff16158015612a3d576000805460ff1961ff0019909116610100171660011790555b61299c613862565b609c8190556040805182815290517f3ff20538222f568f27ff436c0c49dfd3e48d5b8f86533a3f759dc1c7089775ab9181900360200190a150565b600060606098805480602002602001604051908101604052809291908181526020018280548015612ada57602002820191906000526020600020905b81546001600160a01b03168152600190910190602001808311612abc575b505083519394506000925050505b81811015612b3157846001600160a01b0316838281518110612b0657fe5b60200260200101516001600160a01b03161415612b295760019350505050611318565b600101612ae8565b506000949350505050565b610de88484612b4d87878787612e72565b612f47565b60a0546040805162982a6160e11b81526004810184905290516000926001600160a01b03169163013054c291602480830192602092919082900301818787803b158015612b9e57600080fd5b505af1158015612bb2573d6000803e3d6000fd5b505050506040513d6020811015612bc857600080fd5b505192915050565b60a0546040805163c89039c560e01b815290516000926001600160a01b03169163c89039c5916004808301926020929190829003018186803b158015612c1557600080fd5b505afa158015612c29573d6000803e3d6000fd5b505050506040513d6020811015612c3f57600080fd5b5051905090565b604080516001600160a01b038416602482015260448082018490528251808303909101815260649091019091526020810180516001600160e01b031663a9059cbb60e01b179052610b2b908490613908565b600082821115612cef576040805162461bcd60e51b815260206004820152601e60248201527f536166654d6174683a207375627472616374696f6e206f766572666c6f770000604482015290519081900360640190fd5b508082035b92915050565b6099546001600160a01b031615612d8957609954604080516304d7f3db60e41b81526001600160a01b038781166004830152602482018790528581166044830152848116606483015291519190921691634d7f3db091608480830192600092919082900301818387803b158015612d7057600080fd5b505af1158015612d84573d6000803e3d6000fd5b505050505b816001600160a01b0316635d7b075885856040518363ffffffff1660e01b815260040180836001600160a01b0316815260200182815260200192505050600060405180830381600087803b15801561189057600080fd5b6001600160a01b0382166000908152609e6020526040812054612717908390612e139082906001600160801b0316613396565b6139b9565b6001600160a01b0383166000908152609e60205260408120548190612e4e908590600160801b90046001600160801b0316613396565b905080612e5f576000915050612717565b612e6983826139de565b95945050505050565b6001600160a01b038381166000908152609f6020908152604080832093881683529290529081208054829190600160e01b900460ff16612eb55760009150612ef7565b6000612ec2888888613a45565b8254909150612ef39088908890612eee908990612ee8906001600160c01b03168761355c565b9061355c565b612f01565b9250505b5095945050505050565b6001600160a01b0383166000908152609e60205260408120548190612f309085906001600160801b0316613396565b905080831115612f3e578092505b50909392505050565b6001600160a01b038083166000908152609f602090815260408083209387168352929052819020548151606081019092526001600160c01b03169080612f8c84613af6565b6001600160801b03168152602001612faa612fa5613b3e565b613b44565b63ffffffff908116825260016020928301526001600160a01b038681166000908152609f84526040808220928a168252918452819020845181549486015195909201516001600160c01b03199094166001600160c01b039092169190911763ffffffff60c01b1916600160c01b94909216939093021760ff60e01b1916600160e01b911515919091021790558181101561308d576001600160a01b038084169085167f2f92d56910619b38bc29fd8e4ca5e56359edac7a0c086cdcd305fb603fa374916130778585612c98565b60408051918252519081900360200190a3610de8565b80821015610de8576001600160a01b038084169085167ff584c579437bc25785b953cc4d8d247251812751e1871c6130cbdecf95a106cf6130ce8486612c98565b60408051918252519081900360200190a350505050565b6000806000846001600160a01b03166370a08231876040518263ffffffff1660e01b815260040180826001600160a01b0316815260200191505060206040518083038186803b15801561313757600080fd5b505afa15801561314b573d6000803e3d6000fd5b505050506040513d602081101561316157600080fd5b50519050838110156131b3576040805162461bcd60e51b81526020600482015260166024820152755072697a65506f6f6c2f696e737566662d66756e647360501b604482015290519081900360640190fd5b6131c08686836000612b3c565b60006131d5866131d08488612c98565b612de0565b6001600160a01b038088166000908152609f60209081526040808320938c16835292905290812054919250906001600160c01b0316821161324c576001600160a01b038088166000908152609f60209081526040808320938c1683529290522054613249906001600160c01b031683612c98565b90505b60006132588888612de0565b90508082116132675781613269565b805b94506132758186612c98565b955050505050935093915050565b6001600160a01b0381166132de576040805162461bcd60e51b815260206004820181905260248201527f5072697a65506f6f6c2f7072697a6553747261746567792d6e6f742d7a65726f604482015290519081900360640190fd5b6132fb6001600160a01b038216600162a1cb1960e01b0319613b88565b61334c576040805162461bcd60e51b815260206004820152601f60248201527f5072697a65506f6f6c2f7072697a6553747261746567792d696e76616c696400604482015290519081900360640190fd5b609980546001600160a01b0319166001600160a01b0383169081179091556040517f7f58dc86bc2e435cb77ca0edb1df55e25f90caf2d6bd866971715437d456a21290600090a250565b6000806133a38385613ba4565b90506115ef81670de0b6b3a7640000613bfd565b6001600160a01b038083166000908152609f60209081526040808320938716835292905220546133f9906133f4906001600160c01b031683612c98565b613af6565b6001600160a01b038084166000818152609f602090815260408083209489168084529482529182902080546001600160c01b0319166001600160801b0396909616959095179094558051858152905191937ff584c579437bc25785b953cc4d8d247251812751e1871c6130cbdecf95a106cf92918290030190a3505050565b60a05460408051630b99152d60e41b815230600482015290516000926001600160a01b03169163b99152d091602480830192602092919082900301818787803b1580156134c457600080fd5b505af1158015612c29573d6000803e3d6000fd5b3b151590565b6000806134e9612587565b609c549091506134f9828561355c565b11159392505050565b604080516001600160a01b0380861660248301528416604482015260648082018490528251808303909101815260849091019091526020810180516001600160e01b03166323b872dd60e01b179052610de8908590613908565b600082820183811015612717576040805162461bcd60e51b815260206004820152601b60248201527f536166654d6174683a206164646974696f6e206f766572666c6f770000000000604482015290519081900360640190fd5b80158061363c575060408051636eb1769f60e11b81523060048201526001600160a01b03848116602483015291519185169163dd62ed3e91604480820192602092909190829003018186803b15801561360e57600080fd5b505afa158015613622573d6000803e3d6000fd5b505050506040513d602081101561363857600080fd5b5051155b6136775760405162461bcd60e51b81526004018080602001828103825260368152602001806142a76036913960400191505060405180910390fd5b604080516001600160a01b038416602482015260448082018490528251808303909101815260649091019091526020810180516001600160e01b031663095ea7b360e01b179052610b2b908490613908565b600054610100900460ff16806136e257506136e26127c3565b806136f0575060005460ff16155b61372b5760405162461bcd60e51b815260040180806020018281038252602e81526020018061416b602e913960400191505060405180910390fd5b600054610100900460ff1615801561299c576000805460ff1961ff0019909116610100171660011790558015610eb9576000805461ff001916905550565b600054610100900460ff168061378257506137826127c3565b80613790575060005460ff16155b6137cb5760405162461bcd60e51b815260040180806020018281038252602e81526020018061416b602e913960400191505060405180910390fd5b600054610100900460ff161580156137f6576000805460ff1961ff0019909116610100171660011790555b6000613800612692565b603380546001600160a01b0319166001600160a01b038316908117909155604051919250906000907f8be0079c531659141344cd1fd0a4f28419497f9722a3daafe3b4186f6b6457e0908290a3508015610eb9576000805461ff001916905550565b600054610100900460ff168061387b575061387b6127c3565b80613889575060005460ff16155b6138c45760405162461bcd60e51b815260040180806020018281038252602e81526020018061416b602e913960400191505060405180910390fd5b600054610100900460ff161580156138ef576000805460ff1961ff0019909116610100171660011790555b60016065558015610eb9576000805461ff001916905550565b606061395d826040518060400160405280602081526020017f5361666545524332303a206c6f772d6c6576656c2063616c6c206661696c6564815250856001600160a01b0316613c3f9092919063ffffffff16565b805190915015610b2b5780806020019051602081101561397c57600080fd5b5051610b2b5760405162461bcd60e51b815260040180806020018281038252602a815260200180614247602a913960400191505060405180910390fd5b6000806139c884609a54613396565b9050808311156139d6578092505b509092915050565b6000808211613a34576040805162461bcd60e51b815260206004820152601a60248201527f536166654d6174683a206469766973696f6e206279207a65726f000000000000604482015290519081900360640190fd5b818381613a3d57fe5b049392505050565b6001600160a01b038281166000908152609f60209081526040808320938716835292905290812054600160c01b810463ffffffff1690600160e01b900460ff16613a93576000915050612717565b6000613aa782613aa1613b3e565b90612c98565b6001600160a01b0386166000908152609e602052604081205491925090613adf908390600160801b90046001600160801b0316613ba4565b9050613aeb8582613396565b979650505050505050565b6000600160801b8210613b3a5760405162461bcd60e51b81526004018080602001828103825260278152602001806140fc6027913960400191505060405180910390fd5b5090565b60a15490565b6000600160201b8210613b3a5760405162461bcd60e51b81526004018080602001828103825260268152602001806142216026913960400191505060405180910390fd5b6000613b9383613c4e565b801561271757506127178383613c81565b600082613bb357506000612cf4565b82820282848281613bc057fe5b04146127175760405162461bcd60e51b81526004018080602001828103825260218152602001806141996021913960400191505060405180910390fd5b600061271783836040518060400160405280601a81526020017f536166654d6174683a206469766973696f6e206279207a65726f000000000000815250613ca4565b60606115ef8484600085613d46565b6000613c61826301ffc9a760e01b613c81565b80156113155750613c7a826001600160e01b0319613c81565b1592915050565b6000806000613c908585613e97565b91509150818015612e695750949350505050565b60008183613d305760405162461bcd60e51b81526004018080602001828103825283818151815260200191508051906020019080838360005b83811015613cf5578181015183820152602001613cdd565b50505050905090810190601f168015613d225780820380516001836020036101000a031916815260200191505b509250505060405180910390fd5b506000838581613d3c57fe5b0495945050505050565b606082471015613d875760405162461bcd60e51b81526004018080602001828103825260268152602001806141456026913960400191505060405180910390fd5b613d90856134d8565b613de1576040805162461bcd60e51b815260206004820152601d60248201527f416464726573733a2063616c6c20746f206e6f6e2d636f6e7472616374000000604482015290519081900360640190fd5b60006060866001600160a01b031685876040518082805190602001908083835b60208310613e205780518252601f199092019160209182019101613e01565b6001836020036101000a03801982511681845116808217855250505050505090500191505060006040518083038185875af1925050503d8060008114613e82576040519150601f19603f3d011682016040523d82523d6000602084013e613e87565b606091505b5091509150613aeb828286613fcb565b604080516001600160e01b0319831660248083019190915282518083039091018152604490910182526020810180516001600160e01b03166301ffc9a760e01b1781529151815160009384939284926060926001600160a01b038a169261753092879282918083835b60208310613f1f5780518252601f199092019160209182019101613f00565b6001836020036101000a0380198251168184511680821785525050505050509050019150506000604051808303818686fa925050503d8060008114613f80576040519150601f19603f3d011682016040523d82523d6000602084013e613f85565b606091505b5091509150602081511015613fa35760008094509450505050613fc4565b81818060200190516020811015613fb957600080fd5b505190955093505050505b9250929050565b60608315613fda575081612717565b825115613fea5782518084602001fd5b60405162461bcd60e51b8152602060048201818152845160248401528451859391928392604401919085019080838360008315613cf5578181015183820152602001613cdd565b828054828255906000526020600020908101928215614086579160200282015b8281111561408657825182546001600160a01b0319166001600160a01b03909116178255602090920191600190910190614051565b50613b3a9291505b80821115613b3a5780546001600160a01b031916815560010161408e56fe5969656c64536f757263655072697a65506f6f6c2f696e76616c69642d7969656c642d736f757263654f776e61626c653a206e6577206f776e657220697320746865207a65726f206164647265737353616665436173743a2076616c756520646f65736e27742066697420696e2031323820626974735072697a65506f6f6c2f7265736572766552656769737472792d6e6f742d7a65726f416464726573733a20696e73756666696369656e742062616c616e636520666f722063616c6c496e697469616c697a61626c653a20636f6e747261637420697320616c726561647920696e697469616c697a6564536166654d6174683a206d756c7469706c69636174696f6e206f766572666c6f774f776e61626c653a2063616c6c6572206973206e6f7420746865206f776e65725072697a65506f6f6c2f657869742d6665652d657863656564732d757365722d6d6178696d756d5072697a65506f6f6c2f756e6b6e6f776e2d746f6b656e00000000000000000053616665436173743a2076616c756520646f65736e27742066697420696e20333220626974735361666545524332303a204552433230206f7065726174696f6e20646964206e6f7420737563636565645969656c64536f757263655072697a65506f6f6c2f7969656c642d736f757263652d6e6f742d636f6e74726163742d616464726573735361666545524332303a20617070726f76652066726f6d206e6f6e2d7a65726f20746f206e6f6e2d7a65726f20616c6c6f77616e63655072697a65506f6f6c2f6f6e6c792d7072697a65537472617465677900000000a264697066735822122000e55ea54d883191069ad0b1963d381a9e894f9d076bad5682e8dfee03d2606364736f6c634300060c0033",
  "linkReferences": {},
  "deployedLinkReferences": {}
}