{
  "_format": "hh-sol-artifact-1",
  "contractName": "UInt256ArrayExposed",
  "sourceName": "contracts/test/UInt256ArrayExposed.sol",
  "abi": [
    {
      "inputs": [
        {
          "internalType": "uint256[]",
          "name": "_array",
          "type": "uint256[]"
        }
      ],
      "stateMutability": "nonpayable",
      "type": "constructor"
    },
    {
      "inputs": [
        {
          "internalType": "uint256",
          "name": "index",
          "type": "uint256"
        }
      ],
      "name": "remove",
      "outputs": [],
      "stateMutability": "nonpayable",
      "type": "function"
    },
    {
      "inputs": [],
      "name": "toArray",
      "outputs": [
        {
          "internalType": "uint256[]",
          "name": "",
          "type": "uint256[]"
        }
      ],
      "stateMutability": "view",
      "type": "function"
    }
  ],
  "bytecode": "0x608060405234801561001057600080fd5b506040516104533803806104538339818101604052602081101561003357600080fd5b810190808051604051939291908464010000000082111561005357600080fd5b8382019150602082018581111561006957600080fd5b825186602082028301116401000000008211171561008657600080fd5b8083526020830192505050908051906020019060200280838360005b838110156100bd5780820151818401526020810190506100a2565b50505050905001604052505050805167ffffffffffffffff811180156100e257600080fd5b506040519080825280602002602001820160405280156101115781602001602082028036833780820191505090505b5060009080519060200190610127929190610177565b5060005b81518110156101705781818151811061014057fe5b60200260200101516000828154811061015557fe5b9060005260206000200181905550808060010191505061012b565b50506101e1565b8280548282559060005260206000209081019282156101b3579160200282015b828111156101b2578251825591602001919060010190610197565b5b5090506101c091906101c4565b5090565b5b808211156101dd5760008160009055506001016101c5565b5090565b610263806101f06000396000f3fe608060405234801561001057600080fd5b50600436106100365760003560e01c80634cc822151461003b578063908ff30314610069575b600080fd5b6100676004803603602081101561005157600080fd5b81019080803590602001909291905050506100c8565b005b6100716100df565b6040518080602001828103825283818151815260200191508051906020019060200280838360005b838110156100b4578082015181840152602081019050610099565b505050509050019250505060405180910390f35b6100dc81600061013790919063ffffffff16565b50565b6060600080548060200260200160405190810160405280929190818152602001828054801561012d57602002820191906000526020600020905b815481526020019060010190808311610119575b5050505050905090565b818054905081106101b0576040517f08c379a000000000000000000000000000000000000000000000000000000000815260040180806020018281038252601a8152602001807f55496e7432353641727261792f756e6b6e6f776e2d696e64657800000000000081525060200191505060405180910390fd5b816001838054905003815481106101c357fe5b90600052602060002001548282815481106101da57fe5b9060005260206000200181905550816001838054905003815481106101fb57fe5b90600052602060002001600090558180548061021357fe5b60019003818190600052602060002001600090559055505056fea2646970667358221220da83b944570054eb2570da6c30fb55db2610fd74c4f369f1e3e3d30702b6584564736f6c634300060c0033",
  "linkReferences": {},
  "deployedLinkReferences": {}
}