{
  "_format": "hh-sol-artifact-1",
  "contractName": "UInt256ArrayExposed",
  "sourceName": "contracts/test/UInt256ArrayExposed.sol",
  "abi": [
    {
      "inputs": [
        {
          "internalType": "uint256[]",
          "name": "_array",
          "type": "uint256[]"
        }
      ],
      "stateMutability": "nonpayable",
      "type": "constructor"
    },
    {
      "inputs": [
        {
          "internalType": "uint256",
          "name": "index",
          "type": "uint256"
        }
      ],
      "name": "remove",
      "outputs": [],
      "stateMutability": "nonpayable",
      "type": "function"
    },
    {
      "inputs": [],
      "name": "toArray",
      "outputs": [
        {
          "internalType": "uint256[]",
          "name": "",
          "type": "uint256[]"
        }
      ],
      "stateMutability": "view",
      "type": "function"
    }
  ],
  "bytecode": "0x608060405234801561001057600080fd5b506040516103e93803806103e98339818101604052602081101561003357600080fd5b810190808051604051939291908464010000000082111561005357600080fd5b90830190602082018581111561006857600080fd5b825186602082028301116401000000008211171561008557600080fd5b82525081516020918201928201910280838360005b838110156100b257818101518382015260200161009a565b5050505090500160405250505080516001600160401b03811180156100d657600080fd5b50604051908082528060200260200182016040528015610100578160200160208202803683370190505b5080516101159160009160209091019061015e565b5060005b81518110156101575781818151811061012e57fe5b60200260200101516000828154811061014357fe5b600091825260209091200155600101610119565b50506101be565b828054828255906000526020600020908101928215610199579160200282015b8281111561019957825182559160200191906001019061017e565b506101a59291506101a9565b5090565b5b808211156101a557600081556001016101aa565b61021c806101cd6000396000f3fe608060405234801561001057600080fd5b50600436106100365760003560e01c80634cc822151461003b578063908ff3031461005a575b600080fd5b6100586004803603602081101561005157600080fd5b50356100b2565b005b6100626100c0565b60408051602080825283518183015283519192839290830191858101910280838360005b8381101561009e578181015183820152602001610086565b505050509050019250505060405180910390f35b6100bd600082610118565b50565b6060600080548060200260200160405190810160405280929190818152602001828054801561010e57602002820191906000526020600020905b8154815260200190600101908083116100fa575b5050505050905090565b8154811061016d576040805162461bcd60e51b815260206004820152601a60248201527f55496e7432353641727261792f756e6b6e6f776e2d696e646578000000000000604482015290519081900360640190fd5b81548290600019810190811061017f57fe5b906000526020600020015482828154811061019657fe5b6000918252602090912001558154829060001981019081106101b457fe5b9060005260206000200160009055818054806101cc57fe5b60019003818190600052602060002001600090559055505056fea26469706673582212209eb343568ce7798e3618f7ed542ce666f95e475ede75eaa7387aa84d061d7bb464736f6c634300060c0033",
  "linkReferences": {},
  "deployedLinkReferences": {}
}