{
  "_format": "hh-sol-artifact-1",
  "contractName": "PoolWithMultipleWinnersBuilder",
  "sourceName": "contracts/builders/PoolWithMultipleWinnersBuilder.sol",
  "abi": [
    {
      "inputs": [
        {
          "internalType": "contract RegistryInterface",
          "name": "_reserveRegistry",
          "type": "address"
        },
        {
          "internalType": "contract YieldSourcePrizePoolProxyFactory",
          "name": "_yieldSourcePrizePoolProxyFactory",
          "type": "address"
        },
        {
          "internalType": "contract MultipleWinnersBuilder",
          "name": "_multipleWinnersBuilder",
          "type": "address"
        }
      ],
      "stateMutability": "nonpayable",
      "type": "constructor"
    },
    {
      "anonymous": false,
      "inputs": [
        {
          "indexed": true,
          "internalType": "contract YieldSourcePrizePool",
          "name": "prizePool",
          "type": "address"
        },
        {
          "indexed": true,
          "internalType": "contract MultipleWinners",
          "name": "prizeStrategy",
          "type": "address"
        }
      ],
      "name": "YieldSourcePrizePoolWithMultipleWinnersCreated",
      "type": "event"
    },
    {
      "inputs": [
        {
          "components": [
            {
              "internalType": "contract IYieldSource",
              "name": "yieldSource",
              "type": "address"
            },
            {
              "internalType": "uint256",
              "name": "maxExitFeeMantissa",
              "type": "uint256"
            }
          ],
          "internalType": "struct PoolWithMultipleWinnersBuilder.YieldSourcePrizePoolConfig",
          "name": "prizePoolConfig",
          "type": "tuple"
        },
        {
          "components": [
            {
              "internalType": "uint256",
              "name": "prizePeriodStart",
              "type": "uint256"
            },
            {
              "internalType": "uint256",
              "name": "prizePeriodSeconds",
              "type": "uint256"
            },
            {
              "internalType": "string",
              "name": "ticketName",
              "type": "string"
            },
            {
              "internalType": "string",
              "name": "ticketSymbol",
              "type": "string"
            },
            {
              "internalType": "string",
              "name": "sponsorshipName",
              "type": "string"
            },
            {
              "internalType": "string",
              "name": "sponsorshipSymbol",
              "type": "string"
            },
            {
              "internalType": "uint256",
              "name": "ticketCreditLimitMantissa",
              "type": "uint256"
            },
            {
              "internalType": "uint256",
              "name": "ticketCreditRateMantissa",
              "type": "uint256"
            },
            {
              "internalType": "uint256",
              "name": "numberOfWinners",
              "type": "uint256"
            },
            {
              "components": [
                {
                  "internalType": "address",
                  "name": "target",
                  "type": "address"
                },
                {
                  "internalType": "uint16",
                  "name": "percentage",
                  "type": "uint16"
                },
                {
                  "internalType": "uint8",
                  "name": "token",
                  "type": "uint8"
                }
              ],
              "internalType": "struct PrizeSplit.PrizeSplitConfig[]",
              "name": "prizeSplits",
              "type": "tuple[]"
            },
            {
              "internalType": "bool",
              "name": "splitExternalErc20Awards",
              "type": "bool"
            }
          ],
          "internalType": "struct MultipleWinnersBuilder.MultipleWinnersConfig",
          "name": "prizeStrategyConfig",
          "type": "tuple"
        },
        {
          "internalType": "uint8",
          "name": "decimals",
          "type": "uint8"
        }
      ],
      "name": "createYieldSourceMultipleWinners",
      "outputs": [
        {
          "internalType": "contract YieldSourcePrizePool",
          "name": "",
          "type": "address"
        }
      ],
      "stateMutability": "nonpayable",
      "type": "function"
    },
    {
      "inputs": [],
      "name": "multipleWinnersBuilder",
      "outputs": [
        {
          "internalType": "contract MultipleWinnersBuilder",
          "name": "",
          "type": "address"
        }
      ],
      "stateMutability": "view",
      "type": "function"
    },
    {
      "inputs": [],
      "name": "reserveRegistry",
      "outputs": [
        {
          "internalType": "contract RegistryInterface",
          "name": "",
          "type": "address"
        }
      ],
      "stateMutability": "view",
      "type": "function"
    },
    {
      "inputs": [],
      "name": "yieldSourcePrizePoolProxyFactory",
      "outputs": [
        {
          "internalType": "contract YieldSourcePrizePoolProxyFactory",
          "name": "",
          "type": "address"
        }
      ],
      "stateMutability": "view",
      "type": "function"
    }
  ],
  "bytecode": "0x60806040523480156200001157600080fd5b5060405162001c1c38038062001c1c8339818101604052810190620000379190620002a0565b600073ffffffffffffffffffffffffffffffffffffffff168373ffffffffffffffffffffffffffffffffffffffff161415620000aa576040517f08c379a0000000000000000000000000000000000000000000000000000000008152600401620000a19062000472565b60405180910390fd5b600073ffffffffffffffffffffffffffffffffffffffff168273ffffffffffffffffffffffffffffffffffffffff1614156200011d576040517f08c379a000000000000000000000000000000000000000000000000000000000815260040162000114906200042e565b60405180910390fd5b600073ffffffffffffffffffffffffffffffffffffffff168173ffffffffffffffffffffffffffffffffffffffff16141562000190576040517f08c379a0000000000000000000000000000000000000000000000000000000008152600401620001879062000450565b60405180910390fd5b826000806101000a81548173ffffffffffffffffffffffffffffffffffffffff021916908373ffffffffffffffffffffffffffffffffffffffff16021790555081600160006101000a81548173ffffffffffffffffffffffffffffffffffffffff021916908373ffffffffffffffffffffffffffffffffffffffff16021790555080600260006101000a81548173ffffffffffffffffffffffffffffffffffffffff021916908373ffffffffffffffffffffffffffffffffffffffff16021790555050505062000563565b6000815190506200026c8162000515565b92915050565b60008151905062000283816200052f565b92915050565b6000815190506200029a8162000549565b92915050565b600080600060608486031215620002b657600080fd5b6000620002c68682870162000272565b9350506020620002d98682870162000289565b9250506040620002ec868287016200025b565b9150509250925092565b60006200030560378362000494565b91507f476c6f62616c4275696c6465722f7969656c64536f757263655072697a65506f60008301527f6f6c50726f7879466163746f72792d6e6f742d7a65726f0000000000000000006020830152604082019050919050565b60006200036d602d8362000494565b91507f476c6f62616c4275696c6465722f6d756c7469706c6557696e6e65727342756960008301527f6c6465722d6e6f742d7a65726f000000000000000000000000000000000000006020830152604082019050919050565b6000620003d560268362000494565b91507f476c6f62616c4275696c6465722f7265736572766552656769737472792d6e6f60008301527f742d7a65726f00000000000000000000000000000000000000000000000000006020830152604082019050919050565b600060208201905081810360008301526200044981620002f6565b9050919050565b600060208201905081810360008301526200046b816200035e565b9050919050565b600060208201905081810360008301526200048d81620003c6565b9050919050565b600082825260208201905092915050565b6000620004b282620004f5565b9050919050565b6000620004c682620004a5565b9050919050565b6000620004da82620004a5565b9050919050565b6000620004ee82620004a5565b9050919050565b600073ffffffffffffffffffffffffffffffffffffffff82169050919050565b6200052081620004b9565b81146200052c57600080fd5b50565b6200053a81620004cd565b81146200054657600080fd5b50565b6200055481620004e1565b81146200056057600080fd5b50565b6116a980620005736000396000f3fe608060405234801561001057600080fd5b506004361061004c5760003560e01c80630dfa4e2f146100515780638e71c1f6146100815780638f0a6b361461009f578063b77b59d0146100bd575b600080fd5b61006b60048036038101906100669190610c40565b6100db565b6040516100789190611188565b60405180910390f35b61008961051a565b6040516100969190611106565b60405180910390f35b6100a761053e565b6040516100b4919061116d565b60405180910390f35b6100c5610564565b6040516100d291906110d0565b60405180910390f35b600080600160009054906101000a900473ffffffffffffffffffffffffffffffffffffffff1673ffffffffffffffffffffffffffffffffffffffff1663efc81a8c6040518163ffffffff1660e01b8152600401602060405180830381600087803b15801561014857600080fd5b505af115801561015c573d6000803e3d6000fd5b505050506040513d601f19601f820116820180604052508101906101809190610c17565b90506000600260009054906101000a900473ffffffffffffffffffffffffffffffffffffffff1673ffffffffffffffffffffffffffffffffffffffff1663e912efb7838787336040518563ffffffff1660e01b81526004016101e594939291906111a3565b602060405180830381600087803b1580156101ff57600080fd5b505af1158015610213573d6000803e3d6000fd5b505050506040513d601f19601f820116820180604052508101906102379190610bc5565b90508173ffffffffffffffffffffffffffffffffffffffff1663cfa2400760008054906101000a900473ffffffffffffffffffffffffffffffffffffffff1661027f8461058a565b89602001518a600001516040518563ffffffff1660e01b81526004016102a89493929190611121565b600060405180830381600087803b1580156102c257600080fd5b505af11580156102d6573d6000803e3d6000fd5b505050508173ffffffffffffffffffffffffffffffffffffffff166391ca480e826040518263ffffffff1660e01b815260040161031391906110eb565b600060405180830381600087803b15801561032d57600080fd5b505af1158015610341573d6000803e3d6000fd5b505050508173ffffffffffffffffffffffffffffffffffffffff1663a7b2cc318273ffffffffffffffffffffffffffffffffffffffff16636cc25db76040518163ffffffff1660e01b815260040160206040518083038186803b1580156103a757600080fd5b505afa1580156103bb573d6000803e3d6000fd5b505050506040513d601f19601f820116820180604052508101906103df9190610bee565b6103ec8860e0015161076a565b6103f98960c0015161076a565b6040518463ffffffff1660e01b815260040161041793929190611099565b600060405180830381600087803b15801561043157600080fd5b505af1158015610445573d6000803e3d6000fd5b505050508173ffffffffffffffffffffffffffffffffffffffff1663f2fde38b336040518263ffffffff1660e01b8152600401610482919061107e565b600060405180830381600087803b15801561049c57600080fd5b505af11580156104b0573d6000803e3d6000fd5b505050508073ffffffffffffffffffffffffffffffffffffffff168273ffffffffffffffffffffffffffffffffffffffff167f63eabe842a4ca0fa63657803ae342a4b111574de00afe4fad24e7668d8b7975460405160405180910390a381925050509392505050565b60008054906101000a900473ffffffffffffffffffffffffffffffffffffffff1681565b600160009054906101000a900473ffffffffffffffffffffffffffffffffffffffff1681565b600260009054906101000a900473ffffffffffffffffffffffffffffffffffffffff1681565b606080600267ffffffffffffffff811180156105a557600080fd5b506040519080825280602002602001820160405280156105d45781602001602082028036833780820191505090505b5090508273ffffffffffffffffffffffffffffffffffffffff16636cc25db76040518163ffffffff1660e01b815260040160206040518083038186803b15801561061d57600080fd5b505afa158015610631573d6000803e3d6000fd5b505050506040513d601f19601f820116820180604052508101906106559190610bee565b8160008151811061066257fe5b602002602001019073ffffffffffffffffffffffffffffffffffffffff16908173ffffffffffffffffffffffffffffffffffffffff16815250508273ffffffffffffffffffffffffffffffffffffffff1663500db70d6040518163ffffffff1660e01b815260040160206040518083038186803b1580156106e257600080fd5b505afa1580156106f6573d6000803e3d6000fd5b505050506040513d601f19601f8201168201806040525081019061071a9190610b9c565b8160018151811061072757fe5b602002602001019073ffffffffffffffffffffffffffffffffffffffff16908173ffffffffffffffffffffffffffffffffffffffff168152505080915050919050565b600070010000000000000000000000000000000082106107bf576040517f08c379a00000000000000000000000000000000000000000000000000000000081526004016107b6906111ef565b60405180910390fd5b819050919050565b6000813590506107d68161158d565b92915050565b600082601f8301126107ed57600080fd5b81356108006107fb8261123c565b61120f565b9150818183526020840193506020810190508385606084028201111561082557600080fd5b60005b83811015610855578161083b8882610ab1565b845260208401935060608301925050600181019050610828565b5050505092915050565b60008135905061086e816115a4565b92915050565b600081519050610883816115bb565b92915050565b600081359050610898816115d2565b92915050565b6000815190506108ad816115e9565b92915050565b6000815190506108c281611600565b92915050565b6000815190506108d781611617565b92915050565b600082601f8301126108ee57600080fd5b81356109016108fc82611264565b61120f565b9150808252602083016020830185838301111561091d57600080fd5b61092883828461153a565b50505092915050565b6000610160828403121561094457600080fd5b61094f61016061120f565b9050600061095f84828501610b72565b600083015250602061097384828501610b72565b602083015250604082013567ffffffffffffffff81111561099357600080fd5b61099f848285016108dd565b604083015250606082013567ffffffffffffffff8111156109bf57600080fd5b6109cb848285016108dd565b606083015250608082013567ffffffffffffffff8111156109eb57600080fd5b6109f7848285016108dd565b60808301525060a082013567ffffffffffffffff811115610a1757600080fd5b610a23848285016108dd565b60a08301525060c0610a3784828501610b72565b60c08301525060e0610a4b84828501610b72565b60e083015250610100610a6084828501610b72565b6101008301525061012082013567ffffffffffffffff811115610a8257600080fd5b610a8e848285016107dc565b61012083015250610140610aa48482850161085f565b6101408301525092915050565b600060608284031215610ac357600080fd5b610acd606061120f565b90506000610add848285016107c7565b6000830152506020610af184828501610b5d565b6020830152506040610b0584828501610b87565b60408301525092915050565b600060408284031215610b2357600080fd5b610b2d604061120f565b90506000610b3d84828501610889565b6000830152506020610b5184828501610b72565b60208301525092915050565b600081359050610b6c8161162e565b92915050565b600081359050610b8181611645565b92915050565b600081359050610b968161165c565b92915050565b600060208284031215610bae57600080fd5b6000610bbc84828501610874565b91505092915050565b600060208284031215610bd757600080fd5b6000610be58482850161089e565b91505092915050565b600060208284031215610c0057600080fd5b6000610c0e848285016108b3565b91505092915050565b600060208284031215610c2957600080fd5b6000610c37848285016108c8565b91505092915050565b600080600060808486031215610c5557600080fd5b6000610c6386828701610b11565b935050604084013567ffffffffffffffff811115610c8057600080fd5b610c8c86828701610931565b9250506060610c9d86828701610b87565b9150509250925092565b6000610cb38383610dcf565b60208301905092915050565b6000610ccb8383610fe2565b60608301905092915050565b610ce081611408565b82525050565b610cef8161132f565b82525050565b610cfe8161132f565b82525050565b6000610d0f826112b0565b610d1981856112eb565b9350610d2483611290565b8060005b83811015610d55578151610d3c8882610ca7565b9750610d47836112d1565b925050600181019050610d28565b5085935050505092915050565b6000610d6d826112bb565b610d7781856112fc565b9350610d82836112a0565b8060005b83811015610db3578151610d9a8882610cbf565b9750610da5836112de565b925050600181019050610d86565b5085935050505092915050565b610dc981611341565b82525050565b610dd88161141a565b82525050565b610de78161143e565b82525050565b610df681611462565b82525050565b610e0581611486565b82525050565b610e14816114aa565b82525050565b610e23816114ce565b82525050565b610e32816114f2565b82525050565b6000610e43826112c6565b610e4d818561130d565b9350610e5d818560208601611549565b610e668161157c565b840191505092915050565b6000610e7e60278361131e565b91507f53616665436173743a2076616c756520646f65736e27742066697420696e203160008301527f32382062697473000000000000000000000000000000000000000000000000006020830152604082019050919050565b600061016083016000830151610ef06000860182611042565b506020830151610f036020860182611042565b5060408301518482036040860152610f1b8282610e38565b91505060608301518482036060860152610f358282610e38565b91505060808301518482036080860152610f4f8282610e38565b91505060a083015184820360a0860152610f698282610e38565b91505060c0830151610f7e60c0860182611042565b5060e0830151610f9160e0860182611042565b50610100830151610fa6610100860182611042565b50610120830151848203610120860152610fc08282610d62565b915050610140830151610fd7610140860182610dc0565b508091505092915050565b606082016000820151610ff86000850182610ce6565b50602082015161100b6020850182611033565b50604082015161101e6040850182611060565b50505050565b61102d816113a7565b82525050565b61103c816113c3565b82525050565b61104b816113f1565b82525050565b61105a816113f1565b82525050565b611069816113fb565b82525050565b611078816113fb565b82525050565b60006020820190506110936000830184610cd7565b92915050565b60006060820190506110ae6000830186610cf5565b6110bb6020830185611024565b6110c86040830184611024565b949350505050565b60006020820190506110e56000830184610ded565b92915050565b60006020820190506111006000830184610dfc565b92915050565b600060208201905061111b6000830184610e0b565b92915050565b60006080820190506111366000830187610e0b565b81810360208301526111488186610d04565b90506111576040830185611051565b6111646060830184610dde565b95945050505050565b60006020820190506111826000830184610e1a565b92915050565b600060208201905061119d6000830184610e29565b92915050565b60006080820190506111b86000830187610e29565b81810360208301526111ca8186610ed7565b90506111d9604083018561106f565b6111e66060830184610cd7565b95945050505050565b6000602082019050818103600083015261120881610e71565b9050919050565b6000604051905081810181811067ffffffffffffffff8211171561123257600080fd5b8060405250919050565b600067ffffffffffffffff82111561125357600080fd5b602082029050602081019050919050565b600067ffffffffffffffff82111561127b57600080fd5b601f19601f8301169050602081019050919050565b6000819050602082019050919050565b6000819050602082019050919050565b600081519050919050565b600081519050919050565b600081519050919050565b6000602082019050919050565b6000602082019050919050565b600082825260208201905092915050565b600082825260208201905092915050565b600082825260208201905092915050565b600082825260208201905092915050565b600061133a826113d1565b9050919050565b60008115159050919050565b60006113588261132f565b9050919050565b600061136a8261132f565b9050919050565b600061137c8261132f565b9050919050565b600061138e8261132f565b9050919050565b60006113a08261132f565b9050919050565b60006fffffffffffffffffffffffffffffffff82169050919050565b600061ffff82169050919050565b600073ffffffffffffffffffffffffffffffffffffffff82169050919050565b6000819050919050565b600060ff82169050919050565b600061141382611516565b9050919050565b60006114258261142c565b9050919050565b6000611437826113d1565b9050919050565b600061144982611450565b9050919050565b600061145b826113d1565b9050919050565b600061146d82611474565b9050919050565b600061147f826113d1565b9050919050565b600061149182611498565b9050919050565b60006114a3826113d1565b9050919050565b60006114b5826114bc565b9050919050565b60006114c7826113d1565b9050919050565b60006114d9826114e0565b9050919050565b60006114eb826113d1565b9050919050565b60006114fd82611504565b9050919050565b600061150f826113d1565b9050919050565b600061152182611528565b9050919050565b6000611533826113d1565b9050919050565b82818337600083830152505050565b60005b8381101561156757808201518184015260208101905061154c565b83811115611576576000848401525b50505050565b6000601f19601f8301169050919050565b6115968161132f565b81146115a157600080fd5b50565b6115ad81611341565b81146115b857600080fd5b50565b6115c48161134d565b81146115cf57600080fd5b50565b6115db8161135f565b81146115e657600080fd5b50565b6115f281611371565b81146115fd57600080fd5b50565b61160981611383565b811461161457600080fd5b50565b61162081611395565b811461162b57600080fd5b50565b611637816113c3565b811461164257600080fd5b50565b61164e816113f1565b811461165957600080fd5b50565b611665816113fb565b811461167057600080fd5b5056fea26469706673582212202fdf973bc91c4952e5ea2e41b83bfdd3fd4f5e15af9d99848c2bc0832b4b433564736f6c634300060c0033",
  "linkReferences": {},
  "deployedLinkReferences": {}
}