{
  "_format": "hh-sol-artifact-1",
  "contractName": "PoolWithMultipleWinnersBuilder",
  "sourceName": "contracts/builders/PoolWithMultipleWinnersBuilder.sol",
  "abi": [
    {
      "inputs": [
        {
          "internalType": "contract RegistryInterface",
          "name": "_reserveRegistry",
          "type": "address"
        },
        {
          "internalType": "contract YieldSourcePrizePoolProxyFactory",
          "name": "_yieldSourcePrizePoolProxyFactory",
          "type": "address"
        },
        {
          "internalType": "contract MultipleWinnersBuilder",
          "name": "_multipleWinnersBuilder",
          "type": "address"
        }
      ],
      "stateMutability": "nonpayable",
      "type": "constructor"
    },
    {
      "anonymous": false,
      "inputs": [
        {
          "indexed": true,
          "internalType": "contract YieldSourcePrizePool",
          "name": "prizePool",
          "type": "address"
        },
        {
          "indexed": true,
          "internalType": "contract MultipleWinners",
          "name": "prizeStrategy",
          "type": "address"
        }
      ],
      "name": "YieldSourcePrizePoolWithMultipleWinnersCreated",
      "type": "event"
    },
    {
      "inputs": [
        {
          "components": [
            {
              "internalType": "contract IYieldSource",
              "name": "yieldSource",
              "type": "address"
            },
            {
              "internalType": "uint256",
              "name": "maxExitFeeMantissa",
              "type": "uint256"
            }
          ],
          "internalType": "struct PoolWithMultipleWinnersBuilder.YieldSourcePrizePoolConfig",
          "name": "prizePoolConfig",
          "type": "tuple"
        },
        {
          "components": [
            {
              "internalType": "uint256",
              "name": "prizePeriodStart",
              "type": "uint256"
            },
            {
              "internalType": "uint256",
              "name": "prizePeriodSeconds",
              "type": "uint256"
            },
            {
              "internalType": "string",
              "name": "ticketName",
              "type": "string"
            },
            {
              "internalType": "string",
              "name": "ticketSymbol",
              "type": "string"
            },
            {
              "internalType": "string",
              "name": "sponsorshipName",
              "type": "string"
            },
            {
              "internalType": "string",
              "name": "sponsorshipSymbol",
              "type": "string"
            },
            {
              "internalType": "uint256",
              "name": "ticketCreditLimitMantissa",
              "type": "uint256"
            },
            {
              "internalType": "uint256",
              "name": "ticketCreditRateMantissa",
              "type": "uint256"
            },
            {
              "internalType": "uint256",
              "name": "numberOfWinners",
              "type": "uint256"
            },
            {
              "components": [
                {
                  "internalType": "address",
                  "name": "target",
                  "type": "address"
                },
                {
                  "internalType": "uint16",
                  "name": "percentage",
                  "type": "uint16"
                },
                {
                  "internalType": "uint8",
                  "name": "token",
                  "type": "uint8"
                }
              ],
              "internalType": "struct PrizeSplit.PrizeSplitConfig[]",
              "name": "prizeSplits",
              "type": "tuple[]"
            },
            {
              "internalType": "bool",
              "name": "splitExternalErc20Awards",
              "type": "bool"
            }
          ],
          "internalType": "struct MultipleWinnersBuilder.MultipleWinnersConfig",
          "name": "prizeStrategyConfig",
          "type": "tuple"
        },
        {
          "internalType": "uint8",
          "name": "decimals",
          "type": "uint8"
        }
      ],
      "name": "createYieldSourceMultipleWinners",
      "outputs": [
        {
          "internalType": "contract YieldSourcePrizePool",
          "name": "",
          "type": "address"
        }
      ],
      "stateMutability": "nonpayable",
      "type": "function"
    },
    {
      "inputs": [],
      "name": "multipleWinnersBuilder",
      "outputs": [
        {
          "internalType": "contract MultipleWinnersBuilder",
          "name": "",
          "type": "address"
        }
      ],
      "stateMutability": "view",
      "type": "function"
    },
    {
      "inputs": [],
      "name": "reserveRegistry",
      "outputs": [
        {
          "internalType": "contract RegistryInterface",
          "name": "",
          "type": "address"
        }
      ],
      "stateMutability": "view",
      "type": "function"
    },
    {
      "inputs": [],
      "name": "yieldSourcePrizePoolProxyFactory",
      "outputs": [
        {
          "internalType": "contract YieldSourcePrizePoolProxyFactory",
          "name": "",
          "type": "address"
        }
      ],
      "stateMutability": "view",
      "type": "function"
    }
  ],
  "bytecode": "0x60806040523480156200001157600080fd5b5060405162000eb138038062000eb18339810160408190526200003491620000fb565b6001600160a01b038316620000665760405162461bcd60e51b81526004016200005d90620001f8565b60405180910390fd5b6001600160a01b0382166200008f5760405162461bcd60e51b81526004016200005d906200014e565b6001600160a01b038116620000b85760405162461bcd60e51b81526004016200005d90620001ab565b600080546001600160a01b039485166001600160a01b03199182161790915560018054938516938216939093179092556002805491909316911617905562000257565b60008060006060848603121562000110578283fd5b83516200011d816200023e565b602085015190935062000130816200023e565b604085015190925062000143816200023e565b809150509250925092565b60208082526037908201527f476c6f62616c4275696c6465722f7969656c64536f757263655072697a65506f60408201527f6f6c50726f7879466163746f72792d6e6f742d7a65726f000000000000000000606082015260800190565b6020808252602d908201527f476c6f62616c4275696c6465722f6d756c7469706c6557696e6e65727342756960408201526c6c6465722d6e6f742d7a65726f60981b606082015260800190565b60208082526026908201527f476c6f62616c4275696c6465722f7265736572766552656769737472792d6e6f604082015265742d7a65726f60d01b606082015260800190565b6001600160a01b03811681146200025457600080fd5b50565b610c4a80620002676000396000f3fe608060405234801561001057600080fd5b506004361061004c5760003560e01c80630dfa4e2f146100515780638e71c1f61461007a5780638f0a6b3614610082578063b77b59d01461008a575b600080fd5b61006461005f366004610766565b610092565b60405161007191906109bc565b60405180910390f35b610064610411565b610064610420565b61006461042f565b600080600160009054906101000a90046001600160a01b03166001600160a01b031663efc81a8c6040518163ffffffff1660e01b8152600401602060405180830381600087803b1580156100e557600080fd5b505af11580156100f9573d6000803e3d6000fd5b505050506040513d601f19601f8201168201806040525081019061011d9190610743565b60025460405163e912efb760e01b81529192506000916001600160a01b039091169063e912efb790610159908590899089903390600401610a71565b602060405180830381600087803b15801561017357600080fd5b505af1158015610187573d6000803e3d6000fd5b505050506040513d601f19601f820116820180604052508101906101ab9190610743565b6000549091506001600160a01b038084169163cfa2400791166101cd8461043e565b60208a01518a516040516001600160e01b031960e087901b1681526101f89493929190600401610a03565b600060405180830381600087803b15801561021257600080fd5b505af1158015610226573d6000803e3d6000fd5b50506040516348e5240760e11b81526001600160a01b03851692506391ca480e91506102569084906004016109bc565b600060405180830381600087803b15801561027057600080fd5b505af1158015610284573d6000803e3d6000fd5b50505050816001600160a01b031663a7b2cc31826001600160a01b0316636cc25db76040518163ffffffff1660e01b815260040160206040518083038186803b1580156102d057600080fd5b505afa1580156102e4573d6000803e3d6000fd5b505050506040513d601f19601f820116820180604052508101906103089190610743565b6103158860e0015161059d565b6103228960c0015161059d565b6040518463ffffffff1660e01b8152600401610340939291906109d0565b600060405180830381600087803b15801561035a57600080fd5b505af115801561036e573d6000803e3d6000fd5b505060405163f2fde38b60e01b81526001600160a01b038516925063f2fde38b915061039e9033906004016109bc565b600060405180830381600087803b1580156103b857600080fd5b505af11580156103cc573d6000803e3d6000fd5b50506040516001600160a01b038085169350851691507f63eabe842a4ca0fa63657803ae342a4b111574de00afe4fad24e7668d8b7975490600090a350949350505050565b6000546001600160a01b031681565b6001546001600160a01b031681565b6002546001600160a01b031681565b604080516002808252606080830184529283929190602083019080368337019050509050826001600160a01b0316636cc25db76040518163ffffffff1660e01b815260040160206040518083038186803b15801561049b57600080fd5b505afa1580156104af573d6000803e3d6000fd5b505050506040513d601f19601f820116820180604052508101906104d39190610743565b816000815181106104e057fe5b60200260200101906001600160a01b031690816001600160a01b031681525050826001600160a01b031663500db70d6040518163ffffffff1660e01b815260040160206040518083038186803b15801561053957600080fd5b505afa15801561054d573d6000803e3d6000fd5b505050506040513d601f19601f820116820180604052508101906105719190610743565b8160018151811061057e57fe5b6001600160a01b03909216602092830291909101909101529050919050565b6000600160801b82106105cb5760405162461bcd60e51b81526004016105c290610b8e565b60405180910390fd5b5090565b600082601f8301126105df578081fd5b813567ffffffffffffffff8111156105f5578182fd5b60206106048182840201610bd5565b828152925080830184820160608085028701840188101561062457600080fd5b60005b8581101561064b5761063989846106d6565b84529284019291810191600101610627565b50505050505092915050565b8035801515811461066757600080fd5b92915050565b600082601f83011261067d578081fd5b813567ffffffffffffffff811115610693578182fd5b6106a6601f8201601f1916602001610bd5565b91508082528360208285010111156106bd57600080fd5b8060208401602084013760009082016020015292915050565b6000606082840312156106e7578081fd5b6106f16060610bd5565b905081356106fe81610bfc565b8152602082013561ffff8116811461071557600080fd5b60208201526107278360408401610732565b604082015292915050565b803560ff8116811461066757600080fd5b600060208284031215610754578081fd5b815161075f81610bfc565b9392505050565b6000806000838503608081121561077b578283fd5b6040811215610788578283fd5b506107936040610bd5565b843561079e81610bfc565b8152602085810135908201529250604084013567ffffffffffffffff808211156107c6578384fd5b81860191506101608083890312156107dc578485fd5b6107e581610bd5565b90508235815260208301356020820152604083013582811115610806578586fd5b6108128982860161066d565b604083015250606083013582811115610829578586fd5b6108358982860161066d565b60608301525060808301358281111561084c578586fd5b6108588982860161066d565b60808301525060a08301358281111561086f578586fd5b61087b8982860161066d565b60a08301525060c083013560c082015260e083013560e082015261010080840135818301525061012080840135838111156108b4578687fd5b6108c08a8287016105cf565b82840152505061014091506108d788838501610657565b828201528094505050506108ee8560608601610732565b90509250925092565b6001600160a01b03169052565b6000815180845260208085019450808401835b8381101561095957815180516001600160a01b031688528381015161ffff168489015260409081015160ff169088015260609096019590820190600101610917565b509495945050505050565b15159052565b60008151808452815b8181101561098f57602081850181015186830182015201610973565b818111156109a05782602083870101525b50601f01601f19169290920160200192915050565b60ff169052565b6001600160a01b0391909116815260200190565b6001600160a01b039390931683526fffffffffffffffffffffffffffffffff918216602084015216604082015260600190565b6001600160a01b0385811682526080602080840182905286519184018290526000928782019290919060a0860190855b81811015610a51578551851683529483019491830191600101610a33565b505080945050508560408501528085166060850152505095945050505050565b600060018060a01b03861682526080602083015284516080830152602085015160a083015260408501516101608060c0850152610ab26101e085018361096a565b91506060870151607f19808685030160e0870152610ad0848361096a565b935060808901519150610100818786030181880152610aef858461096a565b945060a08a01519250610120828887030181890152610b0e868561096a565b955060c08b0151935061014084818a015260e08c0151868a0152828c01516101808a0152818c0151955083898803016101a08a0152610b4d8787610904565b9650808c015195505050505050610b686101c0850182610964565b509050610b7860408301856109b5565b610b8560608301846108f7565b95945050505050565b60208082526027908201527f53616665436173743a2076616c756520646f65736e27742066697420696e20316040820152663238206269747360c81b606082015260800190565b60405181810167ffffffffffffffff81118282101715610bf457600080fd5b604052919050565b6001600160a01b0381168114610c1157600080fd5b5056fea26469706673582212208f1b1c1f64b89373dfae4ec79099ea9d720683cda5ede72a765c4875a6fffa7364736f6c634300060c0033",
  "linkReferences": {},
  "deployedLinkReferences": {}
}