{
  "_format": "hh-sol-artifact-1",
  "contractName": "ExtendedSafeCastExposed",
  "sourceName": "contracts/test/ExtendedSafeCastExposed.sol",
  "abi": [
    {
      "inputs": [
        {
          "internalType": "uint256",
          "name": "value",
          "type": "uint256"
        }
      ],
      "name": "toUint112",
      "outputs": [
        {
          "internalType": "uint112",
          "name": "",
          "type": "uint112"
        }
      ],
      "stateMutability": "pure",
      "type": "function"
    },
    {
      "inputs": [
        {
          "internalType": "uint256",
          "name": "value",
          "type": "uint256"
        }
      ],
      "name": "toUint96",
      "outputs": [
        {
          "internalType": "uint96",
          "name": "",
          "type": "uint96"
        }
      ],
      "stateMutability": "pure",
      "type": "function"
    }
  ],
  "bytecode": "0x608060405234801561001057600080fd5b50610268806100206000396000f3fe608060405234801561001057600080fd5b50600436106100365760003560e01c80631cf887fc1461003b57806341d2aa641461008b575b600080fd5b6100676004803603602081101561005157600080fd5b81019080803590602001909291905050506100dd565b60405180826bffffffffffffffffffffffff16815260200191505060405180910390f35b6100b7600480360360208110156100a157600080fd5b81019080803590602001909291905050506100ef565b60405180826dffffffffffffffffffffffffffff16815260200191505060405180910390f35b60006100e882610101565b9050919050565b60006100fa82610170565b9050919050565b60006c010000000000000000000000008210610168576040517f08c379a00000000000000000000000000000000000000000000000000000000081526004018080602001828103825260288152602001806101e26028913960400191505060405180910390fd5b819050919050565b60006e01000000000000000000000000000082106101d9576040517f08c379a000000000000000000000000000000000000000000000000000000000815260040180806020018281038252602981526020018061020a6029913960400191505060405180910390fd5b81905091905056fe53616665436173743a2076616c756520646f65736e27742066697420696e20616e2075696e74393653616665436173743a2076616c756520646f65736e27742066697420696e20616e2075696e74313132a26469706673582212201534538d303e08f79bce1fbaf4f5886fce885da6621baf59ec4d06d8312e86a764736f6c634300060c0033",
  "linkReferences": {},
  "deployedLinkReferences": {}
}