{
  "_format": "hh-sol-artifact-1",
  "contractName": "ExtendedSafeCastExposed",
  "sourceName": "contracts/test/ExtendedSafeCastExposed.sol",
  "abi": [
    {
      "inputs": [
        {
          "internalType": "uint256",
          "name": "value",
          "type": "uint256"
        }
      ],
      "name": "toUint112",
      "outputs": [
        {
          "internalType": "uint112",
          "name": "",
          "type": "uint112"
        }
      ],
      "stateMutability": "pure",
      "type": "function"
    },
    {
      "inputs": [
        {
          "internalType": "uint256",
          "name": "value",
          "type": "uint256"
        }
      ],
      "name": "toUint96",
      "outputs": [
        {
          "internalType": "uint96",
          "name": "",
          "type": "uint96"
        }
      ],
      "stateMutability": "pure",
      "type": "function"
    }
  ],
  "bytecode": "0x608060405234801561001057600080fd5b506101e8806100206000396000f3fe608060405234801561001057600080fd5b50600436106100365760003560e01c80631cf887fc1461003b57806341d2aa6414610079575b600080fd5b6100586004803603602081101561005157600080fd5b50356100b9565b604080516bffffffffffffffffffffffff9092168252519081900360200190f35b6100966004803603602081101561008f57600080fd5b50356100ca565b604080516dffffffffffffffffffffffffffff9092168252519081900360200190f35b60006100c4826100d5565b92915050565b60006100c48261011d565b6000600160601b82106101195760405162461bcd60e51b81526004018080602001828103825260288152602001806101626028913960400191505060405180910390fd5b5090565b6000600160701b82106101195760405162461bcd60e51b815260040180806020018281038252602981526020018061018a6029913960400191505060405180910390fdfe53616665436173743a2076616c756520646f65736e27742066697420696e20616e2075696e74393653616665436173743a2076616c756520646f65736e27742066697420696e20616e2075696e74313132a2646970667358221220f40cd1cb6d34f91e49dbaeab6ce3f7672b2591ed2f27f880cfbf5b0624942e9464736f6c634300060c0033",
  "linkReferences": {},
  "deployedLinkReferences": {}
}