{
  "_format": "hh-sol-artifact-1",
  "contractName": "TokenListenerLibrary",
  "sourceName": "contracts/token/TokenListenerLibrary.sol",
  "abi": [
    {
      "inputs": [],
      "name": "ERC165_INTERFACE_ID_TOKEN_LISTENER",
      "outputs": [
        {
          "internalType": "bytes4",
          "name": "",
          "type": "bytes4"
        }
      ],
      "stateMutability": "view",
      "type": "function"
    }
  ],
  "bytecode": "0x609f610024600b82828239805160001a607314601757fe5b30600052607381538281f3fe730000000000000000000000000000000000000000301460806040526004361060335760003560e01c8063b17b0ce3146038575b600080fd5b603e605b565b604080516001600160e01b03199092168252519081900360200190f35b600162a1cb1960e01b03198156fea2646970667358221220f9ea4ea539e7c78bab12706d628c0a12191092542956341255c02245a1783ce264736f6c634300060c0033",
  "linkReferences": {},
  "deployedLinkReferences": {}
}