{
  "_format": "hh-sol-artifact-1",
  "contractName": "MultipleWinnersBuilder",
  "sourceName": "contracts/builders/MultipleWinnersBuilder.sol",
  "abi": [
    {
      "inputs": [
        {
          "internalType": "contract MultipleWinnersProxyFactory",
          "name": "_multipleWinnersProxyFactory",
          "type": "address"
        },
        {
          "internalType": "contract ControlledTokenBuilder",
          "name": "_controlledTokenBuilder",
          "type": "address"
        }
      ],
      "stateMutability": "nonpayable",
      "type": "constructor"
    },
    {
      "anonymous": false,
      "inputs": [
        {
          "indexed": true,
          "internalType": "address",
          "name": "prizeStrategy",
          "type": "address"
        }
      ],
      "name": "MultipleWinnersCreated",
      "type": "event"
    },
    {
      "inputs": [],
      "name": "controlledTokenBuilder",
      "outputs": [
        {
          "internalType": "contract ControlledTokenBuilder",
          "name": "",
          "type": "address"
        }
      ],
      "stateMutability": "view",
      "type": "function"
    },
    {
      "inputs": [
        {
          "internalType": "contract PrizePool",
          "name": "prizePool",
          "type": "address"
        },
        {
          "components": [
            {
              "internalType": "uint256",
              "name": "prizePeriodStart",
              "type": "uint256"
            },
            {
              "internalType": "uint256",
              "name": "prizePeriodSeconds",
              "type": "uint256"
            },
            {
              "internalType": "string",
              "name": "ticketName",
              "type": "string"
            },
            {
              "internalType": "string",
              "name": "ticketSymbol",
              "type": "string"
            },
            {
              "internalType": "string",
              "name": "sponsorshipName",
              "type": "string"
            },
            {
              "internalType": "string",
              "name": "sponsorshipSymbol",
              "type": "string"
            },
            {
              "internalType": "uint256",
              "name": "ticketCreditLimitMantissa",
              "type": "uint256"
            },
            {
              "internalType": "uint256",
              "name": "ticketCreditRateMantissa",
              "type": "uint256"
            },
            {
              "internalType": "uint256",
              "name": "numberOfWinners",
              "type": "uint256"
            },
            {
              "components": [
                {
                  "internalType": "address",
                  "name": "target",
                  "type": "address"
                },
                {
                  "internalType": "uint16",
                  "name": "percentage",
                  "type": "uint16"
                },
                {
                  "internalType": "uint8",
                  "name": "token",
                  "type": "uint8"
                }
              ],
              "internalType": "struct PrizeSplit.PrizeSplitConfig[]",
              "name": "prizeSplits",
              "type": "tuple[]"
            },
            {
              "internalType": "bool",
              "name": "splitExternalErc20Awards",
              "type": "bool"
            }
          ],
          "internalType": "struct MultipleWinnersBuilder.MultipleWinnersConfig",
          "name": "prizeStrategyConfig",
          "type": "tuple"
        },
        {
          "internalType": "uint8",
          "name": "decimals",
          "type": "uint8"
        },
        {
          "internalType": "address",
          "name": "owner",
          "type": "address"
        }
      ],
      "name": "createMultipleWinners",
      "outputs": [
        {
          "internalType": "contract MultipleWinners",
          "name": "",
          "type": "address"
        }
      ],
      "stateMutability": "nonpayable",
      "type": "function"
    },
    {
      "inputs": [],
      "name": "multipleWinnersProxyFactory",
      "outputs": [
        {
          "internalType": "contract MultipleWinnersProxyFactory",
          "name": "",
          "type": "address"
        }
      ],
      "stateMutability": "view",
      "type": "function"
    }
  ],
  "bytecode": "0x60806040523480156200001157600080fd5b506040516200153e3803806200153e8339818101604052810190620000379190620001d4565b600073ffffffffffffffffffffffffffffffffffffffff168273ffffffffffffffffffffffffffffffffffffffff161415620000aa576040517f08c379a0000000000000000000000000000000000000000000000000000000008152600401620000a190620002e5565b60405180910390fd5b600073ffffffffffffffffffffffffffffffffffffffff168173ffffffffffffffffffffffffffffffffffffffff1614156200011d576040517f08c379a0000000000000000000000000000000000000000000000000000000008152600401620001149062000307565b60405180910390fd5b816000806101000a81548173ffffffffffffffffffffffffffffffffffffffff021916908373ffffffffffffffffffffffffffffffffffffffff16021790555080600160006101000a81548173ffffffffffffffffffffffffffffffffffffffff021916908373ffffffffffffffffffffffffffffffffffffffff1602179055505050620003ca565b600081519050620001b78162000396565b92915050565b600081519050620001ce81620003b0565b92915050565b60008060408385031215620001e857600080fd5b6000620001f885828601620001bd565b92505060206200020b85828601620001a6565b9150509250929050565b600062000224603b8362000329565b91507f4d756c7469706c6557696e6e6572734275696c6465722f6d756c7469706c655760008301527f696e6e65727350726f7879466163746f72792d6e6f742d7a65726f00000000006020830152604082019050919050565b60006200028c602d8362000329565b91507f4d756c7469706c6557696e6e6572734275696c6465722f746f6b656e2d62756960008301527f6c6465722d6e6f742d7a65726f000000000000000000000000000000000000006020830152604082019050919050565b60006020820190508181036000830152620003008162000215565b9050919050565b6000602082019050818103600083015262000322816200027d565b9050919050565b600082825260208201905092915050565b6000620003478262000376565b9050919050565b60006200035b826200033a565b9050919050565b60006200036f826200033a565b9050919050565b600073ffffffffffffffffffffffffffffffffffffffff82169050919050565b620003a1816200034e565b8114620003ad57600080fd5b50565b620003bb8162000362565b8114620003c757600080fd5b50565b61116480620003da6000396000f3fe608060405234801561001057600080fd5b50600436106100415760003560e01c8063013da4201461004657806314d9dcd014610064578063e912efb714610082575b600080fd5b61004e6100b2565b60405161005b9190610cd6565b60405180910390f35b61006c6100d6565b6040516100799190610cbb565b60405180910390f35b61009c600480360381019061009791906109a1565b6100fc565b6040516100a99190610cf1565b60405180910390f35b60008054906101000a900473ffffffffffffffffffffffffffffffffffffffff1681565b600160009054906101000a900473ffffffffffffffffffffffffffffffffffffffff1681565b60008060008054906101000a900473ffffffffffffffffffffffffffffffffffffffff1673ffffffffffffffffffffffffffffffffffffffff1663efc81a8c6040518163ffffffff1660e01b8152600401602060405180830381600087803b15801561016757600080fd5b505af115801561017b573d6000803e3d6000fd5b505050506040513d601f19601f8201168201806040525081019061019f9190610978565b905060006101b786604001518760600151878a6103f7565b905060006101cf87608001518860a00151888b6104e9565b90508273ffffffffffffffffffffffffffffffffffffffff1663035d09f8886000015189602001518b86868d61010001516040518763ffffffff1660e01b815260040161022196959493929190610d2e565b600060405180830381600087803b15801561023b57600080fd5b505af115801561024f573d6000803e3d6000fd5b505050508273ffffffffffffffffffffffffffffffffffffffff1663c25a9c328861012001516040518263ffffffff1660e01b81526004016102919190610c7e565b600060405180830381600087803b1580156102ab57600080fd5b505af11580156102bf573d6000803e3d6000fd5b505050508661014001511561033b578273ffffffffffffffffffffffffffffffffffffffff166338a9b4b660016040518263ffffffff1660e01b81526004016103089190610ca0565b600060405180830381600087803b15801561032257600080fd5b505af1158015610336573d6000803e3d6000fd5b505050505b8273ffffffffffffffffffffffffffffffffffffffff1663f2fde38b866040518263ffffffff1660e01b81526004016103749190610c63565b600060405180830381600087803b15801561038e57600080fd5b505af11580156103a2573d6000803e3d6000fd5b505050508273ffffffffffffffffffffffffffffffffffffffff167f8f711639be1281e7c5ee59206b3043d38eaabb4e87ef3cbd3e301ca1f464745460405160405180910390a2829350505050949350505050565b6000600160009054906101000a900473ffffffffffffffffffffffffffffffffffffffff1673ffffffffffffffffffffffffffffffffffffffff16638e22585d60405180608001604052808881526020018781526020018660ff1681526020018573ffffffffffffffffffffffffffffffffffffffff168152506040518263ffffffff1660e01b815260040161048d9190610d0c565b602060405180830381600087803b1580156104a757600080fd5b505af11580156104bb573d6000803e3d6000fd5b505050506040513d601f19601f820116820180604052508101906104df9190610a1c565b9050949350505050565b6000600160009054906101000a900473ffffffffffffffffffffffffffffffffffffffff1673ffffffffffffffffffffffffffffffffffffffff16638c0cd38d60405180608001604052808881526020018781526020018660ff1681526020018573ffffffffffffffffffffffffffffffffffffffff168152506040518263ffffffff1660e01b815260040161057f9190610d0c565b602060405180830381600087803b15801561059957600080fd5b505af11580156105ad573d6000803e3d6000fd5b505050506040513d601f19601f820116820180604052508101906105d1919061094f565b9050949350505050565b6000813590506105ea8161105f565b92915050565b600082601f83011261060157600080fd5b813561061461060f82610dbc565b610d8f565b9150818183526020840193506020810190508385606084028201111561063957600080fd5b60005b83811015610669578161064f88826108b0565b84526020840193506060830192505060018101905061063c565b5050505092915050565b60008135905061068281611076565b92915050565b6000815190506106978161108d565b92915050565b6000815190506106ac816110a4565b92915050565b6000813590506106c1816110bb565b92915050565b6000815190506106d6816110d2565b92915050565b600082601f8301126106ed57600080fd5b81356107006106fb82610de4565b610d8f565b9150808252602083016020830185838301111561071c57600080fd5b61072783828461100c565b50505092915050565b6000610160828403121561074357600080fd5b61074e610160610d8f565b9050600061075e84828501610925565b600083015250602061077284828501610925565b602083015250604082013567ffffffffffffffff81111561079257600080fd5b61079e848285016106dc565b604083015250606082013567ffffffffffffffff8111156107be57600080fd5b6107ca848285016106dc565b606083015250608082013567ffffffffffffffff8111156107ea57600080fd5b6107f6848285016106dc565b60808301525060a082013567ffffffffffffffff81111561081657600080fd5b610822848285016106dc565b60a08301525060c061083684828501610925565b60c08301525060e061084a84828501610925565b60e08301525061010061085f84828501610925565b6101008301525061012082013567ffffffffffffffff81111561088157600080fd5b61088d848285016105f0565b610120830152506101406108a384828501610673565b6101408301525092915050565b6000606082840312156108c257600080fd5b6108cc6060610d8f565b905060006108dc848285016105db565b60008301525060206108f084828501610910565b60208301525060406109048482850161093a565b60408301525092915050565b60008135905061091f816110e9565b92915050565b60008135905061093481611100565b92915050565b60008135905061094981611117565b92915050565b60006020828403121561096157600080fd5b600061096f84828501610688565b91505092915050565b60006020828403121561098a57600080fd5b60006109988482850161069d565b91505092915050565b600080600080608085870312156109b757600080fd5b60006109c5878288016106b2565b945050602085013567ffffffffffffffff8111156109e257600080fd5b6109ee87828801610730565b93505060406109ff8782880161093a565b9250506060610a10878288016105db565b91505092959194509250565b600060208284031215610a2e57600080fd5b6000610a3c848285016106c7565b91505092915050565b6000610a518383610bf4565b60608301905092915050565b610a6681610e65565b82525050565b610a7581610e65565b82525050565b6000610a8682610e20565b610a908185610e43565b9350610a9b83610e10565b8060005b83811015610acc578151610ab38882610a45565b9750610abe83610e36565b925050600181019050610a9f565b5085935050505092915050565b610ae281610e77565b82525050565b610af181610f10565b82525050565b610b0081610f34565b82525050565b610b0f81610f58565b82525050565b610b1e81610f7c565b82525050565b610b2d81610fa0565b82525050565b610b3c81610fc4565b82525050565b610b4b81610fe8565b82525050565b6000610b5c82610e2b565b610b668185610e54565b9350610b7681856020860161101b565b610b7f8161104e565b840191505092915050565b60006080830160008301518482036000860152610ba78282610b51565b91505060208301518482036020860152610bc18282610b51565b9150506040830151610bd66040860182610c54565b506060830151610be96060860182610b42565b508091505092915050565b606082016000820151610c0a6000850182610a5d565b506020820151610c1d6020850182610c36565b506040820151610c306040850182610c54565b50505050565b610c3f81610ecb565b82525050565b610c4e81610ef9565b82525050565b610c5d81610f03565b82525050565b6000602082019050610c786000830184610a6c565b92915050565b60006020820190508181036000830152610c988184610a7b565b905092915050565b6000602082019050610cb56000830184610ad9565b92915050565b6000602082019050610cd06000830184610ae8565b92915050565b6000602082019050610ceb6000830184610b06565b92915050565b6000602082019050610d066000830184610b15565b92915050565b60006020820190508181036000830152610d268184610b8a565b905092915050565b600060c082019050610d436000830189610c45565b610d506020830188610c45565b610d5d6040830187610b24565b610d6a6060830186610b33565b610d776080830185610af7565b610d8460a0830184610c45565b979650505050505050565b6000604051905081810181811067ffffffffffffffff82111715610db257600080fd5b8060405250919050565b600067ffffffffffffffff821115610dd357600080fd5b602082029050602081019050919050565b600067ffffffffffffffff821115610dfb57600080fd5b601f19601f8301169050602081019050919050565b6000819050602082019050919050565b600081519050919050565b600081519050919050565b6000602082019050919050565b600082825260208201905092915050565b600082825260208201905092915050565b6000610e7082610ed9565b9050919050565b60008115159050919050565b6000610e8e82610e65565b9050919050565b6000610ea082610e65565b9050919050565b6000610eb282610e65565b9050919050565b6000610ec482610e65565b9050919050565b600061ffff82169050919050565b600073ffffffffffffffffffffffffffffffffffffffff82169050919050565b6000819050919050565b600060ff82169050919050565b6000610f1b82610f22565b9050919050565b6000610f2d82610ed9565b9050919050565b6000610f3f82610f46565b9050919050565b6000610f5182610ed9565b9050919050565b6000610f6382610f6a565b9050919050565b6000610f7582610ed9565b9050919050565b6000610f8782610f8e565b9050919050565b6000610f9982610ed9565b9050919050565b6000610fab82610fb2565b9050919050565b6000610fbd82610ed9565b9050919050565b6000610fcf82610fd6565b9050919050565b6000610fe182610ed9565b9050919050565b6000610ff382610ffa565b9050919050565b600061100582610ed9565b9050919050565b82818337600083830152505050565b60005b8381101561103957808201518184015260208101905061101e565b83811115611048576000848401525b50505050565b6000601f19601f8301169050919050565b61106881610e65565b811461107357600080fd5b50565b61107f81610e77565b811461108a57600080fd5b50565b61109681610e83565b81146110a157600080fd5b50565b6110ad81610e95565b81146110b857600080fd5b50565b6110c481610ea7565b81146110cf57600080fd5b50565b6110db81610eb9565b81146110e657600080fd5b50565b6110f281610ecb565b81146110fd57600080fd5b50565b61110981610ef9565b811461111457600080fd5b50565b61112081610f03565b811461112b57600080fd5b5056fea26469706673582212203a74a9672d33e41185a4450748880e1cdf7b776126a62e34cc553c24c0ec3c3564736f6c634300060c0033",
  "linkReferences": {},
  "deployedLinkReferences": {}
}