{
  "_format": "hh-sol-artifact-1",
  "contractName": "MultipleWinnersBuilder",
  "sourceName": "contracts/builders/MultipleWinnersBuilder.sol",
  "abi": [
    {
      "inputs": [
        {
          "internalType": "contract MultipleWinnersProxyFactory",
          "name": "_multipleWinnersProxyFactory",
          "type": "address"
        },
        {
          "internalType": "contract ControlledTokenBuilder",
          "name": "_controlledTokenBuilder",
          "type": "address"
        }
      ],
      "stateMutability": "nonpayable",
      "type": "constructor"
    },
    {
      "anonymous": false,
      "inputs": [
        {
          "indexed": true,
          "internalType": "address",
          "name": "prizeStrategy",
          "type": "address"
        }
      ],
      "name": "MultipleWinnersCreated",
      "type": "event"
    },
    {
      "inputs": [],
      "name": "controlledTokenBuilder",
      "outputs": [
        {
          "internalType": "contract ControlledTokenBuilder",
          "name": "",
          "type": "address"
        }
      ],
      "stateMutability": "view",
      "type": "function"
    },
    {
      "inputs": [
        {
          "internalType": "contract PrizePool",
          "name": "prizePool",
          "type": "address"
        },
        {
          "components": [
            {
              "internalType": "contract RNGInterface",
              "name": "rngService",
              "type": "address"
            },
            {
              "internalType": "uint256",
              "name": "prizePeriodStart",
              "type": "uint256"
            },
            {
              "internalType": "uint256",
              "name": "prizePeriodSeconds",
              "type": "uint256"
            },
            {
              "internalType": "string",
              "name": "ticketName",
              "type": "string"
            },
            {
              "internalType": "string",
              "name": "ticketSymbol",
              "type": "string"
            },
            {
              "internalType": "string",
              "name": "sponsorshipName",
              "type": "string"
            },
            {
              "internalType": "string",
              "name": "sponsorshipSymbol",
              "type": "string"
            },
            {
              "internalType": "uint256",
              "name": "ticketCreditLimitMantissa",
              "type": "uint256"
            },
            {
              "internalType": "uint256",
              "name": "ticketCreditRateMantissa",
              "type": "uint256"
            },
            {
              "internalType": "uint256",
              "name": "numberOfWinners",
              "type": "uint256"
            },
            {
              "components": [
                {
                  "internalType": "address",
                  "name": "target",
                  "type": "address"
                },
                {
                  "internalType": "uint16",
                  "name": "percentage",
                  "type": "uint16"
                },
                {
                  "internalType": "uint8",
                  "name": "token",
                  "type": "uint8"
                }
              ],
              "internalType": "struct PrizeSplit.PrizeSplitConfig[]",
              "name": "prizeSplits",
              "type": "tuple[]"
            },
            {
              "internalType": "bool",
              "name": "splitExternalErc20Awards",
              "type": "bool"
            }
          ],
          "internalType": "struct MultipleWinnersBuilder.MultipleWinnersConfig",
          "name": "prizeStrategyConfig",
          "type": "tuple"
        },
        {
          "internalType": "uint8",
          "name": "decimals",
          "type": "uint8"
        },
        {
          "internalType": "address",
          "name": "owner",
          "type": "address"
        }
      ],
      "name": "createMultipleWinners",
      "outputs": [
        {
          "internalType": "contract MultipleWinners",
          "name": "",
          "type": "address"
        }
      ],
      "stateMutability": "nonpayable",
      "type": "function"
    },
    {
      "inputs": [],
      "name": "multipleWinnersProxyFactory",
      "outputs": [
        {
          "internalType": "contract MultipleWinnersProxyFactory",
          "name": "",
          "type": "address"
        }
      ],
      "stateMutability": "view",
      "type": "function"
    }
  ],
  "bytecode": "0x60806040523480156200001157600080fd5b50604051620015d9380380620015d98339818101604052810190620000379190620001d4565b600073ffffffffffffffffffffffffffffffffffffffff168273ffffffffffffffffffffffffffffffffffffffff161415620000aa576040517f08c379a0000000000000000000000000000000000000000000000000000000008152600401620000a190620002e5565b60405180910390fd5b600073ffffffffffffffffffffffffffffffffffffffff168173ffffffffffffffffffffffffffffffffffffffff1614156200011d576040517f08c379a0000000000000000000000000000000000000000000000000000000008152600401620001149062000307565b60405180910390fd5b816000806101000a81548173ffffffffffffffffffffffffffffffffffffffff021916908373ffffffffffffffffffffffffffffffffffffffff16021790555080600160006101000a81548173ffffffffffffffffffffffffffffffffffffffff021916908373ffffffffffffffffffffffffffffffffffffffff1602179055505050620003ca565b600081519050620001b78162000396565b92915050565b600081519050620001ce81620003b0565b92915050565b60008060408385031215620001e857600080fd5b6000620001f885828601620001bd565b92505060206200020b85828601620001a6565b9150509250929050565b600062000224603b8362000329565b91507f4d756c7469706c6557696e6e6572734275696c6465722f6d756c7469706c655760008301527f696e6e65727350726f7879466163746f72792d6e6f742d7a65726f00000000006020830152604082019050919050565b60006200028c602d8362000329565b91507f4d756c7469706c6557696e6e6572734275696c6465722f746f6b656e2d62756960008301527f6c6465722d6e6f742d7a65726f000000000000000000000000000000000000006020830152604082019050919050565b60006020820190508181036000830152620003008162000215565b9050919050565b6000602082019050818103600083015262000322816200027d565b9050919050565b600082825260208201905092915050565b6000620003478262000376565b9050919050565b60006200035b826200033a565b9050919050565b60006200036f826200033a565b9050919050565b600073ffffffffffffffffffffffffffffffffffffffff82169050919050565b620003a1816200034e565b8114620003ad57600080fd5b50565b620003bb8162000362565b8114620003c757600080fd5b50565b6111ff80620003da6000396000f3fe608060405234801561001057600080fd5b50600436106100415760003560e01c8063013da4201461004657806314d9dcd014610064578063b77f3bcb14610082575b600080fd5b61004e6100b2565b60405161005b9190610d16565b60405180910390f35b61006c6100d6565b6040516100799190610cfb565b60405180910390f35b61009c600480360381019061009791906109d2565b6100fc565b6040516100a99190610d31565b60405180910390f35b60008054906101000a900473ffffffffffffffffffffffffffffffffffffffff1681565b600160009054906101000a900473ffffffffffffffffffffffffffffffffffffffff1681565b60008060008054906101000a900473ffffffffffffffffffffffffffffffffffffffff1673ffffffffffffffffffffffffffffffffffffffff1663efc81a8c6040518163ffffffff1660e01b8152600401602060405180830381600087803b15801561016757600080fd5b505af115801561017b573d6000803e3d6000fd5b505050506040513d601f19601f8201168201806040525081019061019f91906109a9565b905060006101b786606001518760800151878a6103fd565b905060006101cf8760a001518860c00151888b6104ef565b90508273ffffffffffffffffffffffffffffffffffffffff16637f2be9fc886020015189604001518b86868d600001518e61012001516040518863ffffffff1660e01b81526004016102279796959493929190610d6e565b600060405180830381600087803b15801561024157600080fd5b505af1158015610255573d6000803e3d6000fd5b505050508273ffffffffffffffffffffffffffffffffffffffff1663c25a9c328861014001516040518263ffffffff1660e01b81526004016102979190610cbe565b600060405180830381600087803b1580156102b157600080fd5b505af11580156102c5573d6000803e3d6000fd5b5050505086610160015115610341578273ffffffffffffffffffffffffffffffffffffffff166338a9b4b660016040518263ffffffff1660e01b815260040161030e9190610ce0565b600060405180830381600087803b15801561032857600080fd5b505af115801561033c573d6000803e3d6000fd5b505050505b8273ffffffffffffffffffffffffffffffffffffffff1663f2fde38b866040518263ffffffff1660e01b815260040161037a9190610ca3565b600060405180830381600087803b15801561039457600080fd5b505af11580156103a8573d6000803e3d6000fd5b505050508273ffffffffffffffffffffffffffffffffffffffff167f8f711639be1281e7c5ee59206b3043d38eaabb4e87ef3cbd3e301ca1f464745460405160405180910390a2829350505050949350505050565b6000600160009054906101000a900473ffffffffffffffffffffffffffffffffffffffff1673ffffffffffffffffffffffffffffffffffffffff16638e22585d60405180608001604052808881526020018781526020018660ff1681526020018573ffffffffffffffffffffffffffffffffffffffff168152506040518263ffffffff1660e01b81526004016104939190610d4c565b602060405180830381600087803b1580156104ad57600080fd5b505af11580156104c1573d6000803e3d6000fd5b505050506040513d601f19601f820116820180604052508101906104e59190610a4d565b9050949350505050565b6000600160009054906101000a900473ffffffffffffffffffffffffffffffffffffffff1673ffffffffffffffffffffffffffffffffffffffff16638c0cd38d60405180608001604052808881526020018781526020018660ff1681526020018573ffffffffffffffffffffffffffffffffffffffff168152506040518263ffffffff1660e01b81526004016105859190610d4c565b602060405180830381600087803b15801561059f57600080fd5b505af11580156105b3573d6000803e3d6000fd5b505050506040513d601f19601f820116820180604052508101906105d79190610980565b9050949350505050565b6000813590506105f0816110e3565b92915050565b600082601f83011261060757600080fd5b813561061a61061582610e0a565b610ddd565b9150818183526020840193506020810190508385606084028201111561063f57600080fd5b60005b8381101561066f578161065588826108e1565b845260208401935060608301925050600181019050610642565b5050505092915050565b600081359050610688816110fa565b92915050565b60008151905061069d81611111565b92915050565b6000815190506106b281611128565b92915050565b6000813590506106c78161113f565b92915050565b6000813590506106dc81611156565b92915050565b6000815190506106f18161116d565b92915050565b600082601f83011261070857600080fd5b813561071b61071682610e32565b610ddd565b9150808252602083016020830185838301111561073757600080fd5b610742838284611090565b50505092915050565b6000610180828403121561075e57600080fd5b610769610180610ddd565b90506000610779848285016106cd565b600083015250602061078d84828501610956565b60208301525060406107a184828501610956565b604083015250606082013567ffffffffffffffff8111156107c157600080fd5b6107cd848285016106f7565b606083015250608082013567ffffffffffffffff8111156107ed57600080fd5b6107f9848285016106f7565b60808301525060a082013567ffffffffffffffff81111561081957600080fd5b610825848285016106f7565b60a08301525060c082013567ffffffffffffffff81111561084557600080fd5b610851848285016106f7565b60c08301525060e061086584828501610956565b60e08301525061010061087a84828501610956565b6101008301525061012061089084828501610956565b6101208301525061014082013567ffffffffffffffff8111156108b257600080fd5b6108be848285016105f6565b610140830152506101606108d484828501610679565b6101608301525092915050565b6000606082840312156108f357600080fd5b6108fd6060610ddd565b9050600061090d848285016105e1565b600083015250602061092184828501610941565b60208301525060406109358482850161096b565b60408301525092915050565b60008135905061095081611184565b92915050565b6000813590506109658161119b565b92915050565b60008135905061097a816111b2565b92915050565b60006020828403121561099257600080fd5b60006109a08482850161068e565b91505092915050565b6000602082840312156109bb57600080fd5b60006109c9848285016106a3565b91505092915050565b600080600080608085870312156109e857600080fd5b60006109f6878288016106b8565b945050602085013567ffffffffffffffff811115610a1357600080fd5b610a1f8782880161074b565b9350506040610a308782880161096b565b9250506060610a41878288016105e1565b91505092959194509250565b600060208284031215610a5f57600080fd5b6000610a6d848285016106e2565b91505092915050565b6000610a828383610c34565b60608301905092915050565b610a9781610eb3565b82525050565b610aa681610eb3565b82525050565b6000610ab782610e6e565b610ac18185610e91565b9350610acc83610e5e565b8060005b83811015610afd578151610ae48882610a76565b9750610aef83610e84565b925050600181019050610ad0565b5085935050505092915050565b610b1381610ec5565b82525050565b610b2281610f70565b82525050565b610b3181610f94565b82525050565b610b4081610fb8565b82525050565b610b4f81610fdc565b82525050565b610b5e81611000565b82525050565b610b6d81611024565b82525050565b610b7c81611048565b82525050565b610b8b8161106c565b82525050565b6000610b9c82610e79565b610ba68185610ea2565b9350610bb681856020860161109f565b610bbf816110d2565b840191505092915050565b60006080830160008301518482036000860152610be78282610b91565b91505060208301518482036020860152610c018282610b91565b9150506040830151610c166040860182610c94565b506060830151610c296060860182610b82565b508091505092915050565b606082016000820151610c4a6000850182610a8e565b506020820151610c5d6020850182610c76565b506040820151610c706040850182610c94565b50505050565b610c7f81610f2b565b82525050565b610c8e81610f59565b82525050565b610c9d81610f63565b82525050565b6000602082019050610cb86000830184610a9d565b92915050565b60006020820190508181036000830152610cd88184610aac565b905092915050565b6000602082019050610cf56000830184610b0a565b92915050565b6000602082019050610d106000830184610b19565b92915050565b6000602082019050610d2b6000830184610b37565b92915050565b6000602082019050610d466000830184610b46565b92915050565b60006020820190508181036000830152610d668184610bca565b905092915050565b600060e082019050610d83600083018a610c85565b610d906020830189610c85565b610d9d6040830188610b55565b610daa6060830187610b73565b610db76080830186610b28565b610dc460a0830185610b64565b610dd160c0830184610c85565b98975050505050505050565b6000604051905081810181811067ffffffffffffffff82111715610e0057600080fd5b8060405250919050565b600067ffffffffffffffff821115610e2157600080fd5b602082029050602081019050919050565b600067ffffffffffffffff821115610e4957600080fd5b601f19601f8301169050602081019050919050565b6000819050602082019050919050565b600081519050919050565b600081519050919050565b6000602082019050919050565b600082825260208201905092915050565b600082825260208201905092915050565b6000610ebe82610f39565b9050919050565b60008115159050919050565b6000610edc82610eb3565b9050919050565b6000610eee82610eb3565b9050919050565b6000610f0082610eb3565b9050919050565b6000610f1282610eb3565b9050919050565b6000610f2482610eb3565b9050919050565b600061ffff82169050919050565b600073ffffffffffffffffffffffffffffffffffffffff82169050919050565b6000819050919050565b600060ff82169050919050565b6000610f7b82610f82565b9050919050565b6000610f8d82610f39565b9050919050565b6000610f9f82610fa6565b9050919050565b6000610fb182610f39565b9050919050565b6000610fc382610fca565b9050919050565b6000610fd582610f39565b9050919050565b6000610fe782610fee565b9050919050565b6000610ff982610f39565b9050919050565b600061100b82611012565b9050919050565b600061101d82610f39565b9050919050565b600061102f82611036565b9050919050565b600061104182610f39565b9050919050565b60006110538261105a565b9050919050565b600061106582610f39565b9050919050565b60006110778261107e565b9050919050565b600061108982610f39565b9050919050565b82818337600083830152505050565b60005b838110156110bd5780820151818401526020810190506110a2565b838111156110cc576000848401525b50505050565b6000601f19601f8301169050919050565b6110ec81610eb3565b81146110f757600080fd5b50565b61110381610ec5565b811461110e57600080fd5b50565b61111a81610ed1565b811461112557600080fd5b50565b61113181610ee3565b811461113c57600080fd5b50565b61114881610ef5565b811461115357600080fd5b50565b61115f81610f07565b811461116a57600080fd5b50565b61117681610f19565b811461118157600080fd5b50565b61118d81610f2b565b811461119857600080fd5b50565b6111a481610f59565b81146111af57600080fd5b50565b6111bb81610f63565b81146111c657600080fd5b5056fea2646970667358221220a9e9a126d9bada64944619eb4fb655a695b1f892fbd71c04ce3827851e5721a064736f6c634300060c0033",
  "linkReferences": {},
  "deployedLinkReferences": {}
}