{
  "_format": "hh-sol-artifact-1",
  "contractName": "TokenFaucetProxyFactory",
  "sourceName": "contracts/token-faucet/TokenFaucetProxyFactory.sol",
  "abi": [
    {
      "inputs": [],
      "stateMutability": "nonpayable",
      "type": "constructor"
    },
    {
      "anonymous": false,
      "inputs": [
        {
          "indexed": false,
          "internalType": "address",
          "name": "proxy",
          "type": "address"
        }
      ],
      "name": "ProxyCreated",
      "type": "event"
    },
    {
      "inputs": [
        {
          "internalType": "address",
          "name": "user",
          "type": "address"
        },
        {
          "internalType": "contract TokenFaucet[]",
          "name": "tokenFaucets",
          "type": "address[]"
        }
      ],
      "name": "claimAll",
      "outputs": [],
      "stateMutability": "nonpayable",
      "type": "function"
    },
    {
      "inputs": [
        {
          "internalType": "contract IERC20Upgradeable",
          "name": "_asset",
          "type": "address"
        },
        {
          "internalType": "contract IERC20Upgradeable",
          "name": "_measure",
          "type": "address"
        },
        {
          "internalType": "uint256",
          "name": "_dripRatePerSecond",
          "type": "uint256"
        }
      ],
      "name": "create",
      "outputs": [
        {
          "internalType": "contract TokenFaucet",
          "name": "",
          "type": "address"
        }
      ],
      "stateMutability": "nonpayable",
      "type": "function"
    },
    {
      "inputs": [
        {
          "internalType": "contract IERC20Upgradeable",
          "name": "_asset",
          "type": "address"
        },
        {
          "internalType": "contract IERC20Upgradeable",
          "name": "_measure",
          "type": "address"
        },
        {
          "internalType": "uint256",
          "name": "_dripRatePerSecond",
          "type": "uint256"
        },
        {
          "internalType": "uint256",
          "name": "_amount",
          "type": "uint256"
        }
      ],
      "name": "createAndDeposit",
      "outputs": [
        {
          "internalType": "contract TokenFaucet",
          "name": "",
          "type": "address"
        }
      ],
      "stateMutability": "nonpayable",
      "type": "function"
    },
    {
      "inputs": [
        {
          "internalType": "address",
          "name": "_logic",
          "type": "address"
        },
        {
          "internalType": "bytes",
          "name": "_data",
          "type": "bytes"
        }
      ],
      "name": "deployMinimal",
      "outputs": [
        {
          "internalType": "address",
          "name": "proxy",
          "type": "address"
        }
      ],
      "stateMutability": "nonpayable",
      "type": "function"
    },
    {
      "inputs": [],
      "name": "instance",
      "outputs": [
        {
          "internalType": "contract TokenFaucet",
          "name": "",
          "type": "address"
        }
      ],
      "stateMutability": "view",
      "type": "function"
    }
  ],
  "bytecode": "0x608060405234801561001057600080fd5b5060405161001d9061007e565b604051809103906000f080158015610039573d6000803e3d6000fd5b506000806101000a81548173ffffffffffffffffffffffffffffffffffffffff021916908373ffffffffffffffffffffffffffffffffffffffff16021790555061008b565b6129448061099483390190565b6108fa8061009a6000396000f3fe608060405234801561001057600080fd5b50600436106100575760003560e01c8063022ec0951461005c57806313e7e05814610090578063244a79d614610129578063b3eeb5e2146101cb578063ffe5725f146102d0575b600080fd5b610064610368565b604051808273ffffffffffffffffffffffffffffffffffffffff16815260200191505060405180910390f35b610127600480360360408110156100a657600080fd5b81019080803573ffffffffffffffffffffffffffffffffffffffff169060200190929190803590602001906401000000008111156100e357600080fd5b8201836020820111156100f557600080fd5b8035906020019184602083028401116401000000008311171561011757600080fd5b909192939192939050505061038c565b005b61019f6004803603608081101561013f57600080fd5b81019080803573ffffffffffffffffffffffffffffffffffffffff169060200190929190803573ffffffffffffffffffffffffffffffffffffffff169060200190929190803590602001909291908035906020019092919050505061047a565b604051808273ffffffffffffffffffffffffffffffffffffffff16815260200191505060405180910390f35b6102a4600480360360408110156101e157600080fd5b81019080803573ffffffffffffffffffffffffffffffffffffffff1690602001909291908035906020019064010000000081111561021e57600080fd5b82018360208201111561023057600080fd5b8035906020019184600183028401116401000000008311171561025257600080fd5b91908080601f016020809104026020016040519081016040528093929190818152602001838380828437600081840152601f19601f82011690508083019250505050505050919291929050505061055e565b604051808273ffffffffffffffffffffffffffffffffffffffff16815260200191505060405180910390f35b61033c600480360360608110156102e657600080fd5b81019080803573ffffffffffffffffffffffffffffffffffffffff169060200190929190803573ffffffffffffffffffffffffffffffffffffffff1690602001909291908035906020019092919050505061072f565b604051808273ffffffffffffffffffffffffffffffffffffffff16815260200191505060405180910390f35b60008054906101000a900473ffffffffffffffffffffffffffffffffffffffff1681565b60005b82829050811015610474578282828181106103a657fe5b9050602002013573ffffffffffffffffffffffffffffffffffffffff1673ffffffffffffffffffffffffffffffffffffffff16631e83409a856040518263ffffffff1660e01b8152600401808273ffffffffffffffffffffffffffffffffffffffff168152602001915050602060405180830381600087803b15801561042b57600080fd5b505af115801561043f573d6000803e3d6000fd5b505050506040513d602081101561045557600080fd5b810190808051906020019092919050505050808060010191505061038f565b50505050565b60008061048886868661072f565b90508573ffffffffffffffffffffffffffffffffffffffff166323b872dd3383866040518463ffffffff1660e01b8152600401808473ffffffffffffffffffffffffffffffffffffffff1681526020018373ffffffffffffffffffffffffffffffffffffffff1681526020018281526020019350505050602060405180830381600087803b15801561051957600080fd5b505af115801561052d573d6000803e3d6000fd5b505050506040513d602081101561054357600080fd5b81019080805190602001909291905050505050949350505050565b6000808360601b90506040517f3d602d80600a3d3981f3363d3d373d3d3d363d7300000000000000000000000081528160148201527f5af43d82803e903d91602b57fd5bf3000000000000000000000000000000000060288201526037816000f09250507efffc2da0b561cae30d9826d37709e9421c4725faebc226cbbb7ef5fc5e734982604051808273ffffffffffffffffffffffffffffffffffffffff16815260200191505060405180910390a16000835111156107285760008273ffffffffffffffffffffffffffffffffffffffff16846040518082805190602001908083835b602083106106655780518252602082019150602081019050602083039250610642565b6001836020036101000a0380198251168184511680821785525050505050509050019150506000604051808303816000865af19150503d80600081146106c7576040519150601f19603f3d011682016040523d82523d6000602084013e6106cc565b606091505b5050905080610726576040517f08c379a00000000000000000000000000000000000000000000000000000000081526004018080602001828103825260248152602001806108a16024913960400191505060405180910390fd5b505b5092915050565b60008061076b60008054906101000a900473ffffffffffffffffffffffffffffffffffffffff166040518060200160405280600081525061055e565b90508073ffffffffffffffffffffffffffffffffffffffff16631794bb3c8686866040518463ffffffff1660e01b8152600401808473ffffffffffffffffffffffffffffffffffffffff1681526020018373ffffffffffffffffffffffffffffffffffffffff1681526020018281526020019350505050600060405180830381600087803b1580156107fc57600080fd5b505af1158015610810573d6000803e3d6000fd5b505050508073ffffffffffffffffffffffffffffffffffffffff1663f2fde38b336040518263ffffffff1660e01b8152600401808273ffffffffffffffffffffffffffffffffffffffff168152602001915050600060405180830381600087803b15801561087d57600080fd5b505af1158015610891573d6000803e3d6000fd5b5050505080915050939250505056fe50726f7879466163746f72792f636f6e7374727563746f722d63616c6c2d6661696c6564a26469706673582212209eafeda8cd15acdd4ffc80f92a19eaf7a46d55105bf5c6ecd6e1f5e9ef2ea94d64736f6c634300060c0033608060405234801561001057600080fd5b50612924806100206000396000f3fe608060405234801561001057600080fd5b50600436106101215760003560e01c80638da5cb5b116100ad578063ca5baafc11610071578063ca5baafc14610546578063d9772a2514610574578063e318613e14610598578063efa9a1ad146105c6578063f2fde38b146105fa57610121565b80638da5cb5b1461040a5780639f678cca1461043e578063b22109571461045c578063b6b55f25146104ea578063c96f14b81461051857610121565b80631e83409a116100f45780631e83409a14610298578063205c2878146102f057806338d52e0f1461033e5780634d7f3db014610372578063715018a61461040057610121565b806301ffc9a7146101265780630ecc535f146101895780631794bb3c1461020c578063187f33341461027a575b600080fd5b6101716004803603602081101561013c57600080fd5b8101908080357bffffffffffffffffffffffffffffffffffffffffffffffffffffffff1916906020019092919050505061063e565b60405180821515815260200191505060405180910390f35b6101cb6004803603602081101561019f57600080fd5b81019080803573ffffffffffffffffffffffffffffffffffffffff1690602001909291905050506106de565b60405180836fffffffffffffffffffffffffffffffff168152602001826fffffffffffffffffffffffffffffffff1681526020019250505060405180910390f35b6102786004803603606081101561022257600080fd5b81019080803573ffffffffffffffffffffffffffffffffffffffff169060200190929190803573ffffffffffffffffffffffffffffffffffffffff1690602001909291908035906020019092919050505061073a565b005b6102826109a1565b6040518082815260200191505060405180910390f35b6102da600480360360208110156102ae57600080fd5b81019080803573ffffffffffffffffffffffffffffffffffffffff1690602001909291905050506109a7565b6040518082815260200191505060405180910390f35b61033c6004803603604081101561030657600080fd5b81019080803573ffffffffffffffffffffffffffffffffffffffff16906020019092919080359060200190929190505050610c4c565b005b610346610fa8565b604051808273ffffffffffffffffffffffffffffffffffffffff16815260200191505060405180910390f35b6103fe6004803603608081101561038857600080fd5b81019080803573ffffffffffffffffffffffffffffffffffffffff16906020019092919080359060200190929190803573ffffffffffffffffffffffffffffffffffffffff169060200190929190803573ffffffffffffffffffffffffffffffffffffffff169060200190929190505050610fce565b005b61040861103e565b005b6104126111ae565b604051808273ffffffffffffffffffffffffffffffffffffffff16815260200191505060405180910390f35b6104466111d8565b6040518082815260200191505060405180910390f35b6104e86004803603608081101561047257600080fd5b81019080803573ffffffffffffffffffffffffffffffffffffffff169060200190929190803573ffffffffffffffffffffffffffffffffffffffff16906020019092919080359060200190929190803573ffffffffffffffffffffffffffffffffffffffff1690602001909291905050506115b1565b005b6105166004803603602081101561050057600080fd5b8101908080359060200190929190505050611664565b005b6105206117ab565b60405180826dffffffffffffffffffffffffffff16815260200191505060405180910390f35b6105726004803603602081101561055c57600080fd5b81019080803590602001909291905050506117cb565b005b61057c61193c565b604051808263ffffffff16815260200191505060405180910390f35b6105a0611952565b60405180826dffffffffffffffffffffffffffff16815260200191505060405180910390f35b6105ce611972565b604051808273ffffffffffffffffffffffffffffffffffffffff16815260200191505060405180910390f35b61063c6004803603602081101561061057600080fd5b81019080803573ffffffffffffffffffffffffffffffffffffffff169060200190929190505050611998565b005b60006301ffc9a760e01b7bffffffffffffffffffffffffffffffffffffffffffffffffffffffff1916827bffffffffffffffffffffffffffffffffffffffffffffffffffffffff191614806106d7575063ff5e34e760e01b7bffffffffffffffffffffffffffffffffffffffffffffffffffffffff1916827bffffffffffffffffffffffffffffffffffffffffffffffffffffffff1916145b9050919050565b60696020528060005260406000206000915090508060000160009054906101000a90046fffffffffffffffffffffffffffffffff16908060000160109054906101000a90046fffffffffffffffffffffffffffffffff16905082565b600060019054906101000a900460ff16806107595750610758611b8d565b5b8061076f575060008054906101000a900460ff16155b6107c4576040517f08c379a000000000000000000000000000000000000000000000000000000000815260040180806020018281038252602e815260200180612851602e913960400191505060405180910390fd5b60008060019054906101000a900460ff161590508015610814576001600060016101000a81548160ff02191690831515021790555060016000806101000a81548160ff0219169083151502179055505b61081c611b9e565b610824611cac565b6068601c6101000a81548163ffffffff021916908363ffffffff16021790555083606560006101000a81548173ffffffffffffffffffffffffffffffffffffffff021916908373ffffffffffffffffffffffffffffffffffffffff16021790555082606660006101000a81548173ffffffffffffffffffffffffffffffffffffffff021916908373ffffffffffffffffffffffffffffffffffffffff1602179055506108cf826117cb565b606660009054906101000a900473ffffffffffffffffffffffffffffffffffffffff1673ffffffffffffffffffffffffffffffffffffffff16606560009054906101000a900473ffffffffffffffffffffffffffffffffffffffff1673ffffffffffffffffffffffffffffffffffffffff167f10f27652c1015195ca7e6bc9b4c724cbf18e91c42117d92124703a3f49bb240f6067546040518082815260200191505060405180910390a3801561099b5760008060016101000a81548160ff0219169083151502179055505b50505050565b60675481565b60006109b16111d8565b506109bb82611cbc565b506000606960008473ffffffffffffffffffffffffffffffffffffffff1673ffffffffffffffffffffffffffffffffffffffff16815260200190815260200160002060000160109054906101000a90046fffffffffffffffffffffffffffffffff166fffffffffffffffffffffffffffffffff1690506000606960008573ffffffffffffffffffffffffffffffffffffffff1673ffffffffffffffffffffffffffffffffffffffff16815260200190815260200160002060000160106101000a8154816fffffffffffffffffffffffffffffffff02191690836fffffffffffffffffffffffffffffffff160217905550610af2610aed826068600e9054906101000a90046dffffffffffffffffffffffffffff166dffffffffffffffffffffffffffff1661205390919063ffffffff16565b6120d6565b6068600e6101000a8154816dffffffffffffffffffffffffffff02191690836dffffffffffffffffffffffffffff160217905550606560009054906101000a900473ffffffffffffffffffffffffffffffffffffffff1673ffffffffffffffffffffffffffffffffffffffff1663a9059cbb84836040518363ffffffff1660e01b8152600401808373ffffffffffffffffffffffffffffffffffffffff16815260200182815260200192505050602060405180830381600087803b158015610bb957600080fd5b505af1158015610bcd573d6000803e3d6000fd5b505050506040513d6020811015610be357600080fd5b8101908080519060200190929190505050508273ffffffffffffffffffffffffffffffffffffffff167fd8138f8a3f377c5259ca548e70e4c2de94f129f5a11036a15b69513cba2b426a826040518082815260200191505060405180910390a280915050919050565b610c54612147565b73ffffffffffffffffffffffffffffffffffffffff16610c726111ae565b73ffffffffffffffffffffffffffffffffffffffff1614610cfb576040517f08c379a00000000000000000000000000000000000000000000000000000000081526004018080602001828103825260208152602001807f4f776e61626c653a2063616c6c6572206973206e6f7420746865206f776e657281525060200191505060405180910390fd5b610d036111d8565b506000606560009054906101000a900473ffffffffffffffffffffffffffffffffffffffff1673ffffffffffffffffffffffffffffffffffffffff166370a08231306040518263ffffffff1660e01b8152600401808273ffffffffffffffffffffffffffffffffffffffff16815260200191505060206040518083038186803b158015610d8f57600080fd5b505afa158015610da3573d6000803e3d6000fd5b505050506040513d6020811015610db957600080fd5b810190808051906020019092919050505090506000610e0d6068600e9054906101000a90046dffffffffffffffffffffffffffff166dffffffffffffffffffffffffffff168361205390919063ffffffff16565b905080831115610e85576040517f08c379a000000000000000000000000000000000000000000000000000000000815260040180806020018281038252601e8152602001807f546f6b656e4661756365742f696e73756666696369656e742d66756e6473000081525060200191505060405180910390fd5b606560009054906101000a900473ffffffffffffffffffffffffffffffffffffffff1673ffffffffffffffffffffffffffffffffffffffff1663a9059cbb85856040518363ffffffff1660e01b8152600401808373ffffffffffffffffffffffffffffffffffffffff16815260200182815260200192505050602060405180830381600087803b158015610f1857600080fd5b505af1158015610f2c573d6000803e3d6000fd5b505050506040513d6020811015610f4257600080fd5b8101908080519060200190929190505050508373ffffffffffffffffffffffffffffffffffffffff167f7084f5476618d8e60b11ef0d7d3f06914655adb8793e28ff7f018d4c76d505d5846040518082815260200191505060405180910390a250505050565b606560009054906101000a900473ffffffffffffffffffffffffffffffffffffffff1681565b606660009054906101000a900473ffffffffffffffffffffffffffffffffffffffff1673ffffffffffffffffffffffffffffffffffffffff168273ffffffffffffffffffffffffffffffffffffffff1614156110385761102c6111d8565b5061103684611cbc565b505b50505050565b611046612147565b73ffffffffffffffffffffffffffffffffffffffff166110646111ae565b73ffffffffffffffffffffffffffffffffffffffff16146110ed576040517f08c379a00000000000000000000000000000000000000000000000000000000081526004018080602001828103825260208152602001807f4f776e61626c653a2063616c6c6572206973206e6f7420746865206f776e657281525060200191505060405180910390fd5b600073ffffffffffffffffffffffffffffffffffffffff16603360009054906101000a900473ffffffffffffffffffffffffffffffffffffffff1673ffffffffffffffffffffffffffffffffffffffff167f8be0079c531659141344cd1fd0a4f28419497f9722a3daafe3b4186f6b6457e060405160405180910390a36000603360006101000a81548173ffffffffffffffffffffffffffffffffffffffff021916908373ffffffffffffffffffffffffffffffffffffffff160217905550565b6000603360009054906101000a900473ffffffffffffffffffffffffffffffffffffffff16905090565b6000806111e3611cac565b63ffffffff1690508063ffffffff166068601c9054906101000a900463ffffffff1663ffffffff16141561121b5760009150506115ae565b6000606560009054906101000a900473ffffffffffffffffffffffffffffffffffffffff1673ffffffffffffffffffffffffffffffffffffffff166370a08231306040518263ffffffff1660e01b8152600401808273ffffffffffffffffffffffffffffffffffffffff16815260200191505060206040518083038186803b1580156112a657600080fd5b505afa1580156112ba573d6000803e3d6000fd5b505050506040513d60208110156112d057600080fd5b8101908080519060200190929190505050905060006113246068600e9054906101000a90046dffffffffffffffffffffffffffff166dffffffffffffffffffffffffffff168361205390919063ffffffff16565b905060006113536068601c9054906101000a900463ffffffff1663ffffffff168561205390919063ffffffff16565b90506000606860009054906101000a90046dffffffffffffffffffffffffffff166dffffffffffffffffffffffffffff169050600080606660009054906101000a900473ffffffffffffffffffffffffffffffffffffffff1673ffffffffffffffffffffffffffffffffffffffff166318160ddd6040518163ffffffff1660e01b815260040160206040518083038186803b1580156113f157600080fd5b505afa158015611405573d6000803e3d6000fd5b505050506040513d602081101561141b57600080fd5b8101908080519060200190929190505050905060008111801561143e5750600085115b156114c2576114586067548561214f90919063ffffffff16565b915084821115611466578491505b600061147283836121d5565b9050611487818561221490919063ffffffff16565b93507f7de59a92c9386255180c28ede4b61edb9b7b2ac96855ac634151489cef21bad6836040518082815260200191505060405180910390a1505b6114cb836120d6565b606860006101000a8154816dffffffffffffffffffffffffffff02191690836dffffffffffffffffffffffffffff160217905550611546611541836068600e9054906101000a90046dffffffffffffffffffffffffffff166dffffffffffffffffffffffffffff1661221490919063ffffffff16565b6120d6565b6068600e6101000a8154816dffffffffffffffffffffffffffff02191690836dffffffffffffffffffffffffffff1602179055506115838761229c565b6068601c6101000a81548163ffffffff021916908363ffffffff160217905550819750505050505050505b90565b606660009054906101000a900473ffffffffffffffffffffffffffffffffffffffff1673ffffffffffffffffffffffffffffffffffffffff168173ffffffffffffffffffffffffffffffffffffffff1614801561163b5750600073ffffffffffffffffffffffffffffffffffffffff168473ffffffffffffffffffffffffffffffffffffffff1614155b1561165e576116486111d8565b5061165283611cbc565b5061165c84611cbc565b505b50505050565b61166c6111d8565b50606560009054906101000a900473ffffffffffffffffffffffffffffffffffffffff1673ffffffffffffffffffffffffffffffffffffffff166323b872dd3330846040518463ffffffff1660e01b8152600401808473ffffffffffffffffffffffffffffffffffffffff1681526020018373ffffffffffffffffffffffffffffffffffffffff1681526020018281526020019350505050602060405180830381600087803b15801561171e57600080fd5b505af1158015611732573d6000803e3d6000fd5b505050506040513d602081101561174857600080fd5b8101908080519060200190929190505050503373ffffffffffffffffffffffffffffffffffffffff167f2da466a7b24304f47e87fa2e1e5a81b9831ce54fec19055ce277ca2f39ba42c4826040518082815260200191505060405180910390a250565b6068600e9054906101000a90046dffffffffffffffffffffffffffff1681565b6117d3612147565b73ffffffffffffffffffffffffffffffffffffffff166117f16111ae565b73ffffffffffffffffffffffffffffffffffffffff161461187a576040517f08c379a00000000000000000000000000000000000000000000000000000000081526004018080602001828103825260208152602001807f4f776e61626c653a2063616c6c6572206973206e6f7420746865206f776e657281525060200191505060405180910390fd5b600081116118f0576040517f08c379a000000000000000000000000000000000000000000000000000000000815260040180806020018281038252601c8152602001807f546f6b656e4661756365742f64726970526174652d67742d7a65726f0000000081525060200191505060405180910390fd5b6118f86111d8565b50806067819055507f3d38e7cd2e029035006f9977a727c8724cd41dffb6d2a40d9f66bd4c26836a326067546040518082815260200191505060405180910390a150565b6068601c9054906101000a900463ffffffff1681565b606860009054906101000a90046dffffffffffffffffffffffffffff1681565b606660009054906101000a900473ffffffffffffffffffffffffffffffffffffffff1681565b6119a0612147565b73ffffffffffffffffffffffffffffffffffffffff166119be6111ae565b73ffffffffffffffffffffffffffffffffffffffff1614611a47576040517f08c379a00000000000000000000000000000000000000000000000000000000081526004018080602001828103825260208152602001807f4f776e61626c653a2063616c6c6572206973206e6f7420746865206f776e657281525060200191505060405180910390fd5b600073ffffffffffffffffffffffffffffffffffffffff168173ffffffffffffffffffffffffffffffffffffffff161415611acd576040517f08c379a00000000000000000000000000000000000000000000000000000000081526004018080602001828103825260268152602001806128046026913960400191505060405180910390fd5b8073ffffffffffffffffffffffffffffffffffffffff16603360009054906101000a900473ffffffffffffffffffffffffffffffffffffffff1673ffffffffffffffffffffffffffffffffffffffff167f8be0079c531659141344cd1fd0a4f28419497f9722a3daafe3b4186f6b6457e060405160405180910390a380603360006101000a81548173ffffffffffffffffffffffffffffffffffffffff021916908373ffffffffffffffffffffffffffffffffffffffff16021790555050565b6000611b9830612303565b15905090565b600060019054906101000a900460ff1680611bbd5750611bbc611b8d565b5b80611bd3575060008054906101000a900460ff16155b611c28576040517f08c379a000000000000000000000000000000000000000000000000000000000815260040180806020018281038252602e815260200180612851602e913960400191505060405180910390fd5b60008060019054906101000a900460ff161590508015611c78576001600060016101000a81548160ff02191690831515021790555060016000806101000a81548160ff0219169083151502179055505b611c80612316565b611c88612414565b8015611ca95760008060016101000a81548160ff0219169083151502179055505b50565b6000611cb74261229c565b905090565b600080606960008473ffffffffffffffffffffffffffffffffffffffff1673ffffffffffffffffffffffffffffffffffffffff16815260200190815260200160002090508060000160009054906101000a90046fffffffffffffffffffffffffffffffff166fffffffffffffffffffffffffffffffff16606860009054906101000a90046dffffffffffffffffffffffffffff166dffffffffffffffffffffffffffff161415611d7057600091505061204e565b6000611de38260000160009054906101000a90046fffffffffffffffffffffffffffffffff166fffffffffffffffffffffffffffffffff16606860009054906101000a90046dffffffffffffffffffffffffffff166dffffffffffffffffffffffffffff1661205390919063ffffffff16565b90506000606660009054906101000a900473ffffffffffffffffffffffffffffffffffffffff1673ffffffffffffffffffffffffffffffffffffffff166370a08231866040518263ffffffff1660e01b8152600401808273ffffffffffffffffffffffffffffffffffffffff16815260200191505060206040518083038186803b158015611e7057600080fd5b505afa158015611e84573d6000803e3d6000fd5b505050506040513d6020811015611e9a57600080fd5b810190808051906020019092919050505090506000611ec1611ebc83856125bb565b6125fa565b90506040518060400160405280606860009054906101000a90046dffffffffffffffffffffffffffff166dffffffffffffffffffffffffffff166fffffffffffffffffffffffffffffffff168152602001611f71611f6c846fffffffffffffffffffffffffffffffff168860000160109054906101000a90046fffffffffffffffffffffffffffffffff166fffffffffffffffffffffffffffffffff1661221490919063ffffffff16565b6125fa565b6fffffffffffffffffffffffffffffffff16815250606960008873ffffffffffffffffffffffffffffffffffffffff1673ffffffffffffffffffffffffffffffffffffffff16815260200190815260200160002060008201518160000160006101000a8154816fffffffffffffffffffffffffffffffff02191690836fffffffffffffffffffffffffffffffff16021790555060208201518160000160106101000a8154816fffffffffffffffffffffffffffffffff02191690836fffffffffffffffffffffffffffffffff160217905550905050809450505050505b919050565b6000828211156120cb576040517f08c379a000000000000000000000000000000000000000000000000000000000815260040180806020018281038252601e8152602001807f536166654d6174683a207375627472616374696f6e206f766572666c6f77000081525060200191505060405180910390fd5b818303905092915050565b60006e010000000000000000000000000000821061213f576040517f08c379a00000000000000000000000000000000000000000000000000000000081526004018080602001828103825260298152602001806128a06029913960400191505060405180910390fd5b819050919050565b600033905090565b60008083141561216257600090506121cf565b600082840290508284828161217357fe5b04146121ca576040517f08c379a000000000000000000000000000000000000000000000000000000000815260040180806020018281038252602181526020018061287f6021913960400191505060405180910390fd5b809150505b92915050565b6000806121f3670de0b6b3a76400008561266d90919063ffffffff16565b905061220883826126f390919063ffffffff16565b90508091505092915050565b600080828401905083811015612292576040517f08c379a000000000000000000000000000000000000000000000000000000000815260040180806020018281038252601b8152602001807f536166654d6174683a206164646974696f6e206f766572666c6f77000000000081525060200191505060405180910390fd5b8091505092915050565b600064010000000082106122fb576040517f08c379a00000000000000000000000000000000000000000000000000000000081526004018080602001828103825260268152602001806128c96026913960400191505060405180910390fd5b819050919050565b600080823b905060008111915050919050565b600060019054906101000a900460ff16806123355750612334611b8d565b5b8061234b575060008054906101000a900460ff16155b6123a0576040517f08c379a000000000000000000000000000000000000000000000000000000000815260040180806020018281038252602e815260200180612851602e913960400191505060405180910390fd5b60008060019054906101000a900460ff1615905080156123f0576001600060016101000a81548160ff02191690831515021790555060016000806101000a81548160ff0219169083151502179055505b80156124115760008060016101000a81548160ff0219169083151502179055505b50565b600060019054906101000a900460ff16806124335750612432611b8d565b5b80612449575060008054906101000a900460ff16155b61249e576040517f08c379a000000000000000000000000000000000000000000000000000000000815260040180806020018281038252602e815260200180612851602e913960400191505060405180910390fd5b60008060019054906101000a900460ff1615905080156124ee576001600060016101000a81548160ff02191690831515021790555060016000806101000a81548160ff0219169083151502179055505b60006124f8612147565b905080603360006101000a81548173ffffffffffffffffffffffffffffffffffffffff021916908373ffffffffffffffffffffffffffffffffffffffff1602179055508073ffffffffffffffffffffffffffffffffffffffff16600073ffffffffffffffffffffffffffffffffffffffff167f8be0079c531659141344cd1fd0a4f28419497f9722a3daafe3b4186f6b6457e060405160405180910390a35080156125b85760008060016101000a81548160ff0219169083151502179055505b50565b6000806125d1848461266d90919063ffffffff16565b90506125ee670de0b6b3a7640000826126f390919063ffffffff16565b90508091505092915050565b60007001000000000000000000000000000000008210612665576040517f08c379a000000000000000000000000000000000000000000000000000000000815260040180806020018281038252602781526020018061282a6027913960400191505060405180910390fd5b819050919050565b60008083141561268057600090506126ed565b600082840290508284828161269157fe5b04146126e8576040517f08c379a000000000000000000000000000000000000000000000000000000000815260040180806020018281038252602181526020018061287f6021913960400191505060405180910390fd5b809150505b92915050565b600061273583836040518060400160405280601a81526020017f536166654d6174683a206469766973696f6e206279207a65726f00000000000081525061273d565b905092915050565b600080831182906127e9576040517f08c379a00000000000000000000000000000000000000000000000000000000081526004018080602001828103825283818151815260200191508051906020019080838360005b838110156127ae578082015181840152602081019050612793565b50505050905090810190601f1680156127db5780820380516001836020036101000a031916815260200191505b509250505060405180910390fd5b5060008385816127f557fe5b04905080915050939250505056fe4f776e61626c653a206e6577206f776e657220697320746865207a65726f206164647265737353616665436173743a2076616c756520646f65736e27742066697420696e203132382062697473496e697469616c697a61626c653a20636f6e747261637420697320616c726561647920696e697469616c697a6564536166654d6174683a206d756c7469706c69636174696f6e206f766572666c6f7753616665436173743a2076616c756520646f65736e27742066697420696e20616e2075696e7431313253616665436173743a2076616c756520646f65736e27742066697420696e2033322062697473a2646970667358221220def15bbccaff54cbd5afe4e5a03168ee4b36ecdc26847192b209534051f8ef7364736f6c634300060c0033",
  "linkReferences": {},
  "deployedLinkReferences": {}
}