{
  "_format": "hh-sol-artifact-1",
  "contractName": "PeriodicPrizeStrategyHarness",
  "sourceName": "contracts/test/PeriodicPrizeStrategyHarness.sol",
  "abi": [
    {
      "anonymous": false,
      "inputs": [
        {
          "indexed": true,
          "internalType": "contract BeforeAwardListenerInterface",
          "name": "beforeAwardListener",
          "type": "address"
        }
      ],
      "name": "BeforeAwardListenerSet",
      "type": "event"
    },
    {
      "anonymous": false,
      "inputs": [
        {
          "indexed": true,
          "internalType": "contract IERC20Upgradeable",
          "name": "externalErc20",
          "type": "address"
        }
      ],
      "name": "ExternalErc20AwardAdded",
      "type": "event"
    },
    {
      "anonymous": false,
      "inputs": [
        {
          "indexed": true,
          "internalType": "contract IERC20Upgradeable",
          "name": "externalErc20Award",
          "type": "address"
        }
      ],
      "name": "ExternalErc20AwardRemoved",
      "type": "event"
    },
    {
      "anonymous": false,
      "inputs": [
        {
          "indexed": true,
          "internalType": "contract IERC721Upgradeable",
          "name": "externalErc721",
          "type": "address"
        },
        {
          "indexed": false,
          "internalType": "uint256[]",
          "name": "tokenIds",
          "type": "uint256[]"
        }
      ],
      "name": "ExternalErc721AwardAdded",
      "type": "event"
    },
    {
      "anonymous": false,
      "inputs": [
        {
          "indexed": true,
          "internalType": "contract IERC721Upgradeable",
          "name": "externalErc721Award",
          "type": "address"
        }
      ],
      "name": "ExternalErc721AwardRemoved",
      "type": "event"
    },
    {
      "anonymous": false,
      "inputs": [
        {
          "indexed": false,
          "internalType": "uint256",
          "name": "prizePeriodStart",
          "type": "uint256"
        },
        {
          "indexed": false,
          "internalType": "uint256",
          "name": "prizePeriodSeconds",
          "type": "uint256"
        },
        {
          "indexed": true,
          "internalType": "contract PrizePool",
          "name": "prizePool",
          "type": "address"
        },
        {
          "indexed": false,
          "internalType": "contract TicketInterface",
          "name": "ticket",
          "type": "address"
        },
        {
          "indexed": false,
          "internalType": "contract IERC20Upgradeable",
          "name": "sponsorship",
          "type": "address"
        },
        {
          "indexed": false,
          "internalType": "contract IERC20Upgradeable[]",
          "name": "externalErc20Awards",
          "type": "address[]"
        }
      ],
      "name": "Initialized",
      "type": "event"
    },
    {
      "anonymous": false,
      "inputs": [
        {
          "indexed": true,
          "internalType": "address",
          "name": "previousOwner",
          "type": "address"
        },
        {
          "indexed": true,
          "internalType": "address",
          "name": "newOwner",
          "type": "address"
        }
      ],
      "name": "OwnershipTransferred",
      "type": "event"
    },
    {
      "anonymous": false,
      "inputs": [
        {
          "indexed": true,
          "internalType": "contract PeriodicPrizeStrategyListenerInterface",
          "name": "periodicPrizeStrategyListener",
          "type": "address"
        }
      ],
      "name": "PeriodicPrizeStrategyListenerSet",
      "type": "event"
    },
    {
      "anonymous": false,
      "inputs": [
        {
          "indexed": false,
          "internalType": "uint256",
          "name": "prizePeriodSeconds",
          "type": "uint256"
        }
      ],
      "name": "PrizePeriodSecondsUpdated",
      "type": "event"
    },
    {
      "anonymous": false,
      "inputs": [
        {
          "indexed": true,
          "internalType": "address",
          "name": "operator",
          "type": "address"
        },
        {
          "indexed": true,
          "internalType": "address",
          "name": "prizePool",
          "type": "address"
        },
        {
          "indexed": true,
          "internalType": "uint32",
          "name": "rngRequestId",
          "type": "uint32"
        },
        {
          "indexed": false,
          "internalType": "uint32",
          "name": "rngLockBlock",
          "type": "uint32"
        }
      ],
      "name": "PrizePoolAwardCancelled",
      "type": "event"
    },
    {
      "anonymous": false,
      "inputs": [
        {
          "indexed": true,
          "internalType": "address",
          "name": "operator",
          "type": "address"
        },
        {
          "indexed": true,
          "internalType": "address",
          "name": "prizePool",
          "type": "address"
        },
        {
          "indexed": true,
          "internalType": "uint32",
          "name": "rngRequestId",
          "type": "uint32"
        },
        {
          "indexed": false,
          "internalType": "uint32",
          "name": "rngLockBlock",
          "type": "uint32"
        }
      ],
      "name": "PrizePoolAwardStarted",
      "type": "event"
    },
    {
      "anonymous": false,
      "inputs": [
        {
          "indexed": true,
          "internalType": "address",
          "name": "operator",
          "type": "address"
        },
        {
          "indexed": false,
          "internalType": "uint256",
          "name": "randomNumber",
          "type": "uint256"
        }
      ],
      "name": "PrizePoolAwarded",
      "type": "event"
    },
    {
      "anonymous": false,
      "inputs": [
        {
          "indexed": true,
          "internalType": "address",
          "name": "operator",
          "type": "address"
        },
        {
          "indexed": true,
          "internalType": "uint256",
          "name": "prizePeriodStartedAt",
          "type": "uint256"
        }
      ],
      "name": "PrizePoolOpened",
      "type": "event"
    },
    {
      "anonymous": false,
      "inputs": [
        {
          "indexed": false,
          "internalType": "uint32",
          "name": "rngRequestTimeout",
          "type": "uint32"
        }
      ],
      "name": "RngRequestTimeoutSet",
      "type": "event"
    },
    {
      "anonymous": false,
      "inputs": [
        {
          "indexed": true,
          "internalType": "contract TokenListenerInterface",
          "name": "tokenListener",
          "type": "address"
        }
      ],
      "name": "TokenListenerUpdated",
      "type": "event"
    },
    {
      "inputs": [],
      "name": "VERSION",
      "outputs": [
        {
          "internalType": "string",
          "name": "",
          "type": "string"
        }
      ],
      "stateMutability": "view",
      "type": "function"
    },
    {
      "inputs": [
        {
          "internalType": "contract IERC20Upgradeable",
          "name": "_externalErc20",
          "type": "address"
        }
      ],
      "name": "addExternalErc20Award",
      "outputs": [],
      "stateMutability": "nonpayable",
      "type": "function"
    },
    {
      "inputs": [
        {
          "internalType": "contract IERC20Upgradeable[]",
          "name": "_externalErc20s",
          "type": "address[]"
        }
      ],
      "name": "addExternalErc20Awards",
      "outputs": [],
      "stateMutability": "nonpayable",
      "type": "function"
    },
    {
      "inputs": [
        {
          "internalType": "contract IERC721Upgradeable",
          "name": "_externalErc721",
          "type": "address"
        },
        {
          "internalType": "uint256[]",
          "name": "_tokenIds",
          "type": "uint256[]"
        }
      ],
      "name": "addExternalErc721Award",
      "outputs": [],
      "stateMutability": "nonpayable",
      "type": "function"
    },
    {
      "inputs": [],
      "name": "beforeAwardListener",
      "outputs": [
        {
          "internalType": "contract BeforeAwardListenerInterface",
          "name": "",
          "type": "address"
        }
      ],
      "stateMutability": "view",
      "type": "function"
    },
    {
      "inputs": [
        {
          "internalType": "address",
          "name": "to",
          "type": "address"
        },
        {
          "internalType": "uint256",
          "name": "amount",
          "type": "uint256"
        },
        {
          "internalType": "address",
          "name": "controlledToken",
          "type": "address"
        },
        {
          "internalType": "address",
          "name": "referrer",
          "type": "address"
        }
      ],
      "name": "beforeTokenMint",
      "outputs": [],
      "stateMutability": "nonpayable",
      "type": "function"
    },
    {
      "inputs": [
        {
          "internalType": "address",
          "name": "from",
          "type": "address"
        },
        {
          "internalType": "address",
          "name": "to",
          "type": "address"
        },
        {
          "internalType": "uint256",
          "name": "amount",
          "type": "uint256"
        },
        {
          "internalType": "address",
          "name": "controlledToken",
          "type": "address"
        }
      ],
      "name": "beforeTokenTransfer",
      "outputs": [],
      "stateMutability": "nonpayable",
      "type": "function"
    },
    {
      "inputs": [
        {
          "internalType": "uint256",
          "name": "currentTime",
          "type": "uint256"
        }
      ],
      "name": "calculateNextPrizePeriodStartTime",
      "outputs": [
        {
          "internalType": "uint256",
          "name": "",
          "type": "uint256"
        }
      ],
      "stateMutability": "view",
      "type": "function"
    },
    {
      "inputs": [],
      "name": "canStartAward",
      "outputs": [
        {
          "internalType": "bool",
          "name": "",
          "type": "bool"
        }
      ],
      "stateMutability": "view",
      "type": "function"
    },
    {
      "inputs": [],
      "name": "completeAward",
      "outputs": [],
      "stateMutability": "nonpayable",
      "type": "function"
    },
    {
      "inputs": [],
      "name": "currentPrize",
      "outputs": [
        {
          "internalType": "uint256",
          "name": "",
          "type": "uint256"
        }
      ],
      "stateMutability": "view",
      "type": "function"
    },
    {
      "inputs": [
        {
          "internalType": "uint256",
          "name": "secondsPerBlockMantissa",
          "type": "uint256"
        }
      ],
      "name": "estimateRemainingBlocksToPrize",
      "outputs": [
        {
          "internalType": "uint256",
          "name": "",
          "type": "uint256"
        }
      ],
      "stateMutability": "view",
      "type": "function"
    },
    {
      "inputs": [
        {
          "internalType": "contract BeforeAwardListenerInterface",
          "name": "listener",
          "type": "address"
        }
      ],
      "name": "forceBeforeAwardListener",
      "outputs": [],
      "stateMutability": "nonpayable",
      "type": "function"
    },
    {
      "inputs": [],
      "name": "getExternalErc20Awards",
      "outputs": [
        {
          "internalType": "address[]",
          "name": "",
          "type": "address[]"
        }
      ],
      "stateMutability": "view",
      "type": "function"
    },
    {
      "inputs": [
        {
          "internalType": "contract IERC721Upgradeable",
          "name": "_externalErc721",
          "type": "address"
        }
      ],
      "name": "getExternalErc721AwardTokenIds",
      "outputs": [
        {
          "internalType": "uint256[]",
          "name": "",
          "type": "uint256[]"
        }
      ],
      "stateMutability": "view",
      "type": "function"
    },
    {
      "inputs": [],
      "name": "getExternalErc721Awards",
      "outputs": [
        {
          "internalType": "address[]",
          "name": "",
          "type": "address[]"
        }
      ],
      "stateMutability": "view",
      "type": "function"
    },
    {
      "inputs": [
        {
          "internalType": "uint256",
          "name": "_prizePeriodStart",
          "type": "uint256"
        },
        {
          "internalType": "uint256",
          "name": "_prizePeriodSeconds",
          "type": "uint256"
        },
        {
          "internalType": "contract PrizePool",
          "name": "_prizePool",
          "type": "address"
        },
        {
          "internalType": "contract TicketInterface",
          "name": "_ticket",
          "type": "address"
        },
        {
          "internalType": "contract IERC20Upgradeable",
          "name": "_sponsorship",
          "type": "address"
        },
        {
          "internalType": "contract IERC20Upgradeable[]",
          "name": "externalErc20Awards",
          "type": "address[]"
        }
      ],
      "name": "initialize",
      "outputs": [],
      "stateMutability": "nonpayable",
      "type": "function"
    },
    {
      "inputs": [],
      "name": "isPrizePeriodOver",
      "outputs": [
        {
          "internalType": "bool",
          "name": "",
          "type": "bool"
        }
      ],
      "stateMutability": "view",
      "type": "function"
    },
    {
      "inputs": [],
      "name": "isRngTimedOut",
      "outputs": [
        {
          "internalType": "bool",
          "name": "",
          "type": "bool"
        }
      ],
      "stateMutability": "view",
      "type": "function"
    },
    {
      "inputs": [],
      "name": "owner",
      "outputs": [
        {
          "internalType": "address",
          "name": "",
          "type": "address"
        }
      ],
      "stateMutability": "view",
      "type": "function"
    },
    {
      "inputs": [],
      "name": "periodicPrizeStrategyListener",
      "outputs": [
        {
          "internalType": "contract PeriodicPrizeStrategyListenerInterface",
          "name": "",
          "type": "address"
        }
      ],
      "stateMutability": "view",
      "type": "function"
    },
    {
      "inputs": [],
      "name": "prizePeriodEndAt",
      "outputs": [
        {
          "internalType": "uint256",
          "name": "",
          "type": "uint256"
        }
      ],
      "stateMutability": "view",
      "type": "function"
    },
    {
      "inputs": [],
      "name": "prizePeriodRemainingSeconds",
      "outputs": [
        {
          "internalType": "uint256",
          "name": "",
          "type": "uint256"
        }
      ],
      "stateMutability": "view",
      "type": "function"
    },
    {
      "inputs": [],
      "name": "prizePeriodSeconds",
      "outputs": [
        {
          "internalType": "uint256",
          "name": "",
          "type": "uint256"
        }
      ],
      "stateMutability": "view",
      "type": "function"
    },
    {
      "inputs": [],
      "name": "prizePeriodStartedAt",
      "outputs": [
        {
          "internalType": "uint256",
          "name": "",
          "type": "uint256"
        }
      ],
      "stateMutability": "view",
      "type": "function"
    },
    {
      "inputs": [],
      "name": "prizePool",
      "outputs": [
        {
          "internalType": "contract PrizePool",
          "name": "",
          "type": "address"
        }
      ],
      "stateMutability": "view",
      "type": "function"
    },
    {
      "inputs": [
        {
          "internalType": "contract IERC20Upgradeable",
          "name": "_externalErc20",
          "type": "address"
        },
        {
          "internalType": "contract IERC20Upgradeable",
          "name": "_prevExternalErc20",
          "type": "address"
        }
      ],
      "name": "removeExternalErc20Award",
      "outputs": [],
      "stateMutability": "nonpayable",
      "type": "function"
    },
    {
      "inputs": [
        {
          "internalType": "contract IERC721Upgradeable",
          "name": "_externalErc721",
          "type": "address"
        },
        {
          "internalType": "contract IERC721Upgradeable",
          "name": "_prevExternalErc721",
          "type": "address"
        }
      ],
      "name": "removeExternalErc721Award",
      "outputs": [],
      "stateMutability": "nonpayable",
      "type": "function"
    },
    {
      "inputs": [],
      "name": "renounceOwnership",
      "outputs": [],
      "stateMutability": "nonpayable",
      "type": "function"
    },
    {
      "inputs": [],
      "name": "rngRequestTimeout",
      "outputs": [
        {
          "internalType": "uint32",
          "name": "",
          "type": "uint32"
        }
      ],
      "stateMutability": "view",
      "type": "function"
    },
    {
      "inputs": [
        {
          "internalType": "contract BeforeAwardListenerInterface",
          "name": "_beforeAwardListener",
          "type": "address"
        }
      ],
      "name": "setBeforeAwardListener",
      "outputs": [],
      "stateMutability": "nonpayable",
      "type": "function"
    },
    {
      "inputs": [
        {
          "internalType": "uint256",
          "name": "_time",
          "type": "uint256"
        }
      ],
      "name": "setCurrentTime",
      "outputs": [],
      "stateMutability": "nonpayable",
      "type": "function"
    },
    {
      "inputs": [
        {
          "internalType": "contract PeriodicPrizeStrategyDistributorInterface",
          "name": "_distributor",
          "type": "address"
        }
      ],
      "name": "setDistributor",
      "outputs": [],
      "stateMutability": "nonpayable",
      "type": "function"
    },
    {
      "inputs": [
        {
          "internalType": "contract PeriodicPrizeStrategyListenerInterface",
          "name": "_periodicPrizeStrategyListener",
          "type": "address"
        }
      ],
      "name": "setPeriodicPrizeStrategyListener",
      "outputs": [],
      "stateMutability": "nonpayable",
      "type": "function"
    },
    {
      "inputs": [
        {
          "internalType": "uint256",
          "name": "_prizePeriodSeconds",
          "type": "uint256"
        }
      ],
      "name": "setPrizePeriodSeconds",
      "outputs": [],
      "stateMutability": "nonpayable",
      "type": "function"
    },
    {
      "inputs": [
        {
          "internalType": "uint32",
          "name": "requestId",
          "type": "uint32"
        },
        {
          "internalType": "uint32",
          "name": "lockBlock",
          "type": "uint32"
        }
      ],
      "name": "setRngRequest",
      "outputs": [],
      "stateMutability": "nonpayable",
      "type": "function"
    },
    {
      "inputs": [
        {
          "internalType": "contract TokenListenerInterface",
          "name": "_tokenListener",
          "type": "address"
        }
      ],
      "name": "setTokenListener",
      "outputs": [],
      "stateMutability": "nonpayable",
      "type": "function"
    },
    {
      "inputs": [],
      "name": "sponsorship",
      "outputs": [
        {
          "internalType": "contract IERC20Upgradeable",
          "name": "",
          "type": "address"
        }
      ],
      "stateMutability": "view",
      "type": "function"
    },
    {
      "inputs": [
        {
          "internalType": "bytes4",
          "name": "interfaceId",
          "type": "bytes4"
        }
      ],
      "name": "supportsInterface",
      "outputs": [
        {
          "internalType": "bool",
          "name": "",
          "type": "bool"
        }
      ],
      "stateMutability": "view",
      "type": "function"
    },
    {
      "inputs": [],
      "name": "ticket",
      "outputs": [
        {
          "internalType": "contract TicketInterface",
          "name": "",
          "type": "address"
        }
      ],
      "stateMutability": "view",
      "type": "function"
    },
    {
      "inputs": [],
      "name": "tokenListener",
      "outputs": [
        {
          "internalType": "contract TokenListenerInterface",
          "name": "",
          "type": "address"
        }
      ],
      "stateMutability": "view",
      "type": "function"
    },
    {
      "inputs": [
        {
          "internalType": "address",
          "name": "newOwner",
          "type": "address"
        }
      ],
      "name": "transferOwnership",
      "outputs": [],
      "stateMutability": "nonpayable",
      "type": "function"
    },
    {
      "inputs": [],
      "name": "vrf",
      "outputs": [
        {
          "internalType": "bytes32",
          "name": "result",
          "type": "bytes32"
        }
      ],
      "stateMutability": "view",
      "type": "function"
    }
  ],
  "bytecode": "0x608060405234801561001057600080fd5b50615659806100206000396000f3fe608060405234801561001057600080fd5b50600436106102695760003560e01c806372f33ea911610151578063b0244682116100c3578063d5ad6bf611610087578063d5ad6bf614610c26578063dfb2f13b14610c44578063f210a9f314610c4e578063f2fde38b14610c92578063f48af35214610cd6578063ffa1ad7414610e0257610269565b8063b024468214610a49578063b221095714610aad578063c2f19ee814610b3b578063c42b42a014610b6f578063c48ddbcb14610b8d57610269565b80638aa3ec6f116101155780638aa3ec6f146108d65780638da5cb5b1461091a57806394144c6b1461094e5780639417783f1461096c57806395e5f9ee14610a05578063acca5b9514610a2557610269565b806372f33ea914610806578063738bbea81461082457806375619ab514610844578063876f5c7e14610888578063884a4448146108a857610269565b80634e5d08e0116101ea57806366968221116101ae5780636696822114610683578063671137c4146106fc5780636be51c4f146107605780636cc25db714610794578063715018a6146107c8578063719ce73e146107d257610269565b80634e5d08e014610524578063500db70d14610568578063605e25ac1461059c57806362c77a61146105e0578063642d43db1461063f57610269565b80632c8fe73d116102315780632c8fe73d1461039357806330fcdf41146103b157806342d09209146103f557806347bed998146104545780634d7f3db01461049657610269565b806301b48e341461026e57806301ffc9a7146102b05780630c949043146103135780630d847fc41461033157806322f8e56614610365575b600080fd5b61029a6004803603602081101561028457600080fd5b8101908080359060200190929190505050610e85565b6040518082815260200191505060405180910390f35b6102fb600480360360208110156102c657600080fd5b8101908080357bffffffffffffffffffffffffffffffffffffffffffffffffffffffff19169060200190929190505050610e9f565b60405180821515815260200191505060405180910390f35b61031b610f3f565b6040518082815260200191505060405180910390f35b610339610f60565b604051808273ffffffffffffffffffffffffffffffffffffffff16815260200191505060405180910390f35b6103916004803603602081101561037b57600080fd5b8101908080359060200190929190505050610f86565b005b61039b610f90565b6040518082815260200191505060405180910390f35b6103f3600480360360208110156103c757600080fd5b81019080803573ffffffffffffffffffffffffffffffffffffffff169060200190929190505050610f9f565b005b6103fd611199565b6040518080602001828103825283818151815260200191508051906020019060200280838360005b83811015610440578082015181840152602081019050610425565b505050509050019250505060405180910390f35b6104806004803603602081101561046a57600080fd5b81019080803590602001909291905050506111aa565b6040518082815260200191505060405180910390f35b610522600480360360808110156104ac57600080fd5b81019080803573ffffffffffffffffffffffffffffffffffffffff16906020019092919080359060200190929190803573ffffffffffffffffffffffffffffffffffffffff169060200190929190803573ffffffffffffffffffffffffffffffffffffffff1690602001909291905050506111bc565b005b6105666004803603602081101561053a57600080fd5b81019080803573ffffffffffffffffffffffffffffffffffffffff16906020019092919050505061140c565b005b610570611570565b604051808273ffffffffffffffffffffffffffffffffffffffff16815260200191505060405180910390f35b6105de600480360360208110156105b257600080fd5b81019080803573ffffffffffffffffffffffffffffffffffffffff169060200190929190505050611596565b005b6105e86117b2565b6040518080602001828103825283818151815260200191508051906020019060200280838360005b8381101561062b578082015181840152602081019050610610565b505050509050019250505060405180910390f35b6106816004803603604081101561065557600080fd5b81019080803563ffffffff169060200190929190803563ffffffff1690602001909291905050506117c3565b005b6106fa6004803603602081101561069957600080fd5b81019080803590602001906401000000008111156106b657600080fd5b8201836020820111156106c857600080fd5b803590602001918460208302840111640100000000831117156106ea57600080fd5b909192939192939050505061180f565b005b61075e6004803603604081101561071257600080fd5b81019080803573ffffffffffffffffffffffffffffffffffffffff169060200190929190803573ffffffffffffffffffffffffffffffffffffffff1690602001909291905050506119b8565b005b610768611a92565b604051808273ffffffffffffffffffffffffffffffffffffffff16815260200191505060405180910390f35b61079c611ab8565b604051808273ffffffffffffffffffffffffffffffffffffffff16815260200191505060405180910390f35b6107d0611ade565b005b6107da611c4e565b604051808273ffffffffffffffffffffffffffffffffffffffff16815260200191505060405180910390f35b61080e611c74565b6040518082815260200191505060405180910390f35b61082c611c7a565b60405180821515815260200191505060405180910390f35b6108866004803603602081101561085a57600080fd5b81019080803573ffffffffffffffffffffffffffffffffffffffff169060200190929190505050611cfd565b005b610890611d41565b60405180821515815260200191505060405180910390f35b6108d4600480360360208110156108be57600080fd5b8101908080359060200190929190505050611d50565b005b610918600480360360208110156108ec57600080fd5b81019080803573ffffffffffffffffffffffffffffffffffffffff169060200190929190505050611e13565b005b61092261200d565b604051808273ffffffffffffffffffffffffffffffffffffffff16815260200191505060405180910390f35b610956612037565b6040518082815260200191505060405180910390f35b6109ae6004803603602081101561098257600080fd5b81019080803573ffffffffffffffffffffffffffffffffffffffff16906020019092919050505061203d565b6040518080602001828103825283818151815260200191508051906020019060200280838360005b838110156109f15780820151818401526020810190506109d6565b505050509050019250505060405180910390f35b610a0d6120d4565b60405180821515815260200191505060405180910390f35b610a2d6120e3565b604051808263ffffffff16815260200191505060405180910390f35b610aab60048036036040811015610a5f57600080fd5b81019080803573ffffffffffffffffffffffffffffffffffffffff169060200190929190803573ffffffffffffffffffffffffffffffffffffffff1690602001909291905050506120f9565b005b610b3960048036036080811015610ac357600080fd5b81019080803573ffffffffffffffffffffffffffffffffffffffff169060200190929190803573ffffffffffffffffffffffffffffffffffffffff16906020019092919080359060200190929190803573ffffffffffffffffffffffffffffffffffffffff16906020019092919050505061220d565b005b610b436124e2565b604051808273ffffffffffffffffffffffffffffffffffffffff16815260200191505060405180910390f35b610b77612508565b6040518082815260200191505060405180910390f35b610c2460048036036040811015610ba357600080fd5b81019080803573ffffffffffffffffffffffffffffffffffffffff16906020019092919080359060200190640100000000811115610be057600080fd5b820183602082011115610bf257600080fd5b80359060200191846020830284011164010000000083111715610c1457600080fd5b90919293919293905050506125b2565b005b610c2e61298f565b6040518082815260200191505060405180910390f35b610c4c61299e565b005b610c9060048036036020811015610c6457600080fd5b81019080803573ffffffffffffffffffffffffffffffffffffffff169060200190929190505050612c97565b005b610cd460048036036020811015610ca857600080fd5b81019080803573ffffffffffffffffffffffffffffffffffffffff169060200190929190505050612cdb565b005b610e00600480360360c0811015610cec57600080fd5b810190808035906020019092919080359060200190929190803573ffffffffffffffffffffffffffffffffffffffff169060200190929190803573ffffffffffffffffffffffffffffffffffffffff169060200190929190803573ffffffffffffffffffffffffffffffffffffffff16906020019092919080359060200190640100000000811115610d7d57600080fd5b820183602082011115610d8f57600080fd5b80359060200191846020830284011164010000000083111715610db157600080fd5b919080806020026020016040519081016040528093929190818152602001838360200280828437600081840152601f19601f820116905080830192505050505050509192919290505050612ed0565b005b610e0a613498565b6040518080602001828103825283818151815260200191508051906020019080838360005b83811015610e4a578082015181840152602081019050610e2f565b50505050905090810190601f168015610e775780820380516001836020036101000a031916815260200191505b509250505060405180910390f35b6000610e98610e926134d1565b83613518565b9050919050565b60006301ffc9a760e01b7bffffffffffffffffffffffffffffffffffffffffffffffffffffffff1916827bffffffffffffffffffffffffffffffffffffffffffffffffffffffff19161480610f38575063ff5e34e760e01b7bffffffffffffffffffffffffffffffffffffffffffffffffffffffff1916827bffffffffffffffffffffffffffffffffffffffffffffffffffffffff1916145b9050919050565b60008060405160208160208460ff600019fa610f5757fe5b80519250505090565b607260009054906101000a900473ffffffffffffffffffffffffffffffffffffffff1681565b8060758190555050565b6000610f9a613557565b905090565b610fa7613575565b73ffffffffffffffffffffffffffffffffffffffff16610fc561200d565b73ffffffffffffffffffffffffffffffffffffffff161461104e576040517f08c379a00000000000000000000000000000000000000000000000000000000081526004018080602001828103825260208152602001807f4f776e61626c653a2063616c6c6572206973206e6f7420746865206f776e657281525060200191505060405180910390fd5b61105661357d565b8073ffffffffffffffffffffffffffffffffffffffff16600073ffffffffffffffffffffffffffffffffffffffff1614806110bd57506110bc634cdf9c3e60e01b8273ffffffffffffffffffffffffffffffffffffffff1661362590919063ffffffff16565b5b611112576040517f08c379a00000000000000000000000000000000000000000000000000000000081526004018080602001828103825260318152602001806155006031913960400191505060405180910390fd5b80607260006101000a81548173ffffffffffffffffffffffffffffffffffffffff021916908373ffffffffffffffffffffffffffffffffffffffff1602179055508073ffffffffffffffffffffffffffffffffffffffff167fc4feff61630891ea2cb42a54fbe3ff2e65422f2ed17323ac6b65f4521112e87e60405160405180910390a250565b60606111a5606f61364a565b905090565b60006111b582613835565b9050919050565b606660009054906101000a900473ffffffffffffffffffffffffffffffffffffffff1673ffffffffffffffffffffffffffffffffffffffff166111fd613575565b73ffffffffffffffffffffffffffffffffffffffff1614611269576040517f08c379a000000000000000000000000000000000000000000000000000000000815260040180806020018281038252602581526020018061541a6025913960400191505060405180910390fd5b606760009054906101000a900473ffffffffffffffffffffffffffffffffffffffff1673ffffffffffffffffffffffffffffffffffffffff168273ffffffffffffffffffffffffffffffffffffffff1614156112c8576112c761357d565b5b600073ffffffffffffffffffffffffffffffffffffffff16606560009054906101000a900473ffffffffffffffffffffffffffffffffffffffff1673ffffffffffffffffffffffffffffffffffffffff161461140657606560009054906101000a900473ffffffffffffffffffffffffffffffffffffffff1673ffffffffffffffffffffffffffffffffffffffff16634d7f3db0858585856040518563ffffffff1660e01b8152600401808573ffffffffffffffffffffffffffffffffffffffff1681526020018481526020018373ffffffffffffffffffffffffffffffffffffffff1681526020018273ffffffffffffffffffffffffffffffffffffffff168152602001945050505050600060405180830381600087803b1580156113ed57600080fd5b505af1158015611401573d6000803e3d6000fd5b505050505b50505050565b61141461200d565b73ffffffffffffffffffffffffffffffffffffffff16611432613575565b73ffffffffffffffffffffffffffffffffffffffff1614806114a85750607360009054906101000a900473ffffffffffffffffffffffffffffffffffffffff1673ffffffffffffffffffffffffffffffffffffffff16611490613575565b73ffffffffffffffffffffffffffffffffffffffff16145b806115075750607260009054906101000a900473ffffffffffffffffffffffffffffffffffffffff1673ffffffffffffffffffffffffffffffffffffffff166114ef613575565b73ffffffffffffffffffffffffffffffffffffffff16145b61155c576040517f08c379a000000000000000000000000000000000000000000000000000000000815260040180806020018281038252602c815260200180615390602c913960400191505060405180910390fd5b61156461357d565b61156d81613894565b50565b606860009054906101000a900473ffffffffffffffffffffffffffffffffffffffff1681565b61159e613575565b73ffffffffffffffffffffffffffffffffffffffff166115bc61200d565b73ffffffffffffffffffffffffffffffffffffffff1614611645576040517f08c379a00000000000000000000000000000000000000000000000000000000081526004018080602001828103825260208152602001807f4f776e61626c653a2063616c6c6572206973206e6f7420746865206f776e657281525060200191505060405180910390fd5b61164d61357d565b8073ffffffffffffffffffffffffffffffffffffffff16600073ffffffffffffffffffffffffffffffffffffffff1614806116b457506116b363ff5e34e760e01b8273ffffffffffffffffffffffffffffffffffffffff1661362590919063ffffffff16565b5b611709576040517f08c379a000000000000000000000000000000000000000000000000000000000815260040180806020018281038252602c81526020018061533e602c913960400191505060405180910390fd5b80606560006101000a81548173ffffffffffffffffffffffffffffffffffffffff021916908373ffffffffffffffffffffffffffffffffffffffff160217905550606560009054906101000a900473ffffffffffffffffffffffffffffffffffffffff1673ffffffffffffffffffffffffffffffffffffffff167f9fc437aa70ad4ee5f33f6772bf338eed41e21b95435820817ab8b4df161ce4dd60405160405180910390a250565b60606117be606d61364a565b905090565b81606960000160006101000a81548163ffffffff021916908363ffffffff16021790555080606960000160046101000a81548163ffffffff021916908363ffffffff1602179055505050565b61181761200d565b73ffffffffffffffffffffffffffffffffffffffff16611835613575565b73ffffffffffffffffffffffffffffffffffffffff1614806118ab5750607360009054906101000a900473ffffffffffffffffffffffffffffffffffffffff1673ffffffffffffffffffffffffffffffffffffffff16611893613575565b73ffffffffffffffffffffffffffffffffffffffff16145b8061190a5750607260009054906101000a900473ffffffffffffffffffffffffffffffffffffffff1673ffffffffffffffffffffffffffffffffffffffff166118f2613575565b73ffffffffffffffffffffffffffffffffffffffff16145b61195f576040517f08c379a000000000000000000000000000000000000000000000000000000000815260040180806020018281038252602c815260200180615390602c913960400191505060405180910390fd5b61196761357d565b60005b828290508110156119b3576119a683838381811061198457fe5b9050602002013573ffffffffffffffffffffffffffffffffffffffff16613894565b808060010191505061196a565b505050565b6119c0613575565b73ffffffffffffffffffffffffffffffffffffffff166119de61200d565b73ffffffffffffffffffffffffffffffffffffffff1614611a67576040517f08c379a00000000000000000000000000000000000000000000000000000000081526004018080602001828103825260208152602001807f4f776e61626c653a2063616c6c6572206973206e6f7420746865206f776e657281525060200191505060405180910390fd5b611a6f61357d565b611a858183606f613c2b9092919063ffffffff16565b611a8e82613f63565b5050565b606560009054906101000a900473ffffffffffffffffffffffffffffffffffffffff1681565b606760009054906101000a900473ffffffffffffffffffffffffffffffffffffffff1681565b611ae6613575565b73ffffffffffffffffffffffffffffffffffffffff16611b0461200d565b73ffffffffffffffffffffffffffffffffffffffff1614611b8d576040517f08c379a00000000000000000000000000000000000000000000000000000000081526004018080602001828103825260208152602001807f4f776e61626c653a2063616c6c6572206973206e6f7420746865206f776e657281525060200191505060405180910390fd5b600073ffffffffffffffffffffffffffffffffffffffff16603360009054906101000a900473ffffffffffffffffffffffffffffffffffffffff1673ffffffffffffffffffffffffffffffffffffffff167f8be0079c531659141344cd1fd0a4f28419497f9722a3daafe3b4186f6b6457e060405160405180910390a36000603360006101000a81548173ffffffffffffffffffffffffffffffffffffffff021916908373ffffffffffffffffffffffffffffffffffffffff160217905550565b606660009054906101000a900473ffffffffffffffffffffffffffffffffffffffff1681565b606c5481565b600080606960000160089054906101000a900463ffffffff1663ffffffff161415611ca85760009050611cfa565b611cee606960000160089054906101000a900463ffffffff1663ffffffff16606a60009054906101000a900463ffffffff1663ffffffff16613ff490919063ffffffff16565b611cf661407c565b1190505b90565b80607460006101000a81548173ffffffffffffffffffffffffffffffffffffffff021916908373ffffffffffffffffffffffffffffffffffffffff16021790555050565b6000611d4b614086565b905090565b611d58613575565b73ffffffffffffffffffffffffffffffffffffffff16611d7661200d565b73ffffffffffffffffffffffffffffffffffffffff1614611dff576040517f08c379a00000000000000000000000000000000000000000000000000000000081526004018080602001828103825260208152602001807f4f776e61626c653a2063616c6c6572206973206e6f7420746865206f776e657281525060200191505060405180910390fd5b611e0761357d565b611e108161409f565b50565b611e1b613575565b73ffffffffffffffffffffffffffffffffffffffff16611e3961200d565b73ffffffffffffffffffffffffffffffffffffffff1614611ec2576040517f08c379a00000000000000000000000000000000000000000000000000000000081526004018080602001828103825260208152602001807f4f776e61626c653a2063616c6c6572206973206e6f7420746865206f776e657281525060200191505060405180910390fd5b611eca61357d565b8073ffffffffffffffffffffffffffffffffffffffff16600073ffffffffffffffffffffffffffffffffffffffff161480611f315750611f3063575072c660e01b8273ffffffffffffffffffffffffffffffffffffffff1661362590919063ffffffff16565b5b611f86576040517f08c379a00000000000000000000000000000000000000000000000000000000081526004018080602001828103825260338152602001806155816033913960400191505060405180910390fd5b80607360006101000a81548173ffffffffffffffffffffffffffffffffffffffff021916908373ffffffffffffffffffffffffffffffffffffffff1602179055508073ffffffffffffffffffffffffffffffffffffffff167fda05d50a3a1ec0ffab059f1d457ae59f68ccfb3ffbb4dad283c516f9103d584b60405160405180910390a250565b6000603360009054906101000a900473ffffffffffffffffffffffffffffffffffffffff16905090565b606b5481565b6060607160008373ffffffffffffffffffffffffffffffffffffffff1673ffffffffffffffffffffffffffffffffffffffff1681526020019081526020016000208054806020026020016040519081016040528092919081815260200182805480156120c857602002820191906000526020600020905b8154815260200190600101908083116120b4575b50505050509050919050565b60006120de614086565b905090565b606a60009054906101000a900463ffffffff1681565b612101613575565b73ffffffffffffffffffffffffffffffffffffffff1661211f61200d565b73ffffffffffffffffffffffffffffffffffffffff16146121a8576040517f08c379a00000000000000000000000000000000000000000000000000000000081526004018080602001828103825260208152602001807f4f776e61626c653a2063616c6c6572206973206e6f7420746865206f776e657281525060200191505060405180910390fd5b6121b061357d565b6121c68183606d613c2b9092919063ffffffff16565b8173ffffffffffffffffffffffffffffffffffffffff167f58982464497acdab11ad29d39907e076b0d3b8daf1d9b734174c7c3a2a0e8c7460405160405180910390a25050565b606660009054906101000a900473ffffffffffffffffffffffffffffffffffffffff1673ffffffffffffffffffffffffffffffffffffffff1661224e613575565b73ffffffffffffffffffffffffffffffffffffffff16146122ba576040517f08c379a000000000000000000000000000000000000000000000000000000000815260040180806020018281038252602581526020018061541a6025913960400191505060405180910390fd5b8273ffffffffffffffffffffffffffffffffffffffff168473ffffffffffffffffffffffffffffffffffffffff16141561233f576040517f08c379a000000000000000000000000000000000000000000000000000000000815260040180806020018281038252602681526020018061543f6026913960400191505060405180910390fd5b606760009054906101000a900473ffffffffffffffffffffffffffffffffffffffff1673ffffffffffffffffffffffffffffffffffffffff168173ffffffffffffffffffffffffffffffffffffffff16141561239e5761239d61357d565b5b600073ffffffffffffffffffffffffffffffffffffffff16606560009054906101000a900473ffffffffffffffffffffffffffffffffffffffff1673ffffffffffffffffffffffffffffffffffffffff16146124dc57606560009054906101000a900473ffffffffffffffffffffffffffffffffffffffff1673ffffffffffffffffffffffffffffffffffffffff1663b2210957858585856040518563ffffffff1660e01b8152600401808573ffffffffffffffffffffffffffffffffffffffff1681526020018473ffffffffffffffffffffffffffffffffffffffff1681526020018381526020018273ffffffffffffffffffffffffffffffffffffffff168152602001945050505050600060405180830381600087803b1580156124c357600080fd5b505af11580156124d7573d6000803e3d6000fd5b505050505b50505050565b607360009054906101000a900473ffffffffffffffffffffffffffffffffffffffff1681565b6000606660009054906101000a900473ffffffffffffffffffffffffffffffffffffffff1673ffffffffffffffffffffffffffffffffffffffff1663630665b46040518163ffffffff1660e01b815260040160206040518083038186803b15801561257257600080fd5b505afa158015612586573d6000803e3d6000fd5b505050506040513d602081101561259c57600080fd5b8101908080519060200190929190505050905090565b6125ba61200d565b73ffffffffffffffffffffffffffffffffffffffff166125d8613575565b73ffffffffffffffffffffffffffffffffffffffff16148061264e5750607360009054906101000a900473ffffffffffffffffffffffffffffffffffffffff1673ffffffffffffffffffffffffffffffffffffffff16612636613575565b73ffffffffffffffffffffffffffffffffffffffff16145b806126ad5750607260009054906101000a900473ffffffffffffffffffffffffffffffffffffffff1673ffffffffffffffffffffffffffffffffffffffff16612695613575565b73ffffffffffffffffffffffffffffffffffffffff16145b612702576040517f08c379a000000000000000000000000000000000000000000000000000000000815260040180806020018281038252602c815260200180615390602c913960400191505060405180910390fd5b61270a61357d565b606660009054906101000a900473ffffffffffffffffffffffffffffffffffffffff1673ffffffffffffffffffffffffffffffffffffffff16636a3fd4f9846040518263ffffffff1660e01b8152600401808273ffffffffffffffffffffffffffffffffffffffff16815260200191505060206040518083038186803b15801561279357600080fd5b505afa1580156127a7573d6000803e3d6000fd5b505050506040513d60208110156127bd57600080fd5b8101908080519060200190929190505050612823576040517f08c379a000000000000000000000000000000000000000000000000000000000815260040180806020018281038252602b815260200180615531602b913960400191505060405180910390fd5b6128536380ac58cd60e01b8473ffffffffffffffffffffffffffffffffffffffff1661362590919063ffffffff16565b6128a8576040517f08c379a000000000000000000000000000000000000000000000000000000000815260040180806020018281038252602481526020018061531a6024913960400191505060405180910390fd5b6128bc83606f61413b90919063ffffffff16565b6128d5576128d483606f61424990919063ffffffff16565b5b60005b8282905081101561290c576128ff848484848181106128f357fe5b9050602002013561459f565b80806001019150506128d8565b508273ffffffffffffffffffffffffffffffffffffffff167f51541dc4b4c08a16085809cccdc4cc77d8000b60fbb00142e57f236d84298675838360405180806020018281038252848482818152602001925060200280828437600081840152601f19601f820116905080830192505050935050505060405180910390a2505050565b60006129996134d1565b905090565b60006129a8610f3f565b60001c90506069600080820160006101000a81549063ffffffff02191690556000820160046101000a81549063ffffffff02191690556000820160086101000a81549063ffffffff02191690555050600073ffffffffffffffffffffffffffffffffffffffff16607260009054906101000a900473ffffffffffffffffffffffffffffffffffffffff1673ffffffffffffffffffffffffffffffffffffffff1614612ae557607260009054906101000a900473ffffffffffffffffffffffffffffffffffffffff1673ffffffffffffffffffffffffffffffffffffffff16634cdf9c3e82606c546040518363ffffffff1660e01b81526004018083815260200182815260200192505050600060405180830381600087803b158015612acc57600080fd5b505af1158015612ae0573d6000803e3d6000fd5b505050505b612aee81614842565b600073ffffffffffffffffffffffffffffffffffffffff16607360009054906101000a900473ffffffffffffffffffffffffffffffffffffffff1673ffffffffffffffffffffffffffffffffffffffff1614612bdc57607360009054906101000a900473ffffffffffffffffffffffffffffffffffffffff1673ffffffffffffffffffffffffffffffffffffffff1663575072c682606c546040518363ffffffff1660e01b81526004018083815260200182815260200192505050600060405180830381600087803b158015612bc357600080fd5b505af1158015612bd7573d6000803e3d6000fd5b505050505b612bec612be761407c565b613835565b606c81905550612bfa613575565b73ffffffffffffffffffffffffffffffffffffffff167f9c4163ece98173eab9a496c4db8bf3e2c8edcc5d2854377880597ccb858b7a9d826040518082815260200191505060405180910390a2606c54612c52613575565b73ffffffffffffffffffffffffffffffffffffffff167fc61852c20f0b03b31d782f3022f2bf20322ac17ce66c5349fb6e24740cdd645660405160405180910390a350565b80607260006101000a81548173ffffffffffffffffffffffffffffffffffffffff021916908373ffffffffffffffffffffffffffffffffffffffff16021790555050565b612ce3613575565b73ffffffffffffffffffffffffffffffffffffffff16612d0161200d565b73ffffffffffffffffffffffffffffffffffffffff1614612d8a576040517f08c379a00000000000000000000000000000000000000000000000000000000081526004018080602001828103825260208152602001807f4f776e61626c653a2063616c6c6572206973206e6f7420746865206f776e657281525060200191505060405180910390fd5b600073ffffffffffffffffffffffffffffffffffffffff168173ffffffffffffffffffffffffffffffffffffffff161415612e10576040517f08c379a000000000000000000000000000000000000000000000000000000000815260040180806020018281038252602681526020018061536a6026913960400191505060405180910390fd5b8073ffffffffffffffffffffffffffffffffffffffff16603360009054906101000a900473ffffffffffffffffffffffffffffffffffffffff1673ffffffffffffffffffffffffffffffffffffffff167f8be0079c531659141344cd1fd0a4f28419497f9722a3daafe3b4186f6b6457e060405160405180910390a380603360006101000a81548173ffffffffffffffffffffffffffffffffffffffff021916908373ffffffffffffffffffffffffffffffffffffffff16021790555050565b600060019054906101000a900460ff1680612eef5750612eee6148d2565b5b80612f05575060008054906101000a900460ff16155b612f5a576040517f08c379a000000000000000000000000000000000000000000000000000000000815260040180806020018281038252602e8152602001806154b1602e913960400191505060405180910390fd5b60008060019054906101000a900460ff161590508015612faa576001600060016101000a81548160ff02191690831515021790555060016000806101000a81548160ff0219169083151502179055505b600073ffffffffffffffffffffffffffffffffffffffff168573ffffffffffffffffffffffffffffffffffffffff161415613030576040517f08c379a00000000000000000000000000000000000000000000000000000000081526004018080602001828103825260298152602001806154656029913960400191505060405180910390fd5b600073ffffffffffffffffffffffffffffffffffffffff168473ffffffffffffffffffffffffffffffffffffffff1614156130b6576040517f08c379a000000000000000000000000000000000000000000000000000000000815260040180806020018281038252602581526020018061555c6025913960400191505060405180910390fd5b600073ffffffffffffffffffffffffffffffffffffffff168373ffffffffffffffffffffffffffffffffffffffff16141561313c576040517f08c379a000000000000000000000000000000000000000000000000000000000815260040180806020018281038252602a8152602001806153bc602a913960400191505060405180910390fd5b84606660006101000a81548173ffffffffffffffffffffffffffffffffffffffff021916908373ffffffffffffffffffffffffffffffffffffffff16021790555083606760006101000a81548173ffffffffffffffffffffffffffffffffffffffff021916908373ffffffffffffffffffffffffffffffffffffffff16021790555082606860006101000a81548173ffffffffffffffffffffffffffffffffffffffff021916908373ffffffffffffffffffffffffffffffffffffffff1602179055506132088661409f565b6132106148e3565b731820a4b7618bde71dce8cdc73aab6c95905fad2473ffffffffffffffffffffffffffffffffffffffff166329965a1d307fb281fc8c12954d22544db45de3159a39272895b169a852b314f9cc762e44c53b60001b306040518463ffffffff1660e01b8152600401808473ffffffffffffffffffffffffffffffffffffffff1681526020018381526020018273ffffffffffffffffffffffffffffffffffffffff1681526020019350505050600060405180830381600087803b1580156132d657600080fd5b505af11580156132ea573d6000803e3d6000fd5b505050506132f8606d6149f1565b60005b825181101561332d5761332083828151811061331357fe5b6020026020010151613894565b80806001019150506132fb565b5085606b8190555086606c81905550613346606f6149f1565b8473ffffffffffffffffffffffffffffffffffffffff167f08df3eb19fd45e75c3427461686799fdfd60a8c9a1d0880105960f65a513ce748888878787604051808681526020018581526020018473ffffffffffffffffffffffffffffffffffffffff1681526020018373ffffffffffffffffffffffffffffffffffffffff16815260200180602001828103825283818151815260200191508051906020019060200280838360005b8381101561340a5780820151818401526020810190506133ef565b50505050905001965050505050505060405180910390a2606c5461342c613575565b73ffffffffffffffffffffffffffffffffffffffff167fc61852c20f0b03b31d782f3022f2bf20322ac17ce66c5349fb6e24740cdd645660405160405180910390a3801561348f5760008060016101000a81548160ff0219169083151502179055505b50505050505050565b6040518060400160405280600581526020017f332e342e3100000000000000000000000000000000000000000000000000000081525081565b6000806134dc613557565b905060006134e861407c565b9050818111156134fd57600092505050613515565b6135108183614af090919063ffffffff16565b925050505b90565b60008061353684670de0b6b3a7640000614b7390919063ffffffff16565b905061354b8382614bf990919063ffffffff16565b90508091505092915050565b6000613570606b54606c54613ff490919063ffffffff16565b905090565b600033905090565b6000613587614c43565b90506000606960000160049054906101000a900463ffffffff1663ffffffff1614806135cd5750606960000160049054906101000a900463ffffffff1663ffffffff1681105b613622576040517f08c379a00000000000000000000000000000000000000000000000000000000081526004018080602001828103825260238152602001806155da6023913960400191505060405180910390fd5b50565b600061363083614c4b565b801561364257506136418383614c7f565b5b905092915050565b606080826000015467ffffffffffffffff8111801561366857600080fd5b506040519080825280602002602001820160405280156136975781602001602082028036833780820191505090505b509050600080846001016000600173ffffffffffffffffffffffffffffffffffffffff1673ffffffffffffffffffffffffffffffffffffffff16815260200190815260200160002060009054906101000a900473ffffffffffffffffffffffffffffffffffffffff1690505b600073ffffffffffffffffffffffffffffffffffffffff168173ffffffffffffffffffffffffffffffffffffffff161415801561376d5750600173ffffffffffffffffffffffffffffffffffffffff168173ffffffffffffffffffffffffffffffffffffffff1614155b1561382a578083838151811061377f57fe5b602002602001019073ffffffffffffffffffffffffffffffffffffffff16908173ffffffffffffffffffffffffffffffffffffffff16815250508460010160008273ffffffffffffffffffffffffffffffffffffffff1673ffffffffffffffffffffffffffffffffffffffff16815260200190815260200160002060009054906101000a900473ffffffffffffffffffffffffffffffffffffffff1690508180600101925050613703565b829350505050919050565b600080613861606b54613853606c5486614af090919063ffffffff16565b614ca690919063ffffffff16565b905061388c61387b606b5483614d2f90919063ffffffff16565b606c54613ff490919063ffffffff16565b915050919050565b6138b38173ffffffffffffffffffffffffffffffffffffffff16614db5565b613925576040517f08c379a00000000000000000000000000000000000000000000000000000000081526004018080602001828103825260208152602001807f506572696f6469635072697a6553747261746567792f65726332302d6e756c6c81525060200191505060405180910390fd5b606660009054906101000a900473ffffffffffffffffffffffffffffffffffffffff1673ffffffffffffffffffffffffffffffffffffffff16636a3fd4f9826040518263ffffffff1660e01b8152600401808273ffffffffffffffffffffffffffffffffffffffff16815260200191505060206040518083038186803b1580156139ae57600080fd5b505afa1580156139c2573d6000803e3d6000fd5b505050506040513d60208110156139d857600080fd5b8101908080519060200190929190505050613a3e576040517f08c379a000000000000000000000000000000000000000000000000000000000815260040180806020018281038252602b815260200180615531602b913960400191505060405180910390fd5b600060608273ffffffffffffffffffffffffffffffffffffffff166040516024016040516020818303038152906040527f18160ddd000000000000000000000000000000000000000000000000000000007bffffffffffffffffffffffffffffffffffffffffffffffffffffffff19166020820180517bffffffffffffffffffffffffffffffffffffffffffffffffffffffff83818316178352505050506040518082805190602001908083835b60208310613b0f5780518252602082019150602081019050602083039250613aec565b6001836020036101000a038019825116818451168082178552505050505050905001915050600060405180830381855afa9150503d8060008114613b6f576040519150601f19603f3d011682016040523d82523d6000602084013e613b74565b606091505b509150915081613bcf576040517f08c379a000000000000000000000000000000000000000000000000000000000815260040180806020018281038252602381526020018061548e6023913960400191505060405180910390fd5b613be383606d61424990919063ffffffff16565b8273ffffffffffffffffffffffffffffffffffffffff167fbcd6d991f3416e288bf59a2997b423772937b62c7ea7dd1a54af7771de1f741860405160405180910390a2505050565b600173ffffffffffffffffffffffffffffffffffffffff168173ffffffffffffffffffffffffffffffffffffffff1614158015613c955750600073ffffffffffffffffffffffffffffffffffffffff168173ffffffffffffffffffffffffffffffffffffffff1614155b613d07576040517f08c379a000000000000000000000000000000000000000000000000000000000815260040180806020018281038252600f8152602001807f496e76616c69642061646472657373000000000000000000000000000000000081525060200191505060405180910390fd5b8073ffffffffffffffffffffffffffffffffffffffff168360010160008473ffffffffffffffffffffffffffffffffffffffff1673ffffffffffffffffffffffffffffffffffffffff16815260200190815260200160002060009054906101000a900473ffffffffffffffffffffffffffffffffffffffff1673ffffffffffffffffffffffffffffffffffffffff1614613e09576040517f08c379a00000000000000000000000000000000000000000000000000000000081526004018080602001828103825260138152602001807f496e76616c69642070726576416464726573730000000000000000000000000081525060200191505060405180910390fd5b8260010160008273ffffffffffffffffffffffffffffffffffffffff1673ffffffffffffffffffffffffffffffffffffffff16815260200190815260200160002060009054906101000a900473ffffffffffffffffffffffffffffffffffffffff168360010160008473ffffffffffffffffffffffffffffffffffffffff1673ffffffffffffffffffffffffffffffffffffffff16815260200190815260200160002060006101000a81548173ffffffffffffffffffffffffffffffffffffffff021916908373ffffffffffffffffffffffffffffffffffffffff1602179055508260010160008273ffffffffffffffffffffffffffffffffffffffff1673ffffffffffffffffffffffffffffffffffffffff16815260200190815260200160002060006101000a81549073ffffffffffffffffffffffffffffffffffffffff021916905560018360000154038360000181905550505050565b607160008273ffffffffffffffffffffffffffffffffffffffff1673ffffffffffffffffffffffffffffffffffffffff1681526020019081526020016000206000613fae91906152db565b8073ffffffffffffffffffffffffffffffffffffffff167fcd64d9dacd230c5ccf1278ea5332b0621aa28c950fb0e61c8fbc9e2011c88a3460405160405180910390a250565b600080828401905083811015614072576040517f08c379a000000000000000000000000000000000000000000000000000000000815260040180806020018281038252601b8152602001807f536166654d6174683a206164646974696f6e206f766572666c6f77000000000081525060200191505060405180910390fd5b8091505092915050565b6000607554905090565b6000614090613557565b61409861407c565b1015905090565b600081116140f8576040517f08c379a00000000000000000000000000000000000000000000000000000000081526004018080602001828103825260348152602001806153e66034913960400191505060405180910390fd5b80606b819055507f0d379c1a7282461e725a9dc2d74e65246c77e98ae93835e26c2f1654c48ee4ec606b546040518082815260200191505060405180910390a150565b6000600173ffffffffffffffffffffffffffffffffffffffff168273ffffffffffffffffffffffffffffffffffffffff16141580156141a75750600073ffffffffffffffffffffffffffffffffffffffff168273ffffffffffffffffffffffffffffffffffffffff1614155b80156142415750600073ffffffffffffffffffffffffffffffffffffffff168360010160008473ffffffffffffffffffffffffffffffffffffffff1673ffffffffffffffffffffffffffffffffffffffff16815260200190815260200160002060009054906101000a900473ffffffffffffffffffffffffffffffffffffffff1673ffffffffffffffffffffffffffffffffffffffff1614155b905092915050565b600173ffffffffffffffffffffffffffffffffffffffff168173ffffffffffffffffffffffffffffffffffffffff16141580156142b35750600073ffffffffffffffffffffffffffffffffffffffff168173ffffffffffffffffffffffffffffffffffffffff1614155b614325576040517f08c379a000000000000000000000000000000000000000000000000000000000815260040180806020018281038252600f8152602001807f496e76616c69642061646472657373000000000000000000000000000000000081525060200191505060405180910390fd5b600073ffffffffffffffffffffffffffffffffffffffff168260010160008373ffffffffffffffffffffffffffffffffffffffff1673ffffffffffffffffffffffffffffffffffffffff16815260200190815260200160002060009054906101000a900473ffffffffffffffffffffffffffffffffffffffff1673ffffffffffffffffffffffffffffffffffffffff1614614428576040517f08c379a000000000000000000000000000000000000000000000000000000000815260040180806020018281038252600d8152602001807f416c72656164792061646465640000000000000000000000000000000000000081525060200191505060405180910390fd5b816001016000600173ffffffffffffffffffffffffffffffffffffffff1673ffffffffffffffffffffffffffffffffffffffff16815260200190815260200160002060009054906101000a900473ffffffffffffffffffffffffffffffffffffffff168260010160008373ffffffffffffffffffffffffffffffffffffffff1673ffffffffffffffffffffffffffffffffffffffff16815260200190815260200160002060006101000a81548173ffffffffffffffffffffffffffffffffffffffff021916908373ffffffffffffffffffffffffffffffffffffffff16021790555080826001016000600173ffffffffffffffffffffffffffffffffffffffff1673ffffffffffffffffffffffffffffffffffffffff16815260200190815260200160002060006101000a81548173ffffffffffffffffffffffffffffffffffffffff021916908373ffffffffffffffffffffffffffffffffffffffff160217905550600182600001540182600001819055505050565b606660009054906101000a900473ffffffffffffffffffffffffffffffffffffffff1673ffffffffffffffffffffffffffffffffffffffff168273ffffffffffffffffffffffffffffffffffffffff16636352211e836040518263ffffffff1660e01b81526004018082815260200191505060206040518083038186803b15801561462957600080fd5b505afa15801561463d573d6000803e3d6000fd5b505050506040513d602081101561465357600080fd5b810190808051906020019092919050505073ffffffffffffffffffffffffffffffffffffffff16146146d0576040517f08c379a00000000000000000000000000000000000000000000000000000000081526004018080602001828103825260278152602001806155fd6027913960400191505060405180910390fd5b60005b607160008473ffffffffffffffffffffffffffffffffffffffff1673ffffffffffffffffffffffffffffffffffffffff168152602001908152602001600020805490508110156147d75781607160008573ffffffffffffffffffffffffffffffffffffffff1673ffffffffffffffffffffffffffffffffffffffff168152602001908152602001600020828154811061476857fe5b906000526020600020015414156147ca576040517f08c379a00000000000000000000000000000000000000000000000000000000081526004018080602001828103825260268152602001806155b46026913960400191505060405180910390fd5b80806001019150506146d3565b50607160008373ffffffffffffffffffffffffffffffffffffffff1673ffffffffffffffffffffffffffffffffffffffff1681526020019081526020016000208190806001815401808255809150506001900390600052602060002001600090919091909150555050565b607460009054906101000a900473ffffffffffffffffffffffffffffffffffffffff1673ffffffffffffffffffffffffffffffffffffffff166391c05b0b826040518263ffffffff1660e01b815260040180828152602001915050600060405180830381600087803b1580156148b757600080fd5b505af11580156148cb573d6000803e3d6000fd5b5050505050565b60006148dd30614db5565b15905090565b600060019054906101000a900460ff168061490257506149016148d2565b5b80614918575060008054906101000a900460ff16155b61496d576040517f08c379a000000000000000000000000000000000000000000000000000000000815260040180806020018281038252602e8152602001806154b1602e913960400191505060405180910390fd5b60008060019054906101000a900460ff1615905080156149bd576001600060016101000a81548160ff02191690831515021790555060016000806101000a81548160ff0219169083151502179055505b6149c5614dc8565b6149cd614ec6565b80156149ee5760008060016101000a81548160ff0219169083151502179055505b50565b6000816000015414614a6b576040517f08c379a000000000000000000000000000000000000000000000000000000000815260040180806020018281038252600c8152602001807f416c726561647920696e6974000000000000000000000000000000000000000081525060200191505060405180910390fd5b6001816001016000600173ffffffffffffffffffffffffffffffffffffffff1673ffffffffffffffffffffffffffffffffffffffff16815260200190815260200160002060006101000a81548173ffffffffffffffffffffffffffffffffffffffff021916908373ffffffffffffffffffffffffffffffffffffffff16021790555050565b600082821115614b68576040517f08c379a000000000000000000000000000000000000000000000000000000000815260040180806020018281038252601e8152602001807f536166654d6174683a207375627472616374696f6e206f766572666c6f77000081525060200191505060405180910390fd5b818303905092915050565b600080831415614b865760009050614bf3565b6000828402905082848281614b9757fe5b0414614bee576040517f08c379a00000000000000000000000000000000000000000000000000000000081526004018080602001828103825260218152602001806154df6021913960400191505060405180910390fd5b809150505b92915050565b6000614c3b83836040518060400160405280601a81526020017f536166654d6174683a206469766973696f6e206279207a65726f00000000000081525061506d565b905092915050565b600043905090565b6000614c5e826301ffc9a760e01b614c7f565b8015614c785750614c768263ffffffff60e01b614c7f565b155b9050919050565b6000806000614c8e8585615133565b91509150818015614c9c5750805b9250505092915050565b6000808211614d1d576040517f08c379a000000000000000000000000000000000000000000000000000000000815260040180806020018281038252601a8152602001807f536166654d6174683a206469766973696f6e206279207a65726f00000000000081525060200191505060405180910390fd5b818381614d2657fe5b04905092915050565b600080831415614d425760009050614daf565b6000828402905082848281614d5357fe5b0414614daa576040517f08c379a00000000000000000000000000000000000000000000000000000000081526004018080602001828103825260218152602001806154df6021913960400191505060405180910390fd5b809150505b92915050565b600080823b905060008111915050919050565b600060019054906101000a900460ff1680614de75750614de66148d2565b5b80614dfd575060008054906101000a900460ff16155b614e52576040517f08c379a000000000000000000000000000000000000000000000000000000000815260040180806020018281038252602e8152602001806154b1602e913960400191505060405180910390fd5b60008060019054906101000a900460ff161590508015614ea2576001600060016101000a81548160ff02191690831515021790555060016000806101000a81548160ff0219169083151502179055505b8015614ec35760008060016101000a81548160ff0219169083151502179055505b50565b600060019054906101000a900460ff1680614ee55750614ee46148d2565b5b80614efb575060008054906101000a900460ff16155b614f50576040517f08c379a000000000000000000000000000000000000000000000000000000000815260040180806020018281038252602e8152602001806154b1602e913960400191505060405180910390fd5b60008060019054906101000a900460ff161590508015614fa0576001600060016101000a81548160ff02191690831515021790555060016000806101000a81548160ff0219169083151502179055505b6000614faa613575565b905080603360006101000a81548173ffffffffffffffffffffffffffffffffffffffff021916908373ffffffffffffffffffffffffffffffffffffffff1602179055508073ffffffffffffffffffffffffffffffffffffffff16600073ffffffffffffffffffffffffffffffffffffffff167f8be0079c531659141344cd1fd0a4f28419497f9722a3daafe3b4186f6b6457e060405160405180910390a350801561506a5760008060016101000a81548160ff0219169083151502179055505b50565b60008083118290615119576040517f08c379a00000000000000000000000000000000000000000000000000000000081526004018080602001828103825283818151815260200191508051906020019080838360005b838110156150de5780820151818401526020810190506150c3565b50505050905090810190601f16801561510b5780820380516001836020036101000a031916815260200191505b509250505060405180910390fd5b50600083858161512557fe5b049050809150509392505050565b60008060606301ffc9a760e01b8460405160240180827bffffffffffffffffffffffffffffffffffffffffffffffffffffffff19168152602001915050604051602081830303815290604052907bffffffffffffffffffffffffffffffffffffffffffffffffffffffff19166020820180517bffffffffffffffffffffffffffffffffffffffffffffffffffffffff83818316178352505050509050600060608673ffffffffffffffffffffffffffffffffffffffff16617530846040518082805190602001908083835b6020831061522157805182526020820191506020810190506020830392506151fe565b6001836020036101000a0380198251168184511680821785525050505050509050019150506000604051808303818686fa925050503d8060008114615282576040519150601f19603f3d011682016040523d82523d6000602084013e615287565b606091505b50915091506020815110156152a557600080945094505050506152d4565b818180602001905160208110156152bb57600080fd5b8101908080519060200190929190505050945094505050505b9250929050565b50805460008255906000526020600020908101906152f991906152fc565b50565b5b808211156153155760008160009055506001016152fd565b509056fe506572696f6469635072697a6553747261746567792f6572633732312d696e76616c6964506572696f6469635072697a6553747261746567792f746f6b656e2d6c697374656e65722d696e76616c69644f776e61626c653a206e6577206f776e657220697320746865207a65726f2061646472657373506572696f6469635072697a6553747261746567792f6f6e6c792d6f776e65722d6f722d6c697374656e6572506572696f6469635072697a6553747261746567792f73706f6e736f72736869702d6e6f742d7a65726f506572696f6469635072697a6553747261746567792f7072697a652d706572696f642d677265617465722d7468616e2d7a65726f506572696f6469635072697a6553747261746567792f6f6e6c792d7072697a652d706f6f6c506572696f6469635072697a6553747261746567792f7472616e736665722d746f2d73656c66506572696f6469635072697a6553747261746567792f7072697a652d706f6f6c2d6e6f742d7a65726f506572696f6469635072697a6553747261746567792f65726332302d696e76616c6964496e697469616c697a61626c653a20636f6e747261637420697320616c726561647920696e697469616c697a6564536166654d6174683a206d756c7469706c69636174696f6e206f766572666c6f77506572696f6469635072697a6553747261746567792f6265666f726541776172644c697374656e65722d696e76616c6964506572696f6469635072697a6553747261746567792f63616e6e6f742d61776172642d65787465726e616c506572696f6469635072697a6553747261746567792f7469636b65742d6e6f742d7a65726f506572696f6469635072697a6553747261746567792f7072697a6553747261746567794c697374656e65722d696e76616c6964506572696f6469635072697a6553747261746567792f6572633732312d6475706c6963617465506572696f6469635072697a6553747261746567792f726e672d696e2d666c69676874506572696f6469635072697a6553747261746567792f756e617661696c61626c652d746f6b656ea26469706673582212205cecde46bfe310c23a25484b9bcce5d9ea7960df0251daee2d00cc3e6e15f69f64736f6c634300060c0033",
  "linkReferences": {},
  "deployedLinkReferences": {}
}