{
  "_format": "hh-sol-artifact-1",
  "contractName": "PeriodicPrizeStrategyHarness",
  "sourceName": "contracts/test/PeriodicPrizeStrategyHarness.sol",
  "abi": [
    {
      "anonymous": false,
      "inputs": [
        {
          "indexed": true,
          "internalType": "contract BeforeAwardListenerInterface",
          "name": "beforeAwardListener",
          "type": "address"
        }
      ],
      "name": "BeforeAwardListenerSet",
      "type": "event"
    },
    {
      "anonymous": false,
      "inputs": [
        {
          "indexed": true,
          "internalType": "contract IERC20Upgradeable",
          "name": "externalErc20",
          "type": "address"
        }
      ],
      "name": "ExternalErc20AwardAdded",
      "type": "event"
    },
    {
      "anonymous": false,
      "inputs": [
        {
          "indexed": true,
          "internalType": "contract IERC20Upgradeable",
          "name": "externalErc20Award",
          "type": "address"
        }
      ],
      "name": "ExternalErc20AwardRemoved",
      "type": "event"
    },
    {
      "anonymous": false,
      "inputs": [
        {
          "indexed": true,
          "internalType": "contract IERC721Upgradeable",
          "name": "externalErc721",
          "type": "address"
        },
        {
          "indexed": false,
          "internalType": "uint256[]",
          "name": "tokenIds",
          "type": "uint256[]"
        }
      ],
      "name": "ExternalErc721AwardAdded",
      "type": "event"
    },
    {
      "anonymous": false,
      "inputs": [
        {
          "indexed": true,
          "internalType": "contract IERC721Upgradeable",
          "name": "externalErc721Award",
          "type": "address"
        }
      ],
      "name": "ExternalErc721AwardRemoved",
      "type": "event"
    },
    {
      "anonymous": false,
      "inputs": [
        {
          "indexed": false,
          "internalType": "uint256",
          "name": "prizePeriodStart",
          "type": "uint256"
        },
        {
          "indexed": false,
          "internalType": "uint256",
          "name": "prizePeriodSeconds",
          "type": "uint256"
        },
        {
          "indexed": true,
          "internalType": "contract PrizePool",
          "name": "prizePool",
          "type": "address"
        },
        {
          "indexed": false,
          "internalType": "contract TicketInterface",
          "name": "ticket",
          "type": "address"
        },
        {
          "indexed": false,
          "internalType": "contract IERC20Upgradeable",
          "name": "sponsorship",
          "type": "address"
        },
        {
          "indexed": false,
          "internalType": "contract IERC20Upgradeable[]",
          "name": "externalErc20Awards",
          "type": "address[]"
        }
      ],
      "name": "Initialized",
      "type": "event"
    },
    {
      "anonymous": false,
      "inputs": [
        {
          "indexed": true,
          "internalType": "address",
          "name": "previousOwner",
          "type": "address"
        },
        {
          "indexed": true,
          "internalType": "address",
          "name": "newOwner",
          "type": "address"
        }
      ],
      "name": "OwnershipTransferred",
      "type": "event"
    },
    {
      "anonymous": false,
      "inputs": [
        {
          "indexed": true,
          "internalType": "contract PeriodicPrizeStrategyListenerInterface",
          "name": "periodicPrizeStrategyListener",
          "type": "address"
        }
      ],
      "name": "PeriodicPrizeStrategyListenerSet",
      "type": "event"
    },
    {
      "anonymous": false,
      "inputs": [
        {
          "indexed": false,
          "internalType": "uint256",
          "name": "prizePeriodSeconds",
          "type": "uint256"
        }
      ],
      "name": "PrizePeriodSecondsUpdated",
      "type": "event"
    },
    {
      "anonymous": false,
      "inputs": [
        {
          "indexed": true,
          "internalType": "address",
          "name": "operator",
          "type": "address"
        },
        {
          "indexed": true,
          "internalType": "address",
          "name": "prizePool",
          "type": "address"
        }
      ],
      "name": "PrizePoolAwardCancelled",
      "type": "event"
    },
    {
      "anonymous": false,
      "inputs": [
        {
          "indexed": true,
          "internalType": "address",
          "name": "operator",
          "type": "address"
        },
        {
          "indexed": true,
          "internalType": "address",
          "name": "prizePool",
          "type": "address"
        }
      ],
      "name": "PrizePoolAwardStarted",
      "type": "event"
    },
    {
      "anonymous": false,
      "inputs": [
        {
          "indexed": true,
          "internalType": "address",
          "name": "operator",
          "type": "address"
        },
        {
          "indexed": false,
          "internalType": "uint256",
          "name": "randomNumber",
          "type": "uint256"
        }
      ],
      "name": "PrizePoolAwarded",
      "type": "event"
    },
    {
      "anonymous": false,
      "inputs": [
        {
          "indexed": true,
          "internalType": "address",
          "name": "operator",
          "type": "address"
        },
        {
          "indexed": true,
          "internalType": "uint256",
          "name": "prizePeriodStartedAt",
          "type": "uint256"
        }
      ],
      "name": "PrizePoolOpened",
      "type": "event"
    },
    {
      "anonymous": false,
      "inputs": [
        {
          "indexed": true,
          "internalType": "contract TokenListenerInterface",
          "name": "tokenListener",
          "type": "address"
        }
      ],
      "name": "TokenListenerUpdated",
      "type": "event"
    },
    {
      "inputs": [],
      "name": "VERSION",
      "outputs": [
        {
          "internalType": "string",
          "name": "",
          "type": "string"
        }
      ],
      "stateMutability": "view",
      "type": "function"
    },
    {
      "inputs": [
        {
          "internalType": "contract IERC20Upgradeable",
          "name": "_externalErc20",
          "type": "address"
        }
      ],
      "name": "addExternalErc20Award",
      "outputs": [],
      "stateMutability": "nonpayable",
      "type": "function"
    },
    {
      "inputs": [
        {
          "internalType": "contract IERC20Upgradeable[]",
          "name": "_externalErc20s",
          "type": "address[]"
        }
      ],
      "name": "addExternalErc20Awards",
      "outputs": [],
      "stateMutability": "nonpayable",
      "type": "function"
    },
    {
      "inputs": [
        {
          "internalType": "contract IERC721Upgradeable",
          "name": "_externalErc721",
          "type": "address"
        },
        {
          "internalType": "uint256[]",
          "name": "_tokenIds",
          "type": "uint256[]"
        }
      ],
      "name": "addExternalErc721Award",
      "outputs": [],
      "stateMutability": "nonpayable",
      "type": "function"
    },
    {
      "inputs": [],
      "name": "beforeAwardListener",
      "outputs": [
        {
          "internalType": "contract BeforeAwardListenerInterface",
          "name": "",
          "type": "address"
        }
      ],
      "stateMutability": "view",
      "type": "function"
    },
    {
      "inputs": [
        {
          "internalType": "address",
          "name": "to",
          "type": "address"
        },
        {
          "internalType": "uint256",
          "name": "amount",
          "type": "uint256"
        },
        {
          "internalType": "address",
          "name": "controlledToken",
          "type": "address"
        },
        {
          "internalType": "address",
          "name": "referrer",
          "type": "address"
        }
      ],
      "name": "beforeTokenMint",
      "outputs": [],
      "stateMutability": "nonpayable",
      "type": "function"
    },
    {
      "inputs": [
        {
          "internalType": "address",
          "name": "from",
          "type": "address"
        },
        {
          "internalType": "address",
          "name": "to",
          "type": "address"
        },
        {
          "internalType": "uint256",
          "name": "amount",
          "type": "uint256"
        },
        {
          "internalType": "address",
          "name": "controlledToken",
          "type": "address"
        }
      ],
      "name": "beforeTokenTransfer",
      "outputs": [],
      "stateMutability": "nonpayable",
      "type": "function"
    },
    {
      "inputs": [
        {
          "internalType": "uint256",
          "name": "currentTime",
          "type": "uint256"
        }
      ],
      "name": "calculateNextPrizePeriodStartTime",
      "outputs": [
        {
          "internalType": "uint256",
          "name": "",
          "type": "uint256"
        }
      ],
      "stateMutability": "view",
      "type": "function"
    },
    {
      "inputs": [],
      "name": "canStartAward",
      "outputs": [
        {
          "internalType": "bool",
          "name": "",
          "type": "bool"
        }
      ],
      "stateMutability": "view",
      "type": "function"
    },
    {
      "inputs": [],
      "name": "completeAward",
      "outputs": [],
      "stateMutability": "nonpayable",
      "type": "function"
    },
    {
      "inputs": [],
      "name": "currentPrize",
      "outputs": [
        {
          "internalType": "uint256",
          "name": "",
          "type": "uint256"
        }
      ],
      "stateMutability": "view",
      "type": "function"
    },
    {
      "inputs": [
        {
          "internalType": "uint256",
          "name": "secondsPerBlockMantissa",
          "type": "uint256"
        }
      ],
      "name": "estimateRemainingBlocksToPrize",
      "outputs": [
        {
          "internalType": "uint256",
          "name": "",
          "type": "uint256"
        }
      ],
      "stateMutability": "view",
      "type": "function"
    },
    {
      "inputs": [
        {
          "internalType": "contract BeforeAwardListenerInterface",
          "name": "listener",
          "type": "address"
        }
      ],
      "name": "forceBeforeAwardListener",
      "outputs": [],
      "stateMutability": "nonpayable",
      "type": "function"
    },
    {
      "inputs": [],
      "name": "getExternalErc20Awards",
      "outputs": [
        {
          "internalType": "address[]",
          "name": "",
          "type": "address[]"
        }
      ],
      "stateMutability": "view",
      "type": "function"
    },
    {
      "inputs": [
        {
          "internalType": "contract IERC721Upgradeable",
          "name": "_externalErc721",
          "type": "address"
        }
      ],
      "name": "getExternalErc721AwardTokenIds",
      "outputs": [
        {
          "internalType": "uint256[]",
          "name": "",
          "type": "uint256[]"
        }
      ],
      "stateMutability": "view",
      "type": "function"
    },
    {
      "inputs": [],
      "name": "getExternalErc721Awards",
      "outputs": [
        {
          "internalType": "address[]",
          "name": "",
          "type": "address[]"
        }
      ],
      "stateMutability": "view",
      "type": "function"
    },
    {
      "inputs": [
        {
          "internalType": "uint256",
          "name": "_prizePeriodStart",
          "type": "uint256"
        },
        {
          "internalType": "uint256",
          "name": "_prizePeriodSeconds",
          "type": "uint256"
        },
        {
          "internalType": "contract PrizePool",
          "name": "_prizePool",
          "type": "address"
        },
        {
          "internalType": "contract TicketInterface",
          "name": "_ticket",
          "type": "address"
        },
        {
          "internalType": "contract IERC20Upgradeable",
          "name": "_sponsorship",
          "type": "address"
        },
        {
          "internalType": "contract IERC20Upgradeable[]",
          "name": "externalErc20Awards",
          "type": "address[]"
        }
      ],
      "name": "initialize",
      "outputs": [],
      "stateMutability": "nonpayable",
      "type": "function"
    },
    {
      "inputs": [],
      "name": "isPrizePeriodOver",
      "outputs": [
        {
          "internalType": "bool",
          "name": "",
          "type": "bool"
        }
      ],
      "stateMutability": "view",
      "type": "function"
    },
    {
      "inputs": [],
      "name": "owner",
      "outputs": [
        {
          "internalType": "address",
          "name": "",
          "type": "address"
        }
      ],
      "stateMutability": "view",
      "type": "function"
    },
    {
      "inputs": [],
      "name": "periodicPrizeStrategyListener",
      "outputs": [
        {
          "internalType": "contract PeriodicPrizeStrategyListenerInterface",
          "name": "",
          "type": "address"
        }
      ],
      "stateMutability": "view",
      "type": "function"
    },
    {
      "inputs": [],
      "name": "prizePeriodEndAt",
      "outputs": [
        {
          "internalType": "uint256",
          "name": "",
          "type": "uint256"
        }
      ],
      "stateMutability": "view",
      "type": "function"
    },
    {
      "inputs": [],
      "name": "prizePeriodRemainingSeconds",
      "outputs": [
        {
          "internalType": "uint256",
          "name": "",
          "type": "uint256"
        }
      ],
      "stateMutability": "view",
      "type": "function"
    },
    {
      "inputs": [],
      "name": "prizePeriodSeconds",
      "outputs": [
        {
          "internalType": "uint256",
          "name": "",
          "type": "uint256"
        }
      ],
      "stateMutability": "view",
      "type": "function"
    },
    {
      "inputs": [],
      "name": "prizePeriodStartedAt",
      "outputs": [
        {
          "internalType": "uint256",
          "name": "",
          "type": "uint256"
        }
      ],
      "stateMutability": "view",
      "type": "function"
    },
    {
      "inputs": [],
      "name": "prizePool",
      "outputs": [
        {
          "internalType": "contract PrizePool",
          "name": "",
          "type": "address"
        }
      ],
      "stateMutability": "view",
      "type": "function"
    },
    {
      "inputs": [
        {
          "internalType": "contract IERC20Upgradeable",
          "name": "_externalErc20",
          "type": "address"
        },
        {
          "internalType": "contract IERC20Upgradeable",
          "name": "_prevExternalErc20",
          "type": "address"
        }
      ],
      "name": "removeExternalErc20Award",
      "outputs": [],
      "stateMutability": "nonpayable",
      "type": "function"
    },
    {
      "inputs": [
        {
          "internalType": "contract IERC721Upgradeable",
          "name": "_externalErc721",
          "type": "address"
        },
        {
          "internalType": "contract IERC721Upgradeable",
          "name": "_prevExternalErc721",
          "type": "address"
        }
      ],
      "name": "removeExternalErc721Award",
      "outputs": [],
      "stateMutability": "nonpayable",
      "type": "function"
    },
    {
      "inputs": [],
      "name": "renounceOwnership",
      "outputs": [],
      "stateMutability": "nonpayable",
      "type": "function"
    },
    {
      "inputs": [
        {
          "internalType": "contract BeforeAwardListenerInterface",
          "name": "_beforeAwardListener",
          "type": "address"
        }
      ],
      "name": "setBeforeAwardListener",
      "outputs": [],
      "stateMutability": "nonpayable",
      "type": "function"
    },
    {
      "inputs": [
        {
          "internalType": "uint256",
          "name": "_time",
          "type": "uint256"
        }
      ],
      "name": "setCurrentTime",
      "outputs": [],
      "stateMutability": "nonpayable",
      "type": "function"
    },
    {
      "inputs": [
        {
          "internalType": "contract PeriodicPrizeStrategyDistributorInterface",
          "name": "_distributor",
          "type": "address"
        }
      ],
      "name": "setDistributor",
      "outputs": [],
      "stateMutability": "nonpayable",
      "type": "function"
    },
    {
      "inputs": [
        {
          "internalType": "contract PeriodicPrizeStrategyListenerInterface",
          "name": "_periodicPrizeStrategyListener",
          "type": "address"
        }
      ],
      "name": "setPeriodicPrizeStrategyListener",
      "outputs": [],
      "stateMutability": "nonpayable",
      "type": "function"
    },
    {
      "inputs": [
        {
          "internalType": "uint256",
          "name": "_prizePeriodSeconds",
          "type": "uint256"
        }
      ],
      "name": "setPrizePeriodSeconds",
      "outputs": [],
      "stateMutability": "nonpayable",
      "type": "function"
    },
    {
      "inputs": [
        {
          "internalType": "contract TokenListenerInterface",
          "name": "_tokenListener",
          "type": "address"
        }
      ],
      "name": "setTokenListener",
      "outputs": [],
      "stateMutability": "nonpayable",
      "type": "function"
    },
    {
      "inputs": [],
      "name": "sponsorship",
      "outputs": [
        {
          "internalType": "contract IERC20Upgradeable",
          "name": "",
          "type": "address"
        }
      ],
      "stateMutability": "view",
      "type": "function"
    },
    {
      "inputs": [
        {
          "internalType": "bytes4",
          "name": "interfaceId",
          "type": "bytes4"
        }
      ],
      "name": "supportsInterface",
      "outputs": [
        {
          "internalType": "bool",
          "name": "",
          "type": "bool"
        }
      ],
      "stateMutability": "view",
      "type": "function"
    },
    {
      "inputs": [],
      "name": "ticket",
      "outputs": [
        {
          "internalType": "contract TicketInterface",
          "name": "",
          "type": "address"
        }
      ],
      "stateMutability": "view",
      "type": "function"
    },
    {
      "inputs": [],
      "name": "tokenListener",
      "outputs": [
        {
          "internalType": "contract TokenListenerInterface",
          "name": "",
          "type": "address"
        }
      ],
      "stateMutability": "view",
      "type": "function"
    },
    {
      "inputs": [
        {
          "internalType": "address",
          "name": "newOwner",
          "type": "address"
        }
      ],
      "name": "transferOwnership",
      "outputs": [],
      "stateMutability": "nonpayable",
      "type": "function"
    },
    {
      "inputs": [],
      "name": "vrf",
      "outputs": [
        {
          "internalType": "bytes32",
          "name": "result",
          "type": "bytes32"
        }
      ],
      "stateMutability": "view",
      "type": "function"
    }
  ],
  "bytecode": "0x608060405234801561001057600080fd5b50612fbf806100206000396000f3fe608060405234801561001057600080fd5b50600436106102485760003560e01c806372f33ea91161013b578063b2210957116100b8578063dfb2f13b1161007c578063dfb2f13b146106ac578063f210a9f3146106b4578063f2fde38b146106da578063f48af35214610700578063ffa1ad74146107d057610248565b8063b2210957146105d8578063c2f19ee814610614578063c42b42a01461061c578063c48ddbcb14610624578063d5ad6bf6146106a457610248565b80638da5cb5b116100ff5780638da5cb5b1461057457806394144c6b1461057c5780639417783f1461058457806395e5f9ee14610529578063b0244682146105aa57610248565b806372f33ea9146104fb57806375619ab514610503578063876f5c7e14610529578063884a4448146105315780638aa3ec6f1461054e57610248565b80634e5d08e0116101c9578063671137c41161018d578063671137c4146104ad5780636be51c4f146104db5780636cc25db7146104e3578063715018a6146104eb578063719ce73e146104f357610248565b80634e5d08e0146103e1578063500db70d14610407578063605e25ac1461040f57806362c77a6114610435578063669682211461043d57610248565b80632c8fe73d116102105780632c8fe73d1461030257806330fcdf411461030a57806342d092091461033057806347bed998146103885780634d7f3db0146103a557610248565b806301b48e341461024d57806301ffc9a71461027c5780630c949043146102b75780630d847fc4146102bf57806322f8e566146102e3575b600080fd5b61026a6004803603602081101561026357600080fd5b503561084d565b60408051918252519081900360200190f35b6102a36004803603602081101561029257600080fd5b50356001600160e01b031916610866565b604080519115158252519081900360200190f35b61026a61089c565b6102c76108bb565b604080516001600160a01b039092168252519081900360200190f35b610300600480360360208110156102f957600080fd5b50356108ca565b005b61026a6108cf565b6103006004803603602081101561032057600080fd5b50356001600160a01b03166108df565b6103386109f1565b60408051602080825283518183015283519192839290830191858101910280838360005b8381101561037457818101518382015260200161035c565b505050509050019250505060405180910390f35b61026a6004803603602081101561039e57600080fd5b50356109fd565b610300600480360360808110156103bb57600080fd5b506001600160a01b03813581169160208101359160408201358116916060013516610a08565b610300600480360360208110156103f757600080fd5b50356001600160a01b0316610af6565b6102c7610baa565b6103006004803603602081101561042557600080fd5b50356001600160a01b0316610bb9565b610338610cd4565b6103006004803603602081101561045357600080fd5b81019060208101813564010000000081111561046e57600080fd5b82018360208201111561048057600080fd5b803590602001918460208302840111640100000000831117156104a257600080fd5b509092509050610ce0565b610300600480360360408110156104c357600080fd5b506001600160a01b0381358116916020013516610dc4565b6102c7610e3f565b6102c7610e4e565b610300610e5d565b6102c7610f09565b61026a610f18565b6103006004803603602081101561051957600080fd5b50356001600160a01b0316610f1e565b6102a3610f40565b6103006004803603602081101561054757600080fd5b5035610f4a565b6103006004803603602081101561056457600080fd5b50356001600160a01b0316610fb5565b6102c76110c7565b61026a6110d6565b6103386004803603602081101561059a57600080fd5b50356001600160a01b03166110dc565b610300600480360360408110156105c057600080fd5b506001600160a01b0381358116916020013516611148565b610300600480360360808110156105ee57600080fd5b506001600160a01b038135811691602081013582169160408201359160600135166111ee565b6102c761130e565b61026a61131d565b6103006004803603604081101561063a57600080fd5b6001600160a01b03823516919081019060408101602082013564010000000081111561066557600080fd5b82018360208201111561067757600080fd5b8035906020019184602083028401116401000000008311171561069957600080fd5b509092509050611393565b61026a611600565b61030061160a565b610300600480360360208110156106ca57600080fd5b50356001600160a01b03166117c0565b610300600480360360208110156106f057600080fd5b50356001600160a01b03166117e2565b610300600480360360c081101561071657600080fd5b8135916020810135916001600160a01b036040830135811692606081013582169260808201359092169181019060c0810160a082013564010000000081111561075e57600080fd5b82018360208201111561077057600080fd5b8035906020019184602083028401116401000000008311171561079257600080fd5b9190808060200260200160405190810160405280939291908181526020018383602002808284376000920191909152509295506118e5945050505050565b6107d8611bea565b6040805160208082528351818301528351919283929083019185019080838360005b838110156108125781810151838201526020016107fa565b50505050905090810190601f16801561083f5780820380516001836020036101000a031916815260200191505b509250505060405180910390f35b600061086061085a611c0b565b83611c48565b92915050565b60006001600160e01b031982166301ffc9a760e01b14806108605750506001600160e01b031916600162a1cb1960e01b03191490565b60008060405160208160208460ff600019fa6108b457fe5b5192915050565b6070546001600160a01b031681565b607355565b60006108d9611c71565b90505b90565b6108e7611c8a565b6001600160a01b03166108f86110c7565b6001600160a01b031614610941576040805162461bcd60e51b81526020600482018190526024820152600080516020612e69833981519152604482015290519081900360640190fd5b6001600160a01b038116158061096c575061096c6001600160a01b03821663266fce1f60e11b611c8e565b6109a75760405162461bcd60e51b8152600401808060200182810382526031815260200180612e896031913960400191505060405180910390fd5b607080546001600160a01b0319166001600160a01b0383169081179091556040517fc4feff61630891ea2cb42a54fbe3ff2e65422f2ed17323ac6b65f4521112e87e90600090a250565b60606108d9606d611cb1565b600061086082611d91565b6066546001600160a01b0316610a1c611c8a565b6001600160a01b031614610a615760405162461bcd60e51b8152600401808060200182810382526025815260200180612d836025913960400191505060405180910390fd5b6065546001600160a01b031615610af057606554604080516304d7f3db60e41b81526001600160a01b038781166004830152602482018790528581166044830152848116606483015291519190921691634d7f3db091608480830192600092919082900301818387803b158015610ad757600080fd5b505af1158015610aeb573d6000803e3d6000fd5b505050505b50505050565b610afe6110c7565b6001600160a01b0316610b0f611c8a565b6001600160a01b03161480610b3e57506071546001600160a01b0316610b33611c8a565b6001600160a01b0316145b80610b6357506070546001600160a01b0316610b58611c8a565b6001600160a01b0316145b610b9e5760405162461bcd60e51b815260040180806020018281038252602c815260200180612cf9602c913960400191505060405180910390fd5b610ba781611dd8565b50565b6068546001600160a01b031681565b610bc1611c8a565b6001600160a01b0316610bd26110c7565b6001600160a01b031614610c1b576040805162461bcd60e51b81526020600482018190526024820152600080516020612e69833981519152604482015290519081900360640190fd5b6001600160a01b0381161580610c495750610c496001600160a01b038216600162a1cb1960e01b0319611c8e565b610c845760405162461bcd60e51b815260040180806020018281038252602c815260200180612ca7602c913960400191505060405180910390fd5b606580546001600160a01b0319166001600160a01b0383811691909117918290556040519116907f9fc437aa70ad4ee5f33f6772bf338eed41e21b95435820817ab8b4df161ce4dd90600090a250565b60606108d9606b611cb1565b610ce86110c7565b6001600160a01b0316610cf9611c8a565b6001600160a01b03161480610d2857506071546001600160a01b0316610d1d611c8a565b6001600160a01b0316145b80610d4d57506070546001600160a01b0316610d42611c8a565b6001600160a01b0316145b610d885760405162461bcd60e51b815260040180806020018281038252602c815260200180612cf9602c913960400191505060405180910390fd5b60005b81811015610dbf57610db7838383818110610da257fe5b905060200201356001600160a01b0316611dd8565b600101610d8b565b505050565b610dcc611c8a565b6001600160a01b0316610ddd6110c7565b6001600160a01b031614610e26576040805162461bcd60e51b81526020600482018190526024820152600080516020612e69833981519152604482015290519081900360640190fd5b610e32606d828461203f565b610e3b8261215b565b5050565b6065546001600160a01b031681565b6067546001600160a01b031681565b610e65611c8a565b6001600160a01b0316610e766110c7565b6001600160a01b031614610ebf576040805162461bcd60e51b81526020600482018190526024820152600080516020612e69833981519152604482015290519081900360640190fd5b6033546040516000916001600160a01b0316907f8be0079c531659141344cd1fd0a4f28419497f9722a3daafe3b4186f6b6457e0908390a3603380546001600160a01b0319169055565b6066546001600160a01b031681565b606a5481565b607280546001600160a01b0319166001600160a01b0392909216919091179055565b60006108d96121b3565b610f52611c8a565b6001600160a01b0316610f636110c7565b6001600160a01b031614610fac576040805162461bcd60e51b81526020600482018190526024820152600080516020612e69833981519152604482015290519081900360640190fd5b610ba7816121cc565b610fbd611c8a565b6001600160a01b0316610fce6110c7565b6001600160a01b031614611017576040805162461bcd60e51b81526020600482018190526024820152600080516020612e69833981519152604482015290519081900360640190fd5b6001600160a01b038116158061104257506110426001600160a01b038216632ba8396360e11b611c8e565b61107d5760405162461bcd60e51b8152600401808060200182810382526033815260200180612f0a6033913960400191505060405180910390fd5b607180546001600160a01b0319166001600160a01b0383169081179091556040517fda05d50a3a1ec0ffab059f1d457ae59f68ccfb3ffbb4dad283c516f9103d584b90600090a250565b6033546001600160a01b031690565b60695481565b6001600160a01b0381166000908152606f602090815260409182902080548351818402810184019094528084526060939283018282801561113c57602002820191906000526020600020905b815481526020019060010190808311611128575b50505050509050919050565b611150611c8a565b6001600160a01b03166111616110c7565b6001600160a01b0316146111aa576040805162461bcd60e51b81526020600482018190526024820152600080516020612e69833981519152604482015290519081900360640190fd5b6111b6606b828461203f565b6040516001600160a01b038316907f58982464497acdab11ad29d39907e076b0d3b8daf1d9b734174c7c3a2a0e8c7490600090a25050565b6066546001600160a01b0316611202611c8a565b6001600160a01b0316146112475760405162461bcd60e51b8152600401808060200182810382526025815260200180612d836025913960400191505060405180910390fd5b826001600160a01b0316846001600160a01b031614156112985760405162461bcd60e51b8152600401808060200182810382526026815260200180612da86026913960400191505060405180910390fd5b6065546001600160a01b031615610af0576065546040805163b221095760e01b81526001600160a01b03878116600483015286811660248301526044820186905284811660648301529151919092169163b221095791608480830192600092919082900301818387803b158015610ad757600080fd5b6071546001600160a01b031681565b606654604080516318c1996d60e21b815290516000926001600160a01b03169163630665b4916004808301926020929190829003018186803b15801561136257600080fd5b505afa158015611376573d6000803e3d6000fd5b505050506040513d602081101561138c57600080fd5b5051905090565b61139b6110c7565b6001600160a01b03166113ac611c8a565b6001600160a01b031614806113db57506071546001600160a01b03166113d0611c8a565b6001600160a01b0316145b8061140057506070546001600160a01b03166113f5611c8a565b6001600160a01b0316145b61143b5760405162461bcd60e51b815260040180806020018281038252602c815260200180612cf9602c913960400191505060405180910390fd5b60665460408051636a3fd4f960e01b81526001600160a01b03868116600483015291519190921691636a3fd4f9916024808301926020929190829003018186803b15801561148857600080fd5b505afa15801561149c573d6000803e3d6000fd5b505050506040513d60208110156114b257600080fd5b50516114ef5760405162461bcd60e51b815260040180806020018281038252602b815260200180612eba602b913960400191505060405180910390fd5b6115096001600160a01b0384166380ac58cd60e01b611c8e565b6115445760405162461bcd60e51b8152600401808060200182810382526024815260200180612c836024913960400191505060405180910390fd5b61154f606d84612246565b61155e5761155e606d84612297565b60005b8181101561158d576115858484848481811061157957fe5b905060200201356123ab565b600101611561565b50826001600160a01b03167f51541dc4b4c08a16085809cccdc4cc77d8000b60fbb00142e57f236d84298675838360405180806020018281038252848482818152602001925060200280828437600083820152604051601f909101601f19169092018290039550909350505050a2505050565b60006108d9611c0b565b600061161461089c565b6070549091506001600160a01b03161561169857607054606a546040805163266fce1f60e11b8152600481018590526024810192909252516001600160a01b0390921691634cdf9c3e9160448082019260009290919082900301818387803b15801561167f57600080fd5b505af1158015611693573d6000803e3d6000fd5b505050505b6116a181612531565b6071546001600160a01b03161561172257607154606a5460408051632ba8396360e11b8152600481018590526024810192909252516001600160a01b039092169163575072c69160448082019260009290919082900301818387803b15801561170957600080fd5b505af115801561171d573d6000803e3d6000fd5b505050505b61173261172d612599565b611d91565b606a5561173d611c8a565b6001600160a01b03167f9c4163ece98173eab9a496c4db8bf3e2c8edcc5d2854377880597ccb858b7a9d826040518082815260200191505060405180910390a2606a54611788611c8a565b6001600160a01b03167fc61852c20f0b03b31d782f3022f2bf20322ac17ce66c5349fb6e24740cdd645660405160405180910390a350565b607080546001600160a01b0319166001600160a01b0392909216919091179055565b6117ea611c8a565b6001600160a01b03166117fb6110c7565b6001600160a01b031614611844576040805162461bcd60e51b81526020600482018190526024820152600080516020612e69833981519152604482015290519081900360640190fd5b6001600160a01b0381166118895760405162461bcd60e51b8152600401808060200182810382526026815260200180612cd36026913960400191505060405180910390fd5b6033546040516001600160a01b038084169216907f8be0079c531659141344cd1fd0a4f28419497f9722a3daafe3b4186f6b6457e090600090a3603380546001600160a01b0319166001600160a01b0392909216919091179055565b600054610100900460ff16806118fe57506118fe61259f565b8061190c575060005460ff16155b6119475760405162461bcd60e51b815260040180806020018281038252602e815260200180612e1a602e913960400191505060405180910390fd5b600054610100900460ff16158015611972576000805460ff1961ff0019909116610100171660011790555b6001600160a01b0385166119b75760405162461bcd60e51b8152600401808060200182810382526029815260200180612dce6029913960400191505060405180910390fd5b6001600160a01b0384166119fc5760405162461bcd60e51b8152600401808060200182810382526025815260200180612ee56025913960400191505060405180910390fd5b6001600160a01b038316611a415760405162461bcd60e51b815260040180806020018281038252602a815260200180612d25602a913960400191505060405180910390fd5b606680546001600160a01b038088166001600160a01b031992831617909255606780548784169083161790556068805492861692909116919091179055611a87866121cc565b611a8f6125b0565b611a99606b612661565b60005b8251811015611ac957611ac1838281518110611ab457fe5b6020026020010151611dd8565b600101611a9c565b506069869055606a879055611ade606d612661565b846001600160a01b03167f08df3eb19fd45e75c3427461686799fdfd60a8c9a1d0880105960f65a513ce74888887878760405180868152602001858152602001846001600160a01b03168152602001836001600160a01b0316815260200180602001828103825283818151815260200191508051906020019060200280838360005b83811015611b78578181015183820152602001611b60565b50505050905001965050505050505060405180910390a2606a54611b9a611c8a565b6001600160a01b03167fc61852c20f0b03b31d782f3022f2bf20322ac17ce66c5349fb6e24740cdd645660405160405180910390a38015611be1576000805461ff00191690555b50505050505050565b60405180604001604052806005815260200164332e342e3160d81b81525081565b600080611c16611c71565b90506000611c22612599565b905081811115611c37576000925050506108dc565b611c4182826126c9565b9250505090565b600080611c5d670de0b6b3a764000085612726565b9050611c69818461277f565b949350505050565b60006108d9606954606a546127c190919063ffffffff16565b3390565b6000611c998361281b565b8015611caa5750611caa838361284e565b9392505050565b606080826000015467ffffffffffffffff81118015611ccf57600080fd5b50604051908082528060200260200182016040528015611cf9578160200160208202803683370190505b50600160008181529085016020526040812054919250906001600160a01b03165b6001600160a01b03811615801590611d3c57506001600160a01b038116600114155b15611d885780838381518110611d4e57fe5b6001600160a01b03928316602091820292909201810191909152918116600090815260018088019093526040902054929091019116611d1a565b50909392505050565b600080611db5606954611daf606a54866126c990919063ffffffff16565b90612874565b9050611caa611dcf6069548361272690919063ffffffff16565b606a54906127c1565b611dea816001600160a01b03166128db565b611e3b576040805162461bcd60e51b815260206004820181905260248201527f506572696f6469635072697a6553747261746567792f65726332302d6e756c6c604482015290519081900360640190fd5b60665460408051636a3fd4f960e01b81526001600160a01b03848116600483015291519190921691636a3fd4f9916024808301926020929190829003018186803b158015611e8857600080fd5b505afa158015611e9c573d6000803e3d6000fd5b505050506040513d6020811015611eb257600080fd5b5051611eef5760405162461bcd60e51b815260040180806020018281038252602b815260200180612eba602b913960400191505060405180910390fd5b60408051600481526024810182526020810180516001600160e01b03166318160ddd60e01b178152915181516000936060936001600160a01b038716939092909182918083835b60208310611f555780518252601f199092019160209182019101611f36565b6001836020036101000a038019825116818451168082178552505050505050905001915050600060405180830381855afa9150503d8060008114611fb5576040519150601f19603f3d011682016040523d82523d6000602084013e611fba565b606091505b509150915081611ffb5760405162461bcd60e51b8152600401808060200182810382526023815260200180612df76023913960400191505060405180910390fd5b612006606b84612297565b6040516001600160a01b038416907fbcd6d991f3416e288bf59a2997b423772937b62c7ea7dd1a54af7771de1f741890600090a2505050565b6001600160a01b03811660011480159061206157506001600160a01b03811615155b6120a4576040805162461bcd60e51b815260206004820152600f60248201526e496e76616c6964206164647265737360881b604482015290519081900360640190fd5b6001600160a01b03828116600090815260018501602052604090205481169082161461210d576040805162461bcd60e51b8152602060048201526013602482015272496e76616c696420707265764164647265737360681b604482015290519081900360640190fd5b6001600160a01b039081166000818152600185016020526040808220805495851683529082208054959094166001600160a01b03199586161790935552805490911690558054600019019055565b6001600160a01b0381166000908152606f6020526040812061217c91612c50565b6040516001600160a01b038216907fcd64d9dacd230c5ccf1278ea5332b0621aa28c950fb0e61c8fbc9e2011c88a3490600090a250565b60006121bd611c71565b6121c5612599565b1015905090565b6000811161220b5760405162461bcd60e51b8152600401808060200182810382526034815260200180612d4f6034913960400191505060405180910390fd5b60698190556040805182815290517f0d379c1a7282461e725a9dc2d74e65246c77e98ae93835e26c2f1654c48ee4ec9181900360200190a150565b60006001600160a01b03821660011480159061226a57506001600160a01b03821615155b8015611caa5750506001600160a01b03908116600090815260019290920160205260409091205416151590565b6001600160a01b0381166001148015906122b957506001600160a01b03811615155b6122fc576040805162461bcd60e51b815260206004820152600f60248201526e496e76616c6964206164647265737360881b604482015290519081900360640190fd5b6001600160a01b038181166000908152600184016020526040902054161561235b576040805162461bcd60e51b815260206004820152600d60248201526c105b1c9958591e481859191959609a1b604482015290519081900360640190fd5b60016000818152838201602052604080822080546001600160a01b039586168085529284208054969091166001600160a01b03199687161790559183905281549093169092179091558154019055565b606654604080516331a9108f60e11b81526004810184905290516001600160a01b0392831692851691636352211e916024808301926020929190829003018186803b1580156123f957600080fd5b505afa15801561240d573d6000803e3d6000fd5b505050506040513d602081101561242357600080fd5b50516001600160a01b03161461246a5760405162461bcd60e51b8152600401808060200182810382526027815260200180612f636027913960400191505060405180910390fd5b60005b6001600160a01b0383166000908152606f6020526040902054811015612504576001600160a01b0383166000908152606f602052604090208054839190839081106124b457fe5b906000526020600020015414156124fc5760405162461bcd60e51b8152600401808060200182810382526026815260200180612f3d6026913960400191505060405180910390fd5b60010161246d565b506001600160a01b039091166000908152606f602090815260408220805460018101825590835291200155565b607254604080516391c05b0b60e01b81526004810184905290516001600160a01b03909216916391c05b0b9160248082019260009290919082900301818387803b15801561257e57600080fd5b505af1158015612592573d6000803e3d6000fd5b5050505050565b60735490565b60006125aa306128db565b15905090565b600054610100900460ff16806125c957506125c961259f565b806125d7575060005460ff16155b6126125760405162461bcd60e51b815260040180806020018281038252602e815260200180612e1a602e913960400191505060405180910390fd5b600054610100900460ff1615801561263d576000805460ff1961ff0019909116610100171660011790555b6126456128e1565b61264d612981565b8015610ba7576000805461ff001916905550565b8054156126a4576040805162461bcd60e51b815260206004820152600c60248201526b105b1c9958591e481a5b9a5d60a21b604482015290519081900360640190fd5b60016000818152918101602052604090912080546001600160a01b0319169091179055565b600082821115612720576040805162461bcd60e51b815260206004820152601e60248201527f536166654d6174683a207375627472616374696f6e206f766572666c6f770000604482015290519081900360640190fd5b50900390565b60008261273557506000610860565b8282028284828161274257fe5b0414611caa5760405162461bcd60e51b8152600401808060200182810382526021815260200180612e486021913960400191505060405180910390fd5b6000611caa83836040518060400160405280601a81526020017f536166654d6174683a206469766973696f6e206279207a65726f000000000000815250612a7a565b600082820183811015611caa576040805162461bcd60e51b815260206004820152601b60248201527f536166654d6174683a206164646974696f6e206f766572666c6f770000000000604482015290519081900360640190fd5b600061282e826301ffc9a760e01b61284e565b80156108605750612847826001600160e01b031961284e565b1592915050565b600080600061285d8585612b1c565b9150915081801561286b5750805b95945050505050565b60008082116128ca576040805162461bcd60e51b815260206004820152601a60248201527f536166654d6174683a206469766973696f6e206279207a65726f000000000000604482015290519081900360640190fd5b8183816128d357fe5b049392505050565b3b151590565b600054610100900460ff16806128fa57506128fa61259f565b80612908575060005460ff16155b6129435760405162461bcd60e51b815260040180806020018281038252602e815260200180612e1a602e913960400191505060405180910390fd5b600054610100900460ff1615801561264d576000805460ff1961ff0019909116610100171660011790558015610ba7576000805461ff001916905550565b600054610100900460ff168061299a575061299a61259f565b806129a8575060005460ff16155b6129e35760405162461bcd60e51b815260040180806020018281038252602e815260200180612e1a602e913960400191505060405180910390fd5b600054610100900460ff16158015612a0e576000805460ff1961ff0019909116610100171660011790555b6000612a18611c8a565b603380546001600160a01b0319166001600160a01b038316908117909155604051919250906000907f8be0079c531659141344cd1fd0a4f28419497f9722a3daafe3b4186f6b6457e0908290a3508015610ba7576000805461ff001916905550565b60008183612b065760405162461bcd60e51b81526004018080602001828103825283818151815260200191508051906020019080838360005b83811015612acb578181015183820152602001612ab3565b50505050905090810190601f168015612af85780820380516001836020036101000a031916815260200191505b509250505060405180910390fd5b506000838581612b1257fe5b0495945050505050565b604080516001600160e01b0319831660248083019190915282518083039091018152604490910182526020810180516001600160e01b03166301ffc9a760e01b1781529151815160009384939284926060926001600160a01b038a169261753092879282918083835b60208310612ba45780518252601f199092019160209182019101612b85565b6001836020036101000a0380198251168184511680821785525050505050509050019150506000604051808303818686fa925050503d8060008114612c05576040519150601f19603f3d011682016040523d82523d6000602084013e612c0a565b606091505b5091509150602081511015612c285760008094509450505050612c49565b81818060200190516020811015612c3e57600080fd5b505190955093505050505b9250929050565b5080546000825590600052602060002090810190610ba791905b80821115612c7e5760008155600101612c6a565b509056fe506572696f6469635072697a6553747261746567792f6572633732312d696e76616c6964506572696f6469635072697a6553747261746567792f746f6b656e2d6c697374656e65722d696e76616c69644f776e61626c653a206e6577206f776e657220697320746865207a65726f2061646472657373506572696f6469635072697a6553747261746567792f6f6e6c792d6f776e65722d6f722d6c697374656e6572506572696f6469635072697a6553747261746567792f73706f6e736f72736869702d6e6f742d7a65726f506572696f6469635072697a6553747261746567792f7072697a652d706572696f642d677265617465722d7468616e2d7a65726f506572696f6469635072697a6553747261746567792f6f6e6c792d7072697a652d706f6f6c506572696f6469635072697a6553747261746567792f7472616e736665722d746f2d73656c66506572696f6469635072697a6553747261746567792f7072697a652d706f6f6c2d6e6f742d7a65726f506572696f6469635072697a6553747261746567792f65726332302d696e76616c6964496e697469616c697a61626c653a20636f6e747261637420697320616c726561647920696e697469616c697a6564536166654d6174683a206d756c7469706c69636174696f6e206f766572666c6f774f776e61626c653a2063616c6c6572206973206e6f7420746865206f776e6572506572696f6469635072697a6553747261746567792f6265666f726541776172644c697374656e65722d696e76616c6964506572696f6469635072697a6553747261746567792f63616e6e6f742d61776172642d65787465726e616c506572696f6469635072697a6553747261746567792f7469636b65742d6e6f742d7a65726f506572696f6469635072697a6553747261746567792f7072697a6553747261746567794c697374656e65722d696e76616c6964506572696f6469635072697a6553747261746567792f6572633732312d6475706c6963617465506572696f6469635072697a6553747261746567792f756e617661696c61626c652d746f6b656ea2646970667358221220b61cedbfa05d496e80f9f6de2cdb32412d10377adc1061f5ec0196ff0885331764736f6c634300060c0033",
  "linkReferences": {},
  "deployedLinkReferences": {}
}